:100000006F004000975100209381C1861781002026
:10001000130141FF13058013973500209385857EDA
:1000200017460020130686CE63FAC500832205001A
:1000300023A0550011059105E3EAC5FE1755000000
:1000400013054595974500209385C5FB1386818050
:1000500063FAC5008322050023A055001105910510
:10006000E3EAC5FE13858180975500209385055DE1
:100070006377B500232005001105E36DB5FE9302FB
:10008000800873A00230970200009382220293E25C
:1000900012007390523097120000938242E77390DF
:0800A00012347300203000004F
:1000A80000000000000000006F0050146F003014C2
:1000B8000000000000000000000000000000000038
:1000C8000000000000000000000000000000000028
:1000D8006F001012000000006F00B0110000000057
:1000E8006F0050116F0030116F0010116F00F01089
:1000F8006F00D0106F20A00E6F009010000000005D
:100108006F0030106F0010106F00F00F6F00D00FED
:100118006F0010376F00900F000000006F00300F65
:100128006F00100F6F00F00E6F00D00E6F00B00E52
:100138002303048095472303F4802302A48082804C
:1001480083076480E3CE07FE23030480828083074D
:100158006480E3CE07FE0345448082808307648081
:10016800E3CE07FE2302A4808280411126C44AC23E
:100178004EC006C61377F50BAD47AA892E8995445C
:100188006306F70019456D37653F8D444E854D3739
:10019800FD59FD1463983401B240A24412498249C2
:1001A80041018280135509011375F50F453F220956
:1001B800CDB7011126CC06CEB70408005137154536
:1001C800853F713769372AC6A53F3245058901C978
:1001D800FD14F5F47D55F240E24405618280014545
:1001E800DDBF397126DC4ADA4ED852D656D45AD2F7
:1001F8005ED006DE62CEB7E700E083AB071022C60A
:1002080003AB471023A0071023A20710130770059C
:10021800B71700402380E704130780FA2380E70418
:1002280083C74704130975FFB689E2071379F90FE5
:100238008546AA8AAE84328A37240040E18701576E
:1002480063FA26016308D500894613070002631381
:10025800D5000157D98F93F7F70F371C0040114786
:100268002302FC042303E4801305F00FD135C93DB4
:10027800094763692711B7070700BE943787070046
:10028800795963FFE402B3873401636BF702A94726
:10029800639AFA0663940900014915A0A6850945E1
:1002A800E935050A0345FAFFFD198504453D6385CF
:1002B800090093F7F40FF5F7ED3D2A8961DD49351B
:1002C800B7170040130770052380E704130780FA67
:1002D8002380E70403C747044A85418B2382E70448
:1002E800F250B7E700E023A0771123A26711E25488
:1002F80032445259C259325AA25A125B825B724C2A
:1003080021618280A5476394FA06056A9307F00F76
:10031800B3863701B3F9F400B69993C7F7FFB3F979
:100328003701FD8CC16A056C9307FAFFE58F99E3E5
:1003380063FC4901135A4A00C147E3E747FFA9BFD5
:100348008567416AFD17E9B71305800D63085A01EF
:100358001305000263048A0113051008A6853135C8
:10036800893D2A8931FDD294B3894941D1B7A685FF
:100378002D45E53BD299E3013AF3050AC93BA30FA2
:10038800AAFED5BF9387FAFF93F7F70F6360F70AC2
:1003980003475C04B70708001377070219E3B78718
:1003A80007007959E3FEF4F033873401E3EAE7F014
:1003B80089476393FA0493D92900D54AE38E09EC57
:1003C800A68509455D33110A0327CAFF91472320F3
:1003D800E48003076480E34E07FE23035481FD177E
:1003E800EDFBFD1991046385090093F7F40FE1FF14
:1003F800C9332A8961D5E1B58547E383FAF4A6852F
:100408002D45A5334E899304F9FFE30709E88133A5
:1004180093F7340091EB8326048003270A0093079F
:100428004A00E39EE6E83E8A2689F1BFB54763960F
:10043800FA001305900BED3985B5B1471305B00ADD
:10044800E38BFAFE9947639EFA02A6852D45313B58
:1004580001498D4AA149E53963165901832704806A
:100468002320FA000509E31839FF8327048013972E
:100478002401635507002312FA0039BD2322FA002C
:1004880021BD9D476391FA0281451305B004F139F6
:100498009D447D596D39B3079A002380A700FD1448
:1004A800E39A24FFD5BBA1476396FA02194549315F
:1004B80041390545B539014581C88547130500050A
:1004C8006384F4001305C003513909454139D53116
:1004D8002A89F5B3E3820ADC7159D5B34DC12A875D
:1004E8000145C5C1B307E0408D8BBA97C207C183E8
:1004F80013074003636CF70417270000130747A688
:10050800084317270000130727A51443638AA60486
:100518000357650029E303574500636EF702B306E6
:10052800F74021466370D6021041938687001D8FDD
:10053800AA96611790C22392E6002393060014C17D
:100548002312F5002313B500210582801727000028
:100558001307C7A075B7084113172500E34807FA22
:10056800972700009387478A9C5B014599CB4111E7
:1005780006C605458297B240014541018280014582
:100588008280828059E982808C436368F50663E63D
:10059800A506138887006360050B2393070063860D
:1005A800D702972600009386669B9442638FF600D5
:1005B8008356670099EA8356470083D747000CC3E0
:1005C800B697A1072312F700BA8798436305C706B1
:1005D80097260000938686989442630ED704835624
:1005E8006700B1EA83D64700035647001843A106BF
:1005F800B2962392D70098C38280139825003E872D
:10060800AE8763480802971700009387E77F03A324
:1006180007036302030209450283972700009387B3
:1006280027949443972700009387079390430147A3
:08063800B687E3EBC7F48280F2
:100640003D432A876373C3029377F700BDEFADE59F
:10065000937606FF3D8ABA960CC34CC30CC74CC7B1
:100660004107E36BD7FE11E28280B306C3408A06DE
:100670009702000096966780A6002307B700A3069E
:10068000B7002306B700A305B7002305B700A304EE
:10069000B7002304B700A303B7002303B700A302E6
:1006A000B7002302B700A301B7002301B700A300DE
:1006B000B7002300B700828093F5F50F939685006D
:1006C000D58D93960501D58D61B793962700970236
:1006D000000096968682E78086FA9680C1171D8F65
:1006E0003E96E374C3F8A5B793770502BDCBB71761
:1006F000004003C7A700118B21C3B7170040930622
:1007000070052380D704130780FA2380E7047D89CE
:100710002394A700010001000100010023800704C9
:100720002380D7042380E704854637270040A303AE
:10073000D780238007048280130770052380E70495
:10074000130780FA2380E70403C7A7001367470055
:100750002385E7009307004B01000100FD17EDFF23
:1007600069BF93770504E1DBB717004003C7A70013
:10077000418B31C37D8913660504DD477D1563F127
:10078000A706B7170040930670052380D704130708
:1007900080FA2380E7042394C700010001000100D0
:1007A0000100238007042380D7042380E7048D46BB
:1007B00037270040ADBF130770052380E7041307F8
:1007C00080FA2380E70403C7A70013670701238586
:1007D000E7009307007D01000100FD17EDFF59BF01
:1007E000B7170040930670052380D704130780FADB
:1007F0002380E7042394C7000100010001000100E9
:10080000238007042380D7042380E7048946372701
:10081000004031BFB717004003D587004205418132
:100820009377050491EB9377F5013755E8011305AC
:1008300005803345F50282809377050C1307000489
:100840006397E7009377F50137459C1CCDB7216589
:10085000130505D08280F947B387F502E146935529
:100860001600130780703E06AE97B375D502335558
:10087000D502B385E50241677D17798E798DAE97F4
:10088000C2075D8E93057005B71700402380B7043B
:10089000930580FA2380B704C8DB03C717031367E7
:1008A0000708A388E702D0DB03C717031367070411
:1008B000A388E702238007048280914763EEB70292
:1008C00017470000130747F28A05BA959C41BA976B
:1008D0008287B717004003A7470B1345F5FF698FC1
:1008E00023AAE70A03A7070B698F23A8E70A03A730
:1008F000070A798D23A0A70A8280B717004083A634
:10090000470B1347F5FFF98E23AAD70A83A6070BD7
:10091000558D23A8A70A83A6070A758F23A0E70A87
:100920008280B717004003A7470B498F23AAE70A25
:1009300003A7070B1345F5FF45BFB717004083A674
:10094000470B1347F5FF758F23AAE70A03A7070A8A
:10095000598D4DB7B717004003A7470B498FEDB727
:10096000B7F700E0C8439C47828081473737004093
:10097000A14663C4C700328582800345B740E38E39
:10098000A6FE3385F5000345050085072304A7402F
:10099000CDB7411122C406C62A84AD3D2947B3070D
:1009A000E502B2408D83B3D7870222449507B3D7BF
:1009B000E70237370040C207C1832316F7404101E1
:1009C0008280716541111305052006C6D937B737F6
:1009D0000040130770F82381E7400D47A381E740EB
:1009E00013070004A380E74005472387E740B24090
:1009F0004101828001A001A001A001A001A001A0ED
:100A000001A001A001A001A001A001A001A001A0DE
:100A100001A001A001A001A001A001A001A001A0CE
:100A2000B717004003C6B70583C6870503C79705F8
:100A300083C5B7051376F60F93F6F60F93E5050811
:100A4000A38DB704BD45238CB70493051002A38C76
:100A5000B70483C5A7051377F70F93E51500238D1A
:100A6000B70483C5A7058589EDFD03D5C705A38D0B
:100A7000C704238CD704A38CE7048280411193968A
:100A80002500AA852D4506C697300020E780A0E204
:100A9000B240014541018280411122C426C24AC0B0
:100AA0002A842E89B284AA8585660146254506C614
:100AB00097300020E78020E0931629002686A28543
:100AC000294597300020E78000DFB240224492445D
:100AD000024901454101828041119397050122C4D9
:100AE00006C6C1872E8463DB0700612911C1A521D9
:100AF0002165218DB24022444101828093F7150087
:100B000013C51500E5FB9397250163DE0700EF1081
:100B1000006137F60200130606E0896503C54181CE
:100B2000912D0965F9B7939715010145E3D407FCA9
:100B300017450000130505D1EF20B0141166130608
:100B400006E8916503C54181352511655DB71D71C5
:100B5000494697450000938565CA1745000013056F
:100B600065D886CEBD2301E917450000130545CAA7
:100B7000EF20F02501A0B7F700E07957D8C77D57DF
:100B800098CB856637E700E02320D7101306701056
:100B900090C32320D7181306C003814548080D23AE
:100BA000973700209387074F3ECA85679387074092
:100BB000231CF100ED47A301F1029307501023120B
:100BC000F102CD472303F1029D673ECE9707000057
:100BD000938707EBBEC497070000938727ECBEC638
:100BE000B5472308F102B7F5070097070000938780
:100BF00067D73EDA8146970700009387A7E2700027
:100C0000E10519453EDE97300020E780C0CA58084C
:100C10008147994670003E96034606008507050702
:100C2000A30AC700E398D7FED24791C703578101B3
:100C300085676373F70001A04808EF007025AA8557
:100C400001C9174500001305E5BDEF20900301A081
:100C5000F64025618280411117050000130505E863
:100C600006C622C4EF00101F138441812300A40094
:100C70003D20034504002244B24037F6020013062B
:100C800006E089654101FDA1B71700401307000385
:100C90002388E702854723ACF1807300203041119F
:100CA00006C6B7170040130770052380E704130733
:100CB00080FA2380E70403C7F7025D451306A0030B
:100CC00013677700A387E702238007049305B00327
:100CD0005936B240014541016F00F039797122D493
:100CE0004AD006D626D24ECE8D472A893284630159
:100CF000F50A91476308F50E8947631FF5002EC674
:100D0000EF10A010B24585476395F5021745000026
:100D1000130585B3EF20B00B2254B2509254F24920
:100D2000CA85025917450000130505B845616F20B3
:100D3000407563972501174500001305A5B1D9BF7C
:100D40008305040017450000130505B28144EF2018
:100D500040738345140017450000130525B29749D9
:100D60000000938929B2EF20C0718347140063E625
:100D7000F4002945EF20207545B7B307940083C5DB
:100D800027004E858504EF20C06F93F4F40FF1BF68
:100D90008547E38DF5F68947E38FF5F8830506006F
:100DA00017450000130545AE8144EF20806D834553
:100DB000140017450000130565AE9749000093899C
:100DC00069ACEF20006C83471400E3F4F4FAB30736
:100DD000940083C527004E858504EF20806A93F434
:100DE000F40FD5B7914503C5C1812D2635B7411103
:100DF0009397050122C406C6C1872E8463DB0700D2
:100E0000492211C1892A2165218DB2402244410124
:100E1000828093F7150091CB1306803E894503C568
:100E2000C181892E13451400CDB793F725009DC7C6
:100E3000EF00B07D9306F00F1306F00FA9451735AC
:100E400000201305251CEF00104E1306803E894537
:100E500003C5C18105261345240045BF93F745000E
:100E60000145C5D7EF00707A1735002013058519A5
:100E7000834705009306F00F1306F00F8507A94579
:100E8000173700202300F718EF007061AA85174577
:100E90000000130565A3EF20C05E13454400B5B7FD
:100EA0007971170500001305C5F406D622D4EF00AA
:100EB000607AB7477671938797123EC63EC8B75798
:100EC0005500938757553ECA3ECC85671384C18130
:100ED000938717802300A4002314F10028009707AC
:100EE00000009387E7DF3ECEEF003041AA8517452B
:100EF00000001305259CEF20C058034504008945D8
:100F0000112CB25022544561828041111305F00426
:100F100006C6EFF06FFD371700408327870A8D451F
:100F20001305002093E707202324F70A7932513C68
:100F3000174500001305859AEF20606917450000EA
:100F40001305459AEF20A06819313133EF10C028FE
:100F5000813F192EFDBF1DC18346E5FF1307F00F2A
:100F60009147639EE600411106C697300020E78056
:100F7000A0CEB24081473E854101828095473E85A3
:100F80008280174700201307E7501C43411122C4F9
:100F900026C24AC006C601440149BA8489E7A16550
:100FA0009D241DC401A803C7E7FF631AA7020DCC47
:100FB000A1658D229840832784FF6319E4021747B7
:100FC00000202329F74CFD57232C04FE230FF4FEA9
:100FD0002285B2402244924402494101828011E0BC
:100FE0003E8983A787FF5DBF3E84E5BF232CF9FEC2
:100FF000D9BF9747002023AF07488280974700203A
:101000009387474D9C4399E33E85828003D7270011
:101010006316B70003C70700E308A7FEDC47E5B780
:101020004111939705014AC006C622C426C2C18752
:101030002E8963DE0700B13711C1313F2165334589
:10104000A900B24022449244024941018280AA860A
:101050000145E5D901443D47B3578940858B85CF8C
:10106000974700209387074B8443BD4791E2814710
:10107000A2978E070545BE9433158500131405010C
:101080009C40C8404180829723A0040023A2040012
:10109000334524017DB70504E310E4FC0144CDBFD2
:1010A00019C1814799E982803387F500834607009B
:1010B0003307F50085072300D700E397C7FEE5B7A0
:1010C0002A9609E582800505A30FB5FEE31DC5FE3E
:1010D000D5BF81476314F600054582803307F500CC
:1010E0008507B386F5000347070083C6F6FFE38351
:1010F000E6FE01458280814711E901458280330780
:10110000F50003470700E31AB7FE8507E319F6FE6B
:10111000054582809747002083C717386371F50221
:10112000174700201307C73A9317150008433E9549
:1011300083570500DD8D2310B500014582800D45E4
:1011400082809747002083C737356373F5021747BE
:1011500000201307E73793171500084393C5F5FFE1
:101160003E9583570500FD8D2310B5000145828013
:101170000D4582809747002083C717326364F500CE
:1011800001458280411122C426C24AC006C62A8473
:101190002E89B284A53501C504C505451DA093055A
:1011A000F004414597300020E78080A00DE197478B
:1011B0000020938767329C5B81C7A2851145829787
:1011C0000145B2402244924402494101828097473E
:1011D0000020938727309C439DE39747002023AB53
:1011E000A72E85472326050004C5231125012300CA
:1011F0008500A300F5002322050045B7BA87D8472C
:1012000075FFC8C7F9BF411122C426C24AC006C62D
:10121000AA842E89E5332A8419C123110500CA85C1
:1012200026850537014511E01945B2402244924414
:10123000024941018280411106C69747002023AD33
:10124000A72C0295B2409747002023A1A726410171
:101250008280954763E9B7008A0597470020938706
:10126000A725BE9588C18280397122DC17440020F1
:10127000130484244ED606DE26DA4AD852D456D237
:101280005AD05ECEA2891C40A9E317440020130463
:10129000A42297440020938464235C4091C38297E6
:1012A00083A70900DDE71104E31994FE1749002024
:1012B0001309092203270900174600200346D61DFB
:1012C000974400209384441D21A882976DBF850711
:1012D00093F7F70F974600202380F61C63FCC700A6
:1012E0009747002083C7471B93961700BA9683D66B
:1012F0000600F1DE9747002083C7071A63E6C7069A
:1013000097470020238A071883A70900B9E3974766
:101310000020938767209C438DCF8297AA8A15C9A6
:101320009C48174A0020130A2A1B014BAA9717470B
:101330000020232BF716FD57174700202324F7160C
:101340009747002093870719804349E083274A0283
:10135000EDE7F2506254D2544259B259225A925A8D
:10136000025BF24B2161828086073E9797470020FF
:1013700093874714835507009C43231007001745A4
:1013800000200345651113172500BA979C438297E7
:101390009747002083C7471013971700832709003A
:1013A000BA9703D70700598D2390A70083C704007D
:1013B000850793F7F70F17470020230FF70C174700
:1013C00000200347770DE3E1E7F41DBF1844814790
:1013D00063F4EA00B307574103274A021CC401CB58
:1013E000D84463F6E70017470020232DF70A95EB52
:1013F000835524008DE15C44631E0B0217470020D7
:10140000232AF70C832BC400228597300020E78025
:10141000A0845E841DBF03450400ED395C4081CB90
:101420001CC483572400E1DB228B404439BF1C4499
:10143000F9D3C5BF2326FB00F1B703260900974661
:10144000002083C67605814713F7F70F636CD70634
:1014500083A7C900E39F07EE83A70901E39B07EE7B
:1014600083A74901E39707EE4800ED217D56630706
:10147000C50A92461747002003473707E37BD7EC9E
:10148000DC44638FC70403464A01058A21C65146DE
:10149000B387C702E37FF7EA63F3D700BE86B717C7
:1014A0000040905F32C68C5F3246E39CC5FE3245F9
:1014B000198D3695B707C0A86367F502B70740577F
:1014C0003E9515A085071397170032970357E7FF3E
:1014D00025DF41B513069002B387C70285835DBF40
:1014E0006368E502198D83274A023DC98297137507
:1014F000F50FE31005E6174700200357670393072E
:10150000707DE318F7E4192BEF00D06EF12191B54F
:10151000B707C0A83387E7403A95F1B7DC44E38AC0
:10152000A7E203474A01058B15C75145B387A702B8
:1015300017470020034777FBE37DF7E0B71600402D
:10154000905E32C48C5E2246E39CC5FE2245198D16
:101550003E958DB713059002B387A7028583C9BF57
:101560003705C0A861B7411106C622C426C2174478
:1015700000201304E4FA23000400EF10D05C61465D
:10158000814517450020130525F3230004000D3E77
:101590007146814517450020130505F0153697471C
:1015A000002023A907F29747002023A707F6174436
:1015B0000020130464EEF947A301F40097470020CC
:1015C00083C747F313D527008D8B3E958D47330591
:1015D000F50299479305100297440020938484ED07
:1015E00035051375F50F2301A4003305F502130526
:1015F000050F97200020E780A05B9747002023ABD2
:10160000A7F0834734008E073E958347240088C0A7
:101610008A073E959747002023ACA7EAD93AB52C14
:10162000834714009840170600001306A69F939660
:101630002700BA9690C2938627008507A300D4009E
:1016400093F7F70FB24022448A07BA9790C39244A7
:10165000410182809747002083C717E41747002085
:101660000347A7E363F3E70217470020130787E464
:1016700018439386170017460020A30FD6E09396D1
:101680002700369708C33E8582809307F00FE5BF99
:10169000411126C2044106C622C44AC08947638854
:1016A00004124177658FB706002089476311D7126E
:1016B00003594500630D09102A8419469305F00F5C
:1016C0005905153C05478D476303E5104A8681455A
:1016D0002685FD321306C0038145174500201305FA
:1016E000A5DFF93A1306C003A285174500201305AC
:1016F000A5DE7D329747002083D7C7DE99E79307A1
:10170000002017470020231FF7DC9747002083C7DE
:1017100087DD91E78547174700202306F7DC9747C9
:10172000002083C757DC91E7ED4717470020A30C43
:10173000F7DA9747002083C727DB91E795471747DC
:1017400000202303F7DA9747002083C7F7D991E7F2
:10175000854717470020A309F7D89747002083C77C
:10176000C7D891E7CD47174700202300F7D8974700
:10177000002083C747D899E79307800217470020C6
:10178000230BF7D69747002083C7E7D617470020DB
:101790000347B7D5858339E39387070517470020AB
:1017A000A305F7D48347D40191E791471747002059
:1017B000A302F7D497470020938707D29C5791C77D
:1017C000829797470020239CA7CC713B8147B2406A
:1017D0002244924402493E854101828003473401FC
:1017E000BA9793F7F70F5DBF4111B7170040985FA5
:1017F0003AC6945F3247E39CE6FEB24717470020A3
:101800000347C7CE058B3EC0824731C31306303332
:10181000B386C702B3B7C702B982CA07D58F3EC223
:1018200002C497470020938727C7D44B9247638D04
:10183000F600924763E5D7029247958F3EC49247E0
:10184000174700202324F7C62245410182806546C0
:10185000B386C702B3B7C702A582DE07C1B719E7CF
:1018600037673D089247958FBA97C9BF37876F088A
:1018700013070790C5BF974700209387E7C5DC573C
:10188000411106C691C3829717050000130505F69E
:101890005D32B240014541018280011122CC1744E2
:1018A0000020130464C3084406CE26CA19E5054582
:1018B000F2406244D244056182805C58EDDB185CE2
:1018C0007DD77000854582971844B247E301F7FE43
:1018D0008357C400174500200345E5C09305E00485
:1018E0003305F50297440020938404BB42054181EF
:1018F00097200020E780C02B17470020232AA7BA93
:101900005DD59747002083D7E7BD174600200346E3
:1019100086BD3306F6029305F00FEFF06FFA904C98
:1019200008449747002083D7E7BB08C297450020AB
:1019300083C565BBB385F5021C5C89818297884CA1
:1019400097200020E780403101459747002023A1E0
:1019500007B6B9BF9747002083C787BCBDCBFD57EB
:1019600035C9974700209387A7BBB44BFD57BDC22D
:101970004111B705C0A803A6460903D70603636A49
:10198000E6023307E6406373F700BA879442E5F650
:1019900037170040145F36C6105FB246E31CD6FE10
:1019A000324763EAE7003387E74018C13E854101CB
:1019B00082802E96F9B7B306F74063D80600B706C3
:1019C000C0A83387E6403E97CDB723200500BA87ED
:1019D000F1BFFD573E85828097470020938747C01F
:1019E0009C4317470020034747B022079443558F75
:1019F000B7860001558F98C34567130787E7D8D787
:101A0000D85BB70600F9FD1613670710D8DB984FAF
:101A1000758FB7060002558F98CF82801747002038
:101A20001307C7BE974700209387C7BB9C43544703
:101A3000184B096694CBD4CB98CFD8CF9447D18E8E
:101A400094C7D847518FD8C794470566D18E94C79D
:101A5000D847518FD8C798431367270098C3984336
:101A60001367070298C38280834715009507F19B8F
:101A70008D07AA9703C707009376070191EE91C5DA
:101A8000620761870945634A0700014519C683C794
:101A9000F7FF2300F600828005458280174700206B
:101AA000130707B81C4394438D8A85C2B44BE19A4F
:101AB000B4CB944393E6860094C39C438D83858B7B
:101AC00089C701000100010001001C4323A807048D
:101AD00097470020938747B19C4399CBD4439047C5
:101AE0009842518F98C2944BDC4B9842D98F9CC23C
:101AF00097470020A38F07B082805C499DC34111A6
:101B0000AA85614617450020130545AE06C6EFF0CD
:101B10002FD9B2409747002023A807AE01454101C5
:101B2000828005458280011122CC174400201304D5
:101B300024AF1C4006CE26CA9C438D8B91CB36C663
:101B400032C42EC22AC0993FB2462246924502456F
:101B5000832804009307A00517480020130808A94C
:101B600023A8F80497470020938787A79C4303473F
:101B700018001373F7079843137707F83367670064
:101B800098C30327480098C70327C80017480020B8
:101B90000348C8A513731800D8C303A748001368E7
:101BA0002800799B3367670023A2E80017470020CD
:101BB000230E07A3130800F897440020238904A5E7
:101BC00097440020A38504A497440020238CC4A23A
:101BD00097440020A388D4A2D457370800F07D187A
:101BE000F19AD4D7944317470020130727A2BA8449
:101BF000B3F6060194C35C474DC12380C700A380A0
:101C0000B7002E86AA8513852700EFF06FC9974786
:101C100000209387279D9C43D844814598CB1C4046
:101C2000DC43858B91E395451705000013052523BB
:101C3000EFF02FE2954717470020A30CF79C1C40BC
:101C40001307000AF8D3174700201307A79D144372
:101C500003A706091316770063440600F8536DFBCB
:101C600005671307072CB8D3130700F89746002021
:101C70002380E69A1747002013070797144391C65D
:101C8000904294461842558F18C2F2406244094768
:101C900098C3D24401450561828090C38DBF79719C
:101CA00026D2974400209384A4979C404AD04ECEDD
:101CB0009C4306D622D48D8BAA892E8991C736C61D
:101CC00032C4E93BB2462246984093079005174438
:101CD00000201304A4913CCB9747002093874790A2
:101CE0008C438347140013F5F7079C4193F707F8DB
:101CF000C98F9CC11C449CC51C48DCC1834704009F
:101D000093F517005C43F99BCD8F5CC39747002088
:101D1000A38BC78E974700202387D78E5C43858B84
:101D2000A1CF5C4C89EF93059004130529009720FF
:101D30000020E780E0E79747002023A7A78C5C4CB2
:101D40000545D5CB174700200347E78B2380E700E5
:101D50005C4C6389090A6307090AA3802701484C80
:101D60004A86CE850905EFF0AFB3974700209387E9
:101D700067879C43584CD8CB83470400954517058B
:101D800000001305C50D93E7470017470020230FF8
:101D9000F78497470020238B078697470020A38767
:101DA00007869747002023850786EFF08FCA99475B
:101DB00017470020A30FF7849C401307000AF8D3AD
:101DC0001747002013070786144303A706091316B5
:101DD000770063440600F8536DFB17470020130794
:101DE000A780144391C6D046D44A1842558F18C2D2
:101DF000054798C30145B250225492540259F24902
:101E000045618280A38007008DB7411117370020FC
:101E10001307C77D06C683470700484FE59B9736E3
:101E200000202385F67C973700202383077E09C591
:101E300097200020E78040E2814501459737002048
:101E400023A4077CEFF0EFC001459545EFF06FC08C
:101E5000B131B240014541018280411122C426C204
:101E6000173700201307877A06C64AC09736002026
:101E700083C6367A15469737002083C72777BA84FA
:101E800017340020130484766391C610858BF1CB40
:101E900083472700858BA5CB9737002023890776BA
:101EA000973700209387C7739C43184401468145A8
:101EB00098C718480545D8C35C48829797370020D3
:101EC00093870776984385679387072C3CD39307BE
:101ED00000F817370020230DF77283C74400858B65
:101EE000638807189737002023840772393F83C718
:101EF0002400E207E18763D507085C480146814575
:101F000045458297B5A28347370093F7F70FF1D77E
:101F100097370020A38D076ECD3D88489306F00FBC
:101F2000014903470500630BD7009737002083C79B
:101F3000776D6385D7006303F700094983070400C1
:101F400063DE07000146814505365C4890483365ED
:101F5000A9009375F50F0945829741B72A868145F7
:101F6000E5B78347370093F7F70FA5DB97370020D6
:101F7000A38F0768593D5C48014681450545E9BF87
:101F80005C48014681454945ADBF19466392C60E7E
:101F9000858B638A07128347070093F7F70FD5C332
:101FA000973700202384076697370020938747637D
:101FB00058409C4398C75844D8C31736002003465E
:101FC00096641307F00F6309E6009C4883C7070077
:101FD0006384E7006399C7049737002093874764B9
:101FE000984385679387072C3CD38145930700F876
:101FF000170500001305A5E617370020230AF76030
:102000000149EFF00FA583070400884863D8070251
:1020100001468145913C5C4890483365A900937521
:10202000F50F0D45F9BD484C9736002083C6A65DD7
:1020300009498345150009059D31F1B72A86814577
:10204000D1BF8347170093F7F70FA5C37D3B9737A1
:102050000020A38D075A97370020238B075A5C482E
:10206000814511450146829781450145EFF06F9EFC
:1020700083470400918BD1CF17370020034777594E
:1020800099476308F708484C2244B240834515003D
:10209000924402499736002083C6E6561736002040
:1020A0000346765609054101DDBE83474700858B0F
:1020B000E1D397370020238D0754813B5C480146CC
:1020C000814551453DBD8347170093F7F70FCDD3A9
:1020D00097370020A38C07520D3B90489306F00FD2
:1020E000014903470600630BD7009737002083C7D9
:1020F00097516385D7006303F7000949814532850D
:10210000EFF09F96B365A9005C48904893F5F50FF2
:1021100009BFB240224492440249410182804111E8
:1021200006C622C4EFF09F8F173400201304444FDB
:10213000D1240126EFF05F8A1C401307D005B8CBED
:10214000F921EF10001FDD2685211C402244B240FA
:1021500023A8070497370020A38D074A41016F1079
:1021600080279737002023A10748B7C700401737BB
:1021700000202329F746138707309736002023AB2A
:10218000E64A138707209736002023ABE64893875B
:10219000071037D700409736002023A5E6481737A9
:1021A0000020232FF742973700209387E7329C4384
:1021B000411106C617370020130747455CC79387B0
:1021C00007111CCBA93FB240B7E700E0370720005A
:1021D00023A0E71041018280411106C65937B24061
:1021E00001454101828097370020938767439C43D4
:1021F00098472183058B49C39847973600209386DB
:10220000E6401377F7EF98C71737002003470740DA
:102210001377070401CF37170040105F9735002070
:1022200023AAC53E8C46105FE399C5FE03C706008E
:102230001367170097360020238AE63C17370020E3
:10224000A306073C9736002083C6B63C1947638532
:10225000E6001307D005B8CB173700201307C7389F
:10226000184319CB104B4C4B1442CD8E14C2104363
:1022700018471442558F18C298471583058B09C714
:1022800098471377F7FD98C798472583058B3DC777
:102290009847370600101377F7DF98C717370020E5
:1022A0000347E73613671700973600202381E63689
:1022B00017370020A30D07341737002013074732C4
:1022C00018435457F19A93E6260054D71443D18EFD
:1022D00014C3B74602009386A6D454CB1737002008
:1022E00013078730184319CB50430C471442CD8E47
:1022F00014C25047584B1442558F18C29847058353
:10230000058B21C39847759B98C7054797360020D2
:10231000A38FE62E17370020230B072E1307D005B7
:10232000B8CB173700201307272C184319CB104BB5
:102330004C4B1442CD8E14C2104318471442558F93
:1023400018C29847058B39C79847799B98C71737A4
:102350000020230D072A054797360020A388E62A88
:10236000173700201307C727144337470200130706
:10237000A7D4D8CA1737002013070727184319CB4B
:1023800050430C471442CD8E14C25047584B144250
:10239000558F18C298479316170163DC06009847BB
:1023A000F176FD16758F98C7054797360020238173
:1023B000E62698479316070163D706009847E1760B
:1023C000FD16758F98C798471183058B01C79847ED
:1023D0003D9B98C798470983058B01C798476D9B1C
:1023E00098C798470D83058B01C798475D9B98C791
:1023F0007300203097370020938787229C439306F1
:10240000200D2147D4CBD8CFA945CCD31306200328
:10241000D0D7CCDBD0DFF4C3F8C71307800FB8CF19
:10242000D8431367F701D8C311671307F733D8C729
:102430008280973700209387E71E9C43130700484C
:102440003708004098D7B447370700909305F7FF47
:10245000ED8E37070060D98EB4C7B047C5761387B5
:10246000F6FF798E9966558EB0C7B447370600805F
:10247000B7087000D18EB4C7F44793F6F68FF4C74F
:10248000F44B93E60608F4CBD45FF98E2167D98E1E
:10249000D4DFD05FB70600F9FD16758E370700024E
:1024A000598ED0DFD85F370600700E070D83336773
:1024B0000701D8DFF84F518FF8CFF84F37060700E4
:1024C00033671701F8CFF84F518FF8CFE84F0967FE
:1024D000758DE8CFD05733661601D0D7D057F18E1F
:1024E000D4D7D45775767D16F18ED98ED4D7D457DC
:1024F0003706FDFF7D1637070200F18ED98ED4D73F
:10250000945BC19A94DB945B93F6F6F094DB985B52
:10251000B70608FFFD166D8F3367070198DB985FDC
:10252000758FB7061800558F98DF82801737002007
:102530001307470F1C4341767D16B44BF18EB4CB85
:10254000944737062000D18E94C7D44793E60601FE
:10255000D4C7D447BD9AD4C7010001000100144379
:102560000566DC4693E70701DCC6DC42D18FDCC29E
:1025700083A7C609A183858BE5DF01000100010067
:102580001C43416603A7C709B44BD18EB4CB9376E5
:10259000F701B84B019B558FB8CB9847B706E0FFC2
:1025A000FD16758F98C7828017370020130787079D
:1025B0001C4341767D16D447C16593F6F6EFD4C728
:1025C000B44FF18EB4CFD0434D8ED0C39447CD8E4F
:1025D00094C7D44793E60610D4C7BA8603A7C708A2
:1025E0002183058B65DF0100010001009C424176DB
:1025F0007D1603A7C708D4433D8BF18ED4C3931631
:102600007700B84F1377F787558FB8CF8280973709
:102610000020938727019C43397122DE26DC4ADAA9
:102620004ED852D656D45AD25ED062CE66CC6ACA42
:102630006EC8D843FD76FD161377F7EFD8C39857C9
:10264000758F98D7D857B70602003D9BD8D79847C3
:10265000558F98C7D84381769386F60F1367070185
:10266000D8C3D843799BD8C3985F758FB166558F0F
:1026700098DFD84313671700D8C383A6070903A7B9
:102680000709139656006583058BE35806FE75D738
:1026900083A6070903AD470901761306F60F135DFC
:1026A000AD001377FD073AC4D84393F6F603799B40
:1026B000D8C3985F718F396613060670518F98DF03
:1026C000D84313671700D8C303A6070903A7070950
:1026D000931556006583058BE3D805FE75D703A7D0
:1026E000070903A6470981759385F50F298213769B
:1026F000F60732C6D0431377F703799AD0C3905FB9
:102700006D8EB565938505304D8E90DFD043136691
:102710001600D0C383A5070903A607091395550022
:102720006582058AE35805FE75D603A607097D7EF6
:10273000130EFE0F1376F60332C003A64709457346
:102740007D1329821376F60732C202461304300243
:10275000B708F1FF918E03A6070A93F5F600FD185E
:10276000419A4D8E23A0C70A13066002B385C602A4
:102770001306700203A5070A13082002930E100225
:102780001375F5F0F94FF542F1436D4DB3C5C50230
:10279000514CCD4CC944C54B3D49B949B14A2D4B6B
:1027A000BD899205C98D23A0B70A93055002B38550
:1027B000B60203A5070A3375C501B3C5C502BD89B5
:1027C000A205C98D1305400223A0B70AB385A6024E
:1027D00003A5070A33756500B3C5C502BD89B205F7
:1027E000C98D23A0B70AB385860203A5070A6544ED
:1027F00033751501B3C5C502BD89C205C98D23A0B6
:10280000B70AB385060303A5070A370810FF7D182A
:1028100033750501B3C5C502BD89D205C98D23A095
:10282000B70AB385D60383AE070A370500F17D15D5
:10283000B3FEAE00B3C5C502BD89E205B3E5BE0077
:1028400023A0B70A93955600B3C5C502B70E001072
:10285000FD1E139FC50183A5070AB3F5D501B3E596
:10286000E5017D4F23A0B70AB385E603B3C5C502D2
:1028700013FFF50083A5470AC199B3E5E50123A23B
:10288000B70AB385F60303AF470ADD4F137FFFF0A6
:10289000B3C5C502BD899205B365BF0023A2B70ABF
:1028A000B385560203AF470AD942337FCF01B3C580
:1028B000C502BD89A205B365BF0023A2B70AB385CF
:1028C000760203AF470AD543337F6F00B3C5C50215
:1028D000BD89B205B365BF0023A2B70AB385A603BD
:1028E00003AF470A294D337F1F01B3C5C502BD8918
:1028F000C205B365BF0023A2B70AE945B385B60296
:1029000003AF470A337F0F01B3C5C502BD89D205A6
:10291000B365BF0023A2B70AB385860203AF470A97
:102920000D44337FAF00B3C5C502BD89E205B36571
:10293000BF00614F338FE60323A2B70A83A5470A7E
:10294000B3F5D501334FCF02720FB3E5E501338FF5
:10295000F60323A2B70A83A5870AC199334FCF0292
:10296000137FFF00B3E5E50123A4B70AB385560240
:1029700003AF870A137FFFF0B3C5C502BD89920577
:10298000B365BF0023A4B70AB385760203AF870AF5
:10299000337FCF01B3C5C502BD89A205B365BF00B2
:1029A00023A4B70AB385860303AF870A337F6F007A
:1029B000B3C5C502BD89B205B365BF0023A4B70A7C
:1029C000B385960303AF870A337F1F01B3C5C502E2
:1029D000BD89C205B365BF0023A4B70AB3859602BB
:1029E00003AF870A337F0F01B3C5C502BD89D20586
:1029F000B365BF0023A4B70AB385760303AF870A84
:102A0000337FAF00B3C5C502BD89E205B365BF0022
:102A1000139F4600334FCF0223A4B70A83A5870A2A
:102A2000B3F5D501720FB3E5E501338F260323A477
:102A3000B70A83A5C70AC199334FCF02137FFF009E
:102A4000B3E5E50123A6B70AB385360303AFC70A8A
:102A5000137FFFF0B3C5C502BD899205B365BF0002
:102A600033CF860223A6B70A83A5C70AB3F5C501EB
:102A7000137FFF00220FB3E5E50123A6B70AB38554
:102A8000560303AFC70A337F6F00B3C5C502BD89C4
:102A9000B205B365BF0023A6B70AB385660303AFCB
:102AA000C70A337F1F01B3C5C502BD89C205B3651F
:102AB000BF0023A6B70AB385A60303AFC70A337FB7
:102AC0000F01B3C5C502BD89D205B365BF00254F4F
:102AD00023A6B70AB385E60383AFC70AB3FFAF00E7
:102AE000B3C5C502BD89E205B3E5BF00939F3600BB
:102AF000B3CFCF0223A6B70A83A5C70AB3F5D50182
:102B0000F20FB3E5F5019D4FB382F60323A6B70A92
:102B100083A5070BC199B3C2C20293F2F200B3E5D9
:102B20005500994223A8B70AB385560283A3070B21
:102B300093F3F3F0B3C5C502BD899205B3E5B300C5
:102B4000954323A8B70AB385760203AA070B337A05
:102B5000CA01B3C5C502BD89A205B365BA0023A8E1
:102B6000B70A93952600B3C5C50203AA070B337AAB
:102B70006A00BD89B205B365BA00354AB3CC4603D5
:102B800023A8B70A83A5070BB3F5150193FCFC0036
:102B9000C20CB3E5950123A8B70A93951600B3C5F7
:102BA000C50283AC070BB3FC0C01BD89D205B3E5AC
:102BB000BC00B3CCC60223A8B70A83A5070BE98DD6
:102BC00093FCFC00E20CB3E5950123A8B70A83A5AA
:102BD000070BB3F5D50123A8B70A824D93058002F0
:102BE00083AC470B3387ED40B34DB70293FC0CFF2A
:102BF000334C870393FDFD00B3ECBC0123AA970B74
:102C000083AC470BF14D93FCFCF0137CFC00120CE1
:102C100033EC8C0123AA870B330C870283AC470B60
:102C2000B3FCCC01334CBC02137CFC00220C33EC13
:102C30008C01B34CA70323AA870B03AC470B337C4F
:102C40006C0093FCFC00B20C336C9C0123AA870B34
:102C5000214C334C870383AC470BB3FC1C01137C22
:102C6000FC00420C33EC8C0123AA870B330C570277
:102C700083AC470BB3FC0C01334CBC02137CFC004F
:102C8000520C33EC8C0123AA870B330CF70383AC73
:102C9000470BB3FCAC00334CBC02137CFC00620C51
:102CA00033EC8C01B34C770223AA870B03AC470BA0
:102CB000337CDC01F20C336C9C01B30CE70323AAD8
:102CC000870B03AC870B137C0CFFB3CCBC02330B1C
:102CD000670393FCFC00336C9C0123AC870B114C05
:102CE00083AC870B93FCFCF0334C8703B30A570388
:102CF000137CFC00120C33EC8C0123AC870B03AC6F
:102D0000870BCD4C337CCC01334BBB02330A4703DA
:102D1000137BFB00220B336B6C0123AC670B03AB03
:102D2000870B794C337B6B00B3CABA02B309370304
:102D300093FAFA00B20AB36A5B0123AC570B83AA79
:102D4000870B594BB3FA1A01334ABA0233092703E6
:102D5000137AFA00420A33EA4A0123AC470B03AA6A
:102D6000870BDD4A337A0A01B3C9B9023349B90284
:102D700093F9F900D209B3693A0123AC370B83A95F
:102D8000870B614AB3F9A900B30B77031379F900F4
:102D9000620933E929019319470023AC270B03A9E2
:102DA000870B3379D901B3C9B902B3049702F20989
:102DB0003369390123AC270B03A9C70BE549137904
:102DC00009FFB3CBBB02B3C4B40293FBFB00B36BEC
:102DD000790123AE770B03A9C70BD54B1379F9F013
:102DE000BD889204B364990023AE970AB304970395
:102DF00003A9C70BF54C3379C901B3C4B402BD882C
:102E0000A204B364990023AE970A8944B34497029D
:102E100003A9C70B33796900BD88B204B364990074
:102E200023AE970AB304770303A9C70BFD4B33798D
:102E30001901B3C4B402BD88C204B364990023AEBF
:102E4000970AB304670303A9C70B130B1002337966
:102E50000901B3C4B402BD88D204B364990023AE9F
:102E6000970AB304570303A9C70B930A20023379C7
:102E7000A900B3C4B402BD88E204B364990023AED0
:102E8000970AB304470303A9C70B130A3002337927
:102E9000D901B3C4B402F204B364990023AE970A13
:102EA000B304370303A9070C93094002137909FF00
:102EB000B3C4B402BD88B3649900694923A0970CD8
:102EC000B304270303A9070C1379F9F0B3C4B402C0
:102ED000BD889204B364990023A0970CED44B30419
:102EE000970203A9070C3379C901B3C4B402BD88A2
:102EF000A204B364990023A0970CB304B70303A9F9
:102F0000070C33796900B3C4B402BD88B204B3645A
:102F1000990023A0970CB304970303A9070C3379F6
:102F20001901B3C4B402BD88C204B364990023A0DC
:102F3000970CB304870303A9070C33790901B3C4C1
:102F4000B402BD88D204B364990023A0970CB304E3
:102F5000770303A9070C3379A900B3C4B402BD8871
:102F6000E204B3649900131957003349B90223A04E
:102F7000970C83A4070CB3F4D4017209B3E42401C1
:102F800023A0970CB304670303A9470C137909FF27
:102F9000B3C4B402BD88B364990023A2970CB304F0
:102FA000570303A9470C1379F9F0B3C4B402BD88E1
:102FB0009204B364990023A2970CB304470303A9B6
:102FC000470C3379C901B3C4B402BD88A204B36409
:102FD000990023A2970CB304370303A9470C337954
:102FE0006900B3C4B402BD88B204B3649900130984
:102FF000500223A2970CB304270303A9470C33798B
:103000001901B3C4B402BD88C204B364990023A2F9
:10301000970C93046002B304970203A9470C337919
:1030200009013306C702B3C4B4023346B602BD88F1
:10303000D204B364990023A2970C83A4470CE98CB3
:103040003D8A6206458E23A2C70C03A6470C931443
:10305000C7013376D601458E23A2C70C1306900212
:103060003306C70283A4870CC1983346B6023D8A53
:10307000458E23A4C70C1306A0023306C702B3452E
:10308000B60203A6870C1376F6F0BD899205D18DA2
:1030900023A4B70CB245124683A4870C0D8EB3054A
:1030A000A603B3F4C401B3C5E50293E58500BD8969
:1030B000A205C58D23A4B70CB305E60383A4870C32
:1030C000B3F46400B3C5E50293E58500BD89B2059C
:1030D000C58D23A4B70C93153600B3C5E50283A4B0
:1030E000870CB3F4140193E58500BD89C205C58D35
:1030F00023A4B70CB305F60383A4870CB3F404012F
:10310000B3C5E50293E58500BD89D205C58D23A42D
:10311000B70CB305560283A4870CE98CB3C5E5024E
:1031200093E58500BD89E205C58D23A4B70CB305E1
:10313000760283A4870CB3F4D401B3C5E50293E50A
:103140008500F205C58D23A4B70C93152600B3C5E1
:10315000E50283A4C70CC19893E58500BD89C58DA0
:1031600023A6B70CB305860283A4C70C93F4F4F02E
:10317000B3C5E50293E58500BD899205C58D23A6FB
:10318000B70C93151600B3C5E50283A4C70CB3F4BE
:10319000C4013347E60293E58500BD89A205C58DCC
:1031A00023A6B70C03A6C70C337666001367870007
:1031B0003D8B3207518F23A6E70C03A7C70C33774B
:1031C000170123A6E70C22471246118F3346D70278
:1031D0003D8A9315460103A6C70C33048702337654
:1031E00006014D8E23A6C70C1316170083A5C70C26
:1031F000E98D3346D6023D8A62064D8E23A6C70C62
:1032000003A6C70C3344D402B37ED601131627009D
:10321000B3037702720433E48E0023A6870C33468F
:10322000D602B30257029375F60003A6070D419A22
:103230004D8E23A8C70C03A6070DB3C3D302137684
:10324000F6F0B3C2D20293F3F3009203B3637600B5
:1032500023A8770C03A6070D337EC601B30FF7032F
:1032600093F2F200A202B3625E0023A8570C03A6F9
:10327000070D3373660013163700B3CFDF02330F29
:10328000E70393FFFF00B20FB36FF30123A8F70D1D
:1032900083A5070DB3F815013346D602330DA703F6
:1032A0003D8A420633E6C80023A8C70C03A6070DD3
:1032B0003378060137060081334FDF027D16B346AF
:1032C000DD02137FFF00520F336FE80123A8E70DE3
:1032D00003A7070D798DBD8AE206C98E23A8D70CF6
:1032E000D84385663D9BD8C3D843799BD8C39857AC
:1032F000558F98D7D85713670701D8D7985F82465C
:10330000137707FC558F98DF124793168701985F54
:10331000718F558F98DF7254E2545259C259325A04
:10332000A25A125B825B724CE24C524DC24D21613B
:103330008280972700209387E72E98435C4393E78A
:1033400007105CC38280972700209387E7189C436F
:103350001726002003568618411113850722E1170E
:103360003E969727002023A1C72C098E0D86814504
:1033700017270020232EA72A06C6EFD07FD4856703
:103380009726002083D686159D0713D7360063F451
:10339000D7001307002097270020938767299443BD
:1033A000B240B387E60061172392E600172700209A
:1033B000130787271843172600202329F6269CC2C7
:1033C0002393060098C31D8F61172392E700239370
:1033D00007004101828037C700408327073893F7F1
:1033E0000710D9CF8D472320F738130620028147D5
:1033F00083260738850793F7F70F93E68600232087
:10340000D7388326073893F606108DC2F5F3B7C771
:10341000004023A00738972700209387E70B03A3DA
:103420000703630F030499450D4599A083260738C8
:1034300093F60620E9FE637EF60297270020938725
:10344000A7099C5BE9D7411106C685450D458297C2
:10345000B7C7004023A00738972700209387C707E6
:1034600003A30703630B0300B24099450D454101D7
:103470000283850793F7F70F69B7B2404101828055
:10348000828039713EDA2ED232D436D63AD842DC36
:1034900046DE971700209387E7BD22CC804326CADB
:1034A00006CEAA8409C41C4C99E32285A92B0C449E
:1034B00054102686228536C6EF00101BF240624467
:1034C000D24421618280011197170020938787BA27
:1034D00022CC804306CEAA8519C41C4C89E72AC693
:1034E00022851523B245104422856244F2400561CD
:1034F0006F00107C011126CA4AC806CE22CC4EC6E7
:1035000052C4AA842E8901C51C4D91E3ED299C4C1F
:10351000804499E32685C529971700009387C73F04
:10352000631CF402C0408357C400A18BB1C71C4880
:10353000A1C7FD59294A1C4483450900FD17B1E97B
:103540001CC463DE07062286A94526854128FD574F
:103550006308F502294535A0971700009387C73DFA
:103560006314F4008044C1B7971700009387C738ED
:10357000E31BF4FAC04445BFA2852685052255D930
:103580007D55F2406244D2444249B249224A056123
:1035900082801CC4050963D70700184C63CBE70081
:1035A000638945011C401387170018C02380B700AA
:1035B00059B7228626851D20E31F35F7D1B71C4059
:1035C0001387170018C029472380E70061B79717B2
:1035D0000020938727AAAA85884329BF011122CCFE
:1035E00026CA4AC806CE4EC6AA842E89328401C590
:1035F0001C4D91E30929971700009387E731631960
:10360000F406C0401C4C1CC48357C400A18BC9C322
:103610001C48BDCF1C4808409379F90F1379F90F66
:103620001D8D5C486346F500A2852685752C2DE529
:103630001C440505FD171CC41C401387170018C047
:10364000238037015C486389A7008357C400858BBA
:1036500081CBA9476316F900A285268571240DED5B
:10366000F24062444A85D2444249B24905618280AF
:10367000971700009387472C6314F400804459B7D0
:103680009717000093874727E31EF4F6C0449DBFB9
:10369000A285268521203DDD7D59D9B74111971797
:1036A00000209387279D26C2844322C44AC006C6B1
:1036B0002A892E8489C49C4C99E32685A9269717CC
:1036C000000093876725631CF402C0400317C40001
:1036D00093170701C18393F68700B5EE93F60701B0
:1036E0009DEEA5472320F900136707042316E40085
:1036F0007D55B2402244924402494101828097178D
:103700000000938767236314F4008044C1B79717C0
:1037100000009387671EE31BF4FAC04445BF918BFA
:103720008DC74C5889C9930744046384F5004A85C2
:103730009123232A04028357C4002322040093F711
:10374000B7FD2316F4001C481CC08357C40093E740
:1037500087002316F4001C4881EF8357C400130729
:10376000002093F707286385E700A2854A85A521F5
:103770008357C40013F7170005C75C4823240400CF
:10378000B307F0401CCC1C480145A5F78317C400C3
:1037900013F7070839DF93E707042316F40089BFFE
:1037A000898B014791E3584818C4F1BF83D7C500FE
:1037B000011122CC26CA06CE4AC84EC613F787008E
:1037C000AA842E8471EFD841634DE000B841634A6A
:1037D000E0000145F2406244D2444249B2490561E9
:1037E000828058547DD703A904009396370123A003
:1037F000040063DD060670488357C400918B99C7A7
:103800005C401D8E5C5899C33C401D8E5C540C502E
:10381000814626858297FD570357C400631DF50036
:103820009440F54763E8D706B70740208507B3D72C
:10383000D700858BA5C31C48232204001CC0931706
:10384000370163D80700FD576314F5009C4091E3EE
:1038500068C84C5823A02401ADDD93074404638459
:10386000F50026850129232A0402A5B70C5001463C
:10387000854626850297FD572A86E31FF5F69C406C
:10388000A5DF75476385E70059476394E70423A0E4
:10389000240181B7136707042316E4007D551DBF7B
:1038A00083A90501E38709F203A905008D8B23A0F5
:1038B000350133093941014791E3D84918C4E35A26
:1038C00020F11C540C50CA864E8626858297634987
:1038D000A0008357C40093E707042316F4007DBFBC
:1038E000AA993309A940E1BF9C49B9CF011122CC63
:1038F00006CE2A8411C51C4D81E72EC62922B24569
:103900009717000093874701639BF5004C4083970E
:10391000C50095C722856244F240056141BD9717F5
:103920000000938767016394F5000C44CDB79717A7
:103930000000938767FCE39CF5FC4C44C9BFF24050
:10394000624401450561828001458280411122C4A3
:1039500006C62A842316B5002317C50023200500B8
:103960002322050023240500232205062328050021
:10397000232A0500232C0500214681451305C50592
:10398000EFC01FCC97170000938727BE5CD0971716
:103990000000938787C01CD4971700009387C7C483
:1039A0005CD497170000938787C700D01CD8B2401B
:1039B00022444101828097050000938525F389AA5E
:1039C000411126C2130680069384F5FFB384C40216
:1039D0004AC02E8922C406C693854407A1262A849C
:1039E00001CD2320050023222501310508C41386BB
:1039F00084068145EFC0DFC42285B2402244924450
:103A00000249410182801C4DBDE3411106C622C41A
:103A100097070000938767FA1CD5970700209387C4
:103A2000A7659C43232405042326050423280504B5
:103A30006314F50085471CCD2A841D2848C02285C3
:103A4000052808C422852D2048C4484001469145D8
:103A5000F53D08440546A545D53D48440946C945B8
:103A6000F53585471CCCB2402244410182808280DA
:103A70004111970700209387276026C284434AC0DC
:103A800006C69C4C22C42A8999E32685AD3F9384BF
:103A900084048044DC40FD1763D607009C40B9CF06
:103AA0008440C5BF0317C40039E7C17785072322C7
:103AB00004062320040023220400232404005CC401
:103AC00023280400232A0400232C040021468145D6
:103AD0001305C405EFC0DFB6232A0402232C040219
:103AE00023240404232604042285B2402244924461
:103AF0000249410182801304840671BF91454A85C1
:103B0000C13588C051FDB1472320F9000144E9BF08
:103B1000797122D44AD052CC56CA5AC85EC606D64B
:103B200026D24ECE2A8AAE8A130485040149054B5B
:103B3000FD5B09ECB25022544A8592540259F24975
:103B4000624AD24A424BB24B456182800444832987
:103B50004400FD1963D409000040E1BF83D7C400CD
:103B6000637BFB008397E40063877701A68552851A
:103B7000829A3369A90093848406E1BF1971A6DA99
:103B8000AE848395E500A2DC86DE328463DC05002A
:103B900083D7C40023A0060093F7070885E793079F
:103BA00000401DA0300836C6EF00F02DB246E341BC
:103BB00005FE7247BD67F98F7977BA9793B71700FB
:103BC0009CC2F1BF930700041CC0F6506654D65443
:103BD00001450961828083D7C500011122CC06CE40
:103BE00026CA4AC8898B2E8489CF930774041CC0C7
:103BF0001CC885475CC8F2406244D2444249056112
:103C0000828074003000AA84953FA2452A892685C7
:103C1000112A01ED8317C40013F7072069FFF19BF8
:103C200093E727002316F400C9B79707000093878E
:103C3000C7D89CD48357C40008C008C893E70708B6
:103C40002316F400A2475CC8B24791CF8315E40065
:103C50002685EF00702601C98357C400F19B93E7C6
:103C600017002316F4008357C4003369F9002316A4
:103C7000240151B7DDC583A7C5FF411122C406C683
:103C800026C21384C5FF63D307003E94AA84EF00C5
:103C9000902A970700209387673E9C4391EF232249
:103CA00004009707002023AB873C2244B2402685BE
:103CB000924441016F005028637EF40014403307A2
:103CC000D4006396E7009843DC43369718C05CC085
:103CD000C9BFBA87D84319C3E37DE4FE9443338652
:103CE000D700631F86001040B29694C33386D70076
:103CF000E31DC7FA10435843B29694C3D8C375B7AF
:103D00006375C400B1479CC04DB71040B306C400F2
:103D10006316D70014435843B29614C058C0C0C3AA
:103D200069B78280011126CA93843500F19806CEC6
:103D300022CC4AC84EC6A104B14763F5F404B1448D
:103D400063E4B4042A89EF00101F938781809843AD
:103D50003A8429E49387C1809C4399E781454A8549
:103D6000EF00607D23A6A180A6854A85EF00A07C98
:103D7000FD5963193507B1472320F9004A85EF0043
:103D8000B01B29A0E3DE04FAB1471CC10145F24093
:103D90006244D2444249B249056182801C40858F09
:103DA00063CF0702AD4663F6F6001CC03E9404C024
:103DB00031A05C406313870223A4F1804A85EF00A1
:103DC000B0171305B4009307440061993307F54019
:103DD0005DDF3A94898F1CC05DBF5CC3C5B7228785
:103DE000404085BF130435007198E30285FCB3059C
:103DF000A4404A858927E31C35FBB5BF1C46FD1747
:103E00001CC663DA0700184E63C5E700A947639430
:103E1000F5006FF0AFFC1C422E851387170018C207
:103E20002380B7008280011122CC26CA4AC84EC620
:103E300052C406CE2A89AE893284B304D6007D5A94
:103E400063149400014509A8834504004E864A8501
:103E500075370504E31645FFF2406244D2444249F7
:103E6000B249224A05618280357122CD26CB4AC9EA
:103E70004EC706CF52C556C35AC1DEDEE2DCE6DAD3
:103E8000AA89AE843289368401C51C4D91E3A53ED2
:103E900097170000938747A8639CF40C83A44900FC
:103EA00083D7C400A18BFDC79C48EDC793070002D0
:103EB000A304F1029307000302D22305F10222C6F4
:103EC000930B5002971A0000938A0AA9054C294BBC
:103ED0004A848347040099C36391770FB30C24414C
:103EE000638D0C00E6864A86A6854E852D3FFD57DC
:103EF0006307F51E9256E69636D283470400638028
:103F0000071EFD571309140002C802CE3ECA02CC98
:103F1000A309010482D48345090015465685EF00A4
:103F2000E07F13041900C24759E913F7070109C7D5
:103F300013070002A309E10413F7870009C7130759
:103F4000B002A309E104834609001307A0026380BD
:103F5000E608F2474A848146254603470400930554
:103F60001400130707FD6379E60AB5CA3ECE85A89B
:103F7000971700009387479C6395F40083A48900FA
:103F800005B79717000093872797E39BF4F083A466
:103F9000C90039B7A6854E85EFF04FF001D97D55A0
:103FA000FA406A44DA444A49BA492A4A9A4A0A4BC8
:103FB000F65B665CD65C0D618280050419BF330533
:103FC00055413315AC00C98F3EC82289A9B7324785
:103FD00093064700184336C6634907023ACE0347A3
:103FE00004009307E002631FF704034714009307DC
:103FF000A002631BF702B2470904138747009C43E2
:104000003AC663C107023ECA35A83307E04093E7CA
:1040100027003ACE3EC8E1B7B387670385462E84B2
:10402000BA9725BFFD57C5B7050402CA8146814727
:1040300025460347040093051400130707FD637624
:10404000E606F1F2834504000D461715000013053E
:104050002591E92511CD97170000938767901D8D55
:1040600093070004B397A700424505045D8D2AC855
:10407000834504001946171500001305A58E130982
:1040800014002304B102592D3DC197C7FFFF938748
:1040900067F795E74247B2471377071009CF9107B3
:1040A0003EC69257D2973ED225B5B3876703854661
:1040B0002E84BA97BDBF9D07E19BA107D5B77800B5
:1040C00097060000938666D626860C084E859700D4
:1040D0000000E7000000FD572A8AE314F5FC83D7AF
:1040E000C40093F70704E39C07EA125555BD780016
:1040F00097060000938666D326860C084E85012A13
:10410000D9BF797156CA9C49BA8A984522D426D219
:104110004ECE52CC06D64AD05AC85EC6AA892E8444
:10412000B284368A63D3E700BA879CC0034734045D
:1041300019C385079CC01C4093F7070281C79C40A8
:1041400089079CC00329040013796900631A0900D8
:10415000130B9401FD5B5C449840998F634CF90408
:104160001C408346340493F70702B336D000A5EB16
:1041700013063404D2854E85829AFD576303F504F5
:104180001C4011469840998B544481446397C70062
:10419000B384E64063D3040081441C44184863544C
:1041A000F700998FBE94014969047D5B63982405EB
:1041B000014509A885465A86D2854E85829A631E96
:1041C00075017D55B250225492540259F249624A07
:1041D000D24A424BB24B456182800509ADBF3307DD
:1041E000D40013060003A301C704034754049387B4
:1041F0001600A2978906A381E7049DBF8546228603
:10420000D2854E85829AE30E65FB050945B7797123
:1042100022D426D24AD04ECE06D652CC56CA5AC83E
:10422000B68983C685019307E0063289AA842E8465
:10423000138635046380F61E63E2D70693073006C3
:104240006382F60A63EDD700638A061E9307800532
:104250006386F616930A24042301D40469A89307FD
:1042600040066386F60093079006E395F6FE1C4031
:10427000084393F6070893054500C1C21C410CC3CF
:1042800063D807001307D002B307F040A301E4048A
:10429000970600009386866D294765A0930730072F
:1042A0006382F61A63EFD7009307F006638FF60474
:1042B00093070007E390F6FA9C4193E707029CC13D
:1042C00009A8930750076382F60493078007E393D6
:1042D000F6F893078007A302F4049706000093867C
:1042E000266ADDA01C43938A2504938647009C43DD
:1042F00014C32381F5048547ADA293F607041C413E
:104300000CC3BDDEC207C187A5BF0C401C4313F818
:104310000508138547006305080008C39C4339A0BE
:1043200093F5050408C3FDD983D707001307F006EA
:10433000638AE60C97060000938646632947A3012B
:1043400004044C400CC463C5050008406D9908C0C6
:1043500099E3B28A91CDB28AB3F5E702FD1AB69518
:1043600083C505002380BA00B3D5E70263F2E70AEC
:10437000A147631EF7001C40858B91CB58401C4819
:1043800063C7E70093070003A38FFAFEFD1A330605
:10439000564110C84E87CA867000A285268595337F
:1043A0007D5A6314450D7D55B250225492540259E2
:1043B000F249624AD24A424B45618280A382D504C7
:1043C000970600009386865A0C40084313F80508A8
:1043D0001C4111056300080208C313F7150001C74B
:1043E00093E505020CC04147B9FB0C4093F5F5FD80
:1043F0000CC0B1B713F8050408C3E30008FEC207F8
:10440000C183E1BF9706000093864656214705BF4A
:10441000AE8799B794411C43CC4913F8060813851D
:1044200047006306080008C39C438CC301A808C367
:1044300093F606049C43F5DA2390B7002328040082
:10444000B28A89BF1C43D04181459386470014C37B
:1044500083AA07005685D92401C53305554148C0B4
:104460005C401CC8A301040435B714485686CA85AD
:1044700026858299E30945F31C40898B8DE7B24775
:104480004844E353F5F23E8505B785465686CA850E
:1044900026858299E30965F1050A5C443247998FC4
:1044A000E345FAFEE9BF014A930A94017D5BF5B743
:1044B000011122CC06CE2A8409C91C4D99E732C6C7
:1044C0002EC4EFF04FD43246A245970700009387E1
:1044D000A7446316F60250401C46FD171CC663D065
:1044E0000704184E63C7E70093F7F50F2947639851
:1044F000E70222856244F24005616FF02F8E970734
:104500000000938767436314F6001044F1B79707E0
:1045100000009387673EE311F6FC504475BF1C42D0
:1045200013F5F50F1387170018C22380B700F24068
:10453000624405618280411122C42A842E85971726
:10454000002023AB070E06C69D2CFD576319F5000E
:10455000971700209387470E9C4391C31CC0B2401D
:10456000224441018280411122C42E848395E500BA
:1045700006C6E122634905007C48AA977CC8B24080
:104580002244410182808357C4007D777D17F98FD3
:104590002316F400EDB783D7C500011122CC26CA3B
:1045A0004AC84EC606CE93F70710AA842E843289D5
:1045B000B68991C78395E500894601463522835720
:1045C000C4007D777D17F98F2316F4008315E4006E
:1045D0006244F240CE864A86B24942492685D24498
:1045E00005613DA8411122C42E848395E50006C6CD
:1045F000E528FD570357C400631BF500FD77FD1741
:10460000F98F2316F400B24022444101828085676D
:10461000D98F2316F40068C8FDB78395E50025A857
:10462000411122C42A842E85B28536869717002030
:1046300023A4070006C6EFC04FB3FD576319F5006A
:1046400097170020938747FF9C4391C31CC0B2403B
:10465000224441018280411122C42A842E85971769
:10466000002023AB07FC06C61922FD576319F5008D
:1046700097170020938747FC9C4391C31CC0B2400E
:10468000224441018280411122C42A842E85B285B0
:104690009717002023A207FA06C6D520FD576319F5
:1046A000F50097170020938727F99C4391C31CC0FE
:1046B000B240224441018280411122C42A842E85C5
:1046C0009717002023AA07F606C6D120FD576319C5
:1046D000F50097170020938727F69C4391C31CC0D1
:1046E000B240224441018280411122C42A842E8595
:1046F000B28536869717002023A007F406C645200A
:10470000FD576319F500971700209387E7F29C4344
:1047100091C31CC0B24022444101828093F5F50F41
:104720002A966314C5000145828083470500E38D06
:10473000B7FE0505FDB782808280411122C42A841C
:104740002E85B28536869717002023A707EE06C66A
:10475000B928FD576319F500971700209387C7ED17
:104760009C4391C31CC0B240224441018280930704
:104770008005171700202321F7EC7D5582809307D1
:104780008005171700202329F7EA7D5582809307BB
:104790008005171700202321F7EA0145828093073F
:1047A0008005171700202329F7E87D55828093079D
:1047B0008005171700202321F7E87D558280938715
:1047C00001819C4391C73E9523A8A1803E858280AC
:1047D00097170020938787E63E9523A8A1803E8502
:1047E00082800000EEC0FFFF16C1FFFF3EC1FFFF49
:1047F00056C1FFFF70C1FFFF43483537785F424C19
:10480000455F4C49425F56312E3000006865616457
:104810002066696C65206572726F722E2E2E000004
:104820004C494220696E6974206572726F72206310
:104830006F64653A202578202E2E2E0A0000000095
:104840002A200000637263206572726F720000009C
:104850006D617463682074797065206572726F721F
:1048600000000000747820726563762C727373699F
:104870003A25640A000000006C656E3A25642D003C
:1048800025782000727820726563762C207273730D
:10489000693A2025640A00006C656E3A2025642D73
:1048A000000000005354413A2025780A000000001F
:1048B000726620322E346720696E69743A2025783A
:1048C0000A0000005258206D6F64652E7374617485
:1048D00065203D2025780A0073746172742E0000F3
:1048E00043483537785F424C455F4C49425F56310B
:1048F0002E3030000000000000000000000000002A
:1049000000000000000000000000000000000000A7
:104910000000000000000000000000000000000097
:104920000000000000000000000000000000000087
:104930000000000000000000000000000000000077
:104940000000000000000000000000000000000067
:1049500000000000232D302B20000000686C4C006C
:1049600065666745464700003031323334353637A7
:10497000383941424344454600000000303132336B
:10498000343536373839616263646566000000008B
:1049900001020304050607080900000000000000EA
:1049A0001449000034490000F448000000000000F1
:1049B00000000000000000000000000000000000F7
:1049C00000000000000000000000000000000000E7
:1049D00000000000000000000000000000000000D7
:1049E00000000000000000000000000000000000C7
:1049F00000000000000000000000000000000000B7
:084A00000C4000200C400020D6
:00000001FF
