:100000006F004000975100209381C1851781002027
:10001000130141FF1305400A973500209385857E23
:10002000174600201306E69F63FAC50083220500E9
:1000300023A0550011059105E3EAC5FE1725000030
:100040001305C58F974500209385C5FB13868180D6
:1000500063FAC5008322050023A055001105910510
:10006000E3EAC5FE13858180938581A76377B50098
:10007000232005001105E36DB5FE9302800873A0EF
:100080000230973200209382E27793E2120073905D
:100090005230970200009382423073901234730002
:0400A000203000000C
:1000A40000000000000000006F0080086F00001BCB
:1000B400000000000000000000000000000000003C
:1000C400000000000000000000000000000000002C
:1000D4006F004006000000006F00E0050000000013
:1000E4006F0080056F0060056F0040056F002005FC
:1000F4006F0000056F00E0046F0040060000000080
:100104006F0060046F0040046F0020046F0000045F
:100114006F00E0036F00C003000000006F00600385
:100124006F0040036F0020036F0000036F00E002C4
:1001340001A001A001A001A001A001A001A001A0B3
:1001440001A001A001A001A001A001A001A001A0A3
:1001540001A001A001A001A001A001A0E700C047E7
:1001640073002030B7170040930670052380D7042E
:10017400130780FA2380E70403C6B7041376F60D49
:10018400A385C704238007041376050225C603C686
:10019400A700118A0DE22380D7042380E70403C754
:1001A400A700136747002385E7009307004B01006E
:1001B4000100FD17EDFFB71700409306700523807B
:1001C400D704130780FA2380E7047D892394A700CA
:1001D4000100010001000100238007042380D704EB
:1001E4002380E704854637270040A303D780238074
:1001F40007048280137605046DDE03C6A700418AD6
:100204000DE22380D7042380E70403C7A700136704
:1002140007012385E7009307007D01000100FD1716
:10022400EDFFB7170040930670052380D70413072A
:1002340080FA7D892380E704136505042394A700CD
:100244000100010001000100238007042380D7047A
:100254002380E7048D463727004041BFB71700408D
:10026400130770052380E704130780FA2380E7044B
:100274007D572396E70203C7670413671700238398
:10028400E7042380070401A0BD473305F5020100FC
:100294007D1575FD8280411122C426C206C6AA843A
:1002A400014463179400B240224492444101828085
:0E02B40005041305803E4204C13F4180DDB7C2
:1002C4003D432A876373C3029377F700BDEFADE51F
:1002D400937606FF3D8ABA960CC34CC30CC74CC731
:1002E4004107E36BD7FE11E28280B306C3408A065E
:1002F4009702000096966780A6002307B700A3061E
:10030400B7002306B700A305B7002305B700A3046D
:10031400B7002304B700A303B7002303B700A30265
:10032400B7002302B700A301B7002301B700A3005D
:10033400B7002300B700828093F5F50F93968500EC
:10034400D58D93960501D58D61B7939627009702B5
:10035400000096968682E78086FA9680C1171D8FE4
:100364003E96E374C3F8A5B7371700408327870A7E
:10037400411106C693E707202324F70A8545130590
:1003840000106D2B8D45130500204D2BB24041010B
:10039400F5A541111305800406C697300020E780B7
:1003A4006052D937171500001305C550EF00901699
:1003B400974700209387C7CC23A6F1A69387018E85
:1003C40023A8F1A69387019623A2F1A69387419EC1
:1003D40023A4F1A6E92DB7E700E03707400023A0E6
:1003E400E71001A08147138601A713F7F70F636491
:1003F400A7006F00A07318423E9783460700850745
:1004040093C6F6FF2300D704CDB78147138641A6D0
:1004140013F7F70F6364A7006F00A07218423E97AA
:1004240083460700850793C6F6FF2300D704CDB79C
:100434008147138681A613F7F70F6363A70029AFDB
:1004440018423E9783460700850793C6F6FF2300AC
:10045400D704D5B781471386C1A613F7F70F636393
:10046400A70031A718423E9783460704850793C621
:10047400F6FF2300D708D5B7B787004003C7670046
:100484001377F70F9376270063800648011106CE91
:1004940022CC26CA4AC84EC603C777009306000377
:1004A40013770703630BD70203C7770091461377CB
:1004B400F703630ED72063E4E60A85466309D71A77
:1004C400630007188946630ED71A8D46630ED71C3E
:1004D400B787004009472383E700378700408347F5
:1004E4007700E207E18763DD072C930720FC2301F3
:1004F400F7029386C1A688420347750083476500C7
:1005040022075D8F239BE18083471500238CF180B4
:100514000349050013760906630B061CDD1705471E
:100524006365F728620913598941814663520902B8
:1005340083D76181930600043E8763F4F6001307B2
:10054400000442074183998F9376F70F239BF18030
:10055400B78700402380D702130700FC99AC9306A9
:100564002002630AD71263E3E602930600026306DD
:10057400D70493061002E31DD7F403C76702137769
:10058400C70F136727002383E70299B79306300246
:100594006306D71293064002E31CD7F203C727036E
:1005A400134707042389E70203C727031377C70FF9
:1005B400136727002389E70221BF03C7818195467A
:1005C4006302D7069946631AD7069387618103D4D9
:1005D400070013070004BE84637487001304000437
:1005E4009387C1A61389C1818843420483250900E6
:1005F40041802286412B83D704009379F40F818FA5
:10060400239BF180832709003E9423AE8180B78722
:1006140000402380370303C72702134707042381BD
:10062400E7027DB503C7370083C6618113770708E6
:10063400558FA381E7000947DDB723800702E5BF93
:1006440083C7870003C78181A547E313F7E893872E
:10065400C1A69C43171500001305C52283C70700D4
:1006640089E717150000130565236D2595B503C7A4
:10067400770013770704E30D07E403C587009D3370
:1006840081BD03C7770013770704E30307E403C5B9
:100694008700A53B35BD03C7A7021377C70F1367B0
:1006A40027002385E7022DB503C7770013770704D6
:1006B400E30007E203C58700A53B19BD03C7E702B2
:1006C4001377C70F136727002387E70211B503C702
:1006D400770013770704E30D07DE03C727031347E7
:1006E40007082389E70203C58700AD33D5B329463C
:1006F400636DF60A17160000130606088A07B297F8
:100704009C43B29782878347350083462500094678
:10071400A207D58F93D68700638BC60A6369D60078
:100724008547638AF6021304F00F81472DA88D458F
:100734006388B60C93072002E397F6FE83474500CF
:10074400CDE3971700009387E70523AEF1800144BA
:100754009307E00309A8971700009387A70F23AE18
:10076400F1800144C947C207C18363F4E700239BB6
:10077400F1809387618103D607009307000463F433
:10078400C700130600049389C1819314060183A54D
:100794000900C1802686FD2603A60900269623AEFD
:1007A400C1809307F00FE31FF4D6B7870040130707
:1007B400F0FC2381E702B787004009472383E70061
:1007C400F2406244D2444249B2490561828097179B
:1007D40000009387670423AEF18001449307B003BC
:1007E40059B785466391D70697160000938686FF0E
:1007F40023AED18001442380F19E93074003A5B723
:1008040093F7F70F8546638ED7008DC7E39DC7F036
:10081400971700009387470623AEF1800144B14740
:1008240099B7971700009387270423AEF1800144FA
:10083400B94715BF971700009387870F23AEF18040
:10084400014491470DB701449307F00F29BF834733
:100854002500239BF180F9B183C741812300F50072
:1008640003D761818547E3FFE7CA8547DDB783473F
:100874002500238AF1807DB11377F9018947E316B6
:10088400F7F2834745006381E704636CF70005478B
:10089400E39DE7F0378700408347670293F7370704
:1008A40099A0130710086388E70213072008E39E42
:1008B400E7EE378700408347A70293F7C70B93E718
:1008C40027002305F702B9B9378700408347A702F9
:1008D40093F73707FDB7378700408347670293F7DD
:1008E400C70B93E727002303F7022DB92300050064
:1008F40085BF230005009C42A380070003D76181C4
:100904008947E3F1E7C2B1B7937617008DC2A3819B
:10091400070009472381E70249472383E702238528
:10092400E7022387E70205472383E7008280937663
:100934004700FDDA03C757001147FDB7914763EE3F
:10094400B70217170000130767F78A05BA959C4189
:10095400BA978287B717004003A7470B1345F5FFE3
:10096400698F23AAE70A03A7070B698F23A8E70A5D
:1009740003A7070A798D23A0A70A8280B71700402E
:1009840083A6470B1347F5FFF98E23AAD70A83A63C
:10099400070B558D23A8A70A83A6070A758F23A0E2
:1009A400E70A8280B717004003A7470B498F23AAA1
:1009B400E70A03A7070B1345F5FF45BFB717004028
:1009C40083A6470B1347F5FF758F23AAE70A03A7EE
:1009D400070A598D4DB7B717004003A7470B498F36
:1009E400EDB7B717004003D58700420541819377DF
:1009F400050491EB9377F5013755E801130505805C
:100A04003345F50282809377050C1307000463973E
:100A1400E7009377F50137459C1CCDB72165130595
:100A240005D08280814737370040A14663C4C700A0
:100A3400328582800345B740E38EA6FE3385F500F8
:100A44000345050085072304A740CDB7411122C4FF
:100A540006C62A8479372947B307E502B2408D8355
:100A6400B3D7870222449507B3D7E702373700404C
:100A7400C207C1832316F740410182807165411189
:100A84001305052006C6D937B7370040130770F899
:100A94002381E7400D47A381E74013070004A380A7
:100AA400E74005472387E740B24041018280B7878A
:100AB4000040238007001307C0FC2386E700A386B9
:100AC400E70003D7C1A62398E70003D701A7239A19
:100AD400E70003D741A6239CE70003D781A6239E02
:100AE400E70089462381D70249472383E702238508
:100AF400E7022387E7022389D702A38107001307AC
:100B040090022380E700B716004003D7A6011367BD
:100B1400070C239DE6007D572383E700130710F895
:100B2400A380E7001D472381E7008280B787004048
:100B34002382A70203C767021377C70F2383E70241
:100B44008280B78700402384A70203C7A7021377D4
:100B5400C70F2385E7028280B78700402386A70258
:100B640003C7E7021377C70F2387E7028280B7879B
:100B740000402388A70203C727031377C70F2389DD
:100B8400E7028280B3C7A5008D8B3307C50081E7D8
:100B94008D4763EEC700AA876370E50A83C6050024
:100BA40085078505A38FD7FEE3EAE7FE8280937667
:100BB4003500AA8791CA83C6050085078505A38FDA
:100BC400D7FE93F63700FDB79376C7FF138606FE6C
:100BD40063F0C70683A3050083A2450083AF8500A5
:100BE40003AFC50083AE050103AE450103A3850130
:100BF40083A8C5019385450223A0770003A8C5FFF8
:100C040023A2570023A4F70123A6E70123A8D701B1
:100C140023AAC70123AC670023AE170193874702B9
:100C240023AE07FF75B790419107910523AEC7FE28
:100C3400E3EBD7FEE3E4E7F68280011126CA4AC853
:100C440006CE22CC4EC652C4AA842E8901C51C4DA0
:100C540091E3ED299C4C804499E32685C529971797
:100C640000009387E7C8631CF402C0408357C400A4
:100C7400A18BB1C71C48A1C7FD59294A1C4483450F
:100C84000900FD17B1E91CC463DE07062286A945E5
:100C940026854128FD576308F502294535A0971795
:100CA40000009387E7C66314F4008044C1B7971724
:100CB40000009387E7C1E31BF4FAC04445BFA28553
:100CC4002685052255D97D55F2406244D2444249D5
:100CD400B249224A056182801CC4050963D7070012
:100CE400184C63CBE700638945011C401387170048
:100CF40018C02380B70059B7228626851D20E31F1C
:100D040035F7D1B71C401387170018C02947238033
:100D1400E70061B79737002093878734AA85884313
:100D240029BF011122CC26CA4AC806CE4EC6AA84BF
:100D34002E89328401C51C4D91E3092997170000BF
:100D4400938707BB6319F406C0401C4C1CC483572B
:100D5400C400A18BC9C31C48BDCF1C48084093796B
:100D6400F90F1379F90F1D8D5C486346F500A285D0
:100D74002685752C2DE51C440505FD171CC41C4057
:100D84001387170018C0238037015C486389A700C4
:100D94008357C400858B81CBA9476316F900A285CC
:100DA400268571240DEDF24062444A85D2444249BD
:100DB400B2490561828097170000938767B5631471
:100DC400F400804459B797170000938767B0E31E77
:100DD400F4F6C0449DBFA285268521203DDD7D59C2
:100DE400D9B74111973700209387872726C28443B8
:100DF40022C44AC006C62A892E8489C49C4C99E31D
:100E04002685A92697170000938787AE631CF402F2
:100E1400C0400317C40093170701C18393F68700EA
:100E2400B5EE93F607019DEEA5472320F90013675D
:100E340007042316E4007D55B2402244924402493B
:100E44004101828097170000938787AC6314F400F4
:100E54008044C1B797170000938787A7E31BF4FA70
:100E6400C04445BF918B8DC74C5889C9930744042E
:100E74006384F5004A858123232A04028357C4002E
:100E84002322040093F7B7FD2316F4001C481CC06A
:100E94008357C40093E787002316F4001C4881EFAE
:100EA4008357C4001307002093F707286385E700DE
:100EB400A2854A859D218357C40013F7170005C7EF
:100EC4005C4823240400B307F0401CCC1C480145B3
:100ED400A5F78317C40013F7070839DF93E707045E
:100EE4002316F40089BF898B014791E3584818C43D
:100EF400F1BF83D7C500011122CC26CA06CE4AC849
:100F04004EC613F78700AA842E8471EFD841634D2F
:100F1400E000B841634AE0000145F2406244D24433
:100F24004249B2490561828058547DD703A904001F
:100F34009396370123A0040063DD060670488357A7
:100F4400C400918B99C75C401D8E5C5899C33C408A
:100F54001D8E5C540C50814626858297FD5703579D
:100F6400C400631DF5009440F54763E8D706B7074E
:100F740040208507B3D7D700858BA5C31C482322FF
:100F840004001CC09317370163D80700FD5763148E
:100F9400F5009C4091E368C84C5823A02401ADDDC2
:100FA400930744046384F50026853121232A04022F
:100FB400A5B70C500146854626850297FD572A861B
:100FC400E31FF5F69C40A5DF75476385E7005947A5
:100FD4006394E70423A0240181B71367070423164D
:100FE400E4007D551DBF83A90501E38709F203A928
:100FF40005008D8B23A0350133093941014791E365
:10100400D84918C4E35A20F11C540C50CA864E86A1
:10101400268582976349A0008357C40093E7070499
:101024002316F4007DBFAA993309A940E1BF9C4966
:10103400B9CF011122CC06CE2A8411C51C4D81E7FB
:101044002EC62922B245971700009387678A639BAF
:10105400F5004C408397C50095C722856244F24051
:10106400056141BD971700009387878A6394F50053
:101074000C44CDB79717000093878785E39CF5FC54
:101084004C44C9BFF2406244014505618280014578
:101094008280411122C406C62A842316B500231770
:1010A400C500232005002322050023240500232254
:1010B400050623280500232A0500232C05002146C4
:1010C40081451305C505EFF0AF9F9707000093878F
:1010D400E7485CD0970700009387474B1CD49707D9
:1010E40000009387874F5CD497070000938747528B
:1010F40000D01CD8B24022444101828097050000F0
:10110400938525F389AA411126C213068006938488
:10111400F5FFB384C4024AC02E8922C406C693854F
:10112400440781262A8401CD23200500232225019A
:10113400310508C4138684068145EFF06F98228533
:10114400B240224492440249410182801C4DBDE3D5
:10115400411106C622C497070000938767FA1CD57D
:10116400970700009387077D9C43232405042326C7
:101174000504232805046314F50085471CCD2A843F
:101184001D2848C02285052808C422852D2048C46E
:10119400484001469145F53D08440546A545D53DE1
:1011A40048440946C945F53585471CCCB24022441C
:1011B40041018280828041119707000093878777DD
:1011C40026C284434AC006C69C4C22C42A8999E399
:1011D4002685AD3F938484048044DC40FD1763D6A8
:1011E40007009C40B9CF8440C5BF0317C40039E74A
:1011F400C177850723220406232004002322040048
:10120400232404005CC423280400232A0400232C80
:101214000400214681451305C405EFF06F8A232A93
:101224000402232C04022324040423260404228518
:10123400B24022449244024941018280130484064C
:1012440071BF91454A85C13588C051FDB1472320FE
:10125400F9000144E9BF797122D44AD052CC56CA6C
:101264005AC85EC606D626D24ECE2A8AAE8A130441
:1012740085040149054BFD5B09ECB25022544A85B3
:1012840092540259F249624AD24A424BB24B4561E6
:101294008280044483294400FD1963D4090000407A
:1012A400E1BF83D7C400637BFB008397E4006387BB
:1012B4007701A6855285829A3369A90093848406AE
:1012C400E1BF1971A6DAAE848395E500A2DC86DE5F
:1012D400328463DC050083D7C40023A0060093F79F
:1012E40007089DE39307004015A0300836C6AD2ECD
:1012F400B246E34205FE7247BD67F98F7977BA9724
:1013040093B717009CC2F9BF930700041CC0F650A2
:101314006654D65401450961828083D7C500011102
:1013240022CC06CE26CA4AC8898B2E8489CF93073D
:1013340074041CC01CC885475CC8F2406244D24493
:1013440042490561828074003000AA849D3FA24511
:101354002A892685392201ED8317C40013F7072053
:1013640069FFF19B93E727002316F400C9B7970799
:1013740000009387E7D89CD48357C40008C008C8EA
:1013840093E707082316F400A2475CC8B24789CF45
:101394008315E4002685F52C01C98357C400F19B0D
:1013A40093E717002316F4008357C4003369F90048
:1013B4002316240159B7CDC583A7C5FF411122C403
:1013C40006C626C21384C5FF63D307003E94AA84CD
:1013D400192E97370020938727C99C4389EF23222E
:1013E40004009737002023A187C82244B2402685F1
:1013F40092444101D5AC637EF40014403307D40019
:101404006396E7009843DC43369718C05CC0D1BFAD
:10141400BA87D84319C3E37DE4FE94433386D700E7
:10142400631F86001040B29694C33386D700E31E30
:10143400C7FA10435843B29694C3D8C37DB76375B3
:10144400C400B1479CC055B71040B306C40063162E
:10145400D70014435843B29614C058C0C0C371B7E0
:101464008280011126CA93843500F19806CE22CCDD
:101474004AC84EC6A104B14763F1F404B14463E021
:10148400B4042A898D249387818098433A8431E077
:101494009387C1809C4391E781454A85512823A6BF
:1014A400A180A6854A856920FD5963173507B14790
:1014B4002320F9004A850D2C29A0E3D204FCB1476E
:1014C4001CC10145F2406244D2444249B24905611B
:1014D40082801C40858F63CE0702AD4663F6F6001A
:1014E4001CC03E9404C031A05C406312870223A454
:1014F400F1804A85D52A1305B40093074400619905
:101504003307F54061D33A94898F1CC065BF5CC32F
:10151400CDB722874040A5BF130435007198E3037B
:1015240085FCB305A4404A852120E31D35FB41B762
:10153400411122C42A842E8523AA01A606C6112C91
:10154400FD576317F500938741A79C4391C31CC0C3
:10155400B240224441018280411122C42E848395E9
:10156400E50006C65922634905007C48AA977CC851
:10157400B2402244410182808357C4007D777D17A5
:10158400F98F2316F400EDB783D7C500011122CCDF
:1015940026CA4AC84EC606CE93F70710AA842E84DC
:1015A4003289B68991C78395E5008946014631227F
:1015B4008357C4007D777D17F98F2316F4008315B4
:1015C400E4006244F240CE864A86B2494249268506
:1015D400D24405613DA8411122C42E848395E500BF
:1015E40006C6E128FD570357C400631BF500FD77C9
:1015F400FD17F98F2316F400B24022444101828082
:101604008567D98F2316F40068C8FDB78395E50074
:1016140005A8411122C42A842E85B285368623AAC0
:1016240001A606C6EFF00FC0FD576317F5009387B8
:1016340041A79C4391C31CC0B24022444101828013
:10164400411122C42A842E8523AA01A606C6E120BC
:10165400FD576317F500938741A79C4391C31CC0B2
:10166400B240224441018280411122C42A842E8541
:10167400B28523AA01A606C66D20FD576317F5009F
:10168400938741A79C4391C31CC0B24022444101AB
:101694008280411122C42A842E8523AA01A606C66B
:1016A4007920FD576317F500938741A79C4391C3A5
:1016B4001CC0B240224441018280411122C42A84C8
:1016C4002E85B285368623AA01A606C6BD20FD57FF
:1016D4006317F500938741A79C4391C31CC0B24094
:1016E40022444101828082808280411122C42A8462
:1016F4002E85B285368623AA01A606C6A920FD57E3
:101704006317F500938741A79C4391C31CC0B24063
:101714002244410182809307800523AAF1A67D55C6
:1017240082809307800523AAF1A67D5582809307C2
:10173400800523AAF1A6014582809307800523AA88
:10174400F1A67D5582809307800523AAF1A67D55D5
:101754008280938701819C4391C73E9523A8A180F1
:101764003E858280938781A73E9523A8A1803E85EC
:10177400828000007EF1FFFF04F1FFFF36F0FFFFDF
:1017840036F0FFFF36F0FFFFDAF0FFFF92EFFFFFC6
:1017940036F0FFFFE4F0FFFFFAF0FFFF78F1FFFF00
:1017A40005010906A101050719E029E7150025012E
:1017B40075019508810295017508810195037501EC
:1017C40005081901290391029505750191019506F2
:1017D400750826FF000507190029918100C0000043
:1017E40005010902A1010901A10005091901290343
:1017F4001500250175019503810275059501810187
:1018040005010930093109381581257F75089503CB
:101814008106C0C009023B00020100A03209040095
:10182400000103010100092111010001223E00070A
:1018340005810308000A09040100010301020009EB
:1018440021100100012234000705820304000A006C
:1018540012011001000000403D410721000000007A
:10186400000100000E037700630068002E0063008F
:101874006E0000000C034300480035003700780078
:101884004C69676874206F6E204E756D204C6F63D1
:101894006B204C45442100004C69676874206F66D6
:1018A40066204E756D204C6F636B204C45442100BF
:1018B40073746172740000009CF0FFFFC4F0FFFFBA
:1018C400ECF0FFFF04F1FFFF1EF1FFFF000000003A
:1018D4000000000000000000000000000000000004
:1018E40000000000000000000000000000000000F4
:1018F40000000000000000000000000000000000E4
:1019040000000000000000000000000000000000D3
:1019140000000000000000000000000000000000C3
:0C192400000000000000000000000000B7
:04193000040309049F
:04193400004000204F
:1019380000000000F018000010190000D018000086
:10194800000000000000000000000000000000008F
:10195800000000000000000000000000000000007F
:10196800000000000000000000000000000000006F
:10197800000000000000000000000000000000005F
:10198800000000000000000000000000000000004F
:081998000040002000000000E7
:00000001FF
