:100000006F004000975100209381C1851781002027
:10001000130141FF13054013973500209385857E1A
:10002000173600201306067E63FAC50083220500FA
:1000300023A0550011059105E3EAC5FE1715000040
:100040001305C579974500209385C5FB138601816B
:1000500063FAC5008322050023A055001105910510
:10006000E3EAC5FE138501819385C1A76377B500D7
:10007000232005001105E36DB5FE9302800873A0EF
:100080000230970200009382220293E212007390E2
:1000900052309702000093826217739012347300FB
:0400A000203000000C
:1000A40000000000000000006F00F01F6F00D01F70
:1000B400000000000000000000000000000000003C
:1000C400000000000000000000000000000000002C
:1000D4006F00B01D000000006F00501D0000000004
:1000E4006F00F01C6F00D01C6F00B01C6F00901CE0
:1000F4006F00701C6F00501C6F0040630000000014
:100104006F00D01B6F00B01B6F00901B6F00701B43
:100114006F00501B6F00301B000000006F00D01AEE
:100124006F00B01A6F00901A6F00701A6F00501AA7
:100134003D432A876373C3029377F700BDEFADE5B0
:10014400937606FF3D8ABA960CC34CC30CC74CC7C2
:100154004107E36BD7FE11E28280B306C3408A06EF
:100164009702000096966780A6002307B700A306AF
:10017400B7002306B700A305B7002305B700A304FF
:10018400B7002304B700A303B7002303B700A302F7
:10019400B7002302B700A301B7002301B700A300EF
:1001A400B7002300B700828093F5F50F939685007E
:1001B400D58D93960501D58D61B793962700970247
:1001C400000096968682E78086FA9680C1171D8F76
:1001D4003E96E374C3F8A5B7371700408327870A10
:1001E400411106C693E707202324F70A8545130522
:1001F40000107D258D45130500205D25B240410189
:100204006F00E07941111305F00406C61D23E93798
:100214001715000013058554EF00B02497470020FC
:10022400938787E623A8F1A69387818E23AAF1A654
:100234009387819623A4F1A69387819E23A6F1A692
:10024400EF000079B7E700E03707400023A0E7108C
:1002540001A08147138641A713F7F70F6364A70032
:100264006F00E07E18423E9783460700850793C6D9
:10027400F6FF2300D704CDB78147138681A613F771
:10028400F70F6364A7006F00E07D18423E97834632
:100294000700850793C6F6FF2300D704CDB781472F
:1002A4001386C1A613F7F70F6364A7006F00E07C01
:1002B40018423E9783460700850793C6F6FF23003E
:1002C400D704CDB78147138601A713F7F70F6364EB
:1002D400A7006F00E07B18423E978346070485071A
:1002E40093C6F6FF2300D708CDB7B787004003C7EE
:1002F40067001377F70F93762700638F063E01118B
:1003040006CE22CC26CA4AC84EC603C77700930637
:10031400000313770703630BD70203C777009146E3
:100324001377F7036305D71C63EFE606854663007E
:10033400D716630B071489466305D7168D466305E4
:10034400D718B787004009472383E7003787004061
:1003540083477700E207E18763D10724930720FCF2
:100364002301F702938601A7884203477500834758
:10037400650022075D8F239FE1808347150023805A
:10038400F1820349050013760906631D061E2946FA
:10039400636AF61E171600001306C6318A07B29761
:1003A4009C43B2978287930620026306D71063E3C7
:1003B400E602930600026306D70493061002E312D2
:1003C400D7F803C767021377C70F13672700238380
:1003D400E70285BF930630026302D71093064002FA
:1003E400E311D7F603C72703134707042389E7025A
:1003F40003C727031377C70F136727002389E7026F
:1004040089B703C7018295466302D7069946631AE2
:10041400D7069387E18103D4070013070004BE8441
:100424006374870013040004938701A7138941822E
:10043400884342048325090041802286592D83D7AD
:1004440004009379F40F818F239FF180832709009F
:100454003E9423A28182B78700402380370303C7D9
:100464002702134707042381E702E1BD03C73700CE
:1004740083C6E18113770708558FA381E7000947F5
:10048400DDB723800702E5BF83C787005DBD03C7CF
:10049400770013770704E30607EA03C58700553B93
:1004A4004DB503C7770013770704E30C07E803C5CA
:1004B4008700D93379B503C7A7021377C70F13672A
:1004C40027002385E702B5BD03C777001377070428
:1004D400E30907E603C58700D933A5B503C7E702D7
:1004E4001377C70F136727002387E70299BD03C754
:1004F400770013770704E30607E403C727031347CA
:1005040007082389E70203C587006D3B1DBD8347A8
:100514003500834625000946A207D58F93D6870068
:100524006384C6088D45638BB60885476390F60AD5
:10053400971700009387871F23A2F1820144C947BC
:10054400C207C18363F4E700239FF1809387E181AD
:1005540003D607009307000463F4C70013060004DE
:10056400938941829314060183A50900C1802686DC
:100574008D2303A60900269623A2C1829307F00FB8
:100584006317F40AB78700401307F0FC2381E702DE
:10059400B787004009472383E700F2406244D2440E
:1005A4004249B24905618280971700009387471337
:1005B40023A2F18201449307A00459B793F7F70FDC
:1005C40085466389D7008DCB638FC7001304F00F72
:1005D4008147BDB7971700009387871623A2F1823E
:1005E4000144B947B1BF971700009387671623A248
:1005F400F1820144B147A9B79387418023A2F182D4
:100604000144914735BF83472500239FF18005A00E
:1006140083C7C1812300F50003D7E181854763F8CF
:10062400E7008547DDB783472500238EF180620903
:100634001359894181466352090283D7E1819306A4
:1006440000043E8763F4F600130700044207418365
:10065400998F9376F70F239FF180B787004023800B
:10066400D702130700FC1DB71377F9018947E31B71
:10067400F7F0834745006381E704636CF70005479F
:10068400E392E7F0378700408347670293F7370721
:1006940099A0130710086388E70213072008E3935F
:1006A400E7EE378700408347A70293F7C70B93E72A
:1006B40027002305F702A5BF378700408347A70219
:1006C40093F73707FDB7378700408347670293F7EF
:1006D400C70B93E727002303F70291BF230005000C
:1006E40025BF230005009C42A380070003D7E181B6
:1006F4008947E3FEE7F211BF937617008DC2A38109
:10070400070009472381E70249472383E70223853A
:10071400E7022387E70205472383E7008280937675
:100724004700FDDA03C757001147FDB77D3E73004C
:10073400203093770502BDCBB717004003C7A7004D
:10074400118B21C3B7170040930670052380D7048B
:10075400130780FA2380E7047D892394A70001000E
:10076400010001000100238007042380D7042380B3
:10077400E704854637270040A303D7802380070476
:100784008280130770052380E704130780FA23800F
:10079400E70403C7A700136747002385E70093070F
:1007A400004B01000100FD17EDFF69BF93770504BD
:1007B400E1DBB717004003C7A700418B31C37D8934
:1007C40013660504DD477D1563F1A706B7170040DE
:1007D400930670052380D704130780FA2380E70467
:1007E4002394C700010001000100010023800704D5
:1007F4002380D7042380E7048D4637270040ADBF0C
:10080400130770052380E704130780FA2380E704A5
:1008140003C7A700136707012385E7009307007D3B
:1008240001000100FD17EDFF59BFB7170040930603
:1008340070052380D704130780FA2380E7042394E8
:10084400C700010001000100010023800704238088
:10085400D7042380E70489463727004031BFB71700
:10086400004003D58700420541819377050491EB4D
:100874009377F5013755E801130505803345F502F3
:1008840082809377050C130700046397E70093773E
:10089400F50137459C1CCDB72165130505D0828031
:1008A400914763EEB702171700001307A7EB8A05F9
:1008B400BA959C41BA978287B717004003A7470BA4
:1008C4001345F5FF698F23AAE70A03A7070B698F6E
:1008D40023A8E70A03A7070A798D23A0A70A828021
:1008E400B717004083A6470B1347F5FFF98E23AAD9
:1008F400D70A83A6070B558D23A8A70A83A6070A40
:10090400758F23A0E70A8280B717004003A7470B1F
:10091400498F23AAE70A03A7070B1345F5FF45BF31
:10092400B717004083A6470B1347F5FF758F23AA1B
:10093400E70A03A7070A598D4DB7B717004003A765
:10094400470B498FEDB7814737370040A14663C451
:10095400C700328582800345B740E38EA6FE338507
:10096400F5000345050085072304A740CDB74111D1
:1009740022C406C62A84E5352947B307E502B240F6
:100984008D83B3D7870222449507B3D7E70237375D
:100994000040C207C1832316F7404101828071657C
:1009A40041111305052006C6D937B7370040130790
:1009B40070F82381E7400D47A381E7401307000443
:1009C400A380E74005472387E740B2404101828086
:1009D400B7870040238007001307C0FC2386E70085
:1009E400A386E70003D701A72398E70003D741A70D
:1009F400239AE70003D781A6239CE70003D7C1A667
:100A0400239EE70089462381D70249472383E702CF
:100A14002385E7022387E7022389D702A3810700FE
:100A2400130790022380E700B716004003D7A601FE
:100A34001367070C239DE6007D572383E700130704
:100A440010F8A380E7001D472381E7008280B78761
:100A540000402382A70203C767021377C70F2383CB
:100A6400E7028280B78700402384A70203C7A70256
:100A74001377C70F2385E7028280B7870040238658
:100A8400A70203C7E7021377C70F2387E702828011
:100A9400B78700402388A70203C727031377C70F2C
:100AA4002389E702828001A001A001A001A001A086
:100AB40001A001A001A001A001A001A001A001A02A
:100AC40001A001A001A001A001A001A001A001A01A
:100AD40001A0B3C7A5008D8B3307C50081E78D47FF
:100AE40063EEC700AA876370E50A83C6050085071D
:100AF4008505A38FD7FEE3EAE7FE8280937635006F
:100B0400AA8791CA83C6050085078505A38FD7FEEA
:100B140093F63700FDB79376C7FF138606FE63F09E
:100B2400C70683A3050083A2450083AF850003AFF6
:100B3400C50083AE050103AE450103A3850183A867
:100B4400C5019385450223A0770003A8C5FF23A20E
:100B5400570023A4F70123A6E70123A8D70123AA5A
:100B6400C70123AC670023AE17019387470223AE66
:100B740007FF75B790419107910523AEC7FEE3EBDC
:100B8400D7FEE3E4E7F68280011126CA4AC806CEFE
:100B940022CC4EC652C4AA842E8901C51C4D91E3B1
:100BA400ED299C4C804499E32685C52997170000BC
:100BB400938787BE631CF402C0408357C400A18B93
:100BC400B1C71C48A1C7FD59294A1C4483450900E3
:100BD400FD17B1E91CC463DE07062286A9452685F4
:100BE4004128FD576308F502294535A097170000F1
:100BF400938787BC6314F4008044C1B7971700003F
:100C0400938787B7E31BF4FAC04445BFA2852685C2
:100C1400052255D97D55F2406244D2444249B24935
:100C2400224A056182801CC4050963D70700184C59
:100C340063CBE700638945011C401387170018C084
:100C44002380B70059B7228626851D20E31F35F778
:100C5400D1B71C401387170018C029472380E70029
:100C640061B7973700209387A73FAA85884329BF98
:100C7400011122CC26CA4AC806CE4EC6AA842E89A1
:100C8400328401C51C4D91E309299717000093870D
:100C9400A7B06319F406C0401C4C1CC48357C4009D
:100CA400A18BC9C31C48BDCF1C4808409379F90FD8
:100CB4001379F90F1D8D5C486346F500A2852685DE
:100CC400752C2DE51C440505FD171CC41C40138719
:100CD400170018C0238037015C486389A700835735
:100CE400C400858B81CBA9476316F900A2852685AC
:100CF40071240DEDF24062444A85D2444249B2491E
:100D04000561828097170000938707AB6314F40092
:100D1400804459B797170000938707A6E31EF4F69B
:100D2400C0449DBFA285268521203DDD7D59D9B7CC
:100D34004111973700209387A73226C2844322C4E7
:100D44004AC006C62A892E8489C49C4C99E3268508
:100D5400A92697170000938727A4631CF402C040B8
:100D64000317C40093170701C18393F68700B5EEF8
:100D740093F607019DEEA5472320F90013670704A6
:100D84002316E4007D55B2402244924402494101B5
:100D9400828097170000938727A26314F40080448D
:100DA400C1B7971700009387279DE31BF4FAC0444B
:100DB40045BF918B8DC74C5889C9930744046384FC
:100DC400F5004A85252B232A04028357C4002322D5
:100DD400040093F7B7FD2316F4001C481CC0835786
:100DE400C40093E787002316F4001C4881EF83575F
:100DF400C4001307002093F707286385E700A28542
:100E04004A85B9298357C40013F7170005C75C48FE
:100E140023240400B307F0401CCC1C480145A5F76B
:100E24008317C40013F7070839DF93E70704231671
:100E3400F40089BF898B014791E3584818C4F1BF76
:100E440083D7C500011122CC26CA06CE4AC84EC695
:100E540013F78700AA842E8471EFD841634DE00014
:100E6400B841634AE0000145F2406244D244424939
:100E7400B2490561828058547DD703A90400939632
:100E8400370123A0040063DD060670488357C400BD
:100E9400918B99C75C401D8E5C5899C33C401D8E54
:100EA4005C540C50814626858297FD570357C40035
:100EB400631DF5009440F54763E8D706B707402063
:100EC4008507B3D7D700858BA5C31C48232204000C
:100ED4001CC09317370163D80700FD576314F5004E
:100EE4009C4091E368C84C5823A02401ADDD9307CE
:100EF40044046384F50026851121232A0402A5B73E
:100F04000C500146854626850297FD572A86E31F25
:100F1400F5F69C40A5DF75476385E7005947639460
:100F2400E70423A0240181B7136707042316E40010
:100F34007D551DBF83A90501E38709F203A90500B7
:100F44008D8B23A0350133093941014791E3D849F9
:100F540018C4E35A20F11C540C50CA864E862685C8
:100F640082976349A0008357C40093E707042316BC
:100F7400F4007DBFAA993309A940E1BF9C49B9CFC8
:100F8400011122CC06CE2A8411C51C4D81E72EC640
:100F94002922B2459717000093870780639BF500C9
:100FA4004C408397C50095C722856244F240056191
:100FB40041BD97170000938727806394F5000C4484
:100FC400CDB7970700009387277BE39CF5FC4C443F
:100FD400C9BFF240624401450561828001458280B7
:100FE400411122C406C62A842316B5002317C5005E
:100FF40023200500232205002324050023220506BF
:1010040023280500232A0500232C050021468145B9
:101014001305C505EFF0CF91970700009387E747C5
:101024005CD0970700009387474A1CD497070000B9
:101034009387874E5CD4970700009387475100D06D
:101044001CD8B24022444101828097050000938558
:1010540025F3A9A2411126C2130680069384F5FF45
:10106400B384C4024AC02E8922C406C693854407A9
:10107400052E2A8401CD23200500232225013105D4
:1010840008C4138684068145EFF08F8A2285B24016
:10109400224492440249410182801C4DADE3411136
:1010A40006C622C497070000938767FA1CD5938766
:1010B40081809C4323240504232605042328050456
:1010C4006314F50085471CCD2A841D2848C0228559
:1010D400052808C422852D2048C44840014691456E
:1010E400013708440546A545E53D48440946C94538
:1010F400C53D85471CCCB240224441018280828098
:1011040041119387818026C284434AC006C69C4C01
:1011140022C42A8999E32685493793848404804428
:10112400DC40FD1763D607009C40B9CF8440C5BF9F
:101134000317C40039E7C177850723220406232057
:10114400040023220400232404005CC42328040094
:10115400232A0400232C0400214681451305C405D9
:10116400EFE01FFD232A0402232C04022324040499
:10117400232604042285B2402244924402494101B8
:1011840082801304840671BF91454A85E13588C085
:1011940051FDB1472320F9000144E9BF797122D4FC
:1011A4004AD052CC56CA5AC85EC606D626D24ECEAD
:1011B4002A8AAE8A130485040149054BFD5B09ECB8
:1011C400B25022544A8592540259F249624AD24A90
:1011D400424BB24B45618280044483294400FD198B
:1011E40063D409000040E1BF83D7C400637BFB00E4
:1011F4008397E40063877701A6855285829A3369D1
:10120400A90093848406E1BF1971A6DAAE8483959C
:10121400E500A2DC86DE328463DC050083D7C400EB
:1012240023A0060093F707089DE39307004015A049
:10123400300836C68D2EB246E34205FE7247BD67BE
:10124400F98F7977BA9793B717009CC2F9BF9307C0
:1012540000041CC0F6506654D654014509618280CE
:1012640083D7C500011122CC06CE26CA4AC8898B71
:101274002E8489CF930774041CC01CC885475CC89E
:10128400F2406244D24442490561828074003000D5
:10129400AA849D3FA2452A892685192201ED831738
:1012A400C40013F7072069FFF19B93E72700231677
:1012B400F400C9B797070000938767D99CD4835774
:1012C400C40008C008C893E707082316F400A2471F
:1012D4005CC8B24789CF8315E4002685D52C01C9A3
:1012E4008357C400F19B93E717002316F400835738
:1012F400C4003369F9002316240159B7CDC183A76B
:10130400C5FF411122C406C626C21384C5FF63D398
:1013140007003E94AA843926938701819C4399EB64
:101324002322040023A881802244B24026859244CB
:101334004101D5AC637EF40014403307D4006396B6
:10134400E7009843DC43369718C05CC0E1BFBA8716
:10135400D84319C3E37DE4FE94433386D700631F67
:1013640086001040B29694C33386D700E31EC7FAB2
:1013740010435843B29694C3D8C37DB76375C40071
:10138400B1479CC055B71040B306C4006316D700DC
:1013940014435843B29614C058C0C0C371B7828076
:1013A400011126CA93843500F19806CE22CC4AC88E
:1013B4004EC6A104B14763F1F404B14463E0B4043C
:1013C4002A898D249387018198433A8431E0938755
:1013D40041819C4391E781454A85512823AAA180F4
:1013E400A6854A856920FD5963173507B14723202F
:1013F400F9004A850D2C29A0E3D204FCB1471CC195
:101404000145F2406244D2444249B24905618280B6
:101414001C40858F63CE0702AD4663F6F6001CC000
:101424003E9404C031A05C406312870223A8F1807B
:101434004A85D52A1305B4009307440061993307FC
:10144400F54061D33A94898F1CC065BF5CC3CDB7A6
:1014540022874040A5BF130435007198E30385FC3F
:10146400B305A4404A852120E31D35FB41B7411152
:1014740022C42A842E8523AC01A606C6112CFD574E
:101484006317F500938781A79C4391C31CC0B240A6
:10149400224441018280411122C42E848395E500B7
:1014A40006C65922634905007C48AA977CC8B24005
:1014B4002244410182808357C4007D777D17F98FD0
:1014C4002316F400EDB783D7C500011122CC26CA38
:1014D4004AC84EC606CE93F70710AA842E843289D2
:1014E400B68991C78395E500894601463122835721
:1014F400C4007D777D17F98F2316F4008315E4006B
:101504006244F240CE864A86B24942492685D24494
:1015140005613DA8411122C42E848395E50006C6C9
:10152400E128FD570357C400631BF500FD77FD1741
:10153400F98F2316F400B24022444101828085676A
:10154400D98F2316F40068C8FDB78395E50005A874
:10155400411122C42A842E85B285368623AC01A685
:1015640006C6EFF04FBEFD576317F500938781A7BA
:101574009C4391C31CC0B24022444101828041116A
:1015840022C42A842E8523AC01A606C6E120FD5779
:101594006317F500938781A79C4391C31CC0B24095
:1015A400224441018280411122C42A842E85B285BD
:1015B40023AC01A606C66D20FD576317F50093877B
:1015C40081A79C4391C31CC0B24022444101828044
:1015D400411122C42A842E8523AC01A606C6792093
:1015E400FD576317F500938781A79C4391C31CC0E3
:1015F400B240224441018280411122C42A842E85B2
:10160400B285368623AC01A606C6BD20FD576317F6
:10161400F500938781A79C4391C31CC0B240224428
:101624004101828082808280411122C42A842E85D5
:10163400B285368623AC01A606C6A920FD576317DA
:10164400F500938781A79C4391C31CC0B2402244F8
:10165400410182809307800523ACF1A67D558280E9
:101664009307800523ACF1A67D55828093078005FE
:1016740023ACF1A6014582809307800523ACF1A633
:101684007D5582809307800523ACF1A67D55828029
:10169400938781819C4391C73E9523ACA1803E856D
:1016A40082809387C1A73E9523ACA1803E8582802A
:1016B40032F0FFFFB8EFFFFFD4EEFFFFD4EEFFFFE1
:1016C400D4EEFFFF56EFFFFF5EEEFFFFD4EEFFFF09
:1016D40060EFFFFF76EFFFFF2CF0FFFF09024A00E7
:1016E40001010080320904000008FF80550007054D
:1016F400840240000007050402400000070583023D
:101704004000000705030240000007058202400074
:10171400000705020240000007058102400000079F
:10172400050102400000000012011001FF80554035
:101734004843375500010102000100000E03770001
:10174400630068002E0063006E0000000C03430079
:10175400480035003700780073746172740000002B
:1017640058F1FFFF80F1FFFFA8F1FFFFC0F1FFFF79
:10177400DAF1FFFF0000000000000000000000009C
:101784000000000000000000000000000000000055
:101794000000000000000000000000000000000045
:1017A4000000000000000000000000000000000035
:1017B4000000000000000000000000000000000025
:1017C4000000000000000000000000000000000015
:0417D4000000000011
:1017D8000000000098170000B817000078170000F4
:1017E80000000000000000000000000000000000F1
:1017F80000000000000000000000000000000000E1
:1018080000000000000000000000000000000000D0
:1018180000000000000000000000000000000000C0
:1018280000000000000000000000000000000000B0
:1018380000400020040309040040002000000000CC
:00000001FF
