:100000006F004000975100209381C1861781002026
:10001000130141FF1305400A973500209385857E23
:10002000174600201306669F63FAC5008322050069
:1000300023A0550011059105E3EAC5FE1725000030
:10004000130505B0974500209385C5FB1386818075
:1000500063FAC5008322050023A055001105910510
:10006000E3EAC5FE13858180938581826377B500BD
:10007000232005001105E36DB5FE9302800873A0EF
:100080000230973200209382E27793E2120073905D
:100090005230970200009382C22F73901234730083
:0400A000203000000C
:1000A40000000000000000006F0080086F00801A4C
:1000B400000000000000000000000000000000003C
:1000C400000000000000000000000000000000002C
:1000D4006F004006000000006F00E0050000000013
:1000E4006F0080056F0060056F0040056F002005FC
:1000F4006F0000056F00E0046F00C0040000000002
:100104006F0060046F0040046F0020046F0000045F
:100114006F00E0036F00C003000000006F00600385
:100124006F0040036F0020036F0000036F00E002C4
:1001340001A001A001A001A001A001A001A001A0B3
:1001440001A001A001A001A001A001A001A001A0A3
:1001540001A001A001A001A001A001A0B7170040C7
:10016400930670052380D704130780FA2380E704DD
:1001740003C6B7041376F60DA385C70423800704CA
:100184001376050225C603C6A700118A0DE2238053
:10019400D7042380E70403C7A70013674700238518
:1001A400E7009307004B01000100FD17EDFFB717AF
:1001B4000040930670052380D704130780FA238038
:1001C400E7047D892394A7000100010001000100D8
:1001D400238007042380D7042380E7048546372738
:1001E4000040A303D780238007048280137605048C
:1001F4006DDE03C6A700418A0DE22380D704238065
:10020400E70403C7A700136707012385E7009307E3
:10021400007D01000100FD17EDFFB71700409306B4
:1002240070052380D704130780FA7D892380E704AF
:10023400136505042394A7000100010001000100D7
:10024400238007042380D7042380E7048D463727BF
:10025400004041BFB7170040130770052380E7042F
:10026400130780FA2380E7047D572396E70203C728
:100274006704136717002383E7042380070401A09E
:10028400BD473305F50201007D1575FD82804111DE
:1002940022C426C206C6AA84014463179400B2404D
:1002A400224492444101828005041305803E4204A5
:0602B400C13F4180DDB7EF
:1002BC003D432A876373C3029377F700BDEFADE527
:1002CC00937606FF3D8ABA960CC34CC30CC74CC739
:1002DC004107E36BD7FE11E28280B306C3408A0666
:1002EC009702000096966780A6002307B700A30626
:1002FC00B7002306B700A305B7002305B700A30476
:10030C00B7002304B700A303B7002303B700A3026D
:10031C00B7002302B700A301B7002301B700A30065
:10032C00B7002300B700828093F5F50F93968500F4
:10033C00D58D93960501D58D61B7939627009702BD
:10034C00000096968682E78086FA9680C1171D8FEC
:10035C003E96E374C3F8A5B7371700408327870A86
:10036C00411106C693E707202324F70A8545130598
:10037C000010812A8D4513050020A122B2404101B5
:10038C0005A941111305800406C622C426C23714E0
:10039C00004097300020E780E0517D3F83451404F6
:1003AC0017150000130585698564252917150000AC
:1003BC001305056AB1231305400697300020E7802A
:1003CC0080628327840A8D451D65C58F2324F40A1A
:1003DC00CD28592A8327C40A13055005C58F232617
:1003EC00F40A652A8327840A0545C58F2324F40A59
:1003FC0097300020E780205F8327C40AC58F23260F
:10040C00F40A752A8327840A0945C58F2324F40A24
:10041C0097300020E780205D8327C40AA545174547
:10042C000020130565BDC58F2326F40A752A832782
:10043C00840A0545C58F2324F40A97300020E780F1
:10044C00805A8327C40AB14517450020130505C3FC
:10045C00C58F2326F40AF92A8327840A0545C58FFC
:10046C002324F40A97300020E780E0578327C40A3E
:10047C00B14517450020130525B8C58F2326F40A6E
:10048C00DD2A8327840A0545C58F2324F40A973077
:10049C000020E78040558327C40A17450020130528
:1004AC00E5BDB145C58F2326F40A312C8327840A78
:1004BC00171500001305455CDD8C2324940A892153
:1004CC0001A0914763EEB702171700001307475BB3
:1004DC008A05BA959C41BA978287B717004003A743
:1004EC00470B1345F5FF698F23AAE70A03A7070BF0
:1004FC00698F23A8E70A03A7070A798D23A0A70A07
:10050C008280B717004083A6470B1347F5FFF98E7F
:10051C0023AAD70A83A6070B558D23A8A70A83A65F
:10052C00070A758F23A0E70A8280B717004003A73C
:10053C00470B498F23AAE70A03A7070B1345F5FFBF
:10054C0045BFB717004083A6470B1347F5FF758FC0
:10055C0023AAE70A03A7070A598D4DB7B71700401E
:10056C0003A7470B498FEDB7B74700401147A3814D
:10057C00E70009472380E700130700062380E70004
:10058C0003C7170013670701A380E70003C7170011
:10059C001377E70FA380E7008280B747004003C7BB
:1005AC0007001377F70E2380E7002382A700374755
:1005BC0000408347670093F70704E5DF8280B74765
:1005CC00004003C707001377F70E2380E7007D5721
:1005DC002382E700374700408347670093F70704FF
:1005EC00E5DF034547008280B747004003C707009B
:1005FC00B74600401377F70E2380E7002396B70029
:10060C0005472383E7001D4789E9374700408347A7
:10061C00770093F7F70FE5FF828003C67700E36559
:10062C00C7FE03460500FD15C2052388C600050557
:10063C00C181D9BFB747004003C70700B746004088
:10064C00136707012380E7002396B7000547238330
:10065C00E7003747004091E182808347770093F7AA
:10066C00F70FF5DB83C70601FD15C2052300F50066
:10067C00C1810505CDB7B747004003C70700137705
:10068C00F70E2380E700131705012E9541834205D1
:10069C00239CE7004181239EA7002396B7002547A2
:1006AC002383E70003C7170013671700A380E70035
:1006BC0003C76700058B6DDF03C717001377E70FC0
:1006CC00A380E7008280B747004003C70700136789
:1006DC0007012380E700131705012E95418342057E
:1006EC00239CE7004181239EA7002396B700254752
:1006FC002383E70003C7170013671700A380E700E5
:10070C0003C76700058B6DDF03C717001377E70F6F
:10071C00A380E7008280B717004003D5870042050D
:10072C0041819377050491EB9377F5013755E801F7
:10073C00130505803345F50282809377050C13076A
:10074C0000046397E7009377F50137459C1CCDB700
:10075C002165130505D08280814737370040A146BB
:10076C0063C4C700328582800345B740E38EA6FE82
:10077C003385F5000345050085072304A740CDB755
:10078C00411122C406C62A8479372947B307E502EA
:10079C00B2408D83B3D7870222449507B3D7E702C3
:1007AC0037370040C207C1832316F74041018280CE
:1007BC00716541111305052006C6D937B7370040BE
:1007CC00130770F82381E7400D47A381E740130717
:1007DC000004A380E74005472387E740B24041016E
:1007EC00828039713EDA2ED232D436D63AD842DCF7
:1007FC0046DE974700209387278722CC804326CA62
:10080C0006CEAA8409C41C4C99E3228535230C44DA
:10081C0054102686228536C6EF00F017F24062444B
:10082C00D24421618280011126CA4AC806CE22CC4C
:10083C004EC652C4AA842E8901C51C4D91E3ED29E4
:10084C009C4C804499E32685C52997170000938713
:10085C006726631CF402C0408357C400A18BB1C748
:10086C001C48A1C7FD59294A1C4483450900FD17A2
:10087C00B1E91CC463DE07062286A94526854128FA
:10088C00FD576308F502294535A09717000093879B
:10089C0067246314F4008044C1B797170000938752
:1008AC00671FE31BF4FAC04445BFA28526850522C9
:1008BC0055D97D55F2406244D2444249B249224A4C
:1008CC00056182801CC4050963D70700184C63CBF3
:1008DC00E700638945011C401387170018C023806B
:1008EC00B70059B7228626851D20E31F35F7D1B7EF
:1008FC001C401387170018C029472380E70061B7F5
:10090C009737002093874776AA85884329BF011122
:10091C0022CC26CA4AC806CE4EC6AA842E89328458
:10092C0001C51C4D91E3092997170000938787187F
:10093C006319F406C0401C4C1CC48357C400A18B23
:10094C00C9C31C48BDCF1C4808409379F90F1379D3
:10095C00F90F1D8D5C486346F500A2852685752C24
:10096C002DE51C440505FD171CC41C4013871700FE
:10097C0018C0238037015C486389A7008357C400E3
:10098C00858B81CBA9476316F900A2852685712436
:10099C000DEDF24062444A85D2444249B2490561A8
:1009AC008280971700009387E7126314F400804449
:1009BC0059B7971700009387E70DE31EF4F6C04470
:1009CC009DBFA285268521203DDD7D59D9B74111DA
:1009DC00973700209387476926C2844322C44AC0B4
:1009EC0006C62A892E8489C49C4C99E32685A9269F
:1009FC00971700009387070C631CF402C040031781
:100A0C00C40093170701C18393F68700B5EE93F6E4
:100A1C0007019DEEA5472320F90013670704231651
:100A2C00E4007D55B2402244924402494101828047
:100A3C00971700009387070A6314F4008044C1B72A
:100A4C009717000093870705E31BF4FAC04445BFD2
:100A5C00918B8DC74C5889C9930744046384F50066
:100A6C004A859123232A04028357C40023220400BD
:100A7C0093F7B7FD2316F4001C481CC08357C40021
:100A8C0093E787002316F4001C4881EF8357C400BA
:100A9C001307002093F707286385E700A2854A8592
:100AAC00A5218357C40013F7170005C75C482324FE
:100ABC000400B307F0401CCC1C480145A5F7831774
:100ACC00C40013F7070839DF93E707042316F40073
:100ADC0089BF898B014791E3584818C4F1BF83D76C
:100AEC00C500011122CC26CA06CE4AC84EC613F741
:100AFC008700AA842E8471EFD841634DE000B84181
:100B0C00634AE0000145F2406244D2444249B24992
:100B1C000561828058547DD703A904009396370150
:100B2C0023A0040063DD060670488357C400918B34
:100B3C0099C75C401D8E5C5899C33C401D8E5C541B
:100B4C000C50814626858297FD570357C400631DC0
:100B5C00F5009440F54763E8D706B70740208507B2
:100B6C00B3D7D700858BA5C31C48232204001CC017
:100B7C009317370163D80700FD576314F5009C40A9
:100B8C0091E368C84C5823A02401ADDD93074404BD
:100B9C006384F50026850129232A0402A5B70C508D
:100BAC000146854626850297FD572A86E31FF5F6F2
:100BBC009C40A5DF75476385E70059476394E704BC
:100BCC0023A0240181B7136707042316E4007D5585
:100BDC001DBF83A90501E38709F203A905008D8BCD
:100BEC0023A0350133093941014791E3D84918C491
:100BFC00E35A20F11C540C50CA864E8626858297E7
:100C0C006349A0008357C40093E707042316F4003C
:100C1C007DBFAA993309A940E1BF9C49B9CF011105
:100C2C0022CC06CE2A8411C51C4D81E72EC6292262
:100C3C00B245971700009387E7E7639BF5004C409C
:100C4C008397C50095C722856244F240056141BD7A
:100C5C0097170000938707E86394F5000C44CDB711
:100C6C0097170000938707E3E39CF5FC4C44C9BF3E
:100C7C00F240624401450561828001458280411148
:100C8C0022C406C62A842316B5002317C5002320C8
:100C9C000500232205002324050023220506232812
:100CAC000500232A0500232C050021468145130548
:100CBC00C505EFF0EFDF971700009387E7B45CD022
:100CCC0097170000938747B71CD49717000093879A
:100CDC0087BB5CD497170000938747BE00D01CD805
:100CEC00B24022444101828097050000938525F390
:100CFC0089AA411126C2130680069384F5FFB3849A
:100D0C00C4024AC02E8922C406C693854407A12674
:100D1C002A8401CD2320050023222501310508C496
:100D2C00138684068145EFF0AFD82285B240224469
:100D3C0092440249410182801C4DBDE3411106C61B
:100D4C0022C497070000938767FA1CD597170000F9
:100D5C00938707DE9C4323240504232605042328BC
:100D6C0005046314F50085471CCD2A841D2848C052
:100D7C002285052808C422852D2048C448400146F8
:100D8C009145F53D08440546A545D53D48440946E1
:100D9C00C945F53585471CCCB240224441018280BF
:100DAC008280411197170000938787D826C284430D
:100DBC004AC006C69C4C22C42A8999E32685AD3FBD
:100DCC00938484048044DC40FD1763D607009C4068
:100DDC00B9CF8440C5BF0317C40039E7C177850775
:100DEC0023220406232004002322040023240400CD
:100DFC005CC423280400232A0400232C040021466D
:100E0C0081451305C405EFF0AFCA232A0402232C35
:100E1C00040223240404232604042285B240224421
:100E2C0092440249410182801304840671BF9145AA
:100E3C004A85C13588C051FDB1472320F9000144D2
:100E4C00E9BF797122D44AD052CC56CA5AC85EC670
:100E5C0006D626D24ECE2A8AAE8A130485040149C0
:100E6C00054BFD5B09ECB25022544A859254025951
:100E7C00F249624AD24A424BB24B456182800444E9
:100E8C0083294400FD1963D409000040E1BF83D7D6
:100E9C00C400637BFB008397E40063877701A6851E
:100EAC005285829A3369A90093848406E1BF197133
:100EBC00A6DAAE848395E500A2DC86DE328463DCA0
:100ECC00050083D7C40023A0060093F7070885E725
:100EDC00930700401DA0300836C6EF00B023B24681
:100EEC00E34105FE7247BD67F98F7977BA9793B7DF
:100EFC0017009CC2F1BF930700041CC0F650665447
:100F0C00D65401450961828083D7C500011122CCDA
:100F1C0006CE26CA4AC8898B2E8489CF93077404BF
:100F2C001CC01CC885475CC8F2406244D24442498C
:100F3C000561828074003000AA84953FA2452A89FD
:100F4C002685112A01ED8317C40013F7072069FFCA
:100F5C00F19B93E727002316F400C9B7970700000D
:100F6C009387C7D89CD48357C40008C008C893E79C
:100F7C0007082316F400A2475CC8B24791CF83152B
:100F8C00E4002685EF00B01B01C98357C400F19B18
:100F9C0093E717002316F4008357C4003369F90054
:100FAC002316240151B7DDC583A7C5FF411122C407
:100FBC0006C626C21384C5FF63D307003E94AA84D9
:100FCC00EF00D01E973700209387870A9C4391EF40
:100FDC00232204009737002023AC87082244B24018
:100FEC002685924441016F00901C637EF4001440EE
:100FFC003307D4006396E7009843DC43369718C058
:10100C005CC0C9BFBA87D84319C3E37DE4FE9443DF
:10101C003386D700631F86001040B29694C3338684
:10102C00D700E31DC7FA10435843B29694C3D8C3F4
:10103C0075B76375C400B1479CC04DB71040B3067B
:10104C00C4006316D70014435843B29614C058C05A
:10105C00C0C369B78280011126CA93843500F19808
:10106C0006CE22CC4AC84EC6A104B14763F3F404A1
:10107C00B14463E2B4042A89EF0050139387818052
:10108C0098433A8439E09387C1809C4391E781452A
:10109C004A85A92723A6A180A6854A858127FD59C3
:1010AC0063193507B1472320F9004A85EF0030104A
:1010BC0029A0E3D004FCB1471CC10145F2406244B5
:1010CC00D2444249B249056182801C40858F63CF6E
:1010DC000702AD4663F6F6001CC03E9404C031A076
:1010EC005C406313870223A4F1804A85EF00300C27
:1010FC001305B4009307440061993307F5405DDF95
:10110C003A94898F1CC05DBF5CC3C5B72287404031
:10111C0095BF130435007198E30285FCB305A44018
:10112C004A856D2DE31C35FBB5BF1C46FD171CC64F
:10113C0063DA0700184E63C5E700A9476394F5000E
:10114C006FF0EFFC1C422E851387170018C223800A
:10115C00B7008280011122CC26CA4AC84EC652C49E
:10116C0006CE2A89AE893284B304D6007D5A631424
:10117C009400014509A8834504004E864A857537BD
:10118C000504E31645FFF2406244D2444249B24999
:10119C00224A05618280357122CD26CB4AC94EC7C1
:1011AC0006CF52C556C35AC1DEDEE2DCE6DAAA89A6
:1011BC00AE843289368401C51C4D91E3B53E971738
:1011CC0000009387278F639BF40C83A4490083D77B
:1011DC00C400A18BF5C79C48E5C793070002A30484
:1011EC00F1029307000302D22305F10222C6930BEE
:1011FC005002971A0000938AEA8F054C294B4A84B7
:10120C008347040099C36390770FB30C2441638D1B
:10121C000C00E6864A86A6854E852D3FFD57630653
:10122C00F51E9256E69636D283470400638F071C50
:10123C00FD571309140002C802CE3ECA02CCA30902
:10124C00010482D483450900154656859927130459
:10125C001900C24759E913F7070109C71307000220
:10126C00A309E10413F7870009C71307B002A30908
:10127C00E104834609001307A0026380E608F247E5
:10128C004A8481462546034704009305140013073E
:10129C0007FD6379E60AB5CA3ECE85A8971700000C
:1012AC00938747836395F40083A489000DB7970750
:1012BC0000009387277EE39CF4F083A4C90001BF50
:1012CC00A6854E85EFF0AFF009D97D55FA406A44FA
:1012DC00DA444A49BA492A4A9A4A0A4BF65B665C8E
:1012EC00D65C0D618280050421BF33055541331551
:1012FC00AC00C98F3EC82289B1B73247930647006C
:10130C00184336C6634907023ACE034704009307D5
:10131C00E002631FF704034714009307A002631B4A
:10132C00F702B2470904138747009C433AC663C1CE
:10133C0007023ECA35A83307E04093E727003ACEB0
:10134C003EC8E1B7B387670385462E84BA9725BF9D
:10135C00FD57C5B7050402CA814681472546034798
:10136C00040093051400130707FD6376E606F1F2FB
:10137C00834504000D461705000013052578112D33
:10138C0011CD97070000938767771D8D9307000495
:10139C00B397A700424505045D8D2AC88345040018
:1013AC001946170500001305A5751309140023042D
:1013BC00B102C5233DC197F7FFFF9387E7C395E7BC
:1013CC004247B2471377071009CF91073EC6925791
:1013DC00D2973ED22DB5B387670385462E84BA9734
:1013EC00BDBF9D07E19BA107D5B77800970600000C
:1013FC00938686D626860C084E8597000000E7005B
:10140C000000FD572A8AE314F5FC83D7C40093F738
:10141C000704E39C07EA125555BD780097060000B7
:10142C00938686D326860C084E85012AD9BF7971FE
:10143C0056CA9C49BA8A984522D426D24ECE52CC52
:10144C0006D64AD05AC85EC6AA892E84B284368A79
:10145C0063D3E700BA879CC00347340419C38507DC
:10146C009CC01C4093F7070281C79C4089079CC015
:10147C000329040013796900631A0900130B940102
:10148C00FD5B5C449840998F634CF9041C40834687
:10149C00340493F70702B336D000A5EB13063404DB
:1014AC00D2854E85829AFD576303F5041C40114684
:1014BC009840998B544481446397C700B384E640A9
:1014CC0063D3040081441C4418486354F700998F7B
:1014DC00BE94014969047D5B63982405014509A804
:1014EC0085465A86D2854E85829A631E75017D5536
:1014FC00B250225492540259F249624AD24A424B97
:10150C00B24B456182800509ADBF3307D400130689
:10151C000003A301C7040347540493871600A29742
:10152C008906A381E7049DBF85462286D2854E8518
:10153C00829AE30E65FB050945B7797122D426D250
:10154C004AD04ECE06D652CC56CA5AC8B68983C695
:10155C0085019307E0063289AA842E84138635040C
:10156C006380F61E63E2D706930730066382F60AA1
:10157C0063EDD700638A061E930780056386F61613
:10158C00930A24042301D40469A8930740066386B4
:10159C00F60093079006E395F6FE1C40084393F67D
:1015AC00070893054500C1C21C410CC363D8070052
:1015BC001307D002B307F040A301E4049706000020
:1015CC0093868654294765A0930730076382F61AE1
:1015DC0063EFD7009307F006638FF60493070007B9
:1015EC00E390F6FA9C4193E707029CC109A8930784
:1015FC0050076382F60493078007E393F6F893078A
:10160C008007A302F4049706000093862651DDA000
:10161C001C43938A2504938647009C4314C323815F
:10162C00F5048547ADA293F607041C410CC3BDDE3F
:10163C00C207C187A5BF0C401C4313F805081385CE
:10164C0047006305080008C39C4339A093F50504C3
:10165C0008C3FDD983D707001307F006638AE60C8D
:10166C00970600009386464A2947A30104044C4080
:10167C000CC463C5050008406D9908C099E3B28A93
:10168C0091CDB28AB3F5E702FD1AB69583C5050074
:10169C002380BA00B3D5E70263F2E70AA147631EC1
:1016AC00F7001C40858B91CB58401C4863C7E70062
:1016BC0093070003A38FFAFEFD1A3306564110C898
:1016CC004E87CA867000A285268595337D5A631491
:1016DC00450D7D55B250225492540259F249624A3A
:1016EC00D24A424B45618280A382D5049706000002
:1016FC00938686410C40084313F805081C411105DC
:10170C006300080208C313F7150001C793E505022F
:10171C000CC04147B9FB0C4093F5F5FD0CC0B1B7BB
:10172C0013F8050408C3E30008FEC207C183E1BF38
:10173C00970600009386463D214705BFAE8799B7B3
:10174C0094411C43CC4913F80608138547006306E3
:10175C00080008C39C438CC301A808C393F6060475
:10176C009C43F5DA2390B70023280400B28A89BF82
:10177C001C43D04181459386470014C383AA0700BC
:10178C005685012C01C53305554148C05C401CC829
:10179C00A301040435B714485686CA852685829958
:1017AC00E30945F31C40898B8DE7B2474844E3536A
:1017BC00F5F23E8505B785465686CA8526858299FB
:1017CC00E30965F1050A5C443247998FE345FAFE5B
:1017DC00E9BF014A930A94017D5BF5B7411122C41C
:1017EC002A842E8523A2018206C63D24FD57631749
:1017FC00F500938741829C4391C31CC0B2402244A4
:10180C0041018280411122C42E848395E50006C6D5
:10181C004522634905007C48AA977CC8B240224403
:10182C00410182808357C4007D777D17F98F231681
:10183C00F400EDB783D7C500011122CC26CA4AC8E3
:10184C004EC606CE93F70710AA842E843289B68929
:10185C0091C78395E5008946014631228357C40020
:10186C007D777D17F98F2316F4008315E40062440D
:10187C00F240CE864A86B24942492685D244056159
:10188C003DA8411122C42E848395E50006C6E128AB
:10189C00FD570357C400631BF500FD77FD17F98F47
:1018AC002316F400B2402244410182808567D98F0F
:1018BC002316F40068C8FDB78395E50005A841110F
:1018CC0022C42A842E85B285368623A2018206C6BE
:1018DC00EFE09FE8FD576317F500938741829C4327
:1018EC0091C31CC0B240224441018280411122C4E8
:1018FC002A842E8523A2018206C6CD20FD576317AC
:10190C00F500938741829C4391C31CC0B240224492
:10191C0041018280411122C42A842E85B28523A2E2
:10192C00018206C6D120FD576317F50093874182CB
:10193C009C4391C31CC0B24022444101828041119E
:10194C0022C42A842E8523A2018206C66520FD5757
:10195C006317F500938741829C4391C31CC0B2402E
:10196C00224441018280411122C42A842E85B285F1
:10197C00368623A2018206C66120FD576317F50047
:10198C00938741829C4391C31CC0B24022444101C5
:10199C00828093F5F50F2A966314C5000145828069
:1019AC0083470500E38DB7FE0505FDB78280828075
:1019BC00411122C42A842E85B285368623A2018247
:1019CC0006C6A920FD576317F500938741829C43F7
:1019DC0091C31CC0B2402244410182809307800510
:1019EC0023A2F1827D5582809307800523A2F18288
:1019FC007D5582809307800523A2F1820145828068
:101A0C009307800523A2F1827D5582809307800580
:101A1C0023A2F1827D558280938701819C4391C7DB
:101A2C003E9523A8A1803E858280938781823E9536
:101A3C0023A8A1803E858280537461727420404338
:101A4C0068697049443D253032580A00312E737054
:101A5C006930206D756C206D6173746572206D6FCB
:101A6C0064652073656E642064617461202E2E2E73
:101A7C0000000000454E44202E2E2E005EEAFFFF93
:101A8C0086EAFFFFAEEAFFFFC6EAFFFFE0EAFFFFD0
:101A9C00000000000000000000000000000000003A
:101AAC00000000000000000000000000000000002A
:101ABC00000000000000000000000000000000001A
:101ACC00000000000000000000000000000000000A
:101ADC0000000000000000000000000000000000FA
:101AEC0000000000000000000000000000000000EA
:101AFC00232D302B20000000686C4C006566674578
:101B0C0046470000303132333435363738394142AC
:101B1C00434445460000000030313233343536370B
:0C1B2C00383961626364656600000000E7
:041B38001040002039
:101B3C000102030405060708090001020304050657
:101B4C0000000000BC1A0000DC1A00009C1A000007
:101B5C000000000000000000000000000000000079
:101B6C000000000000000000000000000000000069
:101B7C000000000000000000000000000000000059
:101B8C000000000000000000000000000000000049
:101B9C000000000000000000000000000000000039
:081BAC001040002000000000C1
:00000001FF
