:100000006F004000975100209381C1851781002027
:10001000130141FF1305400A973500209385857E23
:1000200017460020130606A563FAC50083220500C3
:1000300023A0550011059105E3EAC5FE1725000030
:10004000130585AA974500209385C5FB13868180FB
:1000500063FAC5008322050023A055001105910510
:10006000E3EAC5FE138581809385C19A6377B50065
:10007000232005001105E36DB5FE9302800873A0EF
:100080000230973200209382E27793E2120073905D
:1000900052309702000093824235739012347300FD
:0400A000203000000C
:1000A40000000000000000006F0080086F002020A6
:1000B400000000000000000000000000000000003C
:1000C400000000000000000000000000000000002C
:1000D4006F004006000000006F00E0050000000013
:1000E4006F00C0076F0060056F0040056F002005BA
:1000F4006F0000056F00E0046F00C0040000000002
:100104006F0020086F0040046F0020046F0000049B
:100114006F00E0036F00C003000000006F00600385
:100124006F0040036F0020036F0000036F00E002C4
:1001340001A001A001A001A001A001A001A001A0B3
:1001440001A001A001A001A001A001A001A001A0A3
:1001540001A001A001A001A001A001A03727004037
:1001640083476700858B81CF85472303F7003717C3
:1001740000408327870CA166B58F2324F70C7300F6
:100184002030B727004003C76740218B1DC303C736
:1001940027401305A0021377770F2381E7402147F7
:1001A4002383E74085472384F18097D0FFDFE780EE
:1001B400C0F173002030B717004093067005238008
:1001C400D704130780FA2380E70403C6B704137621
:1001D400F60DA385C704238007041376050225C6FC
:1001E40003C6A700118A0DE22380D7042380E70405
:1001F40003C7A700136747002385E7009307004B55
:1002040001000100FD17EDFFB717004093067005CC
:100214002380D704130780FA2380E7047D8923947D
:10022400A7000100010001000100238007042380CE
:10023400D7042380E704854637270040A303D780EB
:10024400238007048280137605046DDE03C6A700AD
:10025400418A0DE22380D7042380E70403C7A70063
:10026400136707012385E7009307007D0100010060
:10027400FD17EDFFB7170040930670052380D704E0
:10028400130780FA7D892380E7041365050423940A
:10029400A70001000100010001002380070423805E
:1002A400D7042380E7048D463727004041BFB717A2
:1002B4000040130770052380E704130780FA2380A6
:1002C400E7047D572396E70203C767041367170003
:1002D4002383E7042380070401A0BD473305F50207
:1002E40001007D1575FD8280411122C426C206C617
:1002F400AA84014463179400B24022449244410109
:10030400828005041305803E4204C13F4180DDB76D
:100314003D432A876373C3029377F700BDEFADE5CE
:10032400937606FF3D8ABA960CC34CC30CC74CC7E0
:100334004107E36BD7FE11E28280B306C3408A060D
:100344009702000096966780A6002307B700A306CD
:10035400B7002306B700A305B7002305B700A3041D
:10036400B7002304B700A303B7002303B700A30215
:10037400B7002302B700A301B7002301B700A3000D
:10038400B7002300B700828093F5F50F939685009C
:10039400D58D93960501D58D61B793962700970265
:1003A400000096968682E78086FA9680C1171D8F94
:1003B4003E96E374C3F8A5B7371700408327870A2E
:1003C400411106C693E707202324F70A8545130540
:1003D40000101D2A8D45130500203D22B240410125
:1003E400F9A601111305800406CE22CC26CA3714BF
:1003F40000404AC84EC697300020E780C0516D3F88
:1004040083451404171500001305855FB7240040C5
:10041400C12E8327840C21678D45D98F2324F40CA6
:100424002165712237955B00130505D8F52483C730
:10043400240037E900E03707400093E717002381E1
:10044400F400C1672320F9108327C40C8D453705B8
:100454004000D98F2326F40C992A81450145212691
:10046400856737370040938607772326D7C093875D
:1004740087BB2328F7C085450145E92A8327C40A99
:1004840085451305004093E707402326F40AAD2869
:100494000545692C1384819A974500209385C5BD31
:1004A400FD5713160401C20523A6F4408146418278
:1004B400C1810545492C83C724401387818093E774
:1004C40087002381F440B70700012320F9108347F4
:1004D400070093F7F70FE5DF370900022384018053
:1004E40097440020938444B97D1997190000938997
:1004F40069528C404E859104B3F52501D524E39AC5
:1005040084FE2945392E01A0914763EEB7021717DF
:1005140000001307A7508A05BA959C41BA978287B1
:10052400B717004003A7470B1345F5FF698F23AAAC
:10053400E70A03A7070B698F23A8E70A03A7070A9B
:10054400798D23A0A70A8280B717004083A6470BA2
:100554001347F5FFF98E23AAD70A83A6070B558DF7
:1005640023A8A70A83A6070A758F23A0E70A828017
:10057400B717004003A7470B498F23AAE70A03A72D
:10058400070B1345F5FF45BFB717004083A6470B7C
:100594001347F5FF758F23AAE70A03A7070A598DA6
:1005A4004DB7B717004003A7470B498FEDB79147E5
:1005B40063EEB70217170000130787478A05BA9539
:1005C4009C41BA978287B717004003A7470D13458C
:1005D400F5FF698F23AAE70C03A7070D698F23A8EA
:1005E400E70C03A7070C798D23A0A70C8280B7170B
:1005F400004083A6470D1347F5FFF98E23AAD70CB5
:1006040083A6070D558D23A8A70C83A6070C758F09
:1006140023A0E70C8280B717004003A7470D498F3A
:1006240023AAE70C03A7070D1345F5FF45BFB7172A
:10063400004083A6470D1347F5FF758F23AAE70CE7
:1006440003A7070C598D4DB7B717004003A7470DF3
:10065400498FEDB7B7170040130770052380E704EF
:10066400130780FA2380E70483C6A7000DE513F778
:10067400C5011347F7FF758F2385E70003C7F7020A
:100684008D8993C5F5FFF98DA387B702B71700408D
:10069400238007048280E205E18513F7C501558FA5
:1006A4002385E70003C7F7028D89D98DF1BFB717FA
:1006B400004003D58700420541819377050491EBFF
:1006C4009377F5013755E801130505803345F502A5
:1006D40082809377050C130700046397E7009377F0
:1006E400F50137459C1CCDB72165130505D08280E3
:1006F400814737370040A14663C4C70032858280F2
:100704000345B740E38EA6FE3385F5000345050097
:1007140085072304A740CDB7B7270040C8C70947BA
:100724002380E70011472380E70082801A05B7275A
:1007340000400947136555002380E7401375F50F02
:100744002380A7408280B727004001E5A3800740AB
:100754008280239CB740239EC740154791E20547FA
:10076400A380E740828012059A054D8D1365C5006C
:100774001375F50FB73700402380A7C0828041115D
:1007840022C406C62A8425372947B307E502B240A6
:100794008D83B3D7870222449507B3D7E70237374F
:1007A4000040C207C1832316F7404101828071656E
:1007B40041111305052006C6D937B7370040130782
:1007C40070F82381E7400D47A381E7401307000435
:1007D400A380E74005472387E740B2404101828078
:1007E40039713EDA2ED232D436D63AD842DC46DEDD
:1007F400974700209387C78622CC804326CA06CE1B
:10080400AA8409C41C4C99E32285F5280C4454108D
:100814002686228536C66526F2406244D24421618A
:1008240082800111974700209387878322CC8043DD
:1008340006CEAA8519C41C4C89E72AC62285E12064
:10084400B245104422856244F24005616F00D01B1A
:10085400411122C406C62A842316B5002317C500F5
:100864002320050023220500232405002322050656
:1008740023280500232A0500232C05002146814551
:100884001305C505713497170000938707A35CD03F
:1008940097170000938767A51CD4971700009387C8
:1008A400A7A95CD497170000938767AC00D01CD825
:1008B400B240224441018280971500009385E5E10E
:1008C400B9A2411126C2130680069384F5FFB384AE
:1008D400C4024AC02E8922C406C693854407712ADD
:1008E4002A8419C92320050023222501310508C4BF
:1008F400138684068145293C2285B24022449244D1
:100904000249410182801C4DBDE3411106C622C447
:1009140097070000938787FA1CD5971700009387E1
:10092400271C9C43232405042326050423280504AB
:100934006314F50085471CCD2A841D2848C02285F0
:10094400052808C422852D2048C448400146914505
:10095400013708440546A545E53D48440946C945CF
:10096400C53D85471CCCB24022444101828082802F
:100974004111971700009387A71626C284434AC0E3
:1009840006C69C4C22C42A8999E32685AD3F9384EC
:1009940084048044DC40FD1763D607009C40B1CF3B
:1009A4008440C5BF0317C40031E7C17785072322FC
:1009B40004062320040023220400232404005CC42E
:1009C40023280400232A0400232C04002146814503
:1009D4001305C405353A232A0402232C04022324D4
:1009E4000404232604042285B2402244924402498A
:1009F400410182801304840679BF91454A85D1352B
:100A040088C059FDB1472320F9000144E9BF797139
:100A140022D44AD052CC56CA5AC85EC606D626D26A
:100A24004ECE2A8AAE8A130485040149054BFD5B28
:100A340009ECB25022544A8592540259F249624A4E
:100A4400D24A424BB24B456182800444832944001C
:100A5400FD1963D409000040E1BF83D7C400637B60
:100A6400FB008397E40063877701A6855285829A09
:100A74003369A90093848406E1BF011126CA9384D3
:100A84003500F19806CE22CC4AC84EC6A104B1471F
:100A940063F5F404B14463E4B4042A89EF00D05D3F
:100AA4009387C18098433A8429E4938701819C43C6
:100AB40099E781454A85EF00607D23A8A180A6853A
:100AC4004A85EF00A07CFD5963193507B1472320FF
:100AD400F9004A85EF00705A29A0E3DE04FAB14711
:100AE4001CC10145F2406244D2444249B249056105
:100AF40082801C40858F63CF0702AD4663F6F60003
:100B04001CC03E9404C031A05C406313870223A63A
:100B1400F1804A85EF0070561305B4009307440032
:100B240061993307F5405DDF3A94898F1CC05DBF3E
:100B34005CC3C5B72287404085BF13043500719854
:100B4400E30285FCB305A4404A858927E31C35FBF1
:100B5400B5BF1C46FD171CC663DA0700184E63C5F3
:100B6400E700A9476394F5006F0090001C422E85AE
:100B74001387170018C22380B7008280011122CC8A
:100B840026CA4AC84EC652C406CE2A89AE893284C1
:100B9400B304D6007D5A63149400014509A8834523
:100BA40004004E864A8575370504E31645FFF24076
:100BB4006244D2444249B249224A05618280357175
:100BC40022CD26CB4AC94EC706CF52C556C35AC1F9
:100BD400DEDEE2DCE6DAAA89AE843289368401C537
:100BE4001C4D91E30D33971700009387A7E7639C8F
:100BF400F40C83A4490083D7C400A18BFDC79C488F
:100C0400EDC793070002A304F1029307000302D285
:100C14002305F10222C6930B5002971A0000938A0F
:100C24006AE8054C294B4A848347040099C36390BE
:100C3400770FB30C2441638D0C00E6864A86A685A3
:100C44004E852D3FFD576308F51E9256E69636D223
:100C5400834704006381071EFD571309140002C86B
:100C640002CE3ECA02CCA309010482D48345090002
:100C740015465685EF00B03E13041900C24751E9EA
:100C840013F7070109C713070002A309E10413F7C7
:100C9400870009C71307B002A309E10483460900CA
:100CA4001307A002638FE606F2474A84814625466D
:100CB4000347040093051400130707FD6378E60A4D
:100CC400ADCA3ECEBDA0971700009387A7DB6395FE
:100CD400F40083A4890005B797170000938787D68B
:100CE400E39BF4F083A4C90039B7A6854E858D2F04
:100CF40009D97D55FA406A44DA444A49BA492A4A2C
:100D04009A4A0A4BF65B665CD65C0D6182800504E8
:100D140021BF330555413315AC00C98F3EC8228924
:100D2400B1B7324793064700184336C663490702F2
:100D34003ACE034704009307E002631FF704034716
:100D440014009307A002631BF702B2470904138738
:100D540047009C433AC663C107023ECA35A833071D
:100D6400E04093E727003ACE3EC8E1B7B387670374
:100D740085462E84BA972DBFFD57C5B7050402CA10
:100D84008146814725460347040093051400130751
:100D940007FD6378E606F1F2834504000D46171556
:100DA40000001305A5D0EF00902B11CD971700007C
:100DB4009387C7CF1D8D93070004B397A7004245BF
:100DC40005045D8D2AC883450400194617150000E3
:100DD400130505CE130914002304B102EF003028D3
:100DE4003DC197F7FFFF9387A72195E74247B24795
:100DF4001377071009CF91073EC69257D2973ED278
:100E04001DB5B387670385462E84BA97ADBF9D078A
:100E1400E19BA107D5B7780097060000938646D6D4
:100E240026860C084E8597000000E7000000FD5759
:100E34002A8AE314F5FC83D7C40093F70704E39AE2
:100E440007EA125545BD780097060000938646D3FD
:100E540026860C084E85012AD9BF797156CA9C4949
:100E6400BA8A984522D426D24ECE52CC06D64AD03F
:100E74005AC85EC6AA892E84B284368A63D3E70030
:100E8400BA879CC00347340419C385079CC01C401F
:100E940093F7070281C79C4089079CC0032904007B
:100EA40013796900631A0900130B9401FD5B5C4418
:100EB4009840998F634CF9041C408346340493F79B
:100EC4000702B336D000A5EB13063404D2854E8551
:100ED400829AFD576303F5041C4011469840998B90
:100EE400544481446397C700B384E64063D3040049
:100EF40081441C4418486354F700998FBE940149F7
:100F040069047D5B63982405014509A885465A86D2
:100F1400D2854E85829A631E75017D55B250225446
:100F240092540259F249624AD24A424BB24B456149
:100F340082800509ADBF3307D40013060003A30163
:100F4400C7040347540493871600A2978906A38114
:100F5400E7049DBF85462286D2854E85829AE30E9C
:100F640065FB050945B7797122D426D24AD04ECE05
:100F740006D652CC56CA5AC8B68983C68501930789
:100F8400E0063289AA842E84138635046380F61E13
:100F940063E2D706930730066382F60A63EDD7004F
:100FA400638A061E930780056386F616930A240453
:100FB4002301D40469A8930740066386F6009307C7
:100FC4009006E395F6FE1C40084393F60708930544
:100FD4004500C1C21C410CC363D807001307D002EB
:100FE400B307F040A301E404971600009386C6AC4F
:100FF400294765A0930730076382F61A63EFD70089
:101004009307F006638FF60493070007E390F6FA5C
:101014009C4193E707029CC109A893075007638288
:10102400F60493078007E393F6F893078007A30277
:10103400F40497160000938666A9DDA01C43938AE6
:101044002504938647009C4314C32381F5048547F4
:10105400ADA293F607041C410CC3BDDEC207C187D1
:10106400A5BF0C401C4313F805081385470063050E
:10107400080008C39C4339A093F5050408C3FDD9AF
:1010840083D707001307F006638AE60C971600005F
:10109400938686A22947A30104044C400CC463C56B
:1010A400050008406D9908C099E3B28A91CDB28ACF
:1010B400B3F5E702FD1AB69583C505002380BA008F
:1010C400B3D5E70263F2E70AA147631EF7001C40A9
:1010D400858B91CB58401C4863C7E70093070003F6
:1010E400A38FFAFEFD1A3306564110C84E87CA86EE
:1010F4007000A285268595337D5A6314450D7D5570
:10110400B250225492540259F249624AD24A424B92
:1011140045618280A382D504971600009386C69900
:101124000C40084313F805081C411105630008022C
:1011340008C313F7150001C793E505020CC0414726
:10114400B9FB0C4093F5F5FD0CC0B1B713F80504D9
:1011540008C3E30008FEC207C183E1BF971600007D
:1011640093868695214705BFAE8799B794411C4362
:10117400CC4913F80608138547006306080008C322
:101184009C438CC301A808C393F606049C43F5DA78
:101194002390B70023280400B28A89BF1C43D0419E
:1011A40081459386470014C383AA07005685452DBD
:1011B40001C53305554148C05C401CC8A301040463
:1011C40035B714485686CA8526858299E30945F3BE
:1011D4001C40898B8DE7B2474844E353F5F23E85C2
:1011E40005B785465686CA8526858299E30965F141
:1011F400050A5C443247998FE345FAFEE9BF014A88
:10120400930A94017D5BF5B7011122CC06CE2A84A2
:1012140009C91C4D99E732C62EC4EFF0CFEE324611
:10122400A245971700009387E7836315F6025040A1
:101234001C46FD171CC663DF0702184E63C7E70090
:1012440093F7F50F29476397E70222856244F2403A
:10125400056139AA971700009387C7826314F600C3
:101264001044F9B7970700009387C77DE312F6FC93
:1012740050447DBF1C4213F5F50F1387170018C2A5
:101284002380B700F240624405618280411122C488
:101294002A842E8523A4019A06C6EF000074FD5704
:1012A4006317F5009387819A9C4391C31CC0B24095
:1012B400224441018280411122C42E848395E50099
:1012C40006C6B92D634905007C48AA977CC8B2407C
:1012D4002244410182808357C4007D777D17F98FB2
:1012E4002316F400EDB783D7C500011122CC26CA1A
:1012F4004AC84EC606CE93F70710AA842E843289B4
:10130400B68991C78395E500894601460529835727
:10131400C4007D777D17F98F2316F4008315E4004C
:101324006244F240CE864A86B24942492685D24476
:10133400056101A2411122C42E848395E50006C6ED
:10134400F52EFD570357C400631BF500FD77FD1709
:10135400F98F2316F400B24022444101828085674C
:10136400D98F2316F40068C8FDB78395E50011A44E
:10137400011122CC26CA4AC806CE4EC6AA842E899A
:10138400328409C51C4D99E3EFF0EFD797070000AD
:101394009387476D6319F406C0401C4C1CC48357E3
:1013A400C400A18BC9C31C48BDCF1C480840937915
:1013B400F90F1379F90F1D8D5C486346F500A2857A
:1013C4002685112E2DE51C440505FD171CC41C4063
:1013D4001387170018C0238037015C486389A7006E
:1013E4008357C400858B81CBA9476316F900A28576
:1013F4002685D5240DEDF24062444A85D244424903
:10140400B24905618280970700009387A767631438
:10141400F400804459B7970700009387A762E31E3E
:10142400F4F6C0449DBFA28526851D283DDD7D5967
:10143400D9B7411122C42A842E85B285368623A4C5
:10144400019A06C6EFF0CFAAFD576317F5009387FC
:10145400819A9C4391C31CC0B240224441018280C2
:101464004111973700209387A7BF26C2844322C423
:101474004AC006C62A892E8491C49C4C81E72685DD
:10148400EFF06FC8970700009387C75D631CF402F1
:10149400C0400317C40093170701C18393F6870064
:1014A400B5EE93F607019DEEA5472320F9001367D7
:1014B40007042316E4007D55B240224492440249B5
:1014C40041018280970700009387C75B6314F4008F
:1014D4008044C1B7970700009387C756E31BF4FA0B
:1014E400C04445BF918B8DC74C5889C993074404A8
:1014F4006384F5004A855926232A04028357C400CD
:101504002322040093F7B7FD2316F4001C481CC0E3
:101514008357C40093E787002316F4001C4881EF27
:101524008357C4001307002093F707286385E70057
:10153400A2854A8571248357C40013F7170005C791
:101544005C4823240400B307F0401CCC1C4801452C
:10155400A5F78317C40013F7070839DF93E70704D7
:101564002316F40089BF898B014791E3584818C4B6
:10157400F1BF411122C42A842E8523A4019A06C6F0
:101584003929FD576317F5009387819A9C4391C3CA
:101594001CC0B24022444101828083D7C50001119E
:1015A40022CC26CA06CE4AC84EC613F78700AA84A0
:1015B4002E8471EFD841634DE000B841634AE000E6
:1015C4000145F2406244D2444249B24905618280F5
:1015D40058547DD703A904009396370123A004002F
:1015E40063DD060670488357C400918B99C75C403D
:1015F4001D8E5C5899C33C401D8E5C540C50814632
:1016040026858297FD570357C400631DF500944057
:10161400F54763E8D706B70740208507B3D7D70057
:10162400858BA5C31C48232204001CC093173701D3
:1016340063D80700FD576314F5009C4091E368C824
:101644004C5823A02401ADDD930744046384F500C2
:1016540026852D24232A0402A5B70C50014685466D
:1016640026850297FD572A86E31FF5F69C40A5DFE1
:1016740075476385E70059476394E70423A0240171
:1016840081B7136707042316E4007D551DBF83A9A2
:101694000501E38709F203A905008D8B23A0350119
:1016A40033093941014791E3D84918C4E35A20F179
:1016B4001C540C50CA864E86268582976349A00026
:1016C4008357C40093E707042316F4007DBFAA9947
:1016D4003309A940E1BF9C49A5C3011122CC06CE20
:1016E4002A8419C51C4D89E72EC6EFF0CFA1B24557
:1016F4009707000093870737639BF5004C40839757
:10170400C50095C722856244F240056179B5970703
:101714000000938727376394F5000C44CDB79707EF
:10172400000093872732E39CF5FC4C44C9BFF24088
:10173400624401450561828001458280411122C4D1
:101744002A842E85B285368623A4019A06C6952C52
:10175400FD576317F5009387819A9C4391C31CC07E
:10176400B2402244410182801971A6DAAE84839585
:10177400E500A2DC86DE328463DC050083D7C40086
:1017840023A0060093F707089DE39307004015A0E4
:10179400300836C6652AB246E34205FE7247BD6785
:1017A400F98F7977BA9793B717009CC2F9BF93075B
:1017B40000041CC0F6506654D65401450961828069
:1017C40083D7C500011122CC06CE26CA4AC8898B0C
:1017D4002E8489CF930774041CC01CC885475CC839
:1017E400F2406244D2444249056182807400300070
:1017F400AA849D3FA2452A892685EFF00FA801ED12
:101804008317C40013F7072061FFF19B93E72700B8
:101814002316F400C1B797F7FFFF9387270A9CD4D8
:101824008357C40008C008C893E707082316F400C8
:10183400A2475CC8B24789CF8315E4002685252AD0
:1018440001C98357C400F19B93E717002316F400E2
:101854008357C4003369F9002316240151B793F563
:10186400F50F2A966314C50001458280834705005D
:10187400E38DB7FE0505FDB782808280CDC183A7C5
:10188400C5FF411122C406C626C21384C5FF63D313
:1018940007003E94AA84CD379387C1809C4399EB7B
:1018A4002322040023A681802244B2402685924448
:1018B4004101E1B7637EF40014403307D40063961A
:1018C400E7009843DC43369718C05CC0E1BFBA8791
:1018D400D84319C3E37DE4FE94433386D700631FE2
:1018E40086001040B29694C33386D700E31EC7FA2D
:1018F40010435843B29694C3D8C37DB76375C400EC
:10190400B1479CC055B71040B306C4006316D70056
:1019140014435843B29614C058C0C0C371B78280F0
:10192400411122C42A842E85B285368623A4019AC5
:1019340006C67128FD576317F5009387819A9C4367
:1019440091C31CC0B240224441018280411122C48F
:101954002A842E85B28523A4019A06C6B920FD5790
:101964006317F5009387819A9C4391C31CC0B240CE
:10197400224441018280411122C42A842E8523A459
:10198400019A06C60D28FD576317F5009387819ABF
:101994009C4391C31CC0B2402244410182809307FE
:1019A400800523A4F19A7D5582809307800523A4A2
:1019B400F19A7D5582809307800523A4F19A01450D
:1019C40082809307800523A4F19A7D558280930732
:1019D400800523A4F19A7D558280938741819C439D
:1019E40091C73E9523AAA1803E8582809387C19AA0
:1019F4003E9523AAA1803E858280000053746172C3
:101A04007420404368697049443D253032580A00C7
:101A14002530386C6420000008EBFFFF30EBFFFF3B
:101A240058EBFFFF70EBFFFF8AEBFFFF9AEBFFFF22
:101A3400C2EBFFFFEAEBFFFF02ECFFFF1CECFFFF32
:101A44000000000000000000000000000000000092
:101A54000000000000000000000000000000000082
:101A64000000000000000000000000000000000072
:101A74000000000000000000000000000000000062
:101A84000000000000000000000000000000000052
:101A94000000000000000000000000000000000042
:101AA400232D302B20000000686C4C0065666745D0
:101AB4004647000030313233343536373839414205
:101AC4004344454600000000303132333435363764
:0C1AD40038396162636465660000000040
:041AE00000400020A2
:101AE40000000000641A0000841A0000441A000078
:101AF40000000000000000000000000000000000E2
:101B040000000000000000000000000000000000D1
:101B140000000000000000000000000000000000C1
:101B240000000000000000000000000000000000B1
:101B340000000000000000000000000000000000A1
:081B4400004000200000000039
:00000001FF
