:100000006F004000975100209381C1851781002027
:10001000130141FF13054013973500209385857E1A
:10002000174600201306268163FAC50083220500C7
:1000300023A0550011059105E3EAC5FE1755000000
:100040001305853B974500209385C5FB13860183E7
:1000500063FAC5008322050023A055001105910510
:10006000E3EAC5FE13850183938581096377B500B3
:10007000232005001105E36DB5FE9302800873A0EF
:100080000230970200009382220293E212007390E2
:10009000523097120000938262AD73901234730055
:0400A000203000000C
:1000A40000000000000000006F1010176F10F01621
:1000B400000000000000000000000000000000003C
:1000C400000000000000000000000000000000002C
:1000D4006F10D014000000006F10701400000000B6
:1000E4006F1010146F10F0136F10D0136F10B01343
:1000F4006F1090136F1070136F10501300000000F6
:100104006F10F0126F10D0126F10B0126F109012A7
:100114006F1070126F105012000000006F10F01179
:100124006F10D0116F10B0116F1090116F1070110B
:100134000E0501007D1575FD8280411122C426C281
:1001440006C6AA84014463179400B2402244924430
:100154004101828005041305803E4204D13F418061
:02016400DDB705
:100168003D432A876373C3029377F700BDEFADE57C
:10017800937606FF3D8ABA960CC34CC30CC74CC78E
:100188004107E36BD7FE11E28280B306C3408A06BB
:100198009702000096966780A6002307B700A3067B
:1001A800B7002306B700A305B7002305B700A304CB
:1001B800B7002304B700A303B7002303B700A302C3
:1001C800B7002302B700A301B7002301B700A300BB
:1001D800B7002300B700828093F5F50F939685004A
:1001E800D58D93960501D58D61B793962700970213
:1001F800000096968682E78086FA9680C1171D8F42
:100208003E96E374C3F8A5B701478147AD46B305E9
:10021800E50083C50500139677008583AE97B297EE
:10022800050793F7F70FE314D7FE3E8582803971EF
:1002380026DA4ED652D456D25AD05ECE62CC06DEDC
:1002480022DC4AD8AA898144130B500E130AF00FF6
:10025800954B194CC14A83C70900638C671385E322
:1002680093E40408F250625426854259D254B25994
:10027800225A925A025BF24B624C2161828083C7F8
:10028800B900138717FF63060710E1176383071088
:10029800EDE41384051E3D494E852EC6B537B2459B
:1002A80097470020938747DF834604000347B4003D
:1002B8001386B6F14517133717003336C000718F10
:1002C80069CB0347D4006316A70C01461318160020
:1002D8002298034728008348180003D807002207FC
:1002E8003367170101CB63070800630547016312F1
:1002F800070B89070506E31B76FD01461318160050
:1003080022980347F8008348E80003D8070022072B
:100318003367170101CB6307080063054701631AB8
:10032800070789070506E31B86FD0347D401034633
:10033800C4012207518F03D6070019C611C76305E8
:1003480047016318E60489070347F4010346E401FB
:100358002207518F03D6070019C711C66305470145
:100368006319C702890793F60604E39D06EE631D29
:1003780009001384051E3D4905BF1389F4FF13794D
:10038800F90F138409FE09BF7D191379F90F0114B8
:1003980021BF850493F4F40F93890902E39D54EB7C
:1003A8009304F00FC1B54111138681F226C24AC0E9
:1003B80006C62A8922C481471307F00FB2841305A1
:1003C800C0051308F00293050004B386C70083C66E
:1003D800060013F4F70FA1CA6385A600638306011C
:1003E8003A848507639FB70211C88947631FF402DF
:1003F80003C791F29307A003631DF7029307F00266
:100408002394F1F2EF20502B930710046313F500A7
:10041800014523008900B240224492440249410127
:10042800828022875DB73A84C1B79307F00FE30152
:10043800F4FEB387840023800700EF20F02701CD66
:10044800930710046313F5000145A2949307C005B0
:100458002380F4007DBF1305300BC5BF357152C52D
:1004680006CF22CD26CB4AC94EC756C35AC1DEDEB7
:10047800E2DCE6DAEAD8EED6EF10007F138781F2E5
:100488008147930600043A8AB385E70083C50500CF
:1004980010103E962300B6008507E397D7FE130594
:1004A800F10111372A891DC11304E00F2285FA4092
:1004B8006A44DA444A49BA492A4A9A4A0A4BF65BD4
:1004C800665CD65C465DB65D0D618280138481AA48
:1004D80097450020938505C39557174700202303A8
:1004E800F7C2814D814BA28A2E8B130CF00FA28C80
:1004F8002E8D8547850B2384F1F22EC623A681F223
:1005080093C41D00EF30A058C20B83C981F293F445
:10051800F40F93DB0B016386090CB2452285013B7E
:1005280063078509BD479379F50063ECA70A8346FD
:10053800F10116052A94938716006391860BD297CA
:100548000147930500022146B306E40083C606006E
:100558006385B6002380D70085070507E316C7FE25
:1005680083468400130700026387E6001307E0024E
:100578002380E70085072147930500022D46B3062F
:10058800E40083C606006385B6002380D70085078C
:100598000507E316C7FEEF20707BEF30C0112A84F1
:1005A80017550000130585C9EF30102B01B7854793
:1005B8006386FD006A84E685A68D25BF6684EA8584
:1005C800E5BF981033062701034606FCB3062A0147
:1005D800130719002380C6001379F70FE313F9FEF8
:1005E800B9BFEF20B07681471307000410103E967C
:1005F80003460600B306FA0085072380C600E39782
:10060800E7FE93041003930CE007130CA0031304F4
:10061800100319A805091379F90F6319890105044D
:100628001374F40F630D8429130910038347F10130
:10063800D297A383270123839701A382870023826C
:100648009700EF20700779D5EF30E0062A84E31F82
:1006580005E48147130700043306FA000346060041
:100668001410BE962380C6008507E397E7FE13059E
:10067800F101153BFD1B23A471F3EF30203D2A84C3
:10068800E31605E285472384F1F223A651F3EF3000
:1006980000402A84E31C05E0974700209387C79F02
:1006A8003E869306500383D507001307140013777B
:1006B800F70F89C589073A84E317D7FE9307140013
:1006C80093F7F70F93065003FD556390D720B5476E
:1006D8003359F4023374F4021379F90F01C405098C
:1006E8001379F90F4E991379F90FBD4763E8271F5E
:1006F80013145900B3848A0001145694939759002F
:10070800D69703C7C70026852386E40003C7D7000A
:10071800A386E40003D7E7002397E40003D7070183
:100728002398E40003D727012399E40003D747015E
:10073800239AE40003D76701239BE40003D78701CA
:10074800239CE40003D7A701239DE400D84FD8CC0D
:1007580003C7B700A385E40003C707002380E400AC
:1007680003C71700A380E40003C727002381E40020
:1007780003C73700A381E40003C747002382E400CE
:1007880003C75700A382E40003C767002383E4007C
:1007980003C77700A383E40003C787002384E4002A
:1007A80003C79700A384E40083C7A7002385F40048
:1007B800A13CC14763F0273B974700209387C78D2B
:1007C80005473D46451983D607002300E400A305E5
:1007D800C400A300D400A1822301D40083D627003B
:1007E80023060400A306A400A301D400A1822302C7
:1007F800D40083D6470005071377F70FA302D40068
:10080800A1822303D40083D667000114E907A30358
:10081800D402A1822304D40283D6E7FEA304D4021F
:10082800A1822305D40283D607FF2307D402A1821D
:10083800A307D40283D627FF2308D402A182A308E2
:10084800D40283D647FF2309D402A182A309D40284
:1008580083D667FF230AD402A182A30AD40283D6CF
:1008680087FF230BD402A182A30BD40283D6A7FF50
:10087800230D0402A30D0402230CD402A182A30CAD
:10088800D40283C6C7FF230ED40283D6C7FFA18232
:10089800A30ED40283C6E7FF230FD40283D6E7FF53
:1008A800A182A30FD402E31027F3138481C841491E
:1008B800054C330CEC40330939413D4DEDA8850416
:1008C80093F4F40FE39584D5C5B6139717003297C0
:1008D80085072310B70093F7F70FC5BBC147630B14
:1008E800F90013145900130404E0B3048B00011435
:1008F8005A9429B5974400209384C480138481C8EE
:10090800F5BB2300E400A3017400A3025400A30371
:10091800F401A304E4012307D4012308C401230933
:100928006400230A1401230B0401230CB400230ED2
:10093800C400230FD40093D3830093D2820093DFA3
:100948008F00135F8F0093DE8E00135E8E001353AB
:10095800830093D8880013588800A1812182A1823E
:100968000507A300B4012301340123027400230303
:1009780054002304F4012305E401A305A40123067C
:100988000400A306A400A307D401A308C401A30973
:100998006400A30A1401A30B0401A30CB400230DE3
:1009A8000400A30D0400A30EC400A30FD400E9079C
:1009B80001141377F70F83D90700B30C870193FC51
:1009C800FC0F93FDF90F83D3270083D2470083DF01
:1009D800670003DF870083DEA70003DEC70003D3B9
:1009E800E70083D8070103D8270183D5470103D639
:1009F800670183D6870193D98900E3942CF1BD4719
:100A080013670704A3017400A302540093D383005F
:100A180093D28200A303F401A304E40193DF8F00BF
:100A2800135F8F002307D4012308C40193DE8E00CF
:100A3800135E8E0023096400230A140113538300F4
:100A480093D88800230B0401230CB40013588800A2
:100A5800A181230EC400230FD4002182A182A30503
:100A6800F4002300E400A300B401230134012302AD
:100A78007400230354002304F4012305E40123062E
:100A88000400A306A400A307D401A308C401A30972
:100A98006400A30A1401A30B0401A30CB400230DE2
:100AA8000400A30D0400A30EC400A30FD400938474
:100AB8000402938781CA63F5F4082390040089042B
:100AC800E39DF4FE23A471F3EF10001AEF201078D1
:100AD8002A84E31D059C8544238491F223A651F3BF
:100AE800EF108018EF3060122A84EF10E017E31F30
:100AF800049A9737002083C7F76017370020034709
:100B08006760A207D98F89CB238491F223A661F36A
:100B1800EF30A00FEF104015EF2050238147130747
:100B2800000410103E9603460600B306FA00850737
:100B38002380C600E397E7FEEF2000382A84BDB281
:100B4800938781AAE3F0F4F8239004008904E39DD5
:100B5800F4FE8DBF9737002093870754054789BB5C
:100B680079711305F00406D622D426D23714004032
:100B78004AD04ECE52CC56CA5AC85EC64929832797
:100B8800840A85451305001093E707202324F40AF7
:100B9800F5238D4513050020D523EF00006E83450E
:100BA8001404174500001305E569B7840040EF30C9
:100BB800E035938781CA23A4F1F6938781CE23A6D3
:100BC800F1F6EF009049C5260549238801F6D54975
:100BD800114A974A0000938A6A68174B0000130B62
:100BE800EB68938B010483C764000145858B89CB2F
:100BF80023832401EF00006C63143501238821F757
:100C080083C701F799E3631C35131305800C238808
:100C180001F697300020E78000BFEF00D04963104D
:100C280005122380410529445685EF30E042EF1034
:100C3800F00DAA8511CD5A85EF30402D7D1413058E
:100C480020031374F40F97300020E780C0BB69FCC1
:100C580083C70B0011476374F70E1745000013058F
:100C68006561EF30603F974500009385E561138526
:100C780081F2EF30603F9307400517370020231DAE
:100C8800F74093073004173700202318F7409307DD
:100C98002004173700202313F74093074004173721
:100CA8000020231EF73E130740069306F0059737EA
:100CB80000202398E73E973700202393D73E9307D9
:100CC800100617360020231FF63C130640079735F9
:100CD8000020239AC53C173600202317F63C173608
:100CE80000202314D63C973600202391E63C173782
:100CF8000020231EF73A930790071737002023197F
:100D0800F73A9307E002173700202314F73A9307BE
:100D18003006239CF18493073007239DF1849307C1
:100D28006007239EF184239F0184EFF02FF3AA85A7
:100D380005C1174500001305E555EF30201D1305C3
:100D4800400697300020E78000AC0545E52361BDEB
:100D58001745000013050555EF300030CDB76F007B
:100D6800B01E797122D426D24AD04ECE52CC56CA61
:100D78005AC85EC662C466C206D6AA842E8C0144CE
:100D8800930900F8138A0107A94A130B8002938B71
:100D9800C103938C81040D4983C75108B397F400AC
:100DA8002388F1CE13D78700A388E1CE13D7070194
:100DB800E1832389E1CEA389F1CE238A31CF83470A
:100DC8000A006285A38AF1CE238B51CFA38B61CF12
:100DD800238C01CE83A70B0013D78701A38CE1CE08
:100DE80013D70701238DE1CE13D78700A38DE1CE5A
:100DF800238EF1CEA38E01CE238F01CEA38F91CE69
:100E0800238001D0EF00506783C70C0093F7F70FDA
:100E1800B1C72285EF1040322384A10483C70C0098
:100E280093F7F70F95C303C50C001375F50FB25070
:100E3800225492540259F249624AD24A424BB24B66
:100E4800224C924C4561828005041374F40FE3151B
:100E580024F5FD472384F1047D45D1BF0145C1BF79
:100E6800797122D426D24AD04ECE52CC56CA5AC80C
:100E78005EC662C406D6AA84AE8B01449389010774
:100E8800294A930AA002138BC103138C81040D49CC
:100E980083C75108B397F4002388F1CE13D787008E
:100EA800A388E1CE13D70701E1832389E1CEA38983
:100EB800F1CE238A01CE83C709005E85A38AF1CECD
:100EC800238B41CFA38B51CF238C01CE83270B00DB
:100ED80013D78701A38CE1CE13D70701238DE1CE69
:100EE80013D78700A38DE1CE238EF1CEA38E01CE3A
:100EF800238F01CEA38F91CE238001D0EF00D0574E
:100F080083470C0093F7F70F85E71305800C97309C
:100F18000020E780A08E0145B25022549254025915
:100F2800F249624AD24A424BB24B224C4561828016
:100F38002285EF1060202384A10483470C0093F7D7
:100F4800F70F91C703450C001375F50FF1B70504AA
:100F58001374F40FE31E24F3FD472384F1047D4545
:100F680065BF3787004083473700894693F7F707FF
:100F7800A301F700834757000347370093F7F70F9C
:100F88001377F70F631BD70093F6170099C6918B59
:100F9800014581CB2380E104828085472380F104C9
:100FA800594582808280411106C6EF00B04B3D470B
:100FB8009307F00F6379A704938781D223A4F102E2
:100FC80023A8F10023800104A547A382F108930711
:100FD8000020239AF10423A2010693070004239515
:100FE800F106B78700401387C70123A2E1021387E0
:100FF800870123A6E1081387C702A10723A2E100FE
:1010080023A8F1028147B2403E854101828093774F
:101018000502BDCBB717004003C7A700118B21C33A
:10102800B7170040930670052380D704130780FA8A
:101038002380E7047D892394A700010001000100B3
:101048000100238007042380D7042380E704854612
:1010580037270040A303D780238007048280130723
:1010680070052380E704130780FA2380E70403C789
:10107800A700136747002385E7009307004B01008B
:101088000100FD17EDFF69BF93770504E1DBB71792
:10109800004003C7A700418B31C37D89136605044F
:1010A800DD477D1563F1A706B71700409306700565
:1010B8002380D704130780FA2380E7042394C7000A
:1010C8000100010001000100238007042380D704E8
:1010D8002380E7048D4637270040ADBF130770050E
:1010E8002380E704130780FA2380E70403C7A700D7
:1010F800136707012385E7009307007D01000100BE
:10110800FD17EDFF59BFB717004093067005238000
:10111800D704130780FA2380E7042394C70001004B
:10112800010001000100238007042380D7042380E5
:10113800E70489463727004031BFB717004003D579
:101148008700420541819377050491EB9377F50178
:101158003755E801130505803345F50282809377FA
:10116800050C130700046397E7009377F5013745EB
:101178009C1CCDB72165130505D08280914763EE8D
:10118800B702174700001307A7128A05BA959C41B2
:10119800BA978287B717004003A7470B1345F5FF97
:1011A800698F23AAE70A03A7070B698F23A8E70A11
:1011B80003A7070A798D23A0A70A8280B7170040E2
:1011C80083A6470B1347F5FFF98E23AAD70A83A6F0
:1011D800070B558D23A8A70A83A6070A758F23A096
:1011E800E70A8280B717004003A7470B498F23AA55
:1011F800E70A03A7070B1345F5FF45BFB7170040DC
:1012080083A6470B1347F5FF758F23AAE70A03A7A1
:10121800070A598D4DB7B717004003A7470B498FE9
:10122800EDB7814737370040A14663C4C700328510
:1012380082800345B740E38EA6FE3385F50003455B
:10124800050085072304A740CDB7411122C406C66F
:101258002A84E5352947B307E502B2408D83B3D721
:10126800870222449507B3D7E70237370040C20701
:10127800C1832316F740410182807165411113052E
:10128800052006C6D937B7370040130770F8238101
:10129800E7400D47A381E74013070004A380E74018
:1012A80005472387E740B240410182808547238074
:1012B800F1048280411106C6B786004083C75600F4
:1012C80013870104858B9DCB834707000547630778
:1012D800F70083C716000145858B91EF854723806A
:1012E800F104174500001305E5FD89472380F10443
:1012F800EF2090565545B2404101828003470700D0
:1013080085470145E3F9E7FE17450000130545FC4D
:101318002380F104EF2050545945F1BF378700402E
:10132800834737001375F50793F70708C98FA3019B
:10133800F700828082804111A147014506C622C478
:10134800A388F1F637840040D13F834714003D4518
:1013580093F7E70FA300F4008347140093F7970F60
:1013680093E72700A300F40097200020E780A04916
:10137800834714001305A00F93F7D70FA300F400B9
:1013880097200020E780804785472303F400B24078
:1013980022444101828003C70104854763E5E700D1
:1013A80089472380F104B787004003C75700594590
:1013B800058B01CB03C71700014513671700A380EE
:1013C800E7008280397122DC26DA4AD84ED652D418
:1013D80056D25AD05ECE62CC66CA6AC86EC606DEDF
:1013E800B78700402387B702B78D00402A8A328D1D
:1013F8002385B70213594500014493846D00094CB5
:10140800854AD54C138B0104854B894923844D03A8
:10141800238084019307003203C70400098B09E77E
:10142800FD17C207C183EDFB23840D0283C70400A7
:10143800898BE5C783C70400858B95C72380540132
:10144800953D63149501238851F783470B00638A00
:10145800FB0A83470B006388F90A1305800C972061
:101468000020E780A03983C70400898BD9C783C7C8
:101478007D0093F70704D1EB83C77D00394793F7C5
:10148800F70F13F5F7006304E50829476318E50229
:1014980063020D08FD576303FD007D1D7D14137461
:1014A800F40F05043D451374F40F97200020E780DE
:1014B800E034E3FD89F41305000221A825476309F8
:1014C800E902B5476304F9006319790579D9136509
:1014D8000502F2506254D2544259B259225A925AD1
:1014E800025BF24B624CD24C424DB24D216182807C
:1014F8009D8B0D47E39CE7FC6DB7FD572380F400F7
:101508004DB75945F9B75545E9B70145D9B7130559
:10151800E002C1B71305A0026DBF1305E00F55BF68
:10152800011126CA4AC8AE842A891305800C06CE42
:1015380022CC4EC652C456C25AC097200020E7801B
:10154800E02B99C02380040037840040A1478969B3
:101558002306F4021386097181451305000D9D3594
:1015680063150514930700FD2307F4022305F4020D
:1015780085472306F402938AC1F683A70A0003C4A9
:10158800770003C767002204598C61CC630B090CF0
:1015980083870700378A00409389097163CA070463
:1015A8001305800C97200020E780402583C711F79A
:1015B8006374F4009377F40F2306FA028147034714
:1015C800CA026399E7108345EA024E864145DD3B2E
:1015D80069ED8347CA021D8C4204418081C8834754
:1015E800CA0203C70400BA972380F40055F895A8E7
:1015F800938A81F61305800C97200020E78000204D
:101608008345AA024E86130500096D3B59ED034731
:101618008A009377F40F6376870083478A0093F7ED
:10162800F70F1D8C4204418091C403C704003E9704
:101638002380E40001479376F70F6392D7083E9919
:1016480083478A0093F7F70F89CB03478A0083C73C
:1016580011F7FD17F98F91E351FCB78700402386F6
:1016680007021305800C97200020E7802019B78710
:10167800004083C7C7021305000993F7F70F91E3EA
:1016880041450966130606719305000C253B11EDCB
:10169800378700408347C70293F7F70F99C78347F7
:1016A800870093F7F70F91C35D45F2406244D24437
:1016B8004249B249224A924A024B0561828083A676
:1016C8000A00BA9603C60600B306E9000507238098
:1016D800C60095B703A70A008346090005093E9787
:1016E80085072300D70093F7F70FD1BD814793856E
:1016F800C1F6A14698413306F500034606003E9719
:1017080085072300C700E397D7FE82800111A14710
:101718001385418106CEA388F1F6C93F9305F100F0
:10172800138541F8F53B11ED938741F883C777009E
:10173800A388F1F60347F10083D7A1816373F7000B
:101748005D45F2400561828001111385C18006CE96
:1017580022CC693F9305F100138541F8D1332A84DF
:1017680039ED0347F10083D721815D446369F704AC
:1017780083C761F81385C180A307F100853F93876C
:10178800C1F69C430347F1009305F100A3830700CA
:101798002383E700138541F861332A840DE1034769
:1017A800F1009307000463F4E700A307F100034680
:1017B800F100938541F8138581CEEF20C069228519
:1017C800F240624405618280411126C2AA841385D1
:1017D800C18106C622C4193F9387C1F69C4381453F
:1017E800014523819700A38107001D3B2A8401E955
:1017F80026852D36294597200020E780C0002285C0
:10180800B2402244924441018280411122C42A8478
:101818001385418206C6D93D9387C1F69C43B240E1
:101828008145238187002244A381070001454101A6
:10183800C5B9411122C42A841385418006C67D3565
:101848009387C1F69C43B240814523828700224496
:10185800A382070001454101E1B1B78700401307A2
:1018680000F82380E700A3800700A381070013077F
:101878008004A386E70003D781F6239CE70003D7FB
:10188800C1F6239EE7002385070223870702130773
:1018980090F82380E700130700042383E7027D57AD
:1018A8002383E70005472380E1040D472381E700F0
:1018B800238801F68280011117450000130505A24F
:1018C80006CE22CC26CA4AC84EC6EF20E078A534F8
:1018D8008144014413094006054597200020E7800C
:1018E80080F2553C19E5850493F4F40F636A990E68
:1018F800014405041374F40FE31024FFEFF01F9B59
:1019080017450000130585A1EF2000755944C9A0AB
:10191800B307890083C507004E850504EF20005FE3
:101928001374F40F93170401C183E3E397FE294569
:10193800EF2000628357890083C4E1812685239CB8
:10194800F1F68357A90083C981F8239DF1F6AD3DCF
:101958002A8405E1174500001305C599A38A91F665
:10196800EF20C05AD5332A84974400009384049802
:101978000DC9A285174500001305C598EF20005929
:10198800894705452380F104EFF0DF9A91A0B3075A
:10199800890083C5070026850504EF2020571374A6
:1019A800F40F9317040103D761F8C183E3E1E7FE5D
:1019B8002945EF20E0591304B00F639B090003C7C2
:1019C80021F9A1476316F70091472380F1040144E8
:1019D8002285F2406244D2444249B249056182807C
:1019E80003C561F7EFF01F951745000013058595AE
:1019F800EF20C051213B2A842DFD83C4B181A2046C
:101A080083C7A181DD8C138941F897490000938928
:101A1800E98D09BF01A001A001A001A001A001A0BA
:101A280001A001A001A001A001A001A001A001A0A6
:101A380001A001A001A001A001A001A001A001A096
:101A48004111094506C622C426C297200020E78016
:101A580080DB83C78104A389F108EFF08FD0AA87C0
:101A68003DE503C701048D469307300863F1E60698
:101A780083C60109130610022384C1CE7D569387BD
:101A880081CEA384C1CE23810700A38107002382CE
:101A9800D700A382070023830700A383070081459B
:101AA80041342384A1045947AA876302E50203C588
:101AB80041033D89BD3B03C541083D8913650508C0
:101AC8008D3B83C73109A38901082384F104B240FF
:101AD800224492443E85410182804111054706C651
:101AE8002380E104EFF0EFC719E113053008B24095
:101AF80041018280411122C483A7C10303A7810742
:101B080006C601456384E70283A5010103A7810294
:101B180023ACF1066308B7020545EFF08FA42384D0
:101B2800A10409E903C581041375F50FB2402244E5
:101B3800410182807D5723A4E10823ACE106238A72
:101B48000100CDB7054523A4F108EFF08FA1238448
:101B5800A10469D9C5B7411122C483A7C10303A74A
:101B6800810806C601456384E70283A5810203A7AD
:101B7800010123A4F1086308B7020545EFF06F9E41
:101B88002384A10409E903C581041375F50FB24044
:101B98002244410182807D5723A4E10823ACE10659
:101BA800238A0100CDB7054523ACF106EFF06F9B02
:101BB8002384A10469D9C5B783A7C10383A50101FB
:101BC800411103A7810222C406C623ACF1066305AE
:101BD800B7020545EFF0CFA82384A10401C97D57BA
:101BE80023A4E10823ACE106238A0100B240224481
:101BF80003C581044101828023A4F108D9BF83A7CA
:101C0800C10383A58102411103A7010122C406C6AD
:101C180023A4F1086305B7020545EFF06FA42384F8
:101C2800A10401C97D5723A4E10823ACE106238A56
:101C38000100B240224403C581044101828023ACE3
:101C4800F106D9BF03C6C10083A7C10503C711099F
:101C580083A6C107F917B397C7003697BA9723AE7B
:101C6800F102828041458280FD5723A4F10823AC0C
:101C7800F106238A01008280797126D21307500564
:101C880056CA2384E1CE13073005A384E1CE83A787
:101C98004100130720042385E1CE1307300422D422
:101CA8004AD04ECE52CCA385E1CE06D67D475AC83F
:101CB8005EC662C42390E7002A8483C5310903C540
:101CC800410337060200EFF0EFEF2384A1045947E0
:101CD800630FE514938B81CE15CD938781CE9384C2
:101CE80081D098439107D8CFE39D97FE913BDE873B
:101CF8009853910723AEE7FEE39C97FE83C531090D
:101D080003C5410337060200EFF0CFEB2384A1049B
:101D1800631B051683C49B0003C68B0083C7AB00F7
:101D280003C7310983C6BB00A204D18CC207C58F83
:101D38001347070493948601A389E108DD8C638423
:101D480004108386CB0083D7A10663D40608138BBF
:101D580081CA91A000C383C5310903C5410837066C
:101D68000200EFF02FE62384A104631E051403C7C5
:101D7800310983A6010383D7A10613470708A3895E
:101D8800E10883D6060063E1F4189D8C639ED7149E
:101D98003E94638B041403A7C108E3FDF4FA2320DF
:101DA800670155BF23A088002390F60083D7A106BA
:101DB8009D8C3E94EFF00FE12384A1042DE103C72D
:101DC800310913470704A389E1086386040E83D702
:101DD800A10603C84103BA853706020083A8410259
:101DE80083A641004285E3FFF4FA23A078012390FB
:101DF8009600814703460400B38677018507C2072A
:101E08002380C600C1830504E39697FE37060200C7
:101E1800BA854285EFF00FDB2384A10479C903A7B3
:101E280041029307E00223207701630FF506B250C1
:101E3800225492540259F249624AD24A424BB24B56
:101E4800224C4561828003C5410837060200BA85E5
:101E5800EFF04FD72384A10479F983C7310903A789
:101E6800010393C707F8A389F108FD472384F10408
:101E780003570700B5476314F70203C541CB29C1CF
:101E8800854763FEA7002254B25092540259F24982
:101E9800624AD24A424BB24B224C456155B603C501
:101EA80081041375F50F61B703C541033D89EFF050
:101EB8005F9803C7310983A7410223A0770161B75F
:101EC80023840104ADB783A6C1081307E00223A049
:101ED8006601E31EE5F403C541083D89136505085D
:101EE800EFF03F9503C7310983A7C10823A0670115
:101EF80099BF03C7310983A7410213470704A38980
:101F0800E10823A0770181B763E5D402F1DE938766
:101F1800F6FFC207C1838507A2975A878346070041
:101F280005040507A30FD4FEE39A87FE03C731090A
:101F380065BF93960401C182D9BF4111294506C6E0
:101F480097200020E780208C03C70107938781CE64
:101F5800A386E700C94619472384D7002387E700EB
:101F6800930600F80D47A387E700A38407004947B5
:101F780023850700A38507002386D700138581D012
:101F8800A389E70023880700A3880700238907009F
:101F9800238A0700A38A0700238B0700A38B070067
:101FA800238C0700D139154597200020E780A085AC
:101FB80083C78104014593F7F70F81CF03C58104D7
:101FC800D9471375F50F6309F500D547630CF5007C
:101FD8000145B2404101828005472380E10423A2E4
:101FE8000106C5BF09472380E104E5B73971A54754
:101FF80022DCA382F108BD472380F10226DA4AD801
:102008004ED652D456D25AD05ECE62CC66CA6AC870
:102018006EC606DE938D81CE93840102214B930A0E
:1020280000F8130A5002A949854C4D4D81A063FA66
:10203800DC0A6308A70BA380E400013703C501028B
:1020480003C7140072057D85137585F71305850C84
:102058002384E10497100020E780E07A03C7010297
:102068007D171377F70F2380E10225CF03C70107F8
:10207800138581D023846D01A386ED00A3840D0010
:1020880023850D00A3850D0023865D01A3874D01DF
:1020980023880D00A3880D0023890D00238A0D00D5
:1020A800A38A0D00238B0D00A38B0D00238C0D003C
:1020B80023873D01A3890D00C13603C78104137727
:1020C800F70F9306B7FE93F6F60F35F383C76D0245
:1020D80011476382E70421476384E7044147638823
:1020E800E70403C751088547B397E700C207C183D0
:1020F800F2506254239AF10403C514004259D25491
:10210800B259225A925A025BF24B624CD24C424D5F
:10211800B24D21618280A382310993070040C9BF73
:10212800AD47A382F108856793870780D1B7B14788
:10213800A382F10885676DBF411126C2AA840545AF
:1021480006C622C497100020E780E06B854763F33A
:10215800970683C70104C94693F7F70F6388D7002A
:10216800C14663F8F6002380D10421A09547238057
:10217800F10483C7810493F7F70FAD1793F7F70FAF
:1021880005476374F700553B05C1094597100020C2
:10219800E780606703C58104D9471375F50F630CA1
:1021A800F502D5476303F504B24022449244014541
:1021B8004101828083C7810493F7F70FDDFC09454D
:1021C80097100020E780206403C58104D947137560
:1021D800F50FE318F5FCB240224405472380E104DB
:1021E80023A20106924441018280B2402244094759
:1021F8002380E10492444101828039716EC606DE73
:1022080022DC26DA4AD84ED652D456D25AD05ECEDE
:1022180062CC66CA6AC8EFE0DFD4AA8D71E983C7C9
:1022280001040D476376F70E91472380F104EFE030
:102238001FB32384A104AA8D45ED938C81CE83C658
:10224800EC002147639DE60C03C6FC00238C0104C7
:1022580099466315D6008546238CD10403C77C01B3
:1022680083C5BC0003C66C0183C6EC0103C8DC014E
:1022780003D3A1062207A2062388B108518F238021
:102288000102B3E6060103C64C0183C5BC0103C8BD
:10229800410303CE41086310670862066186137321
:1022A800F600634606081368030101460543639078
:1022B800E6201397850161879376F700138B010257
:1022C8006346070809472380E102A300BB0013E81F
:1022D80006016311061A238A010361A083C68104DB
:1022E8001306E0026300D62203C78104937DF70F2B
:1022F800F25062546E85D2544259B259225A925AB7
:10230800025BF24B624CD24C424DB24D216182804D
:10231800930D3008F1BF13890102A300C900FD47DE
:102328002384F10403C78104937DF70FD1B7136E9B
:10233800030905460143E38EE6F6938701022380ED
:10234800C102A380B7002382C109D1BF93E606F971
:1023580009472380E102A300BB002382D108E31CC4
:1023680003F603C55C00EFF04FCA2384A104AA8DCD
:1023780041F183C60109130610FA03A581022384DB
:10238800C1CE7956A384C1CE854A93851102238094
:10239800010223810C00A3810C002382DC00A382AC
:1023A8000C0023835C01A3830C00EFF06F97238458
:1023B800A1040DF583461B006398560183A681028C
:1023C80083C606002380D102154597100020E780B8
:1023D8008043FD5623A4D10823ACD10603A581026E
:1023E800238A0100A3890108238801060146130CEA
:1023F8004002930B00F8194BC94A130A4002A386FE
:10240800CC0023848C01A3840C0023850C00A385B5
:102418000C0023867C0123876C01A3875C01238839
:102428000C00A3880C0023890C00A3894C01238A83
:102438000C00A38A0C00238B0C00A38B0C00238CAC
:102448000C00EFF07F8383C68104054693F6F60FF0
:102458008DE683C60102B9C283C60107A1E203A5BE
:102468008102954783460500639AF60285472388CB
:10247800F10671B72382C109B9BD83C60102A9C299
:1024880083C601078947138616001376F60F63E99A
:10249800D7022388C10603A5810295B783C7010423
:1024A8008D4663F1F60495472380F10491B593872F
:1024B800010223806102A380B700238A010385B546
:1024C800625423880106F250D2544259B259225A12
:1024D800925A025BF24B624CD24C424DB24D0545CA
:1024E800216199B96254F250D2544259B259225AD0
:1024F800925A025BF24B624CD24C424DB24D216172
:102508006FF0AFDD0145EFF0CFB27DBD411126C2BE
:1025180022C406C623A401F2EFE0BFA42A8441E145
:1025280083C7010411476372F708938781CE03C7F5
:10253800010723840700A386E7001947A38407003F
:1025480023850700A3850700238607002387E70064
:10255800138581D0A387070023880700A388070075
:1025680023890700A3890700238A0700A38A070095
:10257800238B0700A38B0700238C0700EFF0CFEF16
:1025880083C7810493F7F70F99CB83C7810423800E
:10259800F102EFF09F9A03C401022384810422858B
:1025A800B2402244924441018280813919C91305FD
:1025B800000497100020E7800025813119C12A8482
:1025C800F9BFEFF0BFA205E5938781CE03C61702D6
:1025D80083C5070283C6270203C7370222064D8E2A
:1025E800C206D18E6207558F23A4E1F289B703C4CE
:1025F80081041374F40F65B783C70104397106DECB
:1026080022DC26DA4AD84ED652D456D25AD05ECEDA
:1026180062CC66CA6AC86EC61147637DF73883A65E
:102628004106FD5723A4F10823ACF106238A0100D3
:10263800B757341213F606FF9387076701476314E9
:10264800F60013F7F600938441042D6BA380E40091
:10265800130B5BA5138D010223840106A3880108CF
:1026680023A8010423AE0102930B900E930D0004DE
:10267800EFF06FCE6314051283C6140083A58102A0
:1026880099E683C7050093F7D70F638C773383D711
:10269800E51F639E673103CF81062382E105630549
:1026A800BF319307EF1BAE9703C6A70003C7B70058
:1026B80003C8870003C59700A301ED002380010329
:1026C800A300AD002301CD0003A6010283C7470084
:1026D800154723AEC1022380F1026386E7283D47F0
:1026E8006383E7287A87014E01453548854E95482A
:1026F8003D439DA083C70102FD1793F7F70F930F82
:1027080007019382F6FF6367F80063F4DE0E93F621
:10271800F20F054E13F7FF0F9307E71BAE976306FB
:10272800B70B03C5A70003C6B70083CF97002301E3
:10273800AD00A301CD00A300FD0103C6870083C738
:10274800470005452380C10203A601022380F10248
:10275800638F1701638D6700939F870193DF8F4114
:1027680093F7F703E3D80FF82380F10271B723AE8C
:10277800C10263040E00A380D4002382E10483A76E
:10278800010583C611093E9623AEC102E39206EE07
:102798004107A388E10823A8C104F9B5EFF04FAABF
:1027A800EFF0DF84EFF02FBBE30805ECF250625442
:1027B800D2544259B259225A925A025BF24B624C95
:1027C800D24C424DB24D2161828019C123AEC10263
:1027D80063040E00A380D40083C711091307000403
:1027E8002382E1046382071C63100F1C2384F10613
:1027F80085BD6300051823AEC10263050E00A380E2
:10280800D40019C12382E10483A781083E9623AE30
:10281800C10223A2C106EFF00FB449F983A58102D2
:102828001307900E83C7050093F7D70F6393E71A32
:1028380083D7E51F639F671983C7D500139787015F
:102848002384F106618763410718194786072386A1
:10285800E10093F7F70F0145194793968701E18641
:102868001306F7FF860763CB060E1377F60F93F769
:10287800F70F05457DF38547238601002384F1067C
:1028880083D8650123A611056396080083A845022D
:1028980023A6110583C7450103C63501A207D18FB9
:1028A80023A6F10281E79C5123A6F10203C6250164
:1028B80003C8150183D6410503C3510822063366B0
:1028C8000601958203D8E500B296FD161306B3FFFC
:1028D800B3D6C6403386060183CE0501469623AC9F
:1028E800D10023AC010323A0C1028946638FDE0611
:1028F80023A6010483A6C103918F33D7E700369638
:1029080023AEC10623AAE106C167D11763EDE7022A
:10291800239701068567D11763E0E7060547A38A71
:10292800E100630B080083A7810199C78547638984
:10293800FE0483A7C104A9E783C71400D1EF854724
:10294800A380F40011BBDC5503D6050323ACF100CA
:102958002397C1060D47A38AE100E1B7E30205F218
:102968002386E10031BF7A8719BD469623A0C102AC
:1029780051B7E3160EE849BD0947A38AE10055B7E8
:1029880003C5B50055F903C7C5008547E3F6E7FA5F
:1029980083C70104369823AC010311476371F70418
:1029A800C1472380F10419B51305200901B51305A2
:1029B8001009EDBBEFF07F84E31A05DEEFF00FE3BB
:1029C800B9B903A6C103B1B51D472386E1001D4768
:1029D80045BD1305100AD9BB1305300AC1BB6254A3
:1029E800F250D2544259B259225A925A025BF24BCF
:1029F800624CD24C424DB24D21616FF00F8E0111E5
:102A08004AC883A7810726CA22CC06CE4EC623AE63
:102A1800F102EFF06F9A2A8411E583A7C10499EBBC
:102A2800238A01002285F2406244D2444249B249D5
:102A38000561828003A7C10383A50101BA970545F3
:102A480023AEF102EFE0CFC103A7C1032384A104A1
:102A580003A6C10483C78104118F23AEE10293F753
:102A6800F70FDDDF03C48104FD5723A4F10823AC6D
:102A7800F106238A01001374F40F6DB7797152CCF3
:102A880003C8510122D426D24AD006D64ECE56CA01
:102A98005AC85EC689472A89014403A78100630092
:102AA800F8128D47630BF81093571700137417002B
:102AB8003E9783D6410583C7510883A5010103A624
:102AC8008103FD16F98EB357F70003A78107AE9669
:102AD800B29723A2D10423A4F1006382E70203C7BB
:102AE800410109C7293F5DED83A7810023AEF102AB
:102AF800EFF04F8045E903C8510183A64104630FF5
:102B0800090091476308F9168547630FF90E83A7F3
:102B1800C10523A4F1000547238AE10023860106A5
:102B280089476300F80A0D4783A781006301E80E0F
:102B380003C5060013F8F70F83D541051377F50091
:102B48009318480003A60101336717019384010213
:102B580091831377F70FFD15A380F4002381A40058
:102B68002380E102B307B600638AF61083C7160014
:102B7800A381F400631009086309040E83D72400B5
:102B8800918305672391F4005917636CF70A03C70B
:102B9800C10623A0F1023369E900631B090423AECF
:102BA800F1040145B250225492540259F249624A42
:102BB800D24A424BB24B456182800A07DDBD060707
:102BC800CDBD03D7060023A0E102C167D91763FD75
:102BD800E70085472386F106630C090083A7810077
:102BE80001452390F6007DBFE31A09FE23AEE104F8
:102BF80001454DBF31CC2380E60083A7410403C7BC
:102C08001400A380E7009DBF23A4010029B79842C0
:102C1800370600101305F6FFB70500F0F98DE98FA8
:102C2800CD8F698F23A4F10023A0E1025916637C9C
:102C3800E60605472386E106E30C09FA9CC201452E
:102C480095B705472386E10623A0F102014599BF00
:102C58002380060183C7340003C7140083A64104F8
:102C6800C19B1183D98FA380F60083D72400D20794
:102C7800D18301BFFD5723A4F10071BD6318090278
:102C880083C7410185EB83A78107850723AEF1023E
:102C9800EFE05FE6E31805F083A7010183C70700AB
:102CA800A381F400D1BDE31B09F889B711E042877D
:102CB8002380E600A933E31705EE83A7810785077C
:102CC80023AEF102EFE01FE3E31E05EC83A601014A
:102CD80003C70600A381E400E30009EA83C71400E0
:102CE80001E4419B9183D98F2380F6000547238A0D
:102CF800E10059B5797122D466C262C403A84107BC
:102D080003ACC1056AC026D24AD04ECE52CC56CAB0
:102D18005AC85EC606D68549938A01026364881339
:102D2800050C014523A48101EFF05FD523AE810591
:102D380059ED83A701026380071403A8410793672D
:102D4800FC0F1367F80FE38BE7FC83C65101E38799
:102D580036FD83A70101094603D7410523A2F104E3
:102D68006385C60893562700FD16C206C182370E32
:102D780000102390D1022391DA003687814E7D1E00
:102D880039A0131703014183AE87854E5DCFD04329
:102D98001303F7FF93854700B378C601E39308FE52
:102DA80023A2B10463850E0C2390E102B70500103D
:102DB800B3E68601FD153387E6404D8E0507D0C37F
:102DC80023AEE1046360E8080547238AE100B250B6
:102DD800225492540259F249624AD24A424BB24BA7
:102DE800224C924C024D45618280135617007D1685
:102DF800420641822390C1022391CA0032870143CF
:102E080039A0139708014183AE87054321CB83D6A8
:102E180027009308F7FF93852700E5F623A2B1045E
:102E2800630903042390E102FD562391D70083D65A
:102E38002A00B3E686013387E640050723AEE1049E
:102E4800E374E8F81305100B59B7336CDC0023A2C0
:102E5800B1042390010223AE8105C9B5336CCC00BF
:102E680023A2B1042390010223AE810545BD368714
:102E780035BF328755BF225423A48101B2509254E2
:102E88000259F249624AD24A424BB24B224C924C06
:102E9800024D114545616FF07FBE411106C6993D4F
:102EA8009307100B6305F500B24041018280B240E0
:102EB80023AE010441013DBD5D7156DA83C70104AB
:102EC80086C6A2C4A6C2CAC04EDE52DC5AD85ED696
:102ED80062D466D26AD06ECE3D47637CF72C83C736
:102EE80001043D47637DF710C1472380F10483C681
:102EF80081F223890108638606301307C0056387BA
:102F0800E6301307F0026383E630138781F2034645
:102F180017009307A0036306F62A3EC483A6C101DF
:102F280083A7C10732C623A0E10813840102638D79
:102F3800061C83C5C10003C681061387E6FF331745
:102F4800B700BA97A388C10823A0F1066302062434
:102F580023AEF102EFE03FC05DE583D74105239B37
:102F680001046384072083A5810223A2B10483C7D7
:102F78000500B9CB930D500E2D45930BC005638109
:102F8800B70315476394E7009307500E03A8010899
:102F9800834608006388F6081307A0026384E608DE
:102FA80083D7610503D7410593870702C207C18309
:102FB800239BF10463FBE71A83A58102BE9523A234
:102FC800B10483C70500C5FF83A60108814713061E
:102FD800A0029305C0051305F00239A0630EC700CF
:102FE8006303B7226301A7223387F600034707006C
:102FF800850793F7F70F7DF31305200429A0EFE069
:10300800DFADE30605EEB640264496440649F2597C
:10301800625AD25A425BB25B225C925C025DF24D0C
:10302800616182809D8E93B6160036872301D40095
:103038003386D500B307E80083C7070003460600B8
:103048009308F0021303E002214E930E0002130FBF
:103058001700638EC702F9C76386770D6384170D5F
:10306800639D670C6304C701631AD6152301E40145
:10307800A146034724003386D50003460600B3075C
:10308800E80083C70700130F1700E396C7FC05077E
:1030980085061377F70F2301E40093F6F60FE39AFA
:1030A800A6FC429783470700A301F40083C7B50035
:1030B800A18BE39707EE2386010683A74104A24567
:1030C80083D6A70103C651010D4723AED10063186B
:1030D800E60003D747014207D98E23AED100034744
:1030E8003400630B072403C7C1066317072403478B
:1030F800240083A701080507BA9723A0F108B2475F
:1031080083A7C107E39706E203A781019376F70F28
:10311800958F1377F70FA388E10823A0F106E31929
:1031280007E25DB513070002631EE6021D47E36D63
:10313800D7F603C78500E309C7F6A301F400130710
:10314800A002E39FE7E483C7B500A18BE39A07E4F5
:1031580083A701056389071463C10712FD1723A814
:10316800F1043DBDA301F40025BD03C7110983A7E0
:1031780001067D1785071377F70F23A0F106A388AB
:10318800E108E31707DCA24783A6C101E38E06E244
:10319800014523A4D100EFF07F8EE31605E683C72F
:1031A800C106E39307E283A60102A24723AED1003A
:1031B800B9B7EFF06FC4E30405D2B1B5A301640059
:1031C800C5B393072004E3FAD7D41387B1F223A039
:1031D800E1089387B1F289A0D84F23A8E10491E6CA
:1031E8007D57A388E10823A8010483C701043D474C
:1031F8006378F718D1472380F10483C7C106639920
:103208000716014509B51305300BF5BB138791F275
:1032180023A0E108938791F283C651010D47638487
:10322800E60603C707003EC436C623AE010083A7DF
:10323800C1078146E31B07CE83A6810103C6510857
:10324800A24513F7F60F998F3317C700094623AE27
:10325800C1002384D106B24623AEF10623A8E104B7
:10326800894623AED10423A60102A3880108C947D1
:103278002380F1041305100479B3EFD0BFD283A7DC
:1032880001052D45E1BD83A6810183C707003AC426
:1032980023AED10089C73EC683A7C10779B17D5740
:1032A80023A8E1047DBF2380010283A70108014709
:1032B800130500022148154E15539308E002AD4549
:1032C8001DA82300D60083C7010283A6010899EB35
:1032D80003C606006318C6012380660083C701027F
:1032E80083A60108850793F7F70F2380F102B697A5
:1032F8000507630DB70283A641043E86BA9683C6C6
:103308000600E387A6FEE31E07FB2380170183C799
:10331800010283A6410403A60108850793F7F70F66
:103328002380F10283C686003E9661BF2380070092
:1033380085472386F10651B303C7B70023AED104EE
:1033480023A60102A3880108418BE30707E883C786
:103358000104FD5623A8D1043D47637EF700CD47FD
:103368002380F10483C7C10613051004E38D07C841
:103378001305300449B9EFE04FF6E31605C8DDB789
:10338800EFE0AFF5E31105C88DBD83A6C1010111BA
:1033980022CC26CA06CE4AC84EC652C456C2B9CA9C
:1033A800938781F283C55108D84303C6110983A7BF
:1033B80081F23357B700B305C74063FDB70423AEA6
:1033C800D10403C7810663EEE70421A883A781F22D
:1033D80003C7810683A6C105998F23A4F1F263E28E
:1033E800E704014523A4D100EFF04FE919E983C7A9
:1033F800C106E9DFFD57A388F108FD5723A4F1F2C0
:103408000145F2406244D2444249B249224A924AB2
:1034180005618280B297998F23A4F1F283A6C10532
:103428004DB783C5C10003A6C1071387E6FF33174D
:10343800B700B386C7003697A388F10823AEE10228
:1034480023A4E1F2014575BF411106C622C4EFF07D
:103458007F8A11CD9307100B6306F500B240224412
:103468004101828023AE0104EFF0DF8865F9EFF0B7
:103478000FD96DF583A7C10503A7010623AEF10097
:1034880023AEE102EFE02FED71F903D6610583A7C2
:10349800810203A7C1012244B29793560701239DD5
:1034A800E700B2400546D0CF239AD70023A2F10403
:1034B80041016FE0CFF4411183D7E10622C423A074
:1034C800A10206C6014589E7B24022444101828033
:1034D80003A74106BA9723AEF102EFE0CFE76DF5F7
:1034E80003A7810283A6010222448327871EB240D4
:1034F800B6972324F71E41016FE06FF083C70104DC
:10350800238901084D476364F7000145828003A7BA
:103518000106411106C623AEE102EFE0CFE309ED53
:1035280003D7610583A781020145BA9703C7B7008E
:1035380023A2F104418B01C7B2404101828003A755
:103548000105B240D8CF41016FE06FEB411122C4B1
:1035580083C7010406C6454793F7F70F6371F70859
:103568004947638AE70483C701044D4793F7F70F78
:103578006361F7022389010883C701043D47637724
:10358800F702C1472380F1040145B24022444101BA
:1035980082805147638BE70483C72109F1DFB93F74
:1035A8006DF583C701043D47E36DF7FC2244B24043
:1035B80041016FE08FD203C751018D47E305F7FA48
:1035C80083C5C10003A6C10783C781010547331717
:1035D800B700B2972384E10623AEF10669B7B2407B
:1035E80022441305400B4101828083C781F2CDF745
:1035F80051B7011122CC83C7010406CE26CA4AC896
:103608004EC64947637FF70883C701043D47637087
:10361800F708C1472380F10403A7010623AEE1029E
:10362800EFE06FD325E903D7610583A78102BA9735
:1036380015572380E700EFE08FDC29ED83A7C10150
:1036480023A0F102A1CB9386F7FF23AED10023AECE
:10365800010419A083A70102054523A4F100EFF096
:10366800EFC10DE983A7C10503C7C106850723AECE
:10367800F1046DD3EFF0AFB811ED03A5C1056244B5
:10368800F240D2444249B24905616FF0DFE2EFE00F
:10369800CFC459D1F2406244D2444249B24905618B
:1036A8008280EFF07F812DD1F2406244D2444249BA
:1036B800B24905618280797122D406D626D24AD0D1
:1036C8004ECE52CC56CA5AC85EC6EFF0EFFEA3885B
:1036D800A108630F051093072004630DF500B2508D
:1036E800225492540259F249624AD24A424BB24B8E
:1036F8004561828083D6610583D7410503A7C1014F
:1037080063E0F6086319071083A78101A388F1080D
:10371800130A500E83A70106FD1723A0F10623AE56
:10372800F102EFE04FC345FD03D64105239B010499
:103738000DCA83A5810283C70500638847259307BF
:10374800000201A883C60600420741836386460338
:10375800BA87B386F50013870702E3E5C7FE239B04
:10376800F10483C71109FD1793F7F70FA388F10830
:10377800D5F31305200BA5B703A7C101239BF104BB
:1037880023AEE104EFF00FD79307100B6300F508A1
:1037980039F5EFF0CFA621F583A7C1057D5523AEF6
:1037A800F100EFF05FD105FD03A7010623AEE102AA
:1037B800EFE06FBAE31505F283D6610503A781022E
:1037C8008147369723A2E104A945930800027D4862
:1037D80001A8230007006380061103A74104850799
:1037E8003E9793F6F70FE3E6F5FE23001701F5B7CA
:1037F800EFF03FE0E31505EE03A7C10123AEE104B6
:10380800EFF04FCF9307100BE314F5F823AE010444
:10381800EFF04FCEB5BF014523A4E100EFF00FA6AE
:10382800E31F05EA83C7C10603A7C101B1DB23AEC5
:10383800E104EFF02FCC9307100B6309F508E310B0
:1038480005EA83A7C101094523A4F100EFF00FA3FE
:10385800E31705E8EFF0AF9AE31305E883D64105CF
:1038680089CE03A6810281473307F6009107C20774
:1038780023200700C183E399D7FE83A7C10503C6A8
:10388800C10083A6C107F91703C78106B397C7000C
:10389800B697A388010823AEF102239B010423A055
:1038A800F1062380E10219EFE5A083C7010203A70F
:1038B800C103FD17050793F7F70F23AEE102238035
:1038C800F102F9C7EFE0AFB36DD111BD23AE01042A
:1038D800EFF04FC2ADB703A641048D679387170277
:1038E800231CF60085475CCE83A701089308E002F5
:1038F8002D4303C70700B305A60005051375F50F8B
:1039080009CF93861700630917052380E50023A0D4
:10391800D10863046500B687E9BF83A7C10113D73F
:103928000701231DF600231AE600EFE04FADE31868
:1039380005DA83A6C10103C7010423AED10423A875
:10394800010423A60102A3880108BD4663F3E60229
:1039580051472380E10461B323A0D10803C71700AE
:103968009386270023A0D1082304E6002545B687BF
:1039780049B72254B25092540259F249624AD24A83
:10398800424BB24B45616FE04F9503A7C101CDBBD8
:103998007D55EFF05FB2E31405D403A7C101CDB3A1
:1039A800411126C222C4138481F218444C400345B5
:1039B800240006C623AEE102EFD0AFBA05E90347FB
:1039C800240083C75108504083A6C10203C881F26E
:1039D800B317F700C207C1833E964297B69750C007
:1039E80023A6F1022384E1F223010400B240224419
:1039F800924441018280411126C222C4138481F27B
:103A080018444C400345240006C623AEE102EFD01B
:103A18002FC505E90347240083C75108504083A6F2
:103A2800C10203C881F2B317F700C207C1833E96EB
:103A38004297B69750C023A6F1022384E1F22301EE
:103A48000400B240224492444101828083C70104A9
:103A58004547637BF70283C5510803A7010503A8FF
:103A6800C10283A781F2138581F22322050133570E
:103A7800B7006375F70023A4E1F2BA87B397B700DC
:103A880023A6F1026FF07F901305400B828003C7D5
:103A98000104D14663E8E61683C70104454763730A
:103AA800F716797122D456CA83A5C10283A70105E6
:103AB80003C781F203C65108938681F206D626D23F
:103AC8004AD04ECE52CC5AC85EC662C48D8F23846B
:103AD80001F2B3D7C700A380E600238106001306CE
:103AE800F00F138481F26369F60EA381F600930444
:103AF800F00F130B000471C383473400DDCF83C775
:103B08001109638C970AEFE0EF9383452400D5C130
:103B180083C7510803A7C103DD17B357FB4063D61A
:103B2800F5001C44AE97638CE70023A0E102EFF098
:103B38003FE759E583A70102834524001CC403C558
:103B4800810683C61109034634003307D54013772D
:103B5800F70F9377F60F6374C7009377F70F034750
:103B68001400636EF7061D8FBE96BE951377F70F88
:103B7800B307F64093F6F60FA300E4002301B40060
:103B8800A301F400A388D108E317D5F683A7C105DC
:103B9800014523A4F100EFE07FEE1DE183C7C106D4
:103BA80003471400B337F000B307F040A388F108C7
:103BB8003DBF83A7C1031CC459B70345240015E5BD
:103BC800B250225492540259F249624AD24A424BA4
:103BD800B24B224C456182809307F00F39B7BA95F2
:103BE800BA962301B400A388D1082254B250925443
:103BF8000259F249624AD24A424BB24B224C4561C1
:103C08006FF01FDA1305400B8280797156CA83C79B
:103C1800010406D622D426D24AD04ECE52CC5AC857
:103C28005EC662C466C26AC051476360F71A83C73A
:103C380001044547637BF71803C781F2138D81F2AE
:103C4800A300ED006301071283C60104238401F277
:103C580023110D00C9476381D71A83C7110955A0DD
:103C680083C7510803A6C103138777FF930700048E
:103C7800B3D7E74063D7F60083278D00B697638EE6
:103C8800C70023A0C102EFF01FD76319051083A74F
:103C9800010283462D002324FD0083C7110983C533
:103CA800810603461D003387F5401377F70FB29757
:103CB80093F7F70F636EE6108D8F369793F7F70F2C
:103CC8002301ED00A300FD0099E703274D0083A71A
:103CD80081026307F70E83A7C105014523A4F100FC
:103CE800EFE0DFD945ED83C7C10603471D00B337B1
:103CF800F000B307F04093F7F70FA388F108630FBC
:103D0800070C1307F00F6395E70483A7C101CDC71C
:103D180083C7010449476317F70003C751018D475B
:103D28006318F71283A7C1052326FD00EFF0EF966D
:103D380035E58327CD00094523A4F100EFE01FD422
:103D480031ED83473D00A3880108FD17A301FD005D
:103D5800EFD05FEF83462D00E39406F083A7C103FD
:103D68002324FD001DBF03C7210961E7238401F255
:103D780083C7010423110D0083C74101B5EB034537
:103D88003D0055E103A7C10283A6010563F7E600DC
:103D980023A8E10405472389E1080145B2502254CC
:103DA80092540259F249624AD24A424BB24B224CCF
:103DB800924C024D45618280EFF00FE959D1F9BF6D
:103DC800EFF07FC3E30905F0D1BF1305400BF9B746
:103DD8003307D6002301ED00A388F10883C741010A
:103DE80081EB83472D00C1DFEFF0FFC049D97DB7D4
:103DF800EFE0FFC07DD55DB783C651018D47E38EE7
:103E0800F6E403C6510883A7010583C61109B3D791
:103E1800C700958F93F7F70FE3F1E7E4A300FD00E0
:103E2800E39D07E291BF136505F0EFF0CFE839D9BC
:103E3800B5B72254B25092540259F249624AD24A52
:103E4800424BB24B224C924C024D45616FF00FEB46
:103E58001305100BA1B7B3C7A5008D8B3307C50099
:103E680081E78D4763EEC700AA876370E50A83C6BA
:103E7800050085078505A38FD7FEE3EAE7FE828064
:103E880093763500AA8791CA83C6050085078505FC
:103E9800A38FD7FE93F63700FDB79376C7FF138637
:103EA80006FE63F0C70683A3050083A2450083AF1F
:103EB800850003AFC50083AE050103AE450103A32A
:103EC800850183A8C5019385450223A0770003A82F
:103ED800C5FF23A2570023A4F70123A6E70123A8BF
:103EE800D70123AAC70123AC670023AE1701938724
:103EF800470223AE07FF75B790419107910523AE9E
:103F0800C7FEE3EBD7FEE3E4E7F6828039713EDAD9
:103F18002ED232D436D63AD842DC46DE9707002075
:103F28009387C71322CC804326CA06CEAA8409C425
:103F38001C4C99E32285852B0C4454102686228537
:103F480036C6EF00501CF2406244D24421618280A0
:103F58000111970700209387671022CC804306CE73
:103F6800AA8519C41C4C89E72AC622852D2BB2457F
:103F7800104422856244F24005616F00B07D011152
:103F880026CA4AC806CE22CC4EC652C4AA842E8956
:103F980001C51C4D91E3012B9C4C804499E3268577
:103FA8001923971700009387E73C631CF402C0406D
:103FB8008357C400A18BB1C71C48A1C7FD59294A22
:103FC8001C4483450900FD17B1E91CC463DE0706DC
:103FD8002286A94526855520FD576308F5022945FF
:103FE80035A0971700009387E73A6314F4008044DC
:103FF800C1B7971700009387E735E31BF4FAC0446D
:1040080045BFA2852685152A55D97D55F2406244BB
:10401800D2444249B249224A056182801CC405093A
:1040280063D70700184C63CBE700638945011C4040
:104038001387170018C02380B70059B72286268532
:104048002D28E31F35F7D1B71C401387170018C078
:1040580029472380E70061B7970700209387070067
:10406800AA8588436FF0BFF1AA8703C705008507B3
:104078008505A38FE7FE75FB8280011122CC26CA35
:104088004AC806CE4EC6AA842E89328401C51C4D64
:1040980091E31129971700009387C72D6319F40638
:1040A800C0401C4C1CC48357C400A18BC9C31C4806
:1040B800BDCF1C4808409379F90F1379F90F1D8D6E
:1040C8005C486346F500A2852685752C2DE51C44C1
:1040D8000505FD171CC41C401387170018C0238052
:1040E80037015C486389A7008357C400858B81CB5F
:1040F800A9476316F900A285268571240DEDF240C3
:1041080062444A85D2444249B24905618280971780
:104118000000938727286314F400804459B7971741
:10412800000093872723E31EF4F6C0449DBFA285B1
:10413800268521203DDD7D59D9B7411197070020FB
:104148009387C7F126C2844322C44AC006C62A8977
:104158002E8489C49C4C99E32685B12697170000C4
:1041680093874721631CF402C0400317C4009317C8
:104178000701C18393F68700B5EE93F607019DEE1C
:10418800A5472320F900136707042316E4007D558B
:10419800B2402244924402494101828097170000AC
:1041A8009387471F6314F4008044C1B79717000032
:1041B8009387471AE31BF4FAC04445BF918B8DC718
:1041C8004C5889C9930744046384F5004A85A92398
:1041D800232A04028357C4002322040093F7B7FD5F
:1041E8002316F4001C481CC08357C40093E78700BB
:1041F8002316F4001C4881EF8357C40013070020DE
:1042080093F707286385E700A2854A85B521835778
:10421800C40013F7170005C75C4823240400B3073C
:10422800F0401CCC1C480145A5F78317C40013F7C0
:10423800070839DF93E707042316F40089BF898B41
:10424800014791E3584818C4F1BF83D7C50001114D
:1042580022CC26CA06CE4AC84EC613F78700AA84BF
:104268002E8471EFD841634DE000B841634AE00005
:104278000145F2406244D2444249B2490561828014
:1042880058547DD703A904009396370123A004004E
:1042980063DD060670488357C400918B99C75C405C
:1042A8001D8E5C5899C33C401D8E5C540C50814651
:1042B80026858297FD570357C400631DF500944077
:1042C800F54763E8D706B70740208507B3D7D70077
:1042D800858BA5C31C48232204001CC093173701F3
:1042E80063D80700FD576314F5009C4091E368C844
:1042F8004C5823A02401ADDD930744046384F500E2
:1043080026851929232A0402A5B70C50014685469B
:1043180026850297FD572A86E31FF5F69C40A5DF00
:1043280075476385E70059476394E70423A0240190
:1043380081B7136707042316E4007D551DBF83A9C1
:104348000501E38709F203A905008D8B23A0350138
:1043580033093941014791E3D84918C4E35A20F198
:104368001C540C50CA864E86268582976349A00045
:104378008357C40093E707042316F4007DBFAA9966
:104388003309A940E1BF9C49A5C3011122CC06CE3F
:104398002A8411C51C4D81E72EC63122B2459717D4
:1043A8000000938727FD639CF5004C408397C50068
:1043B8009DC722856244F24005616FF01FE9971797
:1043C8000000938727FD6394F5000C44C5B7971741
:1043D8000000938727F8E39BF5FC4C44C1BFF240EB
:1043E800624401450561828001458280411122C4F1
:1043F80006C62A842316B5002317C5002320050006
:10440800232205002324050023220506232805006E
:10441800232A0500232C0500214681451305C505DF
:10442800EFB01FD4971700009387E7BD5CD09717AC
:104438000000938747C01CD497170000938787C450
:104448005CD497170000938747C700D01CD8B240A8
:1044580022444101828097050000938505F391AAC3
:10446800411126C2130680069384F5FFB384C40263
:104478004AC02E8922C406C69385440791262A84F9
:1044880001CD2320050023222501310508C4138608
:1044980084068145EFB0DFCC2285B24022449244A5
:1044A8000249410182801C4DA5E7411106C622C47C
:1044B80097070000938767FA1CD59387C1829C43AE
:1044C8002324050423260504232805046314F50082
:1044D80085471CCD2A84352848C022851D2808C454
:1044E8002285052848C4484001469145EFF01FF051
:1044F80008440546A545EFF07FEF48440946C945FD
:10450800EFF0DFEE85471CCCB240224441018280A7
:10451800828041119387C18226C284434AC006C65D
:104528009C4C22C42A8981E72685EFF0DFF7938423
:1045380084048044DC40FD1763D607009C40B9CF53
:104548008440C5BF0317C40039E7C1778507232214
:1045580004062320040023220400232404005CC44E
:1045680023280400232A0400232C04002146814523
:104578001305C405EFB0DFBE232A0402232C04026E
:1045880023240404232604042285B24022449244AE
:104598000249410182801304840671BF91454A850E
:1045A800EFF01FEC88C049FDB1472320F900014412
:1045B800E1BF797122D44AD052CC56CA5AC85EC6D5
:1045C80006D626D24ECE2A8AAE8A1304850401491D
:1045D800054BFD5B09ECB25022544A8592540259AE
:1045E800F249624AD24A424BB24B45618280044446
:1045F80083294400FD1963D409000040E1BF83D733
:10460800C400637BFB008397E40063877701A6857A
:104618005285829A3369A90093848406E1BF19718F
:10462800A6DAAE848395E500A2DC86DE328463DCFC
:10463800050083D7C40023A0060093F7070885E781
:10464800930700401DA0300836C6EF00902CB246F4
:10465800E34105FE7247BD67F98F7977BA9793B73B
:1046680017009CC2F1BF930700041CC0F6506654A3
:10467800D65401450961828083D7C500011122CC37
:1046880006CE26CA4AC8898B2E8489CF930774041C
:104698001CC01CC885475CC8F2406244D2444249E9
:1046A8000561828074003000AA84EFF05FF7A245AC
:1046B8002A892685312201ED8317C40013F70720C4
:1046C80061FFF19B93E727002316F400C1B7970712
:1046D8000000938787D89CD48357C40008C008C8B3
:1046E80093E707082316F400A2475CC8B24791CFA6
:1046F8008315E4002685EF00702401C98357C400A0
:10470800F19B93E717002316F4008357C40033691D
:10471800F9002316240149B7DDC183A7C5FF41115C
:1047280022C406C626C21384C5FF63D307003E947D
:10473800AA84EF009027938701839C4381EF23226B
:10474800040023A881822244B24026859244410174
:104758006F00D025637EF40014403307D4006396BD
:10476800E7009843DC43369718C05CC0D9BFBA87C6
:10477800D84319C3E37DE4FE94433386D700631F0F
:1047880086001040B29694C33386D700E31DC7FA5B
:1047980010435843B29694C3D8C375B76375C40021
:1047A800B1479CC04DB71040B306C4006316D7008C
:1047B80014435843B29614C058C0C0C369B7828026
:1047C800011126CA93843500F19806CE22CC4AC836
:1047D8004EC6A104B14763F5F404B14463E4B404DC
:1047E8002A89EF00901C9387018398433A8429E42F
:1047F800938741839C4399E781454A85EF00E07D93
:1048080023AAA182A6854A85EF00207DFD59631958
:104818003507B1472320F9004A85EF00301929A050
:10482800E3DE04FAB1471CC10145F2406244D244B8
:104838004249B249056182801C40858F63CF0702D7
:10484800AD4663F6F6001CC03E9404C031A05C403F
:104858006313870223A8F1824A85EF0030151305F8
:10486800B4009307440061993307F5405DDF3A943B
:10487800898F1CC05DBF5CC3C5B72287404085BF18
:10488800130435007198E30285FCB305A4404A85FA
:10489800A927E31C35FBB5BF1C46FD171CC663DA08
:1048A8000700184E63C5E700A9476394F5006FF049
:1048B800CFFC1C422E851387170018C22380B7002F
:1048C8008280011122CC26CA4AC84EC652C406CEDE
:1048D8002A89AE893284B304D6007D5A63149400C1
:1048E800014511A8834504004E864A85EFF0DFFA9A
:1048F8000504E31545FFF2406244D2444249B249F7
:10490800224A05618280357122CD26CB4AC94EC71D
:1049180006CF52C556C35AC1DEDEE2DCE6DAAA8902
:10492800AE843289368409C51C4D99E3EFF0BFB7D0
:1049380097170000938707A4639DF40C83A449008C
:1049480083D7C400A18BE5CB9C48F5C79307000229
:10495800A304F1029307000302D22305F10222C641
:10496800930B5002971A0000938ACAA4054C294B4E
:104978004A848347040099C36392770FB30C244198
:10498800638E0C00E6864A86A6854E85EFF07FF397
:10499800FD576307F51E9256E69636D28347040004
:1049A8006380071EFD571309140002C802CE3ECAD1
:1049B80002CCA309010482D4834509001546568513
:1049C800EF00007D13041900C24759E913F70701E6
:1049D80009C713070002A309E10413F7870009C7F1
:1049E8001307B002A309E104834609001307A002D4
:1049F8006380E608F2474A84814625460347040057
:104A080093051400130707FD6379E60AB5CA3ECE7D
:104A180085A8971700009387E7976395F40083A408
:104A2800890039BF971700009387C792E39AF4F07B
:104A380083A4C90031B7A6854E85EFF00FF019D5CC
:104A48007D55FA406A44DA444A49BA492A4A9A4A98
:104A58000A4BF65B665CD65C0D618280050411BF6B
:104A6800330555413315AC00C98F3EC82289A9B713
:104A7800324793064700184336C6634907023ACEC1
:104A8800034704009307E002631FF7040347140079
:104A98009307A002631BF702B24709041387470074
:104AA8009C433AC663C107023ECA35A83307E040B3
:104AB80093E727003ACE3EC8E1B7B3876703854638
:104AC8002E84BA9725BFFD57C5B7050402CA81468B
:104AD800814725460347040093051400130707FD83
:104AE8006376E606F1F2834504000D4617150000CB
:104AF8001305C58C712D11CD971700009387078C6E
:104B08001D8D93070004B397A700424505045D8DEA
:104B18002AC8834504001946171500001305458A5D
:104B2800130914002304B102A5253DC197B7FFFF5F
:104B38009387C74C95E74247B2471377071009CFC9
:104B480091073EC69257D2973ED21DB5B3876703E9
:104B580085462E84BA97BDBF9D07E19BA107D5B7AF
:104B6800780097060000938606D626860C084E85A0
:104B780097000000E7000000FD572A8AE314F5FCBF
:104B880083D7C40093F70704E39C07EA125555BD81
:104B9800780097060000938606D326860C084E8573
:104BA800012AD9BF797156CA9C49BA8A984522D434
:104BB80026D24ECE52CC06D64AD05AC85EC6AA894C
:104BC8002E84B284368A63D3E700BA879CC0034731
:104BD800340419C385079CC01C4093F7070281C79A
:104BE8009C4089079CC00329040013796900631A53
:104BF8000900130B9401FD5B5C449840998F634C4A
:104C0800F9041C408346340493F70702B336D000F6
:104C1800A5EB13063404D2854E85829AFD576303AB
:104C2800F5041C4011469840998B5444814463977D
:104C3800C700B384E64063D3040081441C44184889
:104C48006354F700998FBE94014969047D5B6398AA
:104C58002405014509A885465A86D2854E85829A3B
:104C6800631E75017D55B250225492540259F2497F
:104C7800624AD24A424BB24B456182800509ADBFB8
:104C88003307D40013060003A301C70403475404E1
:104C980093871600A2978906A381E7049DBF8546DE
:104CA8002286D2854E85829AE30E65FB050945B7B3
:104CB800797122D426D24AD04ECE06D652CC56CAC4
:104CC8005AC8B68983C685019307E0063289AA8443
:104CD8002E84138635046381F61E63E2D706930794
:104CE80030066382F60A63EDD700638B061E9307CE
:104CF80080056387F616930A24042301D40469A85F
:104D0800930740066386F60093079006E395F6FE40
:104D18001C40084393F6070893054500C1C21C418F
:104D28000CC363D807001307D002B307F040A301F0
:104D3800E4049706000093862669294765A093072F
:104D480030076383F61A63EFD7009307F006638F83
:104D5800F60493070007E390F6FA9C4193E70702ED
:104D68009CC109A8930750076382F604930780073C
:104D7800E393F6F893078007A302F404970600006C
:104D88009386C665E5A01C43938A2504938647004D
:104D98009C4314C32381F5048547B5A293F6070401
:104DA8001C410CC3BDDEC207C187A5BF0C401C4314
:104DB80013F80508138547006305080008C39C43DA
:104DC80039A093F5050408C3FDD983D70700130755
:104DD800F006638BE60C970600009386E65E29478B
:104DE800A30104044C400CC463C5050008406D9938
:104DF80008C099E3B28A91CDB28AB3F5E702FD1AE9
:104E0800B69583C505002380BA00B3D5E70263F3DE
:104E1800E70AA147631EF7001C40858B91CB5840D9
:104E28001C4863C7E70093070003A38FFAFEFD1A27
:104E38003306564110C84E87CA867000A28526855B
:104E4800EFF05FD67D5A6314450D7D55B25022545C
:104E580092540259F249624AD24A424B45618280D1
:104E6800A382D50497060000938606560C40084393
:104E780013F805081C4111056300080208C313F75D
:104E8800150001C793E505020CC04147B1FB0C4072
:104E980093F5F5FD0CC0A9B713F8050408C3E300A2
:104EA80008FEC207C183E1BF970600009386C6517A
:104EB80021473DB7AE8791B794411C43CC4913F8BD
:104EC8000608138547006306080008C39C438CC383
:104ED80001A808C393F606049C43F5DA2390B700AB
:104EE80023280400B28A81BF1C43D04181459386A0
:104EF800470014C383AA07005685592C01C53305FA
:104F0800554148C05C401CC8A30104042DB714488F
:104F18005686CA8526858299E30945F31C40898B04
:104F28008DE7B2474844E353F5F23E8505B7854619
:104F38005686CA8526858299E30965F1050A5C4487
:104F48003247998FE345FAFEE9BF014A930A940173
:104F58007D5BF5B7011122CC06CE2A8409C91C4D08
:104F680099E732C62EC4EFF00FD43246A245970710
:104F78000000938727406316F60250401C46FD1731
:104F88001CC663D00704184E63C7E70093F7F50FF4
:104F980029476398E70222856244F24005616FF071
:104FA800CF8D970700009387E73E6314F6001044FF
:104FB800F1B7970700009387E739E311F6FC5044EF
:104FC80075BF1C4213F5F50F1387170018C223800D
:104FD800B700F240624405618280411122C42A84EC
:104FE8002E8523AA010806C63D24FD576317F50040
:104FF800938741099C4391C31CC0B240224441019C
:105008008280411122C42E848395E50006C645227C
:10501800634905007C48AA977CC8B24022444101F4
:1050280082808357C4007D777D17F98F2316F4009B
:10503800EDB783D7C500011122CC26CA4AC84EC68F
:1050480006CE93F70710AA842E843289B68991C7B1
:105058008395E5008946014631228357C4007D7750
:105068007D17F98F2316F4008315E4006244F2409B
:10507800CE864A86B24942492685D24405613DA872
:10508800411122C42E848395E50006C6E128FD5708
:105098000357C400631BF500FD77FD17F98F23162E
:1050A800F400B2402244410182808567D98F2316DB
:1050B800F40068C8FDB78395E50005A8411122C42E
:1050C8002A842E85B285368623AA010806C6EFC033
:1050D8004F95FD576317F500938741099C4391C38A
:1050E8001CC0B240224441018280411122C42A845A
:1050F8002E8523AA010806C6CD20FD576317F500A3
:10510800938741099C4391C31CC0B240224441018A
:105118008280411122C42A842E85B28523AA0108DF
:1051280006C6D120FD576317F500938741099C43B4
:1051380091C31CC0B240224441018280411122C463
:105148002A842E8523AA010806C66520FD57631701
:10515800F500938741099C4391C31CC0B240224487
:1051680041018280411122C42A842E85B285368667
:1051780023AA010806C66120FD576317F500938727
:1051880041099C4391C31CC0B24022444101828022
:1051980093F5F50F2A966314C5000145828083476D
:1051A8000500E38DB7FE0505FDB7828082804111B9
:1051B80022C42A842E85B285368623AA010806C60B
:1051C800A920FD576317F500938741099C4391C3B4
:1051D8001CC0B2402244410182809307800523AA63
:1051E800F1087D5582809307800523AAF1087D5533
:1051F80082809307800523AAF108014582809307DE
:10520800800523AAF1087D5582809307800523AA8B
:10521800F1087D558280938781839C4391C73E9591
:1052280023ACA1823E858280938781093E9523AC79
:10523800A1823E85828000006B3C31360D00000063
:10524800537461727420404368697049443D253045
:105258003258200A000000005761697420446973BD
:105268006B52656164790000253032780A000000CD
:10527800437265617465204C6F6E67204E616D6581
:10528800000000002F544342447E312E4353560001
:105298004572726F723A20253032780A0000000099
:1052A800437265617420656E64000000E8BEFFFF0C
:1052B80010BFFFFF38BFFFFF50BFFFFF6ABFFFFFF0
:1052C8005553422064657620696E0000555342208C
:1052D800646576206F757400526573657420686F15
:1052E800737420706F727400782530325820000073
:1052F80047657443666744657363723A200000002B
:10530800496E6974526F6F744465762045727220D5
:105318003D20253032580A0044697361626C65206B
:10532800686F737420706F7274206265636175733F
:1053380065206F6620646973636F6E6E65637400C1
:1053480047657444657644657363723A20000000CB
:105358000000000000000000000000000000000045
:105368000000000000000000000000000000000035
:105378000000000000000000000000000000000025
:105388000000000000000000000000000000000015
:105398000000000000000000000000000000000005
:1053A80000000000000000000000000000000000F5
:1053B800232D302B20000000686C4C006566674583
:1053C80046470000303132333435363738394142B8
:1053D8004344454600000000303132333435363717
:0C53E800383961626364656600000000F3
:1053F4000000000078530000985300005853000048
:105404000000000000000000000000000000000098
:105414000000000000000000000000000000000088
:105424000000000000000000000000000000000078
:105434000000000000000000000000000000000068
:105444000000000000000000000000000000000058
:10545400004000200201000000000000800600025D
:105464000000040080060001000012000005020094
:1054740000000000000900000000000000400020BF
:00000001FF
