:081000006F10001440E0010034
:1010080000000000000000006F0080086F00001E54
:1010180000000000000000000000000000000000C8
:1010280000000000000000000000000000000000B8
:101038006F004006000000006F00E005000000009F
:101048006F0080056F0060056F0040056F00200588
:101058006F0000056F00E0046F00C004000000008E
:101068006F0060046F0040046F0020046F000004EC
:101078006F00801E6F00C003000000006F00600357
:101088006F0040036F0020036F0000036F00E00251
:1010980001A001A001A001A001A001A001A001A040
:1010A80001A001A001A001A001A001A001A001A030
:1010B80001A001A001A001A001A001A0B717004054
:1010C800930670052380D704130780FA2380E7046A
:1010D80003C6B7041376F60DA385C7042380070457
:1010E8001376050225C603C6A700118A0DE22380E0
:1010F800D7042380E70403C7A700136747002385A5
:10110800E7009307004B01000100FD17EDFFB7173B
:101118000040930670052380D704130780FA2380C4
:10112800E7047D892394A700010001000100010064
:10113800238007042380D7042380E70485463727C4
:101148000040A303D7802380070482801376050418
:101158006DDE03C6A700418A0DE22380D7042380F1
:10116800E70403C7A700136707012385E700930770
:10117800007D01000100FD17EDFFB7170040930641
:1011880070052380D704130780FA7D892380E7043C
:10119800136505042394A700010001000100010064
:1011A800238007042380D7042380E7048D4637274C
:1011B800004041BF4111814601468145014506C6AF
:1011C800A522B7170040130770052380E70413070B
:1011D80080FA2380E70403C7670413671700238393
:1011E800E70423800704B24041018280814601461A
:1011F80081450145152AB71700401307700523805C
:10120800E704130780FA2380E7047D572396E70253
:1012180003C76704136717002383E70423800704C1
:1012280001A0BD473305F50201007D1575FD8280DB
:10123800411122C426C206C6AA8401446317940039
:10124800B240224492444101828005041305803E45
:101258004204C13F4180DDB7B717004013070003C0
:101268002388E702854723AAF16A73002030230305
:10127800048095472303F4802302A4808280830797
:101288006480E3CE07FE23030480828083076480A2
:10129800E3CE07FE03454480828083076480E3CE63
:1012A80007FE2302A4808280411126C44AC24EC090
:1012B80006C61377F50BAD47AA892E8995446306B0
:1012C800F70019456D37653F8D444E854D37FD59FB
:1012D800FD1463983401B240A24412498249410185
:1012E8008280135509011375F50F453F2209CDB7C3
:1012F800011126CC06CEB704080051371545853FA5
:10130800713769372AC6A53F32459377150089EBAF
:10131800136515001375F50FF240E24405618280EC
:10132800FD14E9FC0145CDBF397126DC4ADA4ED8F7
:1013380052D656D45AD25ED006DE62CE66CCB7E715
:1013480000E07D5783AA070022C603AA470023A00E
:10135800E71823A2E718B717004013077005238082
:10136800E704130780FA2380E70483C74704930B35
:1013780075FFB684E20793FBFB0F8546AA892E8B7F
:10138800328937240040E187015763FA7601630800
:10139800D5008946130700026313D5000157D98F7A
:1013A80093F7F70FB71C00402382FC04114723036F
:1013B800E4801305F00F653D094CD13563697C1154
:1013C800B70707003E9B378707007955637EEB0216
:1013D800B3079B00636AF702A9476399F90689E492
:1013E8008144713D26850DA0DA850945753D0509BD
:1013F8000345F9FFFD14050B4D3581C49377FB0FA9
:10140800FDF7FD3569FD7D55B717004013077005D9
:101418002380E704130780FA2380E70403C74704FF
:10142800418B2382E704F250B7E700E023A057116D
:1014380023A24711E25432445259C259325AA25A8D
:10144800125B825B724CE24C21618280A5476395F6
:10145800F90685691309F00FB3069900B3742B01D7
:10146800B6941349F9FFB3749900856B3379690110
:10147800416B9387F9FFB3F7270199E363FC3401C4
:1014880093D94900C147E3E637FF99BF0569C169A8
:101498007D19D9B71305800D63886901130500020A
:1014A8006384790113051008CA85FD3B913521DD58
:1014B8004E99B3843441D9B7DA852D45F533CA94AA
:1014C800E30099F20509D933A30FA9FED5BF938785
:1014D800F9FF93F7F70F636CFC0803C75C04B707C1
:1014E80008001377070219E3B78707007955E37DEA
:1014F800FBF033079B00E3E9E7F089476390F904C1
:101508008980D549E38E04ECDA850945713B1109D8
:101518000327C9FF91472320E48003076480E34E33
:1015280007FE23033481FD17EDFBFD14110B81C465
:101538009377FB0FE9FF6D3B71F5F1B58547E387BD
:10154800F9F4DA852D458D339389F4FFE38A04E8AD
:10155800353B93F7390091EB832604800327090074
:1015680093074900E39FE6E63E89CE84F1BFB5477D
:101578006396F9001305900BDD399DB5B147130546
:10158800B00AE38BF9FE9947639EF902DA852D4587
:10159800213B81448D4BA149D5396396740183273A
:1015A80004802320F9008504E39834FF832704800E
:1015B80013172B01635507002312F90015B52322D1
:1015C800F90039BD9D476391F90281451305B004BF
:1015D800E1399D44FD595D39B30799002380A7007F
:1015E800FD14E39A34FFEDBBA1476392F904093374
:1015F8008144630D0B008547930440046308FB0096
:101608009304000563048B019304C0031375C50795
:10161800E30895DC1945A1399D31054589392685A9
:10162800AD3909459D39E931E31C05DAE9BBE389A0
:1016380009DAF1547DB319CDB717004013077005C7
:101648002380E704130780FA2380E7042396A70280
:1016580023800704828019C1814799E982803387F2
:10166800F500834607003307F50085072300D700F8
:10167800E397C7FEE5B719C1FD5781E98280910557
:1016880003A7C5FF1105232EE5FE7D16E319F6FE17
:10169800F5B7011122CC1384816E1C4006CE26CAF0
:1016A8004AC881C7829723A4016E5C4089CB03D5C1
:1016B800016E51375C40829703D5216EAD3F1C40C7
:1016C800639407169737000083C757C4858B6387D1
:1016D800071297370000A38B07C29737000083C70C
:1016E80017C309476391E70EB523970001E0E78028
:1016F80040049387C16D984317360000034616A12E
:10170800BE849737000083C767A093961700BA96E0
:1017180083D60600638006109737000083C7079FAB
:1017280063FEC70686073E97835507002310070008
:1017380003D5016E2EC601379387816F9C431735F9
:1017480000000345A59C13172500BA979C43B24592
:1017580082972A8903D5216EF93D9737000083C700
:10176800E79A139717009C40BA9703D70700336985
:10177800E90023902701973700009387279983C7AB
:101788000700850793F7F70F173700002300F7982E
:10179800173700000347979763E6E700973700007D
:1017A800238607961C40C9E303D5016E693597F077
:1017B800FFDFE780C07A6244F240D244424903D551
:1017C800216E05618DBD0D476398E700612197D0B3
:1017D80000E0E780C0BB31BF15476398E7009D294B
:1017E800972001E0E780404A29B71D47E393E7F0D7
:1017F800952197A000E0E780C066E5BD9737000017
:1018080083C747B5918BE38607EE972001E0E78011
:101818006016C5B5850793F7F70F9736000023873D
:10182800F68EE3E0C7EECDBDF2406244D2444249B1
:10183800056182809167B7C60040938737304111B0
:1018480023A6F62001000100973700009387078C34
:10185800984F971700009387A7F79C433A07F053D0
:10186800B7071000FD17918F9983D98F3EC6B167CE
:101878009387373023A6F6203245410182804111F3
:10188800B7170040985F3AC6945F3247E39CE6FE7C
:101898003245410182809387417B9C43411122C498
:1018A80006C62A84E9E74165130525F597C000E0D7
:1018B800E78000764DCD8347C5002316F5008327C2
:1018C800840FC9EF232CA40E232EA40E8547231AB8
:1018D800F402232005008347B40054412315F50082
:1018E8000347A4002304E500173700001307C7A126
:1018F800184F1385170215811C437D151375F50FB5
:101908009CC25C43938606021307070223A2F6FED5
:10191800832787FE23A4F6FE8327C7FE23A6F6FEA9
:10192800832707FF23A8F6FE832747FF23AAF6FE8F
:10193800832787FF23ACF6FE8327C7FF23AEF6FE77
:1019480045FD9737000083D7A79185071737000013
:101958002318F790B2402244410182808327C40FA4
:1019680088C383574403232EA40E85078DB7834766
:10197800840023080400054593C747002304F400A6
:10198800D1BF8347E50193F7E70F89CB01458280F3
:101998000145B24022449244410182808347F501C7
:1019A800F5F7411106C622C426C20347050183473D
:1019B800850009CB034665029726000083C6967208
:1019C8006367D60093F60701E1D6014409CB0344C7
:1019D80005150347F514C18B2204598C81CB834725
:1019E800451503473515A207D98F3E9455D097372B
:1019F800000093876786B44B972700009387476D4D
:101A080003864701FD54B705C0A803A7060883D776
:101A18004607635B0602B307F74063F39700BE848B
:101A28009442E5F69387C16F9C438297E3E2A4F65C
:101A38001304B4141580130404023385A440333509
:101A4800850013451500B1B7E377F7FC2E97E1B78A
:101A5800411122C61384C17B184026C44AC21C5FA8
:101A68009384817B9983858BADCF9307F0FB1CDF33
:101A78009737000083C7478993F707041739000091
:101A88001309898889CB9387C16F9C4382979737BD
:101A9800000023A3A788854717370000A308F78607
:101AA800971700009387C7D29C430327C900B8D370
:101AB800930700F817370000230AF78483076900A3
:101AC80063D107029C40130700FC9736000023806F
:101AD800E6849C439983858B89E7973700002388A0
:101AE80007829C40D8430583058B19C7D843759B4B
:101AF800D8C3D843799BD8C318401C5F8583858B8E
:101B0800D9CBF5571CDF01000100010001000100DD
:101B180001000100010001000100010001000100B5
:101B280001000100010001000100010001000100A5
:101B38000100010001000100010001000100010095
:101B48000100010001000100010001000100010085
:101B58000100010001000100010001000100010075
:101B68000100010001000100010001000100010065
:101B78000100010001000100010001000100010055
:101B880001000100010097170000938767C49C4378
:101B980013075004B8CB18401C5F9183858B99CFED
:101BA800BD571CDF97170000938787C29C4323A863
:101BB8000704854717270000230AF7743244A24414
:101BC800124941017300203037F700E0832707D11D
:101BD800CD9B2328F7D0972700009387E77203C788
:101BE8004700058B01EF03C73700058B01EB03C7DF
:101BF8002700058B01E773005010D5B7828097172F
:101C080000009387E7BC9C43094798C375BF9717A3
:101C180000009387E7BB9C4337C700401306C00307
:101C2800A8CB93062003972500009385E56D8327AD
:101C38008720C18393F7F7036369F600832787201A
:101C4800C18393F7F70363E6F60083C74500858BE6
:101C5800F9DF828037F700E0832707D1CD9B23285F
:101C6800F7D0972700009387276A03C74700058B9B
:101C780001EF03C70700058B01EB03C71700058BAE
:101C880001E773005010D5B782809717000093873B
:101C980027B49C4337C700404146A8CBE546972563
:101CA80000009385656683278720C18393F7F70330
:101CB800637DF60083278720C18393F7F70363E6E4
:101CC800F60083C74500858BF9DF8280034715003E
:101CD8001507719B0D072A9709C68347F7FF23004D
:101CE800F60083470700054593F60701B9E69DC14D
:101CF800172600000346A6619306000C0945631EDB
:101D0800D60293F6F70605466399C602E207E1870D
:101D180063C507028347E7FF0347D7FFA20793F787
:101D28000770D98F1397070141839376074099C6A7
:101D3800136707802392E17C014582802392F17C1E
:101D4800E5BF1386C17C0842972600009386C65BD0
:101D5800184593170701C18313781720BE85630BB5
:101D68000806137707206303071203C726001367C3
:101D7800170017280000230AE8581307001938D15C
:101D8800130700F8172500002302E5581387C17BC5
:101D98000843370800105855719B1367270058D51A
:101DA80018413367070118C11387817C18431DC385
:101DB8000328470083288700032508003365150199
:101DC8002320A8000328C700584B03250800498F83
:101DD8002320E80013F7251021CB93F50510E1C95E
:101DE80003C706001367170097250000238EE550E8
:101DF80017270000230C075017270000A3080750D7
:101E08001387817C184309CF084B032847010C41ED
:101E1800B3E505010CC1084318470C414D8F18C1A3
:101E2800172700002316074E83C6460093C7F7FFFF
:101E3800C207E206E186C183184263D1060293967F
:101E4800170163DF06063053894663E9C6008546F5
:101E580017260000230CD64A3453FDFE97260000AF
:101E6800938606278386460163DD0600939607015D
:101E7800C18663DD06047053894663E4C600745363
:101E8800FDFE1447F58F1CC77300203003C71600EA
:101E98001367170017250000A308E5461727000059
:101EA800230607461727000023140746F5BD03C776
:101EB80036001367170097250000A388E5440DBF77
:101EC8008546172600002303D64449BF5447139676
:101ED800060163510602B7061000FD1674D3972653
:101EE80000009386A622944E850617260000232B11
:101EF800D62241BFA166D58F69B7172700001307FF
:101F080067428346B7019727000083C7B744B6974F
:101F180093F7F70FFD4663E2F606504B972600004D
:101F2800A382F6409727000083C7D73F054733179A
:101F3800F70097260000A38FF640718F39E7814696
:101F480013050002B355E600858981C5850693F619
:101F5800F60F0507E318A7FEB3F6D7020147814736
:101F680013050002B355F600858989CD6319D7009A
:101F780017270000A308F73A8280811779BF050761
:101F8800620761878507E39FA7FC82809717000097
:101F9800938747849843B75702009387079F832600
:101FA80007091396560063580600832607091396F7
:101FB800660063440600FD17FDF38280A16785076C
:101FC8002A876397F50083C7C1770145D5EB8280DF
:101FD800014555CBCDC9B307E0408D8BBA97C207F1
:101FE800C18313074003636FF70217170000130735
:101FF80027860843171700001307078514436398BB
:10200800A602172700001307A70C185B014525CF68
:102018004111C20706C60545DD8D0297B24001454C
:10202800410182801717000013074782D9B7035769
:10203800650029E7035745006362F704B306F740D4
:1020480021466370D6021041938687001D8FAA9699
:10205800611790C22392E6002393060014C123124D
:10206800F500A1672313B50085076397F50083C7BB
:10207800C177FD17238EF17621058280084141B78B
:10208800014531FB8280828005C197070000938754
:10209800277C03A80700970700009387E77A8C43FB
:1020A8000147C28763E3B700828094436363F508FE
:1020B80063E1A60813868700E368C5FE03D56700B9
:1020C800216605066317C50003C6C1770506238E7A
:1020D800C1762393070063860703170600001306DB
:1020E800E6761042630FF6000356670019EA83D7B5
:1020F800470014C383564700B697A1072312F70079
:10210800BA879843E302B7FA9706000093860674E5
:102118009442E30BD7F883566700D9F683D6470075
:10212800035647001843A106B2962392D70098C3D6
:0821380082803E87B687BDB727
:10214000972100209381016C17610020130181EB1E
:1021500017F5FFFF130585EB971500209385856A1A
:10216000172600201306867D63FAC500832205002A
:1021700023A0550011059105E3EAC5FE17C501002E
:10218000130545F0938581131386016963FAC50031
:102190008322050023A0550011059105E3EAC5FE41
:1021A0001385016997550020938585A36377B50052
:1021B000232005001105E36DB5FEB72200009382D0
:1021C000828873A00230971200209382A26393E268
:1021D000120073905230971200009382421F739046
:1021E0001234730020303D432A876373C302937710
:1021F000F700BDEFADE5937606FF3D8ABA960CC3B6
:102200004CC30CC74CC74107E36BD7FE11E2828079
:10221000B306C3408A069702000096966780A60020
:102220002307B700A306B7002306B700A305B7002E
:102230002305B700A304B7002304B700A303B70026
:102240002303B700A302B7002302B700A301B7001E
:102250002301B700A300B7002300B700828093F5E5
:10226000F50F93968500D58D93960501D58D61B7B1
:10227000939627009702000096968682E78086FA5A
:102280009680C1171D8F3E96E374C3F8A5B7B717A4
:10229000004003C777051377E70FA38BE704130705
:1022A00000F8A38DE7043D47238CE7041307500390
:1022B000A38CE704828041112A83014E930E407E55
:1022C000130F0019930F400663EB6E0A9308001971
:1022D00013034006B3781503854E0D4FA14F33739A
:1022E00065020D891335150063E5BE0C1308F6FF72
:1022F000794672984208135808013307C70213D66B
:102300001700BE0732976146B3F6C6021306807007
:10231000B386C6023697A166F58F42075D8FB71761
:10232000004083C6F70293F60608A307D1000346D0
:10233000F10083C6F70293F60608E394C6FE8346CF
:10234000F10093F6F60FF1DE930670052380D704B3
:10235000930680FA2380D70423AA070383C61703B2
:1023600093E60608A388D702D8DB03C717031367D1
:102370000704A388E70223800704410182807D13BC
:102380003368E3039308E016630E08003368F30331
:102390009308D016630808009378330093B81800A8
:1023A0009388D81633081E01131E0801135E0E0110
:1023B00021BF6393E5030548638608000148630372
:1023C00003002A8871087298FD15131E0801C205C2
:1023D000135E0E01C18109BF13F8150063F4BF003D
:1023E0007908D5B713381800E5BF914763EEB702F7
:1023F00017B701001307C7538A05BA959C41BA97CE
:102400008287B717004003A7470B1345F5FF698F75
:1024100023AAE70A03A7070B698F23A8E70A03A7E4
:10242000070A798D23A0A70A8280B717004083A6E8
:10243000470B1347F5FFF98E23AAD70A83A6070B8C
:10244000558D23A8A70A83A6070A758F23A0E70A3C
:102450008280B717004003A7470B498F23AAE70ADA
:1024600003A7070B1345F5FF45BFB717004083A629
:10247000470B1347F5FF758F23AAE70A03A7070A3F
:10248000598D4DB7B717004003A7470B498FEDB7DC
:10249000B717004003D587004205418193770504B3
:1024A00091EB9377F5013755E80113050580334526
:1024B000F50282809377050C130700046397E70009
:1024C0009377F50137459C1CCDB72165130505D0E1
:1024D000828037E700E01C435443A183E206D58F96
:1024E0001CC1FD572320F7182322F7188280B7F765
:1024F00000E0C8439C478280814737370040A146AF
:1025000063C4C700328582800345B740E38EA6FED0
:102510003385F5000345050085072304A740CDB7A3
:10252000411122C406C62A84A5372947B307E5020C
:10253000B2408D83B3D7870222449507B3D7E70211
:1025400037370040C207C1832316F740410182801C
:10255000716541111305052006C6D937B73700400C
:10256000130770F82381E7400D47A381E740130765
:102570000004A380E74005472387E740B2404101BC
:102580008280411122C406C603C70500894705445D
:10259000631FF702D8412944834717000347070008
:1025A000A207D98FC207C187130710EE6391E70214
:1025B0002389D168814793F6F60F973500209385DC
:1025C000A5AC1397070141836369D702014403C691
:1025D000216919CE938741699C4399CBDC4389CB10
:1025E00097350020938545AA014582972389016884
:1025F0002285B2402244410182803307F600034520
:1026000007003387F50085072300A7005DBF03C7D8
:10261000050089476315F706D8418347170003472C
:102620000700A207D98FC207C187130710EE639472
:10263000E70432852390060003C6116919E20145BB
:10264000828041112390C60097350020938585A292
:1026500006C697200020E7804080A3880168938702
:1026600041699C43014589C79C4399C382970145B1
:10267000B240410182802390060029458280239048
:10268000060005458280058909C993868117414660
:102690009145138581136F6030090145828009C51A
:1026A00023AAA16801458280454582805147636223
:1026B000C7024111173500201305C59B06C6A38824
:1026C000C16897100020E7804079B2400145410180
:1026D00082801305E00F8280CC41411106C632850D
:1026E00003C6150083C5050022064D8E42068D6582
:1026F0004186138875A2630C060F6348C8041388CB
:1027000045A26306060B634AC800938535A2630998
:10271000B60623900600294679A0138855A26308BF
:10272000060B938565A2E316B6FEC1451D4663EC14
:10273000E5064546198E63F3C7003E862390C60022
:1027400097B501009385052189A8138895A2630098
:10275000060F634E060B1388A5A2630A060F938526
:1027600005A5E318B6FA99451D4663EEE502198EF4
:1027700063F3C7003E862390C6009385816131A82C
:102780009D451D4663E1E5022146198E63F3C700AE
:102790003E862390C60093858169BA9597100020E4
:1027A000E780A06B0146B240328541018280AD4591
:1027B0001D46E3EAE5FE3146198E63F3C7003E8607
:1027C0002390C60097B501009385851CF9B7B145E4
:1027D0001D46E3EAE5FC3546198E63F3C7003E86E5
:1027E0002390C60097B501009385851B7DB7C14531
:1027F0001D46E3EAE5FA4546198E63F3C7003E86B7
:102800002390C60097B501009385051679B7C14599
:102810001D46E3EAE5F84546198E63F3C7003E8698
:102820002390C60097B5010093858518BDB7C145B3
:102830001D46E3EAE5F64546198E63F3C7003E867A
:102840002390C60097B5010093854513B9B7B545E8
:102850001D46E3EAE5F43946198E63F3C7003E8668
:102860002390C60097B501009385C50D3DB79386AB
:10287000012C4146CD45138501196F60E06A83C77D
:10288000850093F70702D9EB03C3050089482E881A
:102890008547631C130383A84500328EB68E83C719
:1028A000180083C808003A8FA207B3E71701C16870
:1028B000938F18FE638DF7018D18638A17010D68D9
:1028C0001308289063890705A9473E858280AD4794
:1028D000E31D0FFE0547B547E399EEFE8327C800C9
:1028E00003470E002380E7000327C8009387016A8F
:1028F0006313F70001439387C16A9843814771D7F7
:10290000184361D7411106C61A850297B240814724
:102910003E854101828085476F40902CA14775B765
:1029200083C785002145C18BC9E32D453DEF03C712
:10293000050089476317F706D84183471700034707
:102940000700A207D98F4167130547FE638AA700D6
:102950006362F502FD07C207C1830547636FF70095
:1029600085472390F600DC45014583C70700230017
:10297000F600828015176386E7002390060029453C
:102980008280CC459547411132852390F60015464B
:1029900006C697100020E780404CB2400145410137
:1029A00082802390060005458280828041677917E6
:1029B000630EE502411122C406C685472A84639C42
:1029C000F50022852244B240972500209385056DAD
:1029D00041016F60C05F89476396F5008545EF80D0
:1029E000700165D1B2402244410182808280411150
:1029F00022C42A844165972500209385256A7D1588
:102A000006C6EF60C05C17050000130565FA05886F
:102A1000EF80C07501CC2244B2409386C13D41464F
:102A2000C5451385C12C41016F600050B24022445E
:102A300001454101828009C523A6A16A0145828022
:102A400045458280914763E2A70817B70100130745
:102A500067F70A053A951C41BA9782878547614511
:102A60006397F506834706002380F16A014582805B
:102A700085476145639DF50483470600A380F16A9D
:102A8000F5B7854761456394F504834706002381C4
:102A9000F16AE9BF85476145639BF50283470600FC
:102AA000A381F16AE1B7954761456392F50241114F
:102AB000B2851385416A154606C697100020E78047
:102AC000C039B2400145410182800945828082803F
:102AD000914763E8A70417B701001307E7EF0A055A
:102AE0003A951C41BA97828783C7016A2380F50013
:102AF0000145828083C7116AD5BF83C7216AFDB7AC
:102B000083C7316AE5B741112E8515469385416A21
:102B100006C697100020E7804034B24001454101CD
:102B2000828009458280411193962500AA852D4512
:102B300006C697100020E78060FFB24001454101C2
:102B40008280411122C426C24AC02A842E89B284BE
:102B5000AA85930600200146254506C69710002049
:102B6000E780C0FC931629002686A2852945971088
:102B70000020E780A0FBB240224492440249014574
:102B800041018280011122CC06CE3714004026CAB2
:102B90004AC84EC652C483447405034AB4058349E7
:102BA000840503499405EFF08FEE8347A40593F461
:102BB000F40F137AFA0F93E71700230DF40493F937
:102BC000F90F1379F90FB717004003C7A705058B55
:102BD0006DFF03D5C705A38D4705238C3705A38C4F
:102BE0002705A38B9704F2406244D2444249B2497C
:102BF000224A0561828041119397050122C406C6CD
:102C0000C1872E8463DD0700EF00300B19C1EF0090
:102C100030042165218DB24022444101828093F726
:102C2000150013C51500E5FB9397250163DF070029
:102C3000EF30813937F60200130606E0896503C5D7
:102C4000016BEF0070690965F1B7939715010145B4
:102C5000E3D307FC17B501001305C5DDEF90B131D3
:102C600013060064916503C5016BEF00F066116502
:102C700055B71D71494697B50100938525D717B5FE
:102C800001001305650C86CEEF00B02401E917B5ED
:102C900001001305E5D6EF90112E01A037F700E0F3
:102CA000F9575CC7FD571CCB8566B7E700E023A04A
:102CB000D7101306701010C3B8434146B0C323A009
:102CC000D718B8C3010001001306C00381454808A6
:102CD000EF00101A972700209387873F3ECA896725
:102CE00093870780231CF100ED47A301F1029307AE
:102CF00050102312F1028146D147014681452145FA
:102D00002303F10297100020E78040E2A167938738
:102D100007E03ECE97070000938727E1BEC49707E0
:102D20000000938747E2BEC6B5472308F102B7F516
:102D3000070097F7FFFF9387C77B3EDA8146970727
:102D40000000938767E47000E10519453EDE9710A7
:102D50000020E780A0DD58088147994670003E9624
:102D60000346060085070507A30AC700E398D7FEB8
:102D7000D24791C70357810185676373F70001A0AC
:102D80004808EF10800EAA8501C917B50100130588
:102D900065C8EF90B10C01A0F64025618280411119
:102DA00017050000130565E506C622C4EF1060088C
:102DB0001384016B2300A400292803450400224446
:102DC000B24037F60200130606E0896541016F0044
:102DD000B050411106C6B717004013077005238095
:102DE000E704130780FA2380E70403C7F7021305FB
:102DF000407E814613677700A387E702238007049C
:102E00000147814705468545EFF0EFCAB2400145CD
:102E100041016F10003717B501001305A5C46F906D
:102E20009115011106CE19C589476300F502F240DC
:102E30000561828017B50100130505D4EF90B11329
:102E40009305F10001456931DDB717B501001305A0
:102E500065D4EF9051129305F1000945EDB77D154A
:102E6000954763E6A70A17B701001307E7BC0A05F1
:102E70003A951C41011122CC06CE26CABA972E845F
:102E8000828717B50100130525C8EF90D10E91A0D8
:102E900017B50100130545C8CDBF83D4E50017B5AC
:102EA0000100130565C8EF90110DB14763F3970258
:102EB00017B50100130545C8EF90F10B0355A400A9
:102EC00083C741631307803E814631469945EF70C1
:102ED000D17EF2406244D2440561828017B5010080
:102EE000130585C65DB785471306F10085451305B3
:102EF0005030A307F100EF80013517B5010013052D
:102F000025C661B717B50100130585C6BDBF828010
:102F10007971170500001305C51706D622D426D2ED
:102F2000EF0030719384416305442380A40030088E
:102F3000854513055030230C8100EF80C130138686
:102F40000147FD4513057030EF80E12F1386816343
:102F50009D4513056030EF80012F13868145D545CF
:102F60000145EF40E0129305000A0D45EF20606A2D
:102F70009305000A1145EF20C069300891451305FB
:102F80007040A3068100230781002308810002CC42
:102F9000A3070100EF60B1641306D1008545130556
:102FA0000040EF60D1631306E10085451305104032
:102FB000EF60F1621306F100854513052040EF60D4
:102FC00011621008854513055040EF6051617D5531
:102FD000EF40E0187D55EF50F07CEFF05F897D55B4
:102FE00039347D55EFF02FEA89472307F1008D47EB
:102FF000A307F100B7373233938707133ECCB737B7
:103000003637938747533ECE93878168984383C76B
:1030100047001306D100854501453AC8230AF1004F
:10302000A306810005341306E10085450545193CDA
:103030001306F1008545094531343008A1450D4599
:103040001134100895451145F53A13850163E532B1
:1030500013858162EFF0AFE403C504008545EF00FE
:10306000206DB25022549254456182802E86AA85EA
:1030700001456FF0AFE301112306A1008945680007
:1030800006CEA3060100DD37F24005618280011102
:103090009397050122CC06CE26CA4AC8C1872E8442
:1030A00063D0070203C54163092911C15526A167F1
:1030B0003D8C2285F2406244D244424905618280BF
:1030C00093F715009DC31386C1449385C16C03C556
:1030D0004163EF7031651306803E894503C5416346
:1030E000EF00901F13441400E9B793F7250085C73C
:1030F00089451306803E03C54163EF00F01D2C0097
:103100000D45F93211E53000A1450D45EFF09F93D3
:103110001344240079BF93F74500ADC79384C16B76
:1031200090401389816B832709009315C60017B55A
:10313000010013052594BE95EF9041529C408325D4
:1031400009008566B2070146BE9505459710002027
:10315000E780C09D1375F50F09C5313F1344440046
:1031600089BF9C40850723AEF16A1387016C184321
:10317000E3E1E7F417B5010013050591EF90A15FB6
:103180000145E1BF014435B71305E00FEDB541112D
:1031900022C417240020130464F126C22286AA84C4
:1031A00091469D652D4506C697100020E780009842
:1031B0009306001001469D65254597100020E78085
:1031C000E0962286230094002244B2409244914625
:1031D0009D6529454101171300206700239501458E
:1031E0006FF02FAF79719727002083C727ED06D6A0
:1031F00093C7070811476360F71817B70100130753
:1032000027858A07BA979C43BA978287172600209A
:103210000346D6EA23A4C16C9725002083D525EA6E
:10322000B76703009205BE9517B501001305C58663
:1032300023A2B16CEF9081429387416C8C4383D67B
:10324000816C172600201306A6E709459710002079
:10325000E780C08D1375F50F393DB250456182800E
:103260009725002083D5A5E5B76703009205BE9595
:10327000172600200356C6E417B501001305858301
:1032800023A2B16C23A0C16C23ACB16A23AE016A46
:10329000238A016CEF90813C9387816B9443B777CD
:1032A000030063EFF6009387016C9C43370710001F
:1032B0007D17BA97B207B69737D706006375F70040
:1032C0001305F00F51BF914503C54163952171B7B7
:1032D00017260020034696DE23A4C16C9725002004
:1032E00083D5E5DDB76703009205BE9517A50100FC
:1032F0001305457E23A2B16CEF9041369387816C14
:1033000094439387416C8C4317260020130646DBB9
:103310000D4597100020E780608183C7416D5D8D6A
:103320001375F50F238AA16C05BF17A501001305BE
:10333000257CEF90414465350D45913D2945970029
:103340000020E780206F97000020E780E06631B71B
:1033500017A501001305857AEF90E141B7076003D7
:1033600089073EC6D145C1476800231801002309DB
:10337000F100ED39DDB5093DCDB54111172500202E
:103380001305C5D306C697100020E78000ADB240F4
:10339000410189BD0111914670009D652D4506CE04
:1033A00097000020E78080788346C1000547938717
:1033B000F6FF93F7F70F6367F700A38FD162F24030
:1033C00005618280A38FE162DDBF41111305800496
:1033D00006C697000020E780A04E371700408327DD
:1033E000870A8D451305002093E707202324F70A59
:1033F000EFE0BFFFEFF0CF9597B501009385C5943F
:1034000017A501001305C57AEF90412581460146B5
:103410008145214597000020E7804071A53FEFF0EE
:103420005F85EFF0DF97EF80010ADD349710002011
:10343000E78060A6E5BF23AC05FE1C4181E70CC117
:103440008280BA8703A787FF6DFF23ACB7FE828017
:103450001DC18346E5FF1307F00F9147639EE60009
:10346000411106C697100020E7804042B2408147D4
:103470003E854101828095473E85828001E9014574
:1034800082800145B240224441018280411122C420
:103490002A84210542059305D004418106C6971070
:1034A0000020E780E03171DDFD5723200500231265
:1034B00085002303F5002105F1B71387816D1C43B7
:1034C000411122C426C24AC006C601440149BA8439
:1034D00091E7A165EF00E0760DC401A803C7E7FFFF
:1034E0006318A7021DC8A165A1249840832784FF03
:1034F0006317E40223ACF16CFD57232C04FE230F69
:10350000F4FE2285B2402244924402494101828065
:1035100011E03E8983A787FF65BF3E84E5BF232C6A
:10352000F9FED9BFA9C9411122C406C62A8497371A
:10353000002083C7B73D2E856368F400113F0D4519
:10354000B24022444101828083A785FF99E703C7E7
:10355000E5FF9307F00F6305F700DD3D1545CDB797
:10356000238F85FE1385816DF93522852244B24073
:10357000A165410175AA1545828023AC016C82804A
:103580009387416F9C4399E33E85828003D7270050
:103590006316B70003C70700E308A7FEDC47E5B7DB
:1035A0004111939705014AC006C622C426C2C187AD
:1035B0002E8963DE0700113711C1593D216533455E
:1035C000A900B24022449244024941018280AA8665
:1035D0000145E5D901443D47B3578940858B95CBDB
:1035E0009387416E8443BD4791E28147A2978E073E
:1035F0000545BE9433158500131405019C40C84051
:103600004180829723A0040023A2040033452401B3
:103610004DBF0504E312E4FC0144CDBF9737002001
:103620009387072B9C53411122C406C6138401645F
:1036300095C7829723A0A1640840B74703009387EA
:10364000D73F3305F502B7A72600938737ECB24082
:1036500022443E9523A0A164410182809737002037
:103660009387C72A18409C4BBA9723A0F164E9B707
:103670002A9609E582800505A30FB5FEE31DC5FE68
:10368000D5BF81473307F5000307070019E33E85DF
:1036900082808507C5BF01112E8626CAAA8413150C
:1036A00006019305F004418122CC06CE32C6971064
:1036B0000020E780E0102A8419C53246A6859700CD
:1036C0000020E78080792285F2406244D24405617F
:1036D000828081476314F600054582803307F50038
:1036E0008507B386F5000347070083C6F6FFE3832B
:1036F000E6FE014582809307F6FFBE952A96631386
:10370000C5008280FD1583C715000505A30FF5FED2
:10371000FDB7814711E9014582803307F500034772
:103720000700E31AB7FE8507E319F6FE0545828018
:103730009737002083C7971D637FF5001387C16DFE
:103740009317150008433E9583570500DD8D231020
:10375000B500014582800D45828079714ECE06D636
:1037600022D426D24AD052CC56CA5AC89737002003
:1037700083C7373A9739002093890939D1C39737DE
:10378000002083C7D738ADEF97370020A3830738D1
:10379000173400200344E43789476310F40C97374B
:1037A00000209387672BB8433E8483467700A9CADD
:1037B00003465700B755550037C5898E9385555533
:1037C000130565EDEF20E156173700200347373426
:1037D0009307D7FF93F7D70F91EB97370020238AF2
:1037E000E732854717370020A305F7328947173797
:1037F0000020A30EF7303C40130710FA2383E700A4
:103800009387016F9C43A1C382972A8A0DCD973479
:1038100000209384A40F9C48173900201309490BFA
:10382000814AAA9717370020232AF70EFD5717372A
:1038300000202323F70E9387416F804345E88327B9
:103840004902639A0710B250225492540259F24925
:10385000624AD24A424B456182808D47631EF40220
:10386000973400209384441FBC4403C7770049DB8E
:1038700003C65700B755550037C5898E93855555F2
:10388000130565EDEF20E14A97370020A3818728D3
:10389000BC44130710FB9DB79547E313F4F61737A5
:1038A00000201307E72983476701918BB1DB973726
:1038B000002083C72727858B1736002003467628EC
:1038C0009736002083C6E62799CF484309CD834524
:1038D00015000905EF20511305D58547173700203E
:1038E000A309F72231BF81450145EDB7184481474F
:1038F0006374EA00B3074741032749021CC401CBA4
:10390000D84463F6E700173700202327F70085EB3C
:103910008355240099ED5C44639C0A0223AAF16E4E
:10392000032BC400228597100020E78020F65A84DC
:1039300031B703450400ED3B5C4081CB1CC4835789
:103940002400F1DBA28A4044D5BD1C44E9D7C5BFA1
:1039500023A6FA00F1B79387C16D904397360020F4
:1039600083C6D6FA814713F7F70F6367D70883C773
:1039700079000D47F91793F7F70FE376F7EC9737D0
:10398000002083C7271D918BE39F07EA6800EFC0E3
:1039900000387D57630AE50CB24717340020034412
:1039A00054F4E372F4EAC4449737002083C787F3E2
:1039B0006382E406858BA9CBD147B384F402E37418
:1039C00094E897000020E780C06BB24763F3F400EF
:1039D000A687173400200344D4F0818F3384A700D6
:1039E0008307490163CE0702B707C0A8636AF402E0
:1039F000B70740573E942DA08507139717003297BD
:103A00000357E7FF2DD381B593079002B384F402E7
:103A1000858075B7E207E18763D0070433048540EA
:103A200003D5216E97000020E780204183274902BB
:103A3000228519E03705C0A882971375F50FE314A6
:103A400005E083A78901E38007E0EF20C120EF2094
:103A5000216DEF20A114C5BBE37285FCB707C0A898
:103A6000338487402A946DBFDC44E38EA7DC034790
:103A70004901058B0DC751443384870297370020D5
:103A800083C737E6E3F187DC97000020E780605FBB
:103A90009737002083C7F7E41D8C2A9491B713044D
:103AA0009002338487020580D1BF9737002083C7F7
:103AB000F7E56371F5021387C16D9317150008438D
:103AC00093C5F5FF3E9583570500FD8D2310B50086
:103AD000014582800D4582809737002083C717E318
:103AE0006364F50001458280411122C426C24AC0A8
:103AF00006C62A842E89B284613401C504C50545F1
:103B00002DA0936504F0C205C181414597100020A6
:103B1000E78000CB0DE197370020938767DB9C5B44
:103B200081C7A285114582970145B2402244924443
:103B30000249410182809387416F9C438DE323AA10
:103B4000A16E85472326050004C523112501230006
:103B50008500A300F5002322050055B7BA87D84792
:103B600075FFC8C7F9BF45C539715AD0138B416E6F
:103B700022DC26DA4AD84ED652D45ECE66CA6AC84D
:103B80006EC606DE56D262CC3689328AAE89AA84E7
:103B900001445A8DB94D854BF94C03270B00131C7A
:103BA0003400937AF40F62971C43A9EF13B5FA001F
:103BB00013451500B3978B0063F65D01930714FF5F
:103BC000B397FB0093950701C181528631371DC918
:103BD00083270D000145E29784C323A237016304C4
:103BE000090023005901F2506254D2544259B2598B
:103BF000225A925A025BF24B624CD24C424DB24D69
:103C0000216182800504E31A94F92145E9BF094541
:103C10008280411122C426C24AC006C6AA842E89C7
:103C200032845D3DCA852685EFF09F9509C940C164
:103C30000145B2402244924402494101828021451B
:103C4000CDBF411122C426C24AC006C6AA842E890D
:103C5000EFF01F932A8419C123110500CA85268518
:103C6000A935014511E01945B24022449244024968
:103C7000410182807547636BA7041387416E14432B
:103C8000411126C293143500A696944222C406C65A
:103C9000AA873A84094595C613B5F70039471345F5
:103CA00015006373F700C5178545B395F500C20588
:103CB000C181413F1C400145A69723A0070023A2D4
:103CC0000700B2402244924441018280094582802B
:103CD000411106C6EFF0DF8A09C50845B24041012F
:103CE00082800145E5BFF54763EDA7049387416EE8
:103CF0009C4313173500BA979843894721C7011190
:103D000026CA06CE9334F50022CCB94793C41400DA
:103D100063F3A700451505443314A4004204418011
:103D20002EC62685A2856D378947324609C5A285EC
:103D300026855D338147F2406244D2443E85056169
:103D4000828089473E858280411106C623A8A16EE4
:103D50000295B2409737002023A4A7BC014541013A
:103D60008280854763E7B7008A059387816EBE9599
:103D700088C18280411106C622C426C2EF70A17B91
:103D8000214681451385816EEFF09F8E1734002008
:103D90001304C4B71306000222858145EFF05F8D3E
:103DA00023AA016E23A8016E9737002083C707B4AA
:103DB00013D527008D8B3E958D473305F502994726
:103DC000930510109384816F35051375F50F23014A
:103DD000A4003305F5021305050F97100020E780B6
:103DE000209E23A2A16E834724001305050F88C0DF
:103DF0008A073E9523AEA16CEFF02FF8E92E83479A
:103E00001400984017F6FFFF1306C6799396270013
:103E1000BA9690C293862700850793F7F70FA30001
:103E2000D400B24022448A07BA9790C39244410119
:103E300082809737002083C777AD1737002003476C
:103E400007AD63F1E7021387816F1843938617006C
:103E500017360020A30CD6AA93962700369708C3DE
:103E60003E8582809307F00FE5BF411126C20441D1
:103E700006C622C44AC08947638D04144177658F02
:103E8000B706002089476316D7140359450063021B
:103E900009142A8419469305F00F5905EFF07F871E
:103EA00005478D476307E5124A8681452685EFF071
:103EB0002FFC1306C003814517350020130545A1CB
:103EC000EFF00FFB1306C003A28517350020130582
:103ED00025A097000020E78040F89737002083D77F
:103EE000E79F173700201307A79E99E79307002045
:103EF000973600202394F69E9737002083C7279E8D
:103F000091E7854797360020238BF69C9737002052
:103F100083C7F79C91E7ED4797360020A381F69C75
:103F20009737002083C7C79B91E7954797360020B6
:103F30002388F69A9737002083C7979A91E7854799
:103F400097360020A38EF6989737002083C797995D
:103F500099E78347070197360020A385F69897379E
:103F6000002083C7079891E7D14797360020238A1E
:103F7000F6969737002083C7879799E793078002C3
:103F8000973600202385F6968D469737002083C705
:103F90000796B3D7D7029736002083C69694A9E236
:103FA0009387D70293F7F70F97360020A38BF692EB
:103FB0008347D40191E7894797360020A388F6927A
:103FC0001C5791C78297973700202394A7945D339D
:103FD0008147B2402244924402493E854101828099
:103FE00083463401B6977DBF411106C69700002075
:103FF000E78020099736002083C6C68E858AB1C621
:10400000930730333307F502B337F5023983CA0714
:10401000D98F173700201307678F584B014563036B
:10402000F7023385E740636BF70037653D0889C6C3
:1040300037856F0813050590198D3E9517370020B9
:104040002320F78EB24041018280E5473307F50215
:10405000B337F5022583DE0765BF011122CC06CEFA
:104060002A842EC6EFF08FDBB245F240818D33A556
:10407000A502229562441375F50F05618280011136
:1040800022CC06CE2A842EC6EFF04FD9B245F2409C
:10409000818D33A5A50222956244420541810561C7
:1040A0008280011122CC06CE2A842EC6EFF00FD7D3
:1040B000B245F240818D33B5A50222956244056177
:1040C0008280973700209387A780985725C3411196
:1040D00022C426C206C6BE840297173700200357A3
:1040E00047832A8441C7BA876373A700AA87C20798
:1040F000C183BA866373E400A286C206C182958F2B
:1041000051476355F706DC5491C3829785471737AB
:104110000020230FF79EEF10316B97270020239A82
:10412000877EB2402244924441018280973700202A
:1041300083C7079E9DE7973700209387E79C83C737
:104140009700850793F7F70F17370020A302F79C16
:10415000A18B9DC7854717370020231BF79A6F1047
:10416000116D97370020A385079AD5BF9737002098
:1041700083C7079ADDD72244B24092444101C5B7B4
:104180008280972700209387A774D857011122CCEB
:1041900006CE3E8401C72AC60297324509CD23AE1A
:1041A000A16E17050000130565E4793EF2406244F4
:1041B0000145056182808307440163D907009707A1
:1041C0000020938767E723AEF16EE1BF97070020D9
:1041D000938727EBCDBF011122CC172400201304B5
:1041E000246F084406CE26CA19E50545F24062440C
:1041F000D244056182805C58EDDB185C7DD770008D
:10420000854582971844B247E301F7FE8357C400FF
:10421000172500200345A56C9305E0043305F5023E
:10422000972400209384846E4205418197000020EA
:10423000E7800059172700202328A76E5DD5972710
:10424000002083D7A7691726002003464669330656
:10425000F6029305F00FEFF0AFC1D04C084497275A
:10426000002083D7A76708C29725002083C525674C
:10427000B385F5021C5C89818297C84C97000020A9
:10428000E780C06001459727002023AF0768B9BFCA
:10429000411122C417240020130484631C4426C245
:1042A00006C69724002093846466ADCB1C5CBDC712
:1042B000DC4C8DE78357C400172500200345256299
:1042C0009305E0043305F502420541819700002083
:1042D000E780004F9727002023A8A764C84C1DCD76
:1042E0009727002083D7875F172600200346265F85
:1042F0003306F6029305F00FEFF08FB7D04C084469
:104300009727002083D7875D08C29725002083C5A3
:10431000055DB385F5021C5C89818297C84C09C98B
:1043200097000020E78080569727002023AE075E85
:10433000B24022449244014541018280011126CAC3
:10434000972400209384845C22CCC04C4EC652C477
:1043500056C206CE4AC8AA8AAE89328A31EC1729DB
:1043600000201309E9568327890099E3A94471A025
:104370008357C90017250020034565569305E004BF
:104380003305F5024205418197000020E780404354
:104390002A8441C583274903C9C39725002083C5C3
:1043A00005541727002003576753B385E5022A8673
:1043B000032589008981829791451307A00589818A
:1043C00093972500A29783C607006395E60483C6EA
:1043D0001700639E560385058A054E86A295528571
:1043E00097000020E78060A7DC4C8144638787004A
:1043F000228597000020E7806049F24062442685CC
:104400004249D244B249224A924A0561828083D508
:10441000270075B7DC4CE38B87F4228597000020DA
:10442000E780C046A1B7972700209387674A98473F
:1044300029CB9C5FB9C785466315D504411122C4B9
:10444000172400201304844C504C06C61DC6972622
:10445000002083D6A6489725002083C54548B3850C
:10446000D5023A8589818297484C97000020E780E1
:10447000E0419727002023A9074AB2402244410186
:10448000828082809727002093874748D84F011168
:1044900022CC26CA4AC852C406CE4EC62A89AE8449
:1044A00032843E8A35E7972900209389694283D771
:1044B000C90017250020034585429305E004330514
:1044C000F5024205418197000020E780602F972781
:1044D000002023ABA7442A8611E92945F240624413
:1044E000D2444249B249224A0561828003A589002B
:1044F00005C183A7490389CF9725002083C5253EA1
:10450000172700200357873DB385E50289818297ED
:104510000325CA0191461308A005FD5593D726002F
:10452000C207C183139727002A9703460700631B1E
:104530000603834817000356270063932803B30636
:10454000D64063CD960085078A073E952686A285CC
:1045500097000020E7806090014549B7A300B700AD
:10456000B2866DBF172600200356463797250020D8
:1045700083C5E536B385C502338696001106E3EEA2
:10458000C5F413863400719A1106B2962300070110
:10459000A30027012311D7007DB7014582800111B7
:1045A00006CE2EC6EF60503401C9B245F240035525
:1045B000250005616F905067F24049450561828092
:1045C000A38401722384017223A8017023AA0170BD
:1045D00023AC017023AE017023A6017023A40170E7
:1045E00097270020938787343707B40098C337474D
:1045F000A000D8C3370710009306070A94C7B70670
:104600005000C106D4C7930607054107D8CB37072A
:10461000D007410798CF37070F0098D337C7070057
:10462000130707B8D8D3416794CB93060701130744
:1046300017F8D8D7417723AE070094D798DB82804C
:10464000011126CAAA84214522CC06CE2E8432C668
:1046500036C43AC2EFE09FE21DC9A2461247324675
:10466000930700FD2300F5009947A300950023015F
:10467000F5002303D500A303E5002312C500AA8596
:1046800022856244F240D24405616FE0BFE9F24006
:104690006244D2440561828023A8A170828023AA4B
:1046A000A170828023ACA170828023AEA170828031
:1046B000011122CC4AC806CE26CA2A890144B30475
:1046C00089006368B400F2406244D2444249056103
:1046D00082802EC6EFE09FF493170501C183A1836A
:1046E000B2452380F4009307140093F7F70F850475
:1046F00063F9B700CA9709042380A7001374F40F65
:104700007DBF3E847DBFC167172500200355A525C9
:10471000FD176302F502411103C6417A93850172C8
:1047200006C6EF603006B240FD5717270020231C55
:10473000F72241018280828009C925151375F50F82
:104740001335850E13451500828001458280238034
:104750000500F94763E2C708797122D426D24ECE0C
:1047600056CA5AC806D64AD052CC5EC63684B289DA
:10477000AE8A2A8B814463FF3405B307940003CAD1
:104780000700138914001379F90F63050A04B307AE
:104790002A0163C1F904B307240183CB07005E85B6
:1047A000613F0DC99307FAFF2380FA0063906B0302
:1047B000130519002295B250225492540259F2491D
:1047C000624AD24A424BB24B45618280D29493F402
:1047D000F40F55B70145C5B701458280411126C286
:1047E000AE8422C49727002023A6C718972700204D
:1047F00023A0B7189727002023AAA7162A8441468A
:104800009305F00F26854AC006C60549EFE07FF004
:10481000631E25039727002093878714884BC14583
:10482000413D41469305F00F2285EFE09FEE854420
:104830006316950222449727002093876712B2409F
:1048400092440249C847C14541019DB54146814551
:104850002685EFE01FECE31625FD6DBF414681453F
:104860002285EFE01FEBE30795FCB240224492441F
:10487000024941018280411122C426C22E84AA84A9
:10488000130600028145172500201305650D06C695
:10489000EFE01FDE97270020A385970CA383817A82
:1048A000EF90103A854719C181474945B2402244EB
:1048B000172700202306F70A92444101828081478E
:1048C00081CD19C98547631BF50083C7550093E760
:1048D00007FCA382F50085473E85828089476317E0
:1048E000F50083C7550093F7F703E5B70D478547F4
:1048F000E314E5FE03C755001377F70313670704B6
:10490000A382E500D1BF81478DC105C103C7550012
:104910009306000C85471377070C6308D7009306AE
:1049200000048D476303D70089473E85828041118B
:1049300022C4005D06C626C21DC8AA84085009C547
:1049400097000020E78080F4485009C597000020B8
:10495000E780C0F3085409C597000020E78000F302
:10496000228597000020E78060F223AC0402B24069
:10497000224492444101828009ED9727002083C799
:1049800047FE17250020130525FF81CB13850170F5
:10499000828017250020130525FE82801725002020
:1049A000034525FC828097270020938767FBC84733
:1049B0008280972700209387A7FA884B82809727C9
:1049C00000209387E7F9DC4B8843828097270020FB
:1049D000938707F9D84B1C4385071CC31725002074
:1049E000034535F89307F00F6305F50091656FE017
:1049F0003FD48280011122CC06CE2E8432C6EF60D5
:104A0000E07D9147B245631FF5009387C1719C43D8
:104A10008DC303A30700630E030022856244F240A6
:104A200005610283938741719C4381C703A34700BB
:104A3000DDB7F2406244054505618280011122CC58
:104A40002A840355450006CE26CA4AC84EC6EF60E2
:104A500020612DC52A89834405008349C500C13DD5
:104A60004A85EF70E05003554400EF60A07283C7A1
:104A70008172A9CB6398970483C591722685053608
:104A800019E12384017203554400EF6020759147BA
:104A9000631FF500035744009727002083D7A7EC36
:104AA0006317F700FD5717270020231EF7EAF2408F
:104AB0006244D2444249B2490561828081499304EB
:104AC000F00F75B79307F00FE38FF4FA8346640095
:104AD00003564400034524004E87A685953665B7E6
:104AE00079715EC6AA8B2E8552CC56CA5AC806D694
:104AF00022D426D24AD04ECEAE8A328B368AEF608E
:104B000020566DC1045D2A89F1CC9C50614599C342
:104B1000130540039C5481C751054205418163053B
:104B20000A00710542054181DC5081C759054205E3
:104B30004181EFE0BF942A8455C561468145EFE08D
:104B40003FB39729002083C969E163940900834931
:104B50000900930700FD2300F400A947A300740196
:104B60002301F400230364018C5023125401130524
:104B7000840191C908C47146930A440397F0FF1F4A
:104B8000E780A02D56858C5491C948C45146930A9C
:104B9000450197F0FF1FE780402C5685630C0A0003
:104BA00008C87146D285930AC50197F0FF1FE780B8
:104BB000C02A5685CC5099C548C8594697F0FF1F62
:104BC000E780A029A2854E85EFE0DF952254B25000
:104BD0009254F249624AD24A424BB24B4A85025938
:104BE0004561B1B3B250225492540259F249624A1B
:104BF000D24A424BB24B4561828001114EC6AA890E
:104C00002E854AC806CE22CC26CA2E89EF604045A2
:104C100031C59724002083C464D499E083440500FF
:104C20001945EFE0BF852A8415C981451946EFE093
:104C30003FA4930700FD2300F400B947A30034010B
:104C40002301F40023122401A2856244F240424968
:104C5000B2492685D24405616FE0DF8CF2406244A0
:104C6000D2444249B2490561828039715ECEAA8B35
:104C70002E8526DA4ED652D456D25AD006DE22DC03
:104C80004AD8AE84328BB68A3A8ABE8942C6EF6071
:104C9000203D31C92A894145EFE04FFE2A8421C5D4
:104CA00041468145EFE0DF9C17250020034505CBF9
:104CB00019E103450900930700FD2300F400BD47F7
:104CC0002301F400B247A3007401231294002304CB
:104CD0006401A304540123054401A30534015CC409
:104CE000A285EFE03F84F2506254D2544259B25947
:104CF000225A925A025BF24B21618280797126D24C
:104D0000AA8439454AD04ECE06D622D42EC6B289C0
:104D10003689EFE0AFF621C1B2459307000D2310AD
:104D2000F500B1472A842312B5002301F500CE8592
:104D30001905194697F0FF1FE7802012230624016A
:104D4000A2852254B2500259F24913F5F40F92543D
:104D500045616FE02FFDB250225492540259F2493E
:104D600045618280172700200347B7BF9307F00FE4
:104D7000630DF706411126C2AA84394522C406C62E
:104D80004AC0EFE0AFEF2A8439C9930700FD230042
:104D9000F500A300950023010500972500209385C9
:104DA000A5BD0D05194697F0FF1FE780000B1729D9
:104DB00000201309E9BA83578900A285172500202E
:104DC000034535BA2315F400834719002306F40080
:104DD0002244B2409244024941016FE0AFF4B24034
:104DE000224492440249410182808280011156C2CC
:104DF000AA8A314526CA4AC84EC652C406CE22CC1B
:104E0000AE84328AB6893A89EFE04FE729C92A840D
:104E10002685EF60E0241DCD03450500930700FDC6
:104E20002300F4009D47A30054012301F400231242
:104E30009400231344012314340123152401A28573
:104E40006244F240D2444249B249224A924A056140
:104E50006FE04FED172500200345B5B0C1B7F24014
:104E60006244D2444249B249224A924A0561828050
:104E7000397162CC2A8C594526DA4AD84ED652D49A
:104E800056D25AD05ECE06DE22DCAE8432C636C49E
:104E9000BA8B3E8BC28A468A835901040349410476
:104EA000EFE0CFDD35C53246930700FDA246230073
:104EB000F5009547A301C500A30085012301F50076
:104EC0002A8419461105A9C2B68597F0FF1FE7800D
:104ED000C0F823066401230A240123157401231753
:104EE00054012318440123193401A2856254F2505D
:104EF0004259B259225A925A025BF24B624C2685B1
:104F0000D25421616FE00FE28145EFE06FF6D1B737
:104F1000F2506254D2544259B259225A925A025B08
:104F2000F24B624C216182809727002083C767A3E0
:104F30008DCB4111AA8519461385017006C697F0DD
:104F4000FF1FE78080F1938501701725002003453E
:104F500045A1EFF0DF96B2401385017041016F90DB
:104F6000A04E01458280411106C622C426C21727E1
:104F700000200347179F9307F00F6308F704AA84E4
:104F80002945EFE0AFCF2A8429C1930700FD230014
:104F9000F500A1472301F500A30095009727002005
:104FA0009387079C83C72700938501701105A30F82
:104FB000F5FE194697F0FF1FE78020EAA285172526
:104FC00000200345159AEFE0EFD51727002003478F
:104FD000679985476315F702938781719C4381C761
:104FE0009C4791C382972244B24092445D6603C5B8
:104FF000417A13060670914541016FE09FC1B240AE
:105000002244924441018280797122D406D626D26C
:105010004AD04ECE52CC094445C92A8903550500D1
:105020002E8A5144EF60C003AA8459CD83C7717A98
:10503000FD1793F7F70F054749446377F7080347D0
:10504000C500A1476314F70063100A089C5C45443F
:10505000A5EF9165938545711305C00297F0FF1F79
:10506000E780007688DCAA894D4439CD1306C0025A
:105070008145EFE0EFDF83570900938649003685CD
:105080002391F90071469305490036C697F0FF1F3A
:10509000E780A0DC89472380F90003C5C400B2463D
:1050A00003560900611583C5417A13351500EF8059
:1050B000B0062A8463060A00D2852685EF70601642
:1050C00001C42685EFF0BF862285B2502254925447
:1050D0000259F249624A4561828083C7717AFD179D
:1050E00093F7F70F05476378F708894751C6011111
:1050F00022CC26CA4AC84EC652C406CEAA89368ACF
:10510000B2842E89EF50D0752A84D14729C94855D9
:1051100009C597F0FF1FE7806077F1452685EFE02E
:105120008FD748D4CD4705CD8346C400214781475A
:10513000639FE600630D0A000347A50103560501BE
:1051400093062501AA854E85EF605005AA8703477F
:105150004400630F0900136767002302E400F24074
:105160006244D2444249B249224A3E850561828066
:1051700013674700DDB7C9473E858280E14763EB8F
:10518000A700971700209387677A06053E95035579
:105190000500828041657D158280011122CC2A8420
:1051A0002E8526CA06CEAE84EF50906B0DCDB74744
:1051B0000F009387F723094563E2870281450A853B
:1051C0004146EFE0EFCAA685231081000A854180A1
:1051D00023018100A3010100EF80A056F240624448
:1051E000D244056182804945D5BFA382A17A8280DD
:1051F0006F80806B797152CC2A8A328522D426D274
:105200004AD04ECE56CA5AC85EC606D662C4AE8BC7
:10521000B28A368BBA843E89C2894684EF50506484
:1052200015C92A8C63140A0213774B008347450083
:1052300015CF93E727012302FC008DEC631C0902C4
:10524000639A090205E8ED9B2302FC00832B8C0383
:10525000639F0B06B250225492540259F249624A9B
:10526000D24A424BB24B224C45618280F59B93E778
:105270000701D1B793E747002302FC0001CC1C488B
:105280004146A2852324FC0213058C0197F0FF1FE1
:10529000E780A0BC63910B02D5D80325CC0209C5D9
:1052A00097F0FF1FE780805EF1452685EFE0AFBEF7
:1052B0002326AC0261BFE30B09F80325CC0209C524
:1052C00097F0FF1FE780805CF1454A85C5B79DC414
:1052D00083A70B0299EB916593853571714597F022
:1052E000FF1FE780E04D23A0AB0203A50B0219C509
:1052F0007146A68597F0FF1FE78020B663880902F4
:1053000083A74B0299EB916593852571594597F0D9
:10531000FF1FE780E04A23A2AB0203A54B0219C599
:105320005946CE8597F0FF1FE78020B31DC483A7A1
:105330008B0299EB916593851571514597F0FF1F8D
:10534000E780004823A4AB0203A58B0219C5514690
:10535000A28597F0FF1FE78040B02254B2509254CC
:10536000F249B24B224CCA865A860259424BD68524
:105370005285D24A624A45616FF08FF6011126CA02
:1053800052C406CE22CC4AC84EC62A8AAE84EF50FA
:10539000304D25C5AA893945EFE04F8E2A8431CD9D
:1053A000171900200349895B6314090003C9090028
:1053B0009307000D2310F400AD472301F4009385FB
:1053C000690013053400194697F0FF1FE780E0A835
:1053D00093F71400858085882306F400A3069400C3
:1053E00023154401A2856244F240D244B249224AC4
:1053F0004A85424905616FE0EF92F2406244D2442F
:105400004249B249224A056182809387817088436C
:1054100001CD411106C697F0FF1FE7802047B2403B
:1054200023A40170410182808280011106CE22CC2A
:1054300026CA4AC82EC6EF50B04239CDB245171918
:1054400000200349A951AA840CD56314090003491B
:1054500005004145EFE08F822A841DCD9307000DA2
:105460002310F500A5472301F50083C75400938559
:1054700064001105A30FF5FE194697F0FF1FE780A2
:10548000C09D9C54A285F2405CC46244D2444A85CB
:10549000424905616FE00F89F2406244D2444249BB
:1054A00005618280797122D406D62A842EC6EF50F7
:1054B000303B0DCD8346C5001147AA87494563930C
:1054C000E6029C5FB24599C383C567010808EF6097
:1054D000505E9776000093864664100889452285C1
:1054E000EF608050B2502254456182805145DDBF4B
:1054F00083C7717AFD1793F7F70F0547637AF704AF
:10550000894721CA411122C426C24AC006C6B284B4
:105510002E89EF50F0342A84D14705C5630809006D
:105520008347450093E727002302F5004146A685FF
:105530001305840197F0FF1FE78020929C481CD43C
:105540008147B2402244924402493E854101828013
:10555000C9473E858280797122D406D62A842EC618
:10556000EF50103001CDB2452285230EB1006C08FA
:10557000EF60B047B2502254456182805145DDBF93
:105580006F50903BC1671387E7FF6394E5029387F1
:1055900041719C4391EB494582804945B240224488
:1055A000924402494101828003A30700E30503FE00
:1055B0000283411122C426C24AC006C6FD172A89A9
:1055C0002E84B2846395F502938741719C4391CBFD
:1055D0009C4381CB829711E523842173A38491722C
:1055E00075BFA6854A85EFE09FFB4DF9F5B72E857F
:1055F000EF5010275DD1834705000D45E39027FB51
:1056000022852244B2400249A685924441016F801E
:10561000B061E14763E8A70441677D178947638468
:10562000E504411122C426C206C6C547AE842A84B9
:10563000631AF5001305C0033385A50242054181B5
:10564000EF80106613151400171400201304042EA5
:105650002295B240224423109500814792443E8512
:105660004101828089473E858280011106CE2AC68B
:10567000EFE01FF5EF00107FEF00A072EF50312236
:105680003245971700209387A72D130700F0239129
:10569000E700238207007D579387417AA380E700C4
:1056A0002380A700F240954505616F40A03D5D71E4
:1056B00093970501CAC086C6A2C4A6C24EDE52DCBC
:1056C00056DA5AD85ED662D466D26AD0C1872E899D
:1056D00063D0074C03C5417AEFD03FDE8964416A4D
:1056E000856A797B2A84938BD4007D1AA50A691B6D
:1056F00015E021653345A900B64026449644064985
:10570000F259625AD25A425BB25B225C925C025DF1
:1057100061618280834704001307200A639DE700CC
:1057200003552400171C0020034CBC232286D2857D
:10573000EFF04FAC3DAA1307100903CC517A6397E1
:10574000E716834714001547639EE7002285EFF0B4
:10575000EFAE2285EFD0DFCF03C5417AEFD0FFD582
:105760002A8479B739476399E71603554400631BC8
:1057700055050C4483C90500639D0900850591C941
:105780001946171500201305251F97E0FF1FE78016
:10579000C06C171700200347A71C85476318F71034
:1057A000638A090097170020238C071A4E85EFF0B3
:1057B0006FDB45B78947171700202303F71AEF80DF
:1057C000704841BF93872400631AF506832984003B
:1057D000638E090C83C709008DE383C7290003C7C3
:1057E0001900A207D98F17170020231FF71683C7A8
:1057F000390017170020A305F716171700200347D5
:10580000271689476314F70A83C7090081CB9717C6
:1058100000202387071403C5090051BF8D47971542
:10582000002083C5F513171500200355E51317173E
:1058300000202307F712EF40E027F1BF93875400C1
:105840006318F5001C4403C50700EFF0CFF111B752
:10585000B3076501C207C1831147636FF7009387E0
:1058600081719C43E38707EE9C43E38407EE228526
:105870008297E31005EE1DA89387B400631FF5001F
:10588000938701719C43E38607EC9C43E38307EC19
:10589000A2851385B4008297E9BF9387C400631083
:1058A000F5021C4483C70700E38507EA9307F00F5E
:1058B000E301FCEAA2856285EFD0DFC671BD938764
:1058C000E400E315F5FE938741719C43E38307E809
:1058D000DC43A285E9F3B5BD3D476397E704035573
:1058E0004400E30275FF93879401E30EF5FC938770
:1058F0003401E31DF5FA9717002083D7C706639E8E
:105900004701938741719C43E38507E4DC43E382CD
:1059100007E4A28513853401BDBF9387C1719C4301
:10592000E38907E29C43E5B71307E003E390E7F858
:105930008347240005476396E70E83476400138D71
:105940008170F1E383270D00D5CB03CC0700A1497B
:1059500003457400930C8400E685EFE0DFFA83478B
:105960004401A303A400835804010358E40003572F
:1059700044002A86034534003EC283572401E6864C
:10598000E2853EC0CE87EFF0AFCE8347340095E787
:10599000DD47835804010358E400834674008355AF
:1059A00044003EC2835724013EC06687CE87054629
:1059B0006285EF503018A301A40083270D0081C732
:1059C0001145EFF09FA403C58172E30405D883C598
:1059D0009172EFE0DFBCE30E05D6834634009307F7
:1059E0001003638AF600035644004E8783C5817214
:1059F0003685EFE0FFC423840172A1BB171C002091
:105A0000034C3CF6A9B7938781719C43171C002077
:105A1000034C3CF591498DDFDC439DDB01458297CA
:105A200005BF2947639DE70883476400138D817094
:105A3000ADEB83270D00ADC303CC0700A14903459F
:105A40007400930C4401E685EFE0FFEB834704020A
:105A5000A303A4008358C4010358A40103574400BE
:105A60002A86034534003EC28357E401E686E28578
:105A70003EC0CE87EFF0CFBF834734009DFFDD47A8
:105A80008358C4010358A40183467400835544001D
:105A90003EC28357E40109BF171C0020034C7CEC75
:105AA00071BF938781719C43171C0020034C7CEBD2
:105AB0009149D1D7DC43C1D70145829749B70947FE
:105AC000639DE700938701719C43E38407C8DC432F
:105AD000E38107C822858297ADB92D476399E70016
:105AE000938701719C43E38607C69C47D5B70D4752
:105AF0006397E70022868D450355440015B9194781
:105B00006395E7069305610113051031EF500163BA
:105B10002C0813052031EF5061620356640083574F
:105B200081010355440063E8C7008356840003578E
:105B3000610163F7E60093050002EF80701511B96B
:105B40006374E6002313E40063F4D7002314F40025
:105B50000357C4008356A400035684008355640091
:105B600001488147EF809012EDB61D47E390E7D4DE
:105B700003574400E3ECE7D2971700209387C7E967
:105B800006073E9783576400F1172310F70039BBCF
:105B900093F7150081CF938701719C4389C7DC433C
:105BA00099C30145829713451900B9B693F72500AB
:105BB00081CF938781719C4389C7DC4399C3054595
:105BC0008297134529000DBE93F745000145E385F3
:105BD00007B29717002083C7F7D8A5C7FD1793F71B
:105BE000F70F17170020A30FF7D6A1EF9387C17007
:105BF0009C4391CF8547171700202305F7D693873D
:105C000081719C4389C7DC4399C3054582979717E7
:105C100000209387E7D4C8472C08EF70F01B2808B2
:105C2000EFF08FB097170020938747D083D72702D4
:105C3000914503C5417A17170020A305F7D2EFE07D
:105C40004F80134549004DBC411122C42A8455455B
:105C500006C6EFF0AFD2B335A00022852244B24091
:105C600041016F80A07F797122D406D68D472E84A2
:105C7000631FF50003D7A50083D6850003D6650012
:105C80000345340083D54500EFF04F9609A8896796
:105C90001387D7006310E50403C5250019E5854780
:105CA000B25022543E85456182809387817094432F
:105CB000FDD603C6360083C50600814802C202C075
:105CC0000148814701479106EFF08F9A0545EFF0B3
:105CD000CFF3F1B71387E700E303E5FC1387370140
:105CE000631AE50003C525005DD9014781460146D9
:105CF000814559BFE507E304F5FA41677D17814700
:105D0000E310E5FA03C75500C947E31AF7F883D64D
:105D1000E50003D6C5000355840083D5A500EF80B8
:105D2000A07821C15D45EFF06FC53335A000231E7B
:105D3000A10083454400035524007008EF50E0257E
:105D40008357C101A9FF0357E4008356C4000356DB
:105D5000A40083558400035524000148EF8000719E
:105D60003DBF8547231EF100E9B7C1671387E7FFF1
:105D7000639DE500938781709C4395C383C70700AB
:105D80000D47639CA7006F80A06DFD174947639680
:105D9000F500938781709C43FDF73A8582804947DF
:105DA000EDBF238A017223AE017223AC01729717F3
:105DB00000209387E7BC170700001307E72398C369
:105DC0001707000013070727D8C31707000013079A
:105DD000275998C79387C17217070000130727F93F
:105DE00098C317070000130747E8D8C38280011142
:105DF00022CC1384C1731C4006CE26CA4AC84EC6A4
:105E000052C499CF2E8AAA8401490840631299028C
:105E1000630C0A0497F0FF1FE78040A723AE0172CE
:105E2000F2406244D2444249B249224A056182802A
:105E300093194900B3073501884709C997F0FF1F37
:105E4000E780C0A41C40CE9723A407001C40CE9737
:105E5000C84709C997F0FF1FE78040A31C40BE99BF
:105E600023A60900050955B745DD13964400814571
:105E7000EFD01F80144081477D5613F7F70FE37171
:105E800097FA1397470036972300C7008507F5B7A1
:105E9000011152C4138A817383270A0006CE22CCD3
:105EA00026CA4AC84EC656C25AC0C9CF2A8901441A
:105EB00019ED9387C173944399CA03C641732A8429
:105EC00081479305F00F13F7F70F6367C7081315A2
:105ED00034002105EFD08FDAAA8401E92145EFD003
:105EE000EFD9AA8421C501444D49930700FD2380C1
:105EF000F4008547A38024012381F400A38184005A
:105F00005DC41389840023A224018149938AC1734B
:105F1000130BF00F83C7417363F3F90031E8832754
:105F20000A00A68503C50700EFD0CFDF814503C572
:105F30004173753D03250A0097F0FF1FE780009528
:105F400023AC0172F2406244D2444249B249224A2F
:105F5000924A024B056182801397470036970347A8
:105F600007006305B70005041374F40F8507A1BF8C
:105F700083A70A0093954900BE9583C705006384F3
:105F800067032300F90083C71500130529007D145A
:105F9000A300F900194689051374F40F97E0FF1F59
:105FA000E780A0EB2109850993F9F90FA5B723A292
:105FB0000400B5B7411122C406C62A8405E109458B
:105FC000EFF0CF9B2A8611C5854503C5417AEFD0F6
:105FD000BFB00545EFF05FC72A8401C9854503C5F9
:105FE000417AEFD01FC622856535B240224405456F
:105FF0004101828089671387B700631AE5009387A0
:1060000081739C439DC39C4503C5070065B71387F7
:10601000C7008147631CE5009C4503C50700854711
:1060200011C5938781739C43F5F381473E85828038
:106030001D7186CEA2CCA6CACAC8CEC6D2C4D6C24C
:10604000DAC05EDE62DC66DA6AD86ED663080526E0
:10605000834735002A8A95CB404105C85945EFF062
:10606000EF9193178501E187916B3EC40149938AB3
:1060700081739389C173930C000D130BF00F138D73
:10608000EB7183473A006361F902F6406644D644F7
:106090004649B649264A964A064BF25B625CD25C98
:1060A000425DB25D2561828083078402224763C11D
:1060B000E72A83A70A00B5CB034704008547630B93
:1060C000F70603468400930694009305F101054505
:1060D000EFE0EFE7814719C18347050083460400DD
:1060E00011476381E60203A70A008D4603471700A4
:1060F000630AD70081CB19C70DC98546631FD70234
:106100008D8B85C703451400130C2400E285EFE056
:106110008FFFA300A40083A70900AA84814D95E7FF
:10612000034604009147631AF60C83A709006391A4
:10613000072239A48147014555B78946E317D7FEA1
:10614000858BC1B7850D93FDFD0F83C7417303A5F3
:106150000900E3F7FDFC93974D003E9503470500CA
:10616000E30267FF03471500E31E97FC1946E2852B
:1061700009053EC6EFD0EFD5B24769D583A4090023
:1061800003470400BE94C9DC9147631CF708C84468
:1061900005C583478400034605006306F6080347E8
:1061A00004009147631FF708C84419C597E0FF1F13
:1061B000E780C06D23A6040003458400EA85050539
:1061C00097E0FF1FE780C05F05C5034704009147C4
:1061D0006312F708C8C4834784009305940005053B
:1061E000A30FF5FE0346840097E0FF1FE780E0C69B
:1061F00083478400639207140DBF83A7090095D7D6
:1062000083C541730147E302B7F2BE84C10703C5EA
:1062100007FF6300650D05071377F70FEDB788C417
:10622000FDA08844B5B7930594000505EFD06FCA6B
:106230008547E316F5F65545EFE05FF4630E050E6E
:10624000EDB5884435D997E0FF1FE780206423A48B
:1062500004009DB788C441B7B547231095012301B9
:10626000F50083470400194693052400A301F500B7
:106270008307840215052303F50083471400A30F49
:10628000F5FE97E0FF1FE78040BD034684002386AC
:10629000C40015C21385440188C89305940097E093
:1062A000FF1FE78080BB83A70A00A68503C5070000
:1062B000EFD04FA771A823A80400F5B79387817387
:1062C0009C43E38407DCEFF0BFBC0145EFF0DF97B0
:1062D0006DBB2380C40083471400E285138524002E
:1062E000A380F400194697E0FF1FE78000B703453D
:1062F00084009385FB71050597E0FF1FE780404C04
:1063000005C5034704009147E31BF7F0C8C4834762
:106310008400930594000505A30FF5FE0346840051
:1063200097E0FF1FE78060B38347840091E703474E
:1063300004008547E31BF7DE83A70A00E38707DE37
:10634000034584005105EFD06F93AA84E31605F04E
:106350000509130494021379F90F25B3797106D650
:1063600022D426D24AD04ECE52CC56CA5AC85EC685
:1063700071C183473500AA8985C7444195C05945F5
:10638000EFE0DFDF931A850193DA8A410149138A2E
:106390008173130B00FDC14B83C73900636DF90096
:1063A000B250225492540259F249624AD24A424BA4
:1063B000B24B456182808387F40063C85707832707
:1063C0000A00A5C75145EFD06F8B2A8439CD230031
:1063D0006501A30005002301750183C70400194668
:1063E00093852400A301F5008387F4001505A30617
:1063F000F50083C71400A30FF5FE97E0FF1FE780A9
:10640000C0A583C78400938594001305C400A30529
:10641000F400194697E0FF1FE78020A483270A00B5
:10642000A28503C50700EFD0EF8F0509C1041379DA
:10643000F90F9DB7938781739C43BDD3EFF05FA5A0
:106440002254B25092540259F249624AD24A424B03
:10645000B24B014545616FF02FFF83C7717AA18B65
:106460001385C17291E301456FE06FA3411122C40E
:1064700085452A8403C5417306C6EFF05F9783C73D
:10648000717AA98BA5CB170500201305654F238AC8
:106490008172EFE06FA01384C1731C4091C74D451A
:1064A000B24022444101828003C5417319E1014594
:1064B000C5BF91659385B571120597E0FF1FE78011
:1064C000203023AEA17261DD03C6417312068145FF
:1064D000EFD00F9A104083C641738147FD5513F7E3
:1064E000F70FE376D7FC1397470032972300B700E6
:1064F0008507F5B70145238A0172EFE0EF9945BFA3
:106500009387C170884301CD411106C697E0FF1FF4
:10651000E780C037B24023A60170410182808280AB
:10652000011122CC06CE8D472E846316F50603C7D3
:106530003500E94703D545006318F70097070020A9
:1065400083D767426385A706EF40903109C583571B
:1065500064002317F5000357A400835684000356F4
:1065600064008355440003453400EFE03F8803573F
:1065700044009707002083D7073F6308F70085474B
:10658000F24062443E8505618280FD571707002076
:10659000231BF73CEDB78967CD07631DF50083C763
:1065A000250031476385E7004547E39AE7FCEFE0C4
:1065B0008F95F1B741677D178147E313E5FC83C6EB
:1065C00055004947E39EE6FA83C54500035524007C
:1065D000300023140100EF40301755B7797122D4F1
:1065E0001384C1701C4006D626D24AD00545ADC7DB
:1065F0000D45EFE0BFB8AA841145EFE03FB82A8906
:106600009305F1011305F041EF3041500347F101CB
:106610009707002083C7E734B336F00019C70D474A
:1066200089466384E700B336F0001C4036C603C5D4
:10663000370093854700EFE08FA81040B2462A87C5
:106640008348B6000348A600930746000346260089
:10665000CA852685EF70905FB25022549254025939
:1066600045618280FD572382F1642390017423A445
:10667000017423A6017423A801749707002093874F
:10668000E730170700001307A70798C31707000094
:1066900013070735D8C317070000130767F498C717
:1066A00097070000938707E823A2F17482804111C5
:1066B00026C29384C1709C4006C622C49DCB2A8406
:1066C0000D45EFC0BFDBAA8519CD930700FD230060
:1066D000F5008D47A30085002301F5009C4003C50C
:1066E0000700EFC03FE411C42244B240924441018C
:1066F00001BDB2402244924441018280797122D48A
:1067000003544500896706D626D24AD04ECE52CCD5
:1067100013876700631EE4029387C1709C43814422
:1067200089CF18450345070015E10547A380E70019
:106730000545EF70705219E98544B2502254268500
:1067400002599254F249624A456182808D37EDB711
:10675000138797006365870403C741649307F00FAD
:10676000E30CF7FC1C45114583C40700EFC01FD1A3
:10677000AA8579D1930700FD2300F50089472301FD
:10678000F500F977E1173E9413341400A300950047
:10679000A301850003C54164EFC0DFD871BFA9071D
:1067A0008144E31CF4F81389C170832709004A8AE5
:1067B000C9D7184583C41700854783490700638EEE
:1067C000F4029707002083C7E719BDF70D45EFC016
:1067D000FFCAAA8505C1930700FD2300F500914774
:1067E000A30035012301F5008327090003C5070035
:1067F000EFC05FD3EFF0DFD081B7938781749C4304
:1068000091EF0145EFE09F972A8611C6894503C5A0
:10681000417AEFD06FAC83270A00A9A003C6070016
:10682000938617009305F1000545EFD05FF271D90B
:1068300083470500858BF1D70545EFE03F9493072B
:10684000B0032A8463FDA7025D66130606708945BE
:1068500003C5417A130444FCEFD0AFBB239081748D
:10686000832709000947A380E7009707002083C713
:10687000670F99CB970700202386070E7DBD13066F
:1068800000643306C50251B74E8515357DB5938733
:10689000C1709C43011122CC06CE26CA4AC8454489
:1068A00099E783C7717A13F7570009EB49442285AA
:1068B000F2406244D2444249056182801387817468
:1068C000184341446DD70347070075D3858BAE84C9
:1068D0002A89C1CB83C704000547F91793F7F70F3F
:1068E000E366F7FC916593857571314597E0FF1F6D
:1068F000E78000ED23A6A1704D4455D92300250162
:10690000A30005002946A685090597D0FF1FE7804B
:10691000C054170700200347C7048D47631BF704C3
:10692000EFE06F882C00EF60304B2800EFE0CFDF06
:1069300085474545170700202306F702EFE01F842F
:106940001375F50F97070020A38EA700014425D1EA
:106950005D6613060670914503C5417AEFD06FABB3
:10696000B9B7EFE0FFC12A84EF40E07FE374A4F6FB
:1069700095BFEFF0BFC62A841DD9EFF07FB805BFE1
:10698000411126C29384C1709C4006C622C4A1C393
:1069900083C707000D44639DA702894503C5417A5B
:1069A000EFD02FAA914503C5417A23900174EFD00F
:1069B0004FA997070020A38707FA9C400145A380B1
:1069C00087002244B240924441016F70F02849444C
:1069D0002285B2402244924441018280411106C680
:1069E00085476311F50683D70174A1C717070020F7
:1069F000034747F71DEF1307B0036367F7028945A5
:106A000003C5417AEFD0EFA39307006403D6017466
:106A10003306F602894503C5417AEFD0EF8B239008
:106A20000174B24041018280938747FC2390F17446
:106A3000CDBF9387C1709C43EDD7B24003C507001B
:106A400041013DBF9387C1709C43E1DF83C7717AE9
:106A5000918BE1DB894503C5417AEFD08F9EB2402F
:106A60002390017441016FF0BFA983C7717A958BA0
:106A7000CDC79387817499E1938701759C43D1CFEA
:106A8000FD4763EEC70811C2D9CA411122C426C20C
:106A900006C64AC02382A164B6843284A1C1138988
:106AA0008174032509007D4681450505EFC05FBC63
:106AB00003250900A6852286050597D0FF1FE780DC
:106AC000C039832509002285238085002244B240F5
:106AD00092440249850541016F7090171389017531
