:04C000006F00C064A9
:10C0040000000000000000006F0080086F00001EA8
:10C01400000000000000000000000000000000001C
:10C02400000000000000000000000000000000000C
:10C034006F004006000000006F00E00500000000F3
:10C044006F0080056F0060056F0040056F002005DC
:10C054006F0000056F00E0046F00C00400000000E2
:10C064006F0060046F0040046F0020046F00000440
:10C074006F00801E6F00C003000000006F006003AB
:10C084006F0040036F0020036F0000036F00E002A5
:10C0940001A001A001A001A001A001A001A001A094
:10C0A40001A001A001A001A001A001A001A001A084
:10C0B40001A001A001A001A001A001A0B7170040A8
:10C0C400930670052380D704130780FA2380E704BE
:10C0D40003C6B7041376F60DA385C70423800704AB
:10C0E4001376050225C603C6A700118A0DE2238034
:10C0F400D7042380E70403C7A700136747002385F9
:10C10400E7009307004B01000100FD17EDFFB7178F
:10C114000040930670052380D704130780FA238018
:10C12400E7047D892394A7000100010001000100B8
:10C13400238007042380D7042380E7048546372718
:10C144000040A303D780238007048280137605046C
:10C154006DDE03C6A700418A0DE22380D704238045
:10C16400E70403C7A700136707012385E7009307C4
:10C17400007D01000100FD17EDFFB7170040930695
:10C1840070052380D704130780FA7D892380E70490
:10C19400136505042394A7000100010001000100B8
:10C1A400238007042380D7042380E7048D463727A0
:10C1B400004041BF4111814601468145014506C603
:10C1C400AD2AB7170040130770052380E70413074F
:10C1D40080FA2380E70403C76704136717002383E7
:10C1E400E70423800704B24041018280814601466E
:10C1F400814501459922B717004013077005238034
:10C20400E704130780FA2380E7047D572396E702A7
:10C2140003C76704136717002383E7042380070415
:10C2240001A0BD473305F50201007D1575FD82802F
:10C23400411122C426C206C6AA840144631794008D
:10C24400B240224492444101828005041305803E99
:10C254004204C13F4180DDB7B71700401307000314
:10C264002388E7028547170700002323F76C730030
:10C274002030411122C406C641643C5C8297F5BF5C
:10C284002303048095472303F4802302A48082803F
:10C2940083076480E3CE07FE230304808280830740
:10C2A4006480E3CE07FE0345448082808307648074
:10C2B400E3CE07FE2302A4808280411126C44AC231
:10C2C4004EC006C61377F50BAD47AA892E8995444F
:10C2D4006306F70019456D37653F8D444E854D372C
:10C2E400FD59FD1463983401B240A24412498249B5
:10C2F40041018280135509011375F50F453F220949
:10C30400CDB7011126CC06CEB70408005137154528
:10C31400853F713769372AC6A53F324593771500A3
:10C3240089EB136515001375F50FF240E2440561BE
:10C334008280FD14E9FC0145CDBF397126DC4ADA5F
:10C344004ED852D656D45AD25ED006DE62CE66CCD1
:10C35400B7E700E07D5783AA070022C603AA470077
:10C3640023A0E71823A2E718B717004013077005A6
:10C374002380E704130780FA2380E70483C7470474
:10C38400930B75FFB684E20793FBFB0F8546AA89DE
:10C394002E8B328937240040E187015763FA7601F6
:10C3A4006308D5008946130700026313D5000157BB
:10C3B400D98F93F7F70FB71C00402382FC04114771
:10C3C4002303E4801305F00F653D094CD1356369FF
:10C3D4007C11B70707003E9B378707007955637EBA
:10C3E400EB02B3079B00636AF702A9476399F90656
:10C3F40089E48144713D26850DA0DA850945753DA2
:10C4040005090345F9FFFD14050B4D3581C49377E8
:10C41400FB0FFDF7FD3569FD7D55B7170040130788
:10C4240070052380E704130780FA2380E70403C719
:10C434004704418B2382E704F250B7E700E023A0CE
:10C44400571123A24711E25432445259C259325A65
:10C45400A25A125B825B724CE24C21618280A54736
:10C464006395F90685691309F00FB3069900B3744F
:10C474002B01B6941349F9FFB3749900856B337992
:10C484006901416B9387F9FFB3F7270199E363FCD3
:10C49400340193D94900C147E3E637FF99BF0569E1
:10C4A400C1697D19D9B71305800D63886901130526
:10C4B40000026384790113051008CA85FD3B913598
:10C4C40021DD4E99B3843441D9B7DA852D45F5334E
:10C4D400CA94E30099F20509D933A30FA9FED5BF85
:10C4E4009387F9FF93F7F70F636CFC0803C75C04A9
:10C4F400B70708001377070219E3B78707007955D0
:10C50400E37DFBF033079B00E3E9E7F089476390A1
:10C51400F9048980D549E38E04ECDA850945713B39
:10C5240011090327C9FF91472320E480030764808E
:10C53400E34E07FE23033481FD17EDFBFD14110BBD
:10C5440081C49377FB0FE9FF6D3B71F5F1B5854726
:10C55400E387F9F4DA852D458D339389F4FFE38A73
:10C5640004E8353B93F7390091EB832604800327D5
:10C57400090093074900E39FE6E63E89CE84F1BFB4
:10C58400B5476396F9001305900BDD399DB5B147A6
:10C594001305B00AE38BF9FE9947639EF902DA8525
:10C5A4002D45213B81448D4BA149D53963967401B6
:10C5B400832704802320F9008504E39834FF83272C
:10C5C400048013172B01635507002312F90015B5D6
:10C5D4002322F90039BD9D476391F9028145130572
:10C5E400B004E1399D44FD595D39B30799002380B6
:10C5F400A700FD14E39A34FFEDBBA1476392F9044D
:10C6040009338144630D0B00854793044004630898
:10C61400FB009304000563048B019304C0031375AA
:10C62400C507E30895DC1945A1399D3105458939CC
:10C634002685AD3909459D39E931E31C05DAE9BBA5
:08C64400E38909DAF1547DB32A
:10C64C009781FF1F9381411B17C1FF1F1301C19AD3
:10C65C00170500001305859A9785FF1F9385C5194B
:10C66C001786FF1F1306C67D63FAC50083220500DB
:10C67C0023A0550011059105E3EAC5FE172500001E
:10C68C001305453B9795FF1F938505971796FF1F3D
:10C69C00130686A863FAC5008322050023A0550063
:10C6AC0011059105E3EAC5FE1795FF1F1305C5A6F5
:10C6BC0097A5FF1F9385452F6377B50023200500B1
:10C6CC001105E36DB5FEB72200009382828873A03A
:10C6DC0002309782FF1F9382221293E21200739012
:10C6EC00523097120000938262D9739012346F30DB
:10C6FC007010730020303D432A876373C302937715
:10C70C00F700BDEFADE5937606FF3D8ABA960CC3F4
:10C71C004CC30CC74CC74107E36BD7FE11E28280B8
:10C72C00B306C3408A069702000096966780A6005F
:10C73C002307B700A306B7002306B700A305B7006D
:10C74C002305B700A304B7002304B700A303B70065
:10C75C002303B700A302B7002302B700A301B7005D
:10C76C002301B700A300B7002300B700828093F524
:10C77C00F50F93968500D58D93960501D58D61B7F0
:10C78C00939627009702000096968682E78086FA99
:10C79C009680C1171D8F3E96E374C3F8A5B7B717E3
:10C7AC00004003C777051377E70FA38BE704130744
:10C7BC0000F8A38DE7043D47238CE70413075003CF
:10C7CC00A38CE704828041112A83014E930E407E94
:10C7DC00130F0019930F400663EB6E0A93080019B0
:10C7EC0013034006B3781503854E0D4FA14F3373D9
:10C7FC0065020D891335150063E5BE0C1308F6FFB1
:10C80C00794672984208135808013307C70213D6A9
:10C81C001700BE0732976146B3F6C6021306807046
:10C82C00B386C6023697A166F58F42075D8FB717A0
:10C83C00004083C6F70293F60608A307D10003460F
:10C84C00F10083C6F70293F60608E394C6FE83460E
:10C85C00F10093F6F60FF1DE930670052380D704F2
:10C86C00930680FA2380D70423AA070383C61703F1
:10C87C0093E60608A388D702D8DB03C71703136710
:10C88C000704A388E70223800704410182807D13FB
:10C89C003368E3039308E016630E08003368F30370
:10C8AC009308D016630808009378330093B81800E7
:10C8BC009388D81633081E01131E0801135E0E014F
:10C8CC0021BF6393E50305486386080001486303B1
:10C8DC0003002A8871087298FD15131E0801C20501
:10C8EC00135E0E01C18109BF13F8150063F4BF007C
:10C8FC007908D5B713381800E5BF914763EEB70236
:10C90C0017270000130787EC8A05BA959C41BA9744
:10C91C008287B717004003A7470B1345F5FF698FB4
:10C92C0023AAE70A03A7070B698F23A8E70A03A723
:10C93C00070A798D23A0A70A8280B717004083A627
:10C94C00470B1347F5FFF98E23AAD70A83A6070BCB
:10C95C00558D23A8A70A83A6070A758F23A0E70A7B
:10C96C008280B717004003A7470B498F23AAE70A19
:10C97C0003A7070B1345F5FF45BFB717004083A668
:10C98C00470B1347F5FF758F23AAE70A03A7070A7E
:10C99C00598D4DB7B717004003A7470B498FEDB71B
:10C9AC00B717004003D587004205418193770504F2
:10C9BC0091EB9377F5013755E80113050580334565
:10C9CC00F50282809377050C130700046397E70048
:10C9DC009377F50137459C1CCDB72165130505D020
:10C9EC00828037E700E01C435443A183E206D58FD5
:10C9FC001CC1FD572320F7182322F7188280B7F7A4
:10CA0C0000E0C8439C478280814737370040A146ED
:10CA1C0063C4C700328582800345B740E38EA6FE0F
:10CA2C003385F5000345050085072304A740CDB7E2
:10CA3C00411122C406C62A84A5372947B307E5024B
:10CA4C00B2408D83B3D7870222449507B3D7E70250
:10CA5C0037370040C207C1832316F740410182805B
:10CA6C00716541111305052006C6D937B73700404B
:10CA7C00130770F82381E7400D47A381E7401307A4
:10CA8C000004A380E74005472387E740B2404101FB
:10CA9C008280411122C406C603C70500894705449C
:10CAAC006311F704D8412944834717000347070053
:10CABC00A207D98FC207C187130710EE6393E70251
:10CACC009787FF1F238BD764814793F6F60F9785C3
:10CADC00FF1F93856569139707014183636FD70225
:10CAEC0001441786FF1F034646631DC29787FF1F2D
:10CAFC009387C7629C4389CFDC4399CB9785FF1FF3
:10CB0C0093858566014582979787FF1F238707606A
:10CB1C002285B2402244410182803307F60003454E
:10CB2C0007003387F50085072300A7006DB703C7FF
:10CB3C0005008947631AF706D84183471700034756
:10CB4C000700A207D98FC207C187130710EE63999C
:10CB5C00E7043285239006001786FF1F0346D65B39
:10CB6C0019E201458280C167FC47411106C623903A
:10CB7C00C6009785FF1F9385E55D82979787FF1FFA
:10CB8C00A38C07589787FF1F938747599C430145F0
:10CB9C0089C79C4399C382970145B2404101828069
:10CBAC00239006002945828023900600054582804B
:10CBBC00058919CDC16703A307139786FF1F9386B9
:10CBCC00A647414691451785FF1F1305E542028391
:10CBDC000145828019C59787FF1F23A1A7540145E2
:10CBEC0082804545828051476363C7021787FF1FC8
:10CBFC00A304C752C167FC47411106C61785FF1F26
:10CC0C00130545558297B2400145410182801305B9
:10CC1C00E00F8280411193962500AA852D4506C60A
:10CC2C009780FF1FE780E0F0B24001454101828010
:10CC3C00411122C426C24AC02A842E89B284AA85F4
:10CC4C00930600200146254506C69780FF1FE78006
:10CC5C0040EE931629002686A28529459780FF1F52
:10CC6C00E78020EDB2402244924402490145410143
:10CC7C008280011122CC06CE3714004026CA4AC845
:10CC8C004EC652C483447405034AB40583498405D3
:10CC9C000349940529368347A40593F4F40F137ABA
:10CCAC00FA0F93E71700230DF40493F9F90F137996
:10CCBC00F90FB717004003C7A705058B6DFF03D508
:10CCCC00C705A38D4705238C3705A38C2705A38B9C
:10CCDC009704F2406244D2444249B249224A056167
:10CCEC00828041119397050122C406C626C2C187D2
:10CCFC002E8463DF0700C164FC54829719C1BC54B5
:10CD0C0082972165218DB240224492444101828058
:10CD1C0093F7150013C51500FDF79397250163D301
:10CD2C000702C16483A7C41E8297BC4C37F602006D
:10CD3C00130606E089651785FF1F0345653E82973C
:10CD4C000965C9B7939715010145E3DE07FA172565
:10CD5C000000130565ADEF00F00CC167BC4F130666
:10CD6C00006491651785FF1F0345853B829711650C
:10CD7C0051BF1D71A2CC41645C5C485886CE4946BB
:10CD8C00972500009385C5A5829701E9172500001A
:10CD9C00130545A6EF00100901A037F700E0F9577D
:10CDAC005CC7FD571CCB8566B7E700E023A0D71006
:10CDBC001306701010C3B8434146B0C323A0D71854
:10CDCC00B8C3010001003C441306C0038145480868
:10CDDC0082979787FF1F9387E73C3ECA89679387A3
:10CDEC000780231CF100ED47A301F10293075010BB
:10CDFC002312F1028146D147014681452145230387
:10CE0C00F1029780FF1FE780C0D2A167938707E0EC
:10CE1C003ECE97070000938727E0BEC4970700001B
:10CE2C00938747E1BEC6B5472308F102B7F5070063
:10CE3C00970700009387E7BC3EDA8146970700000E
:10CE4C00938767E37000E10519453EDE9780FF1F6D
:10CE5C00E78020CE58088147994670003E960346DD
:10CE6C00060085070507A30AC700E398D7FED2473B
:10CE7C0091C70357810185676373F70001A0C167F0
:10CE8C0083A7470A48088297AA8519C51725000069
:10CE9C00130585978D2D01A0F6406644256182808F
:10CEAC00411126C2C16483A7040806C622C4170513
:10CEBC000000130545E382971784FF1F13044426D3
:10CECC002300A400392803450400224403A384054D
:10CEDC00B240924437F60200130606E08965410120
:10CEEC000283411106C6B717004013077005238053
:10CEFC00E704130780FA2380E70403C7F70213053E
:10CF0C00407E814613677700A387E70223800704DE
:10CF1C0001478147054685457D30C167B24003A373
:10CF2C004707014541010283172500001305C592EF
:10CF3C00D5AD7D15954763E9A70A172700001307A0
:10CF4C00E78E0A053A951C41011122CC06CE26CA61
:10CF5C00BA972E848287172500001305259AD925A8
:10CF6C00A1A0172500001305659AD5BF83D4E50051
:10CF7C00172500001305859A7525B14763F69702AE
:10CF8C00172500001305859A712DC16703A8871A10
:10CF9C000355A4009787FF1F83C7C7161307803E4E
:10CFAC008146314699450298F2406244D24405616B
:10CFBC008280172500001305659855B78547A30790
:10CFCC00F100C16783A747171306F10085451305C8
:10CFDC0050308297172500001305C59749B71725C0
:10CFEC00000013052598A5BF8280011122CC416455
:10CFFC008327040806CE26CA170500001305050D65
:10D00C0082979784FF1F9384E40F85472380A400A5
:10D01C00A307F100832744171306F1008545130578
:10D02C0050308297832744171786FF1F13068604F8
:10D03C00FD45130570308297832744171786FF1F11
:10D04C001306860C9D451305603082978327841444
:10D05C001786FF1F13068600D54501458297832747
:10D06C004415930500020D458297832744159305BB
:10D07C00000211458297832704157D5582978327DB
:10D08C0044137D5582977D5525361785FF1F130553
:10D09C00E50689363C4803C5040085458297F24075
:10D0AC006244D244056182802E86AA85014525BE44
:10D0BC0001112306A1008945680006CEA3060100D4
:10D0CC00E537F2400561828041119397050122C436
:10D0DC0006C626C24AC0C1872E8463D50702C16426
:10D0EC00FC541785FF1F0345E501829719C1BC54F9
:10D0FC008297A1673D8C2285B2402244924402491A
:10D10C004101828093F715008DCFC16483A7441A27
:10D11C001786FF1F1306C6F39785FF1F938505021D
:10D12C001785FF1F034505FE8297BC4C1306803EF6
:10D13C0089451785FF1F0345E5FC829713441400AE
:10D14C005DBF93F7250091CFC167BC4F1306803E9E
:10D15C0089451785FF1F0345E5FA82971344240080
:10D16C0059BF93F74500BDCB9784FF1F938404FCF4
:10D17C0090401789FF1F130929FB8327090093157A
:10D18C00C600171500001305256EBE95AD2E9C40EC
:10D19C00832509008566B2070146BE950545978033
:10D1AC00FF1FE78000991375F50F09C5113713445C
:10D1BC00440091B79C4085071787FF1F2328F7F67B
:10D1CC001787FF1F1307C7F61843E3E6E7F2171597
:10D1DC0000001305A56AB9210145C9BF014421BF4F
:10D1EC001305E00FF1B5411122C41784FF1F13047E
:10D1FC0024F926C22286AA8491469D652D4506C631
:10D20C009780FF1FE780E0929306001001469D6512
:10D21C0025459780FF1FE780C0912286230094004C
:10D22C002244B240924491469D65294541011783A1
:10D23C00FF1F6700039001456FF0AFFA7971978774
:10D24C00FF1F83C7E7F406D693C707081147636B24
:10D25C00F718171700001307E75E8A07BA979C4365
:10D26C00BA9782879785FF1F83D5A5F21786FF1F74
:10D27C00034616F2920517150000130525619787D2
:10D28C00FF1F23ABC7EA9787FF1F23A5B7EAA52C7F
:10D29C009787FF1F938707EA8C439786FF1F83D6D8
:10D2AC00A6E91786FF1F1306E6EE09459780FF1FB8
:10D2BC00E78020881375F50FE53BBDA09787FF1F0E
:10D2CC0083D727ED92071787FF1F2325F7E61787CC
:10D2DC00FF1F035727EC09459786FF1F23AAE6E497
:10D2EC001787FF1F2322F7E49787FF1F23A007E46C
:10D2FC009787FF1F238807E4FD359787FF1F9387C8
:10D30C0027E390439787FF1F9387C7E28C4317153A
:10D31C00000013056559C52AC167BC4B914517859B
:10D32C00FF1F034525DE8297B250456182809785A9
:10D33C00FF1F83D505E61786FF1F034676E592058A
:10D34C0017150000130545589787FF1F23A6C7DE46
:10D35C009787FF1F23A0B7DE7D229787FF1F938738
:10D36C00A7DD94439787FF1F9387C7DC8C431786F1
:10D37C00FF1F130626E20D459770FF1FE780607BA9
:10D38C009787FF1F83C707DC5D8D1375F50F978794
:10D39C00FF1F2389A7DA0DB7171500001305855455
:10D3AC005124513D0545813529459770FF1FE78074
:10D3BC00A067856782979770FF1FE780205FADB7E6
:10D3CC00171500001305C552B12CB707C00089070B
:10D3DC003EC6D145C1476800231801002309F1005E
:10D3EC00E13199B7F53B89B7C167FC47411106C6D6
:10D3FC001785FF1F1305C5D98297B24041013DBD6A
:10D40C000111914670009D652D4506CE9770FF1F4A
:10D41C00E78020720347C10089469307F7FF93F713
:10D42C00F70F63E5F6049787FF1FA382E7CE978576
:10D43C00FF1F83C5D5CD1715000013052553E1201B
:10D44C001787FF1F0347B7CC8547631EF7001715D7
:10D45C00000013056552F92215459770FF1FE780F0
:10D46C00A05C85678297F2400561828085471787AB
:10D47C00FF1FA30EF7C865BF41111305800406C634
:10D48C0022C49770FF1FE780E042371400408327C7
:10D49C00840A8D451305002093E707202324F40A02
:10D4AC00EFF0AFC5EFF0CFDBC167C85BA52A8146B3
:10D4BC000146814521459770FF1FE78080678937BA
:10D4CC00834744049D8B85C71787FF1F034737C4C9
:10D4DC008D47631EF700171500001305E5499922C7
:10D4EC0015459770FF1FE780205485678297EFF0F2
:10D4FC005F887D32C16783A7071A8297FD349770C6
:10D50C00FF1FE780805639713EDA2ED232D436D6E0
:10D51C003AD842DC46DE9787FF1F938767BF22CC41
:10D52C00804326CA06CEAA8409C41C4C99E32285E2
:10D53C0035230C4454102686228536C6EF00F0188D
:10D54C00F2406244D24421618280011126CA4AC849
:10D55C0006CE22CC4EC652C4AA842E8901C51C4DBF
:10D56C0091E3ED299C4C804499E32685C5299717B6
:10D57C00000093872743631CF402C0408357C40008
:10D58C00A18BB1C71C48A1C7FD59294A1C4483452E
:10D59C000900FD17B1E91CC463DE07062286A94504
:10D5AC0026854128FD576308F502294535A09717B4
:10D5BC000000938727416314F4008044C1B7971788
:10D5CC0000009387273CE31BF4FAC04445BFA285B7
:10D5DC002685052255D97D55F2406244D2444249F4
:10D5EC00B249224A056182801CC4050963D7070031
:10D5FC00184C63CBE700638945011C401387170067
:10D60C0018C02380B70059B7228626851D20E31F3A
:10D61C0035F7D1B71C401387170018C02947238052
:10D62C00E70061B79787FF1F938787AEAA8588436A
:10D63C0029BF011122CC26CA4AC806CE4EC6AA84DE
:10D64C002E89328401C51C4D91E3092997170000DE
:10D65C00938747356319F406C0401C4C1CC4835790
:10D66C00C400A18BC9C31C48BDCF1C48084093798A
:10D67C00F90F1379F90F1D8D5C486346F500A285EF
:10D68C002685752C2DE51C440505FD171CC41C4076
:10D69C001387170018C0238037015C486389A700E3
:10D6AC008357C400858B81CBA9476316F900A285EB
:10D6BC00268571240DEDF24062444A85D2444249DC
:10D6CC00B24905618280971700009387A72F6314D6
:10D6DC00F400804459B7971700009387A72AE31EDC
:10D6EC00F4F6C0449DBFA285268521203DDD7D59E1
:10D6FC00D9B741119787FF1F938787A126C284430F
:10D70C0022C44AC006C62A892E8489C49C4C99E33B
:10D71C002685A926971700009387C728631CF40257
:10D72C00C0400317C40093170701C18393F6870009
:10D73C00B5EE93F607019DEEA5472320F90013677C
:10D74C0007042316E4007D55B2402244924402495A
:10D75C0041018280971700009387C7266314F40059
:10D76C008044C1B7971700009387C721E31BF4FAD5
:10D77C00C04445BF918B8DC74C5889C9930744044D
:10D78C006384F5004A859123232A04028357C4003D
:10D79C002322040093F7B7FD2316F4001C481CC089
:10D7AC008357C40093E787002316F4001C4881EFCD
:10D7BC008357C4001307002093F707286385E700FD
:10D7CC00A2854A85A5218357C40013F7170005C706
:10D7DC005C4823240400B307F0401CCC1C480145D2
:10D7EC00A5F78317C40013F7070839DF93E707047D
:10D7FC002316F40089BF898B014791E3584818C45C
:10D80C00F1BF83D7C500011122CC26CA06CE4AC867
:10D81C004EC613F78700AA842E8471EFD841634D4E
:10D82C00E000B841634AE0000145F2406244D24452
:10D83C004249B2490561828058547DD703A904003E
:10D84C009396370123A0040063DD060670488357C6
:10D85C00C400918B99C75C401D8E5C5899C33C40A9
:10D86C001D8E5C540C50814626858297FD570357BC
:10D87C00C400631DF5009440F54763E8D706B7076D
:10D88C0040208507B3D7D700858BA5C31C4823221E
:10D89C0004001CC09317370163D80700FD576314AD
:10D8AC00F5009C4091E368C84C5823A02401ADDDE1
:10D8BC00930744046384F50026850129232A040276
:10D8CC00A5B70C500146854626850297FD572A863A
:10D8DC00E31FF5F69C40A5DF75476385E7005947C4
:10D8EC006394E70423A0240181B71367070423166C
:10D8FC00E4007D551DBF83A90501E38709F203A947
:10D90C0005008D8B23A0350133093941014791E383
:10D91C00D84918C4E35A20F11C540C50CA864E86C0
:10D92C00268582976349A0008357C40093E70704B8
:10D93C002316F4007DBFAA993309A940E1BF9C4985
:10D94C00B9CF011122CC06CE2A8411C51C4D81E71A
:10D95C002EC62922B245971700009387A704639B14
:10D96C00F5004C408397C50095C722856244F24070
:10D97C00056141BD971700009387C7046394F500B8
:10D98C000C44CDB7971700009387C7FFE39CF5FCB9
:10D99C004C44C9BFF2406244014505618280014597
:10D9AC008280411122C406C62A842316B50023178F
:10D9BC00C500232005002322050023240500232273
:10D9CC00050623280500232A0500232C05002146E3
:10D9DC0081451305C505EFE01FD29717000093870B
:10D9EC0067B65CD0971700009387C7B81CD49717FD
:10D9FC000000938707BD5CD4971700009387C7BFBF
:10DA0C0000D01CD8B240224441018280970500000E
:10DA1C00938525F389AA411126C2130680069384A7
:10DA2C00F5FFB384C4024AC02E8922C406C693856E
:10DA3C004407A1262A8401CD232005002322250199
:10DA4C00310508C4138684068145EFE0DFCA2285C0
:10DA5C00B240224492440249410182801C4DBDE3F4
:10DA6C00411106C622C497070000938767FA1CD59C
:10DA7C00971700009387C7FB9C4323240504232698
:10DA8C000504232805046314F50085471CCD2A845E
:10DA9C001D2848C02285052808C422852D2048C48D
:10DAAC00484001469145F53D08440546A545D53D00
:10DABC0048440946C945F53585471CCCB24022443B
:10DACC00410182808280411197170000938747F6AD
:10DADC0026C284434AC006C69C4C22C42A8999E3B8
:10DAEC002685AD3F938484048044DC40FD1763D6C7
:10DAFC0007009C40B9CF8440C5BF0317C40039E769
:10DB0C00C177850723220406232004002322040066
:10DB1C00232404005CC423280400232A0400232C9F
:10DB2C000400214681451305C405EFE0DFBC232A20
:10DB3C000402232C04022324040423260404228537
:10DB4C00B24022449244024941018280130484066B
:10DB5C0071BF91454A85C13588C051FDB14723201D
:10DB6C00F9000144E9BF797122D44AD052CC56CA8B
:10DB7C005AC85EC606D626D24ECE2A8AAE8A130460
:10DB8C0085040149054BFD5B09ECB25022544A85D2
:10DB9C0092540259F249624AD24A424BB24B456105
:10DBAC008280044483294400FD1963D40900004099
:10DBBC00E1BF83D7C400637BFB008397E4006387DA
:10DBCC007701A6855285829A3369A90093848406CD
:10DBDC00E1BF1971A6DAAE848395E500A2DC86DE7E
:10DBEC00328463DC050083D7C40023A0060093F7BE
:10DBFC00070885E7930700401DA0300836C6EF00E4
:10DC0C003026B246E34105FE7247BD67F98F79773E
:10DC1C00BA9793B717009CC2F1BF930700041CC0BE
:10DC2C00F6506654D65401450961828083D7C500ED
:10DC3C00011122CC06CE26CA4AC8898B2E8489CFE4
:10DC4C00930774041CC01CC885475CC8F24062442E
:10DC5C00D24442490561828074003000AA84953F09
:10DC6C00A2452A892685112A01ED8317C40013F7D2
:10DC7C00072069FFF19B93E727002316F400C9B72F
:10DC8C00970700009387C7D89CD48357C40008C05B
:10DC9C0008C893E707082316F400A2475CC8B247EC
:10DCAC0091CF8315E4002685EF00B01E01C9835780
:10DCBC00C400F19B93E717002316F4008357C400AC
:10DCCC003369F9002316240151B7DDC583A7C5FFBD
:10DCDC00411122C406C626C21384C5FF63D30700B4
:10DCEC003E94AA84EF00D0229777FF1F9387C745F5
:10DCFC009C4391EF232204009777FF1F23A68744B0
:10DD0C002244B2402685924441016F009020637EEC
:10DD1C00F40014403307D4006396E7009843DC43C7
:10DD2C00369718C05CC0C9BFBA87D84319C3E37D06
:10DD3C00E4FE94433386D700631F86001040B296EE
:10DD4C0094C33386D700E31DC7FA10435843B296E9
:10DD5C0094C3D8C375B76375C400B1479CC04DB7A5
:10DD6C001040B306C4006316D70014435843B29650
:10DD7C0014C058C0C0C369B78280011126CA9384ED
:10DD8C003500F19806CE22CC4AC84EC6A104B14744
:10DD9C0063F9F404B14463E8B4042A89EF00501722
:10DDAC009777FF1F9387473A98433A8439E49777DC
:10DDBC00FF1F9387A7399C4381EB81454A85892FA7
:10DDCC009777FF1F23A4A738A6854A859127FD596D
:10DDDC00631B3507B1472320F9004A85EF00701308
:10DDEC0029A0E3DA04FAB1471CC10145F2406244B0
:10DDFC00D2444249B249056182801C40858F63C17F
:10DE0C000704AD4663F6F6001CC03E9404C001A89E
:10DE1C005C40631587021777FF1F2327F7324A856B
:10DE2C00EF00300F1305B4009307440061993307DA
:10DE3C00F5404DDF3A94898F1CC04DBF5CC3C5B70C
:10DE4C0022874040A5B7130435007198E30085FC88
:10DE5C00B305A4404A856D2DE31A35FBA5BF1C46BE
:10DE6C00FD171CC663DA0700184E63C5E700A94707
:10DE7C006394F5006FF0EFFB1C422E85138717009F
:10DE8C0018C22380B7008280011122CC26CA4AC84E
:10DE9C004EC652C406CE2A89AE893284B304D6004B
:10DEAC007D5A63149400014509A8834504004E86ED
:10DEBC004A8575370504E31645FFF2406244D244A7
:10DECC004249B249224A05618280357122CD26CB66
:10DEDC004AC94EC706CF52C556C35AC1DEDEE2DC74
:10DEEC00E6DAAA89AE843289368401C51C4D91E3E9
:10DEFC00B536971700009387E7AA639BF40C83A4AD
:10DF0C00490083D7C400A18BF5C79C48E5C793078C
:10DF1C000002A304F1029307000302D22305F102CD
:10DF2C0022C6930B5002971A0000938AAAAB054C99
:10DF3C00294B4A848347040099C36390770FB30C31
:10DF4C002441638D0C00E6864A86A6854E852D3FBE
:10DF5C00FD576306F51E9256E69636D283470400AB
:10DF6C00638F071CFD571309140002C802CE3ECA6A
:10DF7C0002CCA309010482D48345090015465685B9
:10DF8C009D2F13041900C24759E913F7070109C75C
:10DF9C0013070002A309E10413F7870009C713074D
:10DFAC00B002A309E104834609001307A0026380B1
:10DFBC00E608F2474A848146254603470400930548
:10DFCC001400130707FD6379E60AB5CA3ECE85A88F
:10DFDC00971700009387079F6395F40083A489002B
:10DFEC000DB7971700009387E799E39CF4F083A48F
:10DFFC00C90001BFA6854E85EFF0AFEF09D97D555D
:10E00C00FA406A44DA444A49BA492A4A9A4A0A4BBB
:10E01C00F65B665CD65C0D618280050421BF33051E
:10E02C0055413315AC00C98F3EC82289B1B7324770
:10E03C0093064700184336C6634907023ACE034796
:10E04C0004009307E002631FF704034714009307CF
:10E05C00A002631BF702B2470904138747009C43D5
:10E06C003AC663C107023ECA35A83307E04093E7BE
:10E07C0027003ACE3EC8E1B7B387670385462E84A6
:10E08C00BA9725BFFD57C5B7050402CA814681471B
:10E09C0025460347040093051400130707FD637618
:10E0AC00E606F1F2834504000D4617150000130532
:10E0BC00E593912511CD97170000938727931D8D1C
:10E0CC0093070004B397A700424505045D8D2AC849
:10E0DC0083450400194617150000130565911309B3
:10E0EC0014002304B102012D3DC19727FFFF938734
:10E0FC00A7F095E74247B2471377071009CF91076E
:10E10C003EC69257D2973ED22DB5B387670385464C
:10E11C002E84BA97BDBF9D07E19BA107D5B77800A8
:10E12C0097060000938686D626860C084E859700A7
:10E13C000000E7000000FD572A8AE314F5FC83D7A2
:10E14C00C40093F70704E39C07EA125555BD780009
:10E15C0097060000938686D326860C084E85012AE6
:10E16C00D9BF797156CA9C49BA8A984522D426D20D
:10E17C004ECE52CC06D64AD05AC85EC6AA892E8438
:10E18C00B284368A63D3E700BA879CC00347340451
:10E19C0019C385079CC01C4093F7070281C79C409C
:10E1AC0089079CC00329040013796900631A0900CC
:10E1BC00130B9401FD5B5C449840998F634CF904FC
:10E1CC001C408346340493F70702B336D000A5EB0A
:10E1DC0013063404D2854E85829AFD576303F504E9
:10E1EC001C4011469840998B544481446397C70056
:10E1FC00B384E64063D3040081441C441848635440
:10E20C00F700998FBE94014969047D5B63982405DE
:10E21C00014509A885465A86D2854E85829A631E89
:10E22C0075017D55B250225492540259F249624AFA
:10E23C00D24A424BB24B456182800509ADBF3307D0
:10E24C00D40013060003A301C704034754049387A7
:10E25C001600A2978906A381E7049DBF85462286F6
:10E26C00D2854E85829AE30E65FB050945B7797117
:10E27C0022D426D24AD04ECE06D652CC56CA5AC832
:10E28C00B68983C685019307E0063289AA842E8459
:10E29C00138635046380F61E63E2D70693073006B7
:10E2AC006382F60A63EDD700638A061E9307800526
:10E2BC006386F616930A24042301D40469A89307F1
:10E2CC0040066386F60093079006E395F6FE1C4025
:10E2DC00084393F6070893054500C1C21C410CC3C3
:10E2EC0063D807001307D002B307F040A301E4047E
:10E2FC009706000093864670294765A09307300760
:10E30C006382F61A63EFD7009307F006638FF60467
:10E31C0093070007E390F6FA9C4193E707029CC130
:10E32C0009A8930750076382F60493078007E393C9
:10E33C00F6F893078007A302F4049706000093866F
:10E34C00E66CDDA01C43938A2504938647009C430E
:10E35C0014C32381F5048547ADA293F607041C4131
:10E36C000CC3BDDEC207C187A5BF0C401C4313F80C
:10E37C000508138547006305080008C39C4339A0B2
:10E38C0093F5050408C3FDD983D707001307F006DE
:10E39C00638AE60C97060000938606662947A3015C
:10E3AC0004044C400CC463C5050008406D9908C0BA
:10E3BC0099E3B28A91CDB28AB3F5E702FD1AB6950C
:10E3CC0083C505002380BA00B3D5E70263F2E70AE0
:10E3DC00A147631EF7001C40858B91CB58401C480D
:10E3EC0063C7E70093070003A38FFAFEFD1A3306F9
:10E3FC00564110C84E87CA867000A2852685953373
:10E40C007D5A6314450D7D55B250225492540259D5
:10E41C00F249624AD24A424B45618280A382D504BA
:10E42C00970600009386465D0C40084313F80508D8
:10E43C001C4111056300080208C313F7150001C73E
:10E44C0093E505020CC04147B9FB0C4093F5F5FD73
:10E45C000CC0B1B713F8050408C3E30008FEC207EB
:10E46C00C183E1BF9706000093860659214705BF7B
:10E47C00AE8799B794411C43CC4913F80608138511
:10E48C0047006306080008C39C438CC301A808C35B
:10E49C0093F606049C43F5DA2390B7002328040076
:10E4AC00B28A89BF1C43D04181459386470014C36F
:10E4BC0083AA07005685812401C53305554148C000
:10E4CC005C401CC8A301040435B714485686CA85A1
:10E4DC0026858299E30945F31C40898B8DE7B24769
:10E4EC004844E353F5F23E8505B785465686CA8502
:10E4FC0026858299E30965F1050A5C443247998FB8
:10E50C00E345FAFEE9BF014A930A94017D5BF5B736
:10E51C00411122C42A842E859787FF1F23A4074804
:10E52C0006C69D2CFD576319F5009787FF1F93872F
:10E53C0067479C4391C31CC0B24022444101828076
:10E54C00411122C42E848395E50006C6E12263495D
:10E55C0005007C48AA977CC8B240224441018280C5
:10E56C008357C4007D777D17F98F2316F400EDB720
:10E57C0083D7C500011122CC26CA4AC84EC606CE86
:10E58C0093F70710AA842E843289B68991C7839594
:10E59C00E5008946014635228357C4007D777D17F7
:10E5AC00F98F2316F4008315E4006244F240CE8602
:10E5BC004A86B24942492685D24405613DA841119B
:10E5CC0022C42E848395E50006C6E528FD57035723
:10E5DC00C400631BF500FD77FD17F98F2316F400BB
:10E5EC00B2402244410182808567D98F2316F40002
:10E5FC0068C8FDB78395E50025A8411122C42A847B
:10E60C002E85B28536869787FF1F23AD073806C641
:10E61C00EFE08FBFFD576319F5009787FF1F9387B6
:10E62C0067389C4391C31CC0B24022444101828094
:10E63C00411122C42A842E859787FF1F23A40736F5
:10E64C0006C61922FD576319F5009787FF1F93879C
:10E65C0067359C4391C31CC0B24022444101828067
:10E66C00411122C42A842E85B2859787FF1F23ABC4
:10E67C00073206C6D520FD576319F5009787FF1F93
:10E68C00938747329C4391C31CC0B2402244410142
:10E69C008280411122C42A842E859787FF1F23A3D1
:10E6AC00073006C6D120FD576319F5009787FF1F69
:10E6BC009387472F9C4391C31CC0B2402244410115
:10E6CC008280411122C42A842E85B2853686978792
:10E6DC00FF1F23A9072C06C64520FD576319F5001B
:10E6EC009787FF1F9387072C9C4391C31CC0B24094
:10E6FC0022444101828093F5F50F2A966314C500DC
:10E70C000145828083470500E38DB7FE0505FDB703
:10E71C0082808280411122C42A842E85B28536865D
:10E72C009787FF1F23A0072806C6B928FD57631932
:10E73C00F5009787FF1F9387E7269C4391C31CC066
:10E74C00B240224441018280930780051787FF1F46
:10E75C00232AF7247D558280930780051787FF1F96
:10E76C002322F7247D558280930780051787FF1F8E
:10E77C00232AF72201458280930780051787FF1F04
:10E78C002322F7227D558280930780051787FF1F70
:10E79C00232AF7207D5582809777FF1F9387479B0D
:10E7AC009C4381CB3E951777FF1F2323A79A3E8569
:10E7BC0082809787FF1F9387271F3E951777FF1F30
:10E7CC002328A7983E8582804AE1FFFF72E1FFFF74
:10E7DC009AE1FFFFB2E1FFFFCCE1FFFF4348353781
:10E7EC00785F424C455F4C49425F56312E340000F5
:10E7FC00686561642066696C65206572726F722E43
:10E80C002E2E00004C494220696E6974206572728C
:10E81C006F7220636F64653A202578202E2E2E0AA5
:10E82C00000000002A2000002EE7FFFF3AE7FFFF60
:10E83C0094E7FFFF44E7FFFF8AE7FFFFB6E7FFFF20
:10E84C0024EAFFFF7CEAFFFFEEEAFFFF58EBFFFF35
:10E85C0080EBFFFF4F54412053656E6420436F6D76
:10E86C0070200D0045524153453A25303878206EC2
:10E87C00756D3A25640D0A00455241534520436F8E
:10E88C006D706C6574650D004941505F50524F4D71
:10E89C003A2025303878206C656E3A2564200D0AB4
:10E8AC00000000004941505F4552415345207374AC
:10E8BC006172743A25303878206E756D3A25640D86
:10E8CC000A0000004941505F5645524946593A20CA
:10E8DC0025303878206C656E3A2564200D0A0000CE
:10E8EC004941505F454E44200D0000004941505FA6
:10E8FC00494E464F200D0000496E697469616C6980
:10E90C007A65642E2E00000041647665727469731A
:10E91C00696E672E2E000000436F6E6E6563746522
:10E92C00642E2E200000000053656E642055706428
:10E93C006174650D00000000436F6E6E6563746555
:10E94C0064204164766572746973696E672E2E005B
:10E95C00446973636F6E6E65637465642E2E00007C
:10E96C004572726F722E2E00496D616765202530DD
:10E97C0032780A006A756D702041707020000000BA
:10E98C00000000000000000000000000000000007B
:10E99C00000000000000000000000000000000006B
:10E9AC00000000000000000000000000000000005B
:10E9BC00000000000000000000000000000000004B
:10E9CC00000000000000000000000000000000003B
:10E9DC00000000000000000000000000000000002B
:10E9EC00232D302B20000000686C4C0065666745B9
:10E9FC0046470000303132333435363738394142EE
:10EA0C00434445460000000030313233343536374C
:10EA1C00383961626364656600000000E0FE000046
:10EA2C000200000028EA0000E1FE00009C500020DB
:10EA3C00020000000C000100010000002CEA0000A4
:10EA4C000200000012000100010000000051002033
:10EA5C000200000034EA00000300000020510020F6
:10EA6C000200000016000100010000004C500020C4
:10EA7C003ACB00009ECA0000000000004F54412019
:10EA8C004368616E6E656C003ECF000000000000B4
:10EA9C00000000004F54414F54415F4F54414F54BC
:10EAAC00415F4F54410000000000000012094F5418
:10EABC00414F54415F4F54414F54415F4F544105B6
:10EACC001206000C00020A0000000000000000000A
:10EADC00ACE90000CCE900008CE90000000000006B
:10EAEC00000000000000000000000000000000001A
:10EAFC00000000000000000000000000000000000A
:10EB0C0000000000000000000000000000000000F9
:10EB1C0000000000000000000000000000000000E9
:10EB2C0000000000000000000000000000000000D9
:10EB3C000E00000034CF0000F4D30000FF000000F2
:10EB4C000201060302E0FFFF9C50002000000000C1
:040000030000C00039
:00000001FF
