:100000006F004000975100209381412C1781002000
:10001000130141FF1305800A973500209385857EE3
:10002000175600201306669263FAC5008322050066
:1000300023A0550011059105E3EAC5FE17B501009F
:100040001305851B97550020938545901386818461
:1000500063FAC5008322050023A055001105910510
:10006000E3EAC5FE13858184977500209385C581D9
:100070006377B500232005001105E36DB5FE9302FB
:10008000800873A00230973200209382A27793E217
:10009000120073905230972200009382428D739029
:0800A00012347300203000004F
:1000A80000000000000000006F0080086F00801A48
:1000B8000000000000000000000000000000000038
:1000C8000000000000000000000000000000000028
:1000D8006F004006000000006F00E005000000000F
:1000E8006F0080056F0060056F0040056F002005F8
:1000F8006F0000056F00E0046F00C00400000000FE
:100108006F0060046F0040046F0020046F0000045B
:100118006F00601A6F00C003000000006F006003EA
:100128006F0040036F0020036F0000036F00E002C0
:1001380001A001A001A001A001A001A001A001A0AF
:1001480001A001A001A001A001A001A001A001A09F
:1001580001A001A001A001A001A001A0B7170040C3
:10016800930670052380D704130780FA2380E704D9
:1001780003C6B7041376F60DA385C70423800704C6
:100188001376050225C603C6A700118A0DE223804F
:10019800D7042380E70403C7A70013674700238514
:1001A800E7009307004B01000100FD17EDFFB717AB
:1001B8000040930670052380D704130780FA238034
:1001C800E7047D892394A7000100010001000100D4
:1001D800238007042380D7042380E7048546372734
:1001E8000040A303D7802380070482801376050488
:1001F8006DDE03C6A700418A0DE22380D704238061
:10020800E70403C7A700136707012385E7009307DF
:10021800007D01000100FD17EDFFB71700409306B0
:1002280070052380D704130780FA7D892380E704AB
:10023800136505042394A7000100010001000100D3
:10024800238007042380D7042380E7048D463727BB
:10025800004041BFB7170040130770052380E7042B
:10026800130780FA2380E7047D572396E70203C724
:100278006704136717002383E7042380070401A09A
:10028800BD473305F50201007D1575FD82804111DA
:1002980022C426C206C6AA84014463179400B24049
:1002A800224492444101828005041305803E4204A1
:1002B800C13F4180DDB7B71700401307000323880B
:1002C800E702854723A8F1AC73002030230304809C
:1002D80095472303F4802302A480828083076480E7
:1002E800E3CE07FE23030480828083076480E3CE85
:1002F80007FE03454480828083076480E3CE07FEBF
:100308002302A4808280411126C44AC24EC006C678
:100318001377F50BAD47AA892E8995446306F70034
:1003280019456D37653F8D444E854D37FD59FD1490
:1003380063983401B240A244124982494101828043
:10034800135509011375F50F453F2209CDB7011162
:1003580026CC06CEB704080051371545853F7137BE
:1003680069372AC6A53F3245058901C9FD14F5F448
:100378007D55F240E244056182800145DDBF397157
:1003880026DC4ADA4ED852D656D45AD25ED006DE89
:1003980062CEB7E700E07D5783AB070022C603AB08
:1003A800470023A0E71823A2E718B7170040130750
:1003B80070052380E704130780FA2380E70483C7C6
:1003C8004704130975FFB689E2071379F90F8546C3
:1003D800AA8AAE84328A37240040E187015763FA3B
:1003E80026016308D5008946130700026313D50068
:1003F8000157D98F93F7F70F371C00401147230295
:10040800FC042303E4801305F00FC935C13D0947F7
:1004180063692711B7070700BE9437870700795922
:1004280063FFE402B3873401636BF702A947639A59
:10043800FA0663940900014915A0A6850945E13526
:10044800050A0345FAFFFD1985047D356385090012
:1004580093F7F40FF5F7E53D2A8961DD4135B717C4
:100468000040130770052380E704130780FA2380F0
:10047800E70403C747044A85418B2382E704F25007
:10048800B7E700E023A0771123A26711E2543244B2
:100498005259C259325AA25A125B825B724C21617C
:1004A8008280A5476394FA06056A9307F00FB3861E
:1004B8003701B3F9F400B69993C7F7FFB3F93701D9
:1004C800FD8CC16A056C9307FAFFE58F99E363FC1D
:1004D8004901135A4A00C147E3E747FFA9BF8567A7
:1004E800416AFD17E9B71305800D63085A01130522
:1004F800000263048A0113051008A6852935813D89
:100508002A8931FDD294B3894941D1B7A6852D45B1
:10051800DD3BD299E3013AF3050AC13BA30FAAFEDA
:10052800D5BF9387FAFF93F7F70F6360F70A03477E
:100538005C04B70708001377070219E3B7870700B9
:100548007959E3FEF4F033873401E3EAE7F08947A9
:100558006393FA0493D92900D54AE38E09ECA6855A
:1005680009455533110A0327CAFF91472320E48020
:1005780003076480E34E07FE23035481FD17EDFB58
:10058800FD1991046385090093F7F40FE1FFC13366
:100598002A8961D5E1B58547E383FAF4A6852D4517
:1005A8009D334E899304F9FFE30709E83D3B93F730
:1005B800340091EB8326048003270A0093074A003E
:1005C800E39EE6E83E8A2689F1BFB5476396FA00BE
:1005D8001305900BE53985B5B1471305B00AE38BD0
:1005E800FAFE9947639EFA02A6852D45293B0149E3
:1005F8008D4AA149DD3963165901832704802320D8
:10060800FA000509E31839FF8327048013972401AA
:10061800635507002312FA0039BD2322FA0021BDD1
:100628009D476391FA0281451305B004E9399D4459
:100638007D596539B3079A002380A700FD14E39A12
:1006480024FFD5BBA1476396FA0219454131793198
:100658000545AD39014581C8854713050005638403
:10066800F4001305C003493909457931CD312A8988
:10067800F5B3E3820ADC7159D5B319C1814799E909
:1006880082803387F500834607003307F500850726
:100698002300D700E397C7FEE5B7797122D4172462
:1006A80000001304247C4AD006D626D24ECE52CC63
:1006B80056CA5AC85EC662C466C26AC022891C404D
:1006C800A9EB972400009384E479972A0000938A81
:1006D800EA793714004093097005130A80FA173B2A
:1006E8000000130B2B9B973B0000938BAB9C094C92
:1006F8008D4C154DDC4085E383475B00858BADE36E
:1007080083C7CB00918BA5CF97E000E0E78020C698
:10071800BDA082976DB79727000083C7277799CB2D
:10072800230034052300440583D781842316F4026B
:1007380023000404DC4082979727000083C70775CD
:1007480099CB230034052300440583D7A1842316BD
:10075800F4022300040483270900D9DF8297E5BF48
:1007680097370000A38A07929737000083C7F7924C
:1007780063978713352D97B000E0E780A0A4910414
:10078800E39A9AF69737000083C75791B9CB973702
:100798000000A3850790173400000344249089477C
:1007A800631FF4109734000093840481BC4003C78E
:1007B800170105CB03C67700B755550037C5898E95
:1007C80093855555130565ED97D000E0E780202304
:1007D80097370000A383878CBC40130710FA238641
:1007E800E700972700009387A7689843172600001B
:1007F800034656653E849727000083C7A7649396EF
:100808001700BA9683D60600638706149727000058
:1008180083C7476363EBC7149727000023840762E5
:1008280083270900B9EF9727000083C727668DC380
:10083800B7170040130770052380E704130780FAF1
:100848002380E70403D781842396E70223800704E3
:1008580097E0FFDFE78060D59727000083C707632D
:100868008DC3B7170040130770052380E7041307EB
:1008780080FA2380E70403D7A1842396E702238024
:100888000704B250225492540259F249624AD24A99
:10089800424BB24B224C924C024D45618280639888
:1008A80097013923978000E0E78040A5C9BDE39808
:1008B800A7EDFD2997D000E0E7802063C9B58D47F3
:1008C8006314F404972400009384046FBC4483C722
:1008D8007700E38807F0BC40B755550037C5898EC7
:1008E80003C6770093855555130565ED97D000E04D
:1008F800E780E01097270000A381877ABC4413079C
:1009080010FB2383E700F1BD9547E31CF4EC1727A0
:1009180000001307277A8347E700918BE38307ECEE
:100928009727000083C78775858B17260000034625
:1009380096789726000083C6067899CB484309C95C
:1009480083451500090597D000E0E780A03951BD1F
:1009580081450145CDBF850793F7F70F972600001E
:100968002382F64EE3E9C7E855B586073E978355D7
:100978000700231007009727000083C727518DC35E
:10098800B7170040130770052380E704130780FAA0
:100998002380E70403D781842396E7022380070492
:1009A800972700009387C74B9C43172500000345F2
:1009B800654913172500BA979C438297972700002B
:1009C80083C7C74C8DC3B717004013077005238032
:1009D800E704130780FA2380E70403D7A18423964A
:1009E800E702238007049727000083C7A7451397CA
:1009F80017001C40BA9703D70700598D2390A7000A
:100A0800972700009387074483C70700850793F754
:100A1800F70F172700002307F7421727000003479F
:100A28007742E3EFE7DECDBB0357C5039727000006
:100A380083C78745636CF700834785002308050053
:100A480093C747002304F5000545828097270000D7
:100A5800938787619C43FDE3411122C42A84416541
:100A6800130525F506C6977000E0E78060504DCD68
:100A78008347A5002315F5008327440FC9EF232AD0
:100A8800A40E232CA40E8547231EF402232605005A
:100A98008347B40014412313F5000347A40023023D
:100AA800E500172700001307E75E184F13851702A4
:100AB80015811C437D151375F50F9CC25C43938605
:100AC80006021307070223A2F6FE832787FE23A444
:100AD800F6FE8327C7FE23A6F6FE832707FF23A873
:100AE800F6FE832747FF23AAF6FE832787FF23AC5A
:100AF800F6FE8327C7FF23AEF6FE45FD97270000C5
:100B080083D7074C850717270000231BF74AB240F5
:100B18002244410182808327840FC8C78357C403B6
:100B2800232CA40E85078DB783478400230804006F
:100B3800094593C747002304F400D1BF83478500C4
:100B48002308050093C747002304F5000D4582805C
:100B5800172700001307C75114439C5E8583858BB4
:100B6800C1CF9C5EF59B9CDE0100010001000100E5
:100B78000100010001000100010001000100010065
:100B88000100010001000100010001000100010055
:100B98000100010001000100010001000100010045
:100BA8000100010001000100010001000100010035
:100BB8000100010001000100010001000100010025
:100BC8000100010001000100010001000100010015
:100BD8000100010001000100010001000100010005
:100BE8000100010001000100972700009387474C8E
:100BF8009443BC4ABD9BBCCA18431C5F9983858B30
:100C0800A9CF1C5F93F7F7FB1CDF9727000083C76A
:100C1800674893F70704172700001307A74781CFF2
:100C2800B7170040945F17260000232DD646104BB7
:100C3800945FE319D6FE854797260000A38EF644F5
:100C4800930700F8972600002388F64497270000AA
:100C5800938707469C435847B8D37300203097279B
:100C680000009387E7449C43094797260000938632
:100C7800664298C3B7F700E003C72600058B15E75F
:100C880003C73600058B15E303C74600058B11EF34
:100C980003A707D16D9B23A8E7D003A707D15D9BC6
:100CA80023A8E7D073005010C1BF828097260000A8
:100CB8009386463EB7F700E003C73600058B15E379
:100CC80003C74600058B11EF03A707D16D9B23A827
:100CD800E7D003A707D15D9B23A8E7D07300501086
:100CE800E1BF8280972700009387873C9C431307C6
:100CF800A0051306C003B8CB9306200337C70040EE
:100D0800972500009385053983278720C18393F7AA
:100D1800F7036369F60083278720C18393F7F703F6
:100D280063E6F60083C74500858BF9DF8280972745
:100D380000009387E7379C431307A0071306C003F7
:100D4800B8CB9306200337C700409725000093854A
:100D5800653483278720C18393F7F7036369F60017
:100D680083278720C18393F7F70363E6F60083C7D9
:100D78004500858BF9DF82809726000093868631AF
:100D8800B7F700E003C72600058B15E303C7460045
:100D9800058B11EF03A707D16D9B23A8E7D003A705
:100DA80007D15D9B23A8E7D073005010E1BF828074
:100DB800972600009386062EB7F700E003C70600C3
:100DC800058B15E703C71600058B15E303C7460017
:100DD800058B11EF03A707D16D9B23A8E7D003A7C5
:100DE80007D15D9B23A8E7D073005010C1BF828054
:100DF800972700009387C72B9C431307A0054146FC
:100E0800B8CBE54637C7004097250000938585286D
:100E180083278720C18393F7F703637DF600832731
:100E28008720C18393F7F70363E6F60083C745007D
:100E3800858BF9DF828097270000938767279C437B
:100E48001307A0074146B8CBE54637C700409725AA
:100E580000009385252483278720C18393F7F70310
:100E6800637DF60083278720C18393F7F70363E642
:100E7800F60083C74500858BF9DF8280972600003E
:100E880093864621B7F700E003C71600058B15E3E4
:100E980003C74600058B11EF03A707D16D9B23A855
:100EA800E7D003A707D15D9B23A8E7D073005010B4
:100EB800E1BF8280972700009387871F9C4398474C
:100EC8002183058B39C398471377F7EF98C71727FE
:100ED80000000347271C1367170097260000238B81
:100EE800E61A172700002309071A17270000130717
:100EF800A718184319CB104B4C4B1442CD8E14C273
:100F0800104318471442558F18C298472583058BFC
:100F18003DC79847370600101377F7DF98C717279C
:100F280000001307E7141443D856719B1367270072
:100F3800D8D69842518F98C2172700001307C713B5
:100F4800184319CB50430C471442CD8E14C2504756
:100F5800584B1442558F18C2172700000347A71390
:100F680013671700972600002387E612130700F877
:100F7800972600002382E61213070019B8D3984772
:100F88000583058B0DCF9847759B98C7054797260E
:100F98000000A382E61017270000230F070E17276B
:100FA80000001307670D184319CB104B4C4B144224
:100FB800CD8E14C2104318471442558F18C2984753
:100FC800058B0DCF9847799B98C705479726000052
:100FD800A382E60C172700002300070C1727000040
:100FE80013078709184319CB50430C471442CD8E79
:100FF80014C25047584B1442558F18C2984793163D
:10100800170163D406029847F176FD16758F98C7C5
:1010180017270000034747086207618763570700DF
:101028000547972600002389E60698471183058B14
:1010380001C798473D9B98C773002030A167850773
:101048006397F50083C7418AF9E70145828075DD1A
:10105800EDDDB307A0408D8BAA974111C20706C6E4
:1010680022C4C183130740036369F70617270000EA
:101078001307C70A0843172700001307A7091443D3
:101088002E84638FA6060357650029EF0357450092
:10109800636AF704B306F74021466370D60210412D
:1010A800938687001D8FAA96611790C22392E60047
:1010B8002393060014C12312F500A16723138500AA
:1010C80085076317F40083C7418AFD172382F18AD5
:1010D8002105B240224441018280172700001307EE
:1010E800A70349BF084113172500E34C07F89727C2
:1010F8000000938767D89C5B81C7AA8509458297BA
:1011080097270000938747D79C5B81C7A285054531
:10111800829701457DBF15FD0DBF55E582808C4343
:101128006363F50863E1A50893868700636CD50AB5
:1011380003D56700A16685066317D50083C6418A73
:1011480085062382D18A239307006386070397269F
:101158000000938666FC9442638FF600835667000E
:1011680099EA8356470083D747000CC3B697A1076F
:101178002312F700BA8798436306C706972600002C
:10118800938686F99442630FD70483566700B9EAB9
:1011980083D64700035647001843A106B296239208
:1011A800D70098C38280939625003E87AE8763C98F
:1011B800060297270000938727CC03A3070363033E
:1011C80003020945028397270000938727F503A8A0
:1011D8000700972700009387E7F390430147C287EA
:0611E800E3EFC7F2828074
:1011F0003D432A876373C3029377F700BDEFADE5E4
:10120000937606FF3D8ABA960CC34CC30CC74CC7F5
:101210004107E36BD7FE11E28280B306C3408A0622
:101220009702000096966780A6002307B700A306E2
:10123000B7002306B700A305B7002305B700A30432
:10124000B7002304B700A303B7002303B700A3022A
:10125000B7002302B700A301B7002301B700A30022
:10126000B7002300B700828093F5F50F93968500B1
:10127000D58D93960501D58D61B79396270097027A
:10128000000096968682E78086FA9680C1171D8FA9
:101290003E96E374C3F8A5B7F947B387F502E14674
:1012A00093551600130780703E06AE97B375D502AE
:1012B0003355D502B385E50241677D17798E798D67
:1012C000AE97C2075D8E93057005B7170040238067
:1012D000B704930580FA2380B704C8DB03C717035C
:1012E00013670708A388E702D0DB03C71703136758
:1012F0000704A388E702238007048280914763EEF6
:10130000B70217A70100130767818A05BA959C41A8
:10131000BA978287B717004003A7470B1345F5FF1D
:10132000698F23AAE70A03A7070B698F23A8E70A97
:1013300003A7070A798D23A0A70A8280B717004068
:1013400083A6470B1347F5FFF98E23AAD70A83A676
:10135000070B558D23A8A70A83A6070A758F23A01C
:10136000E70A8280B717004003A7470B498F23AADB
:10137000E70A03A7070B1345F5FF45BFB717004062
:1013800083A6470B1347F5FF758F23AAE70A03A728
:10139000070A598D4DB7B717004003A7470B498F70
:1013A000EDB705E937170040930770052300F704F0
:1013B000930780FA2300F70483570702C207C1830B
:1013C00093F7F79FC207C1832310F7022300070496
:1013D0008280B7170040130770052380E7041307C6
:1013E00080FA2380E70403D707021367074023909E
:1013F000E70203D70702136707202390E702238041
:1014000007048280B717004003D587004205418159
:101410009377050491EB9377F5013755E8011305B0
:1014200005803345F50282809377050C130700048D
:101430006397E7009377F50137459C1CCDB721658D
:10144000130505D08280B7F700E0C8439C4782802F
:10145000814737370040A14663C4C7003285828088
:101460000345B740E38EA6FE3385F500034505002E
:1014700085072304A740CDB7411122C406C62A849C
:1014800051372947B307E502B2408D83B3D78702AE
:1014900022449507B3D7E70237370040C207C1831C
:1014A0002316F74041018280716541111305052023
:1014B00006C6D937B7370040130770F82381E740D5
:1014C0000D47A381E74013070004A380E7400547C9
:1014D0002387E740B24041018280B717004003C62E
:1014E000B70583C6870503C7970583C5B705137678
:1014F000F60F93F6F60F93E50508A38DB704BD45E7
:10150000238CB70493051002A38CB70483C5A705E9
:101510001377F70F93E51500238DB70483C5A7054F
:101520008589EDFD03D5C705A38DC704238CD7049A
:10153000A38CE7048280411193962500AA852D454E
:1015400006C697200020E780C059B24001454101FE
:101550008280411122C426C24AC02A842E89B284C4
:10156000AA85930600200146254506C6972000203F
:10157000E7802057931629002686A28529459720C3
:101580000020E7800056B2402244924402490145BF
:101590004101828041119397050122C406C6C1878B
:1015A0002E8463DB0700592911C125212165218D76
:1015B000B24022444101828093F7150013C5150003
:1015C000E5FB9397250163DF0700EF00212C37F639
:1015D0000200130606E0896503C5E1ACEF00101AAE
:1015E0000965F1B7939715010145E3D307FC1795FA
:1015F000010013056558EF804130130600649165C2
:1016000003C5E1ACEF009017116555B71D71494650
:10161000979501009385C551179501001305C5667F
:1016200086CEA12D01E9179501001305A551EF8084
:10163000C12C01A0B7F700E07957D8C77D5798CBE8
:10164000856637E700E02320D7101306701090C39B
:101650002320D7181306C00381454808752B9737F8
:1016600000209387E7733ECA896793870780231C0E
:10167000F100ED47A301F102930750102312F1028C
:101680008146CD470146814521452303F10297203C
:101690000020E7800045A167938707E03ECE9707CB
:1016A0000000938787E9BEC4970700009387A7EAE5
:1016B000BEC6B5472308F102B7F50700970700003B
:1016C0009387A7D83EDA814697070000938727E1E2
:1016D0007000E10519453EDE97200020E78060405C
:1016E00058088147994670003E96034606008507D4
:1016F0000507A30AC700E398D7FED24791C703574F
:10170000810185676373F70001A04808EF0030434B
:10171000AA8501C91795010013050544EF80A109A9
:1017200001A0F640256182804111170500001305D4
:10173000A5E606C622C4EF00D03C1384E1AC23002A
:10174000A4002928034504002244B24037F60200D1
:10175000130606E0896541016F005002411106C67B
:10176000B7170040130770052380E704130780FABA
:101770002380E70403C7F70201450146136777009A
:10178000A387E7022380070481453936B24001452B
:1017900041016F00B06641119397050122C406C64E
:1017A000C1872E8463DD070003C5D184412C11C19C
:1017B0000D242165218DB24022444101828093F79E
:1017C00015000145EDDB17A501001305259FEF303E
:1017D000D17D13451400C5B783472500011122CCE4
:1017E00006CE26CA4AC84EC652C456C25AC005477B
:1017F0002A846384E70A91CF35476380E704F24087
:101800006244D2444249B249224A924A024B05619B
:101810008280014685450D45EF30D17A6244F24021
:10182000D2444249B249224A924A024B17950100DA
:101830001305C53405616F80410C03C7C1849D4702
:10184000E3EFE7FA83494500130955000144938407
:10185000419403C5C1846366A4020E05090526955B
:101860001946CA8597200020E780605783C7C18446
:1018700013973700BA948507A38034012386F18437
:10188000BDBF9315340089051946A6954A85F526EE
:101890003DF505041374F40F6DBF17950100130592
:1018A000E52EEF80810583473400A5E30146854599
:1018B0000D45EF3031716244F240D2444249B249A1
:1018C000224A924A024B179501001305652D0561C6
:1018D0006F70716EA6854E85EF70F16D139B3400AD
:1018E00001495C405285DA97CA9783C527000509EC
:1018F000EF70716CE31759FF2945EF70D16F8504C4
:1019000083473400E3C8F4FC55B78144979901003C
:101910009389492A179A0100130ACA2A994ACDB70E
:10192000011117050000130545E706CE22CCEF0094
:10193000501D1384D184A1471306F1002300A40095
:1019400085451305E030A307F100EF40A10585654B
:101950009385052C0945EF20000A034504008545C1
:10196000A52EF2406244056182804111054506C6FC
:101970000D3C1305800497200020E78060F43717A2
:1019800000408327870A8D451305002093E7072031
:101990002324F70AA532093E179501001305C52E29
:1019A000EF70B175A5314933EF40C126953F9720BF
:1019B0000020E780C044E5BF23AC05FE1C4181E761
:1019C0000CC18280BA8703A787FF6DFF23ACB7FEE7
:1019D00082801DC18346E5FF1307F00F9147639E88
:1019E000E600411106C697300020E78040E9B2408A
:1019F00081473E854101828095473E85828001E98D
:101A0000014582800145B24022444101828041115A
:101A100022C42A84210542059305D004418106C6CB
:101A200097300020E780C0D771DDFD5723200500E7
:101A3000231285002303F5002105F1B71757002075
:101A4000130707B61C43411122C426C24AC006C66A
:101A500001440149BA8489E7A165592D1DC401A833
:101A600003C7E7FF631AA7020DCCA165B524984010
:101A7000832784FF6319E402175700202322F7B25B
:101A8000FD57232C04FE230FF4FE2285B24022448E
:101A9000924402494101828011E03E8983A787FF79
:101AA0005DBF3E84E5BF232CF9FED9BFB9C9411102
:101AB00022C406C62A849757002083C7B7AE2E8556
:101AC0006368F40039370D45B240224441018280F9
:101AD00083A785FF99E703C7E5FF9307F00F630529
:101AE000F700C53D1545CDB7238F85FE175500205E
:101AF000130505ABD13522852244B240A1654101D1
:101B0000E1AA154582809757002023AB07A8828061
:101B100097570020938707AC9C4399E33E858280CA
:101B200003D727006316B70003C70700E308A7FE23
:101B3000DC47E5B74111939705014AC006C622C4A8
:101B400026C2C1872E8963DE0700CD3D11C1513504
:101B500021653345A900B240224492440249410123
:101B60008280AA860145E5D901443D47B3578940A3
:101B7000858B85CF975700209387C7A98443BD479E
:101B800091E28147A2978E070545BE9433158500E3
:101B9000131405019C40C8404180829723A0040093
:101BA00023A20400334524017DB70504E310E4FCBF
:101BB0000144CDBF97570020938707A29C53411142
:101BC00022C406C617340020130444F095CB829734
:101BD0009737002023ACA7EE0840B7470300938750
:101BE000D73F3305F502B7A72600938737ECB240FD
:101BF00022443E959737002023AAA7EC410182801A
:101C0000975700209387079A18409C4BBA9717372D
:101C10000020232DF7EAC9B72A9609E58280050539
:101C2000A30FB5FEE31DC5FED5BF81473307F50001
:101C30000307070019E33E8582808507C5BF0111B0
:101C40002E8626CAAA84131506019305F004418145
:101C500022CC06CE32C697300020E78060B42A84BA
:101C600019C53246A68597200020E78040172285B7
:101C7000F2406244D2440561828081476314F600D9
:101C8000054582803307F5008507B386F5000347D5
:101C9000070083C6F6FFE383E6FE014582809307D3
:101CA000F6FFBE952A966313C5008280FD1583C793
:101CB00015000505A30FF5FEFDB7814711E90145A4
:101CC00082803307F50003470700E31AB7FE850754
:101CD000E319F6FE054582809757002083C7978C4D
:101CE0006371F502175700201307878E93171500AD
:101CF00008433E9583570500DD8D2310B50001454F
:101D000082800D458280975700209387E7909C43FF
:101D1000638C072279714ECE06D622D426D24AD0C1
:101D200052CC56CA8297AA8915CD97540020938425
:101D300064879C48175900201309098A014AAA9709
:101D4000175700202328F786FD5717570020232117
:101D5000F786975700209387E787804309EC83270E
:101D60004902C9E3B250225492540259F249624ADC
:101D7000D24A456182801844814763F4E900B30781
:101D80003741032749021CC401CBD84463F6E7005E
:101D900017570020232EF78095EB835524008DE103
:101DA0005C44631E0A02175700202325F782832A0A
:101DB000C400228597300020E78060AC568479BF4C
:101DC00003450400113F5C4081CB1CC483572400B1
:101DD000E1DB228A404459B71C44F9D3C5BF23260E
:101DE000FA00F1B7974700209387877E9043974684
:101DF000002083C6367B814713F7F70F6363D7084C
:101E0000175400201304049F834774000D47F917EB
:101E100093F7F70FE378F7F49757002083C747A0AD
:101E2000918BA9F34800EF80B0757D566309C50C0E
:101E30009246174700200347577BE375D7F2DC44EF
:101E4000638FC70403464901058A21C65146B387FB
:101E5000C702E379F7F063F3D700BE86B7170040F7
:101E6000905F32C48C5F2246E39CC5FE2245198DEB
:101E70003695B707C0A86367F502B70740573E9588
:101E800015A085071397170032970357E7FF2DD743
:101E9000D1BD13069002B387C70285835DBF636A15
:101EA000E504198D9747002083C747748DC3B71782
:101EB0000040130770052380E704130780FA23808E
:101EC000E70403D7A1842396E7022380070483272E
:101ED000490225C982971375F50FE31505E85C489B
:101EE000E38207E8EFF0C019EFF0D029EFF0E0113E
:101EF00095BDB707C0A83387E7403A9565B7DC447E
:101F0000E382A7E603474901058B15C75145B3870F
:101F1000A702174700200347576DE375F7E4B7168C
:101F20000040905E32C68C5E3246E39CC5FE324570
:101F3000198D3E953DBF13059002B387A702858397
:101F4000C9BF3705C0A879B782809747002083C7EB
:101F500077656373F50217470020130767679317C8
:101F60001500084393C5F5FF3E9583570500FD8D89
:101F70002310B500014582800D45828097470020DF
:101F800083C757626364F50001458280411122C412
:101F900026C24AC006C62A842E89B284953E01C54F
:101FA00004C505452DA09315840093E5F50441452E
:101FB00097200020E780C07E0DE19747002093879F
:101FC000A7619C5B81C7A285114582970145B240FC
:101FD000224492440249410182809747002093871E
:101FE000675F9C439DE39747002023A5A75E854735
:101FF0002326050004C52311250123008500A30025
:10200000F5002322050071BFBA87D84775FFC8C7FE
:10201000F9BF55C539715AD0174B0020130B8B5F90
:1020200022DC26DA4AD84ED652D45ECE66CA6AC8B8
:102030006EC606DE56D262CC3689328AAE89AA8452
:1020400001445A8DB94D854BF94C03270B00131CE5
:102050003400937AF40F62971C43A9EF13B5FA008A
:1020600013451500B3978B0063F65D01930714FFCA
:10207000B397FB0093950701C181528601371DC9B3
:1020800083270D000145E29784C323A2370163042F
:10209000090023005901F2506254D2544259B259F6
:1020A000225A925A025BF24B624CD24C424DB24DD4
:1020B000216182800504E31A94F92145E9BF0945AD
:1020C0008280411122C426C24AC006C6AA842E8933
:1020D00032846D35CA852685253C09C940C1014534
:1020E000B240224492440249410182802145CDBF41
:1020F000411122C426C24AC006C6AA842E89093CC0
:102100002A8419C123110500CA8526853D3D014554
:1021100011E01945B24022449244024941018280B3
:102120007547636DA704174700201307A74E144394
:10213000411126C293143500A696944222C406C6C5
:10214000AA873A84094595C613B5F7003947134560
:1021500015006373F700C5178545B395F500C205F3
:10216000C18179371C400145A69723A0070023A20F
:102170000700B24022449244410182800945828096
:10218000411106C6713209C50845B240410182803D
:102190000145E5BFF54763EFA70497470020938704
:1021A00067479C4313173500BA979843894721C75F
:1021B000011126CA06CE9334F50022CCB94793C448
:1021C000140063F3A700451505443314A40042042A
:1021D00041802EC62685A28565378947324609C5C6
:1021E000A2852685613B8147F2406244D2443E8508
:1021F0000561828089473E858280411106C69747E6
:10220000002023ABA7400295B2409747002023A5AA
:10221000A73A41018280894763E9B7008A05974759
:1022200000209387273ABE9588C18280411106C657
:1022300022C426C2EF3011253146814517450020C2
:1022400013054538D13A71468145174500201305DD
:102250006535D9329747002023AE073697470020CF
:1022600023AC073A9747002083C7C73813D5270008
:102270008D8B3E958D473305F502174400201304DE
:1022800064329947930510029744002093844433A5
:1022900035051375F50F2301A4003305F502130569
:1022A000050F97200020E780A04F9747002023A329
:1022B000A736834724001305050F88C08A073E957B
:1022C0009747002023A6A730EFF0FF83912E834786
:1022D0001400984017060000130606869396270000
:1022E000BA9690C293862700850793F7F70FA3004D
:1022F000D400B24022448A07BA9790C39244410165
:1023000082809747002083C7F7291747002003479B
:10231000872963F3E702174700201307672A18434A
:102320009386170017460020A30ED6269396270003
:10233000369708C33E8582809307F00FE5BF4111B1
:1023400026C2044106C622C44AC08947638E0412CD
:102350004177658FB706002089476317D712035965
:102360004500630309122A8419469305F00F5905A5
:10237000EFF0BF9405478D476308E5104A86814515
:102380002685EFF07F891306C0038145174500209D
:1023900013058524EFF05F881306C003A285174557
:1023A00000201305652397200020E78040A397476E
:1023B000002083D7272399E79307002017470020A1
:1023C0002312F7229747002083C7E72191E785472B
:1023D000174700202309F7209747002083C7B7201D
:1023E00091E7ED4717470020A30FF71E97470020FE
:1023F00083C7871F91E79547174700202306F71EDD
:102400009747002083C7571E91E78547174700204D
:10241000A30CF71C9747002083C7271D91E7CD47E2
:10242000174700202303F71C9747002083C7A71CEA
:1024300099E79307800217470020230EF71A974762
:10244000002083C7471B174700200347171A8583BF
:1024500039E39387070517470020A308F718834738
:10246000D40191E7914717470020A305F718974734
:102470000020938767169C5791C782979747002043
:102480002395A71265338147B24022449244024902
:102490003E854101828003473401BA9793F7F70FD5
:1024A0005DBF4111B7170040985F3AC6945F32474D
:1024B000E39CE6FEB2471747002003472713058B2E
:1024C0003EC0824731C313063033B386C702B3B769
:1024D000C702B982CA07D58F3EC202C497470020FF
:1024E0009387470CD44B9247638DF600924763E580
:1024F000D7029247958F3EC4924717470020232D5D
:10250000F70A2245410182806546B386C702B3B708
:10251000C702A582DE07C1B719E737673D089247B2
:10252000958FBA97C9BF37876F0813070790C5BF44
:10253000011122CC06CE2A842EC6EFF0AFE7B245B9
:10254000F240818D33A5A502229562441375F50FE3
:1025500005618280011122CC06CE2A842EC6EFF0BE
:102560006FE5B245F240818D33A5A5022295624404
:102570004205418105618280011122CC06CE2A8468
:102580002EC6EFF02FE3B245F240818D33B5A502A0
:102590002295624405618280974700209387C70394
:1025A000985721CF411122C426C206C6BE84029785
:1025B00017470020035767FF2A841DCBBA87637330
:1025C000A700AA87C207C183BA866373E400A28604
:1025D000C206C182958F1307C003635BF700DC540A
:1025E00091C38297EFF0802A97470020239F87FAB4
:1025F000B240224492444101828082809747002069
:10260000938787FDDC57411106C691C38297170552
:102610000000130545E9D536B240014541018280ED
:10262000011122CC17440020130404FB084406CEF9
:1026300026CA19E50545F2406244D244056182800C
:102640005C58EDDB185C7DD7700085458297184497
:10265000B247E301F7FE8357C40017450020034546
:1026600085F89305E0043305F50297440020938430
:1026700064F34205418197200020E78060121747EC
:102680000020232DA7F25DD59747002083D787F53B
:1026900017460020034626F53306F6029305F00F91
:1026A000EFF08FD7904C08449747002083D787F3EB
:1026B00008C29745002083C505F3B385F5021C5C6D
:1026C00089818297884C97200020E780401B014534
:1026D0009747002023A407EEB9BF411122C4174435
:1026E0000020130464EF1C4426C206C69744002051
:1026F000938444EBADCB1C5CBDC79C4C8DE78357EA
:10270000C40017450020034505EE9305E00433059A
:10271000F5024205418197200020E7806008974735
:10272000002023ADA7E8884C1DCD9747002083D714
:1027300067EB17460020034606EB3306F6029305C7
:10274000F00FEFF06FCD904C08449747002083D7EF
:1027500067E908C29745002083C5E5E8B385F5021F
:102760001C5C89818297884C09C997200020E780EA
:1027700000119747002023A307E4B240224492446B
:10278000014541018280011126CA974400209384AB
:1027900064E122CC804C4EC652C456C206CE4AC812
:1027A000AA8AAE89328A31EC174900201309C9E29E
:1027B0008327890099E3A94471A08357C90017456D
:1027C0000020034545E29305E0043305F502420588
:1027D000418197200020E780A0FC2A8441C58327FF
:1027E0004903C9C39745002083C5E5DF174700208B
:1027F000035747DFB385E5022A86032589008981CF
:10280000829791451307A005898193972500A29788
:1028100083C607006395E60483C61700639E5603CC
:1028200085058A054E86A295528597100020E7807F
:10283000005B9C4C814463878700228597200020A1
:10284000E780E003F240624426854249D244B2491F
:10285000224A924A0561828083D5270075B79C4C35
:10286000E38B87F4228597200020E7804001A1B701
:1028700097470020938747D6984729CB9C5FB9C7D5
:1028800085466315D504411122C417440020130462
:1028900064D1104C06C61DC69746002083D686D448
:1028A0009745002083C525D4B385D5023A85898113
:1028B0008297084C97200020E78060FC9747002013
:1028C00023AE07CEB24022444101828082809747E6
:1028D0000020938727CD984F011122CC26CA4AC8E1
:1028E00052C406CE4EC62A89AE8432843E8A35E76B
:1028F00097490020938949CE83D7C9001745002006
:10290000034565CE9305E0043305F5024205418198
:1029100097200020E780C0E89747002023A0A7CA9F
:102920002A8611E92945F2406244D2444249B2491B
:10293000224A0561828003A5890005C183A7490356
:1029400089CF9745002083C505CA17470020035744
:1029500067C9B385E5028981829703258A0191467B
:102960001308A005FD5593D72600C207C18313970E
:1029700027002A9703460700631B060383481700B6
:102980000356270063932803B306D64063CD960011
:1029900085078A073E952686A28597100020E78046
:1029A0000044014549B7A300B700B2866DBF174682
:1029B0000020035626C39745002083C5C5C2B385B2
:1029C000C502338696001106E3EEC5F41386340083
:1029D000719A1106B29623000701A3002701231163
:1029E000D7007DB701458280011106CE2EC6EF408B
:1029F000C01F01C9B245F2400355250005616F7043
:102A0000C05BF240494505618280A38C0186238C1E
:102A1000018623A0018623A2018623A4018623A682
:102A2000018623AE018423AC01849747002093875D
:102A3000E7C0930600051307400B2391E700239797
:102A4000D70011672398D7009306007D2392E700F3
:102A5000239DD7001307000ABD462393E700239464
:102A6000E7002391D7024147F1762395E7002396AB
:102A7000E7002399E700239AE700239BE700239CC4
:102A8000E700938606B82394E70205472392D7020E
:102A90002395E7029D46130710F82396E70223903B
:102AA0000700239E0700239F07002390070223931C
:102AB000D702239707027D57239807022399E7023D
:102AC0008280011126CAAA84214522CC06CE2E84FA
:102AD00032C636C43AC2EFE09FF21DC9A246124781
:102AE0003246930700FD2300F5009947A3009500A7
:102AF0002301F5002303D500A303E5002312C5003D
:102B0000AA8522856244F240D24405616FE01FFA33
:102B1000F2406244D2440561828023A0A186828073
:102B200023A2A186828023A4A186828023A6A186D7
:102B30008280011122CC4AC806CE26CA2A890144C5
:102B4000B30489006368B400F2406244D24442494D
:102B5000056182802EC6EFF0EF8593170501C183D2
:102B6000A183B2452380F4009307140093F7F70F75
:102B7000850463F9B700CA9709042380A70013747A
:102B8000F40F7DBF3E847DBFC1671745002003550C
:102B900045A9FD176304F5024111174600200346BD
:102BA000A6B69385018706C6EF30D06CB240FD57BC
:102BB000174700202317F7A641018280828009C9A8
:102BC00025151375F50F1335850E134515008280F5
:102BD0000145828023800500F94763E2C7087971C7
:102BE00022D426D24ECE56CA5AC806D64AD052CC85
:102BF0005EC63684B289AE8A2A8B814463FF34056F
:102C0000B307940003CA0700138914001379F90F5E
:102C100063050A04B3072A0163C1F904B307240159
:102C200083CB07005E85613F0DC99307FAFF2380C0
:102C3000FA0063906B03130519002295B2502254D9
:102C400092540259F249624AD24A424BB24B456110
:102C50008280D29493F4F40F55B70145C5B701456E
:102C60008280411126C2AE8422C49747002023A14E
:102C7000C79C9747002023ABB79A9747002023A50E
:102C8000A79A2A8441469305F00F26854AC006C6B6
:102C90000549EFF08F82631E250397470020938735
:102CA000E797884BC145713541469305F00F228562
:102CB000EFF0AF80854463169502224497470020C9
:102CC0009387C795B24092440249C847C145410124
:102CD0008DB5414681452685EFE03FFEE31625FD93
:102CE0006DBF414681452285EFE03FFDE30795FC3E
:102CF000B24022449244024941018280411122C4DF
:102D000026C22E84AA84130600028145174500209E
:102D10001305C59006C6EFE03FF097470020A3805B
:102D2000979097470020A382879EEF70802A85475F
:102D300019C181474945B240224417470020230F5B
:102D4000F78C924441018280814781CD19C9854722
:102D5000631BF50083C7550093E707FCA382F500CA
:102D600085473E85828089476317F50083C75500F4
:102D700093F7F703E5B70D478547E314E5FE03C76F
:102D800055001377F70313670704A382E500D1BF4B
:102D900081478DC105C103C755009306000C8547C7
:102DA0001377070C6308D700930600048D4763036D
:102DB000D70089473E858280411122C4005D06C646
:102DC00026C21DC8AA84085009C597200020E780A4
:102DD00000AB485009C597200020E78040AA08545E
:102DE00009C597200020E78080A922859720002030
:102DF000E780E0A823AC0402B2402244924441019F
:102E0000828009ED9747002083C76781174500201E
:102E10001305458281CB13850185828017450020EB
:102E2000130545818280173500200345457F828048
:102E3000973700209387877EC84782809737002086
:102E40009387C77D884B8280973700209387077DC3
:102E5000DC4B88438280973700209387277CD84BB0
:102E60001C4385071CC3173500200345557B93077A
:102E7000F00F6305F50091656FE01FE68280011198
:102E800022CC06CE2E8432C6EF3090669147B245F2
:102E9000631FF5009387C1869C438DC303A307007E
:102EA000630E030022856244F2400561028393872A
:102EB00041869C4381C703A34700DDB7F2406244CB
:102EC000054505618280011122CC2A840355450005
:102ED00006CE26CA4AC84EC6EF3050482DC52A89AC
:102EE000834405008349C500C13D4A85EF40B039A0
:102EF00003554400EF30505B83C78187A9CB6398AB
:102F0000970483C591872685C53419E1238C0186F2
:102F100003554400EF30D05D9147631FF500035720
:102F200044009737002083D7C76F6317F700FD571A
:102F3000173700202317F76EF2406244D24442490B
:102F4000B2490561828081499304F00F75B79307F8
:102F5000F00FE38FF4FA8346640003564400034500
:102F600024004E87A685B13E65B779715EC6AA8BEF
:102F70002E8552CC56CA5AC806D622D426D24AD05A
:102F80004ECEAE8A328B368AEF30503D6DC1045D35
:102F90002A89F1CC9C50614599C3130540039C5488
:102FA00081C751054205418163050A00710542054B
:102FB0004181DC5081C7590542054181EFE03FA4C2
:102FC0002A8455C561468145EFE01FC59739002029
:102FD00083C9C9696394090083490900930700FD07
:102FE0002300F400A947A30074012301F400230384
:102FF00064018C50231254011305840191C908C443
:103000007146930A440397100020E78040DD5685FF
:103010008C5491C948C45146930A45019710002029
:10302000E780E0DB5685630C0A0008C87146D2854C
:10303000930AC50197100020E78060DA5685CC50CE
:1030400099C548C8594697100020E78040D9A28505
:103050004E85EFE0BFA52254B2509254F249624A25
:10306000D24A424BB24B4A8502594561B1B3B25084
:10307000225492540259F249624AD24A424BB24B0C
:103080004561828001114EC6AA892E854AC806CEA6
:1030900022CC26CA2E89EF30702C31C597340020FF
:1030A00083C4C45C99E0834405001945EFE03F9573
:1030B0002A8415C981451946EFE01FB6930700FD24
:1030C0002300F400B947A30034012301F4002312C4
:1030D0002401A2856244F2404249B2492685D24485
:1030E00005616FE0BF9CF2406244D2444249B2495C
:1030F0000561828039715ECEAA8B2E8526DA4ED686
:1031000052D456D25AD006DE22DC4AD8AE84328B54
:10311000B68A3A8ABE8942C6EF30502431C92A891C
:103120004145EFE0DF8D2A8421C541468145EFE02E
:10313000BFAE173500200345655319E1034509006B
:10314000930700FD2300F400BD472301F400B247BC
:10315000A30074012312940023046401A304540106
:1031600023054401A30534015CC4A285EFE01F944C
:10317000F2506254D2544259B259225A925A025BC6
:10318000F24B21618280797126D2AA8439454AD0D6
:103190004ECE06D622D42EC6B2893689EFE03F86BF
:1031A00021C1B2459307000D2310F500B1472A84D1
:1031B0002312B5002301F500CE8519051946971095
:1031C0000020E780C0C123062401A2852254B2500A
:1031D0000259F24913F5F40F925445616FE01F8DC7
:1031E000B250225492540259F249456182801737F5
:1031F00000200347D7429307F00F630DF7064111F4
:1032000026C2AA84394522C406C64AC0EFE02FFF71
:103210002A8439C9930700FD2300F500A300950017
:1032200023010500973500209385C5400D051946FB
:1032300097100020E780A0BA173900201309093E33
:1032400083578900A285173500200345553D231576
:10325000F400834719002306F4002244B24092444C
:10326000024941016FE09F84B240224492440249E6
:10327000410182808280011156C2AA8A314526CA44
:103280004AC84EC652C406CE22CCAE84328AB68913
:103290003A89EFE0CFF629C92A842685EF30100C51
:1032A0001DCD03450500930700FD2300F4009D4755
:1032B000A30054012301F4002312940023134401BA
:1032C0002314340123152401A2856244F240D24420
:1032D0004249B249224A924A05616FE02FFD1735F3
:1032E00000200345D533C1B7F2406244D24442497D
:1032F000B249224A924A05618280397162CC2A8C95
:10330000594526DA4AD84ED652D456D25AD05ECE35
:1033100006DE22DCAE8432C636C4BA8B3E8BC28A4D
:10332000468A8359010403494104EFE04FED35C556
:103330003246930700FDA2462300F5009547A301FE
:10334000C500A30085012301F5002A841946110553
:10335000A9C2B68597100020E78060A82306640103
:10336000230A24012315740123175401231844014F
:1033700023193401A2856254F2504259B259225A9B
:10338000925A025BF24B624C2685D25421616FE067
:10339000EFF18145EFE05F88D1B7F2506254D2542B
:1033A0004259B259225A925A025BF24B624C216145
:1033B00082809737002083C787268DCB4111AA854D
:1033C00019461385018506C697100020E78020A1C5
:1033D000938501851735002003456524EFF0DF96BE
:1033E000B2401385018541016F60303F0145828005
:1033F000411106C622C426C21737002003473722D0
:103400009307F00F6308F704AA842945EFE02FDF44
:103410002A8429C1930700FD2300F500A147230159
:10342000F500A3009500973700209387271F83C7D7
:103430002700938501851105A30FF5FE1946971006
:103440000020E780C099A285173500200345351D6F
:10345000EFE0CFE5173700200347871C8547631748
:10346000F702938781869C4381C79C4791C38297CB
:103470002244B24092445D66173500200345C528BA
:1034800013060670914541016FE0BFC3B24022446C
:10349000924441018280797122D406D626D24AD044
:1034A0004ECE52CC09445DC92A89035505002E8AA7
:1034B0005144EF30A06AAA8455C19737002083C7D2
:1034C000D724FD1793F7F70F054749446378F708AA
:1034D0000347C500A1476314F70063110A089C5C09
:1034E0004544ADEF930570041305C002971000200A
:1034F000E780002B88DCAA894D442DC11306C00249
:103500008145EFE06FF183570900938649003685C6
:103510002391F90071469305490036C697100020A3
:10352000E780E08B89472380F90003C5C400B246D9
:103530000356090061159735002083C5E51C133536
:103540001500EF50D06E2A8463060A00D2852685C6
:10355000EF40C07E01C42685EFF01F862285B25061
:10356000225492540259F249624A45618280973747
:10357000002083C79719FD1793F7F70F0547637866
:10358000F708894751C6011122CC26CA4AC84EC63F
:1035900052C406CEAA89368AB2842E89EF30005CE6
:1035A0002A84D14729C9485509C597100020E780CA
:1035B000002DF1452685EFE08FE848D4CD4705CDB5
:1035C0008346C40021478147639FE600630D0A00DC
:1035D0000347A5010356050193062501AA854E85DB
:1035E000EF30306CAA8703474400630F090013676C
:1035F00067002302E400F2406244D2444249B249E7
:10360000224A3E850561828013674700DDB7C947BE
:103610003E858280E14763EBA700973700209387C0
:10362000E70106053E9503550500828041657D153D
:103630008280011122CC2A842E8526CA06CEAE8431
:10364000EF30C0510DCDB7470F009387F7230945E1
:1036500063E2870281450A854146EFE0EFDBA685FC
:10366000231081000A85418023018100A30101000C
:10367000EF50903DF2406244D2440561828049455A
:10368000D5BF97370020A381A70882806F50B05222
:10369000797152CC2A8A328522D426D24AD04ECE93
:1036A00056CA5AC85EC606D662C4AE8BB28A368B7C
:1036B000BA843E89C2894684EF30404A15C92A8CB3
:1036C00063140A0213774B008347450015CF93E735
:1036D00027012302FC008DEC631C0902639A090296
:1036E00005E8ED9B2302FC00832B8C03639F0B06F4
:1036F000B250225492540259F249624AD24A424B81
:10370000B24B224C45618280F59B93E70701D1B70C
:1037100093E747002302FC0001CC1C484146A285E8
:103720002324FC0213058C0197000020E780206B06
:1037300063910B02D5D80325CC0209C59710002050
:10374000E780E013F1452685EFE06FCF2326AC023A
:1037500061BFE30B09F80325CC0209C597100020CF
:10376000E780E011F1454A85C5B795C483A70B02F0
:1037700091EB93057004714597100020E78040029B
:1037800023A0AB0203A50B0219C57146A6859700BD
:103790000020E780C0646387090283A74B0291EB96
:1037A00093057004594597100020E78060FF23A21D
:1037B000AB0203A54B0219C55946CE8597000020E0
:1037C000E780E06115C483A78B0291EB9305700439
:1037D000514597100020E780A0FC23A4AB0203A56D
:1037E0008B0219C55146A28597000020E780205F13
:1037F0002254B2509254F249B24B224CCA865A8695
:103800000259424BD6855285D24A624A45616FF0D1
:10381000CFF5011126CA52C406CE22CC4AC84EC6E4
:103820002A8AAE84EF30803325C5AA893945EFE076
:103830000F9D2A8431CD17390020034929E36314F1
:10384000090003C909009307000D2310F400AD47D8
:103850002301F4009385690013053400194697008D
:103860000020E780C05793F71400858085882306E1
:10387000F400A306940023154401A2856244F2409B
:10388000D244B249224A4A85424905616FE00FA2FB
:10389000F2406244D2444249B249224A05618280E0
:1038A00093878185884301CD411106C6971000207A
:1038B000E780E0FCB24023AC018441018280828039
:1038C000011106CE22CC26CA4AC82EC6EF300029E6
:1038D00039CDB24517390020034949D9AA840CD5FE
:1038E00063140900034905004145EFE04F912A8424
:1038F0001DCD9307000D2310F500A5472301F5000A
:1039000083C75400938564001105A30FF5FE194683
:1039100097000020E780A04C9C54A285F2405CC434
:103920006244D2444A85424905616FE02F98F240D3
:103930006244D244424905618280797122D406D61C
:103940002A842EC6EF30802101CDB2452285230E78
:10395000B1006C08EF40003BB250225445618280B8
:103960005145DDBF6F30C02DC1671387E7FF6394FA
:10397000E502938741869C4391EB49458280494506
:10398000B2402244924402494101828003A30700CD
:10399000E30503FE0283411122C426C24AC006C6C3
:1039A000FD172A892E84B2846395F5029387418698
:1039B0009C4391CB9C4381CB829711E5238C21873B
:1039C000A38C918675BFA6854A85EFF0EF814DF9EE
:1039D000F5B72E85EF3080185DD1834705000D4582
:1039E000E39027FB22852244B2400249A6859244F7
:1039F00041016F60805CE14763E8A70441677D1780
:103A000089476384E504411122C426C206C6C5471E
:103A1000AE842A84631AF5001305C0033385A5021A
:103A200042054181EF602061131514001734002016
:103A30001304C4C02295B24022442310950081474C
:103A400092443E854101828089473E8582800111F2
:103A500006CE2AC6EFE07FFBEF106008EF00E073B0
:103A6000EF10915C324597370020938727BB1307EF
:103A700000F02391E700238207007D57973700204D
:103A8000938787C8A380E7002380A700F24095456D
:103A900005616F1010285D7193970501CAC086C635
:103AA000A2C4A6C24EDE52DC56DA5AD85ED662D422
:103AB00066D26AD0C1872E8963D6074C173500209D
:103AC000034585C4EFD09FF78964416A856A797B95
:103AD0002A84938BD4007D1AA50A691B15E0216501
:103AE0003345A900B640264496440649F259625A25
:103AF000D25A425BB25B225C925C025D6161828061
:103B0000834704001307200A639DE7000355240040
:103B1000173C0020034CBCB02286D285EFF02FB6B4
:103B200099A213071009173C0020034CFCBD6399B0
:103B3000E7168347140015476390E7022285EFF0EC
:103B40008FB82285EFD0FFE8173500200345C5BBAD
:103B5000EFD0DFEE2A8459B739476399E71603554A
:103B60004400631B55050C4483C90500639D09008F
:103B7000850591C91946173500201305A5AB970097
:103B80000020E780C02517370020034727A9854775
:103B90006318F710638A090097370020238007A86D
:103BA0004E85EFF0CFE471BF894717370020230718
:103BB000F7A6EF60404271B793872400631AF506B9
:103BC00083298400638E090C83C709008DE383C7B2
:103BD000290003C71900A207D98F17370020231324
:103BE000F7A483C7390017370020A309F7A21737B6
:103BF00000200347A7A289476314F70A83C7090077
:103C000081CB97370020238B07A003C5090051BF44
:103C10008D479735002083C575A0173500200355C3
:103C200065A017370020230BF79EEF109011F1BF0E
:103C3000938754006318F5001C4403C50700EFF098
:103C40002FFB01B7B3076501C207C1831147636F3B
:103C5000F700938781869C43E38507EE9C43E382CC
:103C600007EE22858297E31E05EC1DA89387B4001A
:103C7000631FF500938701869C43E38407EC9C4314
:103C8000E38107ECA2851385B4008297E9BF93878F
:103C9000C4006310F5021C4483C70700E38307EAEE
:103CA0009307F00FE30FFCE8A2856285EFD01FE0D9
:103CB00061BD9387E400E315F5FE938741869C433D
:103CC000E38107E8DC43A285E9F3A5BD3D4763979F
:103CD000E70403554400E30275FF93879401E30E64
:103CE000F5FC93873401E31DF5FA9737002083D75D
:103CF0004793639E4701938741869C43E38307E490
:103D0000DC43E38007E4A28513853401BDBF9387BC
:103D1000C1869C43E38707E29C43E5B71307E003B2
:103D2000E390E7F88347240005476396E70E83474F
:103D30006400138D8185F1E383270D00D5CB03CC7F
:103D40000700A14903457400930C8400E685EFF059
:103D50002F8483474401A303A4008358040103581C
:103D6000E400035744002A86034534003EC28357CB
:103D70002401E686E2853EC0CE87EFF00FD8834768
:103D8000340095E7DD47835804010358E400834677
:103D90007400835544003EC2835724013EC06687A9
:103DA000CE8705466285EF304007A301A400832734
:103DB0000D0081C71145EFF0BFAE03C58187E30257
:103DC00005D883C59187EFE03FC2E30C05D6834653
:103DD000340093071003638AF600035644004E87AD
:103DE00083C581873685EFE0DFCD238C018691BBCB
:103DF000173C0020034CBC82A9B7938781869C4363
:103E0000173C0020034CBC8191498DDFDC439DDBD6
:103E10000145829705BF2947639DE70883476400F2
:103E2000138D8185ADEB83270D00ADC303CC070057
:103E3000A14903457400930C4401E685EFE05FF56A
:103E400083470402A303A4008358C4010358A401B8
:103E5000035744002A86034534003EC28357E401D9
:103E6000E686E2853EC0CE87EFF02FC98347340057
:103E70009DFFDD478358C4010358A40183467400A5
:103E8000835544003EC28357E40109BF172C00202C
:103E9000034CFC7871BF938781869C43172C0020CC
:103EA000034CFC779149D1D7DC43C1D701458297B8
:103EB00049B70947639DE700938701869C43E382E6
:103EC00007C8DC43E38F07C6228582979DB92D473B
:103ED0006399E700938701869C43E38407C69C4768
:103EE000D5B70D476397E70022868D4503554400FB
:103EF00035B119476395E706930561011305103144
:103F0000EF10F11A2C0813052031EF10511A035647
:103F10006400835781010355440063E8C70083565A
:103F200084000357610163F7E60093050002EF6028
:103F3000800F01B96374E6002313E40063F4D70033
:103F40002314F4000357C4008356A40003568400CE
:103F50008355640001488147EF60A00CDDB61D4722
:103F6000E390E7D403574400E3ECE7D2972700201F
:103F70009387C77106073E9783576400F117231094
:103F8000F70039BB93F7150081CF938701869C43D7
:103F900089C7DC4399C3014582971345190099B637
:103FA00093F7250081CF938781869C4389C7DC43A3
:103FB00099C305458297134529002DB693F745000F
:103FC0000145E38107B29727002083C77765B5C70E
:103FD000FD1793F7F70F17270020A303F764B1EF3E
:103FE0009387C1859C4391CF8547172700202309DC
:103FF000F762938781869C4389C7DC4399C3054553
:1040000082979727002093876761C8472C08EF5055
:10401000400C2808EFF0EFB997270020938707623C
:1040200083D727029145172500200345E56D172703
:104030000020A307F75EEFE0AF8B134549005DB4A6
:10404000411122C42A84554506C6EFF0AFDCB335D2
:10405000A00022852244B24041016F5090797971CD
:1040600022D406D68D472E84631FF50003D7A50002
:1040700083D6850003D665000345340083D545000B
:10408000EFF06F9F09A889671387D7006310E504D5
:1040900003C5250019E58547B25022543E85456188
:1040A0008280938781859443FDD603C6360083C5FD
:1040B0000600814802C202C00148814701479106BB
:1040C000EFF0AFA30545EFF0AFFDF1B71387E700C1
:1040D000E303E5FC13873701631AE50003C52500F8
:1040E0005DD9014781460146814559BFE507E30493
:1040F000F5FA41677D178147E310E5FA03C75500DC
:10410000C947E31AF7F883D6E50003D6C50003557F
:10411000840083D5A500EF50907221C15D45EFF07A
:104120006FCF3335A000231EA10083454400035503
:1041300024007008EF2070158357C101A9FF0357B1
:10414000E4008356C4000356A4008355840003553D
:1041500024000148EF50F06A3DBF8547231EF1005F
:10416000E9B7C1671387E7FF639DE5009387818502
:104170009C4395C383C707000D47639CA7006F50FE
:104180009067FD1749476396F500938781859C43A7
:10419000FDF73A8582804947EDBF238D018623A034
:1041A000018823AE0186972700209387674C170765
:1041B00000001307672498C3170700001307872719
:1041C000D8C3170700001307C75898C797270020C0
:1041D0009387C74A170700001307E7F898C3170724
:1041E0000000130707E8D8C38280011122CC138492
:1041F00001881C4006CE26CA4AC84EC652C499CF72
:104200002E8AAA840149084063129902630C0A04A9
:1042100097000020E780A06623A00188F240624456
:10422000D2444249B249224A056182809319490029
:10423000B3073501884709C997000020E78020644B
:104240001C40CE9723A407001C40CE97C84709C93D
:1042500097000020E780A0621C40BE9923A60900B9
:10426000050955B745DD139644008145EFD0DF9A27
:10427000144081477D5613F7F70FE37197FA1397B0
:10428000470036972300C7008507F5B7011152C4D0
:10429000138AC18783270A0006CE22CC26CA4AC8C1
:1042A0004EC656C25AC0C9CF2A89014419ED938718
:1042B0000188944399CA03C6A1872A84814793053C
:1042C000F00F13F7F70F6367C708131534002105C4
:1042D000EFD0EFF2AA8401E92145EFD04FF2AA8492
:1042E00021C501444D49930700FD2380F400854713
:1042F000A38024012381F400A38184005DC4138979
:10430000840023A224018149938A0188130BF00FB2
:1043100083C7A18763F3F90031E883270A00A685E4
:1043200003C50700EFD08FF8814503C5A187753D10
:1043300003250A0097000020E780605423AE018621
:10434000F2406244D2444249B249224A924A024B64
:10435000056182801397470036970347070063057E
:10436000B70005041374F40F8507A1BF83A70A00E3
:1043700093954900BE9583C70500638467032300B6
:10438000F90083C71500130529007D14A300F90067
:10439000194689051374F40F97000020E78020A4C4
:1043A0002109850993F9F90FA5B723A20400B5B730
:1043B000411122C406C62A8405E10945EFF08FA504
:1043C0002A8685451725002003450534EFD01FBBFD
:1043D0000545BD312A8411C98545172500200345AF
:1043E000A532EFD0FFD022855535B2402244054595
:1043F0004101828089671387B700631AE5009387BC
:10440000C1879C439DC39C4503C5070055B71387CF
:10441000C7008147631CE5009C4503C5070085472D
:1044200011C59387C1879C43F5F381473E85828000
:104430001D7186CEA2CCA6CACAC8CEC6D2C4D6C268
:10444000DAC05EDE62DC66DA6AD86ED66303052601
:10445000834735002A8A8DCB40411DC45945EFF072
:104460006F9B93178501E1873EC40149938AC187F9
:1044700093890188930C000D354D054B930BF00F7C
:1044800083473A006361F902F6406644D6444649E0
:10449000B649264A964A064BF25B625CD25C425DA4
:1044A000B25D2561828083078402224763CBE728BF
:1044B00083A70A00A5CB83470400638A67070346E6
:1044C0008400930694009305F1010545EFE08FF019
:1044D000814719C183470500834604001147638063
:1044E000E60203A70A008D46034717006309D700B9
:1044F00099C711C705C9631F67038D8B85C703451E
:104500001400130C2400E285EFE09F88A300A400B0
:1045100083A70900AA84814D95E7034604009147CB
:10452000631AF60C83A70900639D072019A481472D
:1045300001455DB78946E317D7FE858BC1B7850D69
:1045400093FDFD0F83C7A18703A50900E3F7FDFCD9
:1045500093974D003E9503470500E30277FF03471D
:104560001500E31E97FC1946E28509053EC6EFD00B
:10457000CFF0B24769D583A4090003470400BE9475
:10458000C9DC9147631CF708C84405C5834784000C
:10459000034605006306F608034704009147631EBF
:1045A000F708C84419C597000020E780402D23A6CE
:1045B0000400034584009145050597000020E7802D
:1045C000201E05C50347040091476311F708C8C4BE
:1045D00083478400930594000505A30FF5FE034669
:1045E000840097F0FF1FE780807F83478400639EED
:1045F00007120DBF83A7090095D783C5A18701477F
:10460000E302B7F2BE84C10703C507FF630E750B53
:1046100005071377F70FEDB788C4E5A08844B5B751
:10462000930594000505EFD04FE5E31765F7554571
:10463000EFE05FFE630B050EF5B588443DD99700AA
:104640000020E780C02323A40400A5B788C449B78D
:10465000231095012301A501834704001946930502
:104660002400A301F5008307840215052303F50048
:1046700083471400A30FF5FE97F0FF1FE780207615
:10468000034684002386C40015C21385440188C8EC
:104690009305940097F0FF1FE780607483A70A00DA
:1046A000A68503C50700EFD06FC061A823A804004A
:1046B000F5B79387C1879C43E38807DCEFF01FBD04
:1046C0000145EFF0FF97C9B32380C400834714006E
:1046D000E28513852400A380F400194697F0FF1F9C
:1046E000E780E06F034584008D45050597000020B5
:1046F000E780000B05C5034704009147E31EF7F070
:10470000C8C483478400930594000505A30FF5FEF4
:104710000346840097F0FF1FE780606C83478400A6
:1047200089E783470400E39F67DF83A70A00E38BE1
:1047300007DE034584005105EFD06FACAA84E3196E
:1047400005F00509130494021379F90F15BB79716B
:1047500006D622D426D24AD04ECE52CC56CA5AC8F9
:104760005EC671C183473500AA8985C7444195C09B
:104770005945EFE03FEA931A850193DA8A410149EE
:10478000138AC187130B00FDC14B83C73900636DCA
:10479000F900B250225492540259F249624AD24A64
:1047A000424BB24B456182808387F40063C8570750
:1047B00083270A00A5C75145EFD06FA42A8439CDBD
:1047C00023006501A30005002301750183C70400D0
:1047D000194693852400A301F5008387F40015058D
:1047E000A306F50083C71400A30FF5FE97F0FF1F83
:1047F000E780E05E83C78400938594001305C400BE
:10480000A305F400194697F0FF1FE780405D83275A
:104810000A00A28503C50700EFD04FA90509C1040E
:104820001379F90F9DB79387C1879C43BDD3EFF0F0
:10483000FFA52254B25092540259F249624AD24A18
:10484000424BB24B014545616FF08FFF9387C187A3
:104850009C43A5E79727002083C737EBA98BA5C307
:10486000011122CC95452A84114506CE97000020DF
:10487000E78000F323AEA18629C5A285114697F0F3
:10488000FF1FE780C0551545EFE0DFD82AC6194560
:10489000EFE05FD8034734002A86034524006244D2
:1048A000B245F2409726002083C666D73337E00032
:1048B000B336D00005616F5080734545828049450D
:1048C0008280F24062444D45056182809727002036
:1048D00083C7B7E3A18B17250020130525DA91E3E1
:1048E00001456FE0EFA3411122C485452A8403C529
:1048F000A18706C6EFF07F8F9727002083C7F7E0D8
:10490000A98BB5C717250020130585D6238D818671
:10491000EFE0AFA0138401881C4091C74D45B24021
:1049200022444101828003C5A18719E10145C5BF29
:104930009D45120597000020E78080E623A0A1880E
:1049400071DD03C6A18712068145EFD0EFAC1040A0
:1049500083C6A1878147FD5513F7F70FE378D7FC8E
:104960001397470032972300B7008507F5B7014535
:10497000238D0186EFE06F9A55BF9387C1858843E9
:1049800001CD411106C697000020E78040EFB240FC
:1049900023AE0184410182808280011122CC06CEA7
:1049A0008D472E846316F50603C73500E94703D506
:1049B00045006318F7009727002083D787C66385D3
:1049C000A706EF20A01909C5835764002317F50037
:1049D0000357A400835684000356640083554400A3
:1049E00003453400EFE03F89035744009727002038
:1049F00083D727C36308F7008547F24062443E85AA
:104A000005618280FD5717270020231CF7C0EDB7F2
:104A10008967CD07631DF50083C72500314763858E
:104A2000E7004547E39AE7FCEFE00F96F1B74167EF
:104A30007D178147E313E5FC83C655004947E39E94
:104A4000E6FA83C545000355240030002314010015
:104A5000EF10907E55B7797122D41384C1851C4024
:104A600006D626D24AD00545ADC70D45EFE09FBA20
:104A7000AA841145EFE01FBA2A899305F1011305B5
:104A8000F041EF00E1040347F1019727002083C7BD
:104A900007B9B336F00019C70D4789466384E700AC
:104AA000B336F0001C4036C603C537009385470077
:104AB000EFE08FA91040B2462A878348B60003482A
:104AC000A6009307460003462600CA852685EF50B8
:104AD0000051B25022549254025945618280FD57D0
:104AE0002382F1802392018823A6018823A80188CC
:104AF00023AA018893874198170700001307A70787
:104B000098C3170700001307C726D8C3170700006C
:104B10001307A7F498C797070000938747E823A4D3
:104B2000F1888280411126C29384C1859C4006C6CB
:104B300022C49DCB2A840D45EFC07FECAA8519CDF8
:104B4000930700FD2300F5008D47A3008500230196
:104B5000F5009C4003C50700EFC05FF511C4224477
:104B6000B2409244410111BDB240224492444101FD
:104B70008280797122D403544500896706D626D2F3
:104B80004AD04ECE52CC13876700631EE40293874F
:104B9000C1859C43814489CF18450345070015E131
:104BA0000547A380E7000545EF50204419E98544F7
:104BB000B2502254268502599254F249624A456104
:104BC00082808D37EDB7138797006365870403C72D
:104BD00041809307F00FE30CF7FC1C45114583C49B
:104BE0000700EFC0DFE1AA8579D1930700FD23001C
:104BF000F50089472301F500F977E1173E94133456
:104C00001400A3009500A301850003C54180EFC0F7
:104C1000FFE971BFA9078144E31CF4F81389C1853A
:104C2000832709004A8AC9D7184583C417008547D6
:104C300083490700638DF4029727002083C7479EAE
:104C4000BDF70D45EFC0BFDBAA8505C1930700FD89
:104C50002300F5009147A30035012301F5008327C8
:104C6000090003C50700EFC07FE4013B89B79387C4
:104C7000C1889C4385E30145EFE0DF992A8601CA9C
:104C8000894517250020034525A8EFD02FAF83279E
:104C90000A00B9A003C60700938617009305F10028
:104CA0000545EFD03FF361D983470500858BE1D7F8
:104CB0000545EFE03F969307B0032A8463FFA70200
:104CC0005D66130606708945172500200345C5A3B8
:104CD000130444FCEFD0EFBE2392818883270900A0
:104CE0000947A380E7009727002083C7679399CBE4
:104CF000972700202386079265BD130600643306BC
:104D0000C502B5BF4E85393D65B5411126C29384B4
:104D1000C1859C4006C622C4A1C783C707000D44B5
:104D20006391A7048945172500200345E59DEFD031
:104D30002FBC9145172500200345059D239201882E
:104D4000EFD00FBB97270020A38C078C9C40014518
:104D5000A38087002244B240924441016F50E02872
:104D600049442285B240224492444101828041114B
:104D700006C685476315F50683D74188A1CB17275B
:104D800000200347E78939E31307B003636BF70299
:104D900089451725002003452597EFD06FB5930768
:104DA000006403D641883306F602894517250020A2
:104DB00003458595EFD08F9C23920188B240410135
:104DC0008280938747FC2392F188CDBF9387C1856A
:104DD0009C43EDD7B24003C5070041013DB793871F
:104DE000C1859C43E1DF9727002083C71792918BF1
:104DF000F1D789451725002003450591EFD04FAF26
:104E0000B2402392018841016FF03FB797270020FD
:104E100083C7B78F958BCDC79387C18899E1938757
:104E200041899C43D1CFFD4763EEC70811C2D9CA5F
:104E3000411122C426C206C64AC02382A180B6847C
:104E40003284A1C11389C188032509007D468145AB
:104E50000505EFC07FDC03250900A6852286050530
:104E600097F0FF1FE780A0F78325090022852380A4
:104E700085002244B24092440249850541016F50A9
:104E8000401613894189032509007D4681450505A2
:104E9000EFC09FD803250900A6852286050597F057
:104EA000FF1FE780C0F3832509002285238085004A
:104EB0002244B24092440249850541016F50A0123C
:104EC00049458280094582809727002083C7F78360
:104ED000918B99CF41111385818806C6EFD01FC5EC
:104EE000B240FD5717170020231DF7724101828041
:104EF00001456FD0BFC39387C1888843411122C445
:104F000006C626C23E8419C597000020E780209778
:104F100023A6018893874189884319C597000020FB
:104F2000E780E09523AA0188971400209384C47D2C
:104F300083C73400958BADCB13854198EFD0BFBEAE
:104F400083C73400958B99E74D45B2402244924483
:104F50004101828093057004130500029700002030
:104F6000E780008423A6A18865D11306000281454D
:104F7000EFC09FCA9305700413050002970000203C
:104F8000E780008223AAA18801C913060002814597
:104F9000EFC09FC8014555BF084097000020E7803B
:104FA000008E23A601884DB70145EFD0DFB7DDB7EE
:104FB000F1CA011152C42E8A854522CC4EC656C272
:104FC00006CE26CA4AC8AA8AB6893284EF10D053C0
:104FD000D14715C183C7018A83C6118A814419E06C
:104FE000B684BE8613878189184393974400BA9785
:104FF00063EDD400D547F2406244D2444249B249FD
:10500000224A924A3E85056182803E89C10703D7C4
:1050100027FF09C7850493F4F40FD9BF31CC93055A
:10502000C0041305000297F0FF1FE7806077232676
:10503000A90069D113060002814593840404EFC0DE
:10504000BFBD23119900230009002313590105C88E
:1050500017170020130707638347940010432304A6
:10506000F900118C8327C90011841180238E8700D9
:1050700023A02901814741B723260900E9B723046A
:105080004901FDB785473E85828093878189984392
:1050900083C5018A81476395F50081463685828004
:1050A00003562700BA8619C2E30AA6FE850793F7BE
:1050B000F70F4107CDB793878189984303C6018ACB
:1050C00081476315F6008146368582808355270027
:1050D000BA8689C583454700E388A5FE850793F70F
:1050E000F70F4107F9BF971700209387A7599843F7
:1050F00083C5318A81476395F50081463685828074
:1051000003560700BA8619C2E30AA6FE850793F77D
:10511000F70F4107CDB7938781899C4303C8118A54
:1051200001476315E80081463685828003D6270053
:10513000BE8619CA03D667006318A600D04709C601
:1051400003562600E302B6FE05071377F70FC107E3
:10515000C9BF411122C4404526C206C6AA8415C053
:10516000484409C597F0FF1FE7806071484809C5AA
:1051700097F0FF1FE780A070228597F0FF1FE78060
:105180000070268541468145EFC01FA9B2402244E8
:10519000FD57A384F400924441018280011122CC86
:1051A0002A840355250006CE2EC6EF10100A32467B
:1051B00022858145EF00506722856244F2400561F7
:1051C00049BF05C503572500411122C406C62A84DC
:1051D00009CBDD45EF00106922852244B240410130
:1051E0008DBFB2402244410182808280411126C29B
:1051F00031479304C5FF3387E40297170020938754
:10520000E74906C622C43E978356A7006397B602B5
:10521000484305C53E849307F00F6306F6008347B5
:105220000500639CC70097F0FF1FE7804065B1470A
:10523000B387F402A29723A20700B240224492440B
:1052400041018280411122C42E8426C24946AA848B
:105250008145228506C6EFC03F9CADC083C7C4010F
:1052600013974700971700209387C7419C43BA972D
:1052700003D707002310E40003D7270083D7670074
:105280002311E4001387E189035707002312E40088
:1052900003D704002313E40003D724002314E400FD
:1052A00003D744002315E40003D764002316E40069
:1052B00003D784002318F4002317E400B2402244EB
:1052C000924441018280971700209387A73B03A84F
:1052D000070093878189904383C5018A01478147ED
:1052E0006394E5003E8582808346060081CE544665
:1052F00091CA83C6C6019206C2966315D50085077A
:1053000093F7F70F05071377F70F4106D1BF130681
:1053100000643386C50293069500AA851705000030
:10532000130565EA6FC0FFCE411122C406C62A8468
:1053300003459500EFC0DFDEFD57A304F400B24043
:10534000224441018280011122CC4AC84EC652C477
:1053500056C206CE26CA2A89AE890144138A81899B
:105360009D4A83C7118A6361F40463960902938995
:105370008189130AF00F83C7018A6364F40611441C
:10538000A1442285050442041306F00FCA8541801A
:10539000B13DE31894FEF2406244D2444249B2491E
:1053A000224A924A0561828083270A0093144400AE
:1053B000BE9483C7040095C383D76400639F27010D
:1053C0006396590103D52400EF10206826854E8688
:1053D0008145EF0070452685AD3B05041374F40F3D
:1053E00049B783A7090093144400BE9483C70400FF
:1053F0008DC383C79400638E470183D76400639A8B
:105400002701268515372685D145EF00B04526852D
:10541000893305041374F40FB9BF41677917630A20
:10542000E502411122C406C685472A846398F50027
:1054300022852244B2408145410131B789476396B4
:10544000F5008545EF10500C65D5B240224441016E
:10545000828082809D45C5BD03D5E189828001118E
:1054600006CE2317A1002316B10003C7C1898547C3
:105470006318F70070009305E1000545EF407034B4
:10548000F24005618280A947631CF60483C71500BA
:1054900003C70500A207D98F2310F50083C7350085
:1054A00003C72500A207D98F2311F50083C7550034
:1054B00003C74500A207D98F2312F50083C77500E3
:1054C00003C76500A207D98F2313F50083C7950092
:1054D00003C78500A207D98F2314F50001458280F8
:1054E0000545828091476314F60283C7150003C700
:1054F0000500A207D98F2310F50083C7350003C725
:105500002500A207D98F2311F500014582800545AA
:1055100082809387C5FF93960701C1820D47636020
:10552000D70231473387E702971700209387071781
:10553000BA972381A7002390B700014582800945CF
:1055400082807115239FA1882381B18A2382B18A29
:1055500082801105420541119305C004418106C6B0
:1055600097F0FF1FE780C02311C5B240F1554101FC
:105570006F00A177B240410182804111971700204E
:105580002384A71013060003171500201305051127
:10559000814506C62380018A2381018AA381018A6D
:1055A000A380018A238E0188A38E0188A382018AA9
:1055B000239F018823AC0188EFC00FE6EF10E05174
:1055C00017150020034585101DCD9305C004120555
:1055D00097F0FF1FE780C01C171700202324A70A9D
:1055E0001DC1971700209387670E83C717001716F2
:1055F00000200346A60D8145A380F18AA381C18ABC
:105600001206EFC06FE19387118A83C70700171551
:1056100000200345250F9305C0043E951375F50F33
:105620002380A18A120597F0FF1FE780601723AC43
:10563000A18849C103C6018A12068145EFC0CFDDAA
:1056400093878189984383C6018A814725077D56C0
:10565000639BF604DD47B240171700202318F702BA
:10566000171700202315F702171700202312F7023F
:1056700017170020231FF70017170020231CF7001F
:10568000171700202319F700171700202316F7001B
:10569000171700202313F70017050000130525D85E
:1056A00041016F10E05D85072300C70093F7F70FF6
:1056B000410779BF2380018AA380018A61BF41111C
:1056C0009397050126C206C622C4C187AE8463DE55
:1056D000070817150020034525FBEFC02FB62A84C5
:1056E00039C903470500930700096313F70403470B
:1056F0001500CD476319F7060345250097150020CF
:1057000083C585EE83C7218A93066400014601475D
:105710002E886319E50219C22381F18A83C7218A81
:1057200081CB854517150020034505F6EFC0CFDA7C
:105730002285EFC00FAA2165258DB24022449244F4
:105740004101828003C60600B29713F6F70F9377E4
:10575000F80F6374B6009377F60F05071377F70F0A
:10576000890605467DB72125E1B793F71500014568
:10577000E9D7EF00106B19C983C7218A81CB854512
:1057800017150020034545F0EFC00FD513C51400D1
:105790006DB785462A8763FBC60483C7150003C619
:1057A0000500A207D18F2310F500639CD70083C7A3
:1057B000350083C62500A207D58F2311F5000145CA
:1057C0008280894601456394D70283C7350083C62A
:1057D0002500A207D58F2311F70083C7550083C684
:1057E0004500A207D58F2312F700828005458280ED
:1057F00091476314F60283C7150003C70500A2078B
:10580000D98F2310F50083C7350003C72500A207F1
:10581000D98F2311F500014582800545828091478B
:105820006314F60283C7150003C70500A207D98FCA
:105830002310F50083C7350003C72500A207D98FC1
:105840002311F5000145828005458280A14763143C
:10585000F60483C7150003C70500A207D98F2310DC
:10586000F50083C7350003C72500A207D98F231190
:10587000F50083C7550003C74500A207D98F23123F
:10588000F50083C7750003C76500A207D98F2313EE
:10589000F50001458280054582808947631CF6003A
:1058A00083C7150003C70500A207D98F2310F50091
:1058B00001458280054582808357260079714ECE4E
:1058C00006D622D426D24AD01307F007AE896372D7
:1058D000F70209473AC42316F100300093F5F50F9B
:1058E000EF108015B250225492540259F24945618A
:1058F000828003574600D9462A89328463F8E6003D
:105900008357660063F4F6006379F70023140100FF
:10591000300093F5F90F4A85E1B70355060002C43C
:10592000EFF06FFCAA8459C1EFF0FF9983C78400A0
:105930006369F5001146A246CE854A85EF106005E1
:1059400055B7340026869305F00F4A85EFF04FE6F1
:1059500075F1A24703578400DC472390E700035703
:1059600024002391E700035744002392E7000357E4
:1059700064002393E70003D744002394E700DC444A
:1059800085CB93F4F90F2286A6854A858297C16755
:10599000FD172A86E311F5FA22459947F9452300B8
:1059A000F50023029500EFF09F962DBF094661B7E1
:1059B000014651B7A947631CF60483C7150003C706
:1059C0000500A207D98F2310F50083C7350003C750
:1059D0002500A207D98F2311F50083C7550003C7FF
:1059E0004500A207D98F2312F50083C7750003C7AE
:1059F0006500A207D98F2313F50083C7950003C75D
:105A00008500A207D98F2314F50001458280054542
:105A1000828083C705002300F50083C71500A3001B
:105A2000F50083C7350003C72500A207D98F2311CE
:105A3000F50082802322050003C7450089476304DF
:105A4000F7000545828083D665000D47E37BD7FECE
:105A50009C45011106CE22CC26CA4AC84EC683C434
:105A6000170003C60700A204D18C138644006311FB
:105A7000D60403C4370083C72700AE8922045D8C97
:105A80009307C4FFC207C1832A89636FF70003A588
:105A900089002314990023108900F155EF00E124B7
:105AA0002322A900014531A02285EFF00FDE65F128
:105AB0000545F2406244D2444249B24905618280C0
:105AC000397122DC2E84834704004AD806DE26DAA8
:105AD0004ED619472A89B285639AE7060346240001
