:100000006F004000975100209381412E17810020FE
:10001000130141FF1305800A973500209385857EE3
:10002000175600201306669263FAC5008322050066
:1000300023A0550011059105E3EAC5FE17C501008F
:10004000130585909755002093854590138601856B
:1000500063FAC5008322050023A055001105910510
:10006000E3EAC5FE138501859775002093854580D9
:100070006377B500232005001105E36DB5FE9302FB
:10008000800873A00230973200209382A27793E217
:100090001200739052309722000093826281739015
:0800A00012347300203000004F
:1000A80000000000000000006F0080086F00801A48
:1000B8000000000000000000000000000000000038
:1000C8000000000000000000000000000000000028
:1000D8006F004006000000006F00E005000000000F
:1000E8006F0080056F0060056F0040056F002005F8
:1000F8006F0000056F00E0046F00C00400000000FE
:100108006F0060046F0040046F0020046F0000045B
:100118006F00601A6F00C003000000006F006003EA
:100128006F0040036F0020036F0000036F00E002C0
:1001380001A001A001A001A001A001A001A001A0AF
:1001480001A001A001A001A001A001A001A001A09F
:1001580001A001A001A001A001A001A0B7170040C3
:10016800930670052380D704130780FA2380E704D9
:1001780003C6B7041376F60DA385C70423800704C6
:100188001376050225C603C6A700118A0DE223804F
:10019800D7042380E70403C7A70013674700238514
:1001A800E7009307004B01000100FD17EDFFB717AB
:1001B8000040930670052380D704130780FA238034
:1001C800E7047D892394A7000100010001000100D4
:1001D800238007042380D7042380E7048546372734
:1001E8000040A303D7802380070482801376050488
:1001F8006DDE03C6A700418A0DE22380D704238061
:10020800E70403C7A700136707012385E7009307DF
:10021800007D01000100FD17EDFFB71700409306B0
:1002280070052380D704130780FA7D892380E704AB
:10023800136505042394A7000100010001000100D3
:10024800238007042380D7042380E7048D463727BB
:10025800004041BFB7170040130770052380E7042B
:10026800130780FA2380E7047D572396E70203C724
:100278006704136717002383E7042380070401A09A
:10028800BD473305F50201007D1575FD82804111DA
:1002980022C426C206C6AA84014463179400B24049
:1002A800224492444101828005041305803E4204A1
:1002B800C13F4180DDB7B71700401307000323880B
:1002C800E702854723ACF1A873002030230304809C
:1002D80095472303F4802302A480828083076480E7
:1002E800E3CE07FE23030480828083076480E3CE85
:1002F80007FE03454480828083076480E3CE07FEBF
:100308002302A4808280411126C44AC24EC006C678
:100318001377F50BAD47AA892E8995446306F70034
:1003280019456D37653F8D444E854D37FD59FD1490
:1003380063983401B240A244124982494101828043
:10034800135509011375F50F453F2209CDB7011162
:1003580026CC06CEB704080051371545853F7137BE
:1003680069372AC6A53F3245058901C9FD14F5F448
:100378007D55F240E244056182800145DDBF397157
:1003880026DC4ADA4ED852D656D45AD25ED006DE89
:1003980062CEB7E700E07D5783AB070022C603AB08
:1003A800470023A0E71823A2E718B7170040130750
:1003B80070052380E704130780FA2380E70483C7C6
:1003C8004704130975FFB689E2071379F90F8546C3
:1003D800AA8AAE84328A37240040E187015763FA3B
:1003E80026016308D5008946130700026313D50068
:1003F8000157D98F93F7F70F371C00401147230295
:10040800FC042303E4801305F00FC935C13D0947F7
:1004180063692711B7070700BE9437870700795922
:1004280063FFE402B3873401636BF702A947639A59
:10043800FA0663940900014915A0A6850945E13526
:10044800050A0345FAFFFD1985047D356385090012
:1004580093F7F40FF5F7E53D2A8961DD4135B717C4
:100468000040130770052380E704130780FA2380F0
:10047800E70403C747044A85418B2382E704F25007
:10048800B7E700E023A0771123A26711E2543244B2
:100498005259C259325AA25A125B825B724C21617C
:1004A8008280A5476394FA06056A9307F00FB3861E
:1004B8003701B3F9F400B69993C7F7FFB3F93701D9
:1004C800FD8CC16A056C9307FAFFE58F99E363FC1D
:1004D8004901135A4A00C147E3E747FFA9BF8567A7
:1004E800416AFD17E9B71305800D63085A01130522
:1004F800000263048A0113051008A6852935813D89
:100508002A8931FDD294B3894941D1B7A6852D45B1
:10051800DD3BD299E3013AF3050AC13BA30FAAFEDA
:10052800D5BF9387FAFF93F7F70F6360F70A03477E
:100538005C04B70708001377070219E3B7870700B9
:100548007959E3FEF4F033873401E3EAE7F08947A9
:100558006393FA0493D92900D54AE38E09ECA6855A
:1005680009455533110A0327CAFF91472320E48020
:1005780003076480E34E07FE23035481FD17EDFB58
:10058800FD1991046385090093F7F40FE1FFC13366
:100598002A8961D5E1B58547E383FAF4A6852D4517
:1005A8009D334E899304F9FFE30709E83D3B93F730
:1005B800340091EB8326048003270A0093074A003E
:1005C800E39EE6E83E8A2689F1BFB5476396FA00BE
:1005D8001305900BE53985B5B1471305B00AE38BD0
:1005E800FAFE9947639EFA02A6852D45293B0149E3
:1005F8008D4AA149DD3963165901832704802320D8
:10060800FA000509E31839FF8327048013972401AA
:10061800635507002312FA0039BD2322FA0021BDD1
:100628009D476391FA0281451305B004E9399D4459
:100638007D596539B3079A002380A700FD14E39A12
:1006480024FFD5BBA1476396FA0219454131793198
:100658000545AD39014581C8854713050005638403
:10066800F4001305C003493909457931CD312A8988
:10067800F5B3E3820ADC7159D5B319C1814799E909
:1006880082803387F500834607003307F500850726
:100698002300D700E397C7FEE5B7797122D4172462
:1006A80000001304A47A4AD006D626D24ECE52CCE5
:1006B80056CA5AC85EC662C466C26AC022891C404D
:1006C800A9EB9724000093846478972A0000938A02
:1006D8006A783714004093097005130A80FA173BAB
:1006E8000000130BEB99973B0000938B6B9B094C15
:1006F8008D4C154DDC4085E383475B00858BADE36E
:1007080083C7CB00918BA5CF971001E0E780609756
:10071800BDA082976DB79727000083C7A77599CBAF
:10072800230034052300440583D701852316F402EA
:1007380023000404DC4082979727000083C787734F
:1007480099CB230034052300440583D7218523163C
:10075800F4022300040483270900D9DF8297E5BF48
:1007680097370000A38007929737000083C7B79197
:1007780063978713352D97D000E0E780407A91047E
:10078800E39A9AF69737000083C71790B9CB973743
:100798000000A38B078E173400000344E48E8947BA
:1007A800631FF410972400009384C47FBC4003C7E0
:1007B800170105CB03C67700B755550037C5898E95
:1007C80093855555130565ED970001E0E78060F4C2
:1007D80097370000A389878ABC40130710FA23863D
:1007E800E70097270000938727679843172600009C
:1007F8000346D6633E849727000083C727639396F2
:100808001700BA9683D60600638706149727000058
:1008180083C7C76163EBC714972700002388076065
:1008280083270900B9EF9727000083C7A7648DC302
:10083800B7170040130770052380E704130780FAF1
:100848002380E70403D701852396E7022380070462
:1008580097E0FFDFE78080C89727000083C787619C
:100868008DC3B7170040130770052380E7041307EB
:1008780080FA2380E70403D721852396E7022380A3
:100888000704B250225492540259F249624AD24A99
:10089800424BB24B224C924C024D45618280639888
:1008A8009701392397B000E0E780609EC9BDE398BF
:1008B800A7EDFD29970001E0E7806034C9B58D47B1
:1008C8006314F404972400009384C46DBC4483C764
:1008D8007700E38807F0BC40B755550037C5898EC7
:1008E80003C6770093855555130565ED970001E01C
:1008F800E78020E297270000A3878778BC44130786
:1009080010FB2383E700F1BD9547E31CF4EC1727A0
:1009180000001307E7788347E700918BE38307EC30
:100928009727000083C74774858B17260000034666
:1009380056779726000083C6C67699CB484309C9DF
:10094800834515000905970001E0E780E00A51BDDD
:1009580081450145CDBF850793F7F70F972600001E
:100968002386F64CE3E9C7E855B586073E978355D5
:100978000700231007009727000083C7A74F8DC3E0
:10098800B7170040130770052380E704130780FAA0
:100998002380E70403D701852396E7022380070411
:1009A800972700009387474A9C4317250000034573
:1009B800E54713172500BA979C43829797270000AD
:1009C80083C7474B8DC3B7170040130770052380B3
:1009D800E704130780FA2380E70403D721852396C9
:1009E800E702238007049727000083C7274413974B
:1009F80017001C40BA9703D70700598D2390A7000A
:100A0800972700009387874283C70700850793F7D6
:100A1800F70F17270000230BF7401727000003479D
:100A2800F740E3EFE7DECDBB0357C5039727000088
:100A380083C70744636CF7008347850023080500D4
:100A480093C747002304F5000545828097270000D7
:100A5800938747609C43FDE3411122C42A84416582
:100A6800130525F506C697A000E0E78080494DCD1F
:100A78008347A5002315F5008327440FC9EF232AD0
:100A8800A40E232CA40E8547231EF402232605005A
:100A98008347B40014412313F5000347A40023023D
:100AA800E500172700001307A75D184F13851702E5
:100AB80015811C437D151375F50F9CC25C43938605
:100AC80006021307070223A2F6FE832787FE23A444
:100AD800F6FE8327C7FE23A6F6FE832707FF23A873
:100AE800F6FE832747FF23AAF6FE832787FF23AC5A
:100AF800F6FE8327C7FF23AEF6FE45FD97270000C5
:100B080083D7C74A8507172700002311F74AB24041
:100B18002244410182808327840FC8C78357C403B6
:100B2800232CA40E85078DB783478400230804006F
:100B3800094593C747002304F400D1BF83478500C4
:100B48002308050093C747002304F5000D4582805C
:100B5800172700001307875014439C5E8583858BF5
:100B6800C1CF9C5EF59B9CDE0100010001000100E5
:100B78000100010001000100010001000100010065
:100B88000100010001000100010001000100010055
:100B98000100010001000100010001000100010045
:100BA8000100010001000100010001000100010035
:100BB8000100010001000100010001000100010025
:100BC8000100010001000100010001000100010015
:100BD8000100010001000100010001000100010005
:100BE8000100010001000100972700009387074BCF
:100BF8009443BC4ABD9BBCCA18431C5F9983858B30
:100C0800A9CF1C5F93F7F7FB1CDF9727000083C76A
:100C1800274793F70704172700001307674681CF74
:100C2800B7170040945F172600002323D646104BC1
:100C3800945FE319D6FE854797260000A384F644FF
:100C4800930700F897260000238EF64297270000A6
:100C58009387C7449C435847B8D3730020309727DD
:100C680000009387A7439C43094797260000938673
:100C7800264198C3B7F700E003C72600058B15E7A0
:100C880003C73600058B15E303C74600058B11EF34
:100C980003A707D16D9B23A8E7D003A707D15D9BC6
:100CA80023A8E7D073005010C1BF828097260000A8
:100CB8009386063DB7F700E003C73600058B15E3BA
:100CC80003C74600058B11EF03A707D16D9B23A827
:100CD800E7D003A707D15D9B23A8E7D07300501086
:100CE800E1BF8280972700009387473B9C43130707
:100CF800A0051306C003B8CB9306200337C70040EE
:100D0800972500009385C53783278720C18393F7EC
:100D1800F7036369F60083278720C18393F7F703F6
:100D280063E6F60083C74500858BF9DF8280972745
:100D380000009387A7369C431307A0071306C00338
:100D4800B8CB9306200337C700409725000093854A
:100D5800253383278720C18393F7F7036369F60058
:100D680083278720C18393F7F70363E6F60083C7D9
:100D78004500858BF9DF82809726000093864630F0
:100D8800B7F700E003C72600058B15E303C7460045
:100D9800058B11EF03A707D16D9B23A8E7D003A705
:100DA80007D15D9B23A8E7D073005010E1BF828074
:100DB800972600009386C62CB7F700E003C7060005
:100DC800058B15E703C71600058B15E303C7460017
:100DD800058B11EF03A707D16D9B23A8E7D003A7C5
:100DE80007D15D9B23A8E7D073005010C1BF828054
:100DF800972700009387872A9C431307A00541463D
:100E0800B8CBE54637C700409725000093854527AE
:100E180083278720C18393F7F703637DF600832731
:100E28008720C18393F7F70363E6F60083C745007D
:100E3800858BF9DF828097270000938727269C43BC
:100E48001307A0074146B8CBE54637C700409725AA
:100E580000009385E52283278720C18393F7F70352
:100E6800637DF60083278720C18393F7F70363E642
:100E7800F60083C74500858BF9DF8280972600003E
:100E880093860620B7F700E003C71600058B15E325
:100E980003C74600058B11EF03A707D16D9B23A855
:100EA800E7D003A707D15D9B23A8E7D073005010B4
:100EB800E1BF8280972700009387471E9C4398478D
:100EC8002183058B39C398471377F7EF98C71727FE
:100ED80000000347E71A13671700972600002381CD
:100EE800E61A17270000230F071817270000130713
:100EF8006717184319CB104B4C4B1442CD8E14C2B4
:100F0800104318471442558F18C298472583058BFC
:100F18003DC79847370600101377F7DF98C717279C
:100F280000001307A7131443D856719B13672700B3
:100F3800D8D69842518F98C21727000013078712F6
:100F4800184319CB50430C471442CD8E14C2504756
:100F5800584B1442558F18C21727000003476712D1
:100F68001367170097260000238DE610130700F873
:100F7800972600002388E61013070019B8D398476E
:100F88000583058B0DCF9847759B98C7054797260E
:100F98000000A388E60E172700002305070E172771
:100FA80000001307270C184319CB104B4C4B144265
:100FB800CD8E14C2104318471442558F18C2984753
:100FC800058B0DCF9847799B98C705479726000052
:100FD800A388E60A172700002306070A1727000038
:100FE80013074708184319CB50430C471442CD8EBA
:100FF80014C25047584B1442558F18C2984793163D
:10100800170163D406029847F176FD16758F98C7C5
:101018001727000003470707620761876357070020
:10102800054797260000238FE60498471183058B10
:1010380001C798473D9B98C773002030A167850773
:101048006397F50083C7818CF9E70145828075DDD8
:10105800EDDDB307A0408D8BAA974111C20706C6E4
:1010680022C4C183130740036369F70617270000EA
:101078001307870908431727000013076708144355
:101088002E84638FA6060357650029EF0357450092
:10109800636AF704B306F74021466370D60210412D
:1010A800938687001D8FAA96611790C22392E60047
:1010B8002393060014C12312F500A16723138500AA
:1010C80085076317F40083C7818CFD172384F18C8F
:1010D8002105B240224441018280172700001307EE
:1010E800670249BF084113172500E34C07F8972703
:1010F80000009387E7D69C5B81C7AA85094582973C
:10110800972700009387C7D59C5B81C7A2850545B3
:10111800829701457DBF15FD0DBF55E582808C4343
:101128006363F50863E1A50893868700636CD50AB5
:1011380003D56700A16685066317D50083C6818C31
:1011480085062384D18C239307006386070397269B
:101158000000938626FB9442638FF600835667004F
:1011680099EA8356470083D747000CC3B697A1076F
:101178002312F700BA8798436306C706972600002C
:10118800938646F89442630FD70483566700B9EAFA
:1011980083D64700035647001843A106B296239208
:1011A800D70098C38280939625003E87AE8763C98F
:1011B8000602972700009387A7CA03A307036303C0
:1011C800030209450283972700009387E7F303A8E2
:1011D8000700972700009387A7F290430147C2872B
:0611E800E3EFC7F2828074
:1011F0003D432A876373C3029377F700BDEFADE5E4
:10120000937606FF3D8ABA960CC34CC30CC74CC7F5
:101210004107E36BD7FE11E28280B306C3408A0622
:101220009702000096966780A6002307B700A306E2
:10123000B7002306B700A305B7002305B700A30432
:10124000B7002304B700A303B7002303B700A3022A
:10125000B7002302B700A301B7002301B700A30022
:10126000B7002300B700828093F5F50F93968500B1
:10127000D58D93960501D58D61B79396270097027A
:10128000000096968682E78086FA9680C1171D8FA9
:101290003E96E374C3F8A5B7F947B387F502E14674
:1012A00093551600130780703E06AE97B375D502AE
:1012B0003355D502B385E50241677D17798E798D67
:1012C000AE97C2075D8E93057005B7170040238067
:1012D000B704930580FA2380B704C8DB03C717035C
:1012E00013670708A388E702D0DB03C71703136758
:1012F0000704A388E702238007048280914763EEF6
:10130000B70217A70100130727F78A05BA959C4172
:10131000BA978287B717004003A7470B1345F5FF1D
:10132000698F23AAE70A03A7070B698F23A8E70A97
:1013300003A7070A798D23A0A70A8280B717004068
:1013400083A6470B1347F5FFF98E23AAD70A83A676
:10135000070B558D23A8A70A83A6070A758F23A01C
:10136000E70A8280B717004003A7470B498F23AADB
:10137000E70A03A7070B1345F5FF45BFB717004062
:1013800083A6470B1347F5FF758F23AAE70A03A728
:10139000070A598D4DB7B717004003A7470B498F70
:1013A000EDB705E937170040930770052300F704F0
:1013B000930780FA2300F70483570702C207C1830B
:1013C00093F7F79FC207C1832310F7022300070496
:1013D0008280B7170040130770052380E7041307C6
:1013E00080FA2380E70403D707021367074023909E
:1013F000E70203D70702136707202390E702238041
:1014000007048280B717004003D587004205418159
:101410009377050491EB9377F5013755E8011305B0
:1014200005803345F50282809377050C130700048D
:101430006397E7009377F50137459C1CCDB721658D
:10144000130505D08280B7F700E0C8439C4782802F
:10145000814737370040A14663C4C7003285828088
:101460000345B740E38EA6FE3385F500034505002E
:1014700085072304A740CDB7411122C406C62A849C
:1014800051372947B307E502B2408D83B3D78702AE
:1014900022449507B3D7E70237370040C207C1831C
:1014A0002316F74041018280716541111305052023
:1014B00006C6D937B7370040130770F82381E740D5
:1014C0000D47A381E74013070004A380E7400547C9
:1014D0002387E740B24041018280B717004003C62E
:1014E000B70583C6870503C7970583C5B705137678
:1014F000F60F93F6F60F93E50508A38DB704BD45E7
:10150000238CB70493051002A38CB70483C5A705E9
:101510001377F70F93E51500238DB70483C5A7054F
:101520008589EDFD03D5C705A38DC704238CD7049A
:10153000A38CE7048280411193962500AA852D454E
:1015400006C697200020E780C059B24001454101FE
:101550008280411122C426C24AC02A842E89B284C4
:10156000AA85930600200146254506C6972000203F
:10157000E7802057931629002686A28529459720C3
:101580000020E7800056B2402244924402490145BF
:101590004101828041119397050122C406C6C1878B
:1015A0002E8463DB0700E12E11C1AD262165218D5C
:1015B000B24022444101828093F7150013C5150003
:1015C000E5FB9397250163DF0700EF20717D37F678
:1015D0000200130606E0896503C561A9EF00300D1E
:1015E0000965F1B7939715010145E3D307FC17A5EA
:1015F0000100130525CEEF80D12E130600649165FE
:1016000003C561A9EF00B00A116555B71D714946C0
:1016100097A50100938585C717A50100130505E26D
:1016200086CE692301E917A50100130565C7EF8080
:10163000512B01A0B7F700E07957D8C77D5798CB59
:10164000856637E700E02320D7101306701090C39B
:101650002320D7181306C00381454808FD2197377A
:101660000020938767723ECA896793870780231C8F
:10167000F100ED47A301F102930750102312F1028C
:101680008146CD470146814521452303F10297203C
:101690000020E7800045A167938707E03ECE9707CB
:1016A0000000938787E9BEC4970700009387A7EAE5
:1016B000BEC6B5472308F102B7F50700970700003B
:1016C0009387A7D83EDA814697070000938727E1E2
:1016D0007000E10519453EDE97200020E78060405C
:1016E00058088147994670003E96034606008507D4
:1016F0000507A30AC700E398D7FED24791C703574F
:10170000810185676373F70001A04808EF00503638
:10171000AA8501C917A501001305C5B9EF80D10A33
:1017200001A0F640256182804111170500001305D4
:10173000A5E606C622C4EF00F02F138461A923009A
:10174000A4002928034504002244B24037F60200D1
:10175000130606E0896541016F006075411106C6F8
:10176000B7170040130770052380E704130780FABA
:101770002380E70403C7F70201450146136777009A
:10178000A387E7022380070481453936B24001452B
:1017900041016F00D05989476305F50263E6A70050
:1017A0008547630AF50082808D476301F5029947FA
:1017B0006303F502828017A501001305E5B16F8070
:1017C000511217A50100130525B2D5BF17A50100B9
:1017D000130585B2EDB717A501001305A5B3C5B76D
:1017E00041119397050122C406C6C1872E8463DD8B
:1017F000070003C54185612211C1292A2165218D78
:10180000B24022444101828093F715000145EDDB8F
:10181000173500201305852DEF50A14E13451400F8
:10182000C5B70111170500001305C5FB06CE22CC74
:10183000EF0050201384418585472300A40023072F
:10184000F1001306E1008D47854513055030A307CD
:10185000F100EF60F1711306F1008545130580304A
:10186000EF601171173600201306460FC1451305AE
:101870007030EF60F16F173600201306260DB54566
:1018800013056030EF60D16E930500050D45EF2024
:10189000A009930500051145EF2000090345040048
:1018A0008545A526F24062440561828041110545C7
:1018B00006C6C53C1305800497200020E780400041
:1018C000371700408327870A8D451305002093E7CB
:1018D00007202324F70A1D34C13E17A50100130574
:1018E000E5B5EF8011001D338135EF70610F153FB5
:1018F00097200020E780A050E5BF23AC05FE1C41E7
:1019000081E70CC18280BA8703A787FF6DFF23ACF4
:10191000B7FE82801DC18346E5FF1307F00F914794
:10192000639EE600411106C697300020E78020F54F
:10193000B24081473E854101828095473E85828045
:1019400001E9014582800145B24022444101828083
:10195000411122C42A84210542059305D004418106
:1019600006C697300020E780A0E371DDFD572320F5
:101970000500231285002303F5002105F1B7175751
:101980000020130767C01C43411122C426C24AC06D
:1019900006C601440149BA8489E7A16559251DC4D9
:1019A00001A803C7E7FF631AA7020DCCA165B12CFC
:1019B0009840832784FF6319E402175700202325EA
:1019C000F7BCFD57232C04FE230FF4FE2285B24002
:1019D0002244924402494101828011E03E8983A75A
:1019E00087FF5DBF3E84E5BF232CF9FED9BFB9C98F
:1019F000411122C406C62A849757002083C717B90D
:101A00002E856368F40039370D45B2402244410108
:101A1000828083A785FF99E703C7E5FF9307F00F4F
:101A20006305F700C53D1545CDB7238F85FE1755D6
:101A30000020130565B5D13522852244B240A16549
:101A40004101E1A2154582809757002023AE07B2DD
:101A5000828097570020938767B69C4399E33E8521
:101A6000828003D727006316B70003C70700E30887
:101A7000A7FEDC47E5B74111939705014AC006C6AA
:101A800022C426C2C1872E8963DE0700CD3D11C165
:101A9000513521653345A900B240224492440249A0
:101AA00041018280AA860145E5D901443D47B357EB
:101AB0008940858B85CF97570020938727B484432F
:101AC000BD4791E28147A2978E070545BE94331525
:101AD0008500131405019C40C8404180829723A0D3
:101AE000040023A20400334524017DB70504E3105C
:101AF000E4FC0144CDBF97570020938767AC9C530B
:101B0000411122C406C61384818095C7829723A4FD
:101B1000A1800840B74703009387D73F3305F502FC
:101B2000B7A72600938737ECB24022443E9523A402
:101B3000A1804101828097570020938727A51840F4
:101B40009C4BBA9723A4F180E9B72A9609E58280D5
:101B50000505A30FB5FEE31DC5FED5BF81473307BD
:101B6000F5000307070019E33E8582808507C5BF9E
:101B700001112E8626CAAA84131506019305F004C6
:101B8000418122CC06CE32C697300020E78040C18A
:101B90002A8419C53246A68597200020E780202494
:101BA0002285F2406244D2440561828081476314F9
:101BB000F600054582803307F5008507B386F500FA
:101BC0000347070083C6F6FFE383E6FE01458280F4
:101BD0009307F6FFBE952A966313C5008280FD1514
:101BE00083C715000505A30FF5FEFDB7814711E971
:101BF000014582803307F50003470700E31AB7FE6B
:101C00008507E319F6FE054582809757002083C7B4
:101C1000F7976371F502175700201307E799931799
:101C2000150008433E9583570500DD8D2310B50050
:101C3000014582800D458280975700209387479CFD
:101C40009C43638C072279714ECE06D622D426D2CD
:101C50004AD052CC56CA8297AA8915CD97540020F3
:101C60009384C4929C481759002013096995014A2E
:101C7000AA97175700202323F792FD5717570020E4
:101C8000232CF7909757002093874793804309ECC4
:101C900083274902C9E3B250225492540259F249AF
:101CA000624AD24A456182801844814763F4E90060
:101CB000B3073741032749021CC401CBD84463F65C
:101CC000E700175700202329F78C95EB8355240054
:101CD0008DE15C44631E0A02175700202320F78E13
:101CE000832AC400228597300020E78040B95684BB
:101CF00079BF03450400113F5C4081CB1CC483576E
:101D00002400E1DB228A404459B71C44F9D3C5BF03
:101D10002326FA00F1B7975700209387E78990436D
:101D20009756002083C69686814713F7F70F6363A3
:101D3000D708175400201304A4AA834774000D4742
:101D4000F91793F7F70FE378F7F49757002083C755
:101D5000E7AB918BA9F34800EFB0B07B7D566309E8
:101D6000C50C9246175700200347B786E375D7F294
:101D7000DC44638FC70403464901058A21C65146E6
:101D8000B387C702E379F7F063F3D700BE86B717CE
:101D90000040905F32C48C5F2246E39CC5FE224522
:101DA000198D3695B707C0A86367F502B707405786
:101DB0003E9515A085071397170032970357E7FF45
:101DC0002DD7D1BD13069002B387C70285835DBFAF
:101DD000636AE504198D9747002083C7A77F8DC3E9
:101DE000B7170040130770052380E704130780FA34
:101DF0002380E70403D721852396E7022380070485
:101E00008327490225C982971375F50FE31505E865
:101E10005C48E38207E8EF10F177EF20F107EF105D
:101E2000117095BDB707C0A83387E7403A9565B7ED
:101E3000DC44E382A7E603474901058B15C75145FA
:101E4000B387A702174700200347B778E375F7E485
:101E5000B7160040905E32C68C5E3246E39CC5FEEB
:101E60003245198D3E953DBF13059002B387A702F9
:101E70008583C9BF3705C0A879B7828097470020FE
:101E800083C7D7706373F502174700201307C77223
:101E900093171500084393C5F5FF3E95835705003A
:101EA000FD8D2310B500014582800D458280974746
:101EB000002083C7B76D6364F5000145828041113E
:101EC00022C426C24AC006C62A842E89B28451364C
:101ED00001C504C505452DA09315840093E5F504BF
:101EE000414597300020E780A08B0DE19747002007
:101EF0009387076D9C5B81C7A28511458297014539
:101F0000B240224492440249410182809747002016
:101F10009387C76A9C439DE39747002023A0A76A45
:101F200085472326050004C52311250123008500CC
:101F3000A300F5002322050071BFBA87D84775FFBB
:101F4000C8C7F9BF55C539715AD0174B0020130BBC
:101F5000EB6A22DC26DA4AD84ED652D45ECE66CA66
:101F60006AC86EC606DE56D262CC3689328AAE891F
:101F7000AA8401445A8DB94D854BF94C03270B00B7
:101F8000131C3400937AF40F62971C43A9EF13B526
:101F9000FA0013451500B3978B0063F65D019307B4
:101FA00014FFB397FB0093950701C1815286013757
:101FB0001DC983270D000145E29784C323A2370181
:101FC0006304090023005901F2506254D25442596B
:101FD000B259225A925A025BF24B624CD24C424D99
:101FE000B24D216182800504E31A94F92145E9BFCD
:101FF00009458280411122C426C24AC006C6AA846D
:102000002E8932846D35CA852685A13409C940C11F
:102010000145B24022449244024941018280214557
:10202000CDBF411122C426C24AC006C6AA842E8949
:102030000D342A8419C123110500CA8526853D3D2A
:10204000014511E01945B240224492440249410140
:1020500082807547636DA704174700201307075A4E
:102060001443411126C293143500A696944222C40B
:1020700006C6AA873A84094595C613B5F7003947BD
:10208000134515006373F700C5178545B395F50033
:10209000C205C18179371C400145A69723A00700DE
:1020A00023A20700B24022449244410182800945A4
:1020B0008280411106C6713A09C50845B240410106
:1020C00082800145E5BFF54763EFA70497470020ED
:1020D0009387C7529C4313173500BA979843894793
:1020E00021C7011126CA06CE9334F50022CCB94788
:1020F00093C4140063F3A700451505443314A400EA
:10210000420441802EC62685A2856537894732461E
:1021100009C5A2852685613B8147F2406244D244CD
:102120003E850561828089473E858280411106C6D1
:102130009747002023A6A74C0295B240974700205E
:1021400023A0A74641018280894763E9B7008A0539
:102150009747002093878745BE9588C182804111AB
:1021600006C622C426C2EF60B10E3146814517452E
:1021700000201305A543D13A71468145174500203B
:102180001305C540D9329747002023A90742974736
:10219000002023A707469747002083C7274413D56D
:1021A00027008D8B3E958D473305F502174400209F
:1021B0001304C43D9947930510029744002093846B
:1021C000A43E35051375F50F2301A4003305F50270
:1021D0001305050F97200020E780805C97470020BB
:1021E00023AEA740834724001305050F88C08A0744
:1021F0003E959747002023A1A73CEFF0FF84912E46
:10220000834714009840170600001306068793962C
:102210002700BA9690C293862700850793F7F70F99
:10222000A300D400B24022448A07BA9790C39244D4
:10223000410182809747002083C757351747002008
:102240000347E73463F3E702174700201307C73556
:1022500018439386170017460020A309D632939699
:102260002700369708C33E8582809307F00FE5BFAD
:10227000411126C2044106C622C44AC08947638E62
:1022800004124177658FB706002089476317D7127C
:1022900003594500630309122A8419469305F00F78
:1022A0005905EFF0BF9405478D476308E5104A864E
:1022B00081452685EFF07F891306C00381451745C8
:1022C00000201305E52FEFF05F881306C003A285F9
:1022D000174500201305C52E97200020E78020B069
:1022E0009747002083D7872E99E793070020174749
:1022F0000020231DF72C9747002083C7472D91E727
:102300008547174700202304F72C9747002083C7F1
:10231000172C91E7ED4717470020A30AF72A9747A4
:10232000002083C7E72A91E795471747002023013C
:10233000F72A9747002083C7B72991E785471747B2
:102340000020A307F7289747002083C7872891E735
:10235000CD4717470020230EF7269747002083C755
:10236000072899E793078002174700202309F726DB
:102370009747002083C7A7261747002003477725E4
:10238000858339E39387070517470020A303F724C4
:102390008347D40191E7914717470020A300F72412
:1023A000974700209387C7219C5791C782979747EB
:1023B00000202390A71E65338147B24022449244F7
:1023C00002493E854101828003473401BA9793F761
:1023D000F70F5DBF4111B7170040985F3AC6945F91
:1023E0003247E39CE6FEB247174700200347871EAB
:1023F000058B3EC0824731C313063033B386C70214
:10240000B3B7C702B982CA07D58F3EC202C4974785
:1024100000209387A717D44B9247638DF60092470D
:1024200063E5D7029247958F3EC492471747002035
:102430002328F7162245410182806546B386C702EC
:10244000B3B7C702A582DE07C1B719E737673D08F2
:102450009247958FBA97C9BF37876F0813070790C0
:10246000C5BF011122CC06CE2A842EC6EFF0AFE8FC
:10247000B245F240818D33A5A502229562441375C1
:10248000F50F05618280011122CC06CE2A842EC66A
:10249000EFF06FE6B245F240818D33A5A50222959B
:1024A00062444205418105618280011122CC06CE41
:1024B0002A842EC6EFF02FE4B245F240818D33B569
:1024C000A502229562440561828097470020938788
:1024D000270F985721CF411122C426C206C6BE84B9
:1024E0000297174700200357C70A2A841DCBBA87D3
:1024F0006373A700AA87C207C183BA866373E40027
:10250000A286C206C182958F1307C003635BF700E2
:10251000DC5491C38297EF20A10897470020239AAB
:102520008706B240224492444101828082809747CC
:1025300000209387E708DC57411106C691C38297B4
:1025400017050000130545E9D536B24001454101A4
:102550008280011122CC1744002013046406084431
:1025600006CE26CA19E50545F2406244D24405610B
:1025700082805C58EDDB185C7DD7700085458297C2
:102580001844B247E301F7FE8357C4001745002003
:102590000345E5039305E0043305F5029744002065
:1025A0009384C4FE4205418197200020E780401FAC
:1025B000174700202328A7FE5DD59747002083D723
:1025C000E70017460020034686003306F60293050F
:1025D000F00FEFF08FD7904C08449747002083D737
:1025E000E7FE08C29745002083C565FEB385F50266
:1025F0001C5C89818297884C97200020E7802028E6
:1026000001459747002023AF07F8B9BF411122C405
:10261000174400201304C4FA1C4426C206C697447B
:1026200000209384A4F6ADCB1C5CBDC79C4C8DE709
:102630008357C40017450020034565F99305E0045E
:102640003305F5024205418197200020E7804015BF
:102650009747002023A8A7F4884C1DCD974700205A
:1026600083D7C7F617460020034666F63306F60200
:102670009305F00FEFF06FCD904C08449747002082
:1026800083D7C7F408C29745002083C545F4B385B6
:10269000F5021C5C89818297884C09C9972000202B
:1026A000E780E01D9747002023AE07EEB2402244AA
:1026B0009244014541018280011126CA97440020BD
:1026C0009384C4EC22CC804C4EC652C456C206CE73
:1026D0004AC8AA8AAE89328A31EC17490020130908
:1026E00029EE8327890099E3A94471A08357C90083
:1026F000174500200345A5ED9305E0043305F502D9
:102700004205418197200020E78080092A8441C545
:1027100083274903C9C39745002083C545EB174765
:1027200000200357A7EAB385E5022A86032589001E
:102730008981829791451307A00589819397250088
:10274000A29783C607006395E60483C61700639EBD
:10275000560385058A054E86A2955285971000205E
:10276000E780E0679C4C814463878700228597203F
:102770000020E780C010F240624426854249D244DE
:10278000B249224A924A0561828083D5270075B7F3
:102790009C4CE38B87F4228597200020E780200E55
:1027A000A1B7974700209387A7E1984729CB9C5F63
:1027B000B9C785466315D504411122C417440020CA
:1027C0001304C4DC104C06C61DC69746002083D6F1
:1027D000E6DF9745002083C585DFB385D5023A85BE
:1027E00089818297084C97200020E780400997470D
:1027F000002023A907DAB24022444101828082806E
:1028000097470020938787D8984F011122CC26CA7A
:102810004AC852C406CE4EC62A89AE8432843E8A45
:1028200035E7974900209389A9D983D7C90017456F
:1028300000200345C5D99305E0043305F5024205A0
:10284000418197200020E780A0F59747002023AB27
:10285000A7D42A8611E92945F2406244D24442496C
:10286000B249224A0561828003A5890005C183A778
:10287000490389CF9745002083C565D517470020B8
:102880000357C7D4B385E5028981829703258A015E
:1028900091461308A005FD5593D72600C207C183B2
:1028A000139727002A9703460700631B06038348F4
:1028B00017000356270063932803B306D64063CD61
:1028C000960085078A073E952686A28597100020E8
:1028D000E780E050014549B7A300B700B2866DBF5D
:1028E00017460020035686CE9745002083C525CE87
:1028F000B385C502338696001106E3EEC5F4138650
:102900003400719A1106B29623000701A300270133
:102910002311D7007DB701458280011106CE2EC656
:10292000EF60500101C9B245F24003552500056131
:102930006F90703DF240494505618280A380018817
:102940002380018823A4018623A6018623A801866B
:1029500023AA018623A2018623A00186974700208F
:10296000938747CC930600051307400B2391E7009C
:102970002397D70011672398D7009306007D2392F1
:10298000E700239DD7001307000ABD462393E70005
:102990002394E7002391D7024147F1762395E7007E
:1029A0002396E7002399E700239AE700239BE7009B
:1029B000239CE700938606B82394E70205472392F9
:1029C000D7022395E7029D46130710F82396E702E6
:1029D00023900700239E0700239F070023900702F0
:1029E0002393D702239707027D5723980702239941
:1029F000E7028280011126CAAA84214522CC06CE94
:102A00002E8432C636C43AC2EFE09FF31DC9A246F7
:102A100012473246930700FD2300F5009947A300B3
:102A200095002301F5002303D500A303E50023123D
:102A3000C500AA8522856244F240D24405616FE058
:102A40001FFBF2406244D2440561828023A4A18628
:102A5000828023A6A186828023A8A186828023AAC1
:102A6000A1868280011122CC4AC806CE26CA2A89B4
:102A70000144B30489006368B400F2406244D24464
:102A80004249056182802EC6EFF0EF86931705015B
:102A9000C183A183B2452380F4009307140093F708
:102AA000F70F850463F9B700CA9709042380A700CC
:102AB0001374F40F7DBF3E847DBFC16717450020AE
:102AC0000355A5B4FD176304F50241111746002014
:102AD000034646C29385818706C6EF60204EB2400A
:102AE000FD57174700202312F7B2410182808280F0
:102AF00009C925151375F50F1335850E13451500F6
:102B000082800145828023800500F94763E2C7087F
:102B1000797122D426D24ECE56CA5AC806D64AD089
:102B200052CC5EC63684B289AE8A2A8B814463FF5A
:102B30003405B307940003CA0700138914001379FE
:102B4000F90F63050A04B3072A0163C1F904B30747
:102B5000240183CB07005E85613F0DC99307FAFF0F
:102B60002380FA0063906B03130519002295B2507D
:102B7000225492540259F249624AD24A424BB24B11
:102B800045618280D29493F4F40F55B70145C5B7DF
:102B900001458280411126C2AE8422C4974700209D
:102BA00023ACC7A69747002023A6B7A697470020C7
:102BB00023A0A7A62A8441469305F00F26854AC084
:102BC00006C60549EFF08F82631E25039747002054
:102BD000938747A3884BC145713541469305F00F54
:102BE0002285EFF0AF808544631695022244974713
:102BF0000020938727A1B24092440249C847C145AB
:102C000041018DB5414681452685EFE03FFEE31643
:102C100025FD6DBF414681452285EFE03FFDE3077D
:102C200095FCB24022449244024941018280411104
:102C300022C426C22E84AA841306000281451745A9
:102C400000201305259C06C6EFE03FF097470020C3
:102C5000A38B979A97470020A38F87A8EF90300CFB
:102C6000854719C181474945B24022441747002092
:102C7000230AF798924441018280814781CD19C986
:102C80008547631BF50083C7550093E707FCA382C4
:102C9000F50085473E85828089476317F50083C725
:102CA000550093F7F703E5B70D478547E314E5FEB5
:102CB00003C755001377F70313670704A382E500E2
:102CC000D1BF81478DC105C103C755009306000CD4
:102CD00085471377070C6308D700930600048D47D8
:102CE0006303D70089473E858280411122C4005D7D
:102CF00006C626C21DC8AA84085009C59720002010
:102D0000E780E0B7485009C597200020E78020B74A
:102D1000085409C597200020E78060B622859720D7
:102D20000020E780C0B523AC0402B24022449244A4
:102D30004101828009ED9747002083C7C78C174562
:102D400000201305A58D81CB1385818582801745D1
:102D500000201305A58C8280174500200345A58A15
:102D60008280974700209387E789C84782809747EA
:102D7000002093872789884B82809747002093877C
:102D80006788DC4B8843828097470020938787873A
:102D9000D84B1C4385071CC3174500200345B58647
:102DA0009307F00F6305F50091656FE01FE68280E1
:102DB000011122CC06CE2E8432C6EF602048914706
:102DC000B245631FF500938741879C438DC303A3DE
:102DD0000700630E030022856244F240056102830E
:102DE0009387C1869C4381C703A34700DDB7F240A8
:102DF0006244054505618280011122CC2A84035575
:102E0000450006CE26CA4AC84EC6EF60A0292DC589
:102E10002A89834405008349C500C13D4A85EF7076
:102E2000401B03554400EF60E03C83C70188A9CBF9
:102E30006398970483C511882685C53419E12380DA
:102E4000018803554400EF60603F9147631FF50020
:102E5000035744009737002083D7277B6317F70079
:102E6000FD57173700202312F77AF2406244D2440C
:102E70004249B2490561828081499304F00F75B7D8
:102E80009307F00FE38FF4FA83466400035644007F
:102E9000034524004E87A685B13E65B779715EC6AD
:102EA000AA8B2E8552CC56CA5AC806D622D426D210
:102EB0004AD04ECEAE8A328B368AEF60A01E6DC1EC
:102EC000045D2A89F1CC9C50614599C313054003E8
:102ED0009C5481C751054205418163050A00710573
:102EE00042054181DC5081C7590542054181EFE02F
:102EF0003FA52A8455C561468145EFE01FC5973936
:102F0000002083C929756394090083490900930748
:102F100000FD2300F400A947A30074012301F4007D
:102F2000230364018C50231254011305840191C9B9
:102F300008C47146930A440397100020E78020EAF2
:102F400056858C5491C948C45146930A450197103F
:102F50000020E780C0E85685630C0A0008C8714667
:102F6000D285930AC50197100020E78040E7568577
:102F7000CC5099C548C8594697100020E78020E6F4
:102F8000A2854E85EFE0BFA62254B2509254F2497A
:102F9000624AD24A424BB24B4A8502594561B1B3AB
:102FA000B250225492540259F249624AD24A424BD8
:102FB000B24B4561828001114EC6AA892E854AC84E
:102FC00006CE22CC26CA2E89EF60C00D31C59734BB
:102FD000002083C4246899E0834405001945EFE08C
:102FE0003F962A8415C981451946EFE01FB693071D
:102FF00000FD2300F400B947A30034012301F400CD
:1030000023122401A2856244F2404249B249268536
:10301000D24405616FE0BF9DF2406244D244424910
:10302000B2490561828039715ECEAA8B2E8526DA7F
:103030004ED652D456D25AD006DE22DC4AD8AE84BE
:10304000328BB68A3A8ABE8942C6EF60A00531C982
:103050002A894145EFE0DF8E2A8421C5414681451A
:10306000EFE0BFAE173500200345C55E19E103450B
:103070000900930700FD2300F400BD472301F4007D
:10308000B247A30074012312940023046401A30433
:10309000540123054401A30534015CC4A285EFE07B
:1030A0001F95F2506254D2544259B259225A925A40
:1030B000025BF24B21618280797126D2AA84394564
:1030C0004AD04ECE06D622D42EC6B2893689EFE03B
:1030D0003F8721C1B2459307000D2310F500B1478A
:1030E0002A842312B5002301F500CE85190519465F
:1030F00097100020E780A0CE23062401A285225449
:10310000B2500259F24913F5F40F925445616FE041
:103110001F8EB250225492540259F2494561828066
:10312000173700200347374E9307F00F630DF7065C
:10313000411126C2AA84394522C406C64AC0EFE01E
:103140003F802A8439C9930700FD2300F500A300BE
:10315000950023010500973500209385254C0D052A
:10316000194697100020E78080C7173900201309FF
:10317000694983578900A285173500200345B54862
:103180002315F400834719002306F4002244B240BB
:103190009244024941016FE09F85B240224492442B
:1031A0000249410182808280011156C2AA8A3145BA
:1031B00026CA4AC84EC652C406CE22CCAE84328A33
:1031C000B6893A89EFE0CFF729C92A842685EF50DE
:1031D000706D1DCD03450500930700FD2300F4002D
:1031E0009D47A30054012301F400231294002313EC
:1031F00044012314340123152401A2856244F240C2
:10320000D2444249B249224A924A05616FE02FFEF8
:10321000173500200345353FC1B7F2406244D24420
:103220004249B249224A924A05618280397162CC90
:103230002A8C594526DA4AD84ED652D456D25AD07C
:103240005ECE06DE22DCAE8432C636C4BA8B3E8B3E
:10325000C28A468A8359010403494104EFE04FEED4
:1032600035C53246930700FDA2462300F500954779
:10327000A301C500A30085012301F5002A84194696
:103280001105A9C2B68597100020E78040B5230636
:103290006401230A24012315740123175401231800
:1032A000440123193401A2856254F2504259B259A3
:1032B000225A925A025BF24B624C2685D25421610B
:1032C0006FE0EFF28145EFE05F88D1B7F2506254D2
:1032D000D2544259B259225A925A025BF24B624C72
:1032E000216182809737002083C7E7318DCB411160
:1032F000AA8519461385818506C697100020E780A8
:1033000000AE93858185173500200345C52FEFF06A
:10331000DF96B2401385818541016F90C020014541
:103320008280411106C622C426C2173700200347F7
:10333000972D9307F00F6308F704AA842945EFE05F
:103340002FE02A8429C1930700FD2300F500A1473F
:103350002301F500A3009500973700209387872A63
:1033600083C72700938581851105A30FF5FE1946B4
:1033700097100020E780A0A6A285173500200345FE
:103380009528EFE0CFE6173700200347E72785476A
:103390006317F702938701879C4381C79C4791C3BA
:1033A00082972244B24092445D661735002003455F
:1033B000653413060670914541016FE0BFC3B2400A
:1033C0002244924441018280797122D406D626D2C9
:1033D0004AD04ECE52CC09445DC92A890355050016
:1033E0002E8A5144EF50104CAA8455C197370020C3
:1033F00083C77730FD1793F7F70F05474944637884
:10340000F7080347C500A1476314F70063110A08D2
:103410009C5C4544ADEF930570041305C002971002
:103420000020E780E03788DCAA894D442DC11306CF
:10343000C0028145EFE06FF1835709009386490090
:1034400036852391F90071469305490036C69710D9
:103450000020E780C09889472380F90003C5C40095
:10346000B2460356090061159735002083C58528AB
:1034700013351500EF8060502A8463060A00D28558
:103480002685EF60706001C42685EFF01F862285D7
:10349000B250225492540259F249624A45618280E4
:1034A0009737002083C73725FD1793F7F70F054798
:1034B0006378F708894751C6011122CC26CA4AC849
:1034C0004EC652C406CEAA89368AB2842E89EF50DF
:1034D000703D2A84D14729C9485509C59710002055
:1034E000E780E039F1452685EFE08FE848D4CD4705
:1034F00005CD8346C40021478147639FE600630DE5
:103500000A000347A5010356050193062501AA8574
:103510004E85EF60C04DAA8703474400630F090042
:10352000136767002302E400F2406244D244424938
:10353000B249224A3E850561828013674700DDB7A4
:10354000C9473E858280E14763EBA700973700209B
:103550009387470D06053E9503550500828041651A
:103560007D158280011122CC2A842E8526CA06CEA2
:10357000AE84EF5030330DCDB7470F009387F7235C
:10358000094563E2870281450A854146EFE0EFDBAA
:10359000A685231081000A85418023018100A301B3
:1035A0000100EF80201FF2406244D2440561828016
:1035B0004945D5BF97370020A38EA71282806F8020
:1035C0004034797152CC2A8A328522D426D24AD00C
:1035D0004ECE56CA5AC85EC606D662C4AE8BB28AF2
:1035E000368BBA843E89C2894684EF50B02B15C908
:1035F0002A8C63140A0213774B008347450015CFCA
:1036000093E727012302FC008DEC631C0902639AF7
:10361000090205E8ED9B2302FC00832B8C03639FCA
:103620000B06B250225492540259F249624AD24ACD
:10363000424BB24B224C45618280F59B93E70701D8
:10364000D1B793E747002302FC0001CC1C48414658
:10365000A2852324FC0213058C0197000020E7803B
:10366000007863910B02D5D80325CC0209C59710C9
:103670000020E780C020F1452685EFE06FCF2326AC
:10368000AC0261BFE30B09F80325CC0209C5971012
:103690000020E780C01EF1454A85C5B795C483A7C1
:1036A0000B0291EB93057004714597100020E780A1
:1036B000200F23A0AB0203A50B0219C57146A685F6
:1036C00097000020E780A0716387090283A74B025F
:1036D00091EB93057004594597100020E780400C4A
:1036E00023A2AB0203A54B0219C55946CE8597000C
:1036F0000020E780C06E15C483A78B0291EB930571
:103700007004514597100020E780800923A4AB0284
:1037100003A58B0219C55146A28597000020E780BA
:10372000006C2254B2509254F249B24B224CCA86D9
:103730005A860259424BD6855285D24A624A456121
:103740006FF0CFF5011126CA52C406CE22CC4AC86A
:103750004EC62A8AAE84EF50F01425C5AA89394591
:10376000EFE00F9E2A8431CD17390020034989EEFE
:103770006314090003C909009307000D2310F40026
:10378000AD472301F4009385690013053400194601
:1037900097000020E780A06493F714008580858857
:1037A0002306F400A306940023154401A285624475
:1037B000F240D244B249224A4A85424905616FE04B
:1037C0000FA3F2406244D2444249B249224A056101
:1037D000828093870186884301CD411106C69710E8
:1037E0000020E780C009B24023A001864101828009
:1037F0008280011106CE22CC26CA4AC82EC6EF50BE
:10380000700A39CDB245173900200349A9E4AA84CA
:103810000CD563140900034905004145EFE04F92C0
:103820002A841DCD9307000D2310F500A547230121
:10383000F50083C75400938564001105A30FF5FEBE
:10384000194697000020E78080599C54A285F240D9
:103850005CC46244D2444A85424905616FE02F99B5
:10386000F2406244D244424905618280797122D497
:1038700006D62A842EC6EF50F00201CDB24522852D
:10388000230EB1006C08EF60B01CB25022544561A9
:1038900082805145DDBF6F50700FC1671387E7FF0E
:1038A0006394E5029387C1869C4391EB49458280EE
:1038B0004945B2402244924402494101828003A317
:1038C0000700E30503FE0283411122C426C24AC059
:1038D00006C6FD172A892E84B2846395F502938764
:1038E000C1869C4391CB9C4381CB829711E5238079
:1038F0002189A380918875BFA6854A85EFF0EF8165
:103900004DF9F5B72E85EF50E0795DD1834705007D
:103910000D45E39027FB22852244B2400249A6854B
:10392000924441016F80303EE14763E8A70441675C
:103930007D1789476384E504411122C426C206C667
:10394000C547AE842A84631AF5001305C003338586
:10395000A50242054181EF809042131514001734EF
:103960000020130424CC2295B24022442310950059
:10397000814792443E854101828089473E8582800D
:10398000011106CE2AC6EFE07FFBEF106000EF00CA
:10399000E073EF403146324597370020938787C662
:1039A000130700F02391E700238207007D57973724
:1039B0000020938727D4A380E7002380A700F2404C
:1039C000954505616F4060085D7193970501CAC018
:1039D00086C6A2C4A6C24EDE52DC56DA5AD85ED6DD
:1039E00062D466D26AD0C1872E8963D6074C173558
:1039F0000020034525D0EFD09FF88964416A856A8D
:103A0000797B2A84938BD4007D1AA50A691B15E063
:103A100021653345A900B640264496440649F2592B
:103A2000625AD25A425BB25B225C925C025D616177
:103A30008280834704001307200A639DE700035533
:103A40002400173C0020034C1CBC2286D285EFF0DA
:103A50002FB699A213071009173C0020034C9CC9EC
:103A60006399E7168347140015476390E7022285A0
:103A7000EFF08FB82285EFD0FFE91735002003451E
:103A800065C7EFD0DFEF2A8459B739476399E71646
:103A900003554400631B55050C4483C90500639D11
:103AA0000900850591C9194617350020130505B78A
:103AB00097000020E780A03217370020034787B423
:103AC00085476318F710638A090097370020238B16
:103AD00007B24E85EFF0CFE471BF8947173700205A
:103AE0002302F7B2EF80F02371B793872400631AA3
:103AF000F50683298400638E090C83C709008DE3D2
:103B000083C7290003C71900A207D98F17370020E0
:103B1000231EF7AE83C7390017370020A304F7AE82
:103B200017370020034707AE89476314F70A83C796
:103B3000090081CB97370020238607AC03C5090015
:103B400051BF8D479735002083C5D5AB1735002071
:103B50000355C5AB173700202306F7AAEF30F071E5
:103B6000F1BF938754006318F5001C4403C5070098
:103B7000EFF02FFB01B7B3076501C207C1831147FF
:103B8000636FF700938701879C43E38507EE9C43AF
:103B9000E38207EE22858297E31E05EC1DA893873A
:103BA000B400631FF500938781869C43E38407EC90
:103BB0009C43E38107ECA2851385B4008297E9BF9B
:103BC0009387C4006310F5021C4483C70700E38396
:103BD00007EA9307F00FE30FFCE8A2856285EFD0B8
:103BE0001FE161BD9387E400E315F5FE9387C1866D
:103BF0009C43E38107E8DC43A285E9F3A5BD3D478B
:103C00006397E70403554400E30275FF938794012B
:103C1000E30EF5FC93873401E31DF5FA9737002096
:103C200083D7A79E639E47019387C1869C43E38306
:103C300007E4DC43E38007E4A28513853401BDBFBC
:103C4000938741879C43E38707E29C43E5B71307CB
:103C5000E003E390E7F88347240005476396E70E07
:103C600083476400138D0186F1E383270D00D5CBD4
:103C700003CC0700A14903457400930C8400E6853A
:103C8000EFF02F8483474401A303A4008358040169
:103C90000358E400035744002A86034534003EC21B
:103CA00083572401E686E2853EC0CE87EFF00FD829
:103CB0008347340095E7DD47835804010358E40047
:103CC00083467400835544003EC2835724013EC09E
:103CD0006687CE8705466285EF50E068A301A400A1
:103CE00083270D0081C71145EFF0BFAE03C50188E2
:103CF000E30205D883C51188EFE03FC2E30C05D687
:103D00008346340093071003638AF6000356440089
:103D10004E8783C501883685EFE0DFCD238001889B
:103D200091BB173C0020034C1C8EA9B793870187D9
:103D30009C43173C0020034C1C8D91498DDFDC43D4
:103D40009DDB0145829705BF2947639DE7088347AF
:103D50006400138D0186ADEB83270D00ADC303CC4A
:103D60000700A14903457400930C4401E685EFE088
:103D70005FF583470402A303A4008358C4010358DA
:103D8000A401035744002A86034534003EC28357EA
:103D9000E401E686E2853EC0CE87EFF02FC9834777
:103DA00034009DFFDD478358C4010358A4018346B6
:103DB0007400835544003EC28357E40109BF173C99
:103DC0000020034C5C8471BF938701879C43173CA0
:103DD0000020034C5C839149D1D7DC43C1D7014516
:103DE000829749B70947639DE700938781869C4383
:103DF000E38207C8DC43E38F07C6228582979DB91B
:103E00002D476399E700938781869C43E38407C627
:103E10009C47D5B70D476397E70022868D4503552C
:103E2000440035B119476395E70693056101130511
:103E30001031EF4091042C0813052031EF40F103BD
:103E400003566400835781010355440063E8C700AB
:103E5000835684000357610163F7E600930500026F
:103E6000EF80E07001B96374E6002313E40063F4AB
:103E7000D7002314F4000357C4008356A40003564C
:103E800084008355640001488147EF80006EDDB6F1
:103E90001D47E390E7D403574400E3ECE7D29727AC
:103EA00000209387677D06073E9783576400F117CC
:103EB0002310F70039BB93F7150081CF93878186D4
:103EC0009C4389C7DC4399C3014582971345190078
:103ED00099B693F7250081CF938701879C4389C7C3
:103EE000DC4399C305458297134529002DB693F706
:103EF00045000145E38107B29727002083C7D770AB
:103F0000B5C7FD1793F7F70F17270020A30EF76E1D
:103F1000B1EF938741869C4391CF854717270020B7
:103F20002304F76E938701879C4389C7DC4399C3B9
:103F300005458297972700209387C76CC8472C08B0
:103F4000EF70E06D2808EFF0EFB997270020938716
:103F5000676D83D727029145172500200345857992
:103F600017270020A302F76AEFE0AF8B1345490043
:103F70005DB4411122C42A84554506C6EFF0AFDC7A
:103F8000B335A00022852244B24041016F80E05A3F
:103F9000797122D406D68D472E84631FF50003D78E
:103FA000A50083D6850003D665000345340083D57C
:103FB0004500EFF06F9F09A889671387D70063104A
:103FC000E50403C5250019E58547B25022543E8516
:103FD00045618280938701869443FDD603C63600EF
:103FE00083C50600814802C202C0014881470147DB
:103FF0009106EFF0AFA30545EFF0AFFDF1B71387E2
:10400000E700E303E5FC13873701631AE50003C506
:1040100025005DD9014781460146814559BFE50725
:10402000E304F5FA41677D178147E310E5FA03C71A
:104030005500C947E31AF7F883D6E50003D6C50053
:104040000355840083D5A500EF80E05321C15D4571
:10405000EFF06FCF3335A000231EA100834544004D
:10406000035524007008EF40D0768357C101A9FFA3
:104070000357E4008356C4000356A400835584000C
:10408000035524000148EF80404C3DBF8547231E67
:10409000F100E9B7C1671387E7FF639DE5009387E8
:1040A00001869C4395C383C707000D47639CA70007
:1040B0006F80E048FD1749476396F50093870186B6
:1040C0009C43FDF73A8582804947EDBF23810188F3
:1040D00023A4018823A20188972700209387C7572C
:1040E000170700001307672498C31707000013077A
:1040F0008727D8C3170700001307C75898C7972703
:10410000002093872756170700001307E7F898C386
:1041100017070000130707E8D8C38280011122CCDB
:10412000138481881C4006CE26CA4AC84EC652C493
:1041300099CF2E8AAA840149084063129902630C20
:104140000A0497000020E780807323A40188F240CE
:104150006244D2444249B249224A0561828093199D
:104160004900B3073501884709C997000020E78057
:1041700000711C40CE9723A407001C40CE97C8476F
:1041800009C997000020E780806F1C40BE9923A6D4
:104190000900050955B745DD139644008145EFD068
:1041A000DF9A144081477D5613F7F70FE37197FAB2
:1041B0001397470036972300C7008507F5B701110D
:1041C00052C4138A418883270A0006CE22CC26CA0D
:1041D0004AC84EC656C25AC0C9CF2A89014419EDF1
:1041E00093878188944399CA03C621882A8481478A
:1041F0009305F00F13F7F70F6367C7081315340023
:104200002105EFD0EFF3AA8401E92145EFD04FF368
:10421000AA8421C501444D49930700FD2380F40081
:104220008547A38024012381F400A38184005DC419
:104230001389840023A224018149938A8188130B66
:10424000F00F83C7218863F3F90031E883270A0060
:10425000A68503C50700EFD08FF9814503C52188E6
:10426000753D03250A0097000020E780406123A2E6
:104270000188F2406244D2444249B249224A924AF9
:10428000024B05618280139747003697034707006A
:104290006305B70005041374F40F8507A1BF83A756
:1042A0000A0093954900BE9583C7050063846703A0
:1042B0002300F90083C71500130529007D14A3000E
:1042C000F900194689051374F40F97000020E78060
:1042D00000B12109850993F9F90FA5B723A20400BC
:1042E000B5B7411122C406C62A8405E10945EFF09D
:1042F0008FA52A868545172500200345A53FEFD0C9
:104300001FBB0545BD312A8411C9854517250020ED
:104310000345453EEFD0FFD022855535B2402244BB
:1043200005454101828089671387B700631AE5005C
:10433000938741889C439DC39C4503C5070055B79F
:104340001387C7008147631CE5009C4503C5070030
:10435000854711C5938741889C43F5F381473E8586
:1043600082801D7186CEA2CCA6CACAC8CEC6D2C4CF
:10437000D6C2DAC05EDE62DC66DA6AD86ED6630365
:104380000526834735002A8A8DCB40411DC45945F7
:10439000EFF06F9B93178501E1873EC40149938A33
:1043A000418893898188930C000D354D054B930B03
:1043B000F00F83473A006361F902F6406644D64441
:1043C0004649B649264A964A064BF25B625CD25C85
:1043D000425DB25D2561828083078402224763CB00
:1043E000E72883A70A00A5CB83470400638A6707F1
:1043F00003468400930694009305F1010545EFE020
:104400008FF0814719C18347050083460400114797
:104410006380E60203A70A008D460347170063097D
:10442000D70099C711C705C9631F67038D8B85C75F
:1044300003451400130C2400E285EFE09F88A300DD
:10444000A40083A70900AA84814D95E703460400D0
:104450009147631AF60C83A70900639D072019A4EE
:10446000814701455DB78946E317D7FE858BC1B704
:10447000850D93FDFD0F83C7218803A50900E3F790
:10448000FDFC93974D003E9503470500E30277FF3F
:1044900003471500E31E97FC1946E28509053EC651
:1044A000EFD0CFF0B24769D583A4090003470400D9
:1044B000BE94C9DC9147631CF708C84405C583470F
:1044C0008400034605006306F6080347040091478D
:1044D000631EF708C84419C597000020E780203AFA
:1044E00023A604000345840091450505970000209C
:1044F000E780002B05C50347040091476311F708C7
:10450000C8C483478400930594000505A30FF5FEF6
:104510000346840097000020E780608C8347840076
:10452000639E07120DBF83A7090095D783C5218815
:104530000147E302B7F2BE84C10703C507FF630E5C
:10454000750B05071377F70FEDB788C4E5A088440E
:10455000B5B7930594000505EFD04FE5E31765F770
:104560005545EFE05FFE630B050EF5B588443DD978
:1045700097000020E780A03023A40400A5B788C4DA
:1045800049B7231095012301A5018347040019466B
:1045900093052400A301F500830784021505230376
:1045A000F50083471400A30FF5FE97000020E78075
:1045B0000083034684002386C40015C2138544018A
:1045C00088C89305940097000020E780408183A766
:1045D0000A00A68503C50700EFD06FC161A823A814
:1045E0000400F5B7938741889C43E38807DCEFF02C
:1045F0001FBD0145EFF0FF97C9B32380C400834777
:104600001400E28513852400A380F400194697F076
:10461000FF1FE780C07C034584008D45050597009A
:104620000020E780E01705C5034704009147E31E1B
:10463000F7F0C8C483478400930594000505A30FD1
:10464000F5FE0346840097F0FF1FE780407983471B
:10465000840089E783470400E39F67DF83A70A009C
:10466000E38B07DE034584005105EFD06FADAA84CC
:10467000E31905F00509130494021379F90F15BB2A
:10468000797106D622D426D24AD04ECE52CC56CA02
:104690005AC85EC671C183473500AA8985C744419F
:1046A00095C05945EFE03FEA931A850193DA8A41B4
:1046B0000149138A4188130B00FDC14B83C73900A0
:1046C000636DF900B250225492540259F249624A81
:1046D000D24A424BB24B456182808387F40063C863
:1046E000570783270A00A5C75145EFD06FA52A8435
:1046F00039CD23006501A30005002301750183C79F
:104700000400194693852400A301F5008387F40073
:104710001505A306F50083C71400A30FF5FE97F057
:10472000FF1FE780C06B83C7840093859400130547
:10473000C400A305F400194697F0FF1FE780206A24
:1047400083270A00A28503C50700EFD04FAA0509F9
:10475000C1041379F90F9DB7938741889C43BDD35A
:10476000EFF0FFA52254B25092540259F249624A26
:10477000D24A424BB24B014545616FF08FFF9727FC
:10478000002083C757F7A18B17250020130585ED5F
:1047900091E301456FE0EFAB411122C485452A84C6
:1047A00003C5218806C6EFF07F979727002083C7AF
:1047B00097F4A98BB5C7172500201305E5E92381D8
:1047C0008188EFE0AFA8138481881C4091C74D45D4
:1047D000B24022444101828003C5218819E101458C
:1047E000C5BF9D45120597000020E78060FB23A40C
:1047F000A18871DD03C6218812068145EFD0EFB490
:10480000104083C621888147FD5513F7F70FE378E1
:10481000D7FC1397470032972300B7008507F5B7F9
:10482000014523810188EFE06FA255BF9387418640
:10483000884301CD411106C697000020E78020047F
:10484000B24023A20186410182808280011122CCE4
:1048500006CE8D472E846316F50603C73500E9475B
:1048600003D545006318F7009727002083D7E7D9C1
:104870006385A706EF40100309C58357640023171B
:10488000F5000357A4008356840003566400835543
:10489000440003453400EFE03F910357440097275D
:1048A000002083D787D66308F7008547F24062442B
:1048B0003E8505618280FD57172700202317F7D416
:1048C000EDB78967CD07631DF50083C72500314724
:1048D0006385E7004547E39AE7FCEFE00F9EF1B7F9
:1048E00041677D178147E313E5FC83C655004947BF
:1048F000E39EE6FA83C545000355240030002314E7
:104900000100EF40E06755B7797122D413844186E6
:104910001C4006D626D24AD00545ADC70D45EFE06E
:104920009FC2AA841145EFE01FC22A899305F101B5
:104930001305F041EF30C1050347F101972700202F
:1049400083C767CCB336F00019C70D478946638427
:10495000E700B336F0001C4036C603C53700938528
:104960004700EFE08FB11040B2462A878348B60077
:104970000348A6009307460003462600CA852685FD
:10498000EF70B03AB250225492540259456182807D
:10499000FD572386F1802396018823AA018823AC42
:1049A000018823AE01889387C1941707000013077D
:1049B000A70798C31707000013074736D8C3170780
:1049C00000001307A7F498C797070000938747E8EC
:1049D00023A8F1888280411126C2938441869C409D
:1049E00006C622C49DCB2A840D45EFC07FF5AA855B
:1049F00019CD930700FD2300F5008D47A300850026
:104A00002301F5009C4003C50700EFC05FFE11C401
:104A10002244B2409244410111BDB240224492442A
:104A200041018280797122D403544500896706D6FA
:104A300026D24AD04ECE52CC13876700631EE402C2
:104A4000938741869C43814489CF184503450700DD
:104A500015E10547A380E7000545EF70D02D19E962
:104A60008544B2502254268502599254F249624A32
:104A7000456182808D37EDB71387970063658704A2
:104A800003C7C1809307F00FE30CF7FC1C451145E9
:104A900083C40700EFC0DFEAAA8579D1930700FD40
:104AA0002300F50089472301F500F977E1173E94CB
:104AB00013341400A3009500A301850003C5C18031
:104AC000EFC0FFF271BFA9078144E31CF4F813891A
:104AD0004186832709004A8AC9D7184583C417002D
:104AE000854783490700638DF4029727002083C719
:104AF000A7B1BDF70D45EFC0BFE4AA8505C1930777
:104B000000FD2300F5009147A30035012301F500C6
:104B10008327090003C50700EFC07FED013B89B77C
:104B2000938741899C4385E30145EFE0DFA12A8615
:104B300001CA8945172500200345C5BBEFD02FB713
:104B400083270A00B9A003C60700938617009305C0
:104B5000F1000545EFD03FFB61D983470500858B08
:104B6000E1D70545EFE03F9E9307B0032A8463FF3A
:104B7000A7025D66130606708945172500200345C8
:104B800065B7130444FCEFD0EFC6239681888327D2
:104B900009000947A380E7009727002083C7C7A61D
:104BA00099CB97270020238107A665BD13060064D3
:104BB0003306C502B5BF4E85393D65B5938741863D
:104BC0009C43011122CC06CE26CA4AC8454489EB33
:104BD0009727002083C737B213F7570009EB4944E2
:104BE0002285F2406244D2444249056182801387A3
:104BF0004189184341446DD70347070075D3858B1E
:104C0000AE842A89C9CB83C704000547F91793F7F7
:104C1000F70FE366F7FC9305700431459700002019
:104C2000E78000B823A2A1864D445DD92300250169
:104C3000A30005002946A685090597F0FF1FE78018
:104C4000001A172700200347079C8D47631DF704B0
:104C5000EFE02F912C00EF60901C2800EFE08FE830
:104C600085474545172700202300F79AEFE0BF8DC1
:104C70001375F50F97270020A388A79801442DD11D
:104C80005D6613060670914517250020034585A62D
:104C9000EFD04FB6B1B7EFE01FC02A84EF406052AB
:104CA000E373A4F68DBFEFF03FC62A8415D9EFF069
:104CB000FFB73DB7411126C2938441869C4006C68A
:104CC00022C4A1C783C707000D446391A704894587
:104CD00017250020034505A2EFD0AFB49145172555
:104CE0000020034525A123960188EFD08FB3972795
:104CF0000020A38B07909C400145A380870022449D
:104D0000B240924441016F70100349442285B24081
:104D10002244924441018280411106C685476315B1
:104D2000F50683D7C188A1CB172700200347C78D7D
:104D300039E31307B003636BF70289451725002099
:104D40000345459BEFD0EFAD9307006403D6C188C0
:104D50003306F6028945172500200345A599EFD0B3
:104D60000F9523960188B24041018280938747FCCA
:104D70002396F188CDBF938741869C43EDD7B240FF
:104D800003C5070041013DB7938741869C43E1DF9E
:104D90009727002083C73796918BF1D78945172530
:104DA000002003452595EFD0CFA7B2402396018878
:104DB00041016FF0BFA79727002083C7D793958B3A
:104DC000CDC79387418999E19387C1899C43D1CF0E
:104DD000FD4763EEC70811C2D9CA411122C426C2D9
:104DE00006C64AC02386A180B6843284A1C1138935
:104DF0004189032509007D4681450505EFC0FFD4A3
:104E000003250900A6852286050597F0FF1FE78088
:104E100000FD832509002285238085002244B240BD
:104E200092440249850541016F7060701389C18900
:104E3000032509007D4681450505EFC01FD10325E7
:104E40000900A6852286050597F0FF1FE78020F957
:104E5000832509002285238085002244B2409244A4
:104E60000249850541016F70C06C49458280094542
:104E700082809727002083C71788918B99CF411193
:104E80001385018906C6EFD09FBDB240FD571717A5
:104E90000020231CF7764101828001456FD03FBC82
:104EA000938741898843411122C406C626C23E84A5
:104EB00019C597000020E780809C23AA018893876A
:104EC000C189884319C597000020E780409B23AE25
:104ED0000188972400209384E48183C73400958B54
:104EE000ADCB1385C194EFD03FB783C73400958B0A
:104EF00099E74D45B2402244924441018280930596
:104F000070041305000297000020E780608923AA3F
:104F1000A18865D1130600028145EFC01FC3930528
:104F200070041305000297000020E780608723AE1D
:104F3000A18801C9130600028145EFC01FC10145C8
:104F400055BF084097000020E780609323AA01889E
:104F50004DB70145EFD05FB0DDB7BD47638CF506B7
:104F600063E9B702A5476387F50663EDB700994784
:104F7000638CF5049D47638FF5049547638CF504B6
:104F800001458280B5476387F50463E1B704AD4707
:104F9000F5B7DD47638EF50263EAB700C947638B57
:104FA000F502D9476386F502C547C9BFF547638354
:104FB000F50263E4B700ED47D1B793072005638B93
:104FC000F5009307200D5DBF48458280084182802F
:104FD00008458280484182809307F00F630CF506F4
:104FE000011126CAAA841305000222CC4AC84EC663
:104FF00052C456C206CE3A89B689B28A2E8AEFC00A
:105000003F942A844D4515C8930700FB2300F40004
:10501000A300540123114401230234011305840029
:10502000614663050902CA8597F0FF1FE78020DB10
:10503000A2852685EFC0BF9B0145F2406244D24461
:105040004249B249224A924A056182808145EFC0B5
:10505000DFAFF9BF09458280011122CC06CE2A8438
:105060002306B100A306C100EF40C00311CD0347E2
:10507000C500A147631EF70078009306E0070146CC
:10508000A28503C5D180893FF240624405618280D8
:1050900078009306E0070146A28503C5E180E5B7E5
:1050A000930700643306F6026FC0DFE905C90347C2
:1050B000050085469307270093F7F70F63F0F60284
:1050C000411122C42A843A8506C6EFC09FF8FD57D5
:1050D0002300F400B24022444101828082800357C1
:1050E00005009307000B6313F70283474500494708
:1050F000639CE7000347150185476399E700035563
:10510000250085456F2030096D47C5BF828001119C
:1051100022CC06CE2A842EC632C436C2EF30907816
:1051200005C98346C500A14712472246B245639B85
:10513000F600B28603C5D1802E86A2856244F24075
:10514000056159BDB28603C5E1802E86A285FDB7F3
:10515000F240624405450561828023A2A18A8280D3
:10516000011122CC26CA06CE2A84AE84EF30907379
:10517000A6852285EF30115F05E522852316910073
:10518000EF30507211CD0347C500A147631FF700F0
:1051900078009306F0070146A28503C5D1802D3D16
:1051A000F2406244D2440561828078009306F007A1
:1051B0000146A28503C5E180DDB7011126CA06CEEE
:1051C000B68422CCDD4663E2B608D94663FED50A32
:1051D000A5466381D50A63EEB6049546638CD5086F
:1051E00099466387D50A054441687D186316060908
:1051F0003AC6EF30F15A33068540324742064182C3
:10520000420441803305C4004205BA85418132C65B
:10521000EF20B007AA8749C181C432462390C40059
:10522000B30580406244F240D2443E8505616F3050
:105230009108C5466380D504C9460D44E395D5FA67
:10524000C167FD17E31EF6FA65B7F5466380D5041E
:1052500063E4B600ED46D5B7930620056388D50212
:105260009306200DE391D5F8C167FD170D4463192E
:10527000F600BDBF09448DBF9306200DE392D5F81B
:10528000310642064182ADBF15445DBF0D444DBF9E
:10529000C167FD171D447DB7F2406244D2440561E9
:1052A000828079714ECEAE89C16526D20147AA842B
:1052B00089461766010013062668FD15054522D4A8
:1052C00006D64AD0EF00305B054429CD2A89130762
:1052D000300281461146F5452685C5352AC6554416
:1052E00031C18357A900CE8601462314F1009147AE
:1052F0002315F10085472300F500B2472C002685D1
:10530000A38007003247FD572301F7003247A3016E
:10531000F700EF00104C2A8411C5324597F0FF1FAB
:10532000E780E0552285B250225492540259F24946
:1053300045618280411106C6EFF03FC219C5B240F7
:10534000410117F3FF1F67008353B2404101828080
:10535000011106CE2AC6EF30F12B3245FD5791459B
:105360002387F180A386F18023A0018A23A2018AEA
:1053700097170020238CA72EEF20206DF2400561A7
:105380006F10F05293970501C18763D807127971A6
:10539000171500200345852D22D44AD006D626D2E3
:1053A0002E89EFC0CFDD2A8449CD0347050093073E
:1053B000000A6315F70885474C08A305F100EF3094
:1053C0003131AA8405ED8347610171476374F708A1
:1053D000138717FE1377F70F9306000263F3E608AF
:1053E000858BC5C79387018A9C43994481CB03551C
:1053F00024001306B1004C088297AA848347B100A9
:1054000099C7084409C597F0FF1FE780404795E01A
:105410005247B7070001938707F07D8FB707120047
:1054200093870710630CF70003476101ED4763178B
:10543000F700035524008545EF20E0552285EFC095
:105440006FCDB250225421653345A90092540259C0
:10545000456182803707301405073357F700058B05
:1054600041D31387418A184351DB0347510159F750
:105470002306F10099472308F100035524006C002E
:1054800023170100EF30B14395BF9387418A9C43B6
:105490009DC3035524001306B1004C08829739DDE3
:1054A000AA8483475101B9FB834761012308910016
:1054B0002306F100D9B79944EDB701458280014533
:1054C000828083D705006387A70083D74500639553
:1054D000A70091052E85828083D78500A105E38BE7
:1054E000A7FE8145C5BF0DCD834725000547890728
:1054F00093F7F70F6376F702411122C406C62A8498
:1055000083550500034535000147F9465D46EFF038
:10551000BFACF9572311F400B2402244410182800C
:105520008280014582809385F18193070002854640
:105530002380F500FD57238FF1802388F180A38716
:10554000F180239ED1802394018A23A6018A23AC73
:10555000018A23A8018A13864181976701009387F6
:10556000A73C5CC22385018A97F7FF1F93870740FA
:1055700009472300E6002380E7002388E700238013
:10558000E7022388E7021767010013072739D8DBF2
:105590000D472384D700D0C7238CD700238CE70284
:1055A000176501001305C53813878195176601003B
:1055B000130686369766010093860638D8DFC8C37F
:1055C00023950700D0CB239D0700CCCFD4D32384D1
:1055D00007022395070223A60702239D0702170748
:1055E00000001307670C97F7FF1F9387273C23A042
:1055F0000700D8C323A407008280411106C6D13515
:1056000011C503452500B240410182800145E5BF37
:10561000411122C426C24AC006C6AA842E893284F9
:105620004D3509E94165CA857D15613DC54711C5FF
:1056300023109500230185008147B2402244924403
:1056400002493E854101828039E3894835476391AB
:105650001605011106CE22CC26CA034716000346C2
:10566000060093C7F7FF2207598EF18F32C69DE3DC
:10567000C4452A84A685513732460147630EA600E9
:1056800022856244F240A685D244056151B72D4778
:105690003A85828013070008F2406244D2443A857A
:1056A0000561828083C8050009486394080303A844
:1056B00045008347180003480800A207B3E7070125
:1056C000C2070D68C18713082890639407018947B2
:1056D000A5BF0545828003C701819307F00F630AC8
:1056E000F70441114AC02A89294522C426C206C6A8
:1056F0003284AE84EFC0CFA41DC59307100B2310D6
:10570000F5002302050023148500224423112501FE
:1057100023139500B24092440249AA8503C5018132
:1057200041016FC0CFACB2402244924402494101D2
:1057300082808280411126C2AE849385819522C4E5
:1057400006C62A845D3D098909C922852244B240E2
:10575000A685924441016FF0DFB4B24022449244E6
:10576000054541018280411122C426C24AC006C6B5
:10577000AA841304450013090504835704008DC34C
:10578000084409C597F0FF1FE780600F2285314666
:105790008145EFC08FBB3104231A04FEE31F24FDB3
:1057A000B2402244FD572390F40002499244410143
:1057B00082809387418B9C4303D707006300A70235
:1057C00083D60704138707046388A6001387070896
:1057D00083D707086396A7003A8582803E87EDBF8E
:1057E0000147DDBF9387818B9C4399C703D747004F
:1057F000E31CA7FE8847828001458280411106C6CE
:10580000D53709C50845B240410182800145E5BF51
:10581000011126CA9384450022CC4EC606CE4AC842
:1058200052C456C25AC026878149014481468147E5
:105830001545035607005DCAC1E20354470083576C
:105840002700B286A297C207C18385093107E39278
:10585000A9FE2DC42E8922859305700497F0FF1FA1
:10586000E78000F42A8B39C9814A014A8C4485C5F6
:1058700003D6440033054B0197E0FF1FE780205615
:1058800083D7440088443E9A420A135A0A0197F08B
:10589000FF1FE780C0FE63870A00314681452685E9
:1058A000EFC0AFAA850AB104E3C23AFD232669011D
:1058B00023148900054521A0630DD6000145F2405F
:1058C0006244D2444249B249224A924A024B05619B
:1058D000828003562700E313F6FE035647003294F6
:1058E000B2974204C2074180C18385B70545E3589A
:1058F00035FD85B79387018B9C4399E301458280F1
:1059000098470357A700E319A7FE13854700828035
:10591000411106C6C53711C503550500B240410106
:1059200082800145E5BF411106C6E93711C503452F
:105930002500B240410182804145E5BF411122C4AA
:105940002A842E8506C6C537AA8505462285EF30EE
:10595000A07895476305F500BD476313F500214521
:10596000B240224441018280411122C42A840905A7
:1059700006C6EFF0AFF3FD57A301F400B240224496
:105980004101828003D7C197AA876303A70203D787
:1059900021986301A70203D7819801456319F70095
:1059A000094599473305F5029387C1973E95828053
:1059B0000145C5BF0545F5B7411122C4416406C67E
:1059C00026C29307E4FF630CF500AA8491ED5D3FC6
:1059D00019E51305F4FF7D3719C123109500B24076
:1059E000224492444101828085476392F504593FE5
:1059F0002A8475D5FD572310F5008347240013072B
:105A0000F00F6383E7021307E00F638AE7000345A3
:105A100034000147F9465146A685EFF0EFDB2285B9
:105A2000A137FD572301F400230204004DBF89472D
:105A3000E397F5FA8545EF30F00155F12685993762
:105A40002A8445FD69BF5D71A6C24EDE86C6A2C42A
:105A5000CAC052DC56DA5AD8AE8483C52500F9474D
:105A6000AA896394F504393F2A8409ED014422850B
:105A7000B640264496440649F259625AD25A425BCD
:105A800061618280834725000547890793F7F70FF7
:105A9000E37EF7FC034535000147F9460146CE8514
:105AA000EFF08FD32285C935D1B783AA0400B70799
:105AB0000001938707F037071200B3F7FA001307C6
:105AC0000710328A6389E7022EC66D3D2A89B245E6
:105AD00005C5034645000DC293178601E187E3C75C
