:100000006F004000975100209381C1851781002027
:10001000130141FF1305400A973500209385857E23
:1000200017460020130666A463FAC5008322050064
:1000300023A0550011059105E3EAC5FE1725000030
:100040001305C5C4974500209385C5FB13868180A1
:1000500063FAC5008322050023A055001105910510
:10006000E3EAC5FE138581809385C1866377B50079
:10007000232005001105E36DB5FE9302800873A0EF
:100080000230973200209382E27793E2120073905D
:100090005230970200009382C2347390123473007E
:0400A000203000000C
:1000A40000000000000000006F0080086F00801F47
:1000B400000000000000000000000000000000003C
:1000C400000000000000000000000000000000002C
:1000D4006F004006000000006F00E0050000000013
:1000E4006F0080056F0060056F0040056F002005FC
:1000F4006F0000056F00E0046F00C0040000000002
:100104006F0060046F0040046F0020046F0000045F
:100114006F00E0036F008004000000006F006003C4
:100124006F0040036F0020036F0000036F00E002C4
:1001340001A001A001A001A001A001A001A001A0B3
:1001440001A001A001A001A001A001A001A001A0A3
:1001540001A001A001A001A001A001A0B7170040C7
:1001640003C7E7056207618763500704238D07040B
:1001740083C641814D47138641816362D702034799
:10018400060083D5C7059316170017070000130749
:10019400E77836972310B7000547238DE704834794
:1001A40006008507238AF18073002030B7170040CA
:1001B400930670052380D704130780FA2380E7048D
:1001C40003C6B7041376F60DA385C704238007047A
:1001D4001376050225C603C6A700118A0DE2238003
:1001E400D7042380E70403C7A700136747002385C8
:1001F400E7009307004B01000100FD17EDFFB7175F
:100204000040930670052380D704130780FA2380E7
:10021400E7047D892394A700010001000100010087
:10022400238007042380D7042380E70485463727E7
:100234000040A303D780238007048280137605043B
:100244006DDE03C6A700418A0DE22380D704238014
:10025400E70403C7A700136707012385E700930793
:10026400007D01000100FD17EDFFB7170040930664
:1002740070052380D704130780FA7D892380E7045F
:10028400136505042394A700010001000100010087
:10029400238007042380D7042380E7048D4637276F
:1002A400004041BFB7170040130770052380E704DF
:1002B400130780FA2380E7047D572396E70203C7D8
:1002C4006704136717002383E7042380070401A04E
:1002D400BD473305F50201007D1575FD828041118E
:1002E40022C426C206C6AA84014463179400B240FD
:1002F400224492444101828005041305803E420455
:06030400C13F4180DDB79E
:10030C003D432A876373C3029377F700BDEFADE5D6
:10031C00937606FF3D8ABA960CC34CC30CC74CC7E8
:10032C004107E36BD7FE11E28280B306C3408A0615
:10033C009702000096966780A6002307B700A306D5
:10034C00B7002306B700A305B7002305B700A30425
:10035C00B7002304B700A303B7002303B700A3021D
:10036C00B7002302B700A301B7002301B700A30015
:10037C00B7002300B700828093F5F50F93968500A4
:10038C00D58D93960501D58D61B79396270097026D
:10039C00000096968682E78086FA9680C1171D8F9C
:1003AC003E96E374C3F8A5B7371700408327870A36
:1003BC00411106C693E707202324F70A8545130548
:1003CC000010A5268D45130500208526B24041015D
:1003DC0069A901111305800406CE22CC26CA4AC88D
:1003EC004EC697300020E780E0517D3FB7170040A4
:1003FC0083C51704171500001305057097440020DA
:10040C00938404C761291715000013052570752303
:10041C006924452AAA89138401842689C1244E950E
:10042C002310A9000909E31B89FE174900201309B1
:10043C0029C4971900009389296F835509004E85AB
:10044C000909A929E31B89FE171500001305456E40
:10045C00AD2381454145D12C89450145DD2A814596
:10046C0013050002D924B12AAA85AA891715000000
:10047C001305056E2521B7170040238C0704174977
:10048C0000201309E9BE992C4E952310A9000909E7
:10049C00E31B89FE17490020130989BD9719000039
:1004AC0093898968835509004E850909C52EE31B7C
:1004BC0089FE171500001305256B01230565814581
:1004CC004105A524894501457D22B7170040238CA1
:1004DC000704174900201309A9B909242310A900FE
:1004EC000909E31C89FE17490020130969B89719FB
:1004FC00000093896963835509004E850909792E9B
:10050C00E31B89FE171500001305C5677D21814586
:10051C000565212C7D22B71700400947238CE70481
:10052C00174900201309C9B481454145C12A23103C
:10053C00A9000909E31A89FE17490020130949B3D8
:10054C00971900009389495E835509004E85090966
:10055C00B126E31B89FE1715000013052564B1298C
:10056C00814513050002D12289450145DD20B717CD
:10057C0000400547238CE704238A0180238D070460
:10058C00B7E600E03706002023A0C610238DE70451
:10059C00938641814D4783C70600E37EF7FEB7E79C
:1005AC0000E03707002023A0E718171900001309F3
:1005BC00A95783D504004A858904CD24E39B84FE86
:1005CC0001A0B7170040294783C8870503C89705C2
:1005DC00238CE70403C7970593F8F80F1378F80FEB
:1005EC0013679700A38CE7040547238DE70437179F
:1005FC0000408347A7059305A705858BFDFB056583
:10060C00C14637170040054E1303F5FF2380C50183
:10061C0003C60500058A6DFE0356C705FD16C20606
:10062C001346F6FF33766600C182B297E5F2834635
:10063C009705A107918393F6760F13050580A30CFC
:10064C00D7041D8D230C17054205A30C0705418506
:10065C008280B717004003C777051A0592054D8DA8
:10066C001377E70F13653500A38BE7041375F50FAC
:10067C00A38CA7048280B717004003C777051A051F
:10068C0092054D8D1377E70F13655500A38BE70487
:10069C001375F50FA38CA7048280B717004003C70E
:1006AC0077051377E70FA38BE704130700F8A38DE7
:1006BC00E7043D47238CE70413075003A38CE7049E
:1006CC008280B717004013073002A38CE70403C7DE
:1006DC00770513671700A38BE70482800547B717CC
:1006EC000040238DE704371700408347A705858B0F
:1006FC00EDFF0355C70552055181828096057D8912
:10070C00C98DB717004093F5F50F0547238AB70439
:10071C00238BE7043717004083476705858BEDFF74
:10072C000355C705520551818280914763EEB7028C
:10073C0017170000130787498A05BA959C41BA9789
:10074C008287B717004003A7470B1345F5FF698F46
:10075C0023AAE70A03A7070B698F23A8E70A03A7B5
:10076C00070A798D23A0A70A8280B717004083A6B9
:10077C00470B1347F5FFF98E23AAD70A83A6070B5D
:10078C00558D23A8A70A83A6070A758F23A0E70A0D
:10079C008280B717004003A7470B498F23AAE70AAB
:1007AC0003A7070B1345F5FF45BFB717004083A6FA
:1007BC00470B1347F5FF758F23AAE70A03A7070A10
:1007CC00598D4DB7B717004003A7470B498FEDB7AD
:1007DC00B717004003D58700420541819377050484
:1007EC0091EB9377F5013755E801130505803345F7
:1007FC00F50282809377050C130700046397E700DA
:10080C009377F50137459C1CCDB72165130505D0B1
:10081C008280814737370040A14663C4C7003285C8
:10082C0082800345B740E38EA6FE3385F500034571
:10083C00050085072304A740CDB7411122C406C685
:10084C002A8479372947B307E502B2408D83B3D7A1
:10085C00870222449507B3D7E70237370040C20717
:10086C00C1832316F7404101828071654111130544
:10087C00052006C6D937B7370040130770F8238117
:10088C00E7400D47A381E74013070004A380E7402E
:10089C0005472387E740B2404101828039713EDA37
:1008AC002ED232D436D63AD842DC46DE97370020E8
:1008BC009387877A22CC804326CA06CEAA8409C4A1
:1008CC001C4C99E3228535230C4454102686228532
:1008DC0036C6EF00F017F2406244D24421618280A8
:1008EC00011126CA4AC806CE22CC4EC652C4AA84CE
:1008FC002E8901C51C4D91E3ED299C4C804499E354
:10090C002685C529971700009387872F631CF4024F
:10091C00C0408357C400A18BB1C71C48A1C7FD5967
:10092C00294A1C4483450900FD17B1E91CC463DE48
:10093C0007062286A94526854128FD576308F5023E
:10094C00294535A0971700009387872D6314F40071
:10095C008044C1B79717000093878728E31BF4FAEC
:10096C00C04445BFA2852685052255D97D55F24048
:10097C006244D2444249B249224A056182801CC475
:10098C00050963D70700184C63CBE7006389450161
:10099C001C401387170018C02380B70059B7228654
:1009AC0026851D20E31F35F7D1B71C401387170090
:1009BC0018C029472380E70061B797370020938739
:1009CC00A769AA85884329BF011122CC26CA4AC827
:1009DC0006CE4EC6AA842E89328401C51C4D91E3E5
:1009EC000929971700009387A7216319F406C040C3
:1009FC001C4C1CC48357C400A18BC9C31C48BDCF5D
:100A0C001C4808409379F90F1379F90F1D8D5C4838
:100A1C006346F500A2852685752C2DE51C4405053D
:100A2C00FD171CC41C401387170018C02380370106
:100A3C005C486389A7008357C400858B81CBA94789
:100A4C006316F900A285268571240DEDF2406244EF
:100A5C004A85D2444249B249056182809717000009
:100A6C009387071C6314F400804459B79717000050
:100A7C0093870717E31EF4F6C0449DBFA285268515
:100A8C0021203DDD7D59D9B741119737002093873F
:100A9C00A75C26C2844322C44AC006C62A892E8477
:100AAC0089C49C4C99E32685A92697170000938747
:100ABC002715631CF402C0400317C40093170701E9
:100ACC00C18393F68700B5EE93F607019DEEA5471B
:100ADC002320F900136707042316E4007D55B24068
:100AEC002244924402494101828097170000938767
:100AFC0027136314F4008044C1B797170000938741
:100B0C00270EE31BF4FAC04445BF918B8DC74C589C
:100B1C0089C9930744046384F5004A859123232AE9
:100B2C0004028357C4002322040093F7B7FD231655
:100B3C00F4001C481CC08357C40093E7870023169D
:100B4C00F4001C4881EF8357C4001307002093F76F
:100B5C0007286385E700A2854A85A5218357C40031
:100B6C0013F7170005C75C4823240400B307F040B3
:100B7C001CCC1C480145A5F78317C40013F70708C4
:100B8C0039DF93E707042316F40089BF898B0147EB
:100B9C0091E3584818C4F1BF83D7C500011122CC8A
:100BAC0026CA06CE4AC84EC613F78700AA842E84DE
:100BBC0071EFD841634DE000B841634AE000014554
:100BCC00F2406244D2444249B24905618280585491
:100BDC007DD703A904009396370123A0040063DD9D
:100BEC00060670488357C400918B99C75C401D8ED4
:100BFC005C5899C33C401D8E5C540C508146268534
:100C0C008297FD570357C400631DF5009440F547C8
:100C1C0063E8D706B70740208507B3D7D700858B85
:100C2C00A5C31C48232204001CC09317370163D8AA
:100C3C000700FD576314F5009C4091E368C84C58BD
:100C4C0023A02401ADDD930744046384F5002685BD
:100C5C000129232A0402A5B70C5001468546268596
:100C6C000297FD572A86E31FF5F69C40A5DF7547D2
:100C7C006385E70059476394E70423A0240181B7F7
:100C8C00136707042316E4007D551DBF83A90501D6
:100C9C00E38709F203A905008D8B23A035013309E5
:100CAC003941014791E3D84918C4E35A20F11C5447
:100CBC000C50CA864E86268582976349A0008357BE
:100CCC00C40093E707042316F4007DBFAA993309E7
:100CDC00A940E1BF9C49B9CF011122CC06CE2A8490
:100CEC0011C51C4D81E72EC62922B245971700006D
:100CFC00938707F1639BF5004C408397C50095C71C
:100D0C0022856244F240056141BD9717000093872C
:100D1C0027F16394F5000C44CDB797170000938727
:100D2C0027ECE39CF5FC4C44C9BFF24062440145FE
:100D3C000561828001458280411122C406C62A8445
:100D4C002316B5002317C500232005002322050018
:100D5C00232405002322050623280500232A050049
:100D6C00232C0500214681451305C505EFF04FD90D
:100D7C00971700009387E7B45CD097170000938710
:100D8C0047B71CD497170000938787BB5CD4971781
:100D9C000000938747BE00D01CD8B24022444101CA
:100DAC00828097050000938525F389AA411126C2FC
:100DBC00130680069384F5FFB384C4024AC02E89BF
:100DCC0022C406C693854407A1262A8401CD23207C
:100DDC00050023222501310508C4138684068145AC
:100DEC00EFF00FD22285B2402244924402494101D5
:100DFC0082801C4DBDE3411106C622C4970700003A
:100E0C00938767FA1CD597170000938727E79C43B5
:100E1C002324050423260504232805046314F50064
:100E2C0085471CCD2A841D2848C02285052808C466
:100E3C0022852D2048C4484001469145F53D084483
:100E4C000546A545D53D48440946C945F535854770
:100E5C001CCCB24022444101828082804111971700
:100E6C0000009387A7E126C284434AC006C69C4C67
:100E7C0022C42A8999E32685AD3F93848404804457
:100E8C00DC40FD1763D607009C40B9CF8440C5BF3A
:100E9C000317C40039E7C1778507232204062320F2
:100EAC00040023220400232404005CC4232804002F
:100EBC00232A0400232C0400214681451305C40574
:100ECC00EFF00FC4232A0402232C0402232404046D
:100EDC00232604042285B240224492440249410153
:100EEC0082801304840671BF91454A85C13588C040
:100EFC0051FDB1472320F9000144E9BF797122D497
:100F0C004AD052CC56CA5AC85EC606D626D24ECE47
:100F1C002A8AAE8A130485040149054BFD5B09EC52
:100F2C00B25022544A8592540259F249624AD24A2A
:100F3C00424BB24B45618280044483294400FD1925
:100F4C0063D409000040E1BF83D7C400637BFB007E
:100F5C008397E40063877701A6855285829A33696B
:100F6C00A90093848406E1BF1971A6DAAE84839537
:100F7C00E500A2DC86DE328463DC050083D7C40086
:100F8C0023A0060093F7070885E7930700401DA0F0
:100F9C00300836C6EF00B023B246E34105FE724777
:100FAC00BD67F98F7977BA9793B717009CC2F1BFD9
:100FBC00930700041CC0F6506654D65401450961D1
:100FCC00828083D7C500011122CC06CE26CA4AC81E
:100FDC00898B2E8489CF930774041CC01CC8854749
:100FEC005CC8F2406244D24442490561828074007C
:100FFC003000AA84953FA2452A892685112A01ED45
:10100C008317C40013F7072069FFF19B93E72700B0
:10101C002316F400C9B7970700009387C7D89CD450
:10102C008357C40008C008C893E707082316F400C8
:10103C00A2475CC8B24791CF8315E4002685EF0028
:10104C00B01B01C98357C400F19B93E7170023160B
:10105C00F4008357C4003369F9002316240151B7F7
:10106C00DDC583A7C5FF411122C406C626C2138461
:10107C00C5FF63D307003E94AA84EF00D01E9737B8
:10108C0000209387E7FD9C4391EF232204009737C0
:10109C00002023A787FC2244B240268592444101BC
:1010AC006F00901C637EF40014403307D4006396E9
:1010BC00E7009843DC43369718C05CC0C9BFBA87B9
:1010CC00D84319C3E37DE4FE94433386D700631FF2
:1010DC0086001040B29694C33386D700E31DC7FA3E
:1010EC0010435843B29694C3D8C375B76375C40004
:1010FC00B1479CC04DB71040B306C4006316D7006F
:10110C0014435843B29614C058C0C0C369B7828008
:10111C00011126CA93843500F19806CE22CC4AC818
:10112C004EC6A104B14763F3F404B14463E2B404C2
:10113C002A89EF0050139387818098433A8439E0D1
:10114C009387C1809C4391E781454A85A92723A6B3
:10115C00A180A6854A858127FD5963193507B147BA
:10116C002320F9004A85EF00301029A0E3D004FCBD
:10117C00B1471CC10145F2406244D2444249B249D4
:10118C00056182801C40858F63CF0702AD4663F6F4
:10119C00F6001CC03E9404C031A05C40631387026F
:1011AC0023A4F1804A85EF00300C1305B40093079B
:1011BC00440061993307F5405DDF3A94898F1CC078
:1011CC005DBF5CC3C5B72287404095BF1304350093
:1011DC007198E30285FCB305A4404A856D2DE31C90
:1011EC0035FBB5BF1C46FD171CC663DA0700184E4D
:1011FC0063C5E700A9476394F5006FF0EFFC1C4250
:10120C002E851387170018C22380B7008280011126
:10121C0022CC26CA4AC84EC652C406CE2A89AE89EA
:10122C003284B304D6007D5A63149400014509A896
:10123C00834504004E864A8575370504E31645FF41
:10124C00F2406244D2444249B249224A056182804A
:10125C00357122CD26CB4AC94EC706CF52C556C3CF
:10126C005AC1DEDEE2DCE6DAAA89AE843289368443
:10127C0001C51C4D91E3B53E971700009387479825
:10128C00639BF40C83A4490083D7C400A18BF5C7DE
:10129C009C48E5C793070002A304F10293070003DF
:1012AC0002D22305F10222C6930B5002971A0000BA
:1012BC00938A0A99054C294B4A848347040099C3A5
:1012CC006390770FB30C2441638D0C00E6864A863D
:1012DC00A6854E852D3FFD576306F51E9256E69664
:1012EC0036D283470400638F071CFD571309140083
:1012FC0002C802CE3ECA02CCA309010482D48345A3
:10130C00090015465685992713041900C24759E957
:10131C0013F7070109C713070002A309E10413F728
:10132C00870009C71307B002A309E104834609002B
:10133C001307A0026380E608F2474A8481462546DB
:10134C000347040093051400130707FD6379E60AAD
:10135C00B5CA3ECE85A8971700009387678C639516
:10136C00F40083A489000DB7971700009387478773
:10137C00E39CF4F083A4C90001BFA6854E85EFF071
:10138C00AFF009D97D55FA406A44DA444A49BA4962
:10139C002A4A9A4A0A4BF65B665CD65C0D618280DF
:1013AC00050421BF330555413315AC00C98F3EC828
:1013BC002289B1B7324793064700184336C66349B2
:1013CC0007023ACE034704009307E002631FF704B9
:1013DC00034714009307A002631BF702B2470904EA
:1013EC00138747009C433AC663C107023ECA35A81F
:1013FC003307E04093E727003ACE3EC8E1B7B38706
:10140C00670385462E84BA9725BFFD57C5B70504DB
:10141C0002CA814681472546034704009305140000
:10142C00130707FD6376E606F1F2834504000D46CB
:10143C001715000013054581112D11CD97170000CC
:10144C00938787801D8D93070004B397A7004245AF
:10145C0005045D8D2AC88345040019461705000054
:10146C001305C57E130914002304B102C5233DC125
:10147C0097F7FFFF938747B895E74247B247137733
:10148C00071009CF91073EC69257D2973ED22DB581
:10149C00B387670385462E84BA97BDBF9D07E19B32
:1014AC00A107D5B7780097060000938686D62686C6
:1014BC000C084E8597000000E7000000FD572A8AB3
:1014CC00E314F5FC83D7C40093F70704E39C07EA05
:1014DC00125555BD780097060000938686D3268654
:1014EC000C084E85012AD9BF797156CA9C49BA8A13
:1014FC00984522D426D24ECE52CC06D64AD05AC8C3
:10150C005EC6AA892E84B284368A63D3E700BA8772
:10151C009CC00347340419C385079CC01C4093F737
:10152C00070281C79C4089079CC0032904001379DA
:10153C006900631A0900130B9401FD5B5C4498402D
:10154C00998F634CF9041C408346340493F70702CB
:10155C00B336D000A5EB13063404D2854E85829A9F
:10156C00FD576303F5041C4011469840998B544475
:10157C0081446397C700B384E64063D3040081447D
:10158C001C4418486354F700998FBE9401496904B0
:10159C007D5B63982405014509A885465A86D2854A
:1015AC004E85829A631E75017D55B2502254925419
:1015BC000259F249624AD24A424BB24B456182808F
:1015CC000509ADBF3307D40013060003A301C704FC
:1015DC000347540493871600A2978906A381E70456
:1015EC009DBF85462286D2854E85829AE30E65FB89
:1015FC00050945B7797122D426D24AD04ECE06D6EB
:10160C0052CC56CA5AC8B68983C685019307E006E0
:10161C003289AA842E84138635046380F61E63E215
:10162C00D706930730066382F60A63EDD700638A08
:10163C00061E930780056386F616930A240423017D
:10164C00D40469A8930740066386F60093079006B6
:10165C00E395F6FE1C40084393F6070893054500F6
:10166C00C1C21C410CC363D807001307D002B307D7
:10167C00F040A301E404970600009386A65D294779
:10168C0065A0930730076382F61A63EFD7009307C0
:10169C00F006638FF60493070007E390F6FA9C417B
:1016AC0093E707029CC109A8930750076382F604CD
:1016BC0093078007E393F6F893078007A302F404DB
:1016CC00970600009386465ADDA01C43938A250496
:1016DC00938647009C4314C32381F5048547ADA230
:1016EC0093F607041C410CC3BDDEC207C187A5BF1E
:1016FC000C401C4313F805081385470063050800CC
:10170C0008C39C4339A093F5050408C3FDD983D7BE
:10171C0007001307F006638AE60C97060000938611
:10172C0066532947A30104044C400CC463C505004F
:10173C0008406D9908C099E3B28A91CDB28AB3F58D
:10174C00E702FD1AB69583C505002380BA00B3D510
:10175C00E70263F2E70AA147631EF7001C40858B82
:10176C0091CB58401C4863C7E70093070003A38F35
:10177C00FAFEFD1A3306564110C84E87CA86700011
:10178C00A285268595337D5A6314450D7D55B2503F
:10179C00225492540259F249624AD24A424B456150
:1017AC008280A382D504970600009386A64A0C403B
:1017BC00084313F805081C4111056300080208C30F
:1017CC0013F7150001C793E505020CC04147B9FB9F
:1017DC000C4093F5F5FD0CC0B1B713F8050408C324
:1017EC00E30008FEC207C183E1BF970600009386A1
:1017FC006646214705BFAE8799B794411C43CC4937
:10180C0013F80608138547006306080008C39C43B9
:10181C008CC301A808C393F606049C43F5DA239005
:10182C00B70023280400B28A89BF1C43D0418145EC
:10183C009386470014C383AA07005685012C01C563
:10184C003305554148C05C401CC8A301040435B79E
:10185C0014485686CA8526858299E30945F31C40AF
:10186C00898B8DE7B2474844E353F5F23E8505B7C3
:10187C0085465686CA8526858299E30965F1050A4F
:10188C005C443247998FE345FAFEE9BF014A930A5B
:10189C0094017D5BF5B7411122C42A842E8523A4C3
:1018AC00018606C63D24FD576317F5009387818694
:1018BC009C4391C31CC0B24022444101828041111F
:1018CC0022C42E848395E50006C645226349050093
:1018DC007C48AA977CC8B24022444101828083573D
:1018EC00C4007D777D17F98F2316F400EDB783D7ED
:1018FC00C500011122CC26CA4AC84EC606CE93F7A3
:10190C000710AA842E843289B68991C78395E50085
:10191C008946014631228357C4007D777D17F98FA4
:10192C002316F4008315E4006244F240CE864A8606
:10193C00B24942492685D24405613DA8411122C4D1
:10194C002E848395E50006C6E128FD570357C40095
:10195C00631BF500FD77FD17F98F2316F400B240D9
:10196C002244410182808567D98F2316F40068C810
:10197C00FDB78395E50005A8411122C42A842E8564
:10198C00B285368623A4018606C6EFE09FE8FD5794
:10199C006317F500938781869C4391C31CC0B240AA
:1019AC00224441018280411122C42A842E8523A421
:1019BC00018606C6CD20FD576317F50093878186F7
:1019CC009C4391C31CC0B24022444101828041110E
:1019DC0022C42A842E85B28523A4018606C6D12072
:1019EC00FD576317F500938781869C4391C31CC0F8
:1019FC00B240224441018280411122C42A842E85A6
:101A0C0023A4018606C66520FD576317F50093874E
:101A1C0081869C4391C31CC0B24022444101828008
:101A2C00411122C42A842E85B285368623A40186D0
:101A3C0006C66120FD576317F500938781869C438A
:101A4C0091C31CC0B24022444101828093F5F50F32
:101A5C002A966314C5000145828083470500E38DF7
:101A6C00B7FE0505FDB782808280411122C42A840D
:101A7C002E85B285368623A4018606C6A920FD577D
:101A8C006317F500938781869C4391C31CC0B240B9
:101A9C002244410182809307800523A4F1867D5561
:101AAC0082809307800523A4F1867D55828093075D
:101ABC00800523A4F186014582809307800523A429
:101ACC00F1867D5582809307800523A4F1867D5590
:101ADC008280938701819C4391C73E9523A8A18066
:101AEC003E8582809387C1863E9523A8A1803E8542
:101AFC00828000005374617274204043686970499D
:101B0C00443D253032580A000A312E54656D7065FB
:101B1C007261747572652073616D706C696E672E7D
:101B2C002E2E00002564200A000000000A322E53DD
:101B3C00696E676C65206368616E6E656C2073619D
:101B4C006D706C696E672E2E2E000000526F7567DB
:101B5C006843616C69625F56616C7565203D2564F4
:101B6C00200A00000A332E44696666206368616EA1
:101B7C006E656C2073616D706C696E672E2E2E0015
:101B8C000A342E546F7563684B65792073616D70E0
:101B9C006C696E672E2E2E000A352E53696E676C9B
:101BAC0065206368616E6E656C2073616D706C6925
:101BBC006E6720696E20696E746572727570742020
:101BCC006D6F64652E2E2E007AEBFFFFA2EBFFFFEC
:101BDC00CAEBFFFFE2EBFFFFFCEBFFFF0000000096
:101BEC0000000000000000000000000000000000E9
:101BFC0000000000000000000000000000000000D9
:101C0C0000000000000000000000000000000000C8
:101C1C0000000000000000000000000000000000B8
:101C2C0000000000000000000000000000000000A8
:101C3C00000000000000000000000000232D302BED
:101C4C0020000000686C4C00656667454647000044
:101C5C0030313233343536373839414243444546D6
:101C6C000000000030313233343536373839616298
:081C7C006364656600000000CE
:041C840000400020FC
:101C880000000000081C0000281C0000E81B0000E1
:101C9800000000000000000000000000000000003C
:101CA800000000000000000000000000000000002C
:101CB800000000000000000000000000000000001C
:101CC800000000000000000000000000000000000C
:101CD80000000000000000000000000000000000FC
:081CE800004000200000000094
:00000001FF
