:100000006F004000975100209381C1971781002015
:10001000130141FF13058013973500209385857EDA
:1000200017460020130606E063FAC5008322050088
:1000300023A0550011059105E3EAC5FE17650100EF
:100040001305059E974500209385C5FB13860188FF
:1000500063FAC5008322050023A055001105910510
:10006000E3EAC5FE1385018897650020938585AF77
:100070006377B500232005001105E36DB5FE9302FB
:10008000800873A00230970200009382220293E25C
:10009000120073905230971200009382C2F2739054
:0800A00012347300203000004F
:1000A80000000000000000006F00D0256F00B025A0
:1000B8000000000000000000000000000000000038
:1000C8000000000000000000000000000000000028
:1000D8006F009023000000006F0030230000000034
:1000E8006F00D0226F00B0226F0090226F00702244
:1000F8006F0050226FA0F02D6F001022000000004A
:100108006F00B0216F0090216F0070216F005021A7
:100118006F00D0486F001021000000006F00B02071
:100128006F0090206F0070206F0050206F0030200B
:100138002303048095472303F4802302A48082804C
:1001480083076480E3CE07FE23030480828083074D
:100158006480E3CE07FE0345448082808307648081
:10016800E3CE07FE2302A4808280411126C44AC23E
:100178004EC006C61377F50BAD47AA892E8995445C
:100188006306F70019456D37653F8D444E854D3739
:10019800FD59FD1463983401B240A24412498249C2
:1001A80041018280135509011375F50F453F220956
:1001B800CDB7011126CC06CEB70408005137154536
:1001C800853F713769372AC6A53F3245058901C978
:1001D800FD14F5F47D55F240E24405618280014545
:1001E800DDBF397126DC4ADA4ED852D656D45AD2F7
:1001F8005ED006DE62CEB7E700E083AB071022C60A
:1002080003AB471023A0071023A20710130770059C
:10021800B71700402380E704130780FA2380E70418
:1002280083C74704130975FFB689E2071379F90FE5
:100238008546AA8AAE84328A37240040E18701576E
:1002480063FA26016308D500894613070002631381
:10025800D5000157D98F93F7F70F371C0040114786
:100268002302FC042303E4801305F00FD135C93DB4
:10027800094763692711B7070700BE943787070046
:10028800795963FFE402B3873401636BF702A94726
:10029800639AFA0663940900014915A0A6850945E1
:1002A800E935050A0345FAFFFD198504453D6385CF
:1002B800090093F7F40FF5F7ED3D2A8961DD49351B
:1002C800B7170040130770052380E704130780FA67
:1002D8002380E70403C747044A85418B2382E70448
:1002E800F250B7E700E023A0771123A26711E25488
:1002F80032445259C259325AA25A125B825B724C2A
:1003080021618280A5476394FA06056A9307F00F76
:10031800B3863701B3F9F400B69993C7F7FFB3F979
:100328003701FD8CC16A056C9307FAFFE58F99E3E5
:1003380063FC4901135A4A00C147E3E747FFA9BFD5
:100348008567416AFD17E9B71305800D63085A01EF
:100358001305000263048A0113051008A6853135C8
:10036800893D2A8931FDD294B3894941D1B7A685FF
:100378002D45E53BD299E3013AF3050AC93BA30FA2
:10038800AAFED5BF9387FAFF93F7F70F6360F70AC2
:1003980003475C04B70708001377070219E3B78718
:1003A80007007959E3FEF4F033873401E3EAE7F014
:1003B80089476393FA0493D92900D54AE38E09EC57
:1003C800A68509455D33110A0327CAFF91472320F3
:1003D800E48003076480E34E07FE23035481FD177E
:1003E800EDFBFD1991046385090093F7F40FE1FF14
:1003F800C9332A8961D5E1B58547E383FAF4A6852F
:100408002D45A5334E899304F9FFE30709E88133A5
:1004180093F7340091EB8326048003270A0093079F
:100428004A00E39EE6E83E8A2689F1BFB54763960F
:10043800FA001305900BED3985B5B1471305B00ADD
:10044800E38BFAFE9947639EFA02A6852D45313B58
:1004580001498D4AA149E53963165901832704806A
:100468002320FA000509E31839FF8327048013972E
:100478002401635507002312FA0039BD2322FA002C
:1004880021BD9D476391FA0281451305B004F139F6
:100498009D447D596D39B3079A002380A700FD1448
:1004A800E39A24FFD5BBA1476396FA02194549315F
:1004B80041390545B539014581C88547130500050A
:1004C8006384F4001305C003513909454139D53116
:1004D8002A89F5B3E3820ADC7159D5B3B7F700E08E
:1004E80003A707D16D9B23A8E7D003A707D15D9B7E
:1004F80023A8E7D07300501017270000130707F24E
:1005080083472700858B89E783474700858BEDDB89
:100518008280972700009387A7ED2166B7450200E0
:1005280094431308300281477D169385A5D4172577
:1005380000001305A5EE985E21831377F707631D66
:100548000701CCCA814703474500058B09E70347E4
:100558003500058B6DD38280850793F7F70F13F766
:10056800870075D3D0CAC5B797270000938747E897
:100578002166B745020094431308300281477D166F
:100588009385A5D417250000130545E9985E2183B6
:100598001377F707631D0701CCCA81470347450056
:1005A800058B09E703470500058B6DD38280850716
:1005B80093F7F70F13F7870075D3D0CAC5B7B7F706
:1005C80000E003A707D16D9B23A8E7D003A707D1B5
:1005D8005D9B23A8E7D0730050101727000013076E
:1005E800E7E383471700858B89E783474700858BB7
:1005F800EDDB82804DC12A870145C5C1B307E040C4
:100608008D8BBA97C207C18313074003636CF70445
:1006180017270000130707E70843172700001307E9
:10062800E7E51443638AA6040357650029E30357E3
:100638004500636EF702B306F74021466370D602A1
:100648001041938687001D8FAA96611790C2239246
:10065800E6002393060014C12312F5002313B50006
:100668002105828017270000130787E175B7084125
:1006780013172500E34807FA97270000938747B820
:100688009C5B014599CB411106C605458297B2404E
:1006980001454101828001458280828059E982803A
:1006A8008C436368F50663E6A506138887006360D4
:1006B800050B239307006386D702972600009386CD
:1006C80026DC9442638FF6008356670099EA8356C6
:1006D800470083D747000CC3B697A1072312F7003A
:1006E800BA8798436305C70697260000938646D9BC
:1006F8009442630ED70483566700B1EA83D6470055
:10070800035647001843A106B2962392D70098C310
:100718008280139825003E87AE8763480802972792
:1007280000009387E7AD03A30703630203020945AB
:100738000283972700009387E7D494439727000004
:100748009387C7D390430147B687E3EBC7F482800A
:100758003D432A876373C3029377F700BDEFADE586
:10076800937606FF3D8ABA960CC34CC30CC74CC798
:100778004107E36BD7FE11E28280B306C3408A06C5
:100788009702000096966780A6002307B700A30685
:10079800B7002306B700A305B7002305B700A304D5
:1007A800B7002304B700A303B7002303B700A302CD
:1007B800B7002302B700A301B7002301B700A300C5
:1007C800B7002300B700828093F5F50F9396850054
:1007D800D58D93960501D58D61B79396270097021D
:1007E800000096968682E78086FA9680C1171D8F4C
:1007F8003E96E374C3F8A5B793770502BDCBB71748
:10080800004003C7A700118B21C3B7170040930608
:1008180070052380D704130780FA2380E7047D89B5
:100828002394A700010001000100010023800704B0
:100838002380D7042380E704854637270040A30395
:10084800D780238007048280130770052380E7047C
:10085800130780FA2380E70403C7A700136747003C
:100868002385E7009307004B01000100FD17EDFF0A
:1008780069BF93770504E1DBB717004003C7A700FA
:10088800418B31C37D8913660504DD477D1563F10E
:10089800A706B7170040930670052380D7041307EF
:1008A80080FA2380E7042394C700010001000100B7
:1008B8000100238007042380D7042380E7048D46A2
:1008C80037270040ADBF130770052380E7041307DF
:1008D80080FA2380E70403C7A7001367070123856D
:1008E800E7009307007D01000100FD17EDFF59BFE8
:1008F800B7170040930670052380D704130780FAC2
:100908002380E7042394C7000100010001000100CF
:10091800238007042380D7042380E70489463727E8
:10092800004031BFB717004003D587004205418119
:100938009377050491EB9377F5013755E801130593
:1009480005803345F50282809377050C1307000470
:100958006397E7009377F50137459C1CCDB7216570
:10096800130505D08280F947B387F502E146935510
:100978001600130780703E06AE97B375D50233553F
:10098800D502B385E50241677D17798E798DAE97DB
:10099800C2075D8E93057005B71700402380B70422
:1009A800930580FA2380B704C8DB03C717031367CE
:1009B8000708A388E702D0DB03C7170313670704F8
:1009C800A388E702238007048280914763EEB70279
:1009D800175701001307479A8A05BA959C41BA9799
:1009E8008287B717004003A7470B1345F5FF698FA8
:1009F80023AAE70A03A7070B698F23A8E70A03A717
:100A0800070A798D23A0A70A8280B717004083A61A
:100A1800470B1347F5FFF98E23AAD70A83A6070BBE
:100A2800558D23A8A70A83A6070A758F23A0E70A6E
:100A38008280B717004003A7470B498F23AAE70A0C
:100A480003A7070B1345F5FF45BFB717004083A65B
:100A5800470B1347F5FF758F23AAE70A03A7070A71
:100A6800598D4DB7B717004003A7470B498FEDB70E
:100A7800B7F700E0C8439C4782808147373700407A
:100A8800A14663C4C700328582800345B740E38E20
:100A9800A6FE3385F5000345050085072304A74016
:100AA800CDB7411122C406C62A84AD3D2947B307F4
:100AB800E502B2408D83B3D7870222449507B3D7A6
:100AC800E70237370040C207C1832316F7404101C8
:100AD8008280716541111305052006C6D937B737DD
:100AE8000040130770F82381E7400D47A381E740D2
:100AF80013070004A380E74005472387E740B24077
:100B08004101828001A001A001A001A001A001A0D3
:100B180001A001A001A001A001A001A001A001A0C5
:100B280001A001A001A001A001A001A001A001A0B5
:100B3800B717004003C6B70583C6870503C79705DF
:100B480083C5B7051376F60F93F6F60F93E50508F8
:100B5800A38DB704BD45238CB70493051002A38C5D
:100B6800B70483C5A7051377F70F93E51500238D01
:100B7800B70483C5A7058589EDFD03D5C705A38DF2
:100B8800C704238CD704A38CE70482804111939671
:100B98002500AA852D4506C697300020E78020D17C
:100BA800B240014541018280411122C426C24AC097
:100BB8002A842E89B284AA8585660146254506C6FB
:100BC80097300020E780A0CE931629002686A285BC
:100BD800294597300020E78080CDB24022449244D6
:100BE800024901454101828041119397050122C4C0
:100BF80006C6C1872E8463DB0700512111C119295C
:100C08002165218DB24022444101828093F715006D
:100C180013C51500E5FB9397250163DF0700EF90E7
:100C2800906F37F60200130606E0896503C521B008
:100C3800EF0040760965F1B7939715010145E3D3B5
:100C480007FC174501001305E578EF30213D1166D3
:100C5800130606E8916503C521B0EF00A07311657E
:100C68004DB71D7149469745010093852572175563
:100C780001001305258786CEB92D01E91745010026
:100C880013050572EF30C14D01A0B7F700E07957A1
:100C9800D8C77D5798CB856637E700E02320D71063
:100CA8001306701090C32320D7181306C00381457C
:100CB8004808E123973700209387C77C3ECA856799
:100CC80093870740231CF100ED47A301F102930726
:100CD80050102312F102CD472303F1029D673ECE47
:100CE800970700009387C7EABEC497070000938759
:100CF800E7EBBEC6B5472308F102B7F5070097072B
:100D08000000938727D73EDA81469707000093872C
:100D180067E27000E10519453EDE97300020E78064
:100D280000B958088147994670003E960346060068
:100D380085070507A30AC700E398D7FED24791C7DE
:100D48000357810185676373F70001A04808EF0026
:100D5800D052AA8501C9174501001305A565EF30D2
:100D6800E12B01A0F64025618280411117050000A2
:100D78001305C5E706C622C4EF00704C138421B0E2
:100D88002300A4003D20034504002244B24037F666
:100D98000200130606E089654101EDABB717004074
:100DA800130700032388E702854723A2F1B07300E5
:100DB8002030411106C6B71700401307700523807D
:100DC800E704130780FA2380E70403C7F7025D45A9
:100DD8001306A00313677700A387E702238007049D
:100DE8009305B0034936B240014541016F00907444
:100DF80041119397050122C406C6C1872E8463DD7D
:100E0800070003C51188A52C11C129242165218D4E
:100E1800B24022444101828093F715000145EDDB81
:100E280013854184EFD0F03813451400D5B78347B4
:100E38002500011122CC06CE26CA4AC84EC652C485
:100E480056C25AC005472A846381E70A91CF3547BD
:100E58006380E704F2406244D2444249B249224ADC
:100E6800924A024B05618280014685450D45EFD0C7
:100E7800F0356244F240D2444249B249224A924A89
:100E8800024B174501001305255505616F30412DAB
:100E980003C701889D47E3EFE7FA83494500130933
:100EA800550001449384819703C501886363A402B4
:100EB8000E05090526951946CA85452683C7018862
:100EC80013973700BA948507A38034012380F188EB
:100ED80051B79315340089051946A6954A85E52E1C
:100EE80035F905041374F40FC1B71745010013054C
:100EF800A54FEF30E12683473400A5E30146854539
:100F08000D45EFD0B02C6244F240D2444249B24978
:100F1800224A924A024B174501001305254E0561E6
:100F28006F30C10FA6854E85EF30410F139B3400FB
:100F380001495C405285DA97CA9783C5270005099D
:100F4800EF30C10DE31759FF2945EF302111850412
:100F580083473400E3C8F4FC55B78144974901003E
:100F68009389094B174A0100130A8A4B994ACDB74E
:100F78000111170500001305E5E706CE22CCEF00A6
:100F8800102C13841188A1471306F1002300A40034
:100F980085451305E030A307F100EFD0F0408565E3
:100FA8009385052C0945EF20201403450400854549
:100FB8005126F24062440561828041111305F00414
:100FC80006C6EFF07F83371700408327870A8D45D1
:100FD8001305002093E707202324F70AFD32D53CA8
:100FE8001745010013050550EF3081179D39B53BB2
:100FF800EFD0D061B53F812DFDBF23AC05FE1C416C
:1010080081E70CC18280BA8703A787FF6DFF23ACF5
:10101800B7FE82801DC18346E5FF1307F00F914795
:10102800639EE600411106C697300020E780C0D3D2
:10103800B24081473E854101828095473E85828046
:1010480001E9014582800145B24022444101828084
:10105800411122C42A84210542059305D004418107
:1010680006C697300020E780A0C571DDFD57232014
:101078000500231285002303F5002105F1B7175752
:101088000020130727801C43411122C426C24AC0EE
:1010980006C601440149BA8489E7A1658D211DC4AA
:1010A80001A803C7E7FF631AA7020DCCA16559245D
:1010B8009840832784FF6319E402174700202323FD
:1010C800F77CFD57232C04FE230FF4FE2285B24043
:1010D8002244924402494101828011E03E8983A75B
:1010E80087FF5DBF3E84E5BF232CF9FED9BFB9C990
:1010F800411122C406C62A849747002083C7D7789F
:101108002E856368F40039370D45B2402244410109
:10111800828083A785FF99E703C7E5FF9307F00F50
:101128006305F700C53D1545CDB7238F85FE1745E7
:10113800002013052575D13522852244B240A165CA
:101148004101CDAA154582809747002023AC07723C
:101158008280974700209387E7769C4399E33E85F2
:10116800828003D727006316B70003C70700E30888
:10117800A7FEDC47E5B74111939705014AC006C6AB
:1011880022C426C2C1872E8963DE0700CD3D11C166
:10119800513521653345A900B240224492440249A1
:1011A80041018280AA860145E5D901443D47B357EC
:1011B8008940858B85CF974700209387A774844300
:1011C800BD4791E28147A2978E070545BE94331526
:1011D8008500131405019C40C8404180829723A0D4
:1011E800040023A20400334524017DB70504E3105D
:1011F800E4FC0144CDBF974700209387E76C9C53DC
:10120800411122C406C617340020130424F795CBD5
:1012180082979737002023A3A7F60840B747030013
:101228009387D73F3305F502B7A72600938737EC96
:10123800B24022443E959737002023A1A7F44101EC
:101248008280974700209387276418409C4BBA9761
:10125800173700202324F7F2C9B719C1814799E944
:1012680082803387F500834607003307F50085073A
:101278002300D700E397C7FEE5B72A9609E58280E1
:101288000505A30FB5FEE31DC5FED5BF814733078E
:10129800F5000307070019E33E8582808507C5BF6F
:1012A80001112E8626CAAA84131506019305F00497
:1012B800418122CC06CE32C697300020E78040A07C
:1012C8002A8401C53246A685493F2285F2406244F8
:1012D800D2440561828081476314F6000545828007
:1012E8003307F5008507B386F5000347070083C673
:1012F800F6FFE383E6FE014582809307F6FFBE957D
:101308002A966313C5008280FD1583C7150005055D
:10131800A30FF5FEFDB7814711E901458280330728
:10132800F50003470700E31AB7FE8507E319F6FE41
:10133800054582809747002083C717556371F502DA
:10134800174700201307C7579317150008433E9502
:1013580083570500DD8D2310B500014582800D45BA
:1013680082809747002083C737526373F502174777
:1013780000201307E75493171500084393C5F5FF9A
:101388003E9583570500FD8D2310B50001458280E9
:101398000D4582809747002083C7174F6364F50087
:1013A80001458280411122C426C24AC006C62A8449
:1013B8002E89B284793B01C504C505451DA0930556
:1013C800F004414597300020E780808F0DE1974772
:1013D80000209387674F9C5B81C7A2851145829740
:1013E8000145B24022449244024941018280974714
:1013F80000209387274D9C439DE39747002023A314
:10140800A74C85472326050004C523112501230081
:101418008500A300F5002322050045B7BA87D84701
:1014280075FFC8C7F9BF5DC1797122D426D24AD0E9
:101438004ECE52CC56CA5AC862C406D65EC6368943
:10144800328AAE89AA840144974A0020938A8A4B3B
:10145800394C054B9747002083C737436364F40032
:101468002145A9A003A70A00931B34005E971C43DB
:10147800B1EB1335F40013451500B3178B006376F1
:101488008C00930714FFB317FB0093950701C181E4
:101498005286093705C983A70A000145DE9784C328
:1014A80023A237016304090023008900B2502254A3
:1014B80092540259F249624AD24A424BB24B224CE8
:1014C8004561828005041374F40F69B70945828069
:1014D800411122C426C24AC006C6AA842E89328473
:1014E800553DCA852685B53109C940C10145B24077
:1014F800224492440249410182802145CDBF4111D5
:1015080022C426C24AC006C6AA842E8999312A84D2
:1015180019C123110500CA852685A135014511E0A9
:101528001945B2402244924402494101828017473A
:10153800002003479735637DE5041747002013070C
:10154800673C1443411126C293143500A696944271
:1015580022C406C6AA873A84094595C613B5F7007A
:101568003947134515006373F700C5178545B395CB
:10157800F500C205C18161371C400145A69723A02B
:10158800070023A20700B24022449244410182800E
:1015980009458280411106C66D3E09C50845B2401D
:1015A800410182800145E5BF9747002083C7F72D99
:1015B800637FF504974700209387C7349C4313172C
:1015C8003500BA979843894721C7011126CA06CE24
:1015D8009334F50022CCB94793C4140063F3A700F1
:1015E800451505443314A400420441802EC62685BF
:1015F800A2854D378947324609C5A2852685593BBC
:101608008147F2406244D2443E8505618280894721
:101618003E858280411106C69747002023A6A72E43
:101628000295B2409747002023AAA726410182804D
:10163800954763E9B7008A05974700209387C7262F
:10164800BE9588C18280397122DC174400201304BA
:10165800A4254ED606DE26DA4AD852D456D25AD017
:101668005ECEA2891C40A9E3174400201304C423BA
:1016780097440020938484245C4091C3829783A775
:101688000900DDE71104E31994FE17490020130946
:10169800292303270900174600200346F61E97440E
:1016A80000209384641E21A882976DBF850793F755
:1016B800F70F974600202389F61C63FCC70097475D
:1016C800002083C7671C93961700BA9683D6060036
:1016D800F1DE9747002083C7271B63E6C7069747B5
:1016E80000202383071A83A70900B9E3974700203E
:1016F800938787219C438DCF8297AA8A15C99C48D6
:10170800174A0020130A4A1C014BAA9717470020C2
:101718002324F718FD5717470020232DF71697475E
:1017280000209387271A804349E083274A02EDE780
:10173800F2506254D2544259B259225A925A025B18
:10174800F24B2161828086073E9797470020938756
:101758006715835507009C43231007001745002091
:101768000345851213172500BA979C43829797471C
:10177800002083C767111397170083270900BA97BA
:1017880003D70700598D2390A70083C70400850756
:1017980093F7F70F174700202308F70E1747002085
:1017A8000347970EE3E1E7F41DBF1844814763F44C
:1017B800EA00B307574103274A021CC401CBD844A7
:1017C80063F6E700174700202326F70C95EB8355AF
:1017D80024008DE15C44631E0B021747002023237D
:1017E800F70E832BC400228597200020E780C0577E
:1017F8005E841DBF03450400353E5C4081CB1CC49C
:1018080083572400E1DB228B404439BF1C44F9D3C1
:10181800C5BF2326FB00F1B7032609009746002021
:1018280083C69606814713F7F70F636DD70683A71C
:10183800C900E39F07EE83A70901E39B07EE83A78F
:101848004901E39707EE4800EF80C0177D5663090A
:10185800C50A92461747002003473708E37AD7ECB2
:10186800DC44638FC70403464A01058A21C65146F2
:10187800B387C702E37EF7EA63F3D700BE86B717DC
:101888000040905F32C68C5F3246E39CC5FE32450D
:10189800198D3695B707C0A86367F502B707405793
:1018A8003E9515A085071397170032970357E7FF52
:1018B8003DDBBDBD13069002B387C70285835DBFBC
:1018C800636AE502198D83274A022DCD8297137525
:1018D800F50FE31F05E4174700200357E7129307A6
:1018E800707DE317F7E4EF805072EF90604FEF8060
:1018F800906D3DBDB707C0A83387E7403A95E1B77B
:10190800DC44E387A7E203474A01058B15C7514525
:10191800B387A70217470020034737FCE37AF7E0AD
:10192800B7160040905E32C48C5E2246E39CC5FE2A
:101938002245198D3E95B9BF13059002B387A702BA
:101948008583C9BF3705C0A851B7411106C622C44F
:1019580026C2174400201304240A23000400EFD0F1
:10196800E05161468145174500201305E5F3230042
:101978000400EFF09F90714681451745002013053C
:10198800A5F0EFF09F8F9747002023AD07F2974708
:10199800002023AB07F6174400201304E4EEF947B0
:1019A800A301F4009747002083C7C7F313D5270086
:1019B8008D8B3E958D473305F502994793051002A7
:1019C80097440020938404EE35051375F50F230121
:1019D800A4003305F5021305050F97200020E780C2
:1019E800202E9747002023AFA7F0834734008E07A7
:1019F8003E958347240088C08A073E959747002074
:101A080023A0A7ECEFF04FF4892E834714009840E9
:101A180017F6FFFF1306667693962700BA9690C2CC
:101A2800938627008507A300D40093F7F70FB240E9
:101A380022448A07BA9790C392444101828097470B
:101A4800002083C777E417470020034707E463F3C0
:101A5800E702174700201307E7E4184393861700A7
:101A680017460020A302D6E293962700369708C3AC
:101A78003E8582809307F00FE5BF411126C20441DD
:101A880006C622C44AC08947638C04124177658F11
:101A9800B706002089476315D7120359450063012B
:101AA80009122A8419469305F00F5905EFF0BF86ED
:101AB80005478D476306E5104A8681452685EFF080
:101AC800CFFB1306C0038145174500201305C5DF6A
:101AD800EFF0AFFA1306C003A285174500201305DF
:101AE800A5DEEFF08FF79747002083D7A7DE99E7A9
:101AF8009307002017470020231EF7DC9747002094
:101B080083C767DD91E78547174700202305F7DC82
:101B18009747002083C737DC91E7ED471747002038
:101B2800A30BF7DA9747002083C707DB91E79547B0
:101B3800174700202302F7DA9747002083C7D7D931
:101B480091E7854717470020A308F7D89747002053
:101B580083C7A7D891E7CD4717470020230FF7D6AB
:101B68009747002083C727D899E79307800217472C
:101B78000020230AF7D69747002083C7C7D6174700
:101B88000020034797D5858339E3938707051747CF
:101B98000020A304F7D48347D40191E7914717475E
:101BA8000020A301F7D4974700209387E7D19C57DB
:101BB80091C7829797470020239BA7CC7933814709
:101BC800B2402244924402493E8541018280034743
:101BD8003401BA9793F7F70F5DBF4111B71700406B
:101BE800985F3AC6945F3247E39CE6FEB2471747D0
:101BF80000200347A7CE058B3EC0824731C313069A
:101C08003033B386C702B3B7C702B982CA07D58FC4
:101C18003EC202C497470020938707C7D44B924718
:101C2800638DF600924763E5D7029247958F3EC4CD
:101C38009247174700202323F7C622454101828097
:101C48006546B386C702B3B7C702A582DE07C1B728
:101C580019E737673D089247958FBA97C9BF378705
:101C68006F0813070790C5BF011122CC06CE2A843E
:101C78002EC6EFF04FD8B245F240818D33A5A502AC
:101C8800229562441375F50F05618280011122CCFB
:101C980006CE2A842EC6EFF00FD6B245F240818DCB
:101CA80033A5A502229562444205418105618280DF
:101CB800011122CC06CE2A842EC6EFF0CFD3B2452E
:101CC800F240818D33B5A502229562440561828078
:101CD80097470020938747BF985721CF411122C4C7
:101CE80026C206C6BE84029717470020035727BAA4
:101CF8002A841DCBBA876373A700AA87C207C1834A
:101D0800BA866373E400A286C206C182958F130760
:101D1800C003635BF700DC5491C38297EF80B05F28
:101D280097470020239587B6B24022449244410148
:101D38008280828097470020938707B9DC5741113A
:101D480006C691C3829717050000130545E9EFF011
:101D58007F8CB240014541018280011122CC174499
:101D68000020130464B6084406CE26CA19E50545C2
:101D7800F2406244D244056182805C58EDDB185C15
:101D88007DD77000854582971844B247E301F7FE76
:101D98008357C400174500200345E5B39305E004C5
:101DA8003305F50297440020938404AE420541812F
:101DB80097200020E780C0F0174700202322A7AE15
:101DC8005DD59747002083D7E7B017460020034624
:101DD80086B03306F6029305F00FEFF00FCA904C69
:101DE80008449747002083D7E7AE08C297450020EC
:101DF80083C565AEB385F5021C5C89818297884CE2
:101E080097200020E78040F601459747002023A946
:101E180007A8B9BF411122C4174400201304C4AA5B
:101E28001C4426C206C6974400209384E4A5ADCB83
:101E38001C5CBDC79C4C8DE78357C4001745002028
:101E4800034565A99305E0043305F5024205418180
:101E580097200020E780C0E69747002023A2A7A488
:101E6800884C1DCD9747002083D7C7A6174600206A
:101E7800034666A63306F6029305F00FEFF0EFBFB0
:101E8800904C08449747002083D7C7A408C29745B9
:101E9800002083C545A4B385F5021C5C898182971F
:101EA800884C09C997200020E78000EC974700205C
:101EB80023A8079EB24022449244014541018280F2
:101EC800011126CA974400209384049C22CC804C9C
:101ED8004EC652C456C206CE4AC8AA8AAE89328AAB
:101EE80031EC174900201309299E8327890099E3BB
:101EF800A94461A08357C900174500200345A59D43
:101F08009305E0043305F50242054181972000203E
:101F1800E78000DB2A8451C183274903BDCF974559
:101F2800002083C5459B174700200357A79AB38510
:101F3800E5022A860325890089818297914513073E
:101F4800A005898193972500A29783C6070063930C
:101F5800E60483C61700639C560385058A054E86EA
:101F6800A2955285EFF06FAF9C4C81446387870040
:101F7800228597200020E78020DFF24062442685F2
:101F88004249D244B249224A924A0561828083D5A5
:101F9800270045BF9C4CE38D87F4228597200020BD
:101FA800E78080DCB1B7974700209387E79198478F
:101FB80029CB9C5FB9C785466315D504411122C456
:101FC800174400201304448C104C06C61DC69746BF
:101FD800002083D626909745002083C5C58FB385FA
:101FE800D5023A8589818297084C97200020E7809E
:101FF800A0D79747002023A5078AB2402244410171
:10200800828082809747002093870788984F011124
:1020180022CC26CA4AC852C406CE4EC62A89AE84E5
:1020280032843E8A35E7974900209389E98983D726
:10203800C900174500200345058A9305E0043305C8
:10204800F5024205418197200020E78060C7974745
:10205800002023A7A7842A8611E92945F240624473
:10206800D2444249B249224A0561828003A58900C7
:1020780005C183A7490389CF9745002083C5A58556
:102088001747002003570785B385E50289818297A2
:1020980003258A0191461308A005FD5593D726000C
:1020A800C207C183139727002A97034607006319BD
:1020B8000603834817000356270063912803B306D5
:1020C800D64063CB960085078A073E952686A2856B
:1020D800EFF0AF98014559B7A300B700B2867DBFAE
:1020E800173600200356067F9735002083C5A57E46
:1020F800B385C502338696001106E3E0C5F613865C
:102108003400719A1106B29623000701A300270133
:102118002311D7004DBF01458280011106CE2EC67E
:10212800EF40001201C9B245F24003552500056190
:102138006F70403EF240494505618280A386018A5E
:102148002386018A23AA018823AC018823AE01884B
:1021580023A0018A23A8018823A601889737002095
:102168009387C77C930600051307400B2391E7006C
:102178002397D70011672398D7009306007D2392F1
:10218800E700239DD7001307000ABD462393E70005
:102198002394E7002391D7024147F1762395E7007E
:1021A8002396E7002399E700239AE700239BE7009B
:1021B800239CE700938606B82394E70205472392F9
:1021C800D7022395E7029D46130710F82396E702E6
:1021D80023900700239E0700239F070023900702F0
:1021E8002393D702239707027D5723980702239941
:1021F800E7028280011126CAAA84214522CC06CE94
:102208002E8432C636C43AC2EFE09FE31DC9A24607
:1022180012473246930700FD2300F5009947A300B3
:1022280095002301F5002303D500A303E50023123D
:10223800C500AA8522856244F240D24405616FE058
:102248001FEBF2406244D2440561828023AAA18830
:10225800828023ACA188828023AEA188828023A0BB
:10226800A18A8280011122CC4AC806CE26CA2A89B0
:102278000144B30489006368B400F2406244D24464
:102288004249056182802EC6EFE0FFF693170501EB
:10229800C183A183B2452380F4009307140093F708
:1022A800F70F850463F9B700CA9709042380A700CC
:1022B8001374F40F7DBF3E847DBFC16717350020BE
:1022C80003552565FD176304F502411117360020F3
:1022D800034686719385418A06C6EF30105FB24087
:1022E800FD57173700202316F7624101828082804C
:1022F80009C925151375F50F1335850E13451500F6
:1023080082800145828023800500F94763E2C7087F
:10231800797122D426D24ECE56CA5AC806D64AD089
:1023280052CC5EC63684B289AE8A2A8B814463FF5A
:102338003405B307940003CA0700138914001379FE
:10234800F90F63050A04B3072A0163C1F904B30747
:10235800240183CB07005E85613F0DC99307FAFF0F
:102368002380FA0063906B03130519002295B2507D
:10237800225492540259F249624AD24A424BB24B11
:1023880045618280D29493F4F40F55B70145C5B7DF
:1023980001458280411126C2AE8422C497370020AD
:1023A80023A0C7589737002023AAB756973700208D
:1023B80023A4A7562A8441469305F00F26854AC0D0
:1023C80006C60549EFE03FF5631E25039737002051
:1023D8009387C753884BC145713541469305F00F24
:1023E8002285EFE05FF38544631695022244973710
:1023F80000209387A751B24092440249C847C1457B
:1024080041018DB5414681452685EFE0DFF0E316B1
:1024180025FD6DBF414681452285EFE0DFEFE307EB
:1024280095FCB24022449244024941018280411104
:1024380022C426C22E84AA841306000281451735B9
:1024480000201305A54C06C6EFE03FE397370020B0
:10245800A38F974A97370020A3898758EF70000DFC
:10246800854719C181474945B240224417370020A2
:10247800230EF748924441018280814781CD19C9D2
:102488008547631BF50083C7550093E707FCA382C4
:10249800F50085473E85828089476317F50083C725
:1024A800550093F7F703E5B70D478547E314E5FEB5
:1024B80003C755001377F70313670704A382E500E2
:1024C800D1BF81478DC105C103C755009306000CD4
:1024D80085471377070C6308D700930600048D47D8
:1024E8006303D70089473E858280411122C4005D7D
:1024F80006C626C21DC8AA84085009C59720002010
:10250800E7808086485009C597200020E780C0856D
:10251800085409C597200020E78000852285972068
:102528000020E780608423AC0402B2402244924435
:102538004101828009ED9737002083C7473D173551
:1025480000201305253E81CB1385418882801735ED
:1025580000201305253D8280173500200345253BC3
:102568008280973700209387673AC84782809737D9
:1025780000209387A739884B82809737002093875C
:10258800E738DC4B884382809737002093870738E9
:10259800D84B1C4385071CC3173500200345353726
:1025A8009307F00F6305F50091656FE0BFD882804F
:1025B800011122CC06CE2E8432C6EF30F058914756
:1025C800B245631FF5009387018A9C438DC303A31B
:1025D8000700630E030022856244F240056102830E
:1025E800938781899C4381C703A34700DDB7F240E5
:1025F8006244054505618280011122CC2A84035575
:10260800450006CE26CA4AC84EC6EF30903A2DC5B8
:102618002A89834405008349C500C13D4A85EF40A6
:10262800502703554400EF30B04D83C7C18AA9CB6A
:102638006398970483C5D18A2685C53419E1238612
:10264800018A03554400EF3030509147631FF5006D
:10265800035744009737002083D7A72B6317F70049
:10266800FD57173700202316F72AF2406244D24458
:102678004249B2490561828081499304F00F75B7D8
:102688009307F00FE38FF4FA83466400035644007F
:10269800034524004E87A685B13E65B779715EC6AD
:1026A800AA8B2E8552CC56CA5AC806D622D426D210
:1026B8004AD04ECEAE8A328B368AEF30902F69C917
:1026C800045D2A89F1C49C50614599C313054003F0
:1026D8009C5481C751054205418163050A00710573
:1026E80042054181DC5081C7590542054181EFE02F
:1026F8003F952A8451CD61468145EFE01FB897394F
:10270800002083C9A9256394090083490900930718
:1027180000FD2300F400A947A30074012301F4007D
:10272800230364018C50231254011305840181C9C9
:1027380008C47146930A4403EFE03FB256858C54AF
:1027480081C948C45146930A4501EFE01FB1568537
:10275800630A0A0008C87146D285930AC501EFE0EA
:10276800DFAF5685CC5089C548C85946EFE0FFAE63
:10277800A2854E85EFE0BF972254B2509254F24999
:10278800624AD24A424BB24B4A8502594561B1BBB3
:10279800B250225492540259F249624AD24A424BE8
:1027A800B24B4561828001114EC6AA892E854AC85E
:1027B80006CE22CC26CA2E89EF30B01F31C59734F9
:1027C800002083C4A41999E0834405001945EFE06B
:1027D8003F872A8415C981451946EFE01FAA930748
:1027E80000FD2300F400B947A30034012301F400DD
:1027F80023122401A2856244F2404249B249268547
:10280800D24405616FE0BF8EF2406244D24442492F
:10281800B2490561828039715ECEAA8B2E8526DA8F
:102828004ED652D456D25AD006DE22DC4AD8AE84CE
:10283800328BB68A3A8ABE8942C6EF30901731C9C0
:102848002A894145EFE0CFFF2A8421C541468145C9
:10285800EFE0BFA2173500200345451019E10345F5
:102868000900930700FD2300F400BD472301F4008D
:10287800B247A30074012312940023046401A30443
:10288800540123054401A30534015CC4A285EFE08B
:102898001F86F2506254D2544259B259225A925A5F
:1028A800025BF24B21618280797126D2AA84394574
:1028B8004AD04ECE06D622D42EC6B2893689EFE04B
:1028C8002FF815CDB2459307000D2310F500B14739
:1028D8002A842312B5002301F500CE85190519466F
:1028E800EFE0BF9723062401A2852254B250025973
:1028F800F24913F5F40F925445616FE04FFFB2505F
:10290800225492540259F2494561828017370020B7
:102918000347F7FF9307F00F630BF706411126C231
:10292800AA84394522C406C64AC0EFE06FF12A845A
:1029380029C9930700FD2300F500A3009500230192
:102948000500973500209385E5FD0D051946EFE054
:10295800DF9017390020130969FB83578900A28586
:10296800173500200345B5FA2315F40083471900ED
:102978002306F4002244B2409244024941016FE028
:102988000FF7B2402244924402494101828082807A
:10299800011156C2AA8A314526CA4AC84EC652C42F
:1029A80006CE22CCAE84328AB6893A89EFE04FE966
:1029B80029C92A842685EF30C07F1DCD034505002F
:1029C800930700FD2300F4009D47A3005401230151
:1029D800F400231294002313440123143401231513
:1029E8002401A2856244F240D2444249B249224AB3
:1029F800924A05616FE0AFEF17350020034535F1C6
:102A0800C1B7F2406244D2444249B249224A924A8A
:102A180005618280397162CC2A8C594526DA4AD8F8
:102A28004ED652D456D25AD05ECE06DE22DCAE84C2
:102A380032C636C4BA8B3E8BC28A468A8359010491
:102A480003494104EFE0CFDF25C53246930700FD77
:102A5800A2462300F5009547A301C500A300850100
:102A68002301F5002A84194611059DCEB685EFE0AD
:102A7800CFFE23066401230A2401231574012317BA
:102A880054012318440123193401A2856254F250D9
:102A98004259B259225A925A025BF24B624C26852D
:102AA800D25421616FE0AFE48145EFE00FFDD1B76B
:102AB800F2506254D2544259B259225A925A025B85
:102AC800F24B624C216182809737002083C727E44C
:102AD8009DC74111AA8519461385418806C6EFE0AE
:102AE800CFF79385418817350020034545E2EFF07D
:102AF800DF98B2401385418841016F60B0230145DA
:102B08008280411106C622C426C217370020034717
:102B180017E09307F00F6306F704AA842945EFE04E
:102B28002FD22A841DCD930700FD2300F500A1476D
:102B38002301F500A300950097370020938707DD50
:102B480083C72700938541881105A30FF5FE194611
:102B5800EFE0AFF0A28517350020034555DBEFE025
:102B68000FD9173700200347A7DA85476317F702FD
:102B78009387C1899C4381C79C4791C3829722440C
:102B8800B24092445D66173500200345E5E513061B
:102B98000670914541016FE0BF93B24022449244D0
:102BA80041018280797122D406D626D24AD04ECEEF
:102BB80052CC09444DC92A89035505002E8A51442F
:102BC800EF30205FAA8445C19737002083C7F7E11B
:102BD800FD1793F7F70F054749446376F70803474E
:102BE800C500A1476314F700631F0A069C5C4544AF
:102BF800BDEB930570041305C00297100020E78011
:102C0800200C88DCAA894D4439CD1306C0028145C1
:102C1800EFE0AFE683570900938649003685239194
:102C2800F90071469305490036C6EFE00FE389477E
:102C38002380F90003C5C400B24603560900611594
:102C48009735002083C545DA13351500EF50305706
:102C58002A8463060A00D2852685EF40E06E01C407
:102C68002685EFF09F882285B2502254925402594B
:102C7800F249624A456182809737002083C7F7D6B8
:102C8800FD1793F7F70F05476378F708894751C68B
:102C9800011122CC26CA4AC84EC652C406CEAA89F9
:102CA800368AB2842E89EF30C0502A84D14729C988
:102CB800485509C597100020E780000BF145268587
:102CC800EFE00FDE48D4CD4705CD8346C400214749
:102CD8008147639FE600630D0A000347A501035679
:102CE800050193062501AA854E85EF30905DAA87D8
:102CF80003474400630F0900136767002302E400D9
:102D0800F2406244D2444249B249224A3E850561B2
:102D1800828013674700DDB7C9473E858280E14757
:102D280063EBA70097370020938747C006053E95B9
:102D380003550500828041657D158280011122CCF2
:102D48002A842E8526CA06CEAE84EF3080460DCD65
:102D5800B7470F009387F723094563E28702814548
:102D68000A854146EFE06FD1A685231081000A85C8
:102D7800418023018100A3010100EF507026F24039
:102D88006244D244056182804945D5BF9737002007
:102D9800A38CA7C482806F50503B797152CC2A8A89
:102DA800328522D426D24AD04ECE56CA5AC85EC6DA
:102DB80006D662C4AE8BB28A368BBA843E89C28983
:102DC8004684EF30003F15C92A8C63140A02137732
:102DD8004B008347450015CF93E727012302FC00EA
:102DE8008DEC631C0902639A090205E8ED9B230236
:102DF800FC00832B8C03639D0B06B2502254925423
:102E08000259F249624AD24A424BB24B224C4561BE
:102E18008280F59B93E70701D1B793E74700230228
:102E2800FC0011C81C484146A2852324FC02130556
:102E38008C01EFE08FC263910B02C5DC0325CC0245
:102E480009C597100020E78020F2F1452685EFE0BC
:102E58002FC52326AC0271BFE30D09F80325CC0268
:102E680009C597100020E78020F0F1454A85C5B7CD
:102E780085C483A70B0291EB9305700471459710E5
:102E88000020E780E0E323A0AB0203A50B0209C5FD
:102E98007146A685EFE06FBC6385090283A74B02E4
:102EA80091EB93057004594597100020E78040E1A5
:102EB80023A2AB0203A54B0209C55946CE85EFE014
:102EC800CFB905C483A78B0291EB930570045145D4
:102ED80097100020E780C0DE23A4AB0203A58B0275
:102EE80009C55146A285EFE04FB72254B25092541B
:102EF800F249B24B224CCA865A860259424BD685B1
:102F08005285D24A624A45616FF04FF9011126CACB
:102F180052C406CE22CC4AC84EC62A8AAE84EF30A6
:102F2800402935C1AA893945EFE08F912A8421CDFE
:102F380017390020034989A26314090003C909004D
:102F48009307000D2310F400AD472301F400938587
:102F58006900130534001946EFE02FB093F7140009
:102F6800858085882306F400A30694002315440170
:102F7800A2856244F240D244B249224A4A85424973
:102F880005616FE0CF96F2406244D2444249B249AB
:102F9800224A056182809387C188884301CD411107
:102FA80006C697100020E78020DCB24023A60188DF
:102FB800410182808280011106CE22CC26CA4AC8ED
:102FC8002EC6EF30001F29CDB2451739002003491E
:102FD800E998AA840CD56314090003490500414502
:102FE800EFE00F862A840DCD9307000D2310F5001E
:102FF800A5472301F50083C7540093856400110594
:10300800A30FF5FE1946EFE04FA59C54A285F240A8
:103018005CC46244D2444A85424905616FE02F8D01
:10302800F2406244D244424905618280797122D4D7
:1030380006D62A842EC6EF30C01701CDB2452285A8
:10304800230EB1006C08EF40A02CB2502254456109
:1030580082805145DDBF6F302024C1671387E7FFA9
:103068006394E502938781899C4391EB494582806B
:103078004945B2402244924402494101828003A357
:103088000700E30503FE0283411122C426C24AC099
:1030980006C6FD172A892E84B2846395F5029387A4
:1030A80081899C4391CB9C4381CB829711E52386F0
:1030B800218BA386918A75BFA6854A85EFF0EF8597
:1030C8004DF9F5B72E85EF30C00E5DD18347050069
:1030D8000D45E39027FB22852244B2400249A6858C
:1030E800924441016F600043E14763E8A7044167E8
:1030F8007D1789476384E504411122C426C206C6A8
:10310800C547AE842A84631AF5001305C0033385C6
:10311800A50242054181EF60A0471315140017343A
:1031280000201304A4802295B24022442310950065
:10313800814792443E854101828089473E8582804D
:10314800011106CE2AC6EFE07FFFEF10C003EF00A3
:103158008071EFB0F00D3245972700209387077BE9
:10316800130700F02391E700238207007D57973764
:10317800002093876787A380E7002380A700F24099
:10318800954505616F1030235D7193970501CAC09D
:1031980086C6A2C4A6C24EDE52DC56DA5AD85ED61D
:1031A80062D466D26AD0C1872E8963D1074A17359F
:1031B800002003456583EFD09FEC8964416A856AE6
:1031C800797B2A84938BD4007D1AA50A691B15E0A4
:1031D80021653345A900B640264496440649F2596C
:1031E800625AD25A425BB25B225C925C025D6161B8
:1031F8008280834704001307200A639DE700035574
:103208002400172C0020034C9C702286D285EFF0F6
:103218002FBA89A213071009172C0020034CDC7C55
:103228006397E7168347140015476390E7022285E2
:10323800EFF08FBC2285EFD0FFDD17250020034576
:10324800A57AEFD0DFE32A8459B739476397E716A1
:1032580003554400631955050C4483C90500639B55
:103268000900850581C91946172500201305856BB6
:10327800EFD0BFFE1727002003474769854763182B
:10328800F710638A090097270020238107684E8575
:10329800EFF0CFE745B78947172700202308F766DF
:1032A800EF60002941BF93872400631AF50683293C
:1032B8008400638E090C83C709008DE383C7290046
:1032C80003C71900A207D98F172700202314F76412
:1032D80083C7390017270020A30AF76217270020A1
:1032E8000347C76289476314F70A83C7090081CB7C
:1032F80097270020238C076003C5090051BF8D471D
:103308009725002083C59560172500200355856003
:1033180017270020230CF75EEF10F00CF1BF9387FE
:1033280054006318F5001C4403C50700EFF06FFD57
:1033380011B7B3076501C207C1831147636FF7006F
:103348009387C1899C43E38707EE9C43E38407EE98
:1033580022858297E31005EE1DA89387B400631FAA
:10336800F500938741899C43E38607EC9C43E383FC
:1033780007ECA2851385B4008297E9BF9387C40040
:103388006310F5021C4483C70700E38507EA930727
:10339800F00FE301FCEAA2856285EFD05FD571BD2D
:1033A8009387E400E315F5FE938781899C43E383C3
:1033B80007E8DC43A285E9F3B5BD3D476397E70419
:1033C80003554400E30275FF93879401E30EF5FC6F
:1033D80093873401E31DF5FA9727002083D76753B5
:1033E800639E4701938781899C43E38507E4DC4317
:1033F800E38207E4A28513853401BDBF9387018A60
:103408009C43E38907E29C43E5B71307E003E39095
:10341800E7F88347240005476396E70E834764006F
:10342800138DC188F1E383270D00D5CB03CC0700AA
:10343800A14903457400930C8400E685EFF06F887A
:1034480083474401A303A400835804010358E400FC
:10345800035744002A86034534003EC2835724019B
:10346800E686E2853EC0CE87EFF0CFDA83473400A8
:1034780095E7DD47835804010358E4008346740048
:10348800835544003EC2835724013EC06687CE87D9
:1034980005466285EF20F07DA301A40083270D0077
:1034A80081C71145EFF03FAF03C5C18AE30405D8D2
:1034B80083C5D18AEFE07FC6E30E05D68346340084
:1034C80093071003638AF600035644004E8783C5AA
:1034D800C18A3685EFE01FD22386018AA1BB172C4B
:1034E8000020034CDC42A9B79387C1899C43172C61
:1034F8000020034CDC4191498DDFDC439DDB014515
:10350800829705BF2947639DE70883476400138DA9
:10351800C188ADEB83270D00ADC303CC0700A149DB
:1035280003457400930C4401E685EFE09FF9834757
:103538000402A303A4008358C4010358A401035739
:1035480044002A86034534003EC28357E401E686D8
:10355800E2853EC0CE87EFF0EFCB834734009DFF76
:10356800DD478358C4010358A4018346740083557A
:1035780044003EC28357E40109BF172C0020034CC6
:103588001C3971BF9387C1899C43172C0020034CB9
:103598001C389149D1D7DC43C1D70145829749B737
:1035A8000947639DE700938741899C43E38407C8E3
:1035B800DC43E38107C822858297ADB92D4763991B
:1035C800E700938741899C43E38607C69C47D5B7A4
:1035D8000D476397E70022868D450355440005B9DA
:1035E8001947E396E7DA9305610113051031EFB047
:1035F800804C2C0813052031EFB0E04B03566400D3
:10360800835781010355440063E8C700835684004B
:103618000357610163F7E60093050002EF50507607
:1036280011B96374E6002313E40063F4D70023148C
:10363800F4000357C4008356A4000356840083553E
:10364800640001488147EF507073EDB693F7150099
:1036580081CF938741899C4389C7DC4399C301453E
:1036680082971345190085BE93F7250081CF93876C
:10367800C1899C4389C7DC4399C305458297134593
:10368800290091BE93F745000145E38607B49727C3
:10369800002083C7F727B5C7FD1793F7F70F17273C
:1036A8000020A307F726B1EF938701899C4391CFA8
:1036B800854717270020230DF7249387C1899C434A
:1036C80089C7DC4399C305458297972700209387CC
:1036D800E723C8472C08EF4090792808EFF0CFBEC1
:1036E800972700209387872483D72702914517259A
:1036F80000200345652F17270020A30BF720EFD0E4
:103708001FE013454900C1BC411122C42A84554514
:1037180006C6EFF0CFE0B335A00022852244B240C0
:1037280041016F50B062797122D406D68D472E843C
:10373800631FF50003D7A50083D6850003D665006F
:103748000345340083D54500EFF08FA409A88967A5
:103758001387D7006310E50403C5250019E58547DD
:10376800B25022543E85456182809387C188944334
:10377800FDD603C6360083C50600814802C202C0D2
:103788000148814701479106EFF0CFA80545EFF0C2
:103798009F80F1B71387E7006314E5000945C5BFAB
:1037A80013873701631AE50003C525004DD9014782
:1037B80081460146814549BFE507E302F5FA4167BD
:1037C8007D178147E31EE5F803C75500C947E3188D
:1037D800F7F883D6E50003D6C5000355840083D5E2
:1037E800A500EF50705B21C15D45EFF04FD3333535
:1037F800A000231EA100834544000355240070083F
:10380800EF20100E8357C101B9FB0357E40083561C
:10381800C4000356A40083558400035524000148BE
:10382800EF50D0532DBF8547231EF100E9B7C1677C
:103838001387E7FF639DE5009387C1889C4395C381
:1038480083C707000D47639CA7006F507050FD1792
:1038580049476396F5009387C1889C43FDF73A85ED
:1038680082804947EDBF2387018A23AA018A23A8BA
:10387800018A972700209387A70E170700001307D0
:10388800272498C31707000013074727D8C317072B
:1038980000001307475798C7972700209387070DFD
:1038A800170700001307E7F898C317070000130766
:1038B800C7E7D8C38280011122CC1384418B1C40F6
:1038C80006CE26CA4AC84EC652C499CF2E8AAA84A2
:1038D8000149084063129902630C0A04970000200A
:1038E800E780804823AA018AF2406244D2444249D0
:1038F800B249224A0561828093194900B30735010C
:10390800884709C997000020E78000461C40CE97E9
:1039180023A407001C40CE97C84709C99700002078
:10392800E78080441C40BE9923A60900050955B7C5
:1039380045DD139644008145EFD03F9414408147FC
:103948007D5613F7F70FE37197FA139747003697E9
:103958002300C7008507F5B7011152C4138A018BEC
:1039680083270A0006CE22CC26CA4AC84EC656C2AB
:103978005AC0C9CF2A89014419ED9387418B9443D2
:1039880099CA03C6E18A2A8481479305F00F13F781
:10399800F70F6367C708131534002105EFD04FEA06
:1039A800AA8401E92145EFD0AFE9AA8421C50144E1
:1039B8004D49930700FD2380F4008547A380240127
:1039C8002381F400A38184004DC41389840023A2B9
:1039D80024018149938A418B130BF00F83C7E18A35
:1039E80063F3F90031E883270A00A68503C50700B9
:1039F800EFD0EFEF814503C5E18A753D03250A0045
:103A080097000020E780403623A8018AF2406244EC
:103A1800D2444249B249224A924A024B0561828005
:103A2800139747003697034707006305B700050457
:103A38001374F40F8507A1BF83A70A009395490063
:103A4800BE9583C70500638267032300F90083C717
:103A58001500130529007D14A300F90019468905EE
:103A68001374F40FEFD06FFF2109850993F9F90F4B
:103A7800B5B723A2040085BF411122C406C62A8413
:103A880005E10945EFF0AFA92A86854517250020ED
:103A9800034585F5EFD01F900545BD312A8411C92E
:103AA800854517250020034525F4EFD05FA522851D
:103AB8006535B240224405454101828089671387F4
:103AC800B700631AE5009387018B9C439DC39C450F
:103AD80003C5070055B71387C7008147631CE50076
:103AE8009C4503C50700854711C59387018B9C43F7
:103AF800F5F381473E8582801D7186CEA2CCA6CA89
:103B0800CAC8CEC6D2C4D6C2DAC05EDE62DC66DA05
:103B18006AD86ED6630D0524834735002A8A8DCB73
:103B280040411DC45945EFF08F9F93178501E187E8
:103B38003EC40149938A018B9389418B930C000DF4
:103B4800354D054B930BF00F83473A006361F9023B
:103B5800F6406644D6444649B649264A964A064B34
:103B6800F25B625CD25C425DB25D25618280830754
:103B78008402224763C1E72883A70A00A5CB8347AD
:103B88000400638A6707034684009306940093053C
:103B9800F1010545EFE02FF7814719C1834705007B
:103BA8008346040011476380E60203A70A008D4696
:103BB800034717006309D70099C711C705C9631FD1
:103BC80067038D8B85C703451400130C2400E28519
:103BD800EFE03F8FA300A40083A70900AA84814DCA
:103BE80095E70346040091476318F60C83A709007C
:103BF80063930720CDAA814701455DB78946E3173E
:103C0800D7FE858BC1B7850D93FDFD0F83C7E18A6C
:103C180003A50900E3F7FDFC93974D003E95034784
:103C28000500E30277FF03471500E31E97FC1946DA
:103C3800E28509053EC6EFD00FEAB24769D583A4ED
:103C4800090003470400BE94C9DC9147631AF708CA
:103C5800C84405C583478400034605006304F60885
:103C6800034704009147631CF708C84419C5970027
:103C78000020E780600F23A60400034584009145D7
:103C8800050597000020E780A00315C1034704003D
:103C98009147631FF706C8C48347840093059400BF
:103CA8000505A30FF5FE03468400EFD00FDB83471D
:103CB8008400639607121DBF83A7090085DB83C5AF
:103CC800E18A0147E304B7F2BE84C10703C507FFD1
:103CD800630A750B05071377F70FEDB788C4F1A8CA
:103CE800884485BF930594000505EFD0CFDEE3191E
:103CF80065F75545EFF0AF826303050EC5BD8844EF
:103D08002DDD97000020E780200623A40400B5B726
:103D180088C459B7231095012301A50183470400DE
:103D2800194693052400A301F500830784021505AD
:103D38002303F50083471400A30FF5FEEFD0EFD15E
:103D4800034684002386C40005C21385440188C83D
:103D580093059400EFD06FD083A70A00A68503C50A
:103D68000700EFD0CFB841A823A80400F5B7938780
:103D7800018B9C43E38E07DCEFF01FBE0145EFF09B
:103D8800BF98F9B32380C40083471400E2851385E4
:103D98002400A380F4001946EFD02FCC03458400FB
:103DA8008D45050597000020E78080F115C1034780
:103DB80004009147E314F7F2C8C4834784009305CD
:103DC80094000505A30FF5FE03468400EFD0EFC865
:103DD8008347840089E783470400E39967E183A761
:103DE8000A00E38507E0034584005105EFD04FA59D
:103DF800AA84E31105F20509130494021379F90F53
:103E0800A1B3797106D622D426D24AD04ECE52CC4E
:103E180056CA5AC85EC655CD83473500AA8985C794
:103E2800444195C05945EFE09FEF931A850193DA15
:103E38008A410149138A018B130B00FDC14B83C7CB
:103E48003900636DF900B250225492540259F24974
:103E5800624AD24A424BB24B456182808387F40062
:103E680063C4570783270A00A5C35145EFD04F9D68
:103E78002A8439C923006501A300050023017501BF
:103E880083C70400194693852400A301F50083879E
:103E9800F4001505A306F50083C71400A30FF5FE6B
:103EA800EFD0AFBB83C78400938594001305C4008B
:103EB800A305F4001946EFD04FBA83270A00A2855C
:103EC80003C50700EFD0AFA20509C1041379F90FA4
:103ED800BDB79387018B9C43BDD7EFF0FFA7225452
:103EE800B25092540259F249624AD24A424BB24BFA
:103EF800014545616FF05F819387018B9C43B5E372
:103F08009727002083C777AEA98BB1CF011122CCA8
:103F180095452A84114506CE97000020E78040DAAF
:103F280023A8A18A39C1A2851146EFD00FB3154540
:103F3800EFE0FFDE2AC61945EFE07FDE03473400D5
:103F48002A86034524006244B245F24097260020A1
:103F580083C6E69B3337E000B336D00005616F5067
:103F6800A05E4545828049458280F24062444D45C5
:103F7800056182809727002083C737A7A18B172563
:103F880000201305A59E91E301456FE08FAC411118
:103F980022C485452A8403C5E18A06C6EFF0BF918D
:103FA8009727002083C777A4A98BB5C717250020BA
:103FB8001305059B2387818AEFE04FA91384418B62
:103FC8001C4091C74D45B24022444101828003C53F
:103FD800E18A19E10145C5BF9D45120597000020FA
:103FE800E78000CE23AAA18A71DD03C6E18A120602
:103FF8008145EFD08FA8104083C6E18A8147FD55DF
:1040080013F7F70FE378D7FC13974700329723008D
:10401800B7008507F5B701452387018AEFE00FA3AD
:1040280055BF93870189884301CD411106C6970082
:104038000020E78060D3B24023A801884101828034
:104048008280011122CC06CE8D472E846316F50698
:1040580003C73500E94703D545006318F7009727DC
:10406800002083D7078B6385A706EF20801409C536
:10407800835764002317F5000357A4008356840070
:10408800035664008355440003453400EFE05F9015
:10409800035744009727002083D7A7876308F700B2
:1040A8008547F24062443E8505618280FD571727A7
:1040B80000202310F786EDB78967CD07631DF5004B
:1040C80083C7250031476385E7004547E39AE7FC46
:1040D800EFE0AF9EF1B741677D178147E313E5FC39
:1040E80083C655004947E39EE6FA83C54500035554
:1040F8002400300023140100EF10707955B779714E
:1041080022D4138401891C4006D626D24AD00545FC
:10411800ADC70D45EFE0BFC0AA841145EFE03FC031
:104128002A899305F1011305F041EF90F03C03470C
:10413800F1019717002083C7877DB336F00019C7B0
:104148000D4789466384E700B336F0001C4036C645
:1041580003C5370093854700EFE02FB21040B24601
:104168002A878348B6000348A600930746000346FB
:104178002600CA852685EF50203CB250225492541E
:10418800025945618280FD572382F180239C018A70
:1041980023A0018C23A2018C23A4018C9387819BEB
:1041A800170700001307A70798C31707000013078E
:1041B800C726D8C3170700001307A7F498C797079F
:1041C8000000938747E823AEF18A8280411126C216
:1041D800938401899C4006C622C49DCB2A840D4540
:1041E800EFC01FE6AA8519CD930700FD2300F5004F
:1041F8008D47A30085002301F5009C4003C50700F7
:10420800EFC0FFEE11C42244B2409244410111BDF7
:10421800B2402244924441018280797122D40354ED
:104228004500896706D626D24AD04ECE52CC13878F
:104238006700631EE402938701899C43814489CF08
:1042480018450345070015E10547A380E700054524
:10425800EF50402F19E98544B2502254268502595F
:104268009254F249624A456182808D37EDB71387CF
:1042780097006365870403C741809307F00FE30C39
:10428800F7FC1C45114583C40700EFC07FDBAA85F6
:1042980079D1930700FD2300F50089472301F50034
:1042A800F977E1173E9413341400A3009500A30195
:1042B800850003C54180EFC09FE371BFA907814412
:1042C800E31CF4F813890189832709004A8AC9D7AE
:1042D800184583C41700854783490700638DF40296
:1042E8009717002083C7C762BDF70D45EFC05FD59C
:1042F800AA8505C1930700FD2300F5009147A30097
:1043080035012301F5008327090003C50700EFC025
:104318001FDE013B89B79387018C9C4385E30145E8
:10432800EFE0FF9F2A8601CA89451715002003453B
:10433800A56BEFD02F8683270A00B9A003C6070014
:10434800938617009305F1000545EFD0DFFB61D98F
:1043580083470500858BE1D70545EFE05F9C930710
:10436800B0032A8463FFA7025D66130606708945B9
:104378001715002003454567130444FCEFD04F95FB
:10438800239C818A832709000947A380E7009717A0
:10439800002083C7E75799CB97170020238A075631
:1043A80065BD130600643306C502B5BF4E85393DA9
:1043B80065B5411126C2938401899C4006C622C472
:1043C800A1C783C707000D446391A7048945171542
:1043D800002003456561EFD08F92914517150020A5
:1043E80003458560239C018AEFD06F9197170020C1
:1043F800A38007529C400145A38087002244B24015
:10440800924441016F50001449442285B24022442D
:10441800924441018280411106C685476315F5061D
:1044280083D7818BA1CB171700200347674E39E349
:104438001307B003636BF70289451715002003457E
:10444800A55AEFD0CF8B9307006403D6818B330630
:10445800F60289451715002003450559EFC09FF35B
:10446800239C018AB24041018280938747FC239CA8
:10447800F18ACDBF938701899C43EDD7B24003C52C
:10448800070041013DB7938701899C43E1DF9717F6
:10449800002083C79755918BF1D7894517150020C0
:1044A80003458554EFD0AF85B240239C018A410172
:1044B8006FF03FB79717002083C73753958BCDC34D
:1044C8009387018C99E19387818C9C43D1CBFD47DD
:1044D80063EAC70811C2D9C6411122C426C206C65A
:1044E8004AC02382A180B684328495CD1389018C79
:1044F800032509007D4681450505EFC01FD8032522
:104508000900A68522860505EFC03FD58325090049
:104518002285238085002244B240924402498505C1
:1045280041016F50A0011389818C032509007D4644
:1045380081450505EFC07FD403250900A68522869D
:104548000505EFC09FD183250900228523808500BA
:104558002244B24092440249850541016F40507E91
:1045680049458280094582809717002083C7F7470D
:10457800918B99CF41111385C18B06C6EFD03FCEE1
:10458800B240FD57171700202315F73841018280E4
:1045980001456FD0DFCC9387018C8843411122C439
:1045A80006C626C23E8419C597F0FF1FE780C07B68
:1045B80023A0018C9387818C884319C597F0FF1F2E
:1045C800E780807A23A4018C971400209384C44147
:1045D80083C73400958BADCB1385819BEFD0DFC7A4
:1045E80083C73400958B99E74D45B24022449244E5
:1045F80041018280930570041305000297F0FF1FA4
:10460800E780006C23A0A18C65D1130600028145C8
:10461800EFC0BFC6930570041305000297F0FF1F93
:10462800E780006A23A4A18C01C913060002814512
:10463800EFC0BFC4014555BF084097F0FF1FE78092
:10464800A07223A0018C4DB70145EFD0FFC0DDB7A4
:10465800F1CA011152C42E8A854522CC4EC656C2D3
:1046680006CE26CA4AC8AA8AB6893284EF10504FA5
:10467800D14715C183C7418D83C6518D814419E047
:10468800B684BE861387C18C184393974400BA97A3
:1046980063EDD400D547F2406244D2444249B2495E
:1046A800224A924A3E85056182803E89C10703D726
:1046B80027FF09C7850493F4F40FD9BF31CC9305BC
:1046C800C0041305000297F0FF1FE780605F2326F0
:1046D800A90069D113060002814593840404EFC040
:1046E800DFB923119900230009002313590105C8D4
:1046F8001717002013070728834794001043230443
:10470800F900118C8327C90011841180238E87003A
:1047180023A02901814741B723260900E9B72304CB
:104728004901FDB785473E8582809387C18C9843B0
:1047380083C5418D81476395F50081463685828022
:1047480003562700BA8619C2E30AA6FE850793F71F
:10475800F70F4107CDB79387C18C984303C6418DA6
:1047680081476315F6008146368582808355270088
:10477800BA8689C583454700E388A5FE850793F770
:10478800F70F4107F9BF971700209387A71E984393
:1047980083C5718D81476395F50081463685828092
:1047A80003560700BA8619C2E30AA6FE850793F7DF
:1047B800F70F4107CDB79387C18C9C4303C8518D30
:1047C80001476315E80081463685828003D62700B5
:1047D800BE8619CA03D667006318A600D04709C663
:1047E80003562600E302B6FE05071377F70FC10745
:1047F800C9BF411122C4404526C206C6AA8415C0B5
:10480800484409C597F0FF1FE7800056484809C586
:1048180097F0FF1FE7804055228597F0FF1FE7803C
:10482800A054268541468145EFC03FA5B2402244A9
:10483800FD57A384F400924441018280011122CCE7
:104848002A840355250006CE2EC6EF107005324681
:1048580022858145EF00D06222856244F2400561DD
:1048680049BF05C503572500411122C406C62A843D
:1048780009CBDD45EF00B06422852244B2404101F6
:104888008DBFB2402244410182808280411126C2FC
:1048980031479304C5FF3387E402971700209387B5
:1048A800E70D06C622C43E978356A7006397B60253
:1048B800484305C53E849307F00F6306F600834717
:1048C8000500639CC70097F0FF1FE780E049B147E8
:1048D800B387F402A29723A20700B240224492446D
:1048E80041018280411122C42E8426C24946AA84ED
:1048F8008145228506C6EFC05F98ADC083C7C40155
:1049080013974700971700209387C7069C43BA97C9
:1049180003D707002310E40003D7270083D76700D5
:104928002311E4001387218D035707002312E400A5
:1049380003D704002313E40003D724002314E4005E
:1049480003D744002315E40003D764002316E400CA
:1049580003D784002318F4002317E400B24022444C
:10496800924441018280971700209387A70003A8EB
:1049780007009387C18C904383C5418D01478147C8
:104988006394E5003E8582808346060081CE5446C6
:1049980091CA83C6C6019206C2966315D5008507DB
:1049A80093F7F70F05071377F70F4106D1BF1306E3
:1049B80000643386C50293069500AA851705000092
:1049C800130565EA6FC03FA6411122C406C62A84B2
:1049D80003459500EFC0BFB5FD57A304F400B240EE
:1049E800224441018280011122CC4AC84EC652C4D9
:1049F80056C206CE26CA2A89AE890144138AC18CBA
:104A08009D4A83C7518D6361F404639609029389B3
:104A1800C18C130AF00F83C7418D6365F4061144F6
:104A2800A1442285050442041306F00FCA8541807B
:104A3800B13DE31894FEF2406244D2444249B2497F
:104A4800224A924A0561828083270A00931444000F
:104A5800BE9483C704009DC383D764006390270373
:104A68006396590103D52400EF10806326854E868E
:104A78008145EF00F0402685EFF0BFD70504137499
:104A8800F40F41B783A7090093144400BE9483C769
:104A9800040095C383C79400638F470183D76400DC
:104AA800639B270126850D372685D145EF003041C8
:104AB8002685EFF01FD405041374F40FA9BF4167CE
:104AC8007917630AE502411122C406C685472A847C
:104AD8006398F50022852244B2408145410121B7FF
:104AE80089476396F5008545EF10900765D5B24074
:104AF80022444101828082809D45F5B503D5218DF0
:104B08008280011106CE2317A1002316B10003C726
:104B1800018D85476318F70070009305E10005458E
:104B2800EF40D01FF24005618280A947631CF6045C
:104B380083C7150003C70500A207D98F2310F50006
:104B480083C7350003C72500A207D98F2311F500B5
:104B580083C7550003C74500A207D98F2312F50064
:104B680083C7750003C76500A207D98F2313F50013
:104B780083C7950003C78500A207D98F2314F500C2
:104B8800014582800545828091476314F60283C7F8
:104B9800150003C70500A207D98F2310F50083C7A6
:104BA800350003C72500A207D98F2311F500014559
:104BB8008280054582809387C5FF93960701C1824D
:104BC8000D476360D70231473387E7029717002004
:104BD8009387C7DABA972381A7002390B7000145C6
:104BE80082800945828071152399A18C238BB18C11
:104BF80082801105420541119305C004418106C612
:104C080097F0FF1FE780C00B11C5B240F155410175
:104C18006FA0C02FB2404101828041119717002038
:104C2800238CA7D41306000317150020130505D5F8
:104C3800814506C6238A018C238B018CA38B018CAA
:104C4800A38A018C2388018CA388018C238C018C76
:104C58002399018C23A6018CEFC02FE2EF10404D61
:104C680017150020034585D41DCD9305C0041205F2
:104C780097F0FF1FE780C00417170020232CA7CE4A
:104C88001DC197170020938767D283C7170017168F
:104C980000200346A6D18145A38AF18CA38BC18C41
:104CA8001206EFC08FDD9387518D83C70700171554
:104CB8000020034525D39305C0043E951375F50FD1
:104CC800238AA18C120597F0FF1FE78060FF23A6B7
:104CD800A18C21C103C6418D12068145EFC0EFD9D1
:104CE8009387C18C984383C6418D814725077D569C
:104CF800639AF600B24017050000130585DC4101F0
:104D08006F10805D85072300C70093F7F70F4107F1
:104D1800C5B7238A018CA38A018CE9BF41119397F7
:104D2800050126C206C622C4C187AE8463DE070811
:104D380017150020034545C4EFC06FB42A8439C94C
:104D480003470500930700096313F7040347150099
:104D5800CD476319F706034525009715002083C53D
:104D6800A5B783C7618D93066400014601472E8865
:104D78006319E50219C2238BF18C83C7618D81CB3E
:104D8800854517150020034525BFEFC0AFDA2285FA
:104D9800EFC04FA82165258DB240224492444101BD
:104DA800828003C60600B29713F6F70F9377F80FC1
:104DB8006374B6009377F60F05071377F70F890624
:104DC80005467DB72125E1B793F715000145E9D7D9
:104DD800EF00706A19C983C7618D81CB85451715A6
:104DE8000020034565B9EFC0EFD413C514006DB7B3
:104DF80085462A8763FBC60483C7150003C60500DA
:104E0800A207D18F2310F500639CD70083C7350014
:104E180083C62500A207D58F2311F500014582809E
:104E2800894601456394D70283C7350083C62500A8
:104E3800A207D58F2311F70083C7550083C6450005
:104E4800A207D58F2312F7008280054582809147FB
:104E58006314F60283C7150003C70500A207D98F9C
:104E68002310F50083C7350003C72500A207D98F93
:104E78002311F5000145828005458280914763141E
:104E8800F60283C7150003C70500A207D98F2310B0
:104E9800F50083C7350003C72500A207D98F231162
:104EA800F5000145828005458280A1476314F60418
:104EB80083C7150003C70500A207D98F2310F50083
:104EC80083C7350003C72500A207D98F2311F50032
:104ED80083C7550003C74500A207D98F2312F500E1
:104EE80083C7750003C76500A207D98F2313F50090
:104EF80001458280054582808947631CF60083C787
:104F0800150003C70500A207D98F2310F500014536
:104F18008280054582808357260079714ECE06D659
:104F280022D426D24AD01307F007AE896372F7025B
:104F380009473AC42316F100300093F5F50FEF1036
:104F48000015B250225492540259F24945618280A8
:104F580003574600D9462A89328463F8E600835706
:104F6800660063F4F6006379F7002314010030004B
:104F780093F5F90F4A85E1B70355060002C4EFF02F
:104F88009F80AA8459C1EFF01F9E83C7840063697C
:104F9800F5001146A246CE854A85EF10E00455B7C4
:104FA800340026869305F00F4A85EFF06FEA75F115
:104FB800A24703578400DC472390E70003572400E7
:104FC8002391E700035744002392E7000357640046
:104FD8002393E70003D744002394E700DC4485CB00
:104FE80093F4F90F2286A6854A858297C167FD1733
:104FF8002A86E311F5FA22459947F9452300F50079
:1050080023029500EFF0BF9A2DBF094661B701460C
:1050180051B7A947631CF60483C7150003C70500E9
:10502800A207D98F2310F50083C7350003C72500D1
:10503800A207D98F2311F50083C7550003C7450080
:10504800A207D98F2312F50083C7750003C765002F
:10505800A207D98F2313F50083C7950003C78500DE
:10506800A207D98F2314F500014582800545828067
:1050780083C705002300F50083C71500A300F500CA
:1050880083C7350003C72500A207D98F2311F50070
:1050980082802322050003C7450089476304F7007F
:1050A8000545828083D665000D47E37BD7FE9C4586
:1050B800011106CE22CC26CA4AC84EC683C41700A0
:1050C80003C60700A204D18C138644006311D604DA
:1050D80003C4370083C72700AE8922045D8C930779
:1050E800C4FFC207C1832A89636FF70003A589003B
:1050F8002314990023108900F155EF903061232281
:10510800A900014531A02285EFF02FE265F10545A0
:10511800F2406244D2444249B24905618280397101
:1051280022DC2E84834704004AD806DE26DA4ED6CF
:1051380019472A89B285639AE7060346240028009E
:10514800EFF0FFD0AA8415E903558100EFF0EFDDF9
:10515800AA898345140015C92E861717000013075E
:1051680067E634009D454A85EF00103C4E850946A8
:10517800814539234E85EFF0CFE7F25062542685FA
:105188004259D254B2592161828089472310F100D3
:10519800835781000A862311F1008357A100231247
:1051A800F1004A85EF00B06EC9BF4947639DE70229
:1051B800035624002800EFF05FCFAA845DFD97070F
:1051C800002083D7677C99E3814445BF03471400D7
:1051D800834604003C000146CA85170500200345A4
:1051E800C57A252E59BF51476390E702035624001C
:1051F8002800EFF09F93AA8449F1834514003000FA
:105208004A85EFF05FD195BF59476391E70603568A
:1052180024002800EFF05F97AA8425F183558100C8
:105228004A85EFF04FD90DC958458356A1008357D9
:105238000700B697C207C1832310F700D1D75C4790
:10524800C1D783C7618DC9D385451705002003459C
:10525800A572EFC02F8E15B789473EC083578100CE
:105268000A86834514002312F10025BF83451400E4
:105278000A8623100100EF009061B9B75D71A6C2DC
:1052880056DA86C6A2C4CAC04EDE52DCAA8A03C554
:105298001500AE8432C6EFF00FCCB24501ED814463
:1052A800B6402644268506499644F259625AD25A8F
:1052B80061618280230205002311050083C904006F
:1052C80085472A84639AF90003C624002808EFF06A
:1052D8003FB2AA8405492DA09D476394F90403476A
:1052E80005008D47E31DF7FA03C624002808054981
:1052F800EFF0DFB8AA8409E50546814522854926ED
:105308002285EFF06FEC034584003C080147CE8608
:105318002686D6851924E30509F82285EFF06FCD96
:1053280041B7CD47639DF900034705009147E3184E
:10533800F7F603C624002808EFF01FBC59BFD5476D
:10534800E39FF9F4034A05008947E31AFAF403C610
:10535800240028080549EFF0DFCBAA8455F18357CC
:105368000102BDE3035781011306F0035C44930671
:1053780007FCC206C182636CD6000356A101D94658
:1053880063F7C6008356C101D94563EFD5000355BD
:1053980024002391E7000549EF00905003560102CD
:1053A800D28522855924A9BF8355E1012391E700BD
:1053B8002392C7002390B7002393D7008547230083
:1053C800F400014A0149D9BF014AC9BF7971AA85C8
:1053D80022D426D203542500AA84480806D6EFF022
:1053E8005FCBE24599E535E985452285EFF06FF118
:1053F800C1A0835741011547639BE7060357C101C5
:105408008D4763FCE7042800EFF09FC60357A1000F
:10541800DD4763FCE70083459100B7071700850760
:10542800700022853EC6EF0090468357A1000357BF
:10543800C10191076305F7002285EFF0EFEB834781
:10544800810062462C00858B1106228591CFEFF0F2
:10545800FFE201C52285EFF02FEA884451D597F085
:10546800FF1FE780609049B7EFF07FCBDDB71147AA
:105478006389E7001387A7FF42074183854663EEE8
:10548800E6023147F117B387E70217070020130731
:10549800E74EBA9703D7070069D303C5270050081A
:1054A800A2850D205DF9035741019147E31EF7F2EC
:1054B800B25022549254456182804C0822853D2680
:1054C80049FDFDB701114AC82A89414526CA06CEB9
:1054D80022CC2EC6B284EFB0BFB615CDB245930725
:1054E800000A2310F5002311B5002A84314611055E
:1054F80099CCA685EFB07FD6A2854A85EFB03FBF8D
:105508000145F2406244D2444249056182808145A6
:10551800EFB0BFD6D5B70545EDB7797126D2AA84C5
:105528001305000206D622D42ECE32CC36CA3AC88B
:105538003EC6EFB0FFB031C56246F2454247D2469B
:10554800B2472A84130520FA2300A400A300C4004C
:105558002311B4002302E400A302D400130584003D
:10556800614681CFBE85EFB05FCFA2852254B2508D
:105578002685925445616FB09FB78145EFB0FFCF44
:10558800EDB7B250225492544561828058457971E2
:1055980022D406D62A84AE8649C383572700231D02
:1055A800F10093072006639EF5049387218D03D6A7
:1055B8000700835767006373F600B28713F6F70F87
:1055C80083552701834707018D8F93F7F70F81E5EF
:1055D800890793F7F70FB297FD17B3C7C702231EC2
:1055E800F100835724008355640003458400231C7D
:1055F800F10001473C0801460D37B250225445617D
:1056080082800347C701970700209387A7369C43EA
:105618001207BA9783D76700D9B72EC619468145AE
:105628002808EFB09FC5B2466DBF797122D406D65F
:1056380026D22A8485C181470147930600062E8613
:105648008355640003458400C93DB25022549254E6
:1056580045618280B28428005946EFB01FC22314E6
:10566800910089E88357240048446C002315F10011
:10567800EFF04FA73C000147930600060146C9B763
:10568800797106D6814799ED835725005845231629
:10569800C1002314F1003C0011C7835727002315CC
:1056A800F1003C002E8683556500034585000147BF
:1056B80093060006EFF07FE6B25045618280411103
:1056C80022C406C68347050011472A846395E7026A
:1056D8002E86835565000345850081470147CD46E1
:1056E800EFF0BFE34946835564002244B2401545B4
:1056F80041016FF0AF9913F7B70F89466316D700CA
:10570800014625375146C5B70D476397E700224440
:10571800B24001464101ADB7B24022444101828006
:1057280083D705003147F1173387E7029707002031
:105738009387C724BA97D84319EBD8412395A70074
:105748000145D8C303D785002394E70082805945D3
:105758008280797122D4404526D24AD006D6AA84BE
:105768002E8925C0484419C597E0FF1FE780C05F10
:10577800232604008357040083D5640003C58400EE
:105788002315F1008357240001479306400623168A
:10579800F100835784004A862317F1001C483EC84D
:1057A80083D724002314F1003C00EFF01FD7A30E89
:1057B800240123280400B25022549254025945610E
:1057C8008280280031468145EFB03FAB83D7240063
:1057D80083D5640003C584002314F10001473C000D
:1057E800930640064A86EFF05FD3F1B7797152CC41
:1057F8002A8A03D5050026D206D622D44AD04ECE10
:1058080056CAAE84EFE07FF219E1854749A04045CA
:10581800AA8965DC83576500E39947FF83578400AD
:10582800638607128346C401970A0020938A8A1464
:1058380003A70A009206FD173697C20703576700A9
:10584800C1832314F4006316F70093053006EFF0C4
:10585800FFD35C48BDEBC8400349150083470500EA
:1058680022093369F90083D7840013072900631AD2
:10587800F702F955EF908069C8C02394240103C545
:1058880089002686D285EFF0FFC381471DEDB2500F
:10589800225492540259F249624AD24A3E854561DD
:1058A80082809305C0044A8597E0FF1FE780404146
:1058B80048C8C840231C2401F955EF90206583D7B8
:1058C8008400C8C0F9172394F400484849C503D692
:1058D80084008356A401835784013308D60063CE1D
:1058E80007070347C40183A70A0095451207BA971B
:1058F80083D7270063CD0705CC403695EFB0FF95D9
:105908000357A40183D78400BA97C20703578401B9
:10591800C183231DF400E39AE7EE03D72900231679
:10592800F10003C589002312E10058485000D285D0
:105938003AC4EFF03FB911C5484897E0FF1FE78028
:10594800A042232A0400232C0400C1B599454E85A2
:10595800EFE0DFEE5DBDA545DDBF9145CDBF03D7C7
:10596800850069CF83D6218DED4763EAE60C0111E6
:1059780022CC2E8426CAAA844840914506CEEF90B0
:10598800E05883578400AA862300F50083578400D3
:10599800A183A300F500835704002301F500835772
:1059A8000400A183A301F50003568400C167F91719
:1059B8001106420641826396F4042AC4314532C670
:1059C800EFB00FE8AA85CD471DC5930700F9324609
:1059D800A2462300F500F9572311F5008947230251
:1059E800F5002313C50014C5170500200345C5F8A5
:1059F800EFB0EFEF8147F2406244D2443E85056143
:105A0800828081452685EF30F038AA8701E903C7EF
:105A1800618D75D37D17238BE18CF1BF0947630234
:105A2800E5021D476301E50249476300E5027D473A
:105A3800E313E5FC03C7618D8147E1BFED473E8570
:105A48008280D1474DBF91477DB789476DB7011116
:105A580022CC4AC831441309C5FF33048902970789
:105A680000209387A7F106CE26CA3E94584031C736
:105A780083C6618DBE84854795CA2312A1008357CA
:105A880084000355A4004C003AC42316F100EFF03B
:105A98001FED11C5484097E0FF1FE780E02CB14794
:105AA800B307F902A69723A207008547F24062448C
:105AB800D24442493E85056182808147C5BF7971DC
:105AC80026D244451387218D4AD083D764000359D1
