:100000006F004000975100209381C1991781002013
:10001000130141FF13058013973500209385857EDA
:1000200017460020130606E063FAC5008322050088
:1000300023A0550011059105E3EAC5FE17550100FF
:100040001305C5F4974500209385C5FB1386818869
:1000500063FAC5008322050023A055001105910510
:10006000E3EAC5FE1385818897650020938505AE78
:100070006377B500232005001105E36DB5FE9302FB
:10008000800873A00230970200009382220293E25C
:1000900012007390523097120000938242E77390DF
:0800A00012347300203000004F
:1000A80000000000000000006F00D0256F00B025A0
:1000B8000000000000000000000000000000000038
:1000C8000000000000000000000000000000000028
:1000D8006F009023000000006F0030230000000034
:1000E8006F00D0226F00B0226F0090226F00702244
:1000F8006F0050226FD0B0176F0010220000000070
:100108006F00B0216F0090216F0070216F005021A7
:100118006F0090486F001021000000006F00B020B1
:100128006F0090206F0070206F0050206F0030200B
:100138002303048095472303F4802302A48082804C
:1001480083076480E3CE07FE23030480828083074D
:100158006480E3CE07FE0345448082808307648081
:10016800E3CE07FE2302A4808280411126C44AC23E
:100178004EC006C61377F50BAD47AA892E8995445C
:100188006306F70019456D37653F8D444E854D3739
:10019800FD59FD1463983401B240A24412498249C2
:1001A80041018280135509011375F50F453F220956
:1001B800CDB7011126CC06CEB70408005137154536
:1001C800853F713769372AC6A53F3245058901C978
:1001D800FD14F5F47D55F240E24405618280014545
:1001E800DDBF397126DC4ADA4ED852D656D45AD2F7
:1001F8005ED006DE62CEB7E700E083AB071022C60A
:1002080003AB471023A0071023A20710130770059C
:10021800B71700402380E704130780FA2380E70418
:1002280083C74704130975FFB689E2071379F90FE5
:100238008546AA8AAE84328A37240040E18701576E
:1002480063FA26016308D500894613070002631381
:10025800D5000157D98F93F7F70F371C0040114786
:100268002302FC042303E4801305F00FD135C93DB4
:10027800094763692711B7070700BE943787070046
:10028800795963FFE402B3873401636BF702A94726
:10029800639AFA0663940900014915A0A6850945E1
:1002A800E935050A0345FAFFFD198504453D6385CF
:1002B800090093F7F40FF5F7ED3D2A8961DD49351B
:1002C800B7170040130770052380E704130780FA67
:1002D8002380E70403C747044A85418B2382E70448
:1002E800F250B7E700E023A0771123A26711E25488
:1002F80032445259C259325AA25A125B825B724C2A
:1003080021618280A5476394FA06056A9307F00F76
:10031800B3863701B3F9F400B69993C7F7FFB3F979
:100328003701FD8CC16A056C9307FAFFE58F99E3E5
:1003380063FC4901135A4A00C147E3E747FFA9BFD5
:100348008567416AFD17E9B71305800D63085A01EF
:100358001305000263048A0113051008A6853135C8
:10036800893D2A8931FDD294B3894941D1B7A685FF
:100378002D45E53BD299E3013AF3050AC93BA30FA2
:10038800AAFED5BF9387FAFF93F7F70F6360F70AC2
:1003980003475C04B70708001377070219E3B78718
:1003A80007007959E3FEF4F033873401E3EAE7F014
:1003B80089476393FA0493D92900D54AE38E09EC57
:1003C800A68509455D33110A0327CAFF91472320F3
:1003D800E48003076480E34E07FE23035481FD177E
:1003E800EDFBFD1991046385090093F7F40FE1FF14
:1003F800C9332A8961D5E1B58547E383FAF4A6852F
:100408002D45A5334E899304F9FFE30709E88133A5
:1004180093F7340091EB8326048003270A0093079F
:100428004A00E39EE6E83E8A2689F1BFB54763960F
:10043800FA001305900BED3985B5B1471305B00ADD
:10044800E38BFAFE9947639EFA02A6852D45313B58
:1004580001498D4AA149E53963165901832704806A
:100468002320FA000509E31839FF8327048013972E
:100478002401635507002312FA0039BD2322FA002C
:1004880021BD9D476391FA0281451305B004F139F6
:100498009D447D596D39B3079A002380A700FD1448
:1004A800E39A24FFD5BBA1476396FA02194549315F
:1004B80041390545B539014581C88547130500050A
:1004C8006384F4001305C003513909454139D53116
:1004D8002A89F5B3E3820ADC7159D5B3B7F700E08E
:1004E80003A707D16D9B23A8E7D003A707D15D9B7E
:1004F80023A8E7D073005010172700001307C7F090
:1005080083472700858B89E783474700858BEDDB89
:10051800828097270000938767EC2166B745020021
:1005280094431308300281477D169385A5D4172577
:100538000000130565ED985E21831377F707631DA7
:100548000701CCCA814703474500058B09E70347E4
:100558003500058B6DD38280850793F7F70F13F766
:10056800870075D3D0CAC5B797270000938707E7D8
:100578002166B745020094431308300281477D166F
:100588009385A5D417250000130505E8985E2183F7
:100598001377F707631D0701CCCA81470347450056
:1005A800058B09E703470500058B6DD38280850716
:1005B80093F7F70F13F7870075D3D0CAC5B7B7F706
:1005C80000E003A707D16D9B23A8E7D003A707D1B5
:1005D8005D9B23A8E7D0730050101727000013076E
:1005E800A7E283471700858B89E783474700858BF8
:1005F800EDDB82804DC12A870145C5C1B307E040C4
:100608008D8BBA97C207C18313074003636CF70445
:10061800172700001307C7E508431727000013072B
:10062800A7E41443638AA6040357650029E3035724
:100638004500636EF702B306F74021466370D602A1
:100648001041938687001D8FAA96611790C2239246
:10065800E6002393060014C12312F5002313B50006
:100668002105828017270000130747E075B7084166
:1006780013172500E34807FA972700009387C7B6A2
:100688009C5B014599CB411106C605458297B2404E
:1006980001454101828001458280828059E982803A
:1006A8008C436368F50663E6A506138887006360D4
:1006B800050B239307006386D702972600009386CD
:1006C800E6DA9442638FF6008356670099EA835608
:1006D800470083D747000CC3B697A1072312F7003A
:1006E800BA8798436305C70697260000938606D8FD
:1006F8009442630ED70483566700B1EA83D6470055
:10070800035647001843A106B2962392D70098C310
:100718008280139825003E87AE8763480802972792
:100728000000938767AC03A307036302030209452C
:100738000283972700009387A7D394439727000045
:10074800938787D290430147B687E3EBC7F482804B
:100758003D432A876373C3029377F700BDEFADE586
:10076800937606FF3D8ABA960CC34CC30CC74CC798
:100778004107E36BD7FE11E28280B306C3408A06C5
:100788009702000096966780A6002307B700A30685
:10079800B7002306B700A305B7002305B700A304D5
:1007A800B7002304B700A303B7002303B700A302CD
:1007B800B7002302B700A301B7002301B700A300C5
:1007C800B7002300B700828093F5F50F9396850054
:1007D800D58D93960501D58D61B79396270097021D
:1007E800000096968682E78086FA9680C1171D8F4C
:1007F8003E96E374C3F8A5B793770502BDCBB71748
:10080800004003C7A700118B21C3B7170040930608
:1008180070052380D704130780FA2380E7047D89B5
:100828002394A700010001000100010023800704B0
:100838002380D7042380E704854637270040A30395
:10084800D780238007048280130770052380E7047C
:10085800130780FA2380E70403C7A700136747003C
:100868002385E7009307004B01000100FD17EDFF0A
:1008780069BF93770504E1DBB717004003C7A700FA
:10088800418B31C37D8913660504DD477D1563F10E
:10089800A706B7170040930670052380D7041307EF
:1008A80080FA2380E7042394C700010001000100B7
:1008B8000100238007042380D7042380E7048D46A2
:1008C80037270040ADBF130770052380E7041307DF
:1008D80080FA2380E70403C7A7001367070123856D
:1008E800E7009307007D01000100FD17EDFF59BFE8
:1008F800B7170040930670052380D704130780FAC2
:100908002380E7042394C7000100010001000100CF
:10091800238007042380D7042380E70489463727E8
:10092800004031BFB717004003D587004205418119
:100938009377050491EB9377F5013755E801130593
:1009480005803345F50282809377050C1307000470
:100958006397E7009377F50137459C1CCDB7216570
:10096800130505D08280F947B387F502E146935510
:100978001600130780703E06AE97B375D50233553F
:10098800D502B385E50241677D17798E798DAE97DB
:10099800C2075D8E93057005B71700402380B70422
:1009A800930580FA2380B704C8DB03C717031367CE
:1009B8000708A388E702D0DB03C7170313670704F8
:1009C800A388E702238007048280914763EEB70279
:1009D80017470100130787F18A05BA959C41BA9712
:1009E8008287B717004003A7470B1345F5FF698FA8
:1009F80023AAE70A03A7070B698F23A8E70A03A717
:100A0800070A798D23A0A70A8280B717004083A61A
:100A1800470B1347F5FFF98E23AAD70A83A6070BBE
:100A2800558D23A8A70A83A6070A758F23A0E70A6E
:100A38008280B717004003A7470B498F23AAE70A0C
:100A480003A7070B1345F5FF45BFB717004083A65B
:100A5800470B1347F5FF758F23AAE70A03A7070A71
:100A6800598D4DB7B717004003A7470B498FEDB70E
:100A7800B7F700E0C8439C4782808147373700407A
:100A8800A14663C4C700328582800345B740E38E20
:100A9800A6FE3385F5000345050085072304A74016
:100AA800CDB7411122C406C62A84AD3D2947B307F4
:100AB800E502B2408D83B3D7870222449507B3D7A6
:100AC800E70237370040C207C1832316F7404101C8
:100AD8008280716541111305052006C6D937B737DD
:100AE8000040130770F82381E7400D47A381E740D2
:100AF80013070004A380E74005472387E740B24077
:100B08004101828001A001A001A001A001A001A0D3
:100B180001A001A001A001A001A001A001A001A0C5
:100B280001A001A001A001A001A001A001A001A0B5
:100B3800B717004003C6B70583C6870503C79705DF
:100B480083C5B7051376F60F93F6F60F93E50508F8
:100B5800A38DB704BD45238CB70493051002A38C5D
:100B6800B70483C5A7051377F70F93E51500238D01
:100B7800B70483C5A7058589EDFD03D5C705A38DF2
:100B8800C704238CD704A38CE70482804111939671
:100B98002500AA852D4506C697300020E78020D17C
:100BA800B240014541018280411122C426C24AC097
:100BB8002A842E89B284AA8585660146254506C6FB
:100BC80097300020E780A0CE931629002686A285BC
:100BD800294597300020E78080CDB24022449244D6
:100BE800024901454101828041119397050122C4C0
:100BF80006C6C1872E8463DB0700E92611C1B12E22
:100C08002165218DB24022444101828093F715006D
:100C180013C51500E5FB9397250163DE0700EFC0B8
:100C2800505937F60200130606E0896503C5A1ACE2
:100C3800692D0965F9B7939715010145E3D407FCB8
:100C480017450100130545D0EF20D11F1166130683
:100C580006E8916503C5A1AC8D2D11655DB71D71C1
:100C68004946974501009385A5C917450100130515
:100C780025E486CE612B01E917450100130585C9D6
:100C8800EF20F12D01A0B7F700E07957D8C77D57BD
:100C980098CB856637E700E02320D710130670103D
:100CA80090C32320D7181306C00381454808092399
:100CB800973700209387877B3ECA856793870740CD
:100CC800231CF100ED47A301F102930750102312F2
:100CD800F102CD472303F1029D673ECE970700003E
:100CE800938707EBBEC497070000938727ECBEC61F
:100CF800B5472308F102B7F5070097070000938767
:100D080067D73EDA8146970700009387A7E270000D
:100D1800E10519453EDE97300020E78040B95808C4
:100D28008147994670003E960346060085070507E9
:100D3800A30AC700E398D7FED24791C7035781019A
:100D480085676373F70001A04808EF007046AA851D
:100D580001C917450100130525BDEF20B10E01A0FB
:100D6800F64025618280411117050000130505E84A
:100D780006C622C4EF0010401384A1AC2300A400CF
:100D88003D20034504002244B24037F60200130612
:100D980006E08965410115ABB7170040130700034A
:100DA8002388E702854723A6F1AC73002030411160
:100DB80006C6B7170040130770052380E70413071A
:100DC80080FA2380E70403C7F7025D451306A003F2
:100DD80013677700A387E702238007049305B0030E
:100DE8005936B240014541016F00306889476305B3
:100DF800F50263E6A7008547630AF50082808D4700
:100E08006301F50299476303F502828017450100E3
:100E18001305C5B36F20B11417450100130505B4B8
:100E2800D5BF17450100130565B4EDB71745010097
:100E3800130585B5C5B741119397050122C406C6A8
:100E4800C1872E8463DD070003C58188A52A11C1E7
:100E580029222165218DB24022444101828093F7E5
:100E680015000145EDDB1735002013052533EFF09C
:100E7800C02413451400C5B7011117050000130558
:100E8800C5FB06CE22CCEF00F02E1384818885475F
:100E98002300A4002307F1001306E1008D478545D0
:100EA80013055030A307F100EF0011451306F100B8
:100EB800854513058030EF003144173600201306AE
:100EC800E614C14513057030EF00114317360020B2
:100ED8001306C612B54513056030EF00F1419305BE
:100EE80000050D45EF20A013930500051145EF20DF
:100EF80000130345040085458D2EF24062440561C8
:100F0800828041111305F00406C6FD3037170040F2
:100F18008327870A8D451305002093E7072023249C
:100F2800F70A65347D3617450100130565B8EF20CB
:100F3800110335330D3DEF0071623D3F8125FDBF43
:100F480023AC05FE1C4181E70CC18280BA8703A748
:100F580087FF6DFF23ACB7FE82801DC18346E5FF86
:100F68001307F00F9147639EE600411106C69730BC
:100F78000020E78060DFB24081473E8541018280E2
:100F880095473E85828001E9014582800145B2404E
:100F9800224441018280411122C42A84210542054C
:100FA8009305D004418106C697300020E78040D1E0
:100FB80071DDFD5723200500231285002303F5006A
:100FC8002105F1B7175700201307478A1C43411121
:100FD80022C426C24AC006C601440149BA8489E728
:100FE800A16589291DC401A803C7E7FF631AA702E1
:100FF8000DCCA1659D2C9840832784FF6319E402DA
:10100800175700202324F786FD57232C04FE230FAF
:10101800F4FE2285B2402244924402494101828072
:1010280011E03E8983A787FF5DBF3E84E5BF232C7F
:10103800F9FED9BFB9C9411122C406C62A849757F7
:10104800002083C7F7822E856368F40039370D4581
:10105800B24022444101828083A785FF99E703C7F4
:10106800E5FF9307F00F6305F700C53D1545CDB7BC
:10107800238F85FE174500201305457FD13522852E
:101088002244B240A1654101CDA21545828097470F
:10109800002023AD077C8280975700209387078123
:1010A8009C4399E33E85828003D727006316B700E7
:1010B80003C70700E308A7FEDC47E5B7411193978C
:1010C80005014AC006C622C426C2C1872E8963DE2E
:1010D8000700CD3D11C1513521653345A900B24006
:1010E80022449244024941018280AA860145E5D9F9
:1010F80001443D47B3578940858B85CF97470020EA
:101108009387C77E8443BD4791E28147A2978E07A4
:101118000545BE9433158500131405019C40C8404D
:101128004180829723A0040023A2040033452401B0
:101138007DB70504E310E4FC0144CDBF97470020C8
:10114800938707779C53411122C406C61384818074
:1011580095C7829723A4A1800840B74703009387C7
:10116800D73F3305F502B7A72600938737ECB2407F
:1011780022443E9523A4A180410182809747002004
:101188009387076F18409C4BBA9723A4F180E9B75F
:1011980019C1814799E982803387F50083460700A2
:1011A8003307F50085072300D700E397C7FEE5B7A7
:1011B8002A9609E582800505A30FB5FEE31DC5FE45
:1011C800D5BF81473307F5000307070019E33E85BC
:1011D80082808507C5BF01112E8626CAAA841315E9
:1011E80006019305F004418122CC06CE32C6973021
:1011F8000020E780E0AC2A8401C53246A685493F35
:101208002285F2406244D24405618280814763149A
:10121800F600054582803307F5008507B386F5009B
:101228000347070083C6F6FFE383E6FE0145828095
:101238009307F6FFBE952A966313C5008280FD15B5
:1012480083C715000505A30FF5FEFDB7814711E912
:10125800014582803307F50003470700E31AB7FE0C
:101268008507E319F6FE054582809747002083C766
:1012780037606371F502174700201307E762931779
:10128800150008433E9583570500DD8D2310B500F2
:10129800014582800D4582809747002083C7575DAE
:1012A8006373F502174700201307076093171500AB
:1012B800084393C5F5FF3E9583570500FD8D231020
:1012C800B500014582800D4582809747002083C77D
:1012D800375A6364F50001458280411122C426C251
:1012E8004AC006C62A842E89B2847D3301C504C546
:1012F80005451DA09305F004414597300020E7807F
:10130800209C0DE1974700209387875A9C5B81C7F3
:10131800A285114582970145B24022449244024970
:101328004101828097470020938747589C439DE35B
:101338009747002023ACA75685472326050004C5F8
:101348002311250123008500A300F50023220500B1
:1013580045B7BA87D84775FFC8C7F9BF5DC1797166
:1013680022D426D24AD04ECE52CC56CA5AC862C4CB
:1013780006D65EC63689328AAE89AA840144974A5F
:101388000020938AAA56394C054B9747002083C7FB
:10139800574E6364F4002145A9A003A70A00931BD4
:1013A80034005E971C43B1EB1335F4001345150068
:1013B800B3178B0063768C00930714FFB317FB00F9
:1013C80093950701C1815286093705C983A70A0089
:1013D8000145DE9784C323A2370163040900230073
:1013E8008900B250225492540259F249624AD24AB0
:1013F800424BB24B224C4561828005041374F40FB2
:1014080069B709458280411122C426C24AC006C66E
:10141800AA842E893284553DCA852685B53909C9DD
:1014280040C10145B24022449244024941018280B0
:101438002145CDBF411122C426C24AC006C6AA848E
:101448002E8999392A8419C123110500CA85268550
:10145800A135014511E01945B240224492440249A0
:1014680041018280174700200347B740637DE504A8
:1014780017470020130787471443411126C29314C6
:101488003500A696944222C406C6AA873A8409451E
:1014980095C613B5F7003947134515006373F70070
:1014A800C5178545B395F500C205C18161371C4054
:1014B8000145A69723A0070023A20700B2402244B3
:1014C80092444101828009458280411106C6E9366D
:1014D80009C50845B240410182800145E5BF9747EB
:1014E800002083C71739637FF50497470020938747
:1014F800E73F9C4313173500BA979843894721C79C
:10150800011126CA06CE9334F50022CCB94793C4FC
:10151800140063F3A700451505443314A4004204DE
:1015280041802EC62685A2854D378947324609C592
:10153800A2852685593B8147F2406244D2443E85C4
:101548000561828089473E858280411106C697479A
:10155800002023AFA7380295B2409747002023A365
:10156800A73241018280954763E9B7008A0597470A
:1015780000209387E731BE9588C18280397122DCCB
:10158800174400201304C4304ED606DE26DA4AD8A3
:1015980052D456D25AD05ECEA2891C40A9E3174431
:1015A80000201304E42E974400209384A42F5C4069
:1015B80091C3829783A70900DDE71104E31994FE1C
:1015C800174900201309492E032709001746002050
:1015D8000346162A974400209384842921A88297D9
:1015E8006DBF850793F7F70F974600202382F628EB
:1015F80063FCC7009747002083C787279396170087
:10160800BA9683D60600F1DE9747002083C747269F
:1016180063E6C70697470020238C072483A70900A1
:10162800B9E3974700209387A72C9C438DCF8297D7
:10163800AA8A15C99C48174A0020130A6A27014B31
:10164800AA9717470020232DF722FD571747002098
:101658002326F7229747002093874725804349E0B0
:1016680083274A02EDE7F2506254D2544259B259E4
:10167800225A925A025BF24B2161828086073E977A
:101688009747002093878720835507009C432310A2
:101698000700174500200345A51D13172500BA9715
:1016A8009C4382979747002083C7871C139717008E
:1016B80083270900BA9703D70700598D2390A700FD
:1016C80083C70400850793F7F70F17470020230106
:1016D800F71A174700200347B719E3E1E7F41DBFDE
:1016E8001844814763F4EA00B307574103274A02C5
:1016F8001CC401CBD84463F6E70017470020232F0A
:10170800F71695EB835524008DE15C44631E0B02AC
:1017180017470020232CF718832BC4002285972015
:101728000020E78060645E841DBF03450400353EE9
:101738005C4081CB1CC483572400E1DB228B4044EE
:1017480039BF1C44F9D3C5BF2326FB00F1B70326D4
:1017580009009746002083C6B611814713F7F70F93
:10176800636DD70683A7C900E39F07EE83A7090126
:10177800E39B07EE83A74901E39707EE4800EFB024
:1017880040067D566309C50A92461747002003475D
:101798005713E37AD7ECDC44638FC70403464A0146
:1017A800058A21C65146B387C702E37EF7EA63F389
:1017B800D700BE86B7170040905F32C68C5F3246AE
:1017C800E39CC5FE3245198D3695B707C0A86367F7
:1017D800F502B70740573E9515A0850713971700E0
:1017E80032970357E7FF3DDBBDBD13069002B38771
:1017F800C70285835DBF636AE502198D83274A02A4
:101808002DCD82971375F50FE31F05E417470020C8
:101818000357471E9307707DE317F7E4EFB090670F
:10182800EFC0C045EFB0D0623DBDB707C0A8338751
:10183800E7403A95E1B7DC44E387A7E203474A016A
:10184800058B15C75145B387A702174700200347E3
:101858005707E37AF7E0B7160040905E32C48C5E13
:101868002246E39CC5FE2245198D3E95B9BF130556
:101878009002B387A7028583C9BF3705C0A851B7AF
:10188800411106C622C426C2174400201304841539
:1018980023000400EF00815361468145174500206D
:1018A800130505FF23000400EFF09F907146814562
:1018B800174500201305C5FBEFF09F8F97470020C1
:1018C80023A607FE9747002023A4070217440020F9
:1018D800130404FAF947A301F4009747002083C7CB
:1018E800E7FE13D527008D8B3E958D473305F5020E
:1018F80099479305100297440020938424F93505ED
:101908001375F50F2301A4003305F5021305050F20
:1019180097200020E780C03A9747002023A8A7FC1B
:10192800834734008E073E958347240088C08A0782
:101938003E959747002023A9A7F6EFF04FF5892E8B
:1019480083471400984017F6FFFF130666779396AF
:101958002700BA9690C2938627008507A300D40073
:1019680093F7F70FB24022448A07BA9790C392447C
:10197800410182809747002083C797EF17470020CF
:10198800034727EF63F3E70217470020130707F021
:1019980018439386170017460020A30BD6EC93969E
:1019A8002700369708C33E8582809307F00FE5BF6E
:1019B800411126C2044106C622C44AC08947638C25
:1019C80004124177658FB706002089476315D7123F
:1019D80003594500630109122A8419469305F00F3B
:1019E8005905EFF0BF8605478D476306E5104A861F
:1019F80081452685EFF0CFFB1306C00381451745C7
:101A080000201305E5EAEFF0AFFA1306C003A2853C
:101A1800174500201305C5E9EFF08FF79747002019
:101A280083D7C7E999E793070020174700202317B2
:101A3800F7E89747002083C787E891E78547174766
:101A48000020230EF7E69747002083C757E791E762
:101A5800ED4717470020A304F7E69747002083C700
:101A680027E691E7954717470020230BF7E49747A8
:101A7800002083C7F7E491E7854717470020A301B3
:101A8800F7E49747002083C7C7E391E7CD47174797
:101A980000202308F7E29747002083C747E399E728
:101AA80093078002174700202303F7E29747002097
:101AB80083C7E7E1174700200347B7E0858339E389
:101AC8009387070517470020A30DF7DE8347D40146
:101AD80091E7914717470020A30AF7DE97470020B0
:101AE800938707DD9C5791C78297974700202394D7
:101AF800A7D879338147B2402244924402493E85AF
:101B08004101828003473401BA9793F7F70F5DBF0D
:101B18004111B7170040985F3AC6945F3247E39C7B
:101B2800E6FEB247174700200347C7D9058B3EC0DA
:101B3800824731C313063033B386C702B3B7C7022F
:101B4800B982CA07D58F3EC202C49747002093873F
:101B580027D2D44B9247638DF600924763E5D702AC
:101B68009247958F3EC4924717470020232CF7D001
:101B78002245410182806546B386C702B3B7C702D2
:101B8800A582DE07C1B719E737673D089247958FE9
:101B9800BA97C9BF37876F0813070790C5BF0111E8
:101BA80022CC06CE2A842EC6EFF04FD9B245F24099
:101BB800818D33A5A502229562441375F50F056141
:101BC8008280011122CC06CE2A842EC6EFF00FD7D0
:101BD800B245F240818D33A5A502229562444205A3
:101BE800418105618280011122CC06CE2A842EC64D
:101BF800EFF0CFD4B245F240818D33B5A5022295DE
:101C080062440561828097470020938767CA985786
:101C180021CF411122C426C206C6BE8402971747A7
:101C28000020035747C52A841DCBBA876373A700D2
:101C3800AA87C207C183BA866373E400A286C20674
:101C4800C182958F1307C003635BF700DC5491C30F
:101C58008297EFB0105697470020239E87C0B24066
:101C680022449244410182808280974700209387D2
:101C780027C4DC57411106C691C382971705000097
:101C8800130545E9EFF07F8CB240014541018280A0
:101C9800011122CC17440020130484C1084406CE45
:101CA80026CA19E50545F2406244D244056182809E
:101CB8005C58EDDB185C7DD7700085458297184429
:101CC800B247E301F7FE8357C400174500200345D8
:101CD80005BF9305E0043305F5029744002093847B
:101CE80024B94205418197200020E78060FD17470D
:101CF8000020232BA7B85DD59747002083D707BCC2
:101D0800174600200346A6BB3306F6029305F00FDC
:101D1800EFF00FCA904C08449747002083D707BAC2
:101D280008C29745002083C585B9B385F5021C5CB8
:101D380089818297884C97200020E780E00201453E
:101D48009747002023A207B4B9BF411122C4174402
:101D580000201304E4B51C4426C206C6974400209C
:101D6800938404B1ADCB1C5CBDC79C4C8DE78357F5
:101D7800C40017450020034585B49305E0043305E6
:101D8800F5024205418197200020E78060F39747DC
:101D9800002023ABA7AE884C1DCD9747002083D7E2
:101DA800E7B117460020034686B13306F6029305CD
:101DB800F00FEFF0EFBF904C08449747002083D70F
:101DC800E7AF08C29745002083C565AFB385F50224
:101DD8001C5C89818297884C09C997200020E7807C
:101DE800A0F89747002023A107AAB24022449244B2
:101DF800014541018280011126CA9744002093843D
:101E080024A722CC804C4EC652C456C206CE4AC81D
:101E1800AA8AAE89328A31EC17490020130949A9E8
:101E28008327890099E3A94461A08357C90017450E
:101E380000200345C5A89305E0043305F5024205D3
:101E4800418197200020E780A0E72A8451C1832799
:101E58004903BDCF9745002083C565A617470020D5
:101E68000357C7A5B385E5022A860325890089811A
:101E7800829791451307A005898193972500A2971A
:101E880083C607006393E60483C61700639C560362
:101E980085058A054E86A2955285EFF06FAF9C4C5A
:101EA800814463878700228597200020E780C0EB64
:101EB800F240624426854249D244B249224A924AB3
:101EC8000561828083D5270045BF9C4CE38D87F44C
:101ED800228597200020E78020E9B1B797470020A6
:101EE8009387079D984729CB9C5FB9C7854663159B
:101EF800D504411122C41744002013046497104CE0
:101F080006C61DC69746002083D6469B97450020E7
:101F180083C5E59AB385D5023A8589818297084CAD
:101F280097200020E78040E49747002023AE0794DD
:101F3800B2402244410182808280974700209387E3
:101F48002793984F011122CC26CA4AC852C406CEFC
:101F58004EC62A89AE8432843E8A35E797490020E6
:101F68009389099583D7C90017450020034525950E
:101F78009305E0043305F5024205418197200020CE
:101F8800E78000D49747002023A0A7902A8611E96C
:101F98002945F2406244D2444249B249224A056185
:101FA800828003A5890005C183A7490389CF974586
:101FB800002083C5C5901747002003572790B38595
:101FC800E5028981829703258A0191461308A005B5
:101FD800FD5593D72600C207C183139727002A9778
:101FE80003460700631906038348170003562700B2
:101FF80063912803B306D64063CB960085078A070A
:102008003E952686A285EFF0AF98014559B7A30003
:10201800B700B2867DBF174600200356268A97452B
:10202800002083C5C589B385C5023386960011068D
:10203800E3E0C5F613863400719A1106B2962300C0
:102048000701A30027012311D7004DBF0145828056
:10205800011106CE2EC6EF60606B01C9B245F24091
:102068000355250005616F90B017F2404945056199
:102078008280A38A018A238A018A23AE018823A049
:10208800018A23A2018A23A4018A23AC018823AAF6
:102098000188974700209387E78793060005130771
:1020A800400B2391E7002397D70011672398D700A7
:1020B8009306007D2392E700239DD7001307000AAB
:1020C800BD462393E7002394E7002391D7024147B5
:1020D800F1762395E7002396E7002399E700239AF2
:1020E800E700239BE700239CE700938606B8239428
:1020F800E70205472392D7022395E7029D46130777
:1021080010F82396E70223900700239E0700239FD9
:102118000700239007022393D702239707027D57CE
:10212800239807022399E7028280011126CAAA840C
:10213800214522CC06CE2E8432C636C43AC2EFE000
:102148009FE41DC9A24612473246930700FD2300AB
:10215800F5009947A30095002301F5002303D50056
:10216800A303E5002312C500AA8522856244F24034
:10217800D24405616FE01FECF2406244D24405612D
:10218800828023AEA188828023A0A18A828023A294
:10219800A18A828023A4A18A8280011122CC4AC804
:1021A80006CE26CA2A890144B30489006368B400AC
:1021B800F2406244D2444249056182802EC6EFE073
:1021C800FFF793170501C183A183B2452380F4006B
:1021D8009307140093F7F70F850463F9B700CA97BC
:1021E80009042380A7001374F40F7DBF3E847DBFCC
:1021F800C1671735002003554570FD176304F502C4
:102208004111173600200346E67C9385C18A06C62D
:10221800EF604038B240FD5717370020231FF76C96
:1022280041018280828009C925151375F50F133580
:10223800850E1345150082800145828023800500A4
:10224800F94763E2C708797122D426D24ECE56CA1E
:102258005AC806D64AD052CC5EC63684B289AE8AEF
:102268002A8B814463FF3405B307940003CA07002F
:10227800138914001379F90F63050A04B3072A01B7
:1022880063C1F904B307240183CB07005E85613F6E
:102298000DC99307FAFF2380FA0063906B031305B7
:1022A80019002295B250225492540259F249624AB6
:1022B800D24A424BB24B45618280D29493F4F40FD8
:1022C80055B70145C5B701458280411126C2AE8484
:1022D80022C49737002023A9C7629737002023A379
:1022E800B7629737002023ADA7602A84414693053B
:1022F800F00F26854AC006C60549EFE03FF5631E84
:102308002503973700209387E75E884BC1457135D1
:1023180041469305F00F2285EFE05FF3854463168D
:1023280095022244973700209387C75CB2409244B5
:102338000249C847C14541018DB5414681452685B9
:10234800EFE0DFF0E31625FD6DBF414681452285AC
:10235800EFE0DFEFE30795FCB240224492440249E4
:1023680041018280411122C426C22E84AA84130608
:1023780000028145173500201305C55706C6EFE052
:102388003FE397370020A388975697370020A38408
:102398008764EF906066854719C181474945B24017
:1023A8002244173700202307F754924441018280C2
:1023B800814781CD19C98547631BF50083C755003F
:1023C80093E707FCA382F50085473E85828089470D
:1023D8006317F50083C7550093F7F703E5B70D4773
:1023E8008547E314E5FE03C755001377F703136722
:1023F8000704A382E500D1BF81478DC105C103C78A
:1024080055009306000C85471377070C6308D7001F
:10241800930600048D476303D70089473E85828071
:10242800411122C4005D06C626C21DC8AA840850F0
:1024380009C597200020E7802093485009C59720B8
:102448000020E7806092085409C597200020E780A3
:10245800A091228597200020E780009123AC0402F8
:10246800B240224492444101828009ED973700200E
:1024780083C76748173500201305454981CB138565
:10248800C18882801735002013054548828017359A
:10249800002003454546828097370020938787456B
:1024A800C8478280973700209387C744884B82802B
:1024B8009737002093870744DC4B884382809737FF
:1024C800002093872743D84B1C4385071CC3173527
:1024D8000020034555429307F00F6305F500916509
:1024E8006FE0BFD88280011122CC06CE2E8432C67E
:1024F800EF6040329147B245631FF5009387818AA8
:102508009C438DC303A30700630E03002285624426
:10251800F240056102839387018A9C4381C703A324
:102528004700DDB7F240624405450561828001112C
:1025380022CC2A840355450006CE26CA4AC84EC670
:10254800EF60C0132DC52A89834405008349C5005F
:10255800C13D4A85EF70A00003554400EF60002795
:1025680083C7418BA9CB6398970483C5518B268574
:10257800C53419E1238A018A03554400EF60802994
:102588009147631FF500035744009737002083D70E
:10259800C7366317F700FD5717370020231FF73496
:1025A800F2406244D2444249B2490561828081497D
:1025B8009304F00F75B79307F00FE38FF4FA83468F
:1025C800640003564400034524004E87A685B13EA7
:1025D80065B779715EC6AA8B2E8552CC56CA5AC881
:1025E80006D622D426D24AD04ECEAE8A328B368A2E
:1025F800EF60C00869C9045D2A89F1C49C5061452F
:1026080099C3130540039C5481C751054205418174
:1026180063050A00710542054181DC5081C75905EF
:1026280042054181EFE03F962A8451CD61468145BC
:10263800EFE01FB89739002083C9C93063940900B7
:1026480083490900930700FD2300F400A947A3006C
:1026580074012301F400230364018C5023125401F4
:102668001305840181C908C47146930A4403EFE045
:102678003FB256858C5481C948C45146930A4501D6
:10268800EFE01FB15685630A0A0008C87146D28573
:10269800930AC501EFE0DFAF5685CC5089C548C81D
:1026A8005946EFE0FFAEA2854E85EFE0BF98225471
:1026B800B2509254F249624AD24A424BB24B4A85CE
:1026C80002594561B1BBB250225492540259F249A1
:1026D800624AD24A424BB24B4561828001114EC6D2
:1026E800AA892E854AC806CE22CC26CA2E89EF5042
:1026F800F07831C59734002083C4C42499E083441A
:1027080005001945EFE03F882A8415C98145194617
:10271800EFE01FAA930700FD2300F400B947A300C8
:1027280034012301F40023122401A2856244F240FB
:102738004249B2492685D24405616FE0BF8FF24015
:102748006244D2444249B2490561828039715ECE01
:10275800AA8B2E8526DA4ED652D456D25AD006DE09
:1027680022DC4AD8AE84328BB68A3A8ABE8942C6FF
:10277800EF50D07031C92A894145EFE0DF802A84C3
:1027880021C541468145EFE0BFA21735002003452A
:10279800651B19E103450900930700FD2300F400B8
:1027A800BD472301F400B247A3007401231294002B
:1027B80023046401A304540123054401A30534013F
:1027C8005CC4A285EFE01F87F2506254D25442598C
:1027D800B259225A925A025BF24B21618280797176
:1027E80026D2AA8439454AD04ECE06D622D42EC641
:1027F800B2893689EFE02FF915CDB2459307000D60
:102808002310F500B1472A842312B5002301F500EF
:10281800CE8519051946EFE0BF9723062401A28546
:102828002254B2500259F24913F5F40F92544561FB
:102838006FE05F80B250225492540259F2494561C8
:102848008280173700200347170B9307F00F630B9D
:10285800F706411126C2AA84394522C406C64AC0D1
:10286800EFE06FF22A8429C9930700FD2300F500E1
:10287800A3009500230105009735002093850509DD
:102888000D051946EFE0DF90173900201309890676
:1028980083578900A285173500200345D5052315E0
:1028A800F400834719002306F4002244B2409244FE
:1028B800024941016FE00FF8B240224492440249B4
:1028C800410182808280011156C2AA8A314526CAF6
:1028D8004AC84EC652C406CE22CCAE84328AB689C5
:1028E8003A89EFE04FEA29C92A842685EF50105922
:1028F8001DCD03450500930700FD2300F4009D4707
:10290800A30054012301F40023129400231344016B
:102918002314340123152401A2856244F240D244D1
:102928004249B249224A924A05616FE0AFF0173531
:102938000020034555FCC1B7F2406244D2444249E5
:10294800B249224A924A05618280397162CC2A8C46
:10295800594526DA4AD84ED652D456D25AD05ECEE7
:1029680006DE22DCAE8432C636C4BA8B3E8BC28AFF
:10297800468A8359010403494104EFE0CFE025C5A5
:102988003246930700FDA2462300F5009547A301B0
:10299800C500A30085012301F5002A841946110505
:1029A8009DCEB685EFE0CFFE23066401230A2401FD
:1029B80023157401231754012318440123193401E2
:1029C800A2856254F2504259B259225A925A025B75
:1029D800F24B624C2685D25421616FE0AFE5814508
:1029E800EFE00FFDD1B7F2506254D2544259B259B8
:1029F800225A925A025BF24B624C216182809737CD
:102A0800002083C747EF9DC74111AA851946138542
:102A1800C18806C6EFE0CFF79385C1881735002037
:102A2800034565EDEFF0DF98B2401385C188410199
:102A38006F80107D01458280411106C622C426C2DE
:102A480017370020034737EB9307F00F6306F704A7
:102A5800AA842945EFE02FD32A841DCD930700FDD2
:102A68002300F500A1472301F500A300950097373F
:102A78000020938727E883C727009385C18811051D
:102A8800A30FF5FE1946EFE0AFF0A2851735002039
:102A9800034575E6EFE00FDA173700200347C7E56F
:102AA80085476317F7029387418A9C4381C79C47F0
:102AB80091C382972244B24092445D661735002044
:102AC800034545F113060670914541016FE0BF9338
:102AD800B2402244924441018280797122D406D6C0
:102AE80026D24AD04ECE52CC09444DC92A89035524
:102AF80005002E8A5144EF507038AA8445C1973793
:102B0800002083C757EDFD1793F7F70F0547494492
:102B18006376F7080347C500A1476314F700631FEE
:102B28000A069C5C4544BDEB930570041305C0027E
:102B380097100020E780C01888DCAA894D4439CD59
:102B48001306C0028145EFE0AFE68357090093867C
:102B5800490036852391F90071469305490036C628
:102B6800EFE00FE389472380F90003C5C400B246AC
:102B78000356090061159735002083C5A5E513356F
:102B88001500EF8080302A8463060A00D2852685E6
:102B9800EF60504801C42685EFF09F882285B25027
:102BA800225492540259F249624A45618280973709
:102BB800002083C757E2FD1793F7F70F054763789F
:102BC800F708894751C6011122CC26CA4AC84EC601
:102BD80052C406CEAA89368AB2842E89EF50102AAA
:102BE8002A84D14729C9485509C597100020E7808C
:102BF800A017F1452685EFE00FDE48D4CD4705CD77
:102C08008346C40021478147639FE600630D0A009D
:102C18000347A5010356050193062501AA854E859C
:102C2800EF60E036AA8703474400630F0900136783
:102C380067002302E400F2406244D2444249B249A8
:102C4800224A3E850561828013674700DDB7C94780
:102C58003E858280E14763EBA70097370020938782
:102C680067CB06053E9503550500828041657D15B5
:102C78008280011122CC2A842E8526CA06CEAE84F3
:102C8800EF50D01F0DCDB7470F009387F7230945A5
:102C980063E2870281450A854146EFE06FD1A68548
:102CA800231081000A85418023018100A3010100CE
:102CB800EF70D07FF2406244D2440561828049457A
:102CC800D5BF97370020A387A7D082806F80A01434
:102CD800797152CC2A8A328522D426D24AD04ECE55
:102CE80056CA5AC85EC606D662C4AE8BB28A368B3E
:102CF800BA843E89C2894684EF50501815C92A8C77
:102D080063140A0213774B008347450015CF93E7F6
:102D180027012302FC008DEC631C0902639A090257
:102D280005E8ED9B2302FC00832B8C03639D0B06B7
:102D3800B250225492540259F249624AD24A424B42
:102D4800B24B224C45618280F59B93E70701D1B7CE
:102D580093E747002302FC0011C81C484146A2859E
:102D68002324FC0213058C01EFE08FC263910B0250
:102D7800C5DC0325CC0209C597100020E780C0FEFA
:102D8800F1452685EFE02FC52326AC0271BFE30D80
:102D980009F80325CC0209C597100020E780C0FC7C
:102DA800F1454A85C5B785C483A70B0291EB930506
:102DB8007004714597100020E78080F023A0AB02D3
:102DC80003A50B0209C57146A685EFE06FBC6385B4
:102DD800090283A74B0291EB93057004594597109C
:102DE8000020E780E0ED23A2AB0203A54B0209C552
:102DF8005946CE85EFE0CFB905C483A78B0291EB86
:102E080093057004514597100020E78060EB23A4D8
:102E1800AB0203A58B0209C55146A285EFE04FB767
:102E28002254B2509254F249B24B224CCA865A8666
:102E38000259424BD6855285D24A624A45616FF0A3
:102E48004FF9011126CA52C406CE22CC4AC84EC632
:102E58002A8AAE84EF50900235C1AA893945EFE03D
:102E68008F922A8421CD173900200349A9AD631414
:102E7800090003C909009307000D2310F400AD47AA
:102E88002301F40093856900130534001946EFE027
:102E98002FB093F71400858085882306F400A306D5
:102EA800940023154401A2856244F240D244B249F9
:102EB800224A4A85424905616FE0CF97F240624451
:102EC800D2444249B249224A0561828093874189A6
:102ED800884301CD411106C697100020E780C0E85D
:102EE800B24023AA0188410182808280011106CE66
:102EF80022CC26CA4AC82EC6EF50407829CDB24502
:102F080017390020034909A4AA840CD563140900C1
:102F1800034905004145EFE00F872A840DCD93074B
:102F2800000D2310F500A5472301F50083C75400C1
:102F3800938564001105A30FF5FE1946EFE04FA530
:102F48009C54A285F2405CC46244D2444A854249FA
:102F580005616FE02F8EF2406244D2444249056118
:102F68008280797122D406D62A842EC6EF50007149
:102F780001CDB2452285230EB1006C08EF60100622
:102F8800B2502254456182805145DDBF6F50807D2B
:102F9800C1671387E7FF6394E5029387018A9C431F
:102FA80091EB494582804945B24022449244024906
:102FB8004101828003A30700E30503FE0283411158
:102FC80022C426C24AC006C6FD172A892E84B284A6
:102FD8006395F5029387018A9C4391CB9C4381CBEF
:102FE800829711E5238A218BA38A918A75BFA685CA
:102FF8004A85EFF0EF854DF9F5B72E85EF5000685B
:103008005DD1834705000D45E39027FB22852244C7
:10301800B2400249A685924441016F80701CE14785
:1030280063E8A70441677D1789476384E504411174
:1030380022C426C206C6C547AE842A84631AF50090
:103048001305C0033385A50242054181EF80D020D6
:1030580013151400173400201304C48B2295B240B2
:10306800224423109500814792443E854101828085
:1030780089473E858280011106CE2AC6EFE07FFF90
:10308800EF00107CEF008071EFE0900F324597372A
:10309800002093872786130700F02391E7002382F7
:1030A80007007D57973700209387C792A380E700D2
:1030B8002380A700F240954505616F30F07B5D7174
:1030C80093970501CAC086C6A2C4A6C24EDE52DCCA
:1030D80056DA5AD85ED662D466D26AD0C1872E89AB
:1030E80063D1074A173500200345C58EEFD09FED01
:1030F8008964416A856A797B2A84938BD4007D1A16
:10310800A50A691B15E021653345A900B640264488
:1031180096440649F259625AD25A425BB25B225C23
:10312800925C025D61618280834704001307200A74
:10313800639DE70003552400172C0020034CBC7B3B
:103148002286D285EFF02FBA89A213071009173CFF
:103158000020034C3C886397E71683471400154703
:103168006390E7022285EFF08FBC2285EFD0FFDE67
:103178001735002003450586EFD0DFE42A8459B7C8
:1031880039476397E71603554400631955050C44FE
:1031980083C90500639B0900850581C91946172560
:1031A80000201305A576EFD0BFFE172700200347A0
:1031B800677485476318F710638A0900972700200A
:1031C800238A07724E85EFF0CFE745B7894717275F
:1031D80000202301F772EF80700241BF938724001B
:1031E800631AF50683298400638E090C83C70900D6
:1031F8008DE383C7290003C71900A207D98F1727B2
:103208000020231DF76E83C7390017270020A3036A
:10321800F76E172700200347E76D89476314F70AFD
:1032280083C7090081CB972700202385076C03C536
:10323800090051BF8D479725002083C5B56B172519
:1032480000200355A56B172700202305F76AEF30E8
:10325800B065F1BF938754006318F5001C4403C59B
:103268000700EFF06FFD11B7B3076501C207C1830F
:103278001147636FF7009387418A9C43E38707EE02
:103288009C43E38407EE22858297E31005EE1DA890
:103298009387B400631FF5009387C1899C43E38635
:1032A80007EC9C43E38307ECA2851385B40082975F
:1032B800E9BF9387C4006310F5021C4483C7070065
:1032C800E38507EA9307F00FE301FCEAA28562852C
:1032D800EFD05FD671BD9387E400E315F5FE9387C1
:1032E800018A9C43E38307E8DC43A285E9F3B5BD83
:1032F8003D476397E70403554400E30275FF93874E
:103308009401E30EF5FC93873401E31DF5FA972742
:10331800002083D7875E639E47019387018A9C4379
:10332800E38507E4DC43E38207E4A28513853401DF
:10333800BDBF9387818A9C43E38907E29C43E5B735
:103348001307E003E390E7F88347240005476396F3
:10335800E70E83476400138D4189F1E383270D004D
:10336800D5CB03CC0700A14903457400930C840016
:10337800E685EFF06F8883474401A303A4008358D0
:1033880004010358E400035744002A860345340027
:103398003EC283572401E686E2853EC0CE87EFF021
:1033A800CFDA8347340095E7DD4783580401035893
:1033B800E40083467400835544003EC283572401C9
:1033C8003EC06687CE8705466285EF504057A30109
:1033D800A40083270D0081C71145EFF03FAF03C557
:1033E800418BE30405D883C5518BEFE07FC6E30E1C
:1033F80005D68346340093071003638AF600035604
:1034080044004E8783C5418B3685EFE01FD2238A5F
:10341800018AA1BB172C0020034CFC4DA9B7938748
:10342800418A9C43172C0020034CFC4C91498DDFAA
:10343800DC439DDB0145829705BF2947639DE7086B
:1034480083476400138D4189ADEB83270D00ADC31D
:1034580003CC0700A14903457400930C4401E68599
:10346800EFE09FF983470402A303A4008358C40133
:103478000358A401035744002A86034534003EC27A
:103488008357E401E686E2853EC0CE87EFF0EFCBB6
:10349800834734009DFFDD478358C4010358A401C6
:1034A80083467400835544003EC28357E40109BF34
:1034B800172C0020034C3C4471BF9387418A9C43DE
:1034C800172C0020034C3C439149D1D7DC43C1D78A
:1034D8000145829749B70947639DE7009387C189EA
:1034E8009C43E38407C8DC43E38107C822858297AD
:1034F800ADB92D476399E7009387C1899C43E3865B
:1035080007C69C47D5B70D476397E70022868D45C8
:103518000355440005B91947E396E7DA93056101B5
:1035280013051031EFE0204E2C0813052031EFE091
:10353800804D03566400835781010355440063E8B6
:10354800C700835684000357610163F7E6009305BB
:103558000002EF80604F11B96374E6002313E400A2
:1035680063F4D7002314F4000357C4008356A4005F
:10357800035684008355640001488147EF80804CDE
:10358800EDB693F7150081CF9387C1899C4389C70E
:10359800DC4399C3014582971345190085BE93F70B
:1035A800250081CF9387418A9C4389C7DC4399C30F
:1035B800054582971345290091BE93F745000145BB
:1035C800E38607B49727002083C71733B5C7FD17CD
:1035D80093F7F70F17270020A300F732B1EF93876F
:1035E80081899C4391CF8547172700202306F73010
:1035F8009387418A9C4389C7DC4399C305458297D1
:10360800972700209387072FC8472C08EF70E052B0
:103618002808EFF0CFBE972700209387A72F83D7DE
:1036280027029145172500200345C53A1727002092
:10363800A304F72CEFD01FE013454900C1BC41118A
:1036480022C42A84554506C6EFF0CFE0B335A00062
:1036580022852244B24041016F80C03B797122D457
:1036680006D68D472E84631FF50003D7A50083D6A1
:10367800850003D665000345340083D54500EFF087
:103688008FA409A889671387D7006310E50403C5C9
:10369800250019E58547B25022543E854561828050
:1036A800938741899443FDD603C6360083C5060037
:1036B800814802C202C00148814701479106EFF0E4
:1036C800CFA80545EFF09F80F1B71387E700631493
:1036D800E5000945C5BF13873701631AE50003C52F
:1036E80025004DD9014781460146814549BFE50777
:1036F800E302F5FA41677D178147E31EE5F803C742
:103708005500C947E318F7F883D6E50003D6C50086
:103718000355840083D5A500EF80803421C15D4521
:10372800EFF04FD33335A000231EA100834544009A
:10373800035524007008EF4050678357C101B9FB57
:103748000357E4008356C4000356A400835584003D
:10375800035524000148EF80E02C2DBF8547231E28
:10376800F100E9B7C1671387E7FF639DE500938719
:1037780041899C4395C383C707000D47639CA700F5
:103788006F808029FD1749476396F5009387418923
:103798009C43FDF73A8582804947EDBF238B018A18
:1037A80023AE018A23AC018A972700209387C71983
:1037B800170700001307272498C3170700001307EB
:1037C8004727D8C3170700001307475798C79727F5
:1037D800002093872718170700001307E7F898C3F6
:1037E800170700001307C7E7D8C38280011122CC4E
:1037F8001384C18B1C4006CE26CA4AC84EC652C482
:1038080099CF2E8AAA840149084063129902630C51
:103818000A0497000020E780205523AE018AF24071
:103828006244D2444249B249224A056182809319CE
:103838004900B3073501884709C997000020E78088
:10384800A0521C40CE9723A407001C40CE97C8471F
:1038580009C997000020E78020511C40BE9923A683
:103868000900050955B745DD139644008145EFD099
:103878003F94144081477D5613F7F70FE37197FA89
:103888001397470036972300C7008507F5B701113E
:1038980052C4138A818B83270A0006CE22CC26CAFB
:1038A8004AC84EC656C25AC0C9CF2A89014419ED22
:1038B8009387C18B944399CA03C6618B2A84814735
:1038C8009305F00F13F7F70F6367C7081315340054
:1038D8002105EFD04FEBAA8401E92145EFD0AFEAEB
:1038E800AA8421C501444D49930700FD2380F400B3
:1038F8008547A38024012381F400A38184004DC45B
:103908001389840023A224018149938AC18B130B54
:10391800F00F83C7618B63F3F90031E883270A004E
:10392800A68503C50700EFD0EFF0814503C5618B7D
:10393800753D03250A0097000020E780E04223AC8C
:10394800018AF2406244D2444249B249224A924A28
:10395800024B05618280139747003697034707009B
:103968006305B70005041374F40F8507A1BF83A787
:103978000A0093954900BE9583C7050063826703D3
:103988002300F90083C71500130529007D14A3003F
:10399800F900194689051374F40FEFD06FFF210958
:1039A800850993F9F90FB5B723A2040085BF411122
:1039B80022C406C62A8405E10945EFF0AFA92A8684
:1039C8008545172500200345E500EFD01F900545E4
:1039D800BD312A8411C9854517250020034585FF77
:1039E800EFD05FA522856535B240224405454101E7
:1039F800828089671387B700631AE5009387818BF4
:103A08009C439DC39C4503C5070055B71387C70052
:103A18008147631CE5009C4503C50700854711C520
:103A28009387818B9C43F5F381473E8582801D7186
:103A380086CEA2CCA6CACAC8CEC6D2C4D6C2DAC05E
:103A48005EDE62DC66DA6AD86ED6630D05248347CB
:103A580035002A8A8DCB40411DC45945EFF08F9F10
:103A680093178501E1873EC40149938A818B938925
:103A7800C18B930C000D354D054B930BF00F83470D
:103A88003A006361F902F6406644D6444649B649AD
:103A9800264A964A064BF25B625CD25C425DB25D96
:103AA8002561828083078402224763C1E72883A7B0
:103AB8000A00A5CB83470400638A6707034684008E
:103AC800930694009305F1010545EFE02FF7814730
:103AD80019C1834705008346040011476380E60245
:103AE80003A70A008D46034717006309D70099C743
:103AF80011C705C9631F67038D8B85C7034514006C
:103B0800130C2400E285EFE03F8FA300A40083A7F5
:103B18000900AA84814D95E703460400914763187C
:103B2800F60C83A7090063930720CDAA81470145B6
:103B38005DB78946E317D7FE858BC1B7850D93FD21
:103B4800FD0F83C7618B03A50900E3F7FDFC93977D
:103B58004D003E9503470500E30277FF0347150034
:103B6800E31E97FC1946E28509053EC6EFD00FEA29
:103B7800B24769D583A4090003470400BE94C9DC91
:103B88009147631AF708C84405C58347840003466C
:103B980005006304F608034704009147631CF7080F
:103BA800C84419C597000020E780001C23A604001C
:103BB800034584009145050597000020E7804010E3
:103BC80015C1034704009147631FF706C8C483471C
:103BD8008400930594000505A30FF5FE03468400B1
:103BE800EFD00FDB83478400639607121DBF83A7BE
:103BF800090085DB83C5618B0147E304B7F2BE8406
:103C0800C10703C507FF630A750B05071377F70F8D
:103C1800EDB788C4F1A8884485BF930594000505CD
:103C2800EFD0CFDEE31965F75545EFF0AF826303B8
:103C3800050EC5BD88442DDD97000020E780C01221
:103C480023A40400B5B788C459B7231095012301EC
:103C5800A50183470400194693052400A301F50034
:103C68008307840215052303F50083471400A30F77
:103C7800F5FEEFD0EFD1034684002386C40005C2C9
:103C88001385440188C893059400EFD06FD083A7AB
:103C98000A00A68503C50700EFD0CFB941A823A81D
:103CA8000400F5B79387818B9C43E38E07DCEFF024
:103CB8001FBE0145EFF0BF98F9B32380C4008347C6
:103CC8001400E28513852400A380F4001946EFD080
:103CD8002FCC034584008D45050597000020E7801B
:103CE80020FE15C1034704009147E314F7F2C8C446
:103CF80083478400930594000505A30FF5FE03464A
:103D08008400EFD0EFC88347840089E78347040025
:103D1800E39967E183A70A00E38507E00345840088
:103D28005105EFD04FA6AA84E31105F20509130443
:103D380094021379F90FA1B3797106D622D426D249
:103D48004AD04ECE52CC56CA5AC85EC655CD8347C5
:103D58003500AA8985C7444195C05945EFE09FEFD2
:103D6800931A850193DA8A410149138A818B130BCF
:103D780000FDC14B83C73900636DF900B25022546E
:103D880092540259F249624AD24A424BB24B4561B7
:103D980082808387F40063C4570783270A00A5C37A
:103DA8005145EFD04F9E2A8439C923006501A300ED
:103DB80005002301750183C7040019469385240073
:103DC800A301F5008387F4001505A306F50083C752
:103DD8001400A30FF5FEEFD0AFBB83C78400938513
:103DE80094001305C400A305F4001946EFD04FBA98
:103DF80083270A00A28503C50700EFD0AFA30509F2
:103E0800C1041379F90FBDB79387818B9C43BDD744
:103E1800EFF0FFA72254B25092540259F249624A75
:103E2800D24A424BB24B014545616FF05F819727FB
:103E3800002083C757BAA18B17250020130585B129
:103E480091E301456FE04FB4411122C485452A84AE
:103E580003C5618B06C6EFF07F999727002083C7BB
:103E680097B7A98BB5C7172500201305E5AD238B98
:103E7800818AEFE00FB11384C18B1C4091C74D4577
:103E8800B24022444101828003C5618B19E101459A
:103E9800C5BF9D45120597000020E78060E223AE6C
:103EA800A18A71DD03C6618B12068145EFD04FB040
:103EB800104083C6618B8147FD5513F7F70FE378F0
:103EC800D7FC1397470032972300B7008507F5B74B
:103ED8000145238B018AEFE0CFAA55BF93878189DB
:103EE800884301CD411106C697000020E780C0E74E
:103EF800B24023AC0188410182808280011122CC2A
:103F080006CE8D472E846316F50603C73500E947AC
:103F180003D545006318F7009727002083D7E79D4E
:103F28006385A706EF40807509C58357640023178A
:103F3800F5000357A4008356840003566400835594
:103F4800440003453400EFE01F98035744009727C7
:103F5800002083D7879A6308F7008547F2406244B8
:103F68003E8505618280FD57172700202317F798A3
:103F7800EDB78967CD07631DF50083C72500314775
:103F88006385E7004547E39AE7FCEFE06FA6F1B7E2
:103F980041677D178147E313E5FC83C65500494710
:103FA800E39EE6FA83C54500035524003000231438
:103FB8000100EF40605A55B7797122D41384818982
:103FC8001C4006D626D24AD00545ADC70D45EFE0C0
:103FD8007FC8AA841145EFE0FFC72A899305F1013C
:103FE8001305F041EFC050550347F1019727002012
:103FF80083C76790B336F00019C70D4789466384B5
:10400800E700B336F0001C4036C603C53700938579
:104018004700EFE0EFB91040B2462A878348B60060
:104028000348A6009307460003462600CA8526854E
:10403800EF70501DB250225492540259456182804B
:10404800FD572386F1802390018C23A4018C23A69D
:10405800018C23A8018C9387019817070000130788
:10406800A70798C31707000013070736D8C3170711
:1040780000001307A7F498C797070000938747E83D
:1040880023A2F18C8280411126C2938481899C40AD
:1040980006C622C49DCB2A840D45EFC0DFEEAA8553
:1040A80019CD930700FD2300F5008D47A300850077
:1040B8002301F5009C4003C50700EFC0BFF711C4FA
:1040C8002244B2409244410111BDB240224492447C
:1040D80041018280797122D403544500896706D64C
:1040E80026D24AD04ECE52CC13876700631EE40214
:1040F800938781899C43814489CF184503450700EC
:1041080015E10547A380E7000545EF70701019E930
:104118008544B2502254268502599254F249624A83
:10412800456182808D37EDB71387970063658704F3
:1041380003C7C1809307F00FE30CF7FC1C4511453A
:1041480083C40700EFC03FE4AA8579D1930700FD37
:104158002300F50089472301F500F977E1173E941C
:1041680013341400A3009500A301850003C5C18082
:10417800EFC05FEC71BFA9078144E31CF4F8138911
:104188008189832709004A8AC9D7184583C417003B
:10419800854783490700638DF4029717002083C77A
:1041A800A775BDF70D45EFC01FDEAA8505C19307AA
:1041B80000FD2300F5009147A30035012301F50018
:1041C8008327090003C50700EFC0DFE6013B89B775
:1041D8009387818C9C4385E30145EFE0BFA72A863E
:1041E80001CA8945171500200345C57EEFD0EF8D1C
:1041F80083270A00B9A003C6070093861700930512
:10420800F1000545EFE08F8361D983470500858B71
:10421800E1D70545EFE01FA49307B0032A8463FFA5
:10422800A7025D6613060670894517150020034529
:10423800657A130444FCEFD00F9D2390818C83276B
:1042480009000947A380E7009717002083C7C76ABA
:1042580099CB971700202381076A65BD1306006470
:104268003306C502B5BF4E85393D65B5938781894B
:104278009C43011122CC06CE26CA4AC8454489EB84
:104288009717002083C7377513F7570009EB494480
:104298002285F2406244D2444249056182801387F4
:1042A800818C184341446DD70347070075D3858B2C
:1042B800AE842A89D9C783C704000547F91793F73D
:1042C800F70FE366F7FC930570043145970000206B
:1042D800E780009F23ACA1884D445DD923002501C8
:1042E800A30005002946A6850905EFC07FEA171730
:1042F8000020034747608D47631DF704EFE0CF991F
:104308002C00EF6090032800EFE06FEF85474545EC
:10431800171700202302F75EEFE0DF931375F50F00
:1043280097170020A38AA75C01443DD15D66130658
:1043380006709145171500200345C569EFD0AF8C6D
:1043480081BFEFE0BFC42A84EF402045E375A4F69F
:104358009DBFEFF07FC62A8405DDEFF03FB80DBFA3
:10436800411126C2938481899C4006C622C4A1C7F4
:1043780083C707000D446391A704894517150020DA
:1043880003454565EFD00F8B914517150020034570
:1043980065642390018CEFD0EF8997170020A38DD7
:1043A80007549C400145A38087002244B2409244B0
:1043B80041016F70E06549442285B240224492442D
:1043C80041018280411106C685476315F50683D7EA
:1043D800018CA1CB171700200347075239E31307B5
:1043E800B003636BF7028945171500200345855E06
:1043F800EFD04F849307006403D6018C3306F6028E
:104408008945171500200345E55CEFC01FEC239094
:10441800018CB24041018280938747FC2390F18C44
:10442800CDBF938781899C43EDD7B24003C5070070
:1044380041013DB7938781899C43E1DF97170020AD
:1044480083C77759918BF1D7894517150020034504
:104458006558EFC03FFEB2402390018C41016FF0D8
:10446800FFA79717002083C71757958BCDC393874E
:10447800818C99E19387018D9C43D1CBFD4763EAF9
:10448800C70811C2D9C6411122C426C206C64AC0ED
:104498002386A180B684328495CD1389818C032527
:1044A80009007D4681450505EFC09FD00325090019
:1044B800A68522860505EFC0BFCD83250900228584
:1044C800238085002244B240924402498505410177
:1044D8006F7080531389018D032509007D4681453E
:1044E8000505EFC0FFCC03250900A6852286050532
:1044F800EFC01FCA83250900228523808500224436
:10450800B24092440249850541016F7020504945E7
:104518008280094582809717002083C7D74B918BEB
:1045280099CF41111385418C06C6EFD0BFC6B24062
:10453800FD57171700202312F73C410182800145DF
:104548006FD05FC59387818C8843411122C406C60A
:1045580026C23E8419C597000020E780E08023A486
:10456800018C9387018D884319C597F0FF1FE78059
:10457800A07F23A8018C971400209384A44583C7A7
:104588003400958BADCB13850198EFD05FC083C7FE
:104598003400958B99E74D45B2402244924441013D
:1045A8008280930570041305000297F0FF1FE780CF
:1045B800207123A4A18C65D1130600028145EFC0A8
:1045C8003FBF930570041305000297F0FF1FE780B3
:1045D800206F23A8A18C01C9130600028145EFC0F2
:1045E8003FBD014555BF084097F0FF1FE780C077E2
:1045F80023A4018C4DB70145EFD07FB9DDB7BD4786
:10460800638CF50663E9B702A5476387F50663ED92
:10461800B7009947638CF5049D47638FF504954768
:10462800638CF50401458280B5476387F50463E12F
:10463800B704AD47F5B7DD47638EF50263EAB70007
:10464800C947638BF502D9476386F502C547C9BFD9
:10465800F5476383F50263E4B700ED47D1B79307E5
:104668002005638BF5009307200D5DBF48458280C8
:104678000841828008458280484182809307F00F74
:10468800630AF506011126CAAA841305000222CC82
:104698004AC84EC652C456C206CE3A89B689B28AAC
:1046A8002E8AEFC05F8E2A844D4505C8930700FB0C
:1046B8002300F400A3005401231144012302340110
:1046C80013058400614663030902CA85EFC05FAC25
:1046D800A2852685EFC01F960145F2406244D24468
:1046E8004249B249224A924A056182808145EFC017
:1046F8003FACF9BF09458280011122CC06CE2A843D
:104708002306B100A306C100EF30507711CD03474F
:10471800C500A147631EF70078009306E00701462D
:10472800A28503C5D180993FF24062440561828029
:1047380078009306E0070146A28503C5E180E5B746
:10474800930700643306F6026FC05FC105C90347CB
:10475800050085469307270093F7F70F63F0F602E5
:10476800411122C42A843A8506C6EFC0BFCFFD573F
:104778002300F400B2402244410182808280035722
:1047880005009307000B6313F70283474500494769
:10479800639CE7000347150185476399E7000355C4
:1047A800250085456F2010026D47C5BF8280011125
:1047B80022CC06CE2A842EC632C436C2EF30106C04
:1047C80005C98346C500A14712472246B245639BE7
:1047D800F600B28603C5D1802E86A2856244F240D7
:1047E800056169BDB28603C5E1802E86A285FDB745
:1047F800F240624405450561828023ACA18C828029
:10480800011122CC26CA06CE2A84AE84EF30106766
:10481800A6852285EFD0302F05E522852316910045
:10482800EF30D06511CD0347C500A147631FF700DE
:1048380078009306F0070146A28503C5D1803D3D67
:10484800F2406244D2440561828078009306F00702
:104858000146A28503C5E180DDB7011126CA06CE4F
:10486800B68422CCDD4663E2B608D94663FED50A93
:10487800A5466381D50A63EEB6049546638CD508D0
:1048880099466387D50A054441687D186316060969
:104898003AC6EFD0102B3306854032474206418294
:1048A800420441803305C4004205BA85418132C6BD
:1048B800EF205000AA8749C181C432462390C40022
:1048C800B30580406244F240D2443E8505616FD012
:1048D800E058C5466380D504C9460D44E395D5FA2A
:1048E800C167FD17E31EF6FA65B7F5466380D50480
:1048F80063E4B600ED46D5B7930620056388D50274
:104908009306200DE391D5F8C167FD170D4463198F
:10491800F600BDBF09448DBF9306200DE392D5F87C
:10492800310642064182ADBF15445DBF0D444DBFFF
:10493800C167FD171D447DB7F2406244D24405614A
:10494800828079714ECEAE89C16526D20147AA848C
:10495800894613864187FD15054522D406D64AD0D7
:10496800EF001059054429CD2A89130730028146E2
:104978001146F5452685D5352AC6554431C1835794
:10498800A900CE8601462314F10091472315F100B2
:1049980085472300F500B2472C002685A380070031
:1049A8003247FD572301F7003247A301F700EF0014
:1049B800F0492A8411C5324597F0FF1FE780C03AB5
:1049C8002285B250225492540259F249456182809C
:1049D800411106C6EFF0BFC219C5B240410117F335
:1049E800FF1F67006338B24041018280011106CE83
:1049F8002AC6EFD0807C3245FD5791452387F18048
:104A0800A386F18023AA018C23AC018C9717002080
:104A18002386A7F4EF204066F24005616F10904DA1
:104A280093970501C18763D807127971171500207C
:104A38000345C5F222D44AD006D626D22E89EFC025
:104A48006FD82A8449CD034705009307000A6315E8
:104A5800F70885474C08A305F100EFD09001AA8418
:104A680005ED8347610171476374F708138717FEE3
:104A78001377F70F9306000263F3E608858BC5C723
:104A88009387418D9C43994481CB03552400130699
:104A9800B1004C088297AA848347B10099C708449B
:104AA80009C597F0FF1FE780202C95E05247B7070C
:104AB8000001938707F07D8FB707120093870710CF
:104AC800630CF70003476101ED476317F7000355CF
:104AD80024008545EF20004F2285EFC00FC8B25053
:104AE800225421653345A9009254025945618280B8
:104AF8003707301405073357F700058B41D3138761
:104B0800818D184351DB0347510159F72306F10002
:104B180099472308F100035524006C00231701006E
:104B2800EFD0101495BF9387818D9C439DC3035587
:104B380024001306B1004C08829739DDAA84834704
:104B48005101B9FB83476101230891002306F10055
:104B5800D9B79944EDB7014582800145828083D752
:104B680005006387A70083D745006395A7009105D3
:104B78002E85828083D78500A105E38BA7FE81451A
:104B8800C5BF0DCD834725000547890793F7F70F64
:104B98006376F702411122C406C62A8483550500AC
:104BA800034535000147F9465D46EFF03FADF9573B
:104BB8002311F400B24022444101828082800145E1
:104BC80082809385F1819307000285462380F50052
:104BD800FD57238FF1802388F180A387F180239EDE
:104BE800D180239E018C23A0018E23A6018E23A2AF
:104BF800018E13864181938741865CC2238F018C85
:104C080097F7FF1F9387874109472300E600238012
:104C1800E7002388E7002380E7022388E702138759
:104C28008185D8DB0D472384D700D0C7238CD700D4
:104C3800238CE7021385C1861387C19813864185A3
:104C480093864187D8DFC8C323950700D0CB239D1F
:104C58000700CCCFD4D3238407022395070223A6C9
:104C68000702239D0702170700001307670C97F731
:104C7800FF1F9387A73E23A00700D8C323A40700DC
:104C88008280411106C6E13D11C503452500B240A9
:104C9800410182800145E5BF411122C426C24AC0B4
:104CA80006C6AA842E8932845D3D09E94165CA8514
:104CB8007D157535C54711C523109500230185005D
:104CC8008147B2402244924402493E854101828094
:104CD80039E38948354763911605011106CE22CC80
:104CE80026CA034716000346060093C7F7FF2207A4
:104CF800598EF18F32C69DE3C4452A84A685513763
:104D080032460147630EA60022856244F240A6851A
:104D1800D244056151B72D473A85828013070008B0
:104D2800F2406244D2443A850561828083C8050016
:104D380009486394080303A84500834718000348FB
:104D48000800A207B3E70701C2070D68C187130867
:104D58002890639407018947A5BF0545828003C74A
:104D680001819307F00F630AF70441114AC02A89A9
:104D7800294522C426C206C63284AE84EFC0AFA03D
:104D88001DC59307100B2310F500230205002314FB
:104D9800850022442311250123139500B240924433
:104DA8000249AA8503C5018141016FC0AFA8B2407D
:104DB800224492440249410182808280411126C2E4
:104DC800AE849385C19822C406C62A845D3D0989AC
:104DD80009C922852244B240A685924441016FF058
:104DE8005FB6B24022449244054541018280411198
:104DF80022C426C24AC006C6AA8413044500130961
:104E08000504835704008DC3084409C597F0FF1FA4
:104E1800E78080F5228531468145EFC06FB93104BE
:104E2800231A04FEE31F24FDB2402244FD572390B9
:104E3800F40002499244410182809387818E9C4309
:104E480003D707006300A70283D607041387070464
:104E58006388A6001387070883D707086396A70007
:104E68003A8582803E87EDBF0147DDBF9387C18EBB
:104E78009C4399C703D74700E31CA7FE8847828055
:104E880001458280411106C6D53709C50845B2409B
:104E9800410182800145E5BF011126CA938445007E
:104EA80022CC4EC606CE4AC852C456C25AC026871D
:104EB80081490144814681471545035607004DCA7B
:104EC800B5EE0354470083572700B286A297C2075E
:104ED800C18385093107E392A9FE3DC02E89228549
:104EE8009305700497F0FF1FE78080DD2A8B29C99E
:104EF800814A014A8C4495C103D6440033054B01CD
:104F0800EFC00FA983D7440088443E9A420A135A37
:104F18000A0197F0FF1FE78020E563870A00314602
:104F280081452685EFC0CFA8850AB104E3C43AFDC0
:104F38002326690123148900054521A0630DD600A5
:104F48000145F2406244D2444249B249224A924A57
:104F5800024B0561828003562700E313F6FE0356D1
:104F680047003294B2974204C2074180C18395B783
:104F78000545E35835FD95B79387418E9C4399E3E2
:104F88000145828098470357A700E319A7FE1385B8
:104F980047008280411106C6C53711C50355050073
:104FA800B240410182800145E5BF411106C6E9379B
:104FB80011C503452500B240410182804145E5BF46
:104FC800411122C42A842E8506C6C537AA850546FE
:104FD8002285EF30E06D95476305F500BD47631303
:104FE800F5002145B240224441018280411122C48A
:104FF8002A84090506C6EFF06FF5FD57A301F400F2
:10500800B24022444101828003D7019BAA876303EF
:10501800A70203D7619B6301A70203D7C19B014580
:105028006319F700094599473305F5029387019BF2
:105038003E9582800145C5BF0545F5B7411122C49B
:10504800416406C626C29307E4FF630CF500AA84F0
:1050580091ED5D3F19E51305F4FF7D3719C1231064
:105068009500B24022449244410182808547639270
:10507800F504593F2A8475D5FD572310F500834759
:1050880024001307F00F6383E7021307E00F638A16
:10509800E700034534000147F9465146A685EFF07D
:1050A800EFDD2285A137FD572301F4002302040018
:1050B8004DBF8947E397F5FA8545EF30207755F1DD
:1050C800268599372A8445FD69BF5D71A6C24EDEE3
:1050D80086C6A2C4CAC052DC56DA5AD8AE8483C582
:1050E8002500F947AA896394F504393F2A8409ED14
:1050F80001442285B640264496440649F259625A2C
:10510800D25A425B6161828083472500054789073F
:1051180093F7F70FE37EF7FC034535000147F9469F
:105128000146CE85EFF08FD52285C935D1B783AA40
:105138000400B7070001938707F037071200B3F799
:10514800FA0013070710328A6389E7022EC66D3DFD
:105158002A89B24505C5034645000DC29317860145
:10516800E187E3C707F84E85EFF00FD98347490079
:1051780093E707F82302F900A5BF014903C7E181B6
:105188009307F00F1944E306F7F6E147E3E3B7F6B0
:1051980093D71500FD178E0717F700001307477FF1
:1051A800BA9703A80700E30608F403AB4700E30235
:1051B8000BF4C20A93DA0A0163850A00C947E39A25
:1051C800F5F283D64400904483C5140003C5040057
:1051D800380802982A8411FD2C084E85029B2A84DF
:1051E80021C983C71400E39607F083C72400230A64
:1051F800A10039472308F1006399E7026247834712
:10520800170003470700A207D98F0C084E852319FA
:10521800F100EFD0E024E30D05EC14080546D9456C
:105228004E85EFF0CFD82A84E9B583578101F1BFC5
:1052380083C624009147E38DF6EA38080146CE85F7
:1052480003C5E181EFF08FC32A84E31405EA83C51F
:1052580024002808EFF0AFBA19C123000A009840CB
:10526800B7070001938707F07D8FB7071200938770
:105278000710E30FF7E6E30D09E683C724002302CE
:10528800F90085BD011106CE2EC6EFF0FFD701CD7E
:1052980083474500B245138717006396E50093F7E7
:1052A80007F82302F500F240056182809387418E5A
:1052B800984319E3014615A81C4703D8A700636B58
:1052C800050183584700B38608016355D500814618
:1052D800639416011843F1BF3E86C10703D3A7FFA5
:1052E8006317A30099C12390050132858280850642
:1052F800C206C182F1BF397152D42E8A4ED69305A7
:10530800E101AA89528522DC4AD856D206DE26DA7D
:10531800328936C63AC4BE8A513F054435C5AA8487
:105328000355E1013944EFF07FB439CD0328450036
:10533800630C08042247B246D6874A86A6854E855E
:1053480002982A8431E19307E00F638FFA0203C7BA
:1053580004008947631AF702D840834717000347B8
:105368000700A207D98FC2070D67C18713072790C7
:10537800639CE7008347190003460900D285A2070A
:105388005D8E4E85EFF0BF9D2285F2506254D25457
:105398004259B259225A925A21618280797122D493
:1053A800035425004ECEAA89228556CA06D626D28F
:1053B8004AD052CC5AC85EC662C4AE8AEFF0FFA784
:1053C80001E92285EFD0C059594421E90144B1A02F
:1053D80003C789008547AA8401446319F702AA858F
:1053E80013858900EFF05FAB21CD03D7640083D626
:1053F8008400D04483D5440003D52900E147E53D26
:10540800D9472A846318F50223A604002685EFF0FD
:105418001F9E49C0D947E30BF4FA2285B2502254A3
:1054280092540259F249624AD24A424BB24B224C38
:105438004561828061DD83D744002390FA00F9B783
:1054480013894400014A914B594C154B8355090067
:10545800D5DDE14763067A010357C90011C3D9476F
:1054680003572900835649000326890003D52900DC
:10547800EFF07FE82A846319850123240900050ACF
:105488003109E3156AFD59B77DD98357090023907F
:10549800FA00F5B703D5290035B7797122D42A84E3
:1054A8000355850026D2AE849305210106D64AD03D
:1054B800EFF0DFDF6302050E8347850093F70702ED
:1054C80095CF2AC603552101EFF0DF9BAA87B24585
:1054D80001ED8357840039452390F400B2502254DB
:1054E80092540259456182800355240049468297A7
:1054F80011C5835784002390F400CDB703592400C5
:105508004A85EFF09F9311ED41657D15EFF0FF920D
:1055180019E58357840025452390F400C1B723106B
:10552800250113074500814795460356070039EEC4
:105538003147B387E702130984003146CA859107CA
:105548003E95EFB0FFC43146CA854808EFB05FC446
:105558000356C4000355240041478146DD45EFF05A
:10556800CFAF2ACE19E58357840045452390F40030
:10557800B5B70C480356C400EFB09FC103552400CB
:105588004C08EFD0A03939D9594589BF850731076B
:10559800E39DD7F82545B1BF0545A1BF797122D450
:1055A8002A840355850026D2AE849305E1014AD0AA
:1055B80006D63289EFF09FCF51C58347850093F710
:1055C8000702A9E7034714019307200519E3834756
:1055D80044008356A4005044835584000355240096
:1055E8000147EFF05FD1AA8721E98347140199E7C2
:1055F80003552400EFD0A02DD94711E18147B250BF
:105608002254925402593E85456182802AC6035528
:10561800E101EFF03F87AA8705C9B2450355240089
:1056280049468297AA8759DD035784002390E400EE
:105638000347140161F7E1B75947E317E5FE230073
:1056480009006DBF8547CDB7B947F9BF397122DC6D
:105658004AD84ED652D406DE26DAAA892E8A32C60F
:105668003689EFF07F9A094415C58347250013074B
:10567800E00FAA845D44638FE7001307F00F5944D5
:10568800639AE700324605E2D2854E85EFD0002EB8
:105698002A8415CD2285F2506254D2544259B25907
:1056A800225A2161828003550A009305E101231FD4
:1056B8000100EFF0BFBF0355E101EFF01F8FAA858E
:1056C80005464E85EF20D07E2A845DDDE1B793073D
:1056D800F00FE301F9FC938624007946A68517F5B7
:1056E800FFFF1305454AEFF0AF85A38124015DB79D
:1056F80039719387418E26DA844352D45AD05ECECC
:1057080062CC06DE22DC4AD84ED656D266CA2A8B2E
:10571800AE8B328C368A99E08149B9A0804483DC0B
:1057280044000149835AA400631499018440E5B7F1
:105738008357A400A28963F8670105094209135930
:1057480009014104D5B7E3EAFBFE630C0A0083456F
:1057580004004840D28662863AC6EFC0D02A324753
:1057680069DD19C323105701F25062544E85D25493
:105778004259B259225A925A025BF24B624CD24CAD
:105788002161828003D7050083D62500854763E61B
:10579800E60421C7411183C6450026C293845500FB
:1057A80022C426862E841385C186894506C6EFC085
:1057B8009025C14709CD83464400835524000355ED
:1057C8000400014726862D37814711E1A947B240D9
:1057D800224492443E85410182803E8582802E8605
:1057E8000355060083D52500854763E2A50205C158
:1057F8008346460041110147150606C6EFF05FEFE4
:10580800814711E1A947B2403E85410182803E852A
:1058180082802E860355060083D52500854763E2DE
:10582800A50205C18346460041110147150606C673
:10583800EFF01FEC814711E1A947B2403E854101D5
:1058480082803E85828039714ED683D7250083D9E0
:10585800050006DE22DC26DA4AD852D456D25AD0BF
:105868005ECE62CC66CA6AC863EC37178547638A1E
:105878000914416BAE8A2A8A2314010002C6014426
:1058880001497D1B894B054CC94C054D83D52A0020
:105898000147814601464E8523130100EFF05FE57D
:1058A800AA84630C051009EC130720029306610013
:1058B8005A8695455285EFE05FFA2A8463040512FB
:1058C8000357810083C7040045C30347A100630A47
:1058D800A70741476385E7022C005285EFC0B04D0A
:1058E80009CD34001546D9455285EFE05FEC11C566
:1058F800324597E0FF1FE78020478147D9A083D72B
:10590800A4004146130524002300F40083D7A40013
:10591800A183A300F400CC40EFB09F8749048357CC
:1059280081008507C207C1832314F10063F72709A3
:1059380083D7A400638367098509C20993D909013C
:10594800B1B7E39B77F983D7A40009461305240070
:105958002300F40083D7A400A183A300F400CC4063
:10596800EFB01F83110465BF22C60359610003C746
:10597800A400130524006382770333599903230590
:1059880071012300E40083D7A4004146A183A3004A
:10599800F400CC401379F90F41B7230581012300A6
:1059A800E40083D7A400135929001379F90FA183C0
:1059B800A300F4000946CC4065B78357810089FFEE
:1059C800A947F2506254D2544259B259225A925AB3
:1059D800025BF24B624CD24C424D3E852161828083
:1059E8008547C5B7C547F1BF13F7050201C7B2859B
:1059F8006FF00FDD411126C24AC006C622C413F952
:105A08008500AA8463170900139785016187635D80
:105A1800070232853684EFF04FD9AA85054663130D
:105A2800090001462685EF20B04801E90145B2404A
:105A38002244924402494101828083479400E5DB75
:105A480083478400E5F7E5B793F72500E5F30D45AF
:105A5800F9BF7971AE8622D42A8403D5060093054E
:105A6800E10106D636C6EFF07F8401CD8345850077
:105A7800B2460356E1012285853FB2502254456162
:105A880082800545DDBF13F7050201C7B2856FF0B7
:105A98002FD3411122C426C206C693F485002A8456
:105AA80091E4139785016187635007023285EFF00F
:105AB800CFCFAA85054691E0014622852244B2400F
:105AC800924441016F20D03E93F72500014591E3B0
