:100000006F004000975100209381412C1781002000
:10001000130141FF1305800A973500209385857EE3
:10002000175600201306669263FAC5008322050066
:1000300023A0550011059105E3EAC5FE17B501009F
:100040001305854497550020938545901386818438
:1000500063FAC5008322050023A055001105910510
:10006000E3EAC5FE13858184977500209385458258
:100070006377B500232005001105E36DB5FE9302FB
:10008000800873A00230973200209382A27793E217
:1000900012007390523097220000938282C67390B0
:0800A00012347300203000004F
:1000A80000000000000000006F0080086F00801A48
:1000B8000000000000000000000000000000000038
:1000C8000000000000000000000000000000000028
:1000D8006F004006000000006F00E005000000000F
:1000E8006F0080056F0060056F0040056F002005F8
:1000F8006F0000056F00E0046F00C00400000000FE
:100108006F0060046F0040046F0020046F0000045B
:100118006F00601A6F00C003000000006F006003EA
:100128006F0040036F0020036F0000036F00E002C0
:1001380001A001A001A001A001A001A001A001A0AF
:1001480001A001A001A001A001A001A001A001A09F
:1001580001A001A001A001A001A001A0B7170040C3
:10016800930670052380D704130780FA2380E704D9
:1001780003C6B7041376F60DA385C70423800704C6
:100188001376050225C603C6A700118A0DE223804F
:10019800D7042380E70403C7A70013674700238514
:1001A800E7009307004B01000100FD17EDFFB717AB
:1001B8000040930670052380D704130780FA238034
:1001C800E7047D892394A7000100010001000100D4
:1001D800238007042380D7042380E7048546372734
:1001E8000040A303D7802380070482801376050488
:1001F8006DDE03C6A700418A0DE22380D704238061
:10020800E70403C7A700136707012385E7009307DF
:10021800007D01000100FD17EDFFB71700409306B0
:1002280070052380D704130780FA7D892380E704AB
:10023800136505042394A7000100010001000100D3
:10024800238007042380D7042380E7048D463727BB
:10025800004041BFB7170040130770052380E7042B
:10026800130780FA2380E7047D572396E70203C724
:100278006704136717002383E7042380070401A09A
:10028800BD473305F50201007D1575FD82804111DA
:1002980022C426C206C6AA84014463179400B24049
:1002A800224492444101828005041305803E4204A1
:1002B800C13F4180DDB7B71700401307000323880B
:1002C800E702854723AAF1AC73002030230304809A
:1002D80095472303F4802302A480828083076480E7
:1002E800E3CE07FE23030480828083076480E3CE85
:1002F80007FE03454480828083076480E3CE07FEBF
:100308002302A4808280411126C44AC24EC006C678
:100318001377F50BAD47AA892E8995446306F70034
:1003280019456D37653F8D444E854D37FD59FD1490
:1003380063983401B240A244124982494101828043
:10034800135509011375F50F453F2209CDB7011162
:1003580026CC06CEB704080051371545853F7137BE
:1003680069372AC6A53F3245058901C9FD14F5F448
:100378007D55F240E244056182800145DDBF397157
:1003880026DC4ADA4ED852D656D45AD25ED006DE89
:1003980062CEB7E700E07D5783AB070022C603AB08
:1003A800470023A0E71823A2E718B7170040130750
:1003B80070052380E704130780FA2380E70483C7C6
:1003C8004704130975FFB689E2071379F90F8546C3
:1003D800AA8AAE84328A37240040E187015763FA3B
:1003E80026016308D5008946130700026313D50068
:1003F8000157D98F93F7F70F371C00401147230295
:10040800FC042303E4801305F00FC935C13D0947F7
:1004180063692711B7070700BE9437870700795922
:1004280063FFE402B3873401636BF702A947639A59
:10043800FA0663940900014915A0A6850945E13526
:10044800050A0345FAFFFD1985047D356385090012
:1004580093F7F40FF5F7E53D2A8961DD4135B717C4
:100468000040130770052380E704130780FA2380F0
:10047800E70403C747044A85418B2382E704F25007
:10048800B7E700E023A0771123A26711E2543244B2
:100498005259C259325AA25A125B825B724C21617C
:1004A8008280A5476394FA06056A9307F00FB3861E
:1004B8003701B3F9F400B69993C7F7FFB3F93701D9
:1004C800FD8CC16A056C9307FAFFE58F99E363FC1D
:1004D8004901135A4A00C147E3E747FFA9BF8567A7
:1004E800416AFD17E9B71305800D63085A01130522
:1004F800000263048A0113051008A6852935813D89
:100508002A8931FDD294B3894941D1B7A6852D45B1
:10051800DD3BD299E3013AF3050AC13BA30FAAFEDA
:10052800D5BF9387FAFF93F7F70F6360F70A03477E
:100538005C04B70708001377070219E3B7870700B9
:100548007959E3FEF4F033873401E3EAE7F08947A9
:100558006393FA0493D92900D54AE38E09ECA6855A
:1005680009455533110A0327CAFF91472320E48020
:1005780003076480E34E07FE23035481FD17EDFB58
:10058800FD1991046385090093F7F40FE1FFC13366
:100598002A8961D5E1B58547E383FAF4A6852D4517
:1005A8009D334E899304F9FFE30709E83D3B93F730
:1005B800340091EB8326048003270A0093074A003E
:1005C800E39EE6E83E8A2689F1BFB5476396FA00BE
:1005D8001305900BE53985B5B1471305B00AE38BD0
:1005E800FAFE9947639EFA02A6852D45293B0149E3
:1005F8008D4AA149DD3963165901832704802320D8
:10060800FA000509E31839FF8327048013972401AA
:10061800635507002312FA0039BD2322FA0021BDD1
:100628009D476391FA0281451305B004E9399D4459
:100638007D596539B3079A002380A700FD14E39A12
:1006480024FFD5BBA1476396FA0219454131793198
:100658000545AD39014581C8854713050005638403
:10066800F4001305C003493909457931CD312A8988
:10067800F5B3E3820ADC7159D5B319C1814799E909
:1006880082803387F500834607003307F500850726
:100698002300D700E397C7FEE5B7797122D4172462
:1006A80000001304647C4AD006D626D24ECE52CC23
:1006B80056CA5AC85EC662C466C26AC022891C404D
:1006C800A9EB972400009384247A972A0000938A40
:1006D8002A7A3714004093097005130A80FA173BE9
:1006E8000000130B6B94973B0000938BEB95094C20
:1006F8008D4C154DDC4085E383475B00858BADE36E
:1007080083C7CB00918BA5CF97B000E0E780603F0F
:10071800BDA082976DB79727000083C7677799CBED
:10072800230034052300440583D781842316F4026B
:1007380023000404DC4082979727000083C747758D
:1007480099CB230034052300440583D7A1842316BD
:10075800F4022300040483270900D9DF8297E5BF48
:1007680097370000A384078C9737000083C7378C1E
:1007780063978713352D978000E0E780800E9104FA
:10078800E39A9AF69737000083C7978AB9CB9737C9
:100798000000A38F07881734000003446489894741
:1007A800631FF410972400009384447ABC4003C765
:1007B800170105CB03C67700B755550037C5898E95
:1007C80093855555130565ED97B000E0E780008DDA
:1007D80097370000A38D8784BC40130710FA23863F
:1007E800E700972700009387E768984317260000DB
:1007F800034696653E849727000083C7E76493966F
:100808001700BA9683D60600638706149727000058
:1008180083C7876363EBC7149727000023860762A3
:1008280083270900B9EF9727000083C767668DC340
:10083800B7170040130770052380E704130780FAF1
:100848002380E70403D781842396E70223800704E3
:1008580097E0FFDFE780600E9727000083C74763B4
:100868008DC3B7170040130770052380E7041307EB
:1008780080FA2380E70403D7A1842396E702238024
:100888000704B250225492540259F249624AD24A99
:10089800424BB24B224C924C024D45618280639888
:1008A80097013923975000E0E7802008C9BDE398F5
:1008B800A7EDFD2997B000E0E78000CDC9B58D47C9
:1008C8006314F4049724000093844468BC4483C7E9
:1008D8007700E38807F0BC40B755550037C5898EC7
:1008E80003C6770093855555130565ED97A000E07D
:1008F800E780C07A97270000A38B8772BC44130750
:1009080010FB2383E700F1BD9547E31CF4EC1727A0
:100918000000130767738347E700918BE38307ECB5
:100928009727000083C7C76E858B172600000346EC
:10093800D6719726000083C6467199CB484309C9EA
:1009480083451500090597B000E0E78080A351BDF5
:1009580081450145CDBF850793F7F70F972600001E
:100968002384F64EE3E9C7E855B586073E978355D5
:100978000700231007009727000083C767518DC31E
:10098800B7170040130770052380E704130780FAA0
:100998002380E70403D781842396E7022380070492
:1009A800972700009387074C9C43172500000345B1
:1009B800A54913172500BA979C43829797270000EB
:1009C80083C7074D8DC3B7170040130770052380F1
:1009D800E704130780FA2380E70403D7A18423964A
:1009E800E702238007049727000083C7E74513978A
:1009F80017001C40BA9703D70700598D2390A7000A
:100A0800972700009387474483C70700850793F714
:100A1800F70F172700002309F7421727000003479D
:100A2800B742E3EFE7DECDBB0357C50397270000C6
:100A380083C7C745636CF700834785002308050013
:100A480093C747002304F5000545828097270000D7
:100A58009387C75A9C43FDE3411122C42A84416508
:100A6800130525F506C6975000E0E78060844DCD54
:100A78008347A5002315F5008327440FC9EF232AD0
:100A8800A40E232CA40E8547231EF402232605005A
:100A98008347B40014412313F5000347A40023023D
:100AA800E5001727000013072758184F138517026A
:100AB80015811C437D151375F50F9CC25C43938605
:100AC80006021307070223A2F6FE832787FE23A444
:100AD800F6FE8327C7FE23A6F6FE832707FF23A873
:100AE800F6FE832747FF23AAF6FE832787FF23AC5A
:100AF800F6FE8327C7FF23AEF6FE45FD97270000C5
:100B080083D747458507172700002315F744B240C8
:100B18002244410182808327840FC8C78357C403B6
:100B2800232CA40E85078DB783478400230804006F
:100B3800094593C747002304F400D1BF83478500C4
:100B48002308050093C747002304F5000D4582805C
:100B5800172700001307074B14439C5E8583858B7A
:100B6800C1CF9C5EF59B9CDE0100010001000100E5
:100B78000100010001000100010001000100010065
:100B88000100010001000100010001000100010055
:100B98000100010001000100010001000100010045
:100BA8000100010001000100010001000100010035
:100BB8000100010001000100010001000100010025
:100BC8000100010001000100010001000100010015
:100BD8000100010001000100010001000100010005
:100BE8000100010001000100972700009387874555
:100BF8009443BC4ABD9BBCCA18431C5F9983858B30
:100C0800A9CF1C5F93F7F7FB1CDF9727000083C76A
:100C1800A74193F70704172700001307E74081CF80
:100C2800B7170040945F172600002327D640104BC3
:100C3800945FE319D6FE854797260000A388F63E01
:100C4800930700F8972600002382F63E97270000B6
:100C58009387473F9C435847B8D373002030972762
:100C680000009387273E9C430947972600009386F8
:100C7800A63B98C3B7F700E003C72600058B15E726
:100C880003C73600058B15E303C74600058B11EF34
:100C980003A707D16D9B23A8E7D003A707D15D9BC6
:100CA80023A8E7D073005010C1BF828097260000A8
:100CB80093868637B7F700E003C73600058B15E340
:100CC80003C74600058B11EF03A707D16D9B23A827
:100CD800E7D003A707D15D9B23A8E7D07300501086
:100CE800E1BF8280972700009387C7359C4313078D
:100CF800A0051306C003B8CB9306200337C70040EE
:100D0800972500009385453283278720C18393F771
:100D1800F7036369F60083278720C18393F7F703F6
:100D280063E6F60083C74500858BF9DF8280972745
:100D38000000938727319C431307A0071306C003BD
:100D4800B8CB9306200337C700409725000093854A
:100D5800A52D83278720C18393F7F7036369F600DE
:100D680083278720C18393F7F70363E6F60083C7D9
:100D78004500858BF9DF8280972600009386C62A76
:100D8800B7F700E003C72600058B15E303C7460045
:100D9800058B11EF03A707D16D9B23A8E7D003A705
:100DA80007D15D9B23A8E7D073005010E1BF828074
:100DB8009726000093864627B7F700E003C706008A
:100DC800058B15E703C71600058B15E303C7460017
:100DD800058B11EF03A707D16D9B23A8E7D003A7C5
:100DE80007D15D9B23A8E7D073005010C1BF828054
:100DF80097270000938707259C431307A0054146C2
:100E0800B8CBE54637C70040972500009385C52134
:100E180083278720C18393F7F703637DF600832731
:100E28008720C18393F7F70363E6F60083C745007D
:100E3800858BF9DF8280972700009387A7209C4342
:100E48001307A0074146B8CBE54637C700409725AA
:100E580000009385651D83278720C18393F7F703D7
:100E6800637DF60083278720C18393F7F70363E642
:100E7800F60083C74500858BF9DF8280972600003E
:100E88009386861AB7F700E003C71600058B15E3AB
:100E980003C74600058B11EF03A707D16D9B23A855
:100EA800E7D003A707D15D9B23A8E7D073005010B4
:100EB800E1BF8280972700009387C7189C43984713
:100EC8002183058B39C398471377F7EF98C71727FE
:100ED800000003476715136717009726000023854E
:100EE800E614172700002303071417270000130729
:100EF800E711184319CB104B4C4B1442CD8E14C23A
:100F0800104318471442558F18C298472583058BFC
:100F18003DC79847370600101377F7DF98C717279C
:100F280000001307270E1443D856719B1367270038
:100F3800D8D69842518F98C2172700001307070D7B
:100F4800184319CB50430C471442CD8E14C2504756
:100F5800584B1442558F18C2172700000347E70C57
:100F680013671700972600002381E60C130700F883
:100F780097260000238CE60A13070019B8D3984770
:100F88000583058B0DCF9847759B98C7054797260E
:100F98000000A38CE6081727000023090708172775
:100FA80000001307A706184319CB104B4C4B1442EB
:100FB800CD8E14C2104318471442558F18C2984753
:100FC800058B0DCF9847799B98C705479726000052
:100FD800A38CE60417270000230A0704172700003C
:100FE8001307C702184319CB50430C471442CD8E40
:100FF80014C25047584B1442558F18C2984793163D
:10100800170163D406029847F176FD16758F98C7C5
:1010180017270000034787016207618763570700A6
:101028000547972600002383E60098471183058B20
:1010380001C798473D9B98C773002030A167850773
:101048006397F50083C74188F9E70145828075DD1C
:10105800EDDDB307A0408D8BAA974111C20706C6E4
:1010680022C4C183130740036369F70617270000EA
:1010780013074703084317270000130727021443E1
:101088002E84638FA6060357650029EF0357450092
:10109800636AF704B306F74021466370D60210412D
:1010A800938687001D8FAA96611790C22392E60047
:1010B8002393060014C12312F500A16723138500AA
:1010C80085076317F40083C74188FD172382F188D9
:1010D8002105B240224441018280172700001307EE
:1010E80027FC49BF084113172500E34C07F8972749
:1010F80000009387A7D89C5B81C7AA85094582977A
:1011080097270000938787D79C5B81C7A2850545F1
:10111800829701457DBF15FD0DBF55E582808C4343
:101128006363F50863E1A50893868700636CD50AB5
:1011380003D56700A16685066317D50083C6418875
:1011480085062382D18823930700638607039726A1
:1011580000009386E6F49442638FF6008356670096
:1011680099EA8356470083D747000CC3B697A1076F
:101178002312F700BA8798436306C706972600002C
:10118800938606F29442630FD70483566700B9EA40
:1011980083D64700035647001843A106B296239208
:1011A800D70098C38280939625003E87AE8763C98F
:1011B800060297270000938767CC03A307036303FE
:1011C800030209450283972700009387A7ED03A828
:1011D800070097270000938767EC90430147C28771
:0611E800E3EFC7F2828074
:1011F0003D432A876373C3029377F700BDEFADE5E4
:10120000937606FF3D8ABA960CC34CC30CC74CC7F5
:101210004107E36BD7FE11E28280B306C3408A0622
:101220009702000096966780A6002307B700A306E2
:10123000B7002306B700A305B7002305B700A30432
:10124000B7002304B700A303B7002303B700A3022A
:10125000B7002302B700A301B7002301B700A30022
:10126000B7002300B700828093F5F50F93968500B1
:10127000D58D93960501D58D61B79396270097027A
:10128000000096968682E78086FA9680C1171D8FA9
:101290003E96E374C3F8A5B7F947B387F502E14674
:1012A00093551600130780703E06AE97B375D502AE
:1012B0003355D502B385E50241677D17798E798D67
:1012C000AE97C2075D8E93057005B7170040238067
:1012D000B704930580FA2380B704C8DB03C717035C
:1012E00013670708A388E702D0DB03C71703136758
:1012F0000704A388E702238007048280914763EEF6
:10130000B70217A70100130767B08A05BA959C4179
:10131000BA978287B717004003A7470B1345F5FF1D
:10132000698F23AAE70A03A7070B698F23A8E70A97
:1013300003A7070A798D23A0A70A8280B717004068
:1013400083A6470B1347F5FFF98E23AAD70A83A676
:10135000070B558D23A8A70A83A6070A758F23A01C
:10136000E70A8280B717004003A7470B498F23AADB
:10137000E70A03A7070B1345F5FF45BFB717004062
:1013800083A6470B1347F5FF758F23AAE70A03A728
:10139000070A598D4DB7B717004003A7470B498F70
:1013A000EDB7B717004003D5870042054181937719
:1013B000050491EB9377F5013755E8011305058096
:1013C0003345F50282809377050C13070004639779
:1013D000E7009377F50137459C1CCDB721651305D0
:1013E00005D08280B7F700E0C8439C4782808147E0
:1013F00037370040A14663C4C70032858280034569
:10140000B740E38EA6FE3385F5000345050085074A
:101410002304A740CDB7411122C406C62A84513700
:101420002947B307E502B2408D83B3D78702224430
:101430009507B3D7E70237370040C207C1832316A9
:10144000F74041018280716541111305052006C6F0
:10145000D937B7370040130770F82381E7400D47AD
:10146000A381E74013070004A380E74005472387D3
:10147000E740B24041018280973700202388A7646B
:101480008280411106C62388A1AC23A8B1840DC176
:1014900003C7C18485476317F700894503C511ADAC
:1014A000EF00107EB24085472386F184410182809F
:1014B00013064006894503C511ADEF003065DDB761
:1014C000A38601842386018423A80184B7170040E2
:1014D00003A7070CB706C0FFFD16758F23A0E70C06
:1014E00003A7070DB7064000970500009385850602
:1014F000558F23A8E70C014569B741114AC006C6BC
:1015000022C426C2173700200347475C9307F00F19
:1015100005496308F7022A841145AE84EF0070077D
:10152000014905C1930700FC2300F5002301950044
:10153000A3018500AA851735002003452559EF0032
:101540003010B24022444A859244024941018280CF
:101550006DB7B717004083A7470C37074000F98FD6
:1015600003C701AD09EB13B7170083C6D184638E9F
:10157000E600A386E18491EB9387018503A307002E
:10158000630503008145054502838280797122D479
:1015900026D24AD04ECE52CC56CA06D61379F50082
:1015A00013840195854493895185138A4185914A15
:1015B000631009022254B25092540259F249624A0D
:1015C000D24A03C511AD0146854545616F001054EF
:1015D000B3779900A9C783470A0003C7090023000E
:1015E0000400E58FD98FA38AF1842312D40023014C
:1015F000C400A300B40099E12300540136C632C4EC
:101600002EC2EF00B02583470400B2462246924521
:1016100093E7270008C42300F400334999008604A7
:1016200093F4F40F310469B79377150093864185DD
:101630009DCB85476391F502371600408327860CC2
:1016400061777D17F98F2324F60C83C706005D8D23
:10165000238AA1848280371700408327870C216664
:10166000D18F2324F70CF5F183C706001345F5FF4E
:101670007D8DF9BF011122CC26CA4AC84EC652C47C
:1016800006CEAE899374F500138901950544214A6D
:1016900089E8F2406244D2444249B249224A056193
:1016A0008280B3F7840089CFCE8563964901834554
:1016B000090093C5150022852300B900A18CAD3720
:1016C00006041374F40F3109E1B7AA8711C909CAD6
:1016D00081CA9307300663E3C7004DBD854559BFF6
:1016E00081453E85EDBFA14763EFB70297960100A4
:1016F000938606731397250036971C43411106C63F
:10170000B69782879306803E154685457D3FB24059
:101710000145410182809306803E154693052003D2
:10172000F5B7893FEDB70145828037170040832721
:10173000070C4111A16606C6D58F2320F70C814501
:101740003D450D3F8566938606FA7946A9450545D0
:10175000353DB240238001984101828083C70198C2
:101760006393071679714ECEC16922D426D24AD02E
:1017700052CC56CA5AC85EC662C406D666C26AC091
:1017800013840195014C3D498544138A5185930A80
:101790004006FD19130B4006930BF00FB3F724011D
:1017A000E1C783470400898BD5CFEF00300B1C4481
:1017B0002A8D6366F50E83460400834C240093F75C
:1017C0001600BDCB33079B41F99A81452685937C52
:1017D000F70F2300D400893D0346040093774600A9
:1017E00099EF83461400638C7601FD1693F6F60F8D
:1017F000A300D40089E6134626002300C4008347D3
:101800000400898BB1C30357440033079703335750
:10181000570393170701337737016A97C18318C4B9
:1018200063030C08A1C33E876373FC006287131C2B
:101830000701135C0C013DA093E616008545268543
:101840002300D400D53365BF83450A002685E58D86
:10185000B335B000493D03470A0093C7F4FFF98F41
:10186000A38AF18433C92401860493F4F40F31046C
:10187000E31609F2630B0C022254B250925402593F
:10188000F249624AD24A424BB24B924C024D6286B6
:10189000224C03C511AD854545616F003027898F06
:1018A000C207C183B5BF3E8C75BFB250225492545B
:1018B0000259F249624AD24A424BB24B224C924CF4
:1018C000024D456182808280B717004003C6B7058C
:1018D00083C6870503C7970583C5B7051376F60F3B
:1018E00093F6F60F93E50508A38DB704BD45238C49
:1018F000B70493051002A38CB70483C5A70513771B
:10190000F70F93E51500238DB70483C5A7058589D7
:10191000EDFD03D5C705A38DC704238CD704A38C85
:10192000E7048280411193962500AA852D4506C6BD
:1019300097200020E780E01AB240014541018280F3
:10194000411122C426C24AC02A842E89B284AA85A3
:10195000930600200146254506C697200020E78013
:101960004018931629002686A28529459720002035
:10197000E7802017B24022449244024901454101C8
:10198000828041119397050122C406C6C1872E8427
:1019900063D80700352911C1F9262165218D39A0A9
:1019A00093F7150081CB5D3B13451400B2402244F0
:1019B0004101828093F7250099CF613E83C701AD35
:1019C00081EB1306000A894503C511ADEF00101421
:1019D00013452400E1BF9397250163DF0700EFD093
:1019E000206437F60200130606E0896503C511ADD1
:1019F000EF00D01109655DB7939715010145E3D755
:101A000007FA1795010013056548EF80C1261306F4
:101A10000064916503C511ADEF00500F1165BDBFA6
:101A20005D714946979501009385C5411795010061
:101A30001305455186C6E12301E9179501001305F9
:101A4000A541EF80412301A0B7F700E07957D8C73F
:101A50007D5798CB856637E700E02320D710130623
:101A6000701090C32320D7181306C0038145480087
:101A70003523973700209387E7323EC289679387E3
:101A800007802314F100ED47A309F10093075010DC
:101A9000231AF1008146CD47014681452145230B9C
:101AA000F10097200020E780C003A167938707E03B
:101AB0003EC697070000938727E73EDC97070000A4
:101AC000938747E83EDEB5472300F1029707000001
:101AD000938787913ED297070000938727DF3ED6F2
:101AE000580097A701009387279697A60100938631
:101AF000469503C65700FD170507A30AC700E39ADA
:101B0000D7FE924791C70357810085676373F7003B
:101B100001A04800EF00103CAA8501C917950100FB
:101B20001305C534EF80810301A0B6406161828056
:101B3000411117050000130505E506C622C4EF0094
:101B4000B035138411AD2300A4003928F93E8D3A35
:101B5000034504002244B24037F60200130606E0B3
:101B6000896541016F00807A411106C6B7170040B0
:101B7000130770052380E704130780FA2380E70426
:101B800003C7F7020145014613677700A387E70201
:101B9000238007048145EFF02FF0B2400145410159
:101BA0006F00305F41119397050122C406C626C21B
:101BB0004AC0C1872E8463DE0708192CAA8435C564
:101BC000034705009307000C631FF70483473500A4
:101BD000858BB1CB83C76185ADE31389718583475D
:101BE00009008566938606FA8507A38BF1847946FA
:101BF00085479305F00F0545238BF184F93403469F
:101C0000090093065009D1451D8A0145EFE0700691
:101C1000179501001305C527EF80E105854503C52C
:101C20008185EF00F00526853D2A2165218DB24092
:101C30002244924402494101828081450545238B1B
:101C400001845534EFE0500C1795010013058525EC
:101C5000E1B793F715000145F9DB83C76185A1EF73
:101C60009384718583C704008566938606FA850789
:101C7000A38BF184794685479305F00F0545238BA7
:101C8000F184A13403C6040093065009D1451D8A8E
:101C90000145EFE0007E2166130606D0854503C5A9
:101CA0008185AD25179501001305C520EF70B17C26
:101CB00013451400ADBF81450545238B01842534B0
:101CC000EFE09004179501001305C51FC5B741113A
:101CD00017050000130545ED06C622C4EF00D01B12
:101CE000138481852300A400EFF00FF9034504005D
:101CF0002244B2401306803E8545410101AD4111A9
:101D00001305800406C697200020E78060BB3717C4
:101D100000408327870A8D451305002093E707209D
:101D20002324F70AEFF08FDDEFF0EFF117950100B4
:101D300013054521EF703174E531DD3BEFF050289C
:101D4000793797200020E780800BE5BF23AC05FEA4
:101D50001C4181E70CC18280BA8703A787FF6DFF12
:101D600023ACB7FE82801DC18346E5FF1307F00F49
:101D70009147639EE600411106C697300020E78038
:101D800000B0B24081473E854101828095473E8543
:101D9000828001E9014582800145B240224441012F
:101DA0008280411122C42A84210542059305D00472
:101DB000418106C697300020E780809E71DDFD5787
:101DC00023200500231285002303F5002105F1B728
:101DD000174700201307077D1C43411122C426C268
:101DE0004AC006C601440149BA8489E7A165492D64
:101DF0001DC401A803C7E7FF631AA7020DCCA165A4
:101E0000A5249840832784FF6319E4021747002024
:101E1000232AF778FD57232C04FE230FF4FE228596
:101E2000B2402244924402494101828011E03E893D
:101E300083A787FF5DBF3E84E5BF232CF9FED9BF92
:101E4000B9C9411122C406C62A849747002083C716
:101E5000B7752E856368F40039370D45B2402244CA
:101E60004101828083A785FF99E703C7E5FF9307B8
:101E7000F00F6305F700C53D1545CDB7238F85FEEF
:101E80001745002013050572D13522852244B24042
:101E9000A1654101D1AA154582809747002023A35F
:101EA0000770828097470020938707739C4399E3CC
:101EB0003E85828003D727006316B70003C707005B
:101EC000E308A7FEDC47E5B74111939705014AC037
:101ED00006C622C426C2C1872E8963DE0700CD3D17
:101EE00011C1513521653345A900B24022449244C5
:101EF000024941018280AA860145E5D901443D4756
:101F0000B3578940858B85CF974700209387C7704B
:101F10008443BD4791E28147A2978E070545BE9451
:101F200033158500131405019C40C84041808297F9
:101F300023A0040023A20400334524017DB7050437
:101F4000E310E4FC0144CDBF974700209387076965
:101F50009C53411122C406C61384418095C78297C1
:101F600023A2A1800840B74703009387D73F3305DA
:101F7000F502B7A72600938737ECB24022443E957E
:101F800023A2A18041018280974700209387C761E7
:101F900018409C4BBA9723A2F180E9B72A9609E52D
:101FA00082800505A30FB5FEE31DC5FED5BF8147A1
:101FB0003307F5000307070019E33E858280850794
:101FC000C5BF01112E8626CAAA84131506019305E2
:101FD000F004418122CC06CE32C697200020E78053
:101FE000207C2A8419C53246A68597200020E780E8
:101FF00000DF2285F2406244D2440561828081473D
:102000006314F600054582803307F5008507B38623
:10201000F5000347070083C6F6FFE383E6FE0145AC
:1020200082809307F6FFBE952A966313C5008280CF
:10203000FD1583C715000505A30FF5FEFDB7814704
:1020400011E9014582803307F50003470700E31AD1
:10205000B7FE8507E319F6FE054582809747002005
:1020600093878754884B82809747002083C7D75334
:102070006371F502174700201307C7559317150022
:1020800008433E9583570500DD8D2310B5000145BB
:1020900082800D45828097470020938727589C4374
:1020A000638C072279714ECE06D622D426D24AD02E
:1020B00052CC56CA8297AA8915CD974400209384A2
:1020C000A44E9C481749002013094951014AAA9778
:1020D000174700202322F74EFD5717470020232BD8
:1020E000F74C974700209387274F804309EC8327BD
:1020F0004902C9E3B250225492540259F249624A49
:10210000D24A456182801844814763F4E900B307ED
:102110003741032749021CC401CBD84463F6E700CA
:10212000174700202328F74895EB835524008DE1BD
:102130005C44631E0A0217470020232FF748832AB6
:10214000C400228597200020E7806073568479BF01
:1021500003450400113F5C4081CB1CC4835724001D
:10216000E1DB228A404459B71C44F9D3C5BF23267A
:10217000FA00F1B7974700209387C74590439746E9
:10218000002083C67642814713F7F70F6363D708B1
:10219000174400201304445F834774000D47F91768
:1021A00093F7F70FE378F7F49747002083C787602A
:1021B000918BA9F34800EF50B0707D566309C50CB0
:1021C00092461747002003479742E375D7F2DC4455
:1021D000638FC70403464901058A21C65146B38768
:1021E000C702E379F7F063F3D700BE86B717004064
:1021F000905F32C48C5F2246E39CC5FE2245198D58
:102200003695B707C0A86367F502B70740573E95F4
:1022100015A085071397170032970357E7FF2DD7AF
:10222000D1BD13069002B387C70285835DBF636A81
:10223000E504198D9747002083C7873B8DC3B717E7
:102240000040130770052380E704130780FA2380FA
:10225000E70403D7A1842396E7022380070483279A
:10226000490225C982971375F50FE31505E85C4807
:10227000E38207E8EFC0A04AEFC0106AEFC0C04297
:1022800095BDB707C0A83387E7403A9565B7DC44EA
:10229000E382A7E603474901058B15C75145B3877C
:1022A000A7021747002003479734E375F7E4B716F2
:1022B0000040905E32C68C5E3246E39CC5FE3245DD
:1022C000198D3E953DBF13059002B387A702858304
:1022D000C9BF3705C0A879B782809747002083C758
:1022E000B72C6373F502174700201307A72E931727
:1022F0001500084393C5F5FF3E9583570500FD8DF6
:102300002310B500014582800D458280974700204B
:1023100083C797296364F50001458280411122C477
:1023200026C24AC006C62A842E89B284A53E01C5AB
:1023300004C505452DA09315840093E5F50441459A
:1023400097200020E780C0450DE197470020938744
:10235000E7289C5B81C7A285114582970145B24061
:10236000224492440249410182809747002093878A
:10237000A7269C439DE39747002023AFA7248547CA
:102380002326050004C52311250123008500A30091
:10239000F5002322050071BFBA87D84775FFC8C76B
:1023A000F9BF55C539715AD0174B0020130BCB26F6
:1023B00022DC26DA4AD84ED652D45ECE66CA6AC825
:1023C0006EC606DE56D262CC3689328AAE89AA84BF
:1023D00001445A8DB94D854BF94C03270B00131C52
:1023E0003400937AF40F62971C43A9EF13B5FA00F7
:1023F00013451500B3978B0063F65D01930714FF37
:10240000B397FB0093950701C181528601371DC91F
:1024100083270D000145E29784C323A2370163049B
:10242000090023005901F2506254D2544259B25962
:10243000225A925A025BF24B624CD24C424DB24D40
:10244000216182800504E31A94F92145E9BF094519
:102450008280411122C426C24AC006C6AA842E899F
:1024600032846D35CA852685353C09C940C1014590
:10247000B240224492440249410182802145CDBFAD
:10248000411122C426C24AC006C6AA842E89193C1C
:102490002A8419C123110500CA8526853D3D0145C1
:1024A00011E01945B2402244924402494101828020
:1024B0007547636DA704174700201307E7151443FA
:1024C000411126C293143500A696944222C406C632
:1024D000AA873A84094595C613B5F70039471345CD
:1024E00015006373F700C5178545B395F500C20560
:1024F000C18179371C400145A69723A0070023A27C
:102500000700B24022449244410182800945828002
:10251000411106C6EFF01F9909C50845B2404101B7
:1025200082800145E5BFF54763EFA7049747002088
:102530009387870E9C4313173500BA9798438947B2
:1025400021C7011126CA06CE9334F50022CCB94723
:1025500093C4140063F3A700451505443314A40085
:10256000420441802EC62685A2855D3789473246C2
:1025700009C5A2852685593B8147F2406244D24471
:102580003E850561828089473E858280411106C66D
:102590009747002023A4A7080295B2409747002040
:1025A00023AEA70041018280894763E9B7008A050D
:1025B0009747002093874701BE9588C182804111CB
:1025C00006C622C426C2EFF0C02731468145174512
:1025D0000020130565FFEFF07F9C7146814517458C
:1025E0000020130565FCEFF07F9B9747002023A593
:1025F00007FE9747002023A307029747002083C7C1
:10260000A7FF13D527008D8B3E958D473305F50227
:1026100017440020130444F9994793051002974486
:102620000020938424FA35051375F50F2301A400C7
:102630003305F5021305050F97200020E7804016AB
:102640009747002023AAA7FC834724001305050F02
:1026500088C08A073E959747002023ADA7F6EFF084
:10266000DF83912E8347140098401706000013065D
:10267000E68593962700BA9690C293862700850731
:1026800093F7F70FA300D400B24022448A07BA9709
:1026900090C39244410182809747002083C7D7F0BE
:1026A00017470020034767F063F3E702174700204E
:1026B000130747F118439386170017460020A30518
:1026C000D6EE93962700369708C33E8582809307FF
:1026D000F00FE5BF411126C2044106C622C44AC01C
:1026E0008947638E04124177658FB70600208947BA
:1026F0006317D71203594500630309122A84194648
:102700009305F00F5905EFF09F9305478D47630838
:10271000E5104A8681452685EFF05F881306C003E1
:10272000814517450020130565EBEFF03F87130641
:10273000C003A28517450020130545EA9710002025
:10274000E780E0699747002083D707EA99E7930776
:102750000020174700202319F7E89747002083C778
:10276000C7E891E78547174700202300F7E8974718
:10277000002083C797E791E7ED4717470020A3069E
:10278000F7E69747002083C767E691E79547174725
:102790000020230DF7E49747002083C737E591E732
:1027A000854717470020A303F7E49747002083C716
:1027B00007E491E7CD4717470020230AF7E2974740
:1027C000002083C787E399E793078002174700201B
:1027D0002305F7E29747002083C727E21747002029
:1027E0000347F7E0858339E3938707051747002000
:1027F000A30FF7DE8347D40191E7914717470020E5
:10280000A30CF7DE97470020938747DD9C5791C7BD
:10281000829797470020239CA7D855338147B24021
:102820002244924402493E8541018280034734019B
:10283000BA9793F7F70F5DBF4111B7170040985F44
:102840003AC6945F3247E39CE6FEB2471747002042
:10285000034707DA058B3EC0824731C31306303386
:10286000B386C702B3B7C702B982CA07D58F3EC2C3
:1028700002C497470020938727D3D44B9247638D98
:10288000F600924763E5D7029247958F3EC4924780
:10289000174700202324F7D2224541018280654654
:1028A000B386C702B3B7C702A582DE07C1B719E76F
:1028B00037673D089247958FBA97C9BF37876F082A
:1028C00013070790C5BF011122CC06CE2A842EC65D
:1028D000EFF08FE7B245F240818D33A5A502229536
:1028E00062441375F50F05618280011122CC06CE7A
:1028F0002A842EC6EFF04FE5B245F240818D33A514
:10290000A502229562444205418105618280011140
:1029100022CC06CE2A842EC6EFF00FE3B245F24059
:10292000818D33B5A5022295624405618280974767
:1029300000209387A7CA985721CF411122C426C2ED
:1029400006C6BE84029717470020035747C62A844D
:102950001DCBBA876373A700AA87C207C183BA8653
:102960006373E400A286C206C182958F1307C00379
:10297000635BF700DC5491C38297EFC0606A9747AE
:102980000020239687C2B2402244924441018280B3
:10299000828097470020938767C4DC57411106C6A1
:1029A00091C3829717050000130545E9C536B2406B
:1029B000014541018280011122CC174400201304FB
:1029C000E4C1084406CE26CA19E50545F240624432
:1029D000D244056182805C58EDDB185C7DD77000C5
:1029E000854582971844B247E301F7FE8357C40038
:1029F00017450020034565BF9305E0043305F50244
:102A000097440020938444BA4205418197200020D6
:102A1000E78000D9174700202324A7BA5DD5974740
:102A2000002083D767BC17460020034606BC330648
:102A3000F6029305F00FEFF06FD6904C08449747DD
:102A4000002083D767BA08C29745002083C5E5B93F
:102A5000B385F5021C5C89818297884C9720002001
:102A6000E780E0E101459747002023AB07B4B9BFF9
:102A7000411122C417440020130444B61C4426C24A
:102A800006C697440020938424B2ADCB1C5CBDC71E
:102A90009C4C8DE78357C400174500200345E5B4DF
:102AA0009305E0043305F50242054181972000209B
:102AB000E78000CF9747002023A4A7B0884C1DCD06
:102AC0009747002083D747B2174600200346E6B158
:102AD0003306F6029305F00FEFF04FCC904C08440C
:102AE0009747002083D747B008C29745002083C589
:102AF000C5AFB385F5021C5C89818297884C09C9F2
:102B000097200020E780A0D79747002023AA07AA94
:102B1000B24022449244014541018280011126CAFB
:102B200097440020938444A822CC804C4EC652C4C3
:102B300056C206CE4AC8AA8AAE89328A31EC1749F3
:102B400000201309A9A98327890099E3A94471A04A
:102B50008357C90017450020034525A99305E004C4
:102B60003305F5024205418197200020E78040C3EC
:102B70002A8441C583274903C9C39745002083C5DB
:102B8000C5A617470020035727A6B385E5022A8666
:102B9000032589008981829791451307A0058981C2
:102BA00093972500A29783C607006395E60483C622
:102BB0001700639E560385058A054E86A2955285A9
:102BC00097100020E780A0219C4C814463878700F8
:102BD000228597200020E78080CAF2406244268543
:102BE0004249D244B249224A924A0561828083D541
:102BF000270075B79C4CE38B87F422859720002033
:102C0000E780E0C7A1B7974700209387279D9847A3
:102C100029CB9C5FB9C785466315D504411122C4F1
:102C20001744002013044498104C06C61DC697464E
:102C3000002083D6669B9745002083C5059BB385FE
:102C4000D5023A8589818297084C97200020E78039
:102C500000C39747002023A50796B24022444101B4
:102C6000828082809747002093870794984F0111B4
:102C700022CC26CA4AC852C406CE4EC62A89AE8481
:102C800032843E8A35E7974900209389299583D776
:102C9000C90017450020034545959305E004330519
:102CA000F5024205418197200020E78060AF9747F9
:102CB000002023A7A7902A8611E92945F240624403
:102CC000D2444249B249224A0561828003A5890063
:102CD00005C183A7490389CF9745002083C5E590A7
:102CE0001747002003574790B385E50289818297F3
:102CF00003258A0191461308A005FD5593D72600A8
:102D0000C207C183139727002A9703460700631B56
:102D10000603834817000356270063932803B3066E
:102D2000D64063CD960085078A073E952686A28504
:102D300097100020E780A00A014549B7A300B7001B
:102D4000B2866DBF174600200356068A97450020BD
:102D500083C5A589B385C502338696001106E3EEC7
:102D6000C5F413863400719A1106B2962300070148
:102D7000A30027012311D7007DB701458280BD47FD
:102D8000638CF50663E9B702A5476387F50663ED33
:102D9000B7009947638CF5049D47638FF504954709
:102DA000638CF50401458280B5476387F50463E1D0
:102DB000B704AD47F5B7DD47638EF50263EAB700A8
:102DC000C947638BF502D9476386F502C547C9BF7A
:102DD000F5476383F50263E4B700ED47D1B7930786
:102DE0002005638BF5009307200D5DBF4845828069
:102DF0000841828008458280484182809307F00F15
:102E0000630CF506011126CAAA841305000222CC20
:102E10004AC84EC652C456C206CE3A89B689B28A4C
:102E20002E8AEFE01FF72A844D4515C8930700FB53
:102E30002300F400A30054012311440123023401B0
:102E400013058400614663050902CA8597100020B6
:102E5000E780E0F8A2852685EFE09FFE0145F2407D
:102E60006244D2444249B249224A924A0561828070
:102E70008145EFF0AF92F9BF09458280011122CC64
:102E800006CE2A842306B100A306C100EF40A002AB
:102E900011CD0347C500A147631EF70078009306D4
:102EA000E0070146A28503C58180893FF240624464
:102EB0000561828078009306E0070146A28503C57C
:102EC0009180E5B7930700643306F6026FF06FCD8B
:102ED00005C90347050085469307270093F7F70FB9
:102EE00063F0F602411122C42A843A8506C6EFF047
:102EF0002FDCFD572300F400B240224441018280C0
:102F00008280035705009307000B6313F702834782
:102F100045004947639CE7000347150185476399CE
:102F2000E7000355250085456F2070086D47C5BF34
:102F30008280011122CC06CE2A842EC632C436C22B
:102F4000EF30707705C98346C500A1471247224676
:102F5000B245639BF600B28603C581802E86A285AA
:102F60006244F240056159BDB28603C591802E8648
:102F7000A285FDB7F240624405450561828023A029
:102F8000A1868280011122CC26CA06CE2A84AE8474
:102F9000EF307072A6852285EFE0F05B05E52285B3
:102FA00023169100EF30307111CD0347C500A147C2
:102FB000631FF70078009306F0070146A28503C55A
:102FC00081802D3DF2406244D244056182807800C8
:102FD0009306F0070146A28503C59180DDB7011174
:102FE00026CA06CEB68422CCDD4663E2B608D946B0
:102FF00063FED50AA5466381D50A63EEB6049546FD
:10300000638CD50899466387D50A054441687D18C5
:10301000631606093AC6EFE0D057330685403247BB
:1030200042064182420441803305C4004205BA850C
:10303000418132C6EF20F006AA8749C181C43246D9
:103040002390C400B30580406244F240D2443E85E0
:1030500005616FE07005C5466380D504C9460D441F
:10306000E395D5FAC167FD17E31EF6FA65B7F54695
:103070006380D50463E4B600ED46D5B7930620051A
:103080006388D5029306200DE391D5F8C167FD173B
:103090000D446319F600BDBF09448DBF9306200D92
:1030A000E392D5F8310642064182ADBF15445DBFBB
:1030B0000D444DBFC167FD171D447DB7F24062440A
:1030C000D2440561828079714ECEAE89C16526D227
:1030D0000147AA848946178601001306E639FD15C3
:1030E000054522D406D64AD0EF00F05B054429CD31
:1030F0002A891307300281461146F5452685C535D4
:103100002AC6554431C18357A900CE8601462314EF
:10311000F10091472315F10085472300F500B247E0
:103120002C002685A38007003247FD572301F700B6
:103130003247A301F700EF00F04C2A8411C5324555
:1031400097100020E780A0732285B2502254925439
:103150000259F24945618280411106C60D3119C5F7
:10316000B24041011713002067006371B240410172
:103170008280011106CE2AC6EFE0F0283245FD57C5
:103180009145A384F1802384F18023AE018423A0A0
:103190000186973700202385A748EF20806CF240F6
:1031A00005616F10105393970501C18763D807120B
:1031B0007971173500200345A54622D44AD006D69A
:1031C00026D22E89EFE0DFC02A8449CD03470500CF
:1031D0009307000A6315F70885474C08A305F1001B
:1031E000EFE0302EAA8405ED8347610171476374D7
:1031F000F708138717FE1377F70F9306000263F3A0
:10320000E608858BC5C79387C1859C43994481CBCC
:10321000035524001306B1004C088297AA84834703
:10322000B10099C7084409C597100020E7802065C0
:1032300095E05247B7070001938707F07D8FB707E6
:10324000120093870710630CF70003476101ED47F5
:103250006317F700035524008545EF20405522856C
:10326000EFE07FB0B250225421653345A90092545B
:103270000259456182803707301405073357F7003C
:10328000058B41D313870186184351DB0347510156
:1032900059F72306F10099472308F100035524004C
:1032A0006C0023170100EFE0B04095BF93870186C3
:1032B0009C439DC3035524001306B1004C0882971C
:1032C00039DDAA8483475101B9FB83476101230893
:1032D00091002306F100D9B79944EDB701458280EA
:1032E0000145828083D705006387A70083D7450007
:1032F0006395A70091052E85828083D78500A1055F
:10330000E38BA7FE8145C5BF05CD83472500054753
:10331000890793F7F70F6375F702411122C406C6B8
:103320002A8483550500034535000147F9465D466B
:10333000F134F9572311F400B24022444101828054
:1033400082800145828093857181930700028546C2
:103350002380F500FD57238BF180A385F180238521
:10336000F180239AD1802392018623A4018623AA87
:10337000018623A601861386C18097870100938763
:10338000A70E5CC223830186971700209387075CF2
:1033900009472300E6002380E7002388E700238015
:1033A000E7022388E702178701001307270BD8DB02
:1033B0000D472384D700D0C7238CD700238CE70286
:1033C000178501001305C50A138741981786010068
:1033D00013068608978601009386060AD8DFC8C3BD
:1033E00023950700D0CB239D0700CCCFD4D32384D3
:1033F00007022395070223A60702239D070217074A
:1034000000001307670C971700209387275823A005
:103410000700D8C323A407008280411106C6D9350E
:1034200011C503452500B240410182800145E5BF39
:10343000411122C426C24AC006C6AA842E893284FB
:10344000553509E94165CA857D15693DC54711C5F1
:1034500023109500230185008147B2402244924405
:1034600002493E854101828039E3894835476391AD
:103470001605011106CE22CC26CA034716000346C4
:10348000060093C7F7FF2207598EF18F32C69DE3DE
:10349000C4452A84A685513732460147630EA600EB
:1034A00022856244F240A685D244056151B72D477A
:1034B0003A85828013070008F2406244D2443A857C
:1034C0000561828083C8050009486394080303A846
:1034D00045008347180003480800A207B3E7070127
:1034E000C2070D68C18713082890639407018947B4
:1034F000A5BF0545828003C7B1809307F00F630A1B
:10350000F70441114AC02A89294522C426C206C6A9
:103510003284AE84EFE0FF871DC59307100B2310A4
:10352000F500230205002314850022442311250100
:1035300023139500B24092440249AA8503C5B18085
:1035400041016FE0FF8FB2402244924402494101A1
:1035500082808280411126C2AE849385419822C424
:1035600006C62A845D3D098901C922852244B240EC
:10357000A6859244410181BEB24022449244054551
:1035800041018280411122C426C24AC006C6AA84D3
:103590001304450013090504835704008DC3084430
:1035A00009C597100020E780802D2285314681458E
:1035B000EFE0DF9E3104231A04FEE31F24FDB24036
:1035C0002244FD572390F400024992444101828035
:1035D000938701879C4303D707006300A70283D624
:1035E0000704138707046388A6001387070883D797
:1035F00007086396A7003A8582803E87EDBF0147A2
:10360000DDBF938741879C4399C703D74700E31CDD
:10361000A7FE8847828001458280411106C6D537C2
:1036200009C50845B240410182800145E5BF01114D
:1036300026CA9384450022CC4EC606CE4AC852C440
:1036400056C25AC0268781490144814681471545A3
:10365000035607005DCAC1E20354470083572700A1
:10366000B286A297C207C18385093107E392A9FEFA
:103670002DC42E8922859305700497100020E780C1
:1036800020122A8B39C9814A014A8C4485C503D648
:10369000440033054B0197000020E780407483D736
:1036A000440088443E9A420A135A0A0197100020A7
:1036B000E780E01C63870A00314681452685EFE0FC
:1036C000FF8D850AB104E3C23AFD23266901231464
:1036D0008900054521A0630DD6000145F2406244F2
:1036E000D2444249B249224A924A024B0561828041
:1036F00003562700E313F6FE035647003294B297B1
:103700004204C2074180C18385B70545E35835FDB2
:1037100085B79387C1869C4399E30145828098478A
:103720000357A700E319A7FE1385470082804111C4
:1037300006C6C53711C503550500B2404101828058
:103740000145E5BF411106C6E93711C5034525000E
:10375000B240410182804145E5BF411122C42A8423
:103760002E8506C6C537AA8505462285EF30E07747
:1037700095476305F500BD476313F5002145B24049
:10378000224441018280411122C42A84090506C6CF
:10379000EFF00FF4FD57A301F400B24022444101C1
:1037A000828003D7819AAA876303A70203D7E19A8D
:1037B0006301A70203D7419B01456319F70009453F
:1037C00099473305F5029387819A3E95828001459A
:1037D000C5BF0545F5B7411122C4416406C626C2DE
:1037E0009307E4FF630CF500AA8491ED5D3F19E5B2
:1037F0001305F4FF7D3719C123109500B240224410
:1038000092444101828085476392F504593F2A849E
:1038100075D5FD572310F500834724001307F00FDB
:103820006383E7021307E00F638AE7000345340070
:103830000147F9465146A685EFF04FDC2285A137B6
:10384000FD572301F400230204004DBF8947E3978D
:10385000F5FA8545EF30300155F1268599372A84F0
:1038600045FD69BF5D71A6C24EDE86C6A2C4CAC050
:1038700052DC56DA5AD8AE8483C52500F947AA89A6
:103880006394F504393F2A8409ED01442285B6404A
:10389000264496440649F259625AD25A425B616103
:1038A0008280834725000547890793F7F70FE37E5A
:1038B000F7FC034535000147F9460146CE85EFF098
:1038C000EFD32285C935D1B783AA0400B707000119
:1038D000938707F037071200B3F7FA0013070710B2
:1038E000328A6389E7022EC66D3D2A89B24505C535
:1038F000034645000DC293178601E187E3C707F829
:103900004E85EFF0AFD78347490093E707F82302CE
:10391000F900A5BF014903C761819307F00F19445E
:10392000E306F7F6E147E3E3B7F693D71500FD1793
:103930008E071777010013076759BA9703A8070086
:10394000E30608F403AB4700E3020BF4C20A93DA80
:103950000A0163850A00C947E39AF5F283D6440059
:10396000904483C5140003C50400380802982A84D3
:1039700011FD2C084E85029B2A8421C983C714009F
:10398000E39607F083C72400230AA10039472308E0
:10399000F1006399E7026247834717000347070076
:1039A000A207D98F0C084E852319F100EFE0405093
:1039B000E30D05EC14080546D9454E85EFF06FD7A9
:1039C0002A84E9B583578101F1BF83C6240091475A
:1039D000E38DF6EA38080146CE8503C56181EFF034
:1039E000EFC12A84E31405EA83C524002808EFF018
:1039F0000FB919C123000A009840B7070001938747
:103A000007F07D8FB707120093870710E30FF7E6E3
:103A1000E30D09E683C724002302F90085BD0111E7
:103A200006CE2EC6BD3B01CD83474500B245138768
:103A300017006396E50093F707F82302F500F240BC
:103A4000056182809387C186984319E3014615A8D2
:103A50001C4703D8A700636B050183584700B38652
:103A600008016355D5008146639416011843F1BFE0
:103A70003E86C10703D3A7FF6317A30099C1239014
:103A80000501328582808506C206C182F1BF397187
:103A900052D42E8A4ED69305E101AA89528522DCA2
:103AA0004AD856D206DE26DA328936C63AC4BE8AEB
:103AB000513F054435C5AA840355E1013944EFF06F
:103AC0005FB439CD03284500630C08042247B24691
:103AD000D6874A86A6854E8502982A8431E19307C7
:103AE000E00F638FFA0203C704008947631AF702E5
:103AF000D8408347170003470700A207D98FC207A2
:103B00000D67C18713072790639CE700834719005F
:103B100003460900D285A2075D8E4E85EFF0BF9D5A
:103B20002285F2506254D2544259B259225A925AC2
:103B300021618280797122D4035425004ECEAA8956
:103B4000228556CA06D626D24AD052CC5AC85EC65C
:103B500062C4AE8AEFF0DFA701E92285EFE0D0056D
:103B6000594421E90144B1A003C789008547AA84CB
:103B700001446319F702AA8513858900EFF03FAB72
:103B800021CD03D7640083D68400D04483D544007C
:103B900003D52900E147E53DD9472A846318F5029A
:103BA00023A604002685EFF0FF9D41C0D947E30B13
:103BB000F4FA2285B250225492540259F249624AD0
:103BC000D24A424BB24B224C4561828061DD83D7A1
:103BD00044002390FA00F9B713894400014A914B3D
:103BE000594C154B83550900D5DDE14763067A0131
:103BF0000357C90011C3D947035729008356490009
:103C00000326890003D5290059352A8463198501C3
:103C100023240900050A3109E3166AFD61B77DD93D
:103C2000835709002390FA00F5B703D529003DB763
:103C300001112317C1009307E00F1306E1000147AC
:103C4000894606CEA935F24005618280797122D479
:103C50002A840355850026D2AE849305210106D619
:103C60004AD0CD336308050E8347850093F70702DA
:103C700095CF2AC603552101EFF03F9AAA87B24596
:103C800001ED8357840039452390F400B25022544B
:103C90009254025945618280035524004946829717
:103CA00011C5835784002390F400CDB70359240035
:103CB0004A85EFF0FF9111ED41657D15EFF05F91C1
:103CC00019E58357840025452390F400C1B72310DC
:103CD00025011307450081479546035607002DE649
:103CE0003147B387E702130984003146CA8591073B
:103CF0003E9597000020E780800E3146CA8548082F
:103D000097000020E780A00D0356C400035524004F
:103D100041478146DD45EFF08FAC2ACE19E5835748
:103D2000840045452390F40095B70C480356C40021
:103D300097000020E780A00A035524004C08EFE01C
:103D4000606329D5594599B785073107E397D7F8B7
:103D5000254581BF0545B1B7797122D42A84035521
:103D6000850026D2AE849305E1014AD006D6328979
:103D7000D13949C58347850093F70702A1E7034777
:103D800014019307200519E3834744008356A400D8
:103D9000504483558400035524000147CD39AA8738
:103DA00021E98347140199E703552400EFE0A05768
:103DB000D94711E18147B2502254925402593E85AD
:103DC000456182802AC60355E101EFF01F85AA876D
:103DD00005C9B2450355240049468297AA8745D1B3
:103DE000035784002390E4000347140161F7E1B70F
:103DF0005947E317E5FE230009006DBF8547CDB79E
:103E0000B947F9BF397122DC4AD84ED652D406DE02
:103E100026DAAA892E8A32C63689EFF09F9809449D
:103E200015C5834725001307E00FAA845D44638FFF
:103E3000E7001307F00F5944639AE700324605E2A2
:103E4000D2854E85EFE000582A840DCD2285F250B0
:103E50006254D2544259B259225A21618280035588
:103E60000A009305E101231F0100E93E0355E1012A
:103E7000EFF05F8DAA8505464E85EF3000072A8456
:103E800061D1E9B79307F00FE302F9FC93862400B0
:103E90007946A68517F5FFFF13054547EFF08F829A
:103EA000A381240165B739719387C18626DA8443DB
:103EB00052D45AD05ECE62CC06DE22DC4AD84ED630
:103EC00056D266CA2A8BAE8B328C368A99E08149EB
:103ED000B9A0804483DC44000149835AA4006314E0
:103EE00099018440E5B78357A400A28963F867016C
:103EF00005094209135909014104D5B7E3EAFBFE5C
:103F0000630C0A00834504004840D28662863AC6A4
:103F1000EFD07054324769DD19C323105701F250B6
:103F200062544E85D2544259B259225A925A025B77
:103F3000F24B624CD24C2161828003D7050083D6BC
:103F40002500854763E8E60431C7411183C6450073
:103F500026C29384550022C426862E84177501003C
:103F600013050551894506C6EFD0F04EC14709CD6E
:103F700083464400835524000355040001472686E8
:103F80001D37814711E1A947B240224492443E8542
:103F9000410182803E8582802E860355060083D5AE
:103FA0002500854763E1A50219CD834646004111EE
:103FB0000147150606C6C53D814711E1A947B24034
:103FC0003E85410182803E8582802E860355060013
:103FD00083D52500854763E1A50219CD83464600B8
:103FE00041110147150606C67D3D814711E1A947EC
:103FF000B2403E85410182803E85828039714ED635
:1040000083D7250083D9050006DE22DC26DA4AD8CC
:1040100052D456D25AD05ECE62CC66CA6AC863EF1A
:1040200037178547638D0914416BAE8A2A8A23149A
:10403000010002C6014401497D1B894B054CC94C56
:10404000054D83D52A000147814601464E8523133D
:104050000100913DAA846300051209EC13072002B8
:10406000930661005A8695455285EFE05FF72A84F2
:10407000630805120357810083C7040045C703473F
:10408000A100630CA70741476385E7022C00528516
:10409000EFD0707709CD34001546D9455285EFE051
:1040A0005FE911C5324597000020E780407D8147D8
:1040B000F9A083D7A4004146130524002300F4008F
:1040C00083D7A400A183A300F400CC409700002074
:1040D000E780E0D04904835781008507C207C18388
:1040E0002314F10063F9270983D7A40063856709C6
:1040F0008509C20993D90901A9B7E39977F983D74B
:10410000A4000946130524002300F40083D7A4006B
:10411000A183A300F400CC4097000020E78020CCCE
:10412000110455BF22C60359610003C7A40013053B
:104130002400638277033359990323057101230017
:10414000E40083D7A4004146A183A300F400CC403F
:104150001379F90FA5BF230581012300E40083D75C
:10416000A400135929001379F90FA183A300F400C7
:104170000946CC4055B78357810089FBA947F250C7
:104180006254D2544259B259225A925A025BF24BAB
:10419000624CD24C424D3E85216182808547C5B735
:1041A000C547F1BF13F7050201C7B2856FF0EFDA1B
:1041B000411126C24AC006C622C413F98500AA844A
:1041C00063170900139785016187635D07023285D4
:1041D0003684EFF02FD7AA85054663130900014600
:1041E0002685EF20905001E90145B24022449244D7
:1041F00002494101828083479400E5DB83478400C4
:10420000E5F7E5B793F72500E5F30D45F9BF7971BB
:10421000AE8622D42A8403D506009305E10106D692
:1042200036C6EFF03F8201CD83458500B246035686
:10423000E1012285853FB2502254456182800545C7
:10424000DDBF13F7050201C7B2856FF00FD1411131
:1042500022C426C206C693F485002A8491E41397EB
:1042600085016187635007023285EFF0AFCDAA85E3
:10427000054691E0014622852244B2409244410124
:104280006F20B04693F72500014591E30D45B240FC
:1042900022449244410182807971AE8622D42A84DC
:1042A00003D506009305E10136C606D6EFF08FF977
:1042B000B24619C9834585000356E101228551376D
:1042C000B2502254456182800545DDBF797126D206
:1042D000AA840355A500C16722D44AD04ECE06D683
:1042E00023170100FD173284B6890149630DF500DB
:1042F000050583C60400D04042051307E100418153
:10430000EFF07FBA2A8983C60400D040894517752B
:1043100001001305E515EFD010141DC503D4A4004A
:104320002285EFF0CFC009C57D142A944204418054
:104330006384090023908900B25022544A85925424
:104340000259F2494561828083C60400D040894504
:104350001775010013050512EFD0F00F61F183C648
:104360000400D0408945177501001305E50EEFD014
:10437000900E19C9E30609FA8357E100E39287FA20
:104380000354A9007D145DB703D4A40055B7397157
:1043900022DC26DA4AD84ED652D456D25AD062CC33
:1043A00006DE5ECEBE8983C785002A8AAE84C18BB5
:1043B000328C36843A89C28A468B9DE783CB0400CF
:1043C0008947638BFB046285EFF0AFA31DC183288F
:1043D0000500638008025A88D6874E87CA862286DF
:1043E000A6855285829839A03285EFF00FA3AA875F
:1043F00011ED3945F2506254D2544259B259225A01
:10440000925A025BF24B624C216182802946A6855A
:104410005285829745D5F9BFD84083471700034797
:104420000700A207D98FC2070D67C18793060790BF
:10443000638FD72063CCF60693062780638CD70C56
:1044400063C1F60213070780E3CFE7F62D45E39338
:1044500009FADC4403C60700CC432310C9002285B7
:1044600051A213073780E390E7F62D45E39409F84E
:1044700085472310F900DC44814583C707002300EA
:10448000F40003D5A400050542054181EFF08FDB60
:10449000835709006314051291072310F900114690
:1044A000814513051400EFD07FAF21A2930627901A
:1044B0006380D71863CDD712930637906389D718D6
:1044C00013074790E391E7F02D45E39509F2DC44AB
:1044D0001D472310E90003C707002300E40003C7BA
:1044E0001700A300E40003D727002301E40003D74B
:1044F00027002183A301E40003C747002302E4004F
:1045000003D76700A302E40083D76700A1832303D6
:10451000F40045A02D45E39F09ECDC446C0083C901
:10452000170003C70700A209B3E9E90011472310E8
:10453000E90083C707004E852300F400DC4483C7ED
:104540001700A300F400EFF0EFCFAA842DC50356A7
:10455000C100C1659306E100FD158329C500BD3387
:1045600019ED83C60400D040894517750100130575
:1045700065F0EFD0406E01E5FD572317F10003C74A
:10458000090089476310F70283A54900094613050E
:10459000440097000020E780808483570900890742
:1045A0002310F9008357E1002301F400A183A30144
:1045B000F400014581B523173101EDB7034705002C
:1045C0008907BA972310F9008357A500A300F400C8
:1045D0008357A500A1832301F400034605004C4145
:1045E0001305340097F0FF1FE780607FD9B7C844F8
:1045F000EFD0FF9B93170501C1832A871D45E3EB8D
:1046000037DF6399F90023100900CC4403560900F1
:10461000CE95B1B54207B3863A01418363C7E60040
:10462000B38737412310F900CDB723105901F1BFEB
:104630002D45E39109DCCC445285EFE01FDE2310C9
:1046400079012300A4002181A300A4009DB72D457A
:10465000E39209DADC442310790183C707002300C1
:10466000F400DC4483C71700A300F40099B75D7120
:10467000CAC02A89035525004EDE52DC56DA5AD8C4
:104680005ED662D466D26AD06ECE86C6A2C4A6C2F8
:104690002E8BEFD00070130CF5FF931D0C01C16B36
:1046A000AA8A8149138A019993DD0D01938C818631
:1046B000138D4186FD1B8357C90063F6F90083D72C
:1046C000019963CC87010355290093850199EFD0A7
:1046D000103AAA841DCDD9442DA8832789001397A9
:1046E00019009305E100BA9703C4170083C70700B8
:1046F00022045D8C2285EFF0EFB4AA851DE923101A
:104700008B0003254A00854409C597000020E780F7
:104710000017B6402644268506499644F259625A47
:10472000D25A425BB25B225C925C025DF24D6161E7
:1047300082808348490083A60C000356E10003559C
:1047400029006E8881476A87EFF07FC4AA8411C56B
:1047500023108B0003254A0045BF83274A0085E3C9
:1047600003552900514781465E86BD45EFE03F87EE
:1047700023AAA19809E523108B00C54459BF83D70C
:10478000019903D741863E976347570113C7F7FF47
:1047900056972392E18603254A0083A50C0003D691
:1047A00041863E9597F0FF1FE780606383570A00BC
:1047B00003570D008509C209BA972398F19893D938
:1047C0000901D5BD397122DC2A840355250006DE96
:1047D00026DA4AD84ED652D45AD05ECE62CC66CAB9
:1047E000AE8B56D2EFD0E05A2A8A8346C400835556
:1047F000A4000355840078001306D400930CBAFF7C
:10480000651AEFF04FEA420A416B2A898144135A34
:104810000A01138C8186938901997D1B6302090427
:1048200063D094058348440083260C000356C100DE
:10483000035524005288814713874186CA85EFF0CB
:104840001FB515C5814A0356C1008355A4004A858A
:104850009306E100EFF09FA72A8963990A065DFDA0
:10486000E1EC8357840029452390FB0035A80356CB
:10487000040183D74186E317F6FC83250C004848E2
:10488000EFD0EFF761D183A7490095EF03552400DE
:10489000454781465A869D45EFE06FF41DE18357F9
:1048A000840045452390FB00F2506254D254425993
:1048B000B259225A925A025BF24B624CD24C21619D
:1048C000828023AAA198835AA900B5BF83A7490073
:1048D000A69723805701938714001397070183A796
:1048E0004900418393DA8A00BA97238057011387DE
:1048F000240083A649009387340042079104418332
:10490000C207C204C183C180369711CD8356E1002E
:104910002300D70003A74900BA970357E10021837A
:104920002380E700E5BDFD562300D70003A749001B
:10493000BA972380D7002DB703552400898093852B
:10494000019923989198EFD0A07839DD5945A9BFF6
:10495000411122C406C693F705012A84328585C316
:10496000EFE05FDEAA8505462285EF2000589547D7
:104970006305F500BD47631DF502214515A893F7B2
:10498000450099CBEFE01FDC0546AA85228522442D
:10499000B24041016F20605593F7050489C7EFE0ED
:1049A0007FDA0146DDB713F515001335150006054E
:1049B000B24022444101828079714AD04ECE52CC1D
:1049C00006D622D426D22A8AAE89014983D7490045
:1049D0006364F9000145A1A083A70900131419001D
:1049E000930414003387970003470700A29703C579
:1049F000070022079305E100598DEFF0AF8405E928
:104A000083A7090005453E94034704002380E7007F
:104A100083A70900BE9403C70400A380E700B25037
:104A2000225492540259F249624A45618280834578
:104A300085000356E1005285213F05C183A7090087
:104A40003E94034704002380E70083A70900BE9437
:104A500003C70400A380E700D9B705094209135929
:104A60000901ADB7011122CC2A8403D505009305B5
:104A7000E10006CEEFE01FFD19C98345850003560E
:104A8000E1002285F135F2406244056182800545EE
:104A9000DDBF397126DAAA840355250006DE22DC43
:104AA0004ED652D456D25AD05ECE62CC66CA6AC8AE
:104AB0002E8A4AD8EFD0E02DAA8A83C6C40083D5B7
:104AC000A40003D58400138CAAFF78001386D400B9
:104AD000EFF06FBD420CC16CAA890144135C0C015C
:104AE000138B4186938B8186FD1CED1A138D0199E2
:104AF000638E09180356C10083C5890003D52400BD
:104B0000813D2A89631F051683C8440083A60B00D4
:104B10000356C10003D5240062888147138741866C
:104B2000CE85EFF0DF862A89631D05141DC803D7E3
:104B30004186110783D721996395E700A29763C641
:104B4000570783D721993354F40203D52400938562
:104B5000019923988198EFD000752A891DC1594980
:104B60000DA003D52400494781466686C545EFE080
:104B70000FC723AAA1980DE583D7A90045492310A3
:104B8000FA00F25062544A85D2544259B259225A1C
:104B9000925A025BF24B624CD24C424D21618280B0
:104BA00083570B0091072399F19883274D0003D772
:104BB000A9009306E100A2972380E7009307140061
:104BC0001397070183274D0041834E85BA9703D77A
:104BD000A90021832380E7000356C10083D5A400E8
:104BE000EFF0CFEE1307240083264D009307340027
:104BF000420711044183C2074204AA89C18341804C
:104C0000369739E1FD562300D70003274D0083A5D1
:104C10000B00BA972380D70003254D0003D64186A9
:104C2000229597F0FF1FE780801B83570B003E946F
:104C300042044180E31704F083D784002310FA0074
:104C4000E31109F4294935BF8356E10083A50B0020
:104C50002300D70003274D00BA970357E1002183B3
:104C60002380E70003254D0003D64186229597F067
:104C7000FF1FE780C01683570B003E94420441801B
:104C800085BD83D7A9002310FA006DB701495DB730
:104C90005D71A6C2CAC0AA840359850003552500C8
:104CA000A2C44EDE56DA5AD85ED662D466D26AD034
:104CB00086C652DC6ECE2E8BEFD0A00D930BD5FFA7
:104CC0007115931905010144138DD40093D909017D
:104CD000138C4186938C8186938A0199635C74134B
:104CE00083C6C40083D5A4001307E1006A864A8501
:104CF000EFF06F9BAA8D630F05100359A500834544
:104D000085000356E10003D52400EFF07FC463184B
:104D1000051083C8440083A60C000356E10003D5A8
:104D200024004E88814713874186EE85EFF02FE6F9
:104D30006317050E1DC483D7418603D721998907C0
:104D40006304F70683D721993354F40203D5240072
:104D50009385019923988198EFD0404115C1594519
:104D600005A003D5240041664D4781467D16A54523
:104D7000EFE0EFA623AAA1981DE123102B014545E2
:104D8000B640264496440649F259625AD25A425BCA
:104D9000B25B225C925C025DF24D6161828083575E
:104DA0000C0089072399F19883D74186A29763D392
:104DB000770783A74A0003D7AD00130A2400A29700
:104DC0002380E70005049317040103A44A00C1836C
:104DD000420A3E9483D7AD0083A50C00135A0A0102
:104DE000A1832300F40003A54A0003D6418652950F
:104DF00097F0FF1FE780A0FE03540C00C167FD176A
:104E0000529442044180E30BF9EC0509420913591D
:104E10000901E9B529451DF423102B0195B76DDC77
:104E200015B741677D176310E5027D572390E500B4
:104E3000238105002392E500238305002394E500E8
:104E4000238505008280411106C6EFE0AFC911C578
:104E5000FD572310F50023010500B2404101828077
:104E600001114AC806CE22CC26CA85472A896392F8
:104E7000F5044A85EFE0CFF531E9C1649385F4FF8D
:104E80001307E1008946176601001306265D0545F4
:104E9000EFF06F812A84FD1405C44C444A855137D4
:104EA0000356E10022858146A685EFF02FC22A84B1
:104EB000E5B789476396F5008545EF20C01A55D9B7
:104EC000F2406244D244424905618280EFE08FEBB8
:104ED0006DB7411106C69387819A7D572393E700EA
:104EE0002394E7007D57D8C7795723850700238887
:104EF000070098C32382070017F5FFFF1305C59627
:104F0000EFE0EF8717F5FFFF1305A5B1EFC0105BCA
:104F100017F5FFFF1305658CEF20600CB2400145CB
:104F200041018280011106CE2AC6EFF0502AEFE03F
:104F30008FC1324593057004238301982385A18096
:104F4000FD571305000C2392F1982394F1982396B2
:104F5000F198238501982387019897000020E78026
:104F6000208423A8A1869307050C7D572310E50014
:104F7000231205002326050023180500232C050015
:104F8000231E0500232205022314050223280502FF
:104F9000231A0502232E050213050504E398A7FC36
:104FA0009387A18083C70700F2401705000013050F
:104FB00065EB238BF18005616F20600293970501FB
:104FC000C18763DB0732797103C5A18022D452CC3B
:104FD00006D626D24AD04ECE2E8AEFC07FDF2A8454
:104FE00039C5034705009307000B631FF702854788
:104FF000A304F100938781869C4323150100B9E344
:10500000EF00807A9305700497F0FF1FE7804079E6
:1050100023A4A18605E98347910099C783454400ED
:1050200013058400EFE04F932285EFC0DFD3B25029
:10503000225421653345AA0092540259F249624A2A
:10504000456182806146814513850199EFC01FF556
:1050500003494400894793890199631FF906035561
:1050600024001D47DD47636BA70013171500971732
:1050700000209387A75BBA9783D707009385019990
:105080002398F198EFC090730357240083D70199B8
:105090008356840011ED63E4F6002314F400835575
:1050A00084003A85EFD01FEE2285EFD09FE5A5B7AB
:1050B00063E4F6002314F40083578400D9450D46B9
:1050C0002398F198938601993A85EFD09FE68D4514
:1050D00061DD13850199C1A09947631AF90293050F
:1050E000A1002285EFF00FEEAA845DDDD94763951C
:1050F000F40E0509035524001379F90FD945938659
:1051000001994A86EFD0FFE2CA8559DDD9B7A14798
:105110006318F9009305A1002285EFF07FB7E9B786
:10512000A947631DF906035584006C00EFE09F91C9
:10513000AA84630905140355240041669306E1001F
:1051400055477D16AD45EFD09FE923AAA198AA86C1
:105150003DCD834844000358E1000356C100035588
:105160002400A68581474E87EFF06FA2AA84631AB8
:10517000050E03552400CE85EFD02005E30605F289
:1051800003552400CE862D46D945EFD09FDAE30D96
:1051900005F0AD454E85EFD03FFC39B7B1476319F7
:1051A000F90E035584006C00EFE0DF89AA84630BDD
:1051B000050C0355240041669306E10059477D160E
:1051C000B545EFD0DFE123AAA198AA8629E9835744
:1051D0008400C5442315F10003471400D147E305BB
:1051E000F7EC8347440003552400938501992388F5
:1051F000F1988357A1002399F198238A9198EFC0E1
:10520000304BE30305EA03552400938601990546D4
:10521000D945EFD01FD2E30905E885455DBD834838
:1052200044000358E1008357A4000356C10003550E
:105230002400A6854E87EFF08F95AA841DE10355C3
:105240002400CE85EFC0107EE30005E60355240060
:10525000D945CE863546EFD0DFCDB545E30605E42A
:105260008DBDD9476393F400814403A5490097F0AD
:10527000FF1FE780C060E38904E2835784002315A1
:10528000F10099BF8357840085442315F100A9B725
:10529000B9476318F9009305A1002285EFF02FBDEF
:1052A000A1B5C1476318F9009305A1002285EFF06D
:1052B0004FFE1DBDC947631AF900130691009305FF
:1052C000A1002285EFE05FA905B5D947631DF9006C
:1052D0009305A1002285EFE07F97AA84E31805E0FB
:1052E000A3040100D1B3E147E310F9DC9305A10069
:1052F0002285EFE03F84CDBB01458280F1CA0111D8
:1053000052C42E8A854522CC4EC656C206CE26CA27
:105310004AC8AA8AB6893284EF10F054D14715C121
:1053200083C7018883C61188814419E0B684BE868C
:1053300013878187184393974400BA9763EDD4008D
:10534000D547F2406244D2444249B249224A924A85
:105350003E85056182803E89C10703D727FF09C7C3
:10536000850493F4F40FD9BF31CC9305C004130521
:10537000000297F0FF1FE780A0422326A90069D111
:1053800013060002814593840404EFC03FC123113A
:105390009900230009002313590105C8171700209D
:1053A000130747288347940010432304F900118C06
:1053B0008327C90011841180238E870023A029012F
:1053C000814741B723260900E9B723044901FDB706
:1053D00085473E85828093878187984383C501886E
:1053E00081476395F5008146368582800356270004
:1053F000BA8619C2E30AA6FE850793F7F70F41079D
:10540000CDB793878187984303C601888147631589
:10541000F60081463685828083552700BA8689C585
:1054200083454700E388A5FE850793F7F70F4107FB
:10543000F9BF971700209387E71E984383C53188EB
:1054400081476395F50081463685828003560700C3
:10545000BA8619C2E30AA6FE850793F7F70F41073C
:10546000CDB7938781879C4303C811880147631593
:10547000E80081463685828003D62700BE8619CA99
:1054800003D667006318A600D04709C60356260056
:10549000E302B6FE05071377F70FC107C9BF411135
:1054A00022C4404526C206C6AA8415C0484409C580
:1054B00097F0FF1FE780A03C484809C597F0FF1F01
:1054C000E780E03B228597F0FF1FE780403B268581
:1054D00041468145EFC09FACB2402244FD57A384B2
:1054E000F400924441018280011122CC2A840355A8
:1054F000250006CE2EC6EF10F00A324622858145E1
:10550000EF00D06722856244F240056149BF05C5BE
:1055100003572500411122C406C62A8409CBDD4564
:10552000EF00B06922852244B24041018DBFB240F4
:105530002244410182808280411126C23147930476
:10554000C5FF3387E402971700209387270F06C60D
:1055500022C43E978356A7006397B602484305C509
:105560003E849307F00F6306F60083470500639CB3
:10557000C70097F0FF1FE7808030B147B387F40280
:10558000A29723A20700B2402244924441018280A4
:10559000411122C42E8426C24946AA84814522850F
:1055A00006C6EFC0BF9FADC083C7C40113974700B5
:1055B00097170020938707079C43BA9703D70700E4
:1055C0002310E40003D7270083D767002311E400EA
:1055D0001387E187035707002312E40003D7040071
:1055E0002313E40003D724002314E40003D744006A
:1055F0002315E40003D764002316E40003D78400D6
:105600002318F4002317E400B240224492444101DD
:105610008280971700209387E70003A807009387ED
:105620008187904383C50188014781476394E500E2
:105630003E8582808346060081CE544691CA83C649
:10564000C6019206C2966315D500850793F7F70F3A
:1056500005071377F70F4106D1BF130600643386A1
:10566000C50293069500AA8517050000130565EA93
:105670006FC03FD3411122C406C62A84034595005A
:10568000EFC01FE3FD57A304F400B24022444101E0
:105690008280011122CC4AC84EC652C456C206CEE0
:1056A00026CA2A89AE890144138A81879D4A83C705
:1056B00011886361F4046396090293898187130A50
:1056C000F00F83C701886365F4061144A144228565
:1056D000050442041306F00FCA854180B13DE3186A
:1056E00094FEF2406244D2444249B249224A924A6C
:1056F0000561828083270A0093144400BE9483C707
:1057000004009DC383D76400639027036396590107
:1057100003D52400EF10006926854E868145EF00F1
:10572000F0452685EFF0BFD705041374F40F41B799
:1057300083A7090093144400BE9483C7040095C353
:1057400083C79400638F470183D76400639B27015D
:1057500026850D372685D145EF0030462685EFF0AA
:105760001FD405041374F40FA9BF41677917630AA6
:10577000E502411122C406C685472A846398F500D4
:1057800022852244B2408145410121B78947639671
:10579000F5008545EF10300D65D5B240224441013A
:1057A000828082809D45F5B503D5E1878280011115
:1057B00006CE2317A1002316B10003C7C187854772
:1057C0006318F70070009305E1000545EF10703491
:1057D000F24005618280A947631CF60483C7150067
:1057E00003C70500A207D98F2310F50083C7350032
:1057F00003C72500A207D98F2311F50083C75500E1
:1058000003C74500A207D98F2312F50083C775008F
:1058100003C76500A207D98F2313F50083C795003E
:1058200003C78500A207D98F2314F50001458280A4
:105830000545828091476314F60283C7150003C7AC
:105840000500A207D98F2310F50083C7350003C7D1
:105850002500A207D98F2311F50001458280054557
:1058600082809387C5FF93960701C1820D476360CD
:10587000D70231473387E70297170020938707DC69
:10588000BA972381A7002390B7000145828009457C
:1058900082807115239FA1862381B1882382B188DC
:1058A00082801105420541119305C004418106C65D
:1058B00097F0FF1FE780C0EE11C5B240F1554101DE
:1058C0006FB0907EB2404101828041119717002055
:1058D000238CA7D41306000317150020130505D643
:1058E000814506C62380018823810188A381018820
:1058F000A3800188238E0186A38E0186A38201885E
:10590000239F018623AC0186EFC04FE9EF10805240
:1059100017150020034585D51DCD9305C00412053C
:1059200097F0FF1FE780C0E717170020232CA7CEB2
:105930001DC197170020938767D383C717001716D9
:1059400000200346A6D28145A380F188A381C188A7
:105950001206EFC0AFE49387118883C707001715BD
:105960000020034525D49305C0043E951375F50F1B
:105970002380A188120597F0FF1FE78060E223AC27
:10598000A18649C103C6018812068145EFC00FE117
:1059900093878187984383C60188814725077D5671
:1059A000639BF604DD47B240171700202310F7C8A9
:1059B00017170020231DF7C617170020231AF7C654
:1059C000171700202317F7C6171700202314F7C650
:1059D000171700202311F7C617170020231EF7C43E
:1059E00017170020231BF7C417050000130525D83F
:1059F00041016F10C05E85072300C70093F7F70FC2
:105A0000410779BF23800188A380018861BF4111CC
:105A10009397050126C206C622C4C187AE8463DE01
:105A2000070817150020034525C0EFC06FBA2A8468
:105A300039C903470500930700096313F7040347B7
:105A40001500CD476319F70603452500971500207B
:105A500083C5C5B983C72188930664000146014701
:105A60002E886319E50219C22381F18883C7218832
:105A700081CB854517150020034505BBEFC0CFDE60
:105A80002285EFC04FAE2165258DB240224492445D
:105A90004101828003C60600B29713F6F70F937791
:105AA000F80F6374B6009377F60F05071377F70FB7
:105AB000890605467DB72125E1B793F71500014515
:105AC000E9D7EF00906B19C983C7218881CB854541
:105AD00017150020034545B5EFC00FD913C51400B5
