:100000006F00400097510020938141CE178100205E
:10001000130141FF13058013973500209385857EDA
:1000200017460020130606F163FAC5008322050077
:1000300023A0550011059105E3EAC5FE17A50100AF
:10004000130505AF974500209385C5FB13860195E1
:1000500063FAC5008322050023A055001105910510
:10006000E3EAC5FE13850195976500209385450356
:100070006377B500232005001105E36DB5FE9302FB
:10008000800873A00230970200009382220293E25C
:1000900012007390523097220000938282FF739077
:0800A00012347300203000004F
:1000A80000000000000000006F00D0366F00B0367E
:1000B8000000000000000000000000000000000038
:1000C8000000000000000000000000000000000028
:1000D8006F009034000000006F0030340000000012
:1000E8006F00D0336F00B0336F0090336F00703300
:1000F8006F0050336F00A1506F00103300000000F4
:100108006F00B0326F0090326F0070326F00503263
:100118006F10F04B6F001032000000006F00B0311C
:100128006F0090316F0070316F0050316F003031C7
:100138002303048095472303F4802302A48082804C
:1001480083076480E3CE07FE23030480828083074D
:100158006480E3CE07FE0345448082808307648081
:10016800E3CE07FE2302A4808280411126C44AC23E
:100178004EC006C61377F50BAD47AA892E8995445C
:100188006306F70019456D37653F8D444E854D3739
:10019800FD59FD1463983401B240A24412498249C2
:1001A80041018280135509011375F50F453F220956
:1001B800CDB7011126CC06CEB70408005137154536
:1001C800853F713769372AC6A53F3245058901C978
:1001D800FD14F5F47D55F240E24405618280014545
:1001E800DDBF397126DC4ADA4ED852D656D45AD2F7
:1001F8005ED006DE62CEB7E700E083AB071022C60A
:1002080003AB471023A0071023A20710130770059C
:10021800B71700402380E704130780FA2380E70418
:1002280083C74704130975FFB689E2071379F90FE5
:100238008546AA8AAE84328A37240040E18701576E
:1002480063FA26016308D500894613070002631381
:10025800D5000157D98F93F7F70F371C0040114786
:100268002302FC042303E4801305F00FD135C93DB4
:10027800094763692711B7070700BE943787070046
:10028800795963FFE402B3873401636BF702A94726
:10029800639AFA0663940900014915A0A6850945E1
:1002A800E935050A0345FAFFFD198504453D6385CF
:1002B800090093F7F40FF5F7ED3D2A8961DD49351B
:1002C800B7170040130770052380E704130780FA67
:1002D8002380E70403C747044A85418B2382E70448
:1002E800F250B7E700E023A0771123A26711E25488
:1002F80032445259C259325AA25A125B825B724C2A
:1003080021618280A5476394FA06056A9307F00F76
:10031800B3863701B3F9F400B69993C7F7FFB3F979
:100328003701FD8CC16A056C9307FAFFE58F99E3E5
:1003380063FC4901135A4A00C147E3E747FFA9BFD5
:100348008567416AFD17E9B71305800D63085A01EF
:100358001305000263048A0113051008A6853135C8
:10036800893D2A8931FDD294B3894941D1B7A685FF
:100378002D45E53BD299E3013AF3050AC93BA30FA2
:10038800AAFED5BF9387FAFF93F7F70F6360F70AC2
:1003980003475C04B70708001377070219E3B78718
:1003A80007007959E3FEF4F033873401E3EAE7F014
:1003B80089476393FA0493D92900D54AE38E09EC57
:1003C800A68509455D33110A0327CAFF91472320F3
:1003D800E48003076480E34E07FE23035481FD177E
:1003E800EDFBFD1991046385090093F7F40FE1FF14
:1003F800C9332A8961D5E1B58547E383FAF4A6852F
:100408002D45A5334E899304F9FFE30709E88133A5
:1004180093F7340091EB8326048003270A0093079F
:100428004A00E39EE6E83E8A2689F1BFB54763960F
:10043800FA001305900BED3985B5B1471305B00ADD
:10044800E38BFAFE9947639EFA02A6852D45313B58
:1004580001498D4AA149E53963165901832704806A
:100468002320FA000509E31839FF8327048013972E
:100478002401635507002312FA0039BD2322FA002C
:1004880021BD9D476391FA0281451305B004F139F6
:100498009D447D596D39B3079A002380A700FD1448
:1004A800E39A24FFD5BBA1476396FA02194549315F
:1004B80041390545B539014581C88547130500050A
:1004C8006384F4001305C003513909454139D53116
:1004D8002A89F5B3E3820ADC7159D5B30357C503FA
:1004E8009727000083C78726636CF700834785003A
:1004F8002308050093C747002304F50005458280BB
:10050800411122C42A844165130525F506C697B012
:1005180000E0E780C07069C18347A5002315F50096
:100528008327840FCDE3232CA40E232EA40E854706
:10053800231EF402232605008347B4001441231325
:10054800F5000347A4009387170295832302E5006B
:100558001727000013078740184B1043FD1793F720
:10056800F70F90C25043938606021307070223A28F
:10057800C6FE032687FE23A4C6FE0326C7FE23A6BF
:10058800C6FE032607FF23A8C6FE032647FF23AAA5
:10059800C6FE032687FF23ACC6FE0326C7FF23AE8D
:1005A800C6FEC5FF0345B40019C99727000083D7C5
:1005B800A72C8507172700002310F72C0145B24008
:1005C8002244410182808327C40FC8C78357C403CC
:1005D800232EA40E8507A9BF83478400230804009F
:1005E800094593C747002304F400D1BFB7F700E0DB
:1005F80003A707D16D9B23A8E7D003A707D15D9B6D
:1006080023A8E7D0730050101727000013070735F9
:1006180083472700858B89E783474700858BEDDB78
:100628008280972700009387A7302166B74502008C
:1006380094431308300281477D169385A5D4172566
:1006480000001305A531985E21831377F707631D12
:100658000701CCCA814703474500058B09E70347D3
:100668003500058B6DD38280850793F7F70F13F755
:10067800870075D3D0CAC5B7972700009387472B43
:100688002166B745020094431308300281477D165E
:100698009385A5D4172500001305452C985E218362
:1006A8001377F707631D0701CCCA81470347450045
:1006B800058B09E703470500058B6DD38280850705
:1006C80093F7F70F13F7870075D3D0CAC5B7B7F7F5
:1006D80000E003A707D16D9B23A8E7D003A707D1A4
:1006E8005D9B23A8E7D0730050101727000013075D
:1006F800E72683471700858B89E783474700858B63
:10070800EDDB82804DC12A870145C5C1B307E040B2
:100718008D8BBA97C207C18313074003636CF70434
:10072800172700001307072A084317270000130795
:10073800E7281443638AA6040357650029E303578F
:100748004500636EF702B306F74021466370D60290
:100758001041938687001D8FAA96611790C2239235
:10076800E6002393060014C12312F5002313B500F5
:1007780021058280172700001307872475B70841D1
:1007880013172500E34807FA97270000938707FB0C
:100798009C5B014599CB411106C605458297B2403D
:1007A80001454101828001458280828059E9828029
:1007B8008C436368F50663E6A506138887006360C3
:1007C800050B239307006386D702972600009386BC
:1007D800261F9442638FF6008356670099EA835672
:1007E800470083D747000CC3B697A1072312F70029
:1007F800BA8798436305C706972600009386461C68
:100808009442630ED70483566700B1EA83D6470043
:10081800035647001843A106B2962392D70098C3FF
:100828008280139825003E87AE8763480802972781
:1008380000009387A7F003A3070363020302094597
:100848000283972700009387E717944397270000B0
:100858009387C71690430147B687E3EBC7F48280B6
:100868003D432A876373C3029377F700BDEFADE575
:10087800937606FF3D8ABA960CC34CC30CC74CC787
:100888004107E36BD7FE11E28280B306C3408A06B4
:100898009702000096966780A6002307B700A30674
:1008A800B7002306B700A305B7002305B700A304C4
:1008B800B7002304B700A303B7002303B700A302BC
:1008C800B7002302B700A301B7002301B700A300B4
:1008D800B7002300B700828093F5F50F9396850043
:1008E800D58D93960501D58D61B79396270097020C
:1008F800000096968682E78086FA9680C1171D8F3B
:100908003E96E374C3F8A5B793770502BDCBB71736
:10091800004003C7A700118B21C3B71700409306F7
:1009280070052380D704130780FA2380E7047D89A4
:100938002394A7000100010001000100238007049F
:100948002380D7042380E704854637270040A30384
:10095800D780238007048280130770052380E7046B
:10096800130780FA2380E70403C7A700136747002B
:100978002385E7009307004B01000100FD17EDFFF9
:1009880069BF93770504E1DBB717004003C7A700E9
:10099800418B31C37D8913660504DD477D1563F1FD
:1009A800A706B7170040930670052380D7041307DE
:1009B80080FA2380E7042394C700010001000100A6
:1009C8000100238007042380D7042380E7048D4691
:1009D80037270040ADBF130770052380E7041307CE
:1009E80080FA2380E70403C7A7001367070123855C
:1009F800E7009307007D01000100FD17EDFF59BFD7
:100A0800B7170040930670052380D704130780FAB0
:100A18002380E7042394C7000100010001000100BE
:100A2800238007042380D7042380E70489463727D7
:100A3800004031BFB717004003D587004205418108
:100A48009377050491EB9377F5013755E801130582
:100A580005803345F50282809377050C130700045F
:100A68006397E7009377F50137459C1CCDB721655F
:100A7800130505D08280F947B387F502E1469355FF
:100A88001600130780703E06AE97B375D50233552E
:100A9800D502B385E50241677D17798E798DAE97CA
:100AA800C2075D8E93057005B71700402380B70411
:100AB800930580FA2380B704C8DB03C717031367BD
:100AC8000708A388E702D0DB03C7170313670704E7
:100AD800A388E702238007048280914763EEB70268
:100AE80017970100130707848A05BA959C41BA979E
:100AF8008287B717004003A7470B1345F5FF698F97
:100B080023AAE70A03A7070B698F23A8E70A03A705
:100B1800070A798D23A0A70A8280B717004083A609
:100B2800470B1347F5FFF98E23AAD70A83A6070BAD
:100B3800558D23A8A70A83A6070A758F23A0E70A5D
:100B48008280B717004003A7470B498F23AAE70AFB
:100B580003A7070B1345F5FF45BFB717004083A64A
:100B6800470B1347F5FF758F23AAE70A03A7070A60
:100B7800598D4DB7B717004003A7470B498FEDB7FD
:100B8800B7F700E0C8439C47828081473737004069
:100B9800A14663C4C700328582800345B740E38E0F
:100BA800A6FE3385F5000345050085072304A74005
:100BB800CDB7411122C406C62A84AD3D2947B307E3
:100BC800E502B2408D83B3D7870222449507B3D795
:100BD800E70237370040C207C1832316F7404101B7
:100BE8008280716541111305052006C6D937B737CC
:100BF8000040130770F82381E7400D47A381E740C1
:100C080013070004A380E74005472387E740B24065
:100C18004101828001A001A001A001A001A001A0C2
:100C280001A001A001A001A001A001A001A001A0B4
:100C380001A001A001A001A001A001A001A001A0A4
:100C48009387C1959C43411106C691C382979387A8
:100C580001969C4391C38297174700200357A788A2
:100C68009307C01263F7E70403D541809306B012D7
:100C780063E4A6049386819503A306006307030033
:100C8800B2401305C012410102830507098F33855D
:100C9800A740E5473305F5024207418309839307D7
:100CA800F7FF3E953345E5021375F50FB240410154
:100CB800828013054006DDBF0145CDBF03A845006E
:100CC800411126C206C622C48347180003480800FB
:100CD800A944A207B3E70701C2070D68C187130833
:100CE80028906396070385473284EF50B024AA847E
:100CF80019ED938741959C4399CB0345140003470D
:100D080004002205598D1335150005058297B24058
:100D1800224426859244410182802D453DEBD841ED
:100D2800411122C426C206C683471700034707009D
:100D3800B684A207D98F0D67930697A13284639C66
:100D4800D702FD3D9737002083C7C7796376F50042
:100D5800973700202388A77885472390F400973792
:100D6800002083C727782300F4000145B2402244BD
:100D7800924441018280130787902945E398E7FE52
:100D8800CC4589472390F40009462285EF10205965
:100D9800E9BF828083474500858BBDC7011122CCFE
:100DA8002A8403552500938581A906CEEF50501358
:100DB800058939C503552400014781460546ED4597
:100DC800EF50004F2AC60DCD973700209387072391
:100DD80083D7A70201462C002314F1008547231569
:100DE800F1009737002083C7E76F2300F50003550C
:100DF8002400EF60E06909C5ED452800EF50C062A6
:100E0800F240624405618280828041654111938588
:100E180081A97D1506C6EF70004EB24097360020B6
:100E28009386C62241469545173500201305051DB2
:100E380041016F70804123AAA1948280411122C48C
:100E480006C6854709446313F50283470600014433
:100E58002388F194173700200347C7686378F700A1
:100E680017050000130545F3EF90C06C2285B240CA
:100E780022444101828085476303F50209C9094775
:100E88006304E5020D476308E50209458280973748
:100E9800002083C727652380F5000145828093875A
:100EA800019583C70700C5BF9737002083D7A715CB
:100EB8002390F500DDB7138781800357070023923D
:100EC800E50017370020130767138356A702035757
:100ED800A7032383F5002390D5002391E50075BF70
:100EE800411106C6B13B9737002083C7A75F637CD3
:100EF800F500973700202387A75E17050000130524
:100F0800A5E9EF902063B240014541018280416725
:100F18007917630CE502411122C406C685472A8465
:100F2800639AF50022852244B240938581A9410144
:100F38006F70603C89476396F5008545EF90005ACD
:100F480075D1B2402244410182808280CC41411156
:100F580006C6328503C6150083C5050022064D8ED8
:100F680042068D654186138875A2630A060F634899
:100F7800C804138845A26304060B634AC800938516
:100F880035A26309B60623900600294669A013888E
:100F980055A26306060B938565A2E316B6FEC14506
:100FA8001D4663EAE5064546198E63F3C7003E868B
:100FB8002390C600978501009385053989A8138871
:100FC80095A2630E060D634C060B1388A5A2630851
:100FD800060F938505A5E318B6FA99451D4663ECF7
:100FE800E502198E63F3C7003E862390C6009385F9
:100FF800018131A89D451D4663EFE5002146198E04
:1010080063F3C7003E862390C60093854196BA9540
:10101800EF10E0300146B240328541018280AD4593
:101028001D46E3EAE5FE3146198E63F3C7003E86A6
:101038002390C600978501009385C534C9BFB14583
:101048001D46E3EAE5FC3546198E63F3C7003E8684
:101058002390C600978501009385C5334DBFC145D0
:101068001D46E3EAE5FA4546198E63F3C7003E8656
:101078002390C600978501009385452E49BFC14539
:101088001D46E3EAE5F84546198E63F3C7003E8638
:101098002390C600978501009385C5308DBFC14553
:1010A8001D46E3EAE5F64546198E63F3C7003E861A
:1010B8002390C600978501009385852B89BFB54588
:1010C8001D46E3EAE5F43946198E63F3C7003E8608
:1010D8002390C60097850100938505260DBF973696
:1010E80000209386660A4146CD4517350020130532
:1010F800A5F66F7080158280938741989C4303C73B
:10110800819783C6B18201E781473E85828003D6F5
:1011180007006316A60003C66700E308D6FE7D171E
:101128001377F70FA107C5B7938741989C4303C767
:10113800819783C6B18201E781473E85828003C6D5
:101148004700631AA60003C657006316B60003C615
:101158006700E304D6FE7D171377F70FA107E1BFF9
:1011680001119305F1001305504106CEA3070100B4
:10117800EF206152F2400345F100056182800111C0
:10118800930500030D4506CEEF30A00D930500052D
:101198001145EF30000D9305C0030545EF30600C95
:1011A80085471306F100854513055030A307F10064
:1011B800EF303125F24005618280797126D293940F
:1011C8000501C18022D44AD04ECE2E84AA89328904
:1011D800014781462686ED4503D5E19606D6EF50B0
:1011E800200D2AC60DCD2286CA8523143101231568
:1011F8009100EF10C01201462C0003D5E196EF6074
:1012080020292A8409C5ED452800EF50E0212285D0
:10121800B250225492540259F249456182804D4499
:10122800FDB785476310F502938741979843914727
:101238006312F7021166130686A9894503C541CDD5
:101248006F10802189476317F500894503C541CD93
:101258006F10203782808DE185472382F18203C792
:10126800C19683C791976303F70683C70197B9CFE0
:10127800A14503C541CDB1A08547639AF5002382F6
:10128800018219E22388B1962384C198C9BF09470E
:10129800E397E5FC69F6411103D5E1962388F196B9
:1012A80006C6EF00500203C7C19683C79197630C27
:1012B800F70083C7019781CBB24003C541CDA14553
:1012C80041016F106013B240410182808280938790
:1012D800C1979C43011122CC06CE2E8481CB9C471A
:1012E80091C78297F2406244056182806C001305C1
:1012F8007040EF20413A324681452285EF20315136
:10130800D5B7797122D44AD04ECE52CC06D626D241
:101318002A8AAE8932843689013D31C1AA840355AF
:1013280025009305E100EF50B02015C94C4503D5C1
:10133800E196EF50E03A05891DC103D504004A86BD
:10134800A285A53D09ED2286CA85138571B223823F
:1013580041B3A38231B3238381B2EF00507CB250F2
:10136800225492540259F249624A456182804111DD
:101378009397050122C406C6C1872E8463D007024D
:1013880003C541CDEF00F05C19C1EF00F055A1672E
:101398003D8C2285B24022444101828093F715009A
:1013A80091CF173600201306E6DE9385C18103C569
:1013B80041CDEF30E15813441400E1BF93F74500E5
:1013C8009DC79387419798439147631FF7001785F7
:1013D8000100130565FEEF60115C83C7418289E750
:1013E80003D5E196EF303128134444005DB793F7F5
:1013F80025009DC39387419798439147631BF70046
:10140800C5341166130686A9894503C541CDEF1079
:10141800A00413442400B5BF93F78500A1CB83C76C
:101428000197B1C383C7C19603C79197630DF702AC
:10143800AD468507B3E7D7022386F196B387D7026F
:10144800138781AA93863700BA9703C6270083C5F6
:10145800170003C50700BA966D3503C7C19683C741
:101468009197E318F7F21344840025B7014415B7A0
:10147800797126D24ECE06D622D44AD052CC914784
:10148800AA84AE896314F50483D7A5001306E10086
:101498008545130550302397F196230701002388CB
:1014A8000196EF3001769387C1979C4391C7DC473B
:1014B80081C7CE8526858297B250225423AA919659
:1014C80002599254F249624A4561828013874197D2
:1014D8001843E31AF7FC914503C541CDEF10600EA0
:1014E800854503D5E1962534854503D5E196152D27
:1014F800C16703DAE196F917631AFA0205442D4623
:101508008145138541B223880196A3858182238270
:101518000182EF00D062A93131E103C78198914778
:10152800E313F7F8A93923840198B5BF9387419845
:1015380003A9070003C4819771D00355290011C975
:101548009305E100EF50C07E09C54C455285EF6018
:10155800905A7D141374F40F2109F9BF93870198E9
:101568009C4383C74700898BCDDB9305000A0D4553
:10157800EF20304F9305000A1145EF20904E81452A
:101588000545EF20104E1306E10085451305503040
:1015980023078100EF30E16649B701111705000004
:1015A800130525DD06CE22CCEF10A055138441CDBE
:1015B80085471306F10085452300A4001305404123
:1015C800A307F100EF2001337D55EF4010187D553A
:1015D800EF60504F2936EFF05F836D291705000043
:1015E800130565C4EFF03F85170500001305E5B046
:1015F800C129034504008545EF001060F2406244AC
:101608000561828023AEB19623A0A198828023A28F
:10161800B198238CA1968280938741979C437971D6
:1016280022D426D24AD04ECE06D61147AA892E8970
:101638003284B6846393E70283C70197A1CF03C7B7
:10164800C19683C791976317F7046539B25022543E
:1016580092540259F249456182800947638CE70236
:10166800013651C9930500020D45EF20903F9305BF
:1016780000031145EF20F03E95450545EF20703EEB
:1016880085471306F100854513055030A307F1007F
:10169800EF302157F1345DD983C791978507AD465F
:1016A800B3E7D70213F7F70FA38CE19603C6C196E9
:1016B8006317C70005073367D7022386E1962D47CE
:1016C800B387E702138581AA2286A6853307F5002A
:1016D8008D073E9523003701A300270123018700CA
:1016E800EF00F04383C70197B5D3A14503C541CDAA
:1016F800EF009050A1BF613471BFC841011122CCE5
:1017080006CE328403461500034505002206498E9D
:1017180019CB0D681308B8A42D45630A0607F240D3
:101728006244056182800D651308D5A46300060331
:10173800130825A2630C060175781308E85C329833
:10174800420813580801854863EF080303D5A5002C
:1017580036C632C4EFF05F9AB24615C19387C19777
:101768009C4322468345550003A30700A287624491
:10177800F24003454500368785460561028323907C
:101788000600014569BF1308B5A46315060303D60F
:10179800E1821D45E375C7F8198E63D3C7003E86FD
:1017A800CC452390C60042064182BA952285EF00B7
:1017B8001037C1BF9307A5A46318F600914723907B
:1017C800F6001146CC45DDB7930785906317F60000
:1017D80089472390F6000946F5B79307E5A4631AED
:1017E800F600DC452390160183C707002300F400A8
:1017F80049BF13057590E316A6F8D9BF011122CC8D
:1018080006CE26CA4AC82317D1002D4431EBDC4145
:101818002E89B28403C4170083C7070022045D8C95
:101828008D679386D7A46306D400938627A3631095
:10183800D4040355A900EFF03F8C19E101440DA031
:101848009387C1979C43834555000345450003A8EA
:1018580007002286A6871307E100814602982A849A
:101868002285F2406244D2444249056182809386CF
:10187800C7A46314D4028357E10005473544E391B4
:10188800E7FE0345060013040008E3EBA7FC938773
:10189800C1979C43DC43829755B793862790631A78
:1018A800D4028356E1008547EF40D0682A844DF979
:1018B800938741988356A9009C4303C781973DDFCE
:1018C80003D627006302D6047D171377F70FA10705
:1018D800FDB79387E7A4E313F4F68357E1000547C0
:1018E8003544E39FE7F60345060013040008E3E9DF
:1018F800A7F6DC452380A7009387C1979C4333351F
:10190800A0000905DC4341BF1387C197184303C5ED
:10191800470083C5570083C714000328070003C77F
:101928000400A2078946D98FC207C1870547638388
:10193800E7008D460D66A6871307E100130626907B
:10194800029839BF41654111938501B37D1506C6DB
:1019580022C426C24AC09734002093846484EF606E
:101968009019973600209386A6954146C945268545
:10197800EF60B00DCC4C2A890945EFF0CFCF9387A3
:10198800818383D70700138401B41387418323120B
:10199800F40083D7A40C03570700938501B52310DF
:1019A800F40083D7A40D2316E40003D7A410231151
:1019B800F4000D4585472303F4002314E4002307AE
:1019C800F40023150400EFF00FCBA2850D458131FB
:1019D800B24022444A8592440249410182808D677F
:1019E8009387D7A40145631FF6008D472945639B5C
:1019F800F500854735456397F6008347070001459D
:101A08002385F19882808D679387D7A4631EF6009B
:101A18008D47639BF50083C7A1982300F70085478E
:101A28002390F6000145828023900600E5BF01451A
:101A3800828031EF03A84500AE8883471800034829
:101A48000800A207B3E707010D68930EF8A463988E
:101A5800D70391473548639DF60203A5C800411195
:101A6800B285114606C6EF00900B938781999C4377
:101A780005458297B240014842854101828093081A
:101A8800289029486396170185476F40B04A2D482A
:101A98004285828041654111938581B57D1506C6D1
:101AA800EF607005B240973600209386268841463D
:101AB8009945173500201305658141016F60E0786D
:101AC80023ACA19882800111938581B522CC06CEE2
:101AD8002A84EF40F040058929C10147814605461F
:101AE800ED452285EF40C07C2AC605C9972700200E
:101AF8009387C77D83D7A70501462C002314F100DF
:101B080085472315F100230005002285EF50501862
:101B180009C5ED452800EF403011F24062440561E7
:101B2800828041677917630CE502411122C406C619
:101B380085472A84639AF50022852244B24093851A
:101B480081B541016F60207B89476396F500854523
:101B5800EF80D01875D1B240224441018280828042
:101B6800B717004003C6B70583C6870503C797059F
:101B780083C5B7051376F60F93F6F60F93E50508B8
:101B8800A38DB704BD45238CB70493051002A38C1D
:101B9800B70483C5A7051377F70F93E51500238DC1
:101BA800B70483C5A7058589EDFD03D5C705A38DB2
:101BB800C704238CD704A38CE70482804111939631
:101BC8002500AA852D4506C697200020E78020CE4F
:101BD800B240014541018280411122C426C24AC057
:101BE8002A842E89B284AA8585660146254506C6BB
:101BF80097200020E780A0CB931629002686A2858F
:101C0800294597200020E78080CAB24022449244A8
:101C1800024901454101828041119397050122C47F
:101C280006C6C1872E8463DB0700252311C16D29F1
:101C38002165218DB24022444101828093F715002D
:101C480013C51500E5FB9397250163DF0700EFE057
:101C5800500F37F60200130606E0896503C551CD1B
:101C6800EF00807F0965F1B7939715010145E3D32C
:101C780007FC177501001305E57CEF60214011662C
:101C8800130606E8916503C551CDEF00E07C1165A8
:101C98004DB71D71494697750100938525761785BF
:101CA80001001305A59E86CEEF00206F01E9177588
:101CB80001001305E575EF60014E01A0B7F700E0DC
:101CC8007957D8C77D5798CB856637E700E023203A
:101CD800D7101306701090C32320D7181306C0031B
:101CE80081454808A92D97370020938767CD3ECABC
:101CF800856793870740231CF100ED47A301F10294
:101D0800930750102312F102CD472303F1029D6778
:101D18003ECE970700009387A7EABEC49707000046
:101D28009387C7EBBEC6B5472308F102B7F507008E
:101D380097F7FFFF938707E53EDA8146970700008C
:101D4800938747E27000E10519453EDE97200020A1
:101D5800E780E0B558088147994670003E960346EB
:101D6800060085070507A30AC700E398D7FED247F0
:101D780091C70357810185676373F70001A048087D
:101D8800EF00F05BAA8501C9177501001305856985
:101D9800EF60C12E01A0F640256182804111170530
:101DA80000001305A5E706C622C4EF00905513846A
:101DB80051CD2300A4003D20034504002244B24035
:101DC80037F60200130606E08965410171A5B717C9
:101DD8000040130700032388E702854723ACF1CCB2
:101DE80073002030411106C6B7170040130770056D
:101DF8002380E704130780FA2380E70403C7F70268
:101E08005D451306A00313677700A387E7022380C5
:101E180007049305B003EFE01FC6B2400145410136
:101E28006F00907D82807D15954763EBA70A177731
:101E38000100130767610A053A951C41011106CE96
:101E4800BA9782872C0013054030EF20714C2C0084
:101E58000545EF301011177501001305E561EF60B6
:101E68008133B9A81775010013050562CDBF83D763
:101E7800A5000566130606C8914503C5E1842396A7
:101E8800F184D92B1775010013050561C9BF1775B2
:101E9800010013052561E1B783C7250011471775B0
:101EA80001001305A561E38CE7FA1947639DE70074
:101EB80083C565001775010013050562EF60011CF5
:101EC800F240056182801547177501001305856288
:101ED800E398E7FE69B7177501001305256341B755
:101EE80082803A883E8781E683460800CDBC8547D4
:101EF8006394F600C28601BE8947639EF6004111CD
:101F08001306401F894503C5E18406C6B123B240C4
:101F180001454101828001458280011193970501A5
:101F280022CC06CEC1872E8463DD070003C5E18479
:101F38000D2411C1552A2165218DF24062440561A5
:101F4800828093F7150013C51500E5FB93F745004C
:101F580099CF83C7E1841307401F81462146A145D5
:101F680003D5C184EF20311713454400F9B793F71F
:101F780025000145F9D3B7070200938707207400AD
:101F8800114685453EC6EFF02FE91306803E894588
:101F980003C5E184D1211345240045B70111170574
:101FA80000001305C5F706CE22CC26CAEF0070350F
:101FB8009384E18405442380A400700085451305BB
:101FC800503023068100EF20D1431386C1839D45FD
:101FD80013056030EF20F142172600201306C6369D
:101FE800E94513057030EF20D1411776010013063B
:101FF8002647D5450145EF3030688D47700091453B
:10200800130570402305F10023048100A305810016
:1020180002C6A3040100EF10F10D30008545130539
:102028000040EF10310D130691008545130510404F
:10203800EF10510C1306A100854513052040EF1041
:10204800710B1306B100854513055040EF10910A36
:1020580099477000854505452306F100EFE01FDE2E
:10206800EFF05F8E972500209385052D1385418419
:10207800EFF04FD903C504008545BD2EF2406244F8
:10208800D2440561828041111305F00406C6EFE0D1
:10209800BF87371700408327870A8D45130500201F
:1020A80093E707202324F70AEFE03FA3EFE07FB38D
:1020B800177501001305855DEF60E10DD93EF9390B
:1020C800EF20B15CEFF06FCDD13D8125FDBF23AC92
:1020D80005FE1C4181E70CC18280BA8703A787FFF0
:1020E8006DFF23ACB7FE82801DC18346E5FF130751
:1020F800F00F9147639EE600411106C69720002025
:10210800E78080D7B24081473E854101828095476C
:102118003E85828001E9014582800145B240224422
:1021280041018280411122C42A8421054205930578
:10213800D004418106C697200020E78060C971DD80
:10214800FD5723200500231285002303F5002105F0
:10215800F1B7174700201307A7C61C43411122C433
:1021680026C24AC006C601440149BA8489E7A16566
:1021780089291DC401A803C7E7FF631AA7020DCC6C
:10218800A1659D2C9840832784FF6319E4021747B3
:1021980000202327F7C2FD57232C04FE230FF4FE4B
:1021A8002285B2402244924402494101828011E0D2
:1021B8003E8983A787FF5DBF3E84E5BF232CF9FED8
:1021C800D9BFB9C9411122C406C62A84974700203D
:1021D80083C757BF2E856368F40039370D45B24071
:1021E80022444101828083A785FF99E703C7E5FF61
:1021F8009307F00F6305F700C53D1545CDB7238F4D
:1022080085FE174500201305A5BBD135228522443C
:10221800B240A1654101CDA21545828097470020B3
:1022280023A007BA828097470020938767BD9C4305
:1022380099E33E85828003D727006316B70003C75A
:102248000700E308A7FEDC47E5B7411193970501AE
:102258004AC006C622C426C2C1872E8963DE07008B
:10226800CD3D11C1513521653345A900B240224405
:102278009244024941018280AA860145E5D9014478
:102288003D47B3578940858B85CF97470020938773
:1022980027BB8443BD4791E28147A2978E07054536
:1022A800BE9433158500131405019C40C840418035
:1022B800829723A0040023A20400334524017DB79C
:1022C8000504E310E4FC0144CDBF97470020938741
:1022D80067B39C53411122C406C61384018595C770
:1022E800829723A8A1840840B74703009387D73F64
:1022F8003305F502B7A72600938737ECB24022448E
:102308003E9523A8A18441018280974700209387A6
:1023180067AB18409C4BBA9723A8F184E9B719C159
:10232800814799E982803387F500834607003307A0
:10233800F50085072300D700E397C7FEE5B72A967F
:1023480009E582800505A30FB5FEE31DC5FED5BFCF
:1023580081473307F5000307070019E33E858280AC
:102368008507C5BF01112E8626CAAA841315060142
:102378009305F004418122CC06CE32C69720002076
:10238800E78000A52A8401C53246A685493F2285F3
:10239800F2406244D2440561828081476314F600AA
:1023A800054582803307F5008507B386F5000347A6
:1023B800070083C6F6FFE383E6FE014582809307A4
:1023C800F6FFBE952A966313C5008280FD1583C764
:1023D80015000505A30FF5FEFDB7814711E9014575
:1023E80082803307F50003470700E31AB7FE850725
:1023F800E319F6FE054582809747002083C7979C1E
:102408006371F502174700201307479F93171500BC
:1024180008433E9583570500DD8D2310B50001451F
:1024280082800D4582809747002083C7B7996373E0
:10243800F502174700201307679C931715000843F8
:1024480093C5F5FF3E9583570500FD8D2310B50014
:10245800014582800D4582809747002083C7979663
:102468006364F50001458280411122C426C24AC036
:1024780006C62A842E89B2847D3301C504C5054564
:102488001DA09305F004414597200020E780409463
:102498000DE1974700209387E7969C5B81C7A2854B
:1024A800114582970145B2402244924402494101B4
:1024B8008280974700209387A7949C439DE3974782
:1024C800002023AFA79285472326050004C52311C2
:1024D800250123008500A300F5002322050045B748
:1024E800BA87D84775FFC8C7F9BF5DC1797122D4CB
:1024F80026D24AD04ECE52CC56CA5AC862C406D644
:102508005EC63689328AAE89AA840144974A002079
:10251800938A0A93394C054B9747002083C7B78A9B
:102528006364F4002145A9A003A70A00931B3400A3
:102538005E971C43B1EB1335F40013451500B31730
:102548008B0063768C00930714FFB317FB009395F9
:102558000701C1815286093705C983A70A000145C9
:10256800DE9784C323A2370163040900230089008E
:10257800B250225492540259F249624AD24A424B0A
:10258800B24B224C4561828005041374F40F69B77D
:1025980009458280411122C426C24AC006C6AA84BF
:1025A8002E893284553DCA852685B53909C940C169
:1025B8000145B240224492440249410182802145AA
:1025C800CDBF411122C426C24AC006C6AA842E899C
:1025D80099392A8419C123110500CA852685A13590
:1025E800014511E01945B240224492440249410193
:1025F8008280173700200347177D637DE50417475E
:1026080000201307E7831443411126C293143500B1
:10261800A696944222C406C6AA873A84094595C656
:1026280013B5F7003947134515006373F700C5174D
:102638008545B395F500C205C18161371C40014548
:10264800A69723A0070023A20700B2402244924481
:102658004101828009458280411106C6E93609C5D3
:102668000845B240410182800145E5BF9737002007
:1026780083C77775637FF504973700209387477C76
:102688009C4313173500BA979843894721C701110E
:1026980026CA06CE9334F50022CCB94793C4140059
:1026A80063F3A700451505443314A4004204418090
:1026B8002EC62685A2854D378947324609C5A2858B
:1026C8002685593B8147F2406244D2443E850561E4
:1026D800828089473E858280411106C6973700204F
:1026E80023A2A7760295B2409737002023A6A76EAB
:1026F80041018280954763E9B7008A059737002032
:102708009387476EBE9588C18280397122DC173461
:1027180000201304246D4ED606DE26DA4AD852D499
:1027280056D25AD05ECEA2891C40A9E317340020A5
:102738001304446B973400209384046C5C4091C369
:10274800829783A70900DDE71104E31994FE17397E
:1027580000201309A96A0327090017360020034639
:102768007666973400209384E46521A882976DBF2C
:10277800850793F7F70F973600202385F66463FCE7
:10278800C7009737002083C7E76393961700BA9668
:1027980083D60600F1DE9737002083C7A76263E679
:1027A800C70697370020238F076083A70900B9E37E
:1027B80097370020938707699C438DCF8297AA8A11
:1027C80015C99C48173A0020130ACA63014BAA97F7
:1027D800173700202320F760FD57173700202329DB
:1027E800F75E973700209387A761804349E08327E6
:1027F8004A02EDE7F2506254D2544259B259225A71
:10280800925A025BF24B2161828086073E97973786
:1028180000209387E75C835507009C43231007003B
:10282800173500200345055A13172500BA979C430E
:1028380082979737002083C7E75813971700832795
:102848000900BA9703D70700598D2390A70083C7BB
:102858000400850793F7F70F173700202304F7566E
:102868001737002003471756E3E1E7F41DBF184464
:10287800814763F4EA00B307574103274A021CC49F
:1028880001CBD84463F6E700173700202322F7541A
:1028980095EB835524008DE15C44631E0B021737CA
:1028A8000020232FF754832BC40022859710002083
:1028B800E780805C5E841DBF03450400353E5C40B4
:1028C80081CB1CC483572400E1DB228B404439BFF1
:1028D8001C44F9D3C5BF2326FB00F1B70326090022
:1028E8009736002083C6164E814713F7F70F636D9E
:1028F800D70683A7C900E39F07EE83A70901E39BD7
:1029080007EE83A74901E39707EE4800EFC0003AB6
:102918007D566309C50A9246173700200347B74F0B
:10292800E37AD7ECDC44638FC70403464A01058A7F
:1029380021C65146B387C702E37EF7EA63F3D7009F
:10294800BE86B7170040905F32C68C5F3246E39C64
:10295800C5FE3245198D3695B707C0A86367F502DD
:10296800B70740573E9515A085071397170032976C
:102978000357E7FF3DDBBDBD13069002B387C702CF
:1029880085835DBF636AE502198D83274A022DCDD1
:1029980082971375F50FE31F05E4173700200357D7
:1029A800A75A9307707DE317F7E4EFD06077EFD06D
:1029B800F065EFD0A0723DBDB707C0A83387E740E8
:1029C8003A95E1B7DC44E387A7E203474A01058B60
:1029D80015C75145B387A702173700200347B743E8
:1029E800E37AF7E0B7160040905E32C48C5E224668
:1029F800E39CC5FE2245198D3E95B9BF130590028B
:102A0800B387A7028583C9BF3705C0A851B741114D
:102A180006C622C426C2173400201304E45123003A
:102A28000400EF20814D61468145173500201305CC
:102A3800653B23000400EFF09F90714681451735F0
:102A4800002013052538EFF09F8F9737002023A922
:102A5800073A9737002023A7073E173400201304AE
:102A68006436F947A301F4009737002083C7473B32
:102A780013D527008D8B3E958D473305F502994771
:102A88009305100297340020938484353505137517
:102A9800F50F2301A4003305F5021305050F971060
:102AA8000020E780E0329737002023ABA738834720
:102AB80034008E073E958347240088C08A073E95D8
:102AC8009737002023ACA732EFF04FF5892E8347C4
:102AD8001400984017F6FFFF1306667793962700B1
:102AE800BA9690C2938627008507A300D40093F76F
:102AF800F70FB24022448A07BA9790C39244410123
:102B080082809737002083C7F72B173700200347A9
:102B1800872B63F3E702173700201307672C184346
:102B28009386170017360020A30ED6289396270001
:102B3800369708C33E8582809307F00FE5BF4111A1
:102B480026C2044106C622C44AC08947638C0412BF
:102B58004177658FB706002089476315D712035957
:102B68004500630109122A8419469305F00F590597
:102B7800EFF0BF8605478D476306E5104A86814515
:102B88002685EFF0CFFB1306C003814517350020DB
:102B980013054527EFF0AFFA1306C003A2851735D2
:102BA800002013052526EFF08FF79737002083D7ED
:102BB800272699E79307002017370020231AF724C0
:102BC8009737002083C7E72491E785471737002008
:102BD8002301F7249737002083C7B72391E7ED47F0
:102BE80017370020A307F7229737002083C78722CB
:102BF80091E7954717370020230EF72097370020D5
:102C080083C7572191E7854717370020A304F7208A
:102C18009737002083C7272091E7CD471737002033
:102C2800230BF71E9737002083C7A71F99E7930741
:102C38008002173700202306F71E9737002083C726
:102C4800471E173700200347171D858339E39387ED
:102C5800070517370020A300F71C8347D40191E725
:102C6800914717370020A30DF71A9737002093874D
:102C780067199C5791C78297973700202397A71405
:102C880079338147B2402244924402493E8541014A
:102C9800828003473401BA9793F7F70F5DBF41115C
:102CA800B7170040985F3AC6945F3247E39CE6FE48
:102CB800B2471737002003472716058B3EC08247C7
:102CC80031C313063033B386C702B3B7C702B9821C
:102CD800CA07D58F3EC202C4973700209387870E54
:102CE800D44B9247638DF600924763E5D70292472B
:102CF800958F3EC4924717370020232FF70C2245A3
:102D0800410182806546B386C702B3B7C702A58270
:102D1800DE07C1B719E737673D089247958FBA971D
:102D2800C9BF37876F0813070790C5BF011122CCA9
:102D380006CE2A842EC6EFF04FD9B245F240818DD7
:102D480033A5A502229562441375F50F05618280AB
:102D5800011122CC06CE2A842EC6EFF00FD7B24539
:102D6800F240818D33A5A502229562444205418136
:102D780005618280011122CC06CE2A842EC6EFF08E
:102D8800CFD4B245F240818D33B5A5022295624475
:102D980005618280973700209387C706985721CF0F
:102DA800411122C426C206C6BE84029717370020E6
:102DB8000357A7012A841DCBBA876373A700AA8784
:102DC800C207C183BA866373E400A286C206C182C1
:102DD800958F1307C003635BF700DC5491C3829798
:102DE800EFD0207697370020239187FEB240224407
:102DF8009244410182808280973700209387870020
:102E0800DC57411106C691C38297170500001305C8
:102E180045E9EFF07F8CB240014541018280011104
:102E280022CC173400201304E4FD084406CE26CA39
:102E380019E50545F2406244D244056182805C5838
:102E4800EDDB185C7DD77000854582971844B24742
:102E5800E301F7FE8357C40017350020034565FBDF
:102E68009305E0043305F50297340020938484F534
:102E78004205418197100020E78080F51737002030
:102E8800232EA7F45DD59737002083D767F8173628
:102E98000020034606F83306F6029305F00FEFF01C
:102EA8000FCA904C08449737002083D767F608C2AA
:102EB8009735002083C5E5F5B385F5021C5C89814B
:102EC8008297884C97100020E78000FB01459737D0
:102ED800002023A507F0B9BF411122C417340020F0
:102EE800130444F21C4426C206C697340020938477
:102EF80064EDADCB1C5CBDC79C4C8DE78357C4000B
:102F0800173500200345E5F09305E0043305F50285
:102F18004205418197100020E78080EB9737002019
:102F280023AEA7EA884C1DCD9737002083D747EEFC
:102F3800173600200346E6ED3306F6029305F00F38
:102F4800EFF0EFBF904C08449737002083D747EC49
:102F580008C29735002083C5C5EBB385F5021C5C14
:102F680089818297884C09C997100020E780C0F0B2
:102F78009737002023A407E6B24022449244014533
:102F880041018280011126CA97340020938484E38A
:102F980022CC804C4EC652C456C206CE4AC8AA8A13
:102FA800AE89328A31EC173900201309A9E5832745
:102FB800890099E3A94461A08357C9001735002007
:102FC800034525E59305E0043305F50242054181F3
:102FD80097100020E780C0DF2A8451C18327490366
:102FE800BDCF9735002083C5C5E2173700200357AA
:102FF80027E2B385E5022A8603258900898182971D
:1030080091451307A005898193972500A29783C648
:1030180007006393E60483C61700639C560385057F
:103028008A054E86A2955285EFF06FAF9C4C81447D
:1030380063878700228597100020E780E0E3F2404D
:10304800624426854249D244B249224A924A0561DD
:10305800828083D5270045BF9C4CE38D87F4228569
:1030680097100020E78040E1B1B797370020938799
:1030780067D9984729CB9C5FB9C785466315D5049E
:10308800411122C4173400201304C4D3104C06C6BF
:103098001DC69736002083D6A6D79735002083C54E
:1030A80045D7B385D5023A8589818297084C971010
:1030B8000020E78060DC9737002023A107D2B240C8
:1030C800224441018280828097370020938787CFEE
:1030D800984F011122CC26CA4AC852C406CE4EC601
:1030E8002A89AE8432843E8A35E79739002093894D
:1030F80069D183D7C90017350020034585D19305C9
:10310800E0043305F5024205418197100020E7806D
:1031180020CC9737002023A3A7CC2A8611E929457C
:10312800F2406244D2444249B249224A056182804F
:1031380003A5890005C183A7490389CF97350020D6
:1031480083C525CD17370020035787CCB385E50203
:103158008981829703258A0191461308A005FD55A8
:1031680093D72600C207C183139727002A970346DF
:103178000700631906038348170003562700639165
:103188002803B306D64063CB960085078A073E9589
:103198002686A285EFF0AF98014559B7A300B7007E
:1031A800B2867DBF17360020035686C697350020A5
:1031B80083C525C6B385C502338696001106E3E0AC
:1031C800C5F613863400719A1106B29623000701DA
:1031D800A30027012311D7004DBF014582800111AB
:1031E80006CE2EC6EF70801D01C9B245F2400355C8
:1031F800250005616FA02050F24049450561828095
:10320800A382019C2382019C23A6019A23A8019AE8
:1032180023AA019A23AC019A23A4019A23A2019A12
:1032280097370020938747C4930600051307400B80
:103238002391E7002397D70011672398D7009306B7
:10324800007D2392E700239DD7001307000ABD469F
:103258002393E7002394E7002391D7024147F176AF
:103268002395E7002396E7002399E700239AE700D0
:10327800239BE700239CE700938606B82394E70284
:1032880005472392D7022395E7029D46130710F8B6
:103298002396E70223900700239E0700239F070039
:1032A800239007022393D702239707027D57239879
:1032B80007022399E7028280011126CAAA842145C0
:1032C80022CC06CE2E8432C636C43AC2EFE09FE442
:1032D8001DC9A24612473246930700FD2300F50098
:1032E8009947A30095002301F5002303D500A30304
:1032F800E5002312C500AA8522856244F240D24423
:1033080005616FE01FECF2406244D244056182809F
:1033180023A6A19A828023A8A19A828023AAA19A8F
:10332800828023ACA19A8280011122CC4AC806CEA1
:1033380026CA2A890144B30489006368B400F240AC
:103348006244D2444249056182802EC6EFE0FFF70D
:1033580093170501C183A183B2452380F400930725
:10336800140093F7F70F850463F9B700CA970904A7
:103378002380A7001374F40F7DBF3E847DBFC1670F
:10338800173500200355A5ACFD176304F50241115C
:1033980017360020034646B99385C19B06C6EF60E1
:1033A800706AB240FD57173700202312F7AA41016F
:1033B8008280828009C925151375F50F1335850E8E
:1033C8001345150082800145828023800500F94756
:1033D80063E2C708797122D426D24ECE56CA5AC89B
:1033E80006D64AD052CC5EC63684B289AE8A2A8BBB
:1033F800814463FF3405B307940003CA07001389A7
:1034080014001379F90F63050A04B3072A0163C18D
:10341800F904B307240183CB07005E85613F0DC91A
:103428009307FAFF2380FA0063906B0313051900D2
:103438002295B250225492540259F249624AD24A11
:10344800424BB24B45618280D29493F4F40F55B746
:103458000145C5B701458280411126C2AE8422C408
:103468009737002023ACC79E9737002023A6B79E26
:103478009737002023A0A79E2A8441469305F00F82
:1034880026854AC006C60549EFE03FF5631E2503B9
:10349800973700209387479B884BC1457135414634
:1034A8009305F00F2285EFE05FF3854463169502DC
:1034B80022449737002093872799B24092440249C3
:1034C800C847C14541018DB5414681452685EFE094
:1034D800DFF0E31625FD6DBF414681452285EFE00B
:1034E800DFEFE30795FCB2402244924402494101D0
:1034F8008280411122C426C22E84AA8413060002A7
:103508008145173500201305259406C6EFE03FE3F3
:1035180097370020A38B979297370020A38787A01F
:10352800EFA0E01E854719C181474945B2402244B2
:1035380017370020230AF79092444101828081477F
:1035480081CD19C98547631BF50083C7550093E7EB
:1035580007FCA382F50085473E858280894763176B
:10356800F50083C7550093F7F703E5B70D4785477F
:10357800E314E5FE03C755001377F7031367070441
:10358800A382E500D1BF81478DC105C103C755009E
:103598009306000C85471377070C6308D70093063A
:1035A80000048D476303D70089473E858280411117
:1035B80022C4005D06C626C21DC8AA84085009C5D3
:1035C80097100020E780408B485009C597100020CD
:1035D800E780808A085409C597100020E780C089D1
:1035E800228597100020E780208923AC0402B2408E
:1035F800224492444101828009ED9737002083C715
:10360800C784173500201305A58581CB1385C1997B
:103618008280173500201305A58482801735002085
:103628000345A5828280973700209387E781C847A2
:1036380082809737002093872781884B828097372D
:10364800002093876780DC4B88438280972700207F
:103658009387877FD84B1C4385071CC317250020F9
:103668000345B57E9307F00F6305F50091656FE09C
:10367800BFD88280011122CC06CE2E8432C6EF60DC
:1036880070649147B245631FF5009387819B9C4303
:103698008DC303A30700630E030022856244F24032
:1036A800056102839387019B9C4381C703A347005D
:1036B800DDB7F2406244054505618280011122CCE4
:1036C8002A840355450006CE26CA4AC84EC6EF606E
:1036D800F04535C52A89834405008349C500C13DA5
:1036E8004A85EF70303703554400EF60305983C77F
:1036F800419CB1CB6399970483C5519C2685EFF013
:103708001FAE19E12382019C03554400EF60905BD2
:103718009147631FF500035744009727002083D77C
:1037280007736317F700FD57172700202311F77257
:10373800F2406244D2444249B249056182808149DB
:103748009304F00F6DB79307F00FE38FF4FA8346F5
:10375800640003564400034524004E87A685EFF015
:10376800BFB55DB779715EC6AA8B2E8552CC56CA95
:103778005AC806D622D426D24AD04ECEAE8A328B2A
:10378800368AEF60B03A69C9045D2A89F1C49C5051
:10379800614599C3130540039C5481C751054205EF
:1037A800418163050A00710542054181DC5081C7EA
:1037B800590542054181EFE0FF952A8451CD6146C4
:1037C8008145EFE0DFB79729002083C9E96C63944E
:1037D800090083490900930700FD2300F400A94765
:1037E800A30074012301F400230364018C50231205
:1037F80054011305840181C908C47146930A44031E
:10380800EFE0FFB156858C5481C948C45146930AEC
:103818004501EFE0DFB05685630A0A0008C8714623
:10382800D285930AC501EFE09FAF5685CC5089C574
:1038380048C85946EFE0BFAEA2854E85EFE07F98B5
:103848002254B2509254F249624AD24A424BB24B85
:103858004A8502594561A1BBB2502254925402597B
:10386800F249624AD24A424BB24B45618280011109
:103878004EC6AA892E854AC806CE22CC26CA2E89CB
:10388800EF60D02A31C59724002083C4E46099E012
:10389800834405001945EFE0FF872A8415C981454F
:1038A8001946EFE0DFA9930700FD2300F400B947AC
:1038B800A30034012301F40023122401A2856244E9
:1038C800F2404249B2492685D24405616FE07F8FB4
:1038D800F2406244D2444249B2490561828039715A
:1038E8005ECEAA8B2E8526DA4ED652D456D25AD020
:1038F80006DE22DC4AD8AE84328BB68A3A8ABE8982
:1039080042C6EF60B02231C92A894145EFE09F8065
:103918002A8421C541468145EFE07FA21725002072
:103928000345855719E103450900930700FD230066
:10393800F400BD472301F400B247A3007401231229
:10394800940023046401A304540123054401A3053E
:1039580034015CC4A285EFE0DF86F2506254D25491
:103968004259B259225A925A025BF24B2161828023
:10397800797126D2AA8439454AD04ECE06D622D4A9
:103988002EC6B2893689EFE0EFF815CDB245930718
:10399800000D2310F500B1472A842312B500230136
:1039A800F500CE8519051946EFE07F972306240117
:1039B800A2852254B2500259F24913F5F40F9254D9
:1039C80045616FE01F80B250225492540259F24967
:1039D8004561828017270020034737479307F00F78
:1039E800630BF706411126C2AA84394522C406C6CC
:1039F8004AC0EFE02FF22A8429C9930700FD23006B
:103A0800F500A30095002301050097250020938564
:103A180025450D051946EFE09F9017290020130949
:103A2800A94283578900A285172500200345F5413F
:103A38002315F400834719002306F4002244B240FA
:103A48009244024941016FE0CFF7B24022449244C8
:103A58000249410182808280011156C2AA8A3145F9
:103A680026CA4AC84EC652C406CE22CCAE84328A72
:103A7800B6893A89EFE00FEA29C92A842685EF60DA
:103A8800F00A1DCD03450500930700FD2300F4004F
:103A98009D47A30054012301F4002312940023132B
:103AA80044012314340123152401A2856244F24001
:103AB800D2444249B249224A924A05616FE06FF006
:103AC8001725002003457538C1B7F2406244D24437
:103AD8004249B249224A924A05618280397162CCD0
:103AE8002A8C594526DA4AD84ED652D456D25AD0BC
:103AF8005ECE06DE22DCAE8432C636C4BA8B3E8B7E
:103B0800C28A468A8359010403494104EFE08FE0E1
:103B180025C53246930700FDA2462300F5009547C8
:103B2800A301C500A30085012301F5002A841946D5
:103B380011059DCEB685EFE08FFE23066401230AAA
:103B48002401231574012317540123184401231950
:103B58003401A2856254F2504259B259225A925AFB
:103B6800025BF24B624C2685D25421616FE06FE50F
:103B78008145EFE0CFFCD1B7F2506254D25442599C
:103B8800B259225A925A025BF24B624C21618280EE
:103B98009727002083C7672B9DC74111AA8519461F
:103BA8001385C19906C6EFE08FF79385C19917254C
:103BB800002003458529EFF09F98B2401385C199ED
:103BC80041016F90503501458280411106C622C4DB
:103BD80026C217270020034757279307F00F6306CD
:103BE800F704AA842945EFE0EFD22A841DCD930774
:103BF80000FD2300F500A1472301F500A30095006F
:103C0800972700209387472483C727009385C19966
:103C18001105A30FF5FE1946EFE06FF0A2851725F1
:103C2800002003459522EFE0CFD91727002003474E
:103C3800E72185476317F7029387419B9C4381C718
:103C48009C4791C382972244B24092445D661725EF
:103C580000200345652D13060670914541016FE06C
:103C68007F93B2402244924441018280797122D4E8
:103C780006D626D24AD04ECE52CC09444DC92A89FE
:103C8800035505002E8A5144EF60406AAA8445C155
:103C98009727002083C77729FD1793F7F70F054764
:103CA80049446376F7080347C500A1476314F70042
:103CB800631F0A069C5C4544BDEB9305700413051D
:103CC800C00297000020E780A01088DCAA894D4434
:103CD80039CD1306C0028145EFE06FE6835709002E
:103CE8009386490036852391F9007146930549006A
:103CF80036C6EFE0CFE289472380F90003C5C40048
:103D0800B2460356090061159725002083C5C521D1
:103D180013351500EF80D0682A8463060A00D2851F
:103D28002685EF70807E01C42685EFF05F882285A6
:103D3800B250225492540259F249624A4561828033
:103D48009727002083C7771EFD1793F7F70F0547BE
:103D58006378F708894751C6011122CC26CA4AC898
:103D68004EC652C406CEAA89368AB2842E89EF601E
:103D7800E05B2A84D14729C9485509C59700002026
:103D8800E780800FF1452685EFE0CFDD48D4CD47A9
:103D980005CD8346C40021478147639FE600630D34
:103DA8000A000347A5010356050193062501AA85C4
:103DB8004E85EF60306DAA8703474400630F090002
:103DC800136767002302E400F2406244D244424988
:103DD800B249224A3E850561828013674700DDB7F4
:103DE800C9473E858280E14763EBA70097270020FB
:103DF8009387870706053E95035505008280416530
:103E08007D158280011122CC2A842E8526CA06CEF1
:103E1800AE84EF60A0510DCDB7470F009387F7230D
:103E2800094563E2870281450A854146EFE02FD1C3
:103E3800A685231081000A85418023018100A30102
:103E48000100EF801038F2406244D244056182805C
:103E58004945D5BF97270020A388A70C82806F808B
:103E6800F04C797152CC2A8A328522D426D24AD093
:103E78004ECE56CA5AC85EC606D662C4AE8BB28A41
:103E8800368BBA843E89C2894684EF60204A15C9B8
:103E98002A8C63140A0213774B008347450015CF19
:103EA80093E727012302FC008DEC631C0902639A47
:103EB800090205E8ED9B2302FC00832B8C03639D1C
:103EC8000B06B250225492540259F249624AD24A1D
:103ED800424BB24B224C45618280F59B93E7070128
:103EE800D1B793E747002302FC0011C81C4841469C
:103EF800A2852324FC0213058C01EFE04FC26391D5
:103F08000B02C5DC0325CC0209C597000020E78019
:103F1800A0F6F1452685EFE0EFC42326AC0271BF79
:103F2800E30D09F80325CC0209C597000020E780B6
:103F3800A0F4F1454A85C5B785C483A70B0291EB68
:103F480093057004714597000020E78060E823A07E
:103F5800AB0203A50B0209C57146A685EFE02FBC8D
:103F68006385090283A74B0291EB930570045945B9
:103F780097000020E780C0E523A2AB0203A54B020F
:103F880009C55946CE85EFE08FB905C483A78B02D2
:103F980091EB93057004514597000020E78040E3BA
:103FA80023A4AB0203A58B0209C55146A285EFE005
:103FB8000FB72254B2509254F249B24B224CCA86DF
:103FC8005A860259424BD6855285D24A624A456181
:103FD8006FF04FF9011126CA52C406CE22CC4AC846
:103FE8004EC62A8AAE84EF60603435C1AA89394545
:103FF800EFE04F922A8421CD172900200349C9E90F
:104008006314090003C909009307000D2310F40085
:10401800AD472301F4009385690013053400194660
:10402800EFE0EFAF93F71400858085882306F4004E
:10403800A306940023154401A2856244F240D244A9
:10404800B249224A4A85424905616FE08F97F2409A
:104058006244D2444249B249224A05618280938728
:10406800419A884301CD411106C697000020E78098
:10407800A0E0B24023A2019A41018280828001110E
:1040880006CE22CC26CA4AC82EC6EF60202A29CDE1
:10409800B24517290020034929E0AA840CD56314E6
:1040A8000900034905004145EFE0CF862A840DCD7C
:1040B8009307000D2310F500A5472301F50083C7DA
:1040C8005400938564001105A30FF5FE1946EFE02F
:1040D8000FA59C54A285F2405CC46244D2444A8530
:1040E800424905616FE0EF8DF2406244D244424993
:1040F80005618280797122D406D62A842EC6EF60A3
:10410800E0220DCD8346C5001147AA874945639330
:10411800E6029C5FB24599C383C567010808EF7042
:10412800C04797860000938686CC1008894522856B
:10413800EF60503AB2502254456182805145DDBF4C
:104148009727002083C777DEFD1793F7F70F0547FA
:104158006378F704894731C6411122C426C24AC090
:1041680006C6B2842E89EF60601C2A84D14715C127
:10417800630809008347450093E727002302F500F9
:104188004146A68513058401EFE06F999C481CD42D
:104198008147B2402244924402493E8541018280CF
:1041A800C9473E858280797122D406D62A842EC6D4
:1041B800EF60C01701CDB2452285230EB1006C080F
:1041C800EF702031B2502254456182805145DDBFE5
:1041D8006F604024C1671387E7FF6394E502938704
:1041E800019B9C4391EB494582804945B24022445A
:1041F800924402494101828003A30700E30503FEBC
:104208000283411122C426C24AC006C6FD172A8964
:104218002E84B2846395F5029387019B9C4391CBCE
:104228009C4381CB829711E52382219DA382919C97
:1042380075BFA6854A85EFE09FFA4DF9F5B72E853B
:10424800EF60C00E5DD1834705000D45E39027FB65
:1042580022852244B2400249A685924441016F90CA
:104268008049E14763E8A70441677D17894763846C
:10427800E504411122C426C206C6C547AE842A8475
:10428800631AF5001305C0033385A5024205418171
:10429800EF90E04D13151400172400201304C4BC3C
:1042A8002295B240224423109500814792443E85CE
:1042B8004101828089473E858280011106CE2AC647
:1042C800EFE01FF4EF00307CEF008071EF00E17B3E
:1042D800324597270020938727B7130700F02391CB
:1042E800E700238207007D57972700209387C7C3DD
:1042F800A380E7002380A700F240954505616F4041
:10430800B0225D7193970501CAC086C6A2C4A6C231
:104318004EDE52DC56DA5AD85ED662D466D26AD0FD
:10432800C1872E8963D1074A172500200345C5BFD9
:10433800EFD03FE28964416A856A797B2A84938B4E
:10434800D4007D1AA50A691B15E021653345A9002B
:10435800B640264496440649F259625AD25A425BFC
:10436800B25B225C925C025D6161828083470400DB
:104378001307200A639DE70003552400172C00202B
:10438800034CBCAC2286D285EFF0CFAE89A21307CE
:104398001009172C0020034C3CB96397E716834794
:1043A800140015476390E7022285EFF02FB12285AC
:1043B800EFD09FD317250020034505B7EFD07FD94D
:1043C8002A8459B739476397E71603554400631998
:1043D80055050C4483C90500639B0900850581C9FF
:1043E8001946172500201305A5A7EFD05FF3172757
:1043F8000020034767A585476318F710638A0900FB
:1044080097270020238207A44E85EFF0AFDC45B73D
:104418008947172700202309F7A2EF90802F41BF73
:1044280093872400631AF50683298400638E090C98
:1044380083C709008DE383C7290003C71900A207B2
:10444800D98F172700202315F7A083C7390017270E
:104458000020A30BF79E172700200347E79E8947F4
:104468006314F70A83C7090081CB97270020238D9F
:10447800079C03C5090051BF8D479725002083C5B8
:10448800B59C172500200355A59C17270020230D50
:10449800F79AEF40700CF1BF938754006318F5004A
:1044A8001C4403C50700EFF04FF211B7B3076501CD
:1044B800C207C1831147636FF7009387419B9C43F1
:1044C800E38707EE9C43E38407EE22858297E31097
:1044D80005EE1DA89387B400631FF5009387C19A62
:1044E8009C43E38607EC9C43E38307ECA285138592
:1044F800B4008297E9BF9387C4006310F5021C4497
:1045080083C70700E38507EA9307F00FE301FCEA96
:10451800A2856285EFD0FFCA71BD9387E400E315D9
:10452800F5FE9387019B9C43E38307E8DC43A28560
:10453800E9F3B5BD3D476397E70403554400E3023B
:1045480075FF93879401E30EF5FC93873401E31D0F
:10455800F5FA9727002083D7878F639E47019387B3
:10456800019B9C43E38507E4DC43E38207E4A285DF
:1045780013853401BDBF9387819B9C43E38907E280
:104588009C43E5B71307E003E390E7F8834724006B
:1045980005476396E70E83476400138D419AF1E35C
:1045A80083270D00D5CB03CC0700A1490345740030
:1045B800930C8400E685EFE01FFD83474401A303C5
:1045C800A400835804010358E400035744002A86D2
:1045D800034534003EC283572401E686E2853EC087
:1045E800CE87EFF0AFCF8347340095E7DD47835898
:1045F80004010358E40083467400835544003EC216
:10460800835724013EC06687CE8705466285EF60E2
:104618006002A301A40083270D0081C71145EFF0B4
:104628001FA403C5419CE30405D883C5519CEFE052
:104638001FBBE30E05D68346340093071003638A35
:10464800F600035644004E8783C5419C3685EFE04B
:10465800BFC62382019CA1BB171C0020034CFC7E13
:10466800A9B79387419B9C43171C0020034CFC7DF2
:1046780091498DDFDC439DDB0145829705BF2947C2
:10468800639DE70883476400138D419AADEB832748
:104698000D00ADC303CC0700A14903457400930C7A
:1046A8004401E685EFE03FEE83470402A303A4003C
:1046B8008358C4010358A401035744002A860345BC
:1046C80034003EC28357E401E686E2853EC0CE87C9
:1046D800EFF0CFC0834734009DFFDD478358C40106
:1046E8000358A40183467400835544003EC283578F
:1046F800E40109BF171C0020034C3C7571BF938768
:10470800419B9C43171C0020034C3C749149D1D712
:10471800DC43C1D70145829749B70947639DE70044
:104728009387C19A9C43E38407C8DC43E38107C8A5
:1047380022858297ADB92D476399E7009387C19A7F
:104748009C43E38607C69C47D5B70D476397E700A8
:1047580022868D450355440005B91947E396E7DAE3
:104768009305610113051031EF00813A2C081305F8
:104778002031EF00E1390356640083578101035566
:10478800440063E8C700835684000357610163F758
:10479800E60093050002EF80907C11B96374E6008F
:1047A8002313E40063F4D7002314F4000357C40070
:1047B8008356A4000356840083556400014881474A
:1047C800EF80B079EDB693F7150081CF9387C19A42
:1047D8009C4389C7DC4399C3014582971345190057
:1047E80085BE93F7250081CF9387419B9C4389C75A
:1047F800DC4399C3054582971345290091BE93F779
:1048080045000145E38607B49717002083C717645E
:10481800B5C7FD1793F7F70F17170020A308F7621E
:10482800B1EF9387819A9C4391CF85471717002052
:10483800230EF7609387419B9C4389C7DC4399C348
:10484800054582979717002093870760C8472C086B
:10485800EF8000002808EFF0AFB397170020938788
:10486800A76083D727029145171500200345C56B1C
:1048780017170020A30CF75CEFD0BFD413454900ED
:10488800C1BC411122C42A84554506C6EFF0AFD5F4
:10489800B335A00022852244B24041016F80F06800
:1048A800797122D406D68D472E84631FF50003D76D
:1048B800A50083D6850003D665000345340083D55B
:1048C8004500EFF06F9909A889671387D70063102F
:1048D800E50403C5250019E58547B25022543E85F5
:1048E800456182809387419A9443FDD603C636007A
:1048F80083C50600814802C202C0014881470147BA
:104908009106EFF0AF9D0545EFF06FF5F1B713870E
:10491800E7006314E5000945C5BF13873701631A2B
:10492800E50003C525004DD901478146014681456B
:1049380049BFE507E302F5FA41677D178147E31EA2
:10494800E5F803C75500C947E318F7F883D6E5002B
:1049580003D6C5000355840083D5A500EF80B06158
:1049680021C15D45EFF02FC83335A000231EA100FB
:1049780083454400035524007008EF50100E8357F8
:10498800C101B9FB0357E4008356C4000356A400D1
:1049980083558400035524000148EF80105A2DBF29
:1049A8008547231EF100E9B7C1671387E7FF639DB9
:1049B800E5009387419A9C4395C383C707000D4739
:1049C800639CA7006F80B056FD1749476396F500B2
:1049D8009387419A9C43FDF73A8582804947EDBF0A
:1049E8002383019C23A6019C23A4019C97170020E4
:1049F8009387C74A170700001307472498C3170768
:104A0800000013076727D8C3170700001307675765
:104A180098C797170020938727491707000013079F
:104A2800E7F898C3170700001307C7E7D8C38280C1
:104A3800011122CC1384C19C1C4006CE26CA4AC848
:104A48004EC652C499CF2E8AAA84014908406312DF
:104A58009902630C0A0497F0FF1FE780E04123A640
:104A6800019CF2406244D2444249B249224A05615B
:104A7800828093194900B3073501884709C997F01F
:104A8800FF1FE780603F1C40CE9723A407001C400F
:104A9800CE97C84709C997F0FF1FE780E03D1C4043
:104AA800BE9923A60900050955B745DD13964400AC
:104AB8008145EFD0DF88144081477D5613F7F70F03
:104AC800E37197FA1397470036972300C7008507C5
:104AD800F5B7011152C4138A819C83270A0006CEB8
:104AE80022CC26CA4AC84EC656C25AC0C9CF2A893D
:104AF800014419ED9387C19C944399CA03C6619CEC
:104B08002A8481479305F00F13F7F70F6367C708E7
:104B1800131534002105EFD0EFDFAA8401E9214500
:104B2800EFD04FDFAA8421C501444D49930700FD0A
:104B38002380F4008547A38024012381F400A38106
:104B480084004DC41389840023A224018149938AD7
:104B5800C19C130BF00F83C7619C63F3F90031E824
:104B680083270A00A68503C50700EFD08FE5814596
:104B780003C5619C753D03250A0097F0FF1FE78078
:104B8800A02F23A4019CF2406244D2444249B24976
:104B9800224A924A024B0561828013974700369752
:104BA800034707006305B70005041374F40F85076E
:104BB800A1BF83A70A0093954900BE9583C7050046
:104BC800638267032300F90083C7150013052900D2
:104BD8007D14A300F900194689051374F40FEFD06A
:104BE8000FF42109850993F9F90FB5B723A2040039
:104BF80085BF411122C406C62A840DE10945EFF09C
:104C08008F9E2A868545171500200345E531EFD08C
:104C1800BF840545EFF0FFC62A8411C985451715DD
:104C2800002003456530EFD0DF9922855D35B2401D
:104C3800224405454101828089671387B700631ABA
:104C4800E5009387819C9C439DC39C4503C5070051
:104C58004DB71387C7008147631CE5009C4503C512
:104C68000700854711C59387819C9C43F5F38147CD
:104C78003E8582801D7186CEA2CCA6CACAC8CEC681
:104C8800D2C4D6C2DAC05EDE62DC66DA6AD86ED614
:104C9800630D0524834735002A8A8DCB40411DC406
:104CA8005945EFF04F9493178501E1873EC40149B8
:104CB800938A819C9389C19C930C000D354D054BBB
:104CC800930BF00F83473A006361F902F64066449C
:104CD800D6444649B649264A964A064BF25B625C78
:104CE800D25C425DB25D25618280830784022247DF
:104CF80063C1E72883A70A00A5CB83470400638A1A
:104D0800670703468400930694009305F10105455F
:104D1800EFE0AFEB814719C18347050083460400E4
:104D280011476380E60203A70A008D460347170070
:104D38006309D70099C711C705C9631F67038D8B1E
:104D480085C703451400130C2400E285EFE0BF83F8
:104D5800A300A40083A70900AA84814D95E7034610
:104D6800040091476318F60C83A709006393072092
:104D7800CDAA814701455DB78946E317D7FE858BE4
:104D8800C1B7850D93FDFD0F83C7619C03A509007D
:104D9800E3F7FDFC93974D003E9503470500E302BA
:104DA80077FF03471500E31E97FC1946E2850905BE
:104DB8003EC6EFD08FDEB24769D583A4090003470A
:104DC8000400BE94C9DC9147631AF708C84405C5B6
:104DD80083478400034605006304F608034704007C
:104DE8009147631CF708C84419C597F0FF1FE7806F
:104DF800A00823A60400034584009145050597F003
:104E0800FF1FE780E0FC15C1034704009147631FBB
:104E1800F706C8C483478400930594000505A30FCB
:104E2800F5FE03468400EFD08FCF83478400639656
:104E380007121DBF83A7090085DB83C5619C014755
:104E4800E304B7F2BE84C10703C507FF630A750B05
:104E580005071377F70FEDB788C4F1A8884485BF15
:104E6800930594000505EFD04FD3E31965F7554531
:104E7800EFE07FF76303050EC5BD88442DDD97F08D
:104E8800FF1FE78060FF23A40400B5B788C459B7A3
:104E9800231095012301A5018347040019469305B2
:104EA8002400A301F5008307840215052303F500F8
:104EB80083471400A30FF5FEEFD06FC603468400A6
:104EC8002386C40005C21385440188C8930594004D
:104ED800EFD0EFC483A70A00A68503C50700EFD06B
:104EE8004FAE41A823A80400F5B79387819C9C4343
:104EF800E38E07DCEFF0FFBD0145EFF09F98F9B3B3
:104F08002380C40083471400E28513852400A3800E
:104F1800F4001946EFD0AFC0034584008D45050560
:104F280097F0FF1FE780C0EA15C1034704009147C7
:104F3800E314F7F2C8C48347840093059400050579
:104F4800A30FF5FE03468400EFD06FBD83478400AE
:104F580089E783470400E39967E183A70A00E385AB
:104F680007E0034584005105EFD0CF9AAA84E311E6
:104F780005F20509130494021379F90FA1B37971A5
:104F880006D622D426D24AD04ECE52CC56CA5AC8B9
:104F98005EC655CD83473500AA8985C7444195C06B
:104FA8005945EFE05FE4931A850193DA8A41014994
:104FB800138A819C130B00FDC14B83C73900636DB5
:104FC800F900B250225492540259F249624AD24A24
:104FD800424BB24B456182808387F40063C4570714
:104FE80083270A00A5C35145EFD0CF922A8439C937
:104FF80023006501A30005002301750183C7040090
:10500800194693852400A301F5008387F40015054C
:10501800A306F50083C71400A30FF5FEEFD02FB049
:1050280083C78400938594001305C400A305F40086
:105038001946EFD0CFAE83270A00A28503C5070023
:10504800EFD02F980509C1041379F90FBDB79387DD
:10505800819C9C43BDD7EFF0DFA72254B2509254F5
:105068000259F249624AD24A424BB24B0145456164
:105078006FF03F819717002083C737EBA18B171577
:105088000020130565E291E301456FE0CFA84111C7
:1050980022C485452A8403C5619C06C6EFF05F9942
:1050A8009717002083C777E8A98BB5C71715002085
:1050B8001305C5DE2383819CEFE08FA51384C19C73
:1050C8001C4091C74D45B24022444101828003C52E
:1050D800619C19E10145C5BF9D45120597F0FF1F69
:1050E800E78000CF23A6A19C71DD03C6619C120650
:1050F8008145EFD0CFA4104083C6619C8147FD5500
:1051080013F7F70FE378D7FC13974700329723007C
:10511800B7008507F5B701452383019CEFE04F9F52
:1051280055BF9387819A884301CD411106C697F0F0
:10513800FF1FE78060D4B24023A4019A4101828016
:105148008280011122CC06CE8D472E846316F50687
:1051580003C73500E94703D545006318F7009717DB
:10516800002083D7C7CE6385A706EF50201C09C54A
:10517800835764002317F5000357A400835684005F
:10518800035664008355440003453400EFE0DF8C88
:10519800035744009717002083D767CB6308F700AD
:1051A8008547F24062443E8505618280FD571717A6
:1051B8000020231EF7C8EDB78967CD07631DF500EA
:1051C80083C7250031476385E7004547E39AE7FC35
:1051D800EFE0EF9AF1B741677D178147E313E5FCEC
:1051E80083C655004947E39EE6FA83C54500035543
:1051F8002400300023140100EF50000155B77971E5
:1052080022D41384819A1C4006D626D24AD005455A
:10521800ADC70D45EFE03FBDAA841145EFE0BFBC27
:105228002A899305F1011305F041EFE0C0460347D1
:10523800F1019717002083C747C1B336F00019C79B
:105248000D4789466384E700B336F0001C4036C634
:1052580003C5370093854700EFE06FAE1040B246B4
:105268002A878348B6000348A600930746000346EA
:105278002600CA852685EF80404AB25022549254AF
:10528800025945618280FD57238AF1842398019C45
:1052980023AC019C23AE019C23A0019E938781B679
:1052A800170700001307C70798C31707000013075D
:1052B8006736D8C3170700001307A7F498C79707DE
:1052C8000000938747E823AAF19C8280411126C2F7
:1052D8009384819A9C4006C622C485CF2A840D45B2
:1052E800EFC05FE3AA8519CD930700FD2300F50001
:1052F8008D47A30085002301F5009C4003C50700E6
:10530800EFC03FEC19C42244B240924441016FF00F
:105318005FE1B2402244924441018280797122D4F3
:1053280003544500896706D626D24AD04ECE52CCC1
:1053380013876700631EE4029387819A9C43814424
:1053480089CF18450345070015E10547A380E70005
:105358000545EF80403D19E98544B2502254268521
:1053680002599254F249624A456182808537EDB705
:10537800138797006365870403C741859307F00F78
:10538800E30CF7FC1C45114583C40700EFC09FD808
:10539800AA8579D1930700FD2300F50089472301E9
:1053A800F500F977E1173E9413341400A300950033
:1053B800A301850003C54185EFC0BFE071BFA90700
:1053C8008144E31CF4F81389819A832709004A8AE7
:1053D800C9D7184583C41700854783490700638EDA
:1053E800F4029717002083C767A6BDF70D45EFC0E5
:1053F8007FD2AA8505C1930700FD2300F5009147D8
:10540800A30035012301F5008327090003C5070020
:10541800EFC03FDBEFF0FFD081B79387819D9C43BE
:1054280085E30145EFE03F9C2A8601CA89451715A7
:105438000020034565AFEFD02F8283270A00B9A06B
:1054480003C60700938617009305F1000545EFD0C2
:10545800DFF761D983470500858BE1D70545EFE084
:105468009F989307B0032A8463FFA7025D6613061B
:105478000670894517150020034505AB130444FC45
:10548800EFD04F912398819C832709000947A38077
:10549800E7009717002083C7679B99CB97170020D1
:1054A8002386079A5DBD130600643306C502B5BF9F
:1054B8004E85EFF0BFE155B59387819A9C43011162
:1054C80022CC06CE26CA4AC8454489EB9717002045
:1054D80083C7B7A513F7570009EB49442285F24063
:1054E8006244D2444249056182801387819D1843F2
:1054F80041446DD70347070075D3858BAE842A894D
:10550800D9C783C704000547F91793F7F70FE36670
:10551800F7FC93057004314597F0FF1FE780408B37
:1055280023A4A19A4D445DD923002501A3000500B9
:105538002946A6850905EFC09FDE171700200347F7
:10554800C7908D47631DF704EFE0EF8D2C00EF70D7
:1055580020302800EFE0CFE38547454517170020A6
:105568002306F78EEFE03F881375F50F9717002095
:10557800A38EA78C01443DD15D6613060670914544
:10558800171500200345459AEFD0CF8081BFEFE083
:105598003FC42A84EF40706BE375A4F69DBFEFF01B
:1055A8001FC62A8405DDEFF0DFB70DBF411126C203
:1055B8009384819A9C4006C622C4A1C783C707006A
:1055C8000D446391A7048945171500200345C59527
:1055D800EFC03FFF9145171500200345E594239838
:1055E800019CEFC01FFE97170020A38107869C40EF
:1055F8000145A38087002244B240924441016F8054
:10560800801249442285B24022449244410182805A
:10561800411106C685476315F50683D7019DA1CBC1
:10562800171700200347878239E31307B003636B1A
:10563800F7028945171500200345058FEFC07FF84D
:105648009307006403D6019D3306F60289451715B2
:1056580000200345658DEFC03FE02398019CB240D0
:1056680041018280938747FC2398F19CCDBF9387A3
:10567800819A9C43EDD7B24003C5070041013DB76D
:105688009387819A9C43E1DF9717002083C7F789A6
:10569800918BF1D78945171500200345E588EFC0A0
:1056A8005FF2B2402398019C41016FF09FA79717C2
:1056B800002083C79787958BCDC39387819D99E1F8
:1056C8009387019E9C43D1CBFD4763EAC70811C26B
:1056D800D9C6411122C426C206C64AC0238AA1845B
:1056E800B684328495CD1389819D032509007D46B2
:1056F80081450505EFC0BFC403250900A68522869C
:105708000505EFC0DFC183250900228523808500B8
:105718002244B24092440249850541016F8020002D
:105728001389019E032509007D4681450505EFC0C3
:105738001FC103250900A68522860505EFC03FBEC7
:10574800832509002285238085002244B2409244A3
:105758000249850541016F70D07C49458280094521
:105768008280011106CE22CC26CA4AC88D4763FA28
:10577800A70009442285F2406244D24442490561A7
:105788008280170700200347276C4144E314F7FE83
:105798009307F5FF93F7F70F85462E84AA84170918
:1057A80000200349896A63EAF60695E999452800C5
:1057B800EFD09FB79145170500200345E576970779
:1057C800002023849768EFC0DFDF97070020A38FAE
:1057D80007662DC0970700202389276761BF1946F0
:1057E80081452800EFC0BFB519462C002285EFC0BF
:1057F800DFBA41F119469305F00F2800EFC03FB416
:1058080019462C002285EFC05FB925F5A2851946F7
:105818002800EFC0DFB0014471BF0144E31CE5F884
:105828009707002093874762C8472C00EF70400213
:105838002A8449B799E0014435BF2800EFE04FB505
:105848002A8449F98D47E398F4FE4545EFE0AFD93E
:105858001375F50F97070020A38AA75E69DD5D66BB
:10586800130606709145170500200345E56BEFC048
:105878007FD209B79707002083C7376B918B99CFE1
:1058880041111385419D06C6EFD0BFA9B240FD570F
:1058980017070020231DF75A4101828001456FD068
:1058A8005FA89387819D8843411122C406C626C2FA
:1058B8003E8419C597E0FF1FE780005C23AC019C7C
:1058C8009387019E884319C597E0FF1FE780C05A58
:1058D80023A0019E970400209384046583C73400A5
:1058E800958BADCB138581B6EFD05FA383C734000A
:1058F800958B99E74D45B2402244924441018280FC
:10590800930570041305000297E0FF1FE780404CE1
:1059180023ACA19C65D1130600028145EFC03FA2CC
:10592800930570041305000297E0FF1FE780404AC3
:1059380023A0A19E01C9130600028145EFC03FA024
:10594800014555BF084097E0FF1FE780E05223ACB0
:10595800019C4DB70145EFD07F9CDDB703C705001B
:10596800937625009377D70F99C29367270013186A
:1059780085011358884113F7F7076354080013E7A4
:105988000708937685009377770F99C29367870006
:105998001377050293F6F70D19C393E607022380E0
:1059A800D500634508009377A50281CB834706009D
:1059B80093E7C7002300F60082807DFD8347060039
:1059C800CD9BCDBF2D456315071403C805000947B6
:1059D800631CE812C8410347150003450500220768
:1059E800498F42070D654187930825A06307170B68
:1059F800011122CC26CA4AC84EC606CEBE89B68434
:105A080032842E8963CEE800930705A0630DF70260
:105A1800130515A0630CA70423900400054595A061
:105A2800930745A06305F7086344F706130565AABD
:105A3800E314A7FE85472390F600DC4583C70700DB
:105A48002300F60035A8C845EFC09F904205418164
:105A58004E86637335012A862390C400420641822C
:105A68008325C9002285EFC09F8B19A8DC4583D701
:105A78000700239006012300F600A183A300F60087
:105A88000145F2406244D2444249B24905618280EC
:105A980099472390F6001946E1B785472390F60009
:105AA800DC45014583C707002300F6008280DC45FA
:105AB800A9CB21472390E60003D707002300E6007F
:105AC80003D707002183A300E60003D7270023019B
