:100000006F004000975100209381C1851781002027
:10001000130141FF13054013973500209385857E1A
:10002000174600201306268163FAC50083220500C7
:1000300023A0550011059105E3EAC5FE1755000000
:1000400013050582974500209385C5FB1386018320
:1000500063FAC5008322050023A055001105910510
:10006000E3EAC5FE13850183938501C96377B50073
:10007000232005001105E36DB5FE9302800873A0EF
:100080000230970200009382220293E212007390E2
:1000900052309702000093826219739012347300F9
:0400A000203000000C
:1000A40000000000000000006F00107D6F00F07C75
:1000B400000000000000000000000000000000003C
:1000C400000000000000000000000000000000002C
:1000D4006F00D07A000000006F00707A000000000A
:1000E4006F00107A6F00F0796F00D0796F00B079EB
:1000F4006F0090796F0070796F00507900000000F4
:100104006F00F0786F00D0786F00B0786F0090784F
:100114006F0070786F005078000000006F00F07777
:100124006F00D0776F00B0776F0090776F007077B3
:100134000E0501007D1575FD8280411122C426C281
:1001440006C6AA84014463179400B2402244924430
:100154004101828005041305803E4204D13F418061
:02016400DDB705
:100168003D432A876373C3029377F700BDEFADE57C
:10017800937606FF3D8ABA960CC34CC30CC74CC78E
:100188004107E36BD7FE11E28280B306C3408A06BB
:100198009702000096966780A6002307B700A3067B
:1001A800B7002306B700A305B7002305B700A304CB
:1001B800B7002304B700A303B7002303B700A302C3
:1001C800B7002302B700A301B7002301B700A300BB
:1001D800B7002300B700828093F5F50F939685004A
:1001E800D58D93960501D58D61B793962700970213
:1001F800000096968682E78086FA9680C1171D8F42
:100208003E96E374C3F8A5B719C94111AA851745E5
:1002180000001305254406C6EF30C01001A08280F7
:1002280079711305F00406D622D426D2371400407B
:100238004AD04ECE52CC56CA5AC85EC662C466C2AE
:100248006AC035218327840A85451305001093E782
:1002580007202324F40A59238D4513050020BD2BBC
:10026800EF00A06783451404174500001305853F78
:1002780037890040EF30000B974700209387C7E18C
:1002880023A0F1B69387C18723A2F1B6EF00F0420D
:100298008D2E8544238401B6D549174A0000130AD8
:1002A800EA3D974A0000938A6A3E138B81C3974BB5
:1002B8000000938BAB44834769000145858B89CB4C
:1002C80023039900EF00006563143501238491B678
:1002D80083C781B699E36319350D1305800C238410
:1002E80001B697300020E7800052EF00D042631D2E
:1002F800050A9147238CF1C229445285EF304017F3
:10030800EF10B007AA8511CD5685EF30A0017D14F6
:10031800130520031374F40F97300020E780A04ED4
:1003280069FC83470B0011476370F7081745000005
:1003380013054536EF30C013974500009385053601
:10034800138501B2EF30C013EF20D011753D17456A
:1003580000001305A535EF30A011974500009385DF
:10036800A5351385C18BEF30A0110144130D10047E
:10037800938CC18B294C2390A1B323A291B3EF2076
:10038800103F5935A2855E850504EF20B079E31446
:1003980084FF174500001305A537EF30600D238053
:1003A80091B2EF2080758D351305400697300020F7
:1003B800E78060450545F92BFDBD6F00F01E79719A
:1003C80022D426D24AD04ECE52CC56CA5AC85EC67D
:1003D80062C466C206D6AA842E8C0144930900F82A
:1003E800138A81C6A94A130B8002938B41C3938C4D
:1003F80001C40D4983C7D1C7B397F4002382F1889C
:1004080013D78700A382E18813D70701E1832383E9
:10041800E188A383F1882384318983470A006285B0
:10042800A384F18823855189A3856189238601885E
:1004380083A70B0013D78701A386E18813D7070189
:100448002387E18813D78700A387E1882388F18869
:10045800A388018823890188A3899188238A018830
:10046800EF00306883C70C0093F7F70FB1C72285F8
:10047800EF1060332380A1C483C70C0093F7F70FF4
:1004880095C303C50C001375F50FB250225492544E
:100498000259F249624AD24A424BB24B224C924C20
:1004A8004561828005041374F40FE31524F5FD47B4
:1004B8002380F1C47D45D1BF0145C1BF797122D4E4
:1004C80026D24AD04ECE52CC56CA5AC85EC662C44C
:1004D80006D6AA84AE8B0144938981C6294A930A19
:1004E800A002138B41C3138C01C40D4983C7D1C724
:1004F800B397F4002382F18813D78700A382E18899
:1005080013D70701E1832383E188A383F188238438
:10051800018883C709005E85A384F1882385418902
:10052800A38551892386018883270B0013D7870168
:10053800A386E18813D707012387E18813D78700AB
:10054800A387E1882388F188A38801882389018803
:10055800A3899188238A0188EF00B05883470C004B
:1005680093F7F70F85E71305800C97300020E78095
:10057800E0280145B250225492540259F249624A85
:10058800D24A424BB24B224C456182802285EF1001
:1005980080212380A1C483470C0093F7F70F91C7EC
:1005A80003450C001375F50FF1B705041374F40F28
:1005B800E31E24F3FD472380F1C47D4565BF3787DB
:1005C800004083473700894693F7F707A301F700F0
:1005D800834757000347370093F7F70F1377F70F51
:1005E800631BD70093F6170099C6918B014581CB01
:1005F800238CE1C282808547238CF1C259458280D1
:100608008280411106C6EF00F04B3D479307F00F7B
:10061800637BA70497470020938747B623A0F1C2BE
:1006280023A4F1C0238C01C2A547A38EF1C693076A
:1006380000202396F1C423AE01C49307000423913C
:10064800F1C6B78700401387C70123AEE1C01387FF
:10065800870123A2E1C81387C702A10723AEE1BE21
:1006680023A4F1C28147B2403E854101828093773D
:100678000502BDCBB717004003C7A700118B21C3E4
:10068800B7170040930670052380D704130780FA34
:100698002380E7047D892394A7000100010001005D
:1006A8000100238007042380D7042380E7048546BC
:1006B80037270040A303D7802380070482801307CD
:1006C80070052380E704130780FA2380E70403C733
:1006D800A700136747002385E7009307004B010035
:1006E8000100FD17EDFF69BF93770504E1DBB7173C
:1006F800004003C7A700418B31C37D8913660504F9
:10070800DD477D1563F1A706B7170040930670050E
:100718002380D704130780FA2380E7042394C700B3
:100728000100010001000100238007042380D70491
:100738002380E7048D4637270040ADBF13077005B7
:100748002380E704130780FA2380E70403C7A70080
:10075800136707012385E7009307007D0100010067
:10076800FD17EDFF59BFB7170040930670052380AA
:10077800D704130780FA2380E7042394C7000100F5
:10078800010001000100238007042380D70423808F
:10079800E70489463727004031BFB717004003D523
:1007A8008700420541819377050491EB9377F50122
:1007B8003755E801130505803345F50282809377A4
:1007C800050C130700046397E7009377F501374595
:1007D8009C1CCDB72165130505D08280914763EE37
:1007E800B70217470000130727F38A05BA959C41FB
:1007F800BA978287B717004003A7470B1345F5FF41
:10080800698F23AAE70A03A7070B698F23A8E70ABA
:1008180003A7070A798D23A0A70A8280B71700408B
:1008280083A6470B1347F5FFF98E23AAD70A83A699
:10083800070B558D23A8A70A83A6070A758F23A03F
:10084800E70A8280B717004003A7470B498F23AAFE
:10085800E70A03A7070B1345F5FF45BFB717004085
:1008680083A6470B1347F5FF758F23AAE70A03A74B
:10087800070A598D4DB7B717004003A7470B498F93
:10088800EDB7814737370040A14663C4C7003285BA
:1008980082800345B740E38EA6FE3385F500034505
:1008A800050085072304A740CDB7411122C406C619
:1008B8002A84E5352947B307E502B2408D83B3D7CB
:1008C800870222449507B3D7E70237370040C207AB
:1008D800C1832316F74041018280716541111305D8
:1008E800052006C6D937B7370040130770F82381AB
:1008F800E7400D47A381E74013070004A380E740C2
:1009080005472387E740B240410182808547238C11
:10091800F1C28280411106C6B786004083C75600DF
:10092800138781C3858B9DCB8347070005476307E2
:10093800F70083C716000145858B91EF8547238C07
:10094800F1C217450000130565DE8947238CF1C203
:10095800EF2010325545B24041018280034707001D
:1009680085470145E3F9E7FE174500001305C5DC97
:10097800238CF1C2EF20D02F5945F1BF37870040B3
:10098800834737001375F50793F70708C98FA30145
:10099800F700828082804111A147014506C622C422
:1009A800A384F1B637840040D13F834714003D4506
:1009B80093F7E70FA300F4008347140093F7970F0A
:1009C80093E72700A300F40097300020E780A0E316
:1009D800834714001305A00F93F7D70FA300F40063
:1009E80097300020E78080E185472303F400B24078
:1009F80022444101828003C781C3854763E5E7003C
:100A08008947238CF1C2B787004003C7570059456F
:100A1800058B01CB03C71700014513671700A38097
:100A2800E7008280397122DC26DA4AD84ED652D4C1
:100A380056D25AD05ECE62CC66CA6AC86EC606DE88
:100A4800B78700402387B702B78D00402A8A328DC6
:100A58002385B70213594500014493846D00094C5E
:100A6800854AD54C138B81C3854B894923844D0313
:100A7800238084019307003203C70400098B09E728
:100A8800FD17C207C183EDFB23840D0283C7040051
:100A9800898BE5C783C70400858B95C723805401DC
:100AA800953D63149501238451B783470B00638AEE
:100AB800FB0A83470B006388F90A1305800C9730FB
:100AC8000020E780A0D383C70400898BD9C783C7D8
:100AD8007D0093F70704D1EB83C77D00394793F76F
:100AE800F70F13F5F7006304E50829476318E502D3
:100AF80063020D08FD576303FD007D1D7D1413740B
:100B0800F40F05043D451374F40F97300020E78077
:100B1800E0CEE3FD89F41305000221A82547630907
:100B2800E902B5476304F9006319790579D91365B2
:100B38000502F2506254D2544259B259225A925A7A
:100B4800025BF24B624CD24C424DB24D2161828025
:100B58009D8B0D47E39CE7FC6DB7FD572380F400A0
:100B68004DB75945F9B75545E9B70145D9B7130503
:100B7800E002C1B71305A0026DBF1305E00F55BF12
:100B8800011126CA4AC8AE842A891305800C06CEEC
:100B980022CC4EC652C456C25AC097300020E780B5
:100BA800E0C599C02380040037840040A1478969C3
:100BB8002306F4021386097181451305000D9D353E
:100BC80063150514930700FD2307F4022305F402B7
:100BD80085472306F402938A41B683A70A0003C413
:100BE800770003C767002204598C61CC630B090C9A
:100BF80083870700378A00409389097163CA07040D
:100C08001305800C97300020E78040BF83C791B65A
:100C18006374F4009377F40F2306FA0281470347BD
:100C2800CA026399E7108345EA024E864145DD3BD7
:100C380069ED8347CA021D8C4204418081C88347FD
:100C4800CA0203C70400BA972380F40055F895A890
:100C5800938A01B61305800C97300020E78000BA0C
:100C68008345AA024E86130500096D3B59ED0347DB
:100C78008A009377F40F6376870083478A0093F797
:100C8800F70F1D8C4204418091C403C704003E97AE
:100C98002380E40001479376F70F6392D7083E99C3
:100CA80083478A0093F7F70F89CB03478A0083C7E6
:100CB80091B6FD17F98F91E351FCB7870040238661
:100CC80007021305800C97300020E78020B3B78710
:100CD800004083C7C7021305000993F7F70F91E394
:100CE80041450966130606719305000C253B11ED75
:100CF800378700408347C70293F7F70F99C78347A1
:100D0800870093F7F70F91C35D45F2406244D244E0
:100D18004249B249224A924A024B0561828083A61F
:100D28000A00BA9603C60600B306E9000507238041
:100D3800C60095B703A70A008346090005093E9730
:100D480085072300D70093F7F70FD1BD8147938517
:100D580041B6A14698413306F500034606003E9782
:100D680085072300C700E397D7FE82800111A147BA
:100D78001385418106CEA384F1B6C93F9305F100DE
:100D88001385C1B7F53B11ED9387C1B783C77700CA
:100D9800A384F1B60347F10083D7A1816373F700F9
:100DA8005D45F2400561828001111385C18006CE40
:100DB80022CC693F9305F1001385C1B7D1332A844A
:100DC80039ED0347F10083D721815D446369F70456
:100DD80083C7E1B71385C180A307F100853F9387D7
:100DE80041B69C430347F1009305F100A383070034
:100DF8002383E7001385C1B761332A840DE10347D4
:100E0800F1009307000463F4E700A307F100034629
:100E1800F1009385C1B71385C187EF20404522852E
:100E2800F240624405618280411126C2AA8413857A
:100E3800C18106C622C4193F938741B69C438145A8
:100E4800014523819700A38107001D3B2A8401E9FE
:100E580026852D36294597300020E780C09A2285BF
:100E6800B2402244924441018280411122C42A8422
:100E78001385418206C6D93D938741B69C43B2404B
:100E88008145238187002244A38107000145410150
:100E9800C5B9411122C42A841385418006C67D350F
:100EA800938741B69C43B240814523828700224400
:100EB800A382070001454101E1B1B787004013074C
:100EC80000F82380E700A3800700A3810700130729
:100ED8008004A386E70003D701B6239CE70003D765
:100EE80041B6239EE70023850702238707021307DD
:100EF80090F82380E700130700042383E7027D5757
:100F08002383E7000547238CE1C20D472381E700CF
:100F1800238401B6828001111745000013058582DC
:100F280006CE22CC26CA4AC84EC6EF206054A53445
:100F38008144014413094006054597300020E780A5
:100F4800808C553C19E5850493F4F40F636A990E77
:100F5800014405041374F40FE31024FFEFF01F9B02
:100F68001745000013050582EF2080505944C9A099
:100F7800B307890083C507004E850504EF20803A32
:100F88001374F40F93170401C183E3E397FE294513
:100F9800EF20803D8357890083C4E181268523980B
:100FA800F1B68357A90083C901B82399F1B6AD3DBD
:100FB8002A8405E1173500001305457AA38691B602
:100FC800EF204036D5332A84973400009384847800
:100FD8000DC9A2851735000013054579EF20803427
:100FE80089470545238CF1C2EFF0DF9A91A0B3073A
:100FF800890083C5070026850504EF20A0321374F5
:10100800F40F9317040103D7E1B7C183E3E1E7FEC7
:101018002945EF2060351304B00F639B090003C70F
:10102800A1B8A1476316F7009147238CF1C2014488
:101038002285F2406244D2444249B2490561828025
:1010480003C5E1B6EFF01F951735000013050576C7
:10105800EF20402D213B2A842DFD83C4B181A204B9
:1010680083C7A181DD8C1389C1B7973900009389A3
:10107800696E09BF01A001A001A001A001A001A003
:1010880001A001A001A001A001A001A001A001A050
:1010980001A001A001A001A001A001A001A001A040
:1010A8004111094506C622C426C297200020E780C0
:1010B800807583C701C4A385F1C8EFF04FD0AA8714
:1010C8003DE503C781C38D469307300863F1E60603
:1010D80083C681C813061002238EC1867D56938766
:1010E800C187A38EC18623810700A38107002382BD
:1010F800D700A382070023830700A3830700814545
:1011080041342380A1C45947AA876302E50203C575
:10111800C1C23D89BD3B03C5C1C73D8913650508EB
:101128008D3B83C7B1C8A38501C82380F1C4B240F1
:10113800224492443E85410182804111054706C6FA
:10114800238CE1C2EFF0AFC719E113053008B240B4
:1011580041018280411122C483A741C303A701C76B
:1011680006C601456384E70283A581C003A701C2BF
:1011780023A8F1C66308B7020545EFF04FA4238002
:10118800A1C409E903C501C41375F50FB24022448F
:10119800410182807D5723A0E1C823A8E1C62386A8
:1011A80001C0CDB7054523A0F1C8EFF04FA12380BA
:1011B800A1C469D9C5B7411122C483A741C303A7F4
:1011C80001C806C601456384E70283A501C203A7D7
:1011D80081C023A0F1C86308B7020545EFF02F9E30
:1011E8002380A1C409E903C501C41375F50FB240F2
:1011F8002244410182807D5723A0E1C823A8E1C68B
:10120800238601C0CDB7054523A8F1C6EFF02F9B73
:101218002380A1C469D9C5B783A741C383A581C069
:10122800411103A701C222C406C623A8F1C663055B
:10123800B7020545EFF08FA82380A1C401C97D57E7
:1012480023A0E1C823A8E1C6238601C0B2402244F6
:1012580003C501C44101828023A0F1C8D9BF83A777
:1012680041C383A501C2411103A781C022C406C698
:1012780023A0F1C86305B7020545EFF02FA423802A
:10128800A1C401C97D5723A0E1C823A8E1C62386CC
:1012980001C0B240224403C501C44101828023A891
:1012A800F1C6D9BF03C641C083A741C503C791C8CA
:1012B80083A641C7F917B397C7003697BA9723AAE9
:1012C800F1C282804145828083C781C393F7F70FBB
:1012D80063E6A700238CB1C201458280E38EB7FE86
:1012E800A9BD797126D21307500556CA238EE18607
:1012F80013073005A38EE18683A7C1BF1307200417
:10130800238FE1861307300422D44AD04ECE52CC24
:10131800A38FE18606D67D475AC85EC662C423906D
:10132800E7002A8483C5B1C803C5C1C237060200D5
:10133800EFF04FEF2380A1C459476301E516938B63
:10134800C18715CD9387C1879384C1899843910735
:10135800D8CFE39D97FEA933DE879853910723AE34
:10136800E7FEE39C97FE83C5B1C803C5C1C2370633
:101378000200EFF02FEB2380A1C4631D051683C480
:101388009B0003C68B0083C7AB0003C7B1C883C6E5
:10139800BB00A204D18CC207C58F134707049394DE
:1013A8008601A385E1C8DD8C638604108386CB00A3
:1013B80083D721C663D60608374B0020130BCB0909
:1013C80091A000C383C5B1C803C5C1C737060200D1
:1013D800EFF04FE52380A1C4631E051403C7B1C80D
:1013E80083A681C283D721C613470708A385E1C80E
:1013F80083D6060063E1F4189D8C639ED7143E944F
:10140800638B041403A741C8E3FDF4FA23206701A2
:1014180055BF23A088002390F60083D721C69D8C52
:101428003E94EFF02FE02380A1C42DE103C7B1C89B
:1014380013470704A385E1C86386040E83D721C632
:1014480003C8C1C2BA853706020083A8C1C183A6F2
:10145800C1BF4285E3FFF4FA23A0780123909600E8
:10146800814703460400B38677018507C2072380B6
:10147800C600C1830504E39697FE37060200BA85C5
:101488004285EFF02FDA2380A1C479C903A7C1C12F
:101498009307E00223207701630FF506B250225428
:1014A80092540259F249624AD24A424BB24B224CF8
:1014B8004561828003C5C1C737060200BA85EFF0CF
:1014C8006FD62380A1C479F983C7B1C803A781C2A5
:1014D80093C707F8A385F1C8FD472380F1C40357D4
:1014E8000700B5476314F70203C5818429C18547FE
:1014F80063FEA7002254B25092540259F249624A3C
:10150800D24A424BB24B224C456159BE03C501C475
:101518001375F50F61B703C5C1C23D89EFF07F9719
:1015280003C7B1C883A7C1C123A0770161B72380CE
:1015380001C4ADB783A641C81307E00223A0660122
:10154800E31EE5F403C5C1C73D8913650508EFF03F
:101558005F9403C7B1C883A741C823A0670199BF97
:1015680003C7B1C883A7C1C113470704A385E1C84E
:1015780023A0770181B763E5D402F1DE9387F6FFF4
:10158800C207C1838507A2975A87834607000504C7
:101598000507A30FD4FEE39A87FE03C7B1C865BF4A
:1015A80093960401C182D9BF4111294506C69720E7
:1015B8000020E780402503C781C69387C187A3869B
:1015C800E700C94619472384D7002387E700930615
:1015D80000F80D47A387E700A38407004947238540
:1015E8000700A38507002386D7001385C189A3892F
:1015F800E70023880700A388070023890700238AB8
:101608000700A38A0700238B0700A38B0700238CFE
:101618000700C139154597200020E780C01E83C701
:1016280001C4014593F7F70F81CF03C501C4D9471A
:101638001375F50F6309F500D547630CF5000145EF
:10164800B240410182800547238CE1C223AE01C428
:10165800C5BF0947238CE1C2E5B73971A54722DC2C
:10166800A38EF1C6BD47238CF1C026DA4AD84ED6E0
:1016780052D456D25AD05ECE62CC66CA6AC86EC6FA
:1016880006DE938DC187938481C1214B930A00F8AC
:10169800130A5002A949854C4D4D81A063FADC0A12
:1016A8006308A70BA380E400013703C581C103C702
:1016B800140072057D85137585F71305850C238045
:1016C800E1C497200020E780001403C781C17D177B
:1016D8001377F70F238CE1C025CF03C781C6138585
:1016E800C18923846D01A386ED00A3840D002385A1
:1016F8000D00A3850D0023865D01A3874D01238876
:101708000D00A3880D0023890D00238A0D00A38AEC
:101718000D00238B0D00A38B0D00238C0D00238758
:101728003D01A3890D00753E03C701C41377F70F68
:101738009306B7FE93F6F60F35F383C76D0211478C
:101748006382E70421476384E70441476388E70429
:1017580003C7D1C78547B397E700C207C183F250D3
:1017680062542396F1C403C514004259D254B259A5
:10177800225A925A025BF24B624CD24C424DB24D05
:1017880021618280A38E31C793070040C9BFAD474E
:10179800A38EF1C6856793870780D1B7B147A38E1B
:1017A800F1C685676DBF411126C2AA84054506C6E4
:1017B80022C497200020E7800005854763F3970639
:1017C80083C781C3C94693F7F70F6388D700C1461B
:1017D80063F8F600238CD1C221A09547238CF1C26F
:1017E80083C701C493F7F70FAD1793F7F70F0547B2
:1017F8006374F700553B05C1094597200020E78031
:10180800800003C501C4D9471375F50F630CF502B1
:10181800D5476303F504B24022449244014541018F
:10182800828083C701C493F7F70FDDFC0945972031
:101838000020E78040FD03C501C4D9471375F50FA3
:10184800E318F5FCB24022440547238CE1C223AEDD
:1018580001C4924441018280B24022440947238C4A
:10186800E1C292444101828039716EC606DE22DCF3
:1018780026DA4AD84ED652D456D25AD05ECE62CC48
:1018880066CA6AC8EFE0BFD3AA8D71E983C781C36E
:101898000D476376F70E9147238CF1C2EFE0FFB155
:1018A8002380A1C4AA8D45ED938CC18783C6EC0023
:1018B8002147639DE60C03C6FC00238801C49946B2
:1018C8006315D60085462388D1C403C77C0183C528
:1018D800BC0003C66C0183C6EC0103C8DC0103D35A
:1018E80021C62207A2062384B1C8518F238C01C0C8
:1018F800B3E6060103C64C0183C5BC0103C8C1C2D7
:1019080003CEC1C763106708620661861373F600C9
:101918006346060813680301014605436390E62001
:101928001397850161879376F700138B81C163460E
:1019380007080947238CE1C0A300BB0013E8060190
:101948006311061A238601C361A083C601C4130666
:10195800E0026300D62203C701C4937DF70FF2505B
:1019680062546E85D2544259B259225A925A025B35
:10197800F24B624CD24C424DB24D21618280930DA4
:101988003008F1BF138981C1A300C900FD47238036
:10199800F1C403C701C4937DF70FD1B7136E0309D0
:1019A80005460143E38EE6F6938781C1238CC1C0C7
:1019B800A380B700238EC1C7D1BF93E606F90947B4
:1019C800238CE1C0A300BB00238ED1C6E31C03F621
:1019D80003C55C00EFF06FC92380A1C4AA8D41F153
:1019E80083C681C8130610FA03A501C2238EC186D7
:1019F8007956A38EC186854A938591C1238C01C0EF
:101A080023810C00A3810C002382DC00A3820C003C
:101A180023835C01A3830C00EFF08F962380A1C47D
:101A28000DF583461B006398560183A601C283C641
:101A38000600238CD1C0154597200020E780A0DC44
:101A4800FD5623A0D1C823A8D1C603A501C2238669
:101A580001C0A38501C8238401C60146130C4002B6
:101A6800930B00F8194BC94A130A4002A386CC000D
:101A780023848C01A3840C0023850C00A3850C000F
:101A880023867C0123876C01A3875C0123880C00D3
:101A9800A3880C0023890C00A3894C01238A0C001D
:101AA800A38A0C00238B0C00A38B0C00238C0C0046
:101AB800EFF03F8383C601C4054693F6F60F8DE623
:101AC80083C681C1B9C283C681C6A1E203A501C28A
:101AD800954783460500639AF60285472384F1C635
:101AE80071B7238EC1C7B9BD83C681C1A9C283C6D8
:101AF80081C68947138616001376F60F63E9D70265
:101B08002384C1C603A501C295B783C781C38D4687
:101B180063F1F6049547238CF1C291B5938781C18F
:101B2800238C61C0A380B700238601C385B56254A6
:101B3800238401C6F250D2544259B259225A925AB9
:101B4800025BF24B624CD24C424DB24D05452161CD
:101B580099B96254F250D2544259B259225A925AFF
:101B6800025BF24B624CD24C424DB24D21616FF098
:101B7800CFDC0145EFF0EFB17DBD411126C222C493
:101B880006C623A001B2EFE09FA32A8441E183C7E0
:101B980081C311476372F7089387C18703C781C65A
:101BA80023840700A386E7001947A3840700238539
:101BB8000700A3850700238607002387E70013850E
:101BC800C189A387070023880700A3880700238902
:101BD8000700A3890700238A0700A38A0700238B2D
:101BE8000700A38B0700238C0700EFF08FEF83C754
:101BF80001C493F7F70F99CB83C701C4238CF1C0B5
:101C0800EFF09F9A03C481C1238081C42285B2402A
:101C18002244924441018280813919C91305000484
:101C280097200020E78020BE813119C12A84F9BF9E
:101C3800EFF0BFA205E59387C18703C6170283C5E6
:101C4800070283C6270203C7370222064D8EC20643
:101C5800D18E6207558F23A0E1B289B703C401C4AE
:101C68001374F40F65B783C781C3397106DE22DCAC
:101C780026DA4AD84ED652D456D25AD05ECE62CC44
:101C880066CA6AC86EC61147637DF73883A6C1C5A0
:101C9800FD5723A0F1C823A8F1C6238601C0B75772
:101CA800341213F606FF9387076701476314F6009B
:101CB80013F7F6009384C1C32D6BA380E400130BC4
:101CC8005BA5138D81C1238001C6A38401C823A409
:101CD80001C423AA01C2930B900E930D0004EFF0E8
:101CE8008FCD6314051283C6140083A501C299E63B
:101CF80083C7050093F7D70F638C773383D7E51F26
:101D0800639E673103CF01C6238EE1C36305BF31EC
:101D18009307EF1BAE9703C6A70003C7B70003C816
:101D2800870003C59700A301ED00238C01C1A30020
:101D3800AD002301CD0003A681C183C74700154725
:101D480023AAC1C2238CF1C06386E7283D47638379
:101D5800E7287A87014E01453548854E95483D4329
:101D68009DA083C781C1FD1793F7F70F930F070154
:101D78009382F6FF6367F80063F4DE0E93F6F20FC2
:101D8800054E13F7FF0F9307E71BAE976306B70BD4
:101D980003C5A70003C6B70083CF97002301AD0092
:101DA800A301CD00A300FD0103C6870083C7470038
:101DB8000545238CC1C003A681C1238CF1C0638F64
:101DC8001701638D6700939F870193DF8F4193F716
:101DD800F703E3D80FF8238CF1C071B723AAC1C267
:101DE80063040E00A380D400238EE1C283A781C4BC
:101DF80083C691C83E9623AAC1C2E39206EE410764
:101E0800A384E1C823A4C1C4F9B5EFF06FA9EFF02A
:101E1800DF84EFF04FBAE30805ECF2506254D25475
:101E28004259B259225A925A025BF24B624CD24C36
:101E3800424DB24D2161828019C123AAC1C26304F7
:101E48000E00A380D40083C791C813070004238E13
:101E5800E1C26382071C63100F1C2380F1C685BD95
:101E68006300051823AAC1C263050E00A380D4002D
:101E780019C1238EE1C283A701C83E9623AAC1C215
:101E880023AEC1C4EFF02FB349F983A501C21307EC
:101E9800900E83C7050093F7D70F6393E71A83D78C
:101EA800E51F639F671983C7D500139787012380B0
:101EB800F1C6618763410718194786072382E1C085
:101EC80093F7F70F0145194793968701E1861306A3
:101ED800F7FF860763CB060E1377F60F93F7F70F16
:101EE80005457DF38547238201C02380F1C683D849
:101EF800650123A211C56396080083A8450223A2A1
:101F080011C583C7450103C63501A207D18F23A296
:101F1800F1C281E79C5123A2F1C203C6250103C87F
:101F2800150183D6C1C403C3D1C72206336606018F
:101F3800958203D8E500B296FD161306B3FFB3D613
:101F4800C6403386060183CE0501469623A8D1C034
:101F580023A801C323ACC1C08946638FDE0623A230
:101F680001C483A641C3918F33D7E700369623AACD
:101F7800C1C623A6E1C6C167D11763EDE702239363
:101F880001C68567D11763E0E7060547A386E1C068
:101F9800630B080083A701C199C785476389FE04BD
:101FA80083A741C4A9E783C71400D1EF8547A3805D
:101FB800F40011BBDC5503D6050323A8F1C0239315
:101FC800C1C60D47A386E1C0E1B7E30205F223824B
:101FD800E1C031BF7A8719BD469623ACC1C051B75D
:101FE800E3160EE849BD0947A386E1C055B703C506
:101FF800B50055F903C7C5008547E3F6E7FA83C777
:1020080081C3369823A801C311476371F704C147F8
:10201800238CF1C219B51305200901B51305100960
:10202800EDBBEFF07F84E31A05DEEFF00FE3B9B9FB
:1020380003A641C3B1B51D472382E1C01D4745BD75
:102048001305100AD9BB1305300AC1BB6254F250FC
:10205800D2544259B259225A925A025BF24B624CFC
:10206800D24C424DB24D21616FF02F8D01114AC8FB
:1020780083A701C726CA22CC06CE4EC623AAF1C220
:10208800EFF08F992A8411E583A741C499EB238641
:1020980001C02285F2406244D2444249B2490561F6
:1020A800828003A741C383A581C0BA97054523AAA7
:1020B800F1C2EFE0AFC003A741C32380A1C403A6C8
:1020C80041C483C701C4118F23AAE1C293F7F70F54
:1020D800DDDF03C401C4FD5723A0F1C823A8F1C65E
:1020E800238601C01374F40F6DB7797152CC03C8FD
:1020F800D1C022D426D24AD006D64ECE56CA5AC805
:102108005EC689472A89014403A701C06300F81203
:102118008D47630BF81093571700137417003E97F9
:1021280083D6C1C483C7D1C783A581C003A601C311
:10213800FD16F98EB357F70003A701C7AE96B297FD
:1021480023AED1C223A0F1C06382E70203C7C1C096
:1021580009C7293F5DED83A701C023AAF1C2EFE0BB
:102168007FFF45E903C8D1C083A6C1C3630F090037
:1021780091476308F9168547630FF90E83A741C590
:1021880023A0F1C005472386E1C0238201C6894701
:102198006300F80A0D4783A701C06301E80E03C571
:1021A800060013F8F70F83D5C1C41377F500931809
:1021B800480003A681C033671701938481C19183C6
:1021C8001377F70FFD15A380F4002381A400238C57
:1021D800E1C0B307B600638AF61083C71600A3816F
:1021E800F400631009086309040E83D7240091835F
:1021F80005672391F4005917636CF70A03C741C6B2
:1022080023ACF1C03369E900631B090423AAF1C4B4
:102218000145B250225492540259F249624AD24AB4
:10222800424BB24B456182800A07DDBD0607CDBD32
:1022380003D7060023ACE1C0C167D91763FDE700E7
:1022480085472382F1C6630C090083A701C00145B5
:102258002390F6007DBFE31A09FE23AAE1C40145D5
:102268004DBF31CC2380E60083A7C1C303C7140048
:10227800A380E7009DBF23A001C029B79842370675
:1022880000101305F6FFB70500F0F98DE98FCD8F23
:10229800698F23A0F1C023ACE1C05916637CE60620
:1022A80005472382E1C6E30C09FA9CC2014595B7AC
:1022B80005472382E1C623ACF1C0014599BF2380BD
:1022C800060183C7340003C7140083A6C1C3C19B9A
:1022D8001183D98FA380F60083D72400D207D18336
:1022E80001BFFD5723A0F1C071BD6318090283C760
:1022F800C1C085EB83A701C7850723AAF1C2EFE018
:102308007FE5E31805F083A781C083C70700A38191
:10231800F400D1BDE31B09F889B711E04287238097
:10232800E600A933E31705EE83A701C7850723AAAB
:10233800F1C2EFE03FE2E31E05EC83A681C003C7CC
:102348000600A381E400E30009EA83C7140001E45E
:10235800419B9183D98F2380F60005472386E1C0EE
:1023680059B5797122D466C262C403A8C1C603AC48
:1023780041C56AC026D24AD04ECE52CC56CA5AC897
:102388005EC606D68549938A81C163638813050CA6
:10239800014523A081C1913B23AA81C559ED83A79B
:1023A80081C16380071403A8C1C69367FC0F136734
:1023B800F80FE38CE7FC83C6D1C0E38836FD83A71A
:1023C80081C0094603D7C1C423AEF1C26385C608DC
:1023D80093562700FD16C206C182370E0010239CB3
:1023E800D1C02391DA003687814E7D1E39A013179C
:1023F80003014183AE87854E5DCFD0431303F7FFBA
:1024080093854700B378C601E39308FE23AEB1C2B3
:1024180063850E0C239CE1C0B7050010B3E6860166
:10242800FD153387E6404D8E0507D0C323AAE1C4C6
:102438006360E80805472386E1C0B25022549254ED
:102448000259F249624AD24A424BB24B224C924C50
:10245800024D45618280135617007D16420641825F
:10246800239CC1C02391CA003287014339A0139726
:1024780008014183AE87054321CB83D62700930803
:10248800F7FF93852700E5F623AEB1C2630903047D
:10249800239CE1C0FD562391D70083D62A00B3E6DA
:1024A80086013387E640050723AAE1C4E374E8F808
:1024B8001305100B59B7336CDC0023AEB1C2239C53
:1024C80001C023AA81C5D1B5336CCC0023AEB1C2FB
:1024D800239C01C023AA81C54DBD368735BF3287ED
:1024E80055BF225423A081C1B25092540259F249D7
:1024F800624AD24A424BB24B224C924C024D114591
:1025080045616FF09FBE411106C6A13D9307100BB0
:102518006305F500B24041018280B24023AA01C49C
:10252800410181B55D7156DA83C781C386C6A2C4ED
:10253800A6C2CAC04EDE52DC5AD85ED662D466D273
:102548006AD06ECE3D47637CF72C83C781C33D4775
:10255800637DF710C147238CF1C283C601B223857E
:1025680001C8638606301307C0056387E630130782
:10257800F0026383E630138701B20346170093071E
:10258800A0036306F62A3EC483A641C183A741C7B8
:1025980032C623ACE1C6138481C1638D061C83C592
:1025A80041C003C601C61387E6FF3317B700BA97C1
:1025B800A384C1C823ACF1C46302062423AAF1C2D0
:1025C800EFE07FBF5DE583D7C1C4239701C463846F
:1025D800072083A501C223AEB1C283C70500B9CBCA
:1025E800930D500E2D45930BC0056381B703154716
:1025F8006394E7009307500E03A881C78346080039
:102608006388F6081307A0026384E60883D7E1C449
:1026180003D7C1C493870702C207C1832397F1C4B4
:1026280063FBE71A83A501C2BE9523AEB1C283C777
:102638000500C5FF83A681C781471306A00293053D
:10264800C0051305F00239A0630EC7006303B72263
:102658006301A7223387F60003470700850793F72E
:10266800F70F7DF31305200429A0EFE01FADE30663
:1026780005EEB640264496440649F259625AD25AA3
:10268800425BB25B225C925C025DF24D61618280CA
:102698009D8E93B6160036872301D4003386D50065
:1026A800B307E80083C70700034606009308F00253
:1026B8001303E002214E930E0002130F1700638EDE
:1026C800C702F9C76386770D6384170D639D670C8E
:1026D8006304C701631AD6152301E401A146034721
:1026E80024003386D50003460600B307E80083C7F5
:1026F8000700130F1700E396C7FC05078506137735
:10270800F70F2301E40093F6F60FE39AA6FC42972D
:1027180083470700A301F40083C7B500A18BE397A3
:1027280007EE238201C683A7C1C3A24583D6A701AA
:1027380003C6D1C00D4723AAD1C06318E60003D74A
:1027480047014207D98E23AAD1C003473400630B3F
:10275800072403C741C6631707240347240083A738
:1027680081C70507BA9723ACF1C6B24783A741C70B
:10277800E39706E203A701C19376F70F958F1377C6
:10278800F70FA384E1C823ACF1C4E31907E25DB5F0
:1027980013070002631EE6021D47E36DD7F603C761
:1027A8008500E309C7F6A301F4001307A002E39F1D
:1027B800E7E483C7B500A18BE39A07E483A781C444
:1027C8006389071463C10712FD1723A4F1C43DBD33
:1027D800A301F40025BD03C791C883A781C57D1750
:1027E80085071377F70F23ACF1C4A384E1C8E31777
:1027F80007DCA24783A641C1E38E06E2014523A078
:10280800D1C0EFF09F8EE31605E683C741C6E39378
:1028180007E283A681C1A24723AAD1C0B9B7EFF0C6
:102828008FC4E30405D2B1B5A3016400C5B393070F
:102838002004E3FAD7D4138731B223ACE1C69387D7
:1028480031B289A0D84F23A4E1C491E67D57A3846F
:10285800E1C823A401C483C781C33D476378F7183F
:10286800D147238CF1C283C741C663990716014536
:1028780009B51305300BF5BB138711B223ACE1C6BC
:10288800938711B283C6D1C00D476384E60603C798
:1028980007003EC436C623AA01C083A741C78146A4
:1028A800E31B07CE83A601C103C6D1C7A24513F710
:1028B800F60F998F3317C700094623AAC1C0238092
:1028C800D1C6B24623AAF1C623A4E1C4894623AAE5
:1028D800D1C423A201C2A38401C8C947238CF1C271
:1028E8001305100479B3EFD0BFD183A781C42D4558
:1028F800E1BD83A601C183C707003AC423AAD1C09A
:1029080089C73EC683A741C779B17D5723A4E1C4CF
:102918007DBF238C01C083A781C70147130500022F
:102928002148154E15539308E002AD451DA8230014
:10293800D60083C781C183A681C799EB03C6060069
:102948006318C6012380660083C781C183A681C737
:10295800850793F7F70F238CF1C0B6970507630D2A
:10296800B70283A6C1C33E86BA9683C60600E3872C
:10297800A6FEE31E07FB2380170183C781C183A638
:10298800C1C303A681C7850793F7F70F238CF1C04E
:1029980083C686003E9661BF238007008547238251
:1029A800F1C651B303C7B70023AAD1C423A201C2F9
:1029B800A38401C8418BE30707E883C781C3FD5699
:1029C80023A4D1C43D47637EF700CD47238CF1C2D1
:1029D80083C741C613051004E38D07C813053004E7
:1029E80049B9EFE08FF5E31605C8DDB7EFE0EFF47E
:1029F800E31105C88DBD411106C622C4EFF07F96CC
:102A080011CD9307100B6306F500B2402244410133
:102A1800828023AA01C4EFF0DF9465F9EFF00FE597
:102A28006DF583A741C503A781C523AAF1C023AAD1
:102A3800E1C2EFE04FF871F903D6E1C483A701C200
:102A480003A741C12244B29793560701239DE7008B
:102A5800B2400546D0CF239AD70023AEF1C2410138
:102A68006FE0EFFF411183D761C622C423ACA1C038
:102A780006C6014589E7B24022444101828003A786
:102A8800C1C5BA9723AAF1C2EFE0EFF26DF503A72B
:102A980001C283A681C122448327871EB240B6970C
:102AA8002324F71E41016FE08FFB83C781C3238571
:102AB80001C84D476364F7000145828003A781C5BB
:102AC800411106C623AAE1C2EFE0EFEE09ED03D7F4
:102AD800E1C483A701C20145BA9703C7B70023AE73
:102AE800F1C2418B01C7B2404101828003A781C472
:102AF800B240D8CF41016FE08FF6411122C483C79D
:102B080081C306C6454793F7F70F6371F70849472E
:102B1800638AE70483C781C34D4793F7F70F63615F
:102B2800F702238501C883C781C33D476377F7024E
:102B3800C147238CF1C20145B24022444101828041
:102B48005147638BE70483C7A1C8F1DFB93F6DF52F
:102B580083C781C33D47E36DF7FC2244B24041017E
:102B68006FE0AFDD03C7D1C08D47E305F7FA83C532
:102B780041C003A641C783C701C105473317B70042
:102B8800B2972380E1C623AAF1C669B7B2402244AE
:102B98001305400B4101828083C701B2CDF751B7BD
:102BA800011122CC83C781C306CE26CA4AC84EC6A5
:102BB8004947637FF70883C781C33D476370F708B8
:102BC800C147238CF1C203A781C523AAE1C2EFE064
:102BD8008FDE25E903D7E1C483A701C2BA97155749
:102BE8002380E700EFE0AFE729ED83A741C123ACDD
:102BF800F1C0A1CB9386F7FF23AAD1C023AA01C4B1
:102C080019A083A781C1054523A0F1C0EFF0EFCD3E
:102C18000DE983A741C503C741C6850723AAF1C4A7
:102C28006DD3EFF0AFC411ED03A541C56244F24086
:102C3800D2444249B24905616FF0DFE2EFE0EFCFDD
:102C480059D1F2406244D2444249B2490561828076
:102C5800EFF05F8D2DD1F2406244D2444249B2492F
:102C680005618280797122D406D626D24AD04ECE0A
:102C780052CC56CA5AC85EC6EFF0DF8AA384A1C8F0
:102C8800630F051093072004630DF500B25022541A
:102C980092540259F249624AD24A424BB24B4561B8
:102CA800828083D6E1C483D7C1C403A741C163E04E
:102CB800F6086319071083A701C1A384F1C8130A92
:102CC800500E83A781C5FD1723ACF1C423AAF1C216
:102CD800EFE06FCE45FD03D6C1C4239701C40DCAEA
:102CE80083A501C283C705006388472593070002AF
:102CF80001A883C606004207418363864603BA8754
:102D0800B386F50013870702E3E5C7FE2397F1C4EE
:102D180083C791C8FD1793F7F70FA384F1C8D5F3BC
:102D28001305200BA5B703A741C12397F1C423AA14
:102D3800E1C4EFF00FE39307100B6300F50839F5D2
:102D4800EFF0CFB221F583A741C57D5523AAF1C085
:102D5800EFF05FD105FD03A781C523AAE1C2EFE02B
:102D68008FC5E31505F283D6E1C403A701C28147E5
:102D7800369723AEE1C2A945930800027D4801A811
:102D8800230007006380061103A7C1C385073E9788
:102D980093F6F70FE3E6F5FE23001701F5B7EFF01A
:102DA8003FE0E31505EE03A741C123AAE1C4EFF014
:102DB8004FDB9307100BE314F5F823AA01C4EFF0D7
:102DC8004FDAB5BF014523A0E1C0EFF00FB2E31F12
:102DD80005EA83C741C603A741C1B1DB23AAE1C401
:102DE800EFF02FD89307100B6309F508E31005EAF5
:102DF80083A741C1094523A0F1C0EFF00FAFE31746
:102E080005E8EFF0AFA6E31305E883D6C1C489CE81
:102E180003A601C281473307F6009107C2072320A2
:102E28000700C183E399D7FE83A741C503C641C004
:102E380083A641C7F91703C701C6B397C700B6975A
:102E4800A38401C823AAF1C2239701C423ACF1C407
:102E5800238CE1C019EFE5A083C781C103A741C353
:102E6800FD17050793F7F70F23AAE1C2238CF1C0DA
:102E7800F9C7EFE0CFBE6DD111BD23AA01C4EFF0B1
:102E88004FCEADB703A6C1C38D6793871702231C26
:102E9800F60085475CCE83A781C79308E0022D43DF
:102EA80003C70700B305A60005051375F50F09CF7D
:102EB80093861700630917052380E50023ACD1C664
:102EC80063046500B687E9BF83A741C113D707012B
:102ED800231DF600231AE600EFE06FB8E31805DAC1
:102EE80083A641C103C781C323AAD1C423A401C4B3
:102EF80023A201C2A38401C8BD4663F3E602514779
:102F0800238CE1C261B323ACD1C603C717009386F3
:102F1800270023ACD1C62304E6002545B68749B768
:102F28002254B25092540259F249624AD24A424B50
:102F3800B24B45616FE06FA003A741C1CDBB7D5582
:102F4800EFF05FB2E31405D403A741C1CDB303A7E3
:102F580041C1D5459337170023AAE1C4B307F04010
:102F680023A201C25145A384F1C86FE0EFB53971BE
:102F78005AD083C781C306DE22DC26DA4AD84ED669
:102F880052D456D25ECE62CC66CA6AC86EC655475F
:102F9800630BF70083C781C35147631FF726EFF020
:102FA8001FFB6316051A03D701B2938401B2239459
:102FB800E40009E783C7A1C863980726239001B2F4
:102FC800054C6301071803C791C89307F00F6312F4
:102FD800F70683A741C16385072283C781C3494791
:102FE8006317F70003C7D1C08D47631FF72683A770
:102FF80041C523A2F1C2EFF00FD1631A051403A74C
:1030080041C2094523A0E1C0EFF02F8E63110514DA
:1030180003A781C083A701C26303F7207D55EFF0A2
:103028007FA46316051283A781C4A38401C823A2C1
:10303800F1C2EFE02FA783D5C1C483A641C203C75D
:1030480091C883C701C603C8D1C71385F5FF337676
:10305800D500998F420603D784004182B3970701B0
:10306800918F63F3E7003E87AE8D6361B710630EFF
:103078000610B38DC540C20D93DD0D01636CB71901
:10308800EFE06F9369E583D5C1C483A641C2138578
:10309800F5FF03A701C203D601B2DC40758D9395F5
:1030A8000D012A97B297C18163840D021386F5FF3B
:1030B8004206418205063E96850783C6F7FF050747
:1030C800A30FD7FEE39AC7FE83A641C203D601B277
:1030D80083D78400B69D2E968D8F23A2B1C32394E7
:1030E800F4002390C1B2EFE08F9735E103A741C206
:1030F80083A681C463F6E60023A4E1C4238581C9BD
:1031080083D7C1C4FD17F98F95EB83C791C803C74F
:1031180001C6850793F7F70FA384F1C863E0E702B8
:1031280003A741C5014523A0E1C0EFE01FFC05E16D
:1031380083C741C6F9CBFD57A384F1C803D78400E0
:10314800E31307E883C7C1C00145639F070EF25028
:103158006254D2544259B259225A925A025BF24BE3
:10316800624CD24C424DB24D21618280B38DC54034
:10317800C20D93DD0D016373B701BA8DE31206F03A
:1031880083A781C4E3F7F6F0E5BD83D701B2CC404D
:10319800BE9593F73500EDF7335A0701937DFA0F83
:1031A8006E85EFD0AFB145F583C7D1C703D784008B
:1031B80083C691C8B317FA001396070183A841C2C2
:1031C80003D801B24182118FEE96420703A581C44C
:1031D80093F6F60FC69741834296A384D1C823A2DB
:1031E800F1C22394E4002390C1B26376F50023A4CE
:1031F800F1C4238581C983C701C6E3E4F6DC0DB7B2
:10320800EFF06FFFE30C05E099B703D78400A384C0
:1032180001C845BBBA8DADB51305400B0DBFEFE036
:10322800FFE4E30D05DE25B76254F250D25442594B
:10323800B259225A925A025BF24B624CD24C424D1E
:10324800B24D21616FF07F866254F250D2544259D8
:10325800B259225A925A025BF24B624CD24C424DFE
:10326800B24D21616FE09FE01305100BCDB5B3C7D8
:10327800A5008D8B3307C50081E78D4763EEC70036
:10328800AA876370E50A83C6050085078505A38FAD
:10329800D7FEE3EAE7FE828093763500AA8791CAD3
:1032A80083C6050085078505A38FD7FE93F63700EB
:1032B800FDB79376C7FF138606FE63F0C70683A3A0
:1032C800050083A2450083AF850003AFC50083AE28
:1032D800050103AE450103A3850183A8C5019385B4
:1032E800450223A0770003A8C5FF23A2570023A403
:1032F800F70123A6E70123A8D70123AAC70123AC16
:10330800670023AE17019387470223AE07FF75B7FF
:1033180090419107910523AEC7FEE3EBD7FEE3E4A6
:10332800E7F6828039713EDA2ED232D436D63AD8D0
:1033380042DC46DE97170020938747D222CC804391
:1033480026CA06CEAA8409C41C4C99E32285852B7B
:103358000C4454102686228536C6EF00501CF240D5
:103368006244D2442161828001119717002093871B
:10337800E7CE22CC804306CEAA8519C41C4C89E727
:103388002AC622852D2BB245104422856244F2407C
:1033980005616F00B07D011126CA4AC806CE22CC4D
:1033A8004EC652C4AA842E8901C51C4D91E3012B37
:1033B8009C4C804499E3268519239717000093872E
:1033C800E741631CF402C0408357C400A18BB1C716
:1033D8001C48A1C7FD59294A1C4483450900FD170B
:1033E800B1E91CC463DE07062286A9452685552057
:1033F800FD576308F502294535A097170000938704
:10340800E73F6314F4008044C1B79717000093871F
:10341800E73AE31BF4FAC04445BFA2852685152A7E
:1034280055D97D55F2406244D2444249B249224AB4
:10343800056182801CC4050963D70700184C63CB5B
:10344800E700638945011C401387170018C02380D3
:10345800B70059B7228626852D28E31F35F7D1B73F
:103468001C401387170018C029472380E70061B75D
:1034780097170020938787BEAA8588436FF0BFF10E
:10348800AA8703C7050085078505A38FE7FE75FB97
:103498008280011122CC26CA4AC806CE4EC6AA840A
:1034A8002E89328401C51C4D91E31129971700001C
:1034B8009387C7326319F406C0401C4C1CC4835759
:1034C800C400A18BC9C31C48BDCF1C4808409379D0
:1034D800F90F1379F90F1D8D5C486346F500A28535
:1034E8002685752C2DE51C440505FD171CC41C40BC
:1034F8001387170018C0238037015C486389A70029
:103508008357C400858B81CBA9476316F900A28530
:10351800268571240DEDF24062444A85D244424921
:10352800B24905618280971700009387272D63149D
:10353800F400804459B79717000093872728E31EA3
:10354800F4F6C0449DBFA285268521203DDD7D5926
:10355800D9B7411197170020938747B026C28443F3
:1035680022C44AC006C62A892E8489C49C4C99E381
:103578002685B1269717000093874726631CF40217
:10358800C0400317C40093170701C18393F687004F
:10359800B5EE93F607019DEEA5472320F9001367C2
:1035A80007042316E4007D55B240224492440249A0
:1035B8004101828097170000938747246314F40021
:1035C8008044C1B7971700009387471FE31BF4FA9D
:1035D800C04445BF918B8DC74C5889C99307440493
:1035E8006384F5004A85A923232A04028357C4006B
:1035F8002322040093F7B7FD2316F4001C481CC0CF
:103608008357C40093E787002316F4001C4881EF12
:103618008357C4001307002093F707286385E70042
:10362800A2854A85B5218357C40013F7170005C73B
:103638005C4823240400B307F0401CCC1C48014517
:10364800A5F78317C40013F7070839DF93E70704C2
:103658002316F40089BF898B014791E3584818C4A1
:10366800F1BF83D7C500011122CC26CA06CE4AC8AD
:103678004EC613F78700AA842E8471EFD841634D94
:10368800E000B841634AE0000145F2406244D24498
:103698004249B2490561828058547DD703A9040084
:1036A8009396370123A0040063DD0606704883570C
:1036B800C400918B99C75C401D8E5C5899C33C40EF
:1036C8001D8E5C540C50814626858297FD57035702
:1036D800C400631DF5009440F54763E8D706B707B3
:1036E80040208507B3D7D700858BA5C31C48232264
:1036F80004001CC09317370163D80700FD576314F3
:10370800F5009C4091E368C84C5823A02401ADDD26
:10371800930744046384F50026851929232A0402A3
:10372800A5B70C500146854626850297FD572A867F
:10373800E31FF5F69C40A5DF75476385E700594709
:103748006394E70423A0240181B7136707042316B1
:10375800E4007D551DBF83A90501E38709F203A98C
:1037680005008D8B23A0350133093941014791E3C9
:10377800D84918C4E35A20F11C540C50CA864E8606
:10378800268582976349A0008357C40093E70704FE
:103798002316F4007DBFAA993309A940E1BF9C49CB
:1037A800A5C3011122CC06CE2A8411C51C4D81E780
:1037B8002EC63122B2459717000093872702639CD3
:1037C800F5004C408397C5009DC722856244F240AE
:1037D80005616FF01FE9971700009387270263942C
:1037E800F5000C44C5B797170000938727FDE39BA6
:1037F800F5FC4C44C1BFF24062440145056182803A
:1038080001458280411122C406C62A842316B500C8
:103818002317C500232005002322050023240500C3
:103828002322050623280500232A0500232C05004A
:10383800214681451305C505EFC09F9297170000E3
:103848009387E7BD5CD097170000938747C01CD4C7
:1038580097170000938787C45CD497170000938755
:1038680047C700D01CD8B240224441018280970546
:103878000000938505F391AA411126C2130680061C
:103888009384F5FFB384C4024AC02E8922C406C6B5
:103898009385440791262A8401CD232005002322FD
:1038A8002501310508C4138684068145EFC05F8B66
:1038B8002285B240224492440249410182801C4D33
:1038C800A5E7411106C622C497070000938767FA47
:1038D8001CD59387C1829C43232405042326050411
:1038E800232805046314F50085471CCD2A84352850
:1038F80048C022851D2808C42285052848C4484098
:1039080001469145EFF01FF008440546A545EFF044
:103918007FEF48440946C945EFF0DFEE85471CCCE8
:10392800B240224441018280828041119387C18242
:1039380026C284434AC006C69C4C22C42A8981E711
:103948002685EFF0DFF7938484048044DC40FD177C
:1039580063D607009C40B9CF8440C5BF0317C40095
:1039680039E7C17785072322040623200400232290
:103978000400232404005CC423280400232A040030
:10398800232C0400214681451305C405EFC04FFDD3
:10399800232A0402232C04022324040423260404D7
:1039A8002285B24022449244024941018280130494
:1039B800840671BF91454A85EFF01FEC88C049FD28
:1039C800B1472320F9000144E1BF797122D44AD0DC
:1039D80052CC56CA5AC85EC606D626D24ECE2A8AB7
:1039E800AE8A130485040149054BFD5B09ECB2500E
:1039F80022544A8592540259F249624AD24A424BA9
:103A0800B24B45618280044483294400FD1963D484
:103A180009000040E1BF83D7C400637BFB008397A4
:103A2800E40063877701A6855285829A3369A900E5
:103A380093848406E1BF1971A6DAAE848395E50004
:103A4800A2DC86DE328463DC050083D7C40023A0B1
:103A5800060093F7070885E7930700401DA0300884
:103A680036C6EF00902CB246E34105FE7247BD67AB
:103A7800F98F7977BA9793B717009CC2F1BF93076C
:103A880000041CC0F6506654D65401450961828072
:103A980083D7C500011122CC06CE26CA4AC8898B15
:103AA8002E8489CF930774041CC01CC885475CC842
:103AB800F2406244D2444249056182807400300079
:103AC800AA84EFF05FF7A2452A892685312201ED05
:103AD8008317C40013F7072061FFF19B93E72700C2
:103AE8002316F400C1B797070000938787D89CD4A2
:103AF8008357C40008C008C893E707082316F400D2
:103B0800A2475CC8B24791CF8315E4002685EF0031
:103B1800702401C98357C400F19B93E7170023164B
:103B2800F4008357C4003369F9002316240149B708
:103B3800DDC183A7C5FF411122C406C626C213846E
:103B4800C5FF63D307003E94AA84EF0090279387AC
:103B580001839C4381EF2322040023A8818222440D
:103B6800B2402685924441016F00D025637EF4005F
:103B780014403307D4006396E7009843DC43369734
:103B880018C05CC0D9BFBA87D84319C3E37DE4FE27
:103B980094433386D700631F86001040B29694C3BF
:103BA8003386D700E31DC7FA10435843B29694C32F
:103BB800D8C375B76375C400B1479CC04DB71040F2
:103BC800B306C4006316D70014435843B29614C012
:103BD80058C0C0C369B78280011126CA93843500D2
:103BE800F19806CE22CC4AC84EC6A104B14763F567
:103BF800F404B14463E4B4042A89EF00901C938769
:103C0800018398433A8429E4938741839C4399E745
:103C180081454A85EF00E07D23AAA182A6854A85D1
:103C2800EF00207DFD5963193507B1472320F900BE
:103C38004A85EF00301929A0E3DE04FAB1471CC118
:103C48000145F2406244D2444249B249056182804A
:103C58001C40858F63CF0702AD4663F6F6001CC093
:103C68003E9404C031A05C406313870223A8F1820C
:103C78004A85EF0030151305B40093074400619995
:103C88003307F5405DDF3A94898F1CC05DBF5CC384
:103C9800C5B72287404085BF130435007198E302F9
:103CA80085FCB305A4404A85A927E31C35FBB5BFAD
:103CB8001C46FD171CC663DA0700184E63C5E700EB
:103CC800A9476394F5006FF0CFFC1C422E8513873B
:103CD800170018C22380B7008280011122CC26CA9F
:103CE8004AC84EC652C406CE2A89AE893284B30465
:103CF800D6007D5A63149400014511A88345040039
:103D08004E864A85EFF0DFFA0504E31545FFF240D9
:103D18006244D2444249B249224A056182803571DF
:103D280022CD26CB4AC94EC706CF52C556C35AC163
:103D3800DEDEE2DCE6DAAA89AE843289368409C599
:103D48001C4D99E3EFF0BFB797170000938707A9B9
:103D5800639DF40C83A4490083D7C400A18BE5CBF1
:103D68009C48F5C793070002A304F10293070003D8
:103D780002D22305F10222C6930B5002971A0000C3
:103D8800938ACAA9054C294B4A848347040099C3DE
:103D98006392770FB30C2441638E0C00E6864A8643
:103DA800A6854E85EFF07FF3FD576307F51E925603
:103DB800E69636D2834704006380071EFD57130931
:103DC800140002C802CE3ECA02CCA309010482D460
:103DD8008345090015465685EF00007D1304190038
:103DE800C24759E913F7070109C713070002A309D6
:103DF800E10413F7870009C71307B002A309E10418
:103E0800834609001307A0026380E608F2474A8444
:103E1800814625460347040093051400130707FD50
:103E28006379E60AB5CA3ECE85A89717000093873E
:103E3800E79C6395F40083A4890039BF97170000B5
:103E48009387C797E39AF4F083A4C90031B7A6858E
:103E58004E85EFF00FF019D57D55FA406A44DA44E3
:103E68004A49BA492A4A9A4A0A4BF65B665CD65CC2
:103E78000D618280050411BF330555413315AC002F
:103E8800C98F3EC82289A9B732479306470018430D
:103E980036C6634907023ACE034704009307E00297
:103EA800631FF704034714009307A002631BF7027C
:103EB800B2470904138747009C433AC663C1070207
:103EC8003ECA35A83307E04093E727003ACE3EC8FC
:103ED800E1B7B387670385462E84BA9725BFFD5798
:103EE800C5B7050402CA8146814725460347040031
:103EF80093051400130707FD6376E606F1F2834580
:103F080004000D46171500001305C591712D11CD3C
:103F180097170000938707911D8D93070004B397A7
:103F2800A700424505045D8D2AC88345040019464B
:103F3800171500001305458F130914002304B10257
:103F4800A5253DC197C7FFFF9387470B95E74247D4
:103F5800B2471377071009CF91073EC69257D297F9
:103F68003ED21DB5B387670385462E84BA97BDBF79
:103F78009D07E19BA107D5B77800970600009386B7
:103F880006D626860C084E8597000000E70000003C
:103F9800FD572A8AE314F5FC83D7C40093F7070476
:103FA800E39C07EA125555BD7800970600009386F2
:103FB80006D326860C084E85012AD9BF797156CAC0
:103FC8009C49BA8A984522D426D24ECE52CC06D6DF
:103FD8004AD05AC85EC6AA892E84B284368A63D368
:103FE800E700BA879CC00347340419C385079CC0FF
:103FF8001C4093F7070281C79C4089079CC003298E
:10400800040013796900631A0900130B9401FD5B1E
:104018005C449840998F634CF9041C4083463404EF
:1040280093F70702B336D000A5EB13063404D28504
:104038004E85829AFD576303F5041C40114698404B
:10404800998B544481446397C700B384E64063D393
:10405800040081441C4418486354F700998FBE94A7
:10406800014969047D5B63982405014509A88546D3
:104078005A86D2854E85829A631E75017D55B25047
:10408800225492540259F249624AD24A424BB24BE4
:10409800456182800509ADBF3307D40013060003CC
:1040A800A301C7040347540493871600A2978906FF
:1040B800A381E7049DBF85462286D2854E85829AD4
:1040C800E30E65FB050945B7797122D426D24AD09B
:1040D8004ECE06D652CC56CA5AC8B68983C6850172
:1040E8009307E0063289AA842E84138635046381F7
:1040F800F61E63E2D706930730066382F60A63ED7D
:10410800D700638B061E930780056387F616930A0C
:1041180024042301D40469A8930740066386F600A3
:1041280093079006E395F6FE1C40084393F60708AC
:1041380093054500C1C21C410CC363D8070013078F
:10414800D002B307F040A301E40497060000938669
:10415800266E294765A0930730076383F61A63EF35
:10416800D7009307F006638FF60493070007E390E0
:10417800F6FA9C4193E707029CC109A893075007E8
:104188006382F60493078007E393F6F893078007A2
:10419800A302F404970600009386C66AE5A01C43B0
:1041A800938A2504938647009C4314C32381F5040E
:1041B8008547B5A293F607041C410CC3BDDEC207B0
:1041C800C187A5BF0C401C4313F805081385470099
:1041D8006305080008C39C4339A093F5050408C388
:1041E800FDD983D707001307F006638BE60C970603
:1041F80000009386E6632947A30104044C400CC4DD
:1042080063C5050008406D9908C099E3B28A91CD4D
:10421800B28AB3F5E702FD1AB69583C50500238077
:10422800BA00B3D5E70263F3E70AA147631EF700B4
:104238001C40858B91CB58401C4863C7E700930707
:104248000003A38FFAFEFD1A3306564110C84E87A5
:10425800CA867000A2852685EFF05FD67D5A631462
:10426800450D7D55B250225492540259F249624A82
:10427800D24A424B45618280A382D504970600004A
:104288009386065B0C40084313F805081C4111058A
:104298006300080208C313F7150001C793E5050278
:1042A8000CC04147B1FB0C4093F5F5FD0CC0A9B714
:1042B80013F8050408C3E30008FEC207C183E1BF81
:1042C800970600009386C65621473DB7AE8791B73B
:1042D80094411C43CC4913F806081385470063062C
:1042E800080008C39C438CC301A808C393F60604BE
:1042F8009C43F5DA2390B70023280400B28A81BFD3
:104308001C43D04181459386470014C383AA070004
:104318005685592C01C53305554148C05C401CC819
:10432800A30104042DB714485686CA8526858299A8
:10433800E30945F31C40898B8DE7B2474844E353B2
:10434800F5F23E8505B785465686CA852685829943
:10435800E30965F1050A5C443247998FE345FAFEA3
:10436800E9BF014A930A94017D5BF5B7011122CC9C
:1043780006CE2A8409C91C4D99E732C62EC4EFF02F
:104388000FD43246A2459707000093872745631646
:10439800F60250401C46FD171CC663D00704184E91
:1043A80063C7E70093F7F50F29476398E70222856B
:1043B8006244F24005616FF0CF8D97070000938744
:1043C800E7436314F6001044F1B79707000093879A
:1043D800E73EE311F6FC504475BF1C4213F5F50F98
:1043E8001387170018C22380B700F24062440561A2
:1043F8008280411122C42A842E8523A601C806C6BC
:104408003D24FD576317F5009387C1C89C4391C3AA
:104418001CC0B240224441018280411122C42E8432
:104428008395E50006C64522634905007C48AA979E
:104438007CC8B2402244410182808357C4007D7702
:104448007D17F98F2316F400EDB783D7C500011146
:1044580022CC26CA4AC84EC606CE93F70710AA84AD
:104468002E843289B68991C78395E500894601462D
:1044780031228357C4007D777D17F98F2316F40006
:104488008315E4006244F240CE864A86B249424926
:104498002685D24405613DA8411122C42E84839506
:1044A800E50006C6E128FD570357C400631BF50065
:1044B800FD77FD17F98F2316F400B240224441011D
:1044C80082808567D98F2316F40068C8FDB7839565
:1044D800E50005A8411122C42A842E85B2853686B6
:1044E80023A601C806C6EFC0CFB9FD576317F5006C
:1044F8009387C1C89C4391C31CC0B2402244410168
:104508008280411122C42A842E8523A601C806C6AA
:10451800CD20FD576317F5009387C1C89C4391C30D
:104528001CC0B240224441018280411122C42A8425
:104538002E85B28523A601C806C6D120FD5763176C
:10454800F5009387C1C89C4391C31CC0B240224464
:1045580041018280411122C42A842E8523A601C8E4
:1045680006C66520FD576317F5009387C1C89C43AD
:1045780091C31CC0B240224441018280411122C42F
:104588002A842E85B285368623A601C806C66120F0
:10459800FD576317F5009387C1C89C4391C31CC09E
:1045A800B24022444101828093F5F50F2A966314A4
:1045B800C5000145828083470500E38DB7FE0505E8
:1045C800FDB782808280411122C42A842E85B2855B
:1045D800368623A601C806C6A920FD576317F5002D
:1045E8009387C1C89C4391C31CC0B2402244410177
:1045F80082809307800523A6F1C87D5582809307A2
:10460800800523A6F1C87D5582809307800523A6DF
:10461800F1C8014582809307800523A6F1C87D551E
:1046280082809307800523A6F1C87D5582809387F1
:1046380081839C4391C73E9523ACA1823E858280AD
:10464800938701C93E9523ACA1823E8582800000F4
:104658004572726F723A20253032580A0000000005
:10466800537461727420404368697049443D253031
:104678003258200A000000005761697420446973A9
:104688006B52656164790000253032780A000000B9
:1046980043726561746500002F4E455746494C4585
:1046A8002E5458540000000042797465577269749A
:1046B800650000004E6F74653A200D0AD5E2B8F621
:1046C800B3CCD0F2CAC7D2D4D7D6BDDACEAAB5A554
:1046D800CEBBBDF8D0D055C5CCCEC4BCFEB6C1D07B
:1046E800B42C353733BCF2B5A5D1DDCABEB9A6C4E2
:1046F800DCA1A30D0A000000B3C9B9A6D0B4C8EB69
:104708002025303258B4CE0A00000000436C6F7385
:1047180065000000E0C0FFFF08C1FFFF30C1FFFFD8
:1047280048C1FFFF62C1FFFF5553422064657620F0
:10473800696E000055534220646576206F757400D9
:10474800526573657420686F737420706F7274009B
:104758007825303258200000476574436667446501
:104768007363723A20000000496E6974526F6F7467
:1047780044657620457272203D20253032580A0063
:1047880044697361626C6520686F737420706F721E
:10479800742062656361757365206F662064697350
:1047A800636F6E6E6563740047657444657644652F
:1047B8007363723A2000000000000000000000004F
:1047C80000000000000000000000000000000000E1
:1047D80000000000000000000000000000000000D1
:1047E80000000000000000000000000000000000C1
:1047F80000000000000000000000000000000000B1
:1048080000000000000000000000000000000000A0
:104818000000000000000000232D302B20000000C5
:10482800686C4C0065666745464700003031323396
:104838003435363738394142434445460000000094
:1048480030313233343536373839616263646566FE
:04485800000000005C
:10485C0000000000E047000000480000C0470000D6
:10486C00000000000000000000000000000000003C
:10487C00000000000000000000000000000000002C
:10488C00000000000000000000000000000000001C
:10489C00000000000000000000000000000000000C
:1048AC0000000000000000000000000000000000FC
:1048BC000040002002010000000000008006000201
:1048CC000000040080060001000012000005020038
:1048DC000000000000090000000000000040002063
:00000001FF
