:100000006F004000975100209381C1851781002027
:10001000130141FF1305400A973500209385857E23
:10002000174600201306669F63FAC5008322050069
:1000300023A0550011059105E3EAC5FE1725000030
:100040001305C538974500209385C5FB138681802D
:1000500063FAC5008322050023A055001105910510
:10006000E3EAC5FE13858180938541936377B500EC
:10007000232005001105E36DB5FE9302800873A0EF
:100080000230973200209382E27793E2120073905D
:100090005230970200009382222D73901234730025
:0400A000203000000C
:1000A40000000000000000006F0080086F00801A4C
:1000B400000000000000000000000000000000003C
:1000C400000000000000000000000000000000002C
:1000D4006F004006000000006F00E0050000000013
:1000E4006F0080056F0060056F0040056F002005FC
:1000F4006F0000056F00E0046F00C0040000000002
:100104006F0060046F0040046F0020046F0000045F
:100114006F00E0036F00C003000000006F00600385
:100124006F0040036F0020036F0000036F00E002C4
:1001340001A001A001A001A001A001A001A001A0B3
:1001440001A001A001A001A001A001A001A001A0A3
:1001540001A001A001A001A001A001A0B7170040C7
:10016400930670052380D704130780FA2380E704DD
:1001740003C6B7041376F60DA385C70423800704CA
:100184001376050225C603C6A700118A0DE2238053
:10019400D7042380E70403C7A70013674700238518
:1001A400E7009307004B01000100FD17EDFFB717AF
:1001B4000040930670052380D704130780FA238038
:1001C400E7047D892394A7000100010001000100D8
:1001D400238007042380D7042380E7048546372738
:1001E4000040A303D780238007048280137605048C
:1001F4006DDE03C6A700418A0DE22380D704238065
:10020400E70403C7A700136707012385E7009307E3
:10021400007D01000100FD17EDFFB71700409306B4
:1002240070052380D704130780FA7D892380E704AF
:10023400136505042394A7000100010001000100D7
:10024400238007042380D7042380E7048D463727BF
:10025400004041BFB7170040130770052380E7042F
:10026400130780FA2380E7047D572396E70203C728
:100274006704136717002383E7042380070401A09E
:10028400BD473305F50201007D1575FD82804111DE
:1002940022C426C206C6AA84014463179400B2404D
:1002A400224492444101828005041305803E4204A5
:0602B400C13F4180DDB7EF
:1002BC003D432A876373C3029377F700BDEFADE527
:1002CC00937606FF3D8ABA960CC34CC30CC74CC739
:1002DC004107E36BD7FE11E28280B306C3408A0666
:1002EC009702000096966780A6002307B700A30626
:1002FC00B7002306B700A305B7002305B700A30476
:10030C00B7002304B700A303B7002303B700A3026D
:10031C00B7002302B700A301B7002301B700A30065
:10032C00B7002300B700828093F5F50F93968500F4
:10033C00D58D93960501D58D61B7939627009702BD
:10034C00000096968682E78086FA9680C1171D8FEC
:10035C003E96E374C3F8A5B741111305800406C695
:10036C0022C426C24AC097300020E780A05415450D
:10037C0097300020E7802067854505453D2A3714D6
:10038C0000408327840A85451305001093E7072056
:10039C002324F40A41208D4513050020A528B124FF
:1003AC008345140417250000130545E237840040EB
:1003BC00EF00703097470020938747CB23AAF18832
:1003CC009387418523ACF188EF003001172500009D
:1003DC00130505E1EF00F04285445549834764005D
:1003EC000145858B81CB23039400992C6314250143
:1003FC00238E918883C7C18999E3E31125FF1305E7
:10040C00800C238E018897300020E780C05DEF00C0
:10041C003006E9B7914763EEB702172700001307C0
:10042C0027DD8A05BA959C41BA978287B717004099
:10043C0003A7470B1345F5FF698F23AAE70A03A708
:10044C00070B698F23A8E70A03A7070A798D23A056
:10045C00A70A8280B717004083A6470B1347F5FF06
:10046C00F98E23AAD70A83A6070B558D23A8A70AB2
:10047C0083A6070A758F23A0E70A8280B71700406E
:10048C0003A7470B498F23AAE70A03A7070B1345BA
:10049C00F5FF45BFB717004083A6470B1347F5FF81
:1004AC00758F23AAE70A03A7070A598D4DB7B7170B
:1004BC00004003A7470B498FEDB705E1B717004084
:1004CC00130770052380E704130780FA2380E704E1
:1004DC0023820702238007048280411106C622C4AE
:1004EC00B7170040130770052380E704130780FA41
:1004FC002380E70413F7350093F60508A382E7027F
:10050C00A1C68981858993E525002382B70237141A
:10051C00004023000404054597300020E780C04BC1
:10052C00930770052300F404930780FA2300F40466
:10053C008347440293E7C7002302F4022300040418
:10054C00B24022444101828005472382E702C1B7B1
:10055C00B717004003D58700420541819377050406
:10056C0091EB9377F5013755E80113050580334579
:10057C00F50282809377050C130700046397E7005C
:10058C009377F50137459C1CCDB72165130505D034
:10059C008280814737370040A14663C4C70032854B
:1005AC0082800345B740E38EA6FE3385F5000345F4
:1005BC00050085072304A740CDB7411122C406C608
:1005CC002A8479372947B307E502B2408D83B3D724
:1005DC00870222449507B3D7E70237370040C2079A
:1005EC00C1832316F74041018280716541111305C7
:1005FC00052006C6D937B7370040130770F823819A
:10060C00E7400D47A381E74013070004A380E740B0
:10061C0005472387E740B24041018280B7870040FD
:10062C0003C707001377F70B2380E70003C76702A4
:10063C001377F7072383E70282802390018A828055
:10064C00411106C6378700408347570003C5018A0E
:10065C00858B9DCF11C5834717000145858B95E789
:10066C00E93FB787004083C75700172500001305E3
:10067C0065B9858393C71700858B2381F18A8547DC
:10068C002380F18AEF00F0175545B240410182807A
:10069C006DDD653717250000130585B7EF00701663
:1006AC005945E5B737870040834737001375F50781
:1006BC0093F70708C98FA301F700828011C1B9BF56
:1006CC00378700408347070093E707042300F700B0
:1006DC0082804111A147014506C622C4A38EF18830
:1006EC0037840040C1378347140093F7E70FA3000A
:1006FC00F4002D37834714003D4593F7970F93E78C
:10070C002700A300F40097300020E780C02D83471A
:10071C0014001305A00F93F7D70FA300F400973024
:10072C000020E780602B85472303F400B24022446D
:10073C004101828083C7018A81E785472380F18A42
:10074C00B787004003C757005945058B05CF03C732
:10075C001700058B19EF03C75700098B9336170049
:10076C002381D18A19C703C7170013674700A380D9
:10077C00E7003787004083471700014593E71700D0
:10078C00A300F7008280397122DC26DA4AD84ED6D3
:10079C0052D456D25AD05ECE62CC66CA6AC86EC6E5
:1007AC0006DEB78700402387B702B78D0040AA89C1
:1007BC00328D2385B70213594500014493846D0093
:1007CC00094B054AD54B854A7D5CB94C23843D03C6
:1007DC00238064019307003203C70400098B09E7E7
:1007EC00FD17C207C183EDFB23840D0283C70400F0
:1007FC00898BE5C383C70400858B9DC3238044018B
:10080C00813563147501238E418983C7018AD5C74D
:10081C006387570B1305800C97300020E780C01BB3
:10082C0083C70400898BD9C783C77D0093F707045E
:10083C00C9EB83C77D0093F7F70F13F5F70063043B
:10084C00950929476319E50263020D08FD576303F7
:10085C00FD007D1D7D141374F40F3D459730002071
:10086C00E780801705041374F40F8947E3F087F6CB
:10087C001305000221A825476309E902B547630463
:10088C00F9006318590571D913650502F2506254C9
:10089C00D2544259B259225A925A025BF24B624CD0
:1008AC00D24C424DB24D216182809D8B0D47E39C11
:1008BC00E7FC65B7238084014DB75945C1BF554549
:1008CC00F1B70145E1B71305E002C9B71305A00262
:1008DC0075BF1305E00F5DBF011126CA4AC8AE846F
:1008EC002A891305800C06CE22CC4EC652C456C2A1
:1008FC005AC097300020E780200E99C02380040056
:10090C0037840040A14789692306F40213860971D4
:10091C0081451305000D853D63150514930700FDF6
:10092C002307F4022305F40285472306F402938A75
:10093C00818983A70A0003C4770003C767002204D8
:10094C00598C61CC630B090C83870700378A0040F4
:10095C009389097163CA07041305800C9730002032
:10096C00E780800783C7D1896374F4009377F40F11
:10097C002306FA0281470347CA026399E7108345AD
:10098C00EA024E864145013569ED8347CA021D8C4A
:10099C004204418081C88347CA0203C70400BA9746
:1009AC002380F40055F895A8938A41891305800C8F
:1009BC0097300020E78040028345AA024E8613053B
:1009CC000009D13359ED03478A009377F40F63760E
:1009DC00870083478A0093F7F70F1D8C42044180F0
:1009EC0091C403C704003E972380E400014793762B
:1009FC00F70F6392D7083E9983478A0093F7F70F56
:100A0C0089CB03478A0083C7D189FD17F98F91E3FE
:100A1C0051FCB7870040238607021305800C9730E2
:100A2C000020E78060FBB787004083C7C70213052F
:100A3C00000993F7F70F91E3414509661306067118
:100A4C009305000C893311ED378700408347C702AB
:100A5C0093F7F70F99C78347870093F7F70F91C365
:100A6C005D45F2406244D2444249B249224A924A1C
:100A7C00024B0561828083A60A00BA9603C6060063
:100A8C00B306E90005072380C60095B703A70A0043
:100A9C008346090005093E9785072300D70093F785
:100AAC00F70FD1BD814793858189A14698413306C3
:100ABC00F500034606003E9785072300C700E39721
:100ACC00D7FE82800111A147172500001305058D63
:100ADC0006CEA38EF188F9379305F1001385018BAF
:100AEC00E53B05E19387018B83C77700A38EF188E3
:100AFC000347F1009727000083D7A78A6373F70099
:100B0C005D45F24005618280011117250000130537
:100B1C00658806CE413F9305F1001385018B6D3B33
:100B2C0029E10347F1009727000083D707875D452C
:100B3C006369F70283C7218B172500001305858590
:100B4C00A307F1008537938781899C430347F10004
:100B5C009305F100A38307002383E7001385018B22
:100B6C00A53BF24005618280411126C2AA8417255B
:100B7C0000001305258306C622C42D37938781896F
:100B8C009C438145014523819700A3810700A9332C
:100B9C002A8401E926853936294597300020E780DB
:100BAC0080E42285B240224492444101828041116A
:100BBC0022C42A84171500001305457F06C6DD35AF
:100BCC00938781899C43B2408145238187002244CD
:100BDC00A38107000145410101B3411122C406C69E
:100BEC0037840040930700F82300F400A3000400AE
:100BFC00A301040093078004A306F40083D7418962
:100C0C00231CF40083D78189231EF40023050402DE
:100C1C0023070402930790F82300F40093070004C1
:100C2C002303F402FD572303F400013C8D472301F9
:100C3C00F400B2402244238E0188410182800111CC
:100C4C00171500001305057706CEA93D9305F10095
:100C5C001385018B513111E90347F10097170000FF
:100C6C0083D7A7756373F7005D45F24005618280F9
:100C7C000111171500001305655A06CE22CC26CAA1
:100C8C004AC84EC652C4B52EA93481440144130936
:100C9C004006054597300020E780E0D4613C19E51B
:100CAC00850493F4F40F636A991C014405041374CE
:100CBC00F40FE31024FF51321715000013054560A3
:100CCC0089265944F9A0B307890083C507004E85CE
:100CDC000504D5221374F40F93170401C183E3E4C4
:100CEC0097FE2945192C835789009719000083C951
:100CFC00896B4E852392F18A8357A90083C4418B5B
:100D0C002393F18A95352A8419ED171500001305E4
:100D1C006552A380318B4522C53B2A84971900006C
:100D2C009389C95005C5A285171500001305C55731
:100D3C00592289472380F18A91A8B307890083C57A
:100D4C0007004E850504852A1374F40F93170401CC
:100D5C0003D7218BC183E3E2E7FE2945792A03C936
:100D6C00518B639F040A83C4E18BA147639CF402FB
:100D7C004A85353D2A8445F98D472380F18A17151C
:100D8C0000001305254CA381918AA52C0545EFF095
:100D9C00FF922285F2406244D2444249B249224A2F
:100DAC00056182809D476395F40203C7F18B8547EB
:100DBC006316F70A4A85E53B2A8435F58D4723806F
:100DCC00F18A171500001305E548A381918A75BFB8
:100DDC008D476395F40883C7F18B054A6360FA0865
:100DEC004A8583C9018CE1332A84E31E05F22380F2
:100DFC00918A639B490193073002A381F18A1715ED
:100E0C0000001305254651B789476395F9069307EA
:100E1C003003A381F18A171500001305E545B5B71A
:100E2C00A547639DF402213D2A84E31E05EE83C58C
:100E3C00218B1715000013052545B5284A85853BE0
:100E4C002A84E31205EE8D47171500001305C544DF
:100E5C002380F18AA381918A6D22F1B54A85813B69
:100E6C002A84E31205EC8D472380F18AFD57A38178
:100E7C00F18A29BF1304B00F7DB503C5218AEFF0A9
:100E8C00FF831715000013052546352025392A84C4
:100E9C00E31B05E89714000083C4B450A204971711
:100EAC00000083C70750DD8C1389018B9719000054
:100EBC009389C93715B539713EDA2ED232D436D66C
:100ECC003AD842DC46DE973700209387E71822CCCD
:100EDC00804326CA06CEAA8409C41C4C99E32285F9
:100EEC00A92B0C4454102686228536C6EF00101B05
:100EFC00F2406244D2442161828001119737002074
:100F0C009387871522CC804306CEAA8519C41C4C26
:100F1C0089E72AC622851523B245104422856244EE
:100F2C00F24005616F00107C011126CA4AC806CE3A
:100F3C0022CC4EC652C4AA842E8901C51C4D91E305
:100F4C00ED299C4C804499E32685C5299717000010
:100F5C009387873C631CF402C0408357C400A18B69
:100F6C00B1C71C48A1C7FD59294A1C448345090037
:100F7C00FD17B1E91CC463DE07062286A945268548
:100F8C004128FD576308F502294535A09717000045
:100F9C009387873A6314F4008044C1B79717000015
:100FAC0093878735E31BF4FAC04445BFA285268599
:100FBC00052255D97D55F2406244D2444249B2498A
:100FCC00224A056182801CC4050963D70700184CAE
:100FDC0063CBE700638945011C401387170018C0D9
:100FEC002380B70059B7228626851D20E31F35F7CD
:100FFC00D1B71C401387170018C029472380E7007E
:10100C0061B79737002093872705AA85884329BFA6
:10101C00011122CC26CA4AC806CE4EC6AA842E89F5
:10102C00328401C51C4D91E3092997170000938761
:10103C00A72E6319F406C0401C4C1CC48357C40073
:10104C00A18BC9C31C48BDCF1C4808409379F90F2C
:10105C001379F90F1D8D5C486346F500A285268532
:10106C00752C2DE51C440505FD171CC41C4013876D
:10107C00170018C0238037015C486389A700835789
:10108C00C400858B81CBA9476316F900A285268500
:10109C0071240DEDF24062444A85D2444249B24972
:1010AC000561828097170000938707296314F40069
:1010BC00804459B79717000093870724E31EF4F672
:1010CC00C0449DBFA285268521203DDD7D59D9B721
:1010DC00411197370020938727F826C2844322C4F6
:1010EC004AC006C62A892E8489C49C4C99E326855D
:1010FC00A9269717000093872722631CF402C0408F
:10110C000317C40093170701C18393F68700B5EE4C
:10111C0093F607019DEEA5472320F90013670704FA
:10112C002316E4007D55B240224492440249410109
:10113C00828097170000938727206314F400804463
:10114C00C1B7971700009387271BE31BF4FAC04421
:10115C0045BF918B8DC74C5889C993074404638450
:10116C00F5004A859123232A04028357C4002322C5
:10117C00040093F7B7FD2316F4001C481CC08357DA
:10118C00C40093E787002316F4001C4881EF8357B3
:10119C00C4001307002093F707286385E700A28596
:1011AC004A85A5218357C40013F7170005C75C486F
:1011BC0023240400B307F0401CCC1C480145A5F7C0
:1011CC008317C40013F7070839DF93E707042316C6
:1011DC00F40089BF898B014791E3584818C4F1BFCB
:1011EC0083D7C500011122CC26CA06CE4AC84EC6EA
:1011FC0013F78700AA842E8471EFD841634DE00069
:10120C00B841634AE0000145F2406244D24442498D
:10121C00B2490561828058547DD703A90400939686
:10122C00370123A0040063DD060670488357C40011
:10123C00918B99C75C401D8E5C5899C33C401D8EA8
:10124C005C540C50814626858297FD570357C40089
:10125C00631DF5009440F54763E8D706B7074020B7
:10126C008507B3D7D700858BA5C31C482322040060
:10127C001CC09317370163D80700FD576314F500A2
:10128C009C4091E368C84C5823A02401ADDD930722
:10129C0044046384F50026850129232A0402A5B79A
:1012AC000C500146854626850297FD572A86E31F7A
:1012BC00F5F69C40A5DF75476385E70059476394B5
:1012CC00E70423A0240181B7136707042316E40065
:1012DC007D551DBF83A90501E38709F203A905000C
:1012EC008D8B23A0350133093941014791E3D8494E
:1012FC0018C4E35A20F11C540C50CA864E8626851D
:10130C0082976349A0008357C40093E70704231610
:10131C00F4007DBFAA993309A940E1BF9C49B9CF1C
:10132C00011122CC06CE2A8411C51C4D81E72EC694
:10133C002922B24597170000938707FE639BF5009F
:10134C004C408397C50095C722856244F2400561E5
:10135C0041BD97170000938727FE6394F5000C445A
:10136C00CDB797170000938727F9E39CF5FC4C4405
:10137C00C9BFF2406244014505618280014582800B
:10138C00411122C406C62A842316B5002317C500B2
:10139C002320050023220500232405002322050613
:1013AC0023280500232A0500232C0500214681450E
:1013BC001305C505EFE0DFEF971700009387A7BD76
:1013CC005CD097170000938707C01CD497170000B8
:1013DC00938747C45CD497170000938707C700D046
:1013EC001CD8B240224441018280970500009385AD
:1013FC0025F389AA411126C2130680069384F5FFB2
:10140C00B384C4024AC02E8922C406C693854407FD
:10141C00A1262A8401CD2320050023222501310594
:10142C0008C4138684068145EFE09FE82285B2400C
:10143C00224492440249410182801C4DBDE341117A
:10144C0006C622C497070000938767FA1CD5971726
:10145C0000009387A7F69C43232405042326050448
:10146C00232805046314F50085471CCD2A841D2808
:10147C0048C02285052808C422852D2048C4484030
:10148C0001469145F53D08440546A545D53D4844E2
:10149C000946C945F53585471CCCB240224441016B
:1014AC0082808280411197170000938727F126C212
:1014BC0084434AC006C69C4C22C42A8999E32685DB
:1014CC00AD3F938484048044DC40FD1763D6070051
:1014DC009C40B9CF8440C5BF0317C40039E7C1771E
:1014EC00850723220406232004002322040023243E
:1014FC0004005CC423280400232A0400232C0400C9
:10150C00214681451305C405EFE09FDA232A040226
:10151C00232C040223240404232604042285B24031
:10152C00224492440249410182801304840671BF13
:10153C0091454A85C13588C051FDB1472320F9003A
:10154C000144E9BF797122D44AD052CC56CA5AC848
:10155C005EC606D626D24ECE2A8AAE8A13048504DF
:10156C000149054BFD5B09ECB25022544A8592545B
:10157C000259F249624AD24A424BB24B45618280CF
:10158C00044483294400FD1963D409000040E1BFE1
:10159C0083D7C400637BFB008397E40063877701E8
:1015AC00A6855285829A3369A90093848406E1BF8B
:1015BC001971A6DAAE848395E500A2DC86DE32844E
:1015CC0063DC050083D7C40023A0060093F707084B
:1015DC0085E7930700401DA0300836C6EF00702C3D
:1015EC00B246E34105FE7247BD67F98F7977BA972A
:1015FC0093B717009CC2F1BF930700041CC0F650B0
:10160C006654D65401450961828083D7C500011107
:10161C0022CC06CE26CA4AC8898B2E8489CF930742
:10162C0074041CC01CC885475CC8F2406244D24498
:10163C0042490561828074003000AA84953FA2451E
:10164C002A892685112A01ED8317C40013F7072078
:10165C0069FFF19B93E727002316F400C9B797079E
:10166C0000009387C7D89CD48357C40008C008C80F
:10167C0093E707082316F400A2475CC8B24791CF42
:10168C008315E4002685EF00702401C98357C4003C
:10169C00F19B93E717002316F4008357C4003369BA
:1016AC00F9002316240151B7DDC583A7C5FF4111ED
:1016BC0022C406C626C21384C5FF63D307003E941A
:1016CC00AA84EF00902797370020938767999C4353
:1016DC0091EF232204009737002023A387982244FC
:1016EC00B2402685924441016F005025637EF40080
:1016FC0014403307D4006396E7009843DC433697D5
:10170C0018C05CC0C9BFBA87D84319C3E37DE4FED7
:10171C0094433386D700631F86001040B29694C35F
:10172C003386D700E31DC7FA10435843B29694C3CF
:10173C00D8C375B76375C400B1479CC04DB7104092
:10174C00B306C4006316D70014435843B29614C0B2
:10175C0058C0C0C369B78280011126CA9384350072
:10176C00F19806CE22CC4AC84EC6A104B14763F507
:10177C00F404B14463E4B4042A89EF00101C938789
:10178C00818098433A8429E49387C1809C4399E7EC
:10179C0081454A85EF00607D23A6A180A6854A85F8
:1017AC00EF00A07CFD5963193507B1472320F900E0
:1017BC004A85EF00B01829A0E3DE04FAB1471CC13A
:1017CC000145F2406244D2444249B24905618280EB
:1017DC001C40858F63CF0702AD4663F6F6001CC034
:1017EC003E9404C031A05C406313870223A4F180B3
:1017FC004A85EF00B0141305B400930744006199B7
:10180C003307F5405DDF3A94898F1CC05DBF5CC324
:10181C00C5B72287404085BF130435007198E30299
:10182C0085FCB305A4404A858927E31C35FBB5BF6D
:10183C001C46FD171CC663DA0700184E63C5E7008B
:10184C00A9476394F5006FF0AFFC1C422E851387FB
:10185C00170018C22380B7008280011122CC26CA3F
:10186C004AC84EC652C406CE2A89AE893284B30405
:10187C00D6007D5A63149400014509A883450400E1
:10188C004E864A8575370504E31645FFF2406244DF
:10189C00D2444249B249224A05618280357122CD37
:1018AC0026CB4AC94EC706CF52C556C35AC1DEDE37
:1018BC00E2DCE6DAAA89AE843289368401C51C4D95
:1018CC0091E3A53E97170000938707A5639CF40C42
:1018DC0083A4490083D7C400A18BFDC79C48EDC7E6
:1018EC0093070002A304F1029307000302D223051D
:1018FC00F10222C6930B5002971A0000938ACAA5D4
:10190C00054C294B4A848347040099C36391770F94
:10191C00B30C2441638D0C00E6864A86A6854E8561
:10192C002D3FFD576307F51E9256E69636D2834738
:10193C0004006380071EFD571309140002C802CE71
:10194C003ECA02CCA309010482D483450900154682
:10195C005685EF00E07C13041900C24759E913F7D0
:10196C00070109C713070002A309E10413F7870055
:10197C0009C71307B002A309E10483460900130742
:10198C00A0026380E608F2474A8481462546034755
:10199C00040093051400130707FD6379E60AB5CA22
:1019AC003ECE85A897170000938707996395F4009E
:1019BC0083A4890005B7971700009387E793E39BEF
:1019CC00F4F083A4C90039B7A6854E85EFF04FF02B
:1019DC0001D97D55FA406A44DA444A49BA492A4A3F
:1019EC009A4A0A4BF65B665CD65C0D6182800504F4
:1019FC0019BF330555413315AC00C98F3EC8228938
:101A0C00A9B7324793064700184336C66349070205
:101A1C003ACE034704009307E002631FF704034721
:101A2C0014009307A002631BF702B2470904138743
:101A3C0047009C433AC663C107023ECA35A8330728
:101A4C00E04093E727003ACE3EC8E1B7B38767037F
:101A5C0085462E84BA9725BFFD57C5B7050402CA23
:101A6C00814681472546034704009305140013075C
:101A7C0007FD6376E606F1F2834504000D46171563
:101A8C0000001305E58D692D11CD97170000938784
:101A9C00278D1D8D93070004B397A70042450504BD
:101AAC005D8D2AC8834504001946171500001305DF
:101ABC00658B130914002304B1029D253DC197E7E2
:101ACC00FFFF9387675395E74247B2471377071099
:101ADC0009CF91073EC69257D2973ED225B5B38710
:101AEC00670385462E84BA97BDBF9D07E19BA1076E
:101AFC00D5B7780097060000938666D626860C0824
:101B0C004E8597000000E7000000FD572A8AE31479
:101B1C00F5FC83D7C40093F70704E39C07EA12553E
:101B2C0055BD780097060000938666D326860C0870
:101B3C004E85012AD9BF797156CA9C49BA8A9845F3
:101B4C0022D426D24ECE52CC06D64AD05AC85EC625
:101B5C00AA892E84B284368A63D3E700BA879CC0E4
:101B6C000347340419C385079CC01C4093F7070234
:101B7C0081C79C4089079CC0032904001379690024
:101B8C00631A0900130B9401FD5B5C449840998F18
:101B9C00634CF9041C408346340493F70702B336B4
:101BAC00D000A5EB13063404D2854E85829AFD57DE
:101BBC006303F5041C4011469840998B54448144AE
:101BCC006397C700B384E64063D3040081441C448C
:101BDC0018486354F700998FBE94014969047D5BE2
:101BEC0063982405014509A885465A86D2854E85F9
:101BFC00829A631E75017D55B2502254925402593B
:101C0C00F249624AD24A424BB24B45618280050985
:101C1C00ADBF3307D40013060003A301C704034769
:101C2C00540493871600A2978906A381E7049DBFED
:101C3C0085462286D2854E85829AE30E65FB050980
:101C4C0045B7797122D426D24AD04ECE06D652CC84
:101C5C0056CA5AC8B68983C685019307E0063289ED
:101C6C00AA842E84138635046380F61E63E2D7069D
:101C7C00930730066382F60A63EDD700638A061E6B
:101C8C00930780056386F616930A24042301D40473
:101C9C0069A8930740066386F60093079006E395C0
:101CAC00F6FE1C40084393F6070893054500C1C295
:101CBC001C410CC363D807001307D002B307F040D4
:101CCC00A301E404970600009386466A294765A0A1
:101CDC00930730076382F61A63EFD7009307F00679
:101CEC00638FF60493070007E390F6FA9C4193E7A1
:101CFC0007029CC109A8930750076382F604930757
:101D0C008007E393F6F893078007A302F404970681
:101D1C0000009386E666DDA01C43938A2504938617
:101D2C0047009C4314C32381F5048547ADA293F669
:101D3C0007041C410CC3BDDEC207C187A5BF0C4004
:101D4C001C4313F80508138547006305080008C3F6
:101D5C009C4339A093F5050408C3FDD983D707002C
:101D6C001307F006638AE60C97060000938606605C
:101D7C002947A30104044C400CC463C5050008406A
:101D8C006D9908C099E3B28A91CDB28AB3F5E70296
:101D9C00FD1AB69583C505002380BA00B3D5E702BA
:101DAC0063F2E70AA147631EF7001C40858B91CBB9
:101DBC0058401C4863C7E70093070003A38FFAFE43
:101DCC00FD1A3306564110C84E87CA867000A2858C
:101DDC00268595337D5A6314450D7D55B25022549A
:101DEC0092540259F249624AD24A424B456182806E
:101DFC00A382D50497060000938646570C400843EF
:101E0C0013F805081C4111056300080208C313F7F9
:101E1C00150001C793E505020CC04147B9FB0C4006
:101E2C0093F5F5FD0CC0B1B713F8050408C3E30036
:101E3C0008FEC207C183E1BF9706000093860653D4
:101E4C00214705BFAE8799B794411C43CC4913F881
:101E5C000608138547006306080008C39C438CC31F
:101E6C0001A808C393F606049C43F5DA2390B70047
:101E7C0023280400B28A89BF1C43D0418145938634
:101E8C00470014C383AA07005685592C01C5330596
:101E9C00554148C05C401CC8A301040435B7144824
:101EAC005686CA8526858299E30945F31C40898BA1
:101EBC008DE7B2474844E353F5F23E8505B78546B6
:101ECC005686CA8526858299E30965F1050A5C4424
:101EDC003247998FE345FAFEE9BF014A930A940110
:101EEC007D5BF5B7011122CC06CE2A8409C91C4DA5
:101EFC0099E732C62EC4EFF04FD43246A24597076D
:101F0C000000938767416316F60250401C46FD178C
:101F1C001CC663D00704184E63C7E70093F7F50F90
:101F2C0029476398E70222856244F24005616FF00D
:101F3C002F8E97070000938727406314F6001044F8
:101F4C00F1B7970700009387273BE311F6FC504449
:101F5C0075BF1C4213F5F50F1387170018C22380A9
:101F6C00B700F240624405618280411122C42A8488
:101F7C002E8523A8019206C63D24FD576317F50054
:101F8C00938701939C4391C31CC0B24022444101EE
:101F9C008280411122C42E848395E50006C6452219
:101FAC00634905007C48AA977CC8B2402244410191
:101FBC0082808357C4007D777D17F98F2316F40038
:101FCC00EDB783D7C500011122CC26CA4AC84EC62C
:101FDC0006CE93F70710AA842E843289B68991C74E
:101FEC008395E5008946014631228357C4007D77ED
:101FFC007D17F98F2316F4008315E4006244F24038
:10200C00CE864A86B24942492685D24405613DA80E
:10201C00411122C42E848395E50006C6E128FD57A4
:10202C000357C400631BF500FD77FD17F98F2316CA
:10203C00F400B2402244410182808567D98F231677
:10204C00F40068C8FDB78395E50005A8411122C4CA
:10205C002A842E85B285368623A8019206C6EFE027
:10206C004FD3FD576317F500938701939C4391C39E
:10207C001CC0B240224441018280411122C42A84F6
:10208C002E8523A8019206C6CD20FD576317F500B7
:10209C00938701939C4391C31CC0B24022444101DD
:1020AC008280411122C42A842E85B28523A80192F4
:1020BC0006C6D120FD576317F500938701939C4307
:1020CC0091C31CC0B240224441018280411122C400
:1020DC002A842E8523A8019206C66520FD57631716
:1020EC00F500938701939C4391C31CC0B2402244DA
:1020FC0041018280411122C42A842E85B285368604
:10210C0023A8019206C66120FD576317F50093873B
:10211C0001939C4391C31CC0B24022444101828074
:10212C0093F5F50F2A966314C50001458280834709
:10213C000500E38DB7FE0505FDB782808280411155
:10214C0022C42A842E85B285368623A8019206C61F
:10215C00A920FD576317F500938701939C4391C306
:10216C001CC0B2402244410182809307800523A801
:10217C00F1927D5582809307800523A8F1927D55BD
:10218C0082809307800523A8F192014582809307F2
:10219C00800523A8F1927D5582809307800523A8A2
:1021AC00F1927D558280938701819C4391C73E9526
:1021BC0023A8A1803E858280938741933E9523A8D6
:1021CC00A1803E858280000053746172742040436C
:1021DC0068697049443D253032580A00576169746A
:1021EC002044657669636520496E000040E2FFFF7C
:1021FC0068E2FFFF90E2FFFFA8E2FFFFC2E2FFFFF1
:10220C005553422064657620696E00005553422078
:10221C00646576206F757400526573657420686F01
:10222C00737420706F72740078253032582000005F
:10223C0047657443666744657363723A2000000017
:10224C005553422D4469736B2052656164790000CB
:10225C005553422D5072696E742052656164790039
:10226C005553422D4B6579626F61726420526561E2
:10227C00647900005553422D4D6F7573652052657E
:10228C00616479004D617820506F72743A25303258
:10229C00582000005553422D485542205265616428
:1022AC0079000000496E6974526F6F744465762032
:1022BC00457272203D20253032580A004469736102
:1022CC00626C6520686F737420706F727420626525
:1022DC006361757365206F6620646973636F6E6EDE
:1022EC006563740047657444657644657363723A3C
:1022FC0020000000000000000000000000000000B2
:10230C0000000000000000000000000000000000C1
:10231C0000000000000000000000000000000000B1
:10232C0000000000000000000000000000000000A1
:10233C000000000000000000000000000000000091
:10234C000000000000000000000000000000000081
:10235C0000000000232D302B20000000686C4C0086
:10236C0065666745464700003031323334353637C1
:10237C003839414243444546000000003031323385
:10238C0034353637383961626364656600000000A5
:08239C008006000200000400AD
:0823A400800600010000120098
:0823AC00000502000000000022
:0823B400000900000000000018
:0823BC00A00600290000090041
:0423C40000400020B5
:1023C800000000002023000040230000002300003C
:1023D80000000000000000000000000000000000F5
:1023E80000000000000000000000000000000000E5
:1023F80000000000000000000000000000000000D5
:1024080000000000000000000000000000000000C4
:1024180000000000000000000000000000000000B4
:0824280000400020000000004C
:00000001FF
