:100000006F004000975100209381415C17810020D0
:10001000130141FF1305800A973500209385857EE3
:10002000175600201306669263FAC5008322050066
:1000300023A0550011059105E3EAC5FE17D501007F
:10004000130505EF9755002093854590138681870A
:1000500063FAC5008322050023A055001105910510
:10006000E3EAC5FE1385818797750020938505B85F
:100070006377B500232005001105E36DB5FE9302FB
:10008000800873A00230973200209382A27793E217
:10009000120073905230972200009382E203739013
:0800A00012347300203000004F
:1000A80000000000000000006F0080086F00801A48
:1000B8000000000000000000000000000000000038
:1000C8000000000000000000000000000000000028
:1000D8006F004006000000006F00E005000000000F
:1000E8006F0080056F0060056F0040056F002005F8
:1000F8006F0000056F00E0046F00C00400000000FE
:100108006F0060046F0040046F0020046F0000045B
:100118006F00601A6F00C003000000006F006003EA
:100128006F0040036F0020036F0000036F00E002C0
:1001380001A001A001A001A001A001A001A001A0AF
:1001480001A001A001A001A001A001A001A001A09F
:1001580001A001A001A001A001A001A0B7170040C3
:10016800930670052380D704130780FA2380E704D9
:1001780003C6B7041376F60DA385C70423800704C6
:100188001376050225C603C6A700118A0DE223804F
:10019800D7042380E70403C7A70013674700238514
:1001A800E7009307004B01000100FD17EDFFB717AB
:1001B8000040930670052380D704130780FA238034
:1001C800E7047D892394A7000100010001000100D4
:1001D800238007042380D7042380E7048546372734
:1001E8000040A303D7802380070482801376050488
:1001F8006DDE03C6A700418A0DE22380D704238061
:10020800E70403C7A700136707012385E7009307DF
:10021800007D01000100FD17EDFFB71700409306B0
:1002280070052380D704130780FA7D892380E704AB
:10023800136505042394A7000100010001000100D3
:10024800238007042380D7042380E7048D463727BB
:10025800004041BFB7170040130770052380E7042B
:10026800130780FA2380E7047D572396E70203C724
:100278006704136717002383E7042380070401A09A
:10028800BD473305F50201007D1575FD82804111DA
:1002980022C426C206C6AA84014463179400B24049
:1002A800224492444101828005041305803E4204A1
:1002B800C13F4180DDB7B71700401307000323880B
:1002C800E702854723AAF1B2730020302303048094
:1002D80095472303F4802302A480828083076480E7
:1002E800E3CE07FE23030480828083076480E3CE85
:1002F80007FE03454480828083076480E3CE07FEBF
:100308002302A4808280411126C44AC24EC006C678
:100318001377F50BAD47AA892E8995446306F70034
:1003280019456D37653F8D444E854D37FD59FD1490
:1003380063983401B240A244124982494101828043
:10034800135509011375F50F453F2209CDB7011162
:1003580026CC06CEB704080051371545853F7137BE
:1003680069372AC6A53F3245058901C9FD14F5F448
:100378007D55F240E244056182800145DDBF397157
:1003880026DC4ADA4ED852D656D45AD25ED006DE89
:1003980062CEB7E700E07D5783AB070022C603AB08
:1003A800470023A0E71823A2E718B7170040130750
:1003B80070052380E704130780FA2380E70483C7C6
:1003C8004704130975FFB689E2071379F90F8546C3
:1003D800AA8AAE84328A37240040E187015763FA3B
:1003E80026016308D5008946130700026313D50068
:1003F8000157D98F93F7F70F371C00401147230295
:10040800FC042303E4801305F00FC935C13D0947F7
:1004180063692711B7070700BE9437870700795922
:1004280063FFE402B3873401636BF702A947639A59
:10043800FA0663940900014915A0A6850945E13526
:10044800050A0345FAFFFD1985047D356385090012
:1004580093F7F40FF5F7E53D2A8961DD4135B717C4
:100468000040130770052380E704130780FA2380F0
:10047800E70403C747044A85418B2382E704F25007
:10048800B7E700E023A0771123A26711E2543244B2
:100498005259C259325AA25A125B825B724C21617C
:1004A8008280A5476394FA06056A9307F00FB3861E
:1004B8003701B3F9F400B69993C7F7FFB3F93701D9
:1004C800FD8CC16A056C9307FAFFE58F99E363FC1D
:1004D8004901135A4A00C147E3E747FFA9BF8567A7
:1004E800416AFD17E9B71305800D63085A01130522
:1004F800000263048A0113051008A6852935813D89
:100508002A8931FDD294B3894941D1B7A6852D45B1
:10051800DD3BD299E3013AF3050AC13BA30FAAFEDA
:10052800D5BF9387FAFF93F7F70F6360F70A03477E
:100538005C04B70708001377070219E3B7870700B9
:100548007959E3FEF4F033873401E3EAE7F08947A9
:100558006393FA0493D92900D54AE38E09ECA6855A
:1005680009455533110A0327CAFF91472320E48020
:1005780003076480E34E07FE23035481FD17EDFB58
:10058800FD1991046385090093F7F40FE1FFC13366
:100598002A8961D5E1B58547E383FAF4A6852D4517
:1005A8009D334E899304F9FFE30709E83D3B93F730
:1005B800340091EB8326048003270A0093074A003E
:1005C800E39EE6E83E8A2689F1BFB5476396FA00BE
:1005D8001305900BE53985B5B1471305B00AE38BD0
:1005E800FAFE9947639EFA02A6852D45293B0149E3
:1005F8008D4AA149DD3963165901832704802320D8
:10060800FA000509E31839FF8327048013972401AA
:10061800635507002312FA0039BD2322FA0021BDD1
:100628009D476391FA0281451305B004E9399D4459
:100638007D596539B3079A002380A700FD14E39A12
:1006480024FFD5BBA1476396FA0219454131793198
:100658000545AD39014581C8854713050005638403
:10066800F4001305C003493909457931CD312A8988
:10067800F5B3E3820ADC7159D5B319C1814799E909
:1006880082803387F500834607003307F500850726
:100698002300D700E397C7FEE5B7797122D4173452
:1006A8000000130464B24AD006D626D24ECE52CCED
:1006B80056CA5AC85EC662C466C26AC022891C404D
:1006C800A9EB97340000938424B0973A0000938AEA
:1006D8002AB03714004093097005130A80FA173BB3
:1006E8000000130BABD1973B0000938B2BD3094C25
:1006F8008D4C154DDC4085E383475B00858BADE36E
:1007080083C7CB00918BA5CF972001E0E780C0E39A
:10071800BDA082976DB79737000083C767AD99CBA7
:10072800230034052300440583D781872316F40268
:1007380023000404DC4082979737000083C747AB47
:1007480099CB230034052300440583D7A1872316BA
:10075800F4022300040483270900D9DF8297E5BF48
:1007680097370000A38E07C89737000083C777C95B
:1007780063978713352D97F000E0E780C0A69104B2
:10078800E39A9AF69737000083C7D7C7B9CB97374C
:100798000000A38907C6173400000344A4C689478C
:1007A800631FF41097340000938484B7BC4003C7D8
:1007B800170105CB03C67700B755550037C5898E95
:1007C80093855555130565ED971001E0E780C04006
:1007D80097370000A38787C2BC40130710FA238607
:1007E800E700973700009387E79E98431736000085
:1007F8000346969B3E849737000083C7E79A9396F3
:100808001700BA9683D60600638706149737000048
:1008180083C7879963EBC714973700002386079827
:1008280083270900B9EF9737000083C7679C8DC3FA
:10083800B7170040130770052380E704130780FAF1
:100848002380E70403D781872396E70223800704E0
:1008580097E0FFDFE780804B9737000083C7479911
:100868008DC3B7170040130770052380E7041307EB
:1008780080FA2380E70403D7A1872396E702238021
:100888000704B250225492540259F249624AD24A99
:10089800424BB24B224C924C024D45618280639888
:1008A8009701392397C000E0E780E0CAC9BDE39803
:1008B800A7EDFD29972001E0E780C080C9B58D47E5
:1008C8006314F40497340000938484A5BC4483C75C
:1008D8007700E38807F0BC40B755550037C5898EC7
:1008E80003C6770093855555130565ED971001E00C
:1008F800E780802E97370000A38587B0BC44130794
:1009080010FB2383E700F1BD9547E31CF4EC173790
:1009180000001307A7B08347E700918BE38307EC38
:100928009737000083C707AC858B1736000003464E
:1009380016AF9736000083C686AE99CB484309C9DF
:10094800834515000905971001E0E780405751BD20
:1009580081450145CDBF850793F7F70F973600000E
:100968002384F684E3E9C7E855B586073E9783559F
:100978000700231007009737000083C767878DC3D8
:10098800B7170040130770052380E704130780FAA0
:100998002380E70403D781872396E702238007048F
:1009A80097370000938707829C431725000003456B
:1009B800A57F13172500BA979C43829797370000A5
:1009C80083C707838DC3B7170040130770052380BB
:1009D800E704130780FA2380E70403D7A187239647
:1009E800E702238007049727000083C7E77B139754
:1009F80017001C40BA9703D70700598D2390A7000A
:100A0800972700009387477A83C70700850793F7DE
:100A1800F70F172700002309F77817270000034767
:100A2800B778E3EFE7DECDBB0357C5039727000090
:100A380083C7C77B636CF7008347850023080500DD
:100A480093C747002304F5000545828097370000C7
:100A5800938707989C43FDE3411122C42A8441658A
:100A6800130525F506C697B000E0E78000764DCD62
:100A78008347A5002315F5008327440FC9EF232AD0
:100A8800A40E232CA40E8547231EF402232605005A
:100A98008347B40014412313F5000347A40023023D
:100AA800E5001737000013076795184F13851702DD
:100AB80015811C437D151375F50F9CC25C43938605
:100AC80006021307070223A2F6FE832787FE23A444
:100AD800F6FE8327C7FE23A6F6FE832707FF23A873
:100AE800F6FE832747FF23AAF6FE832787FF23AC5A
:100AF800F6FE8327C7FF23AEF6FE45FD97370000B5
:100B080083D78782850717370000231FF780B240F5
:100B18002244410182808327840FC8C78357C403B6
:100B2800232CA40E85078DB783478400230804006F
:100B3800094593C747002304F400D1BF83478500C4
:100B48002308050093C747002304F5000D4582805C
:100B5800173700001307478814439C5E8583858BED
:100B6800C1CF9C5EF59B9CDE0100010001000100E5
:100B78000100010001000100010001000100010065
:100B88000100010001000100010001000100010055
:100B98000100010001000100010001000100010045
:100BA8000100010001000100010001000100010035
:100BB8000100010001000100010001000100010025
:100BC8000100010001000100010001000100010015
:100BD8000100010001000100010001000100010005
:100BE8000100010001000100973700009387C782C8
:100BF8009443BC4ABD9BBCCA18431C5F9983858B30
:100C0800A9CF1C5F93F7F7FB1CDF9727000083C76A
:100C1800E77E93F70704172700001307277E81CF85
:100C2800B7170040945F172600002321D67E104B8B
:100C3800945FE319D6FE854797260000A382F67CC9
:100C4800930700F897260000238CF67A9727000070
:100C58009387877C9C435847B8D3730020309727E5
:100C680000009387677B9C4309479726000093867B
:100C7800E67898C3B7F700E003C72600058B15E7A9
:100C880003C73600058B15E303C74600058B11EF34
:100C980003A707D16D9B23A8E7D003A707D15D9BC6
:100CA80023A8E7D073005010C1BF828097260000A8
:100CB8009386C674B7F700E003C73600058B15E3C3
:100CC80003C74600058B11EF03A707D16D9B23A827
:100CD800E7D003A707D15D9B23A8E7D07300501086
:100CE800E1BF828097270000938707739C4313070F
:100CF800A0051306C003B8CB9306200337C70040EE
:100D0800972500009385856F83278720C18393F7F4
:100D1800F7036369F60083278720C18393F7F703F6
:100D280063E6F60083C74500858BF9DF8280972745
:100D380000009387676E9C431307A0071306C00340
:100D4800B8CB9306200337C700409725000093854A
:100D5800E56A83278720C18393F7F7036369F60061
:100D680083278720C18393F7F70363E6F60083C7D9
:100D78004500858BF9DF82809726000093860668F8
:100D8800B7F700E003C72600058B15E303C7460045
:100D9800058B11EF03A707D16D9B23A8E7D003A705
:100DA80007D15D9B23A8E7D073005010E1BF828074
:100DB8009726000093868664B7F700E003C706000D
:100DC800058B15E703C71600058B15E303C7460017
:100DD800058B11EF03A707D16D9B23A8E7D003A7C5
:100DE80007D15D9B23A8E7D073005010C1BF828054
:100DF80097270000938747629C431307A005414645
:100E0800B8CBE54637C70040972500009385055FB6
:100E180083278720C18393F7F703637DF600832731
:100E28008720C18393F7F70363E6F60083C745007D
:100E3800858BF9DF8280972700009387E75D9C43C5
:100E48001307A0074146B8CBE54637C700409725AA
:100E580000009385A55A83278720C18393F7F7035A
:100E6800637DF60083278720C18393F7F70363E642
:100E7800F60083C74500858BF9DF8280972600003E
:100E88009386C657B7F700E003C71600058B15E32E
:100E980003C74600058B11EF03A707D16D9B23A855
:100EA800E7D003A707D15D9B23A8E7D073005010B4
:100EB800E1BF828097270000938707569C43984795
:100EC8002183058B39C398471377F7EF98C71727FE
:100ED80000000347A7521367170097260000238FC7
:100EE800E65017270000230D0750172700001307A7
:100EF800274F184319CB104B4C4B1442CD8E14C2BC
:100F0800104318471442558F18C298472583058BFC
:100F18003DC79847370600101377F7DF98C717279C
:100F280000001307674B1443D856719B13672700BB
:100F3800D8D69842518F98C2172700001307474AFE
:100F4800184319CB50430C471442CD8E14C2504756
:100F5800584B1442558F18C2172700000347274AD9
:100F68001367170097260000238BE648130700F83D
:100F7800972600002386E64813070019B8D3984738
:100F88000583058B0DCF9847759B98C7054797260E
:100F98000000A386E6461727000023030746172705
:100FA80000001307E743184319CB104B4C4B14426E
:100FB800CD8E14C2104318471442558F18C2984753
:100FC800058B0DCF9847799B98C705479726000052
:100FD800A386E642172700002304074217270000CC
:100FE80013070740184319CB50430C471442CD8EC2
:100FF80014C25047584B1442558F18C2984793163D
:10100800170163D406029847F176FD16758F98C7C5
:10101800172700000347C73E620761876357070029
:10102800054797260000238DE63C98471183058BDA
:1010380001C798473D9B98C773002030A167850773
:101048006397F50083C70193F9E70145828075DD51
:10105800EDDDB307A0408D8BAA974111C20706C6E4
:1010680022C4C183130740036369F70617270000EA
:101078001307474108431727000013072740144365
:101088002E84638FA6060357650029EF0357450092
:10109800636AF704B306F74021466370D60210412D
:1010A800938687001D8FAA96611790C22392E60047
:1010B8002393060014C12312F500A16723138500AA
:1010C80085076317F40083C70193FD172388F192FE
:1010D8002105B240224441018280172700001307EE
:1010E800273A49BF084113172500E34C07F897270B
:1010F80000009387A70E9C5B81C7AA850945829744
:10110800972700009387870D9C5B81C7A2850545BB
:10111800829701457DBF15FD0DBF55E582808C4343
:101128006363F50863E1A50893868700636CD50AB5
:1011380003D56700A16685066317D50083C60193AA
:1011480085062388D1922393070063860703972691
:1011580000009386E6329442638FF6008356670058
:1011680099EA8356470083D747000CC3B697A1076F
:101178002312F700BA8798436306C706972600002C
:10118800938606309442630FD70483566700B9EA02
:1011980083D64700035647001843A106B296239208
:1011A800D70098C38280939625003E87AE8763C98F
:1011B8000602972700009387670203A307036303C8
:1011C800030209450283972700009387A72B03A8EA
:1011D8000700972700009387672A90430147C28733
:0611E800E3EFC7F2828074
:1011F0003D432A876373C3029377F700BDEFADE5E4
:10120000937606FF3D8ABA960CC34CC30CC74CC7F5
:101210004107E36BD7FE11E28280B306C3408A0622
:101220009702000096966780A6002307B700A306E2
:10123000B7002306B700A305B7002305B700A30432
:10124000B7002304B700A303B7002303B700A3022A
:10125000B7002302B700A301B7002301B700A30022
:10126000B7002300B700828093F5F50F93968500B1
:10127000D58D93960501D58D61B79396270097027A
:10128000000096968682E78086FA9680C1171D8FA9
:101290003E96E374C3F8A5B7F947B387F502E14674
:1012A00093551600130780703E06AE97B375D502AE
:1012B0003355D502B385E50241677D17798E798D67
:1012C000AE97C2075D8E93057005B7170040238067
:1012D000B704930580FA2380B704C8DB03C717035C
:1012E00013670708A388E702D0DB03C71703136758
:1012F0000704A388E702238007048280914763EEF6
:10130000B70217B70100130727348A05BA959C4125
:10131000BA978287B717004003A7470B1345F5FF1D
:10132000698F23AAE70A03A7070B698F23A8E70A97
:1013300003A7070A798D23A0A70A8280B717004068
:1013400083A6470B1347F5FFF98E23AAD70A83A676
:10135000070B558D23A8A70A83A6070A758F23A01C
:10136000E70A8280B717004003A7470B498F23AADB
:10137000E70A03A7070B1345F5FF45BFB717004062
:1013800083A6470B1347F5FF758F23AAE70A03A728
:10139000070A598D4DB7B717004003A7470B498F70
:1013A000EDB705E937170040930770052300F704F0
:1013B000930780FA2300F70483570702C207C1830B
:1013C00093F7F79FC207C1832310F7022300070496
:1013D0008280B7170040130770052380E7041307C6
:1013E00080FA2380E70403D707021367074023909E
:1013F000E70203D70702136707202390E702238041
:1014000007048280B717004003D587004205418159
:101410009377050491EB9377F5013755E8011305B0
:1014200005803345F50282809377050C130700048D
:101430006397E7009377F50137459C1CCDB721658D
:10144000130505D08280B7F700E0C8439C4782802F
:10145000814737370040A14663C4C7003285828088
:101460000345B740E38EA6FE3385F500034505002E
:1014700085072304A740CDB7411122C406C62A849C
:1014800051372947B307E502B2408D83B3D78702AE
:1014900022449507B3D7E70237370040C207C1831C
:1014A0002316F74041018280716541111305052023
:1014B00006C6D937B7370040130770F82381E740D5
:1014C0000D47A381E74013070004A380E7400547C9
:1014D0002387E740B24041018280CC41411106C6DA
:1014E000328503C6150083C5050022064D8E4206CF
:1014F0008D654186138875A2630C060F6348C80486
:10150000138845A26306060B634AC800938535A27B
:101510006309B60623900600294679A0138855A2D0
:101520006308060B938565A2E316B6FEC1451D460A
:1015300063ECE5064546198E63F3C7003E862390AB
:10154000C60097B501009385651289A8138895A2F6
:101550006300060F634E060B1388A5A2630A060FED
:10156000938505A5E318B6FA99451D4663EEE50295
:10157000198E63F3C7003E862390C6009385818051
:1015800031A89D451D4663E1E5022146198E63F3AE
:10159000C7003E862390C6009385C187BA959730D1
:1015A0000020E780C0830146B2403285410182803D
:1015B000AD451D46E3EAE5FE3146198E63F3C700EB
:1015C0003E862390C60097B501009385E50DF9B7D7
:1015D000B1451D46E3EAE5FC3546198E63F3C700C5
:1015E0003E862390C60097B501009385E50C7DB734
:1015F000C1451D46E3EAE5FA4546198E63F3C70087
:101600003E862390C60097B501009385650779B79C
:10161000C1451D46E3EAE5F84546198E63F3C70068
:101620003E862390C60097B501009385E509BDB7B6
:10163000C1451D46E3EAE5F64546198E63F3C7004A
:101640003E862390C60097B501009385A504B9B7DF
:10165000B5451D46E3EAE5F43946198E63F3C70044
:101660003E862390C60097B50100938525FF3DB7C0
:1016700097360020938686404146CD451735002099
:101680001305C52C6F60B03283C785002145C18B1F
:10169000ADEF2D453DEB03C7050089476313F70602
:1016A000D841411106C6834717000347070032851A
:1016B000A207D98F4167130627FE6387C7026369B4
:1016C000F60005176382E7022390060029453DA036
:1016D000130647FE638AC7001517E397E7FE954791
:1016E0002390F600154629A085472390F60005466D
:1016F000CC4597200020E780806E0145B240410133
:1017000082802390060005458280828083C7850001
:1017100093F70702DDE7411106C622C403C40500A2
:10172000894E2E888547631AD40383AE4500B2885C
:1017300083C71E0083CE0E00A207B3E7D701C16E98
:10174000138F1EFE6380E7038D1E6387D7050D6828
:101750001308289063810707A947B24022443E85B9
:1017600041018280AD4775FB0547B547E367D7FE6A
:101770000325C8000546C68597200020E78020661F
:1017800001449387C1899843814761DB184371D72E
:10179000228502978147D1B7AD4761F30547B54729
:1017A000E36DD7FA0325C8000546C68597200020BB
:1017B000E780E062F9B72244B240854741016F40BB
:1017C000706AA1473E85828041677917630CE50204
:1017D000411122C406C685472A84639AF5002285F2
:1017E0002244B2409385419B41016F601027894795
:1017F0006396F5008545EF80D04B75D1B240224409
:10180000410182808280411122C42A8441659385EE
:10181000419B7D1506C6EF60502417050000130597
:10182000E5FA0588EF80704005C02244B240973643
:101830000020938666364146C545173500201305BE
:10184000A52441016F60B016B24022440145410118
:10185000828009C523AEA1880145828045458280EA
:101860001147636EA70697B60100938626E70A051F
:1018700036951841411106C63697AE87B285028764
:1018800005476145639AE70005461385418897201F
:101890000020E780C0540145B240410182800547E5
:1018A0006145E39BE7FE054613858188CDB7054773
:1018B0006145E393E7FE05461385C188C9BF054727
:1018C0006145E39BE7FC054613850189C9B71547C8
:1018D0006145E393E7FC1546138541894DBF0945F2
:1018E00082801147636AA704AA8717B7010013070C
:1018F00027E08A07BA979C43411106C6BA972E85FE
:10190000828705469385418897200020E780204DF7
:10191000B240014541018280054693858188EDB73B
:1019200005469385C188CDB7054693850189E9BFF2
:10193000154693854189C9BF09458280411122C45A
:101940002E849385419B26C206C6AA84EF40704C24
:10195000058915C1973700209387071383D7A70BF5
:10196000A285B2402310F400224426859244014609
:1019700041016F50F024B240224492444945410154
:101980008280B717004003C6B70583C6870503C723
:10199000970583C5B7051376F60F93F6F60F93E513
:1019A0000508A38DB704BD45238CB7049305100229
:1019B000A38CB70483C5A7051377F70F93E515002C
:1019C000238DB70483C5A7058589EDFD03D5C7051C
:1019D000A38DC704238CD704A38CE7048280411114
:1019E00093962500AA852D4506C697200020E780FE
:1019F000400FB240014541018280411122C426C2FC
:101A00004AC02A842E89B284AA8593060020014602
:101A1000254506C697200020E780A00C93162900D4
:101A20002686A285294597200020E780800BB240BA
:101A30002244924402490145410182804111939719
:101A4000050122C406C6C1872E8463DD0700EF00AE
:101A5000007619C1EF00006F2165218DB24022444C
:101A60004101828093F7150013C51500E5FB93979C
:101A7000250163DF0700EF30117F37F60200130600
:101A800006E0896503C501B3EF0070450965F1B74C
:101A9000939715010145E3D307FC17B50100130522
:101AA000E5CAEF90312113060064916503C501B3C7
:101AB000EF00F042116555B71D71494697B5010019
:101AC000938545C417B50100130505F486CEEF00D4
:101AD000F01001E917B50100130505C4EF90911D41
:101AE00001A0B7F700E07957D8C77D5798CB856636
:101AF00037E700E02320D7101306701090C323208F
:101B0000D7181306C00381454808EF001007973720
:101B100000209387275F3ECA896793870780231C2D
:101B2000F100ED47A301F102930750102312F102D7
:101B30008146CD470146814521452303F102972087
:101B40000020E78000FAA167938707E03ECE970761
:101B50000000938707E9BEC497070000938727EA30
:101B6000BEC6B5472308F102B7F507009707000086
:101B70009387A78D3EDA8146970700009387A7E0F9
:101B80007000E10519453EDE97200020E78060F5F2
:101B900058088147994670003E960346060085071F
:101BA0000507A30AC700E398D7FED24791C703579A
:101BB000810185676373F70001A04808EF00B06EEC
:101BC000AA8501C917B50100130545B6EF90E17C60
:101BD00001A0F64025618280411117050000130520
:101BE00025E606C622C4EF005068138401B3230023
:101BF000A4002928034504002244B24037F602001D
:101C0000130606E0896541016F00702D411106C67B
:101C1000B7170040130770052380E704130780FA05
:101C20002380E70403C7F7020145014613677700E5
:101C3000A387E702238007048145EFF0EFE5B24078
:101C4000014541016F1000122A86B305B04017B557
:101C50000100130565B36F904174011106CE19C5DB
:101C60000947630EE500F240056182806C009539FA
:101C700017B50100130545BEEF90D103EDB76C0019
:101C80008D3117B501001305E5BEFDB783D7018B74
:101C90006390A7022399B18A239AC18A239BD18A90
:101CA0002E8617B50100130525ACBE856F90E16E39
:101CB00017B501001305C5AC6F90C17F03574500F0
:101CC000011106CE83D7018B631FF702C167F91795
:101CD000894503C5C18123A8F18A23AA018AEF009F
:101CE0005037914503C5C181EF00B03685471306D3
:101CF000F100854513055030A307F100EF80C14D79
:101D0000F2400561828017B50100130565A7EF90C9
:101D1000617AFDB77D15954763E5A71417B70100F4
:101D2000130707A30A053A951C41411122C406C6B0
:101D3000BA972E84828717B50100130565A6224441
:101D4000B24041016F90017703C725009947631C9A
:101D5000F7002E85A5378345640017B501001305EC
:101D600025A5EF90816317B50100130525A6C1BF16
:101D700003C7250095476312F702C16703D7018B9C
:101D8000F91703D5A500630FF700EF80216C17B595
:101D900001001305A5A4EF90E17117B5010013052B
:101DA00065A671BF2398A18A83D7E5001306006456
:101DB00003C5C1812399F18A83D70501239AF18A4A
:101DC00083D725018945239BF18AEF0050110966CD
:101DD00013060690A14503C5C181EF0050100566AA
:101DE000130606C8914503C5C181EF00500F035685
:101DF000E4008355A40017B501001305659FEF901B
:101E0000C15961BF17B50100130585A00DBF83C57A
:101E1000250091476397F50017B501001305C5A08C
:101E200039BF9947639FF5002285493D834564008A
:101E300017B501001305C5972244B24041016F90C8
:101E4000C1559547639AF50083471400F1F717B51C
:101E500001001305259FE5B517B501001305059F82
:101E6000E1BF828001119397050122CC06CEC18784
:101E70002E8463DD070003C5C181152E11C1D9244D
:101E80002165218DF24062440561828093F715003F
:101E900091CF17360020130626D79385818A03C574
:101EA000C181EF80810613451400E9BF93F7250037
:101EB000B9CB13060064894503C5C181EF00300228
:101EC000930780F82302F1000147854781460546C4
:101ED000ED4503D5018B2315F100EF40202F03566C
:101EE000A1004C002AC697200020E78040EF2C007C
:101EF00003D5018BA13409C5ED452800EF40A0446E
:101F00001345240041B793F7850085C383C7C1817A
:101F100013074006814613064006D14503D5018BC1
:101F2000EF70117813458400B1BF93F74500014568
:101F3000B1DB03D5018BEF8021510566130606C87E
:101F4000914503C5C181EF008079134544001DBF51
:101F5000797117050000130525F106D622D426D283
:101F6000EF00B0309384C181D14705442380A400A1
:101F7000231AF100100893074006854513055030D9
:101F8000231CF10023088100EF8001251736002073
:101F90001306C6C9F14513057030EF80E12313869F
:101FA00001829D4513056030EF800123500889456B
:101FB00013051031EF804122300889451305203187
:101FC000EF808121173600201306C6C4D545014590
:101FD000EF30105C930500050D45EF20C0239305FD
:101FE00000051145EF20202330089145130570406E
:101FF00023048100230681002308810002CC230AE8
:102000000100EF60F16D3000854513050040EF6081
:10201000316D7000854513051040EF60716C5008FC
:10202000854513052040EF60B16B10088545130509
:102030005040EF60F16A7D55EF30F0627D55EF6002
:10204000A01EEFF0EFE27D55EFF0EFFB894723068E
:10205000F1008D472308F1009147230AF10093878F
:102060000187984383C747003000854501453ACC36
:10207000230EF10023048100EFF08FFE70008545F0
:102080000545EFF0EFFD100885450945EFF04FFDE0
:10209000500885450D45EFF0AFFC300895451145DA
:1020A000EFF00FFCC1671387018BF9171CC32322C4
:1020B000070013858181EFF0CFF91385018AEF5076
:1020C000D17C03C5040085458D2EB2502254925414
:1020D000456182804111054506C6EFF08FAC1305BE
:1020E000800497100020E780A07D371700408327E9
:1020F000870A8D451305002093E707202324F70A5C
:10210000EFF0CF9FEFF04FBA17B501001305C58F61
:10211000EF90413AEFF05F9AC134EF8061350D3DA9
:1021200097200020E780A0CDE5BF23AC05FE1C4131
:1021300081E70CC18280BA8703A787FF6DFF23ACBC
:10214000B7FE82801DC18346E5FF1307F00F91475C
:10215000639EE600411106C697200020E7802072AA
:10216000B24081473E854101828095473E8582800D
:1021700001E9014582800145B2402244410182804B
:10218000411122C42A84210542059305D0044181CE
:1021900006C697200020E780A06071DDFD57232050
:1021A0000500231285002303F5002105F1B7174729
:1021B0000020130727751C43411122C426C24AC0C0
:1021C00006C601440149BA8489E7A16559251DC4A1
:1021D00001A803C7E7FF631AA7020DCCA165B12CC4
:1021E0009840832784FF6319E40217470020232BBC
:1021F000F770FD57232C04FE230FF4FE2285B24016
:102200002244924402494101828011E03E8983A721
:1022100087FF5DBF3E84E5BF232CF9FED9BFB9C956
:10222000411122C406C62A849747002083C7D76D70
:102230002E856368F40039370D45B24022444101D0
:10224000828083A785FF99E703C7E5FF9307F00F17
:102250006305F700C53D1545CDB7238F85FE1745AE
:1022600000201305256AD13522852244B240A1659C
:102270004101E1A2154582809747002023A4076809
:102280008280974700209387276B9C4399E33E8584
:10229000828003D727006316B70003C70700E3084F
:1022A000A7FEDC47E5B74111939705014AC006C672
:1022B00022C426C2C1872E8963DE0700CD3D11C12D
:1022C000513521653345A900B24022449244024968
:1022D00041018280AA860145E5D901443D47B357B3
:1022E0008940858B85CF974700209387E768844393
:1022F000BD4791E28147A2978E070545BE943315ED
:102300008500131405019C40C8404180829723A09A
:10231000040023A20400334524017DB70504E31023
:10232000E4FC0144CDBF97470020938727619C536D
:10233000411122C406C61384818295C7829723A4C3
:10234000A1820840B74703009387D73F3305F502C2
:10235000B7A72600938737ECB24022443E9523A4CA
:10236000A18241018280974700209387E759184056
:102370009C4BBA9723A4F182E9B72A9609E582809B
:102380000505A30FB5FEE31DC5FED5BF8147330785
:10239000F5000307070019E33E8582808507C5BF66
:1023A00001112E8626CAAA84131506019305F0048E
:1023B000418122CC06CE32C697200020E780403EE5
:1023C0002A8419C53246A68597200020E78020A1DF
:1023D0002285F2406244D2440561828081476314C1
:1023E000F600054582803307F5008507B386F500C2
:1023F0000347070083C6F6FFE383E6FE01458280BC
:102400009307F6FFBE952A966313C5008280FD15DB
:1024100083C715000505A30FF5FEFDB7814711E938
:10242000014582803307F50003470700E31AB7FE32
:102430008507E319F6FE054582809747002083C78C
:10244000B74C6371F502174700201307A74E931787
:10245000150008433E9583570500DD8D2310B50018
:10246000014582800D458280974700209387075160
:102470009C43638C072279714ECE06D622D426D295
:102480004AD052CC56CA8297AA8915CD97440020CB
:10249000938484479C48174900201309294A014A1C
:1024A000AA97174700202329F746FD571747002012
:1024B0002322F7469747002093870748804309EC7B
:1024C00083274902C9E3B250225492540259F24977
:1024D000624AD24A456182801844814763F4E90028
:1024E000B3073741032749021CC401CBD84463F624
:1024F000E70017470020232FF74095EB8355240072
:102500008DE15C44631E0A02174700202326F74230
:10251000832AC400228597200020E7804036568415
:1025200079BF03450400113F5C4081CB1CC4835735
:102530002400E1DB228A404459B71C44F9D3C5BFCB
:102540002326FA00F1B7974700209387A73E9043D0
:102550009746002083C6563B814713F7F70F636306
:10256000D708174400201304645F834774000D47A5
:10257000F91793F7F70FE378F7F49747002083C72D
:10258000A760918BA9F34800EFC030257D56630901
:10259000C50C9246174700200347773BE375D7F2F7
:1025A000DC44638FC70403464901058A21C65146AE
:1025B000B387C702E379F7F063F3D700BE86B71796
:1025C0000040905F32C48C5F2246E39CC5FE2245EA
:1025D000198D3695B707C0A86367F502B70740574E
:1025E0003E9515A085071397170032970357E7FF0D
:1025F0002DD7D1BD13069002B387C70285835DBF77
:10260000636AE504198D9747002083C767348DC33B
:10261000B7170040130770052380E704130780FAFB
:102620002380E70403D7A1872396E70223800704CA
:102630008327490225C982971375F50FE31505E82D
:102640005C48E38207E8EF205141EF304151EF2031
:10265000713995BDB707C0A83387E7403A9565B78C
:10266000DC44E382A7E603474901058B15C75145C2
:10267000B387A702174700200347772DE375F7E4D8
:10268000B7160040905E32C68C5E3246E39CC5FEB3
:102690003245198D3E953DBF13059002B387A702C1
:1026A0008583C9BF3705C0A879B7828097470020C6
:1026B00083C797256373F502174700201307872701
:1026C00093171500084393C5F5FF3E958357050002
:1026D000FD8D2310B500014582800D45828097470E
:1026E000002083C777226364F50001458280411191
:1026F00022C426C24AC006C62A842E89B284513614
:1027000001C504C505452DA09315840093E5F50486
:10271000414597200020E780A0080DE19747002061
:102720009387C7219C5B81C7A2851145829701458C
:10273000B2402244924402494101828097470020DE
:102740009387871F9C439DE39747002023A6A71EDE
:1027500085472326050004C5231125012300850094
:10276000A300F5002322050071BFBA87D84775FF83
:10277000C8C7F9BF55C539715AD0174B0020130B84
:10278000AB1F22DC26DA4AD84ED652D45ECE66CAB9
:102790006AC86EC606DE56D262CC3689328AAE89E7
:1027A000AA8401445A8DB94D854BF94C03270B007F
:1027B000131C3400937AF40F62971C43A9EF13B5EE
:1027C000FA0013451500B3978B0063F65D0193077C
:1027D00014FFB397FB0093950701C181528601371F
:1027E0001DC983270D000145E29784C323A2370149
:1027F0006304090023005901F2506254D254425933
:10280000B259225A925A025BF24B624CD24C424D60
:10281000B24D216182800504E31A94F92145E9BF94
:1028200009458280411122C426C24AC006C6AA8434
:102830002E8932846D35CA852685A13409C940C1E7
:102840000145B2402244924402494101828021451F
:10285000CDBF411122C426C24AC006C6AA842E8911
:102860000D342A8419C123110500CA8526853D3DF2
:10287000014511E01945B240224492440249410108
:1028800082807547636DA704174700201307C70EA2
:102890001443411126C293143500A696944222C4D3
:1028A00006C6AA873A84094595C613B5F700394785
:1028B000134515006373F700C5178545B395F500FB
:1028C000C205C18179371C400145A69723A00700A6
:1028D00023A20700B240224492444101828009456C
:1028E0008280411106C6EFF0DF9909C50845B24064
:1028F000410182800145E5BFF54763EFA704974793
:102900000020938767079C4313173500BA979843B5
:10291000894721C7011126CA06CE9334F50022CC7F
:10292000B94793C4140063F3A70045150544331455
:10293000A400420441802EC62685A2855D378947C2
:10294000324609C5A2852685593B8147F24062443B
:10295000D2443E850561828089473E85828041114F
:1029600006C69747002023ABA7000295B2409747C1
:10297000002023A5A7FA41018280894763E9B700B7
:102980008A0597470020938727FABE9588C18280E1
:10299000411106C622C426C2EF70913431468145EA
:1029A00017450020130545F8EFF03F9D714681451E
:1029B00017450020130545F5EFF03F9C9747002091
:1029C00023AC07F69747002023AA07FA9747002071
:1029D00083C787F813D527008D8B3E958D47330528
:1029E000F50217440020130424F2994793051002BE
:1029F00097440020938404F335051375F50F2301E4
:102A0000A4003305F5021305050F97200020E78089
:102A100020D99747002023A1A7F683472400130558
:102A2000050F88C08A073E959747002023A4A7F08A
:102A3000EFF09F84912E8347140098401706000002
:102A40001306A68693962700BA9690C2938627000F
:102A5000850793F7F70FA300D400B24022448A07FA
:102A6000BA9790C39244410182809747002083C760
:102A7000B7E917470020034747E963F3E702174721
:102A80000020130727EA18439386170017460020F3
:102A9000A30CD6E693962700369708C33E8582801E
:102AA0009307F00FE5BF411126C2044106C622C4B8
:102AB0004AC08947638E04124177658FB7060020AC
:102AC00089476317D71203594500630309122A8403
:102AD00019469305F00F5905EFF05F9405478D47B0
:102AE0006308E5104A8681452685EFF01F891306A5
:102AF000C003814517450020130545E4EFF0FF872B
:102B00001306C003A28517450020130525E397107F
:102B10000020E780C02C9747002083D7E7E299E7A1
:102B200093070020174700202310F7E29747002063
:102B300083C7A7E191E78547174700202307F7E000
:102B40009747002083C777E091E7ED4717470020BC
:102B5000A30DF7DE9747002083C747DF91E795472E
:102B6000174700202304F7DE9747002083C717DEAE
:102B700091E7854717470020A30AF7DC9747002015
:102B800083C7E7DC91E7CD47174700202301F7DC37
:102B90009747002083C767DC99E7930780021747B0
:102BA0000020230CF7DA9747002083C707DB17477D
:102BB00000200347D7D9858339E393870705174753
:102BC0000020A306F7D88347D40191E79147174720
:102BD0000020A303F7D897470020938727D69C5758
:102BE00091C78297974700202393A7D255338147F7
:102BF000B2402244924402493E854101828003470B
:102C00003401BA9793F7F70F5DBF4111B717004032
:102C1000985F3AC6945F3247E39CE6FEB247174797
:102C200000200347E7D2058B3EC0824731C313061D
:102C30003033B386C702B3B7C702B982CA07D58F8C
:102C40003EC202C497470020938707CCD44B9247DB
:102C5000638DF600924763E5D7029247958F3EC495
:102C6000924717470020232BF7CA22454101828053
:102C70006546B386C702B3B7C702A582DE07C1B7F0
:102C800019E737673D089247958FBA97C9BF3787CD
:102C90006F0813070790C5BF011122CC06CE2A8406
:102CA0002EC6EFF04FE8B245F240818D33A5A50264
:102CB000229562441375F50F05618280011122CCC3
:102CC00006CE2A842EC6EFF00FE6B245F240818D83
:102CD00033A5A502229562444205418105618280A7
:102CE000011122CC06CE2A842EC6EFF0CFE3B245E6
:102CF000F240818D33B5A502229562440561828040
:102D000097470020938787C3985721CF411122C44A
:102D100026C206C6BE84029717470020035727BF66
:102D20002A841DCBBA876373A700AA87C207C18311
:102D3000BA866373E400A286C206C182958F130728
:102D4000C003635BF700DC5491C38297EF20B1515D
:102D500097470020239D87BAB24022449244410104
:102D60008280828097470020938747BDDC574111BE
:102D700006C691C3829717050000130545E9C536BD
:102D8000B240014541018280011122CC174400204C
:102D90001304C4BA084406CE26CA19E50545F24014
:102DA0006244D244056182805C58EDDB185C7DD7BB
:102DB0007000854582971844B247E301F7FE8357B8
:102DC000C40017450020034545B89305E0043305CA
:102DD000F50297440020938424B342054181972053
:102DE0000020E780E09B17470020232BA7B25DD58A
:102DF0009747002083D747B5174600200346E6B41F
:102E00003306F6029305F00FEFF02FD7904C0844ED
:102E10009747002083D747B308C29745002083C552
:102E2000C5B2B385F5021C5C89818297884C9720D6
:102E30000020E780C0A401459747002023A207AEE9
:102E4000B9BF411122C417440020130424AF1C440D
:102E500026C206C697440020938404ABADCB1C5C0D
:102E6000BDC79C4C8DE78357C40017450020034520
:102E7000C5AD9305E0043305F50242054181972075
:102E80000020E780E0919747002023ABA7A8884C5B
:102E90001DCD9747002083D727AB17460020034658
:102EA000C6AA3306F6029305F00FEFF00FCD904C53
:102EB00008449747002083D727A908C297450020D8
:102EC00083C5A5A8B385F5021C5C89818297884CCF
:102ED00009C997200020E780809A9747002023A106
:102EE00007A4B2402244924401454101828001116D
:102EF00026CA97440020938424A122CC804C4EC63D
:102F000052C456C206CE4AC8AA8AAE89328A31EC69
:102F100017490020130989A28327890099E3A9444E
:102F200071A08357C90017450020034505A29305EA
:102F3000E0043305F5024205418197200020E78037
:102F400020862A8441C583274903C9C397450020A9
:102F500083C5A59F174700200357079FB385E50248
:102F60002A86032589008981829791451307A00548
:102F7000898193972500A29783C607006395E6048D
:102F800083C61700639E560385058A054E86A29563
:102F9000528597100020E78080E49C4C8144638731
:102FA0008700228597200020E780608DF2406244F0
:102FB00026854249D244B249224A924A056182801A
:102FC00083D5270075B79C4CE38B87F42285972027
:102FD0000020E780C08AA1B7974700209387079613
:102FE000984729CB9C5FB9C785466315D504411125
:102FF00022C41744002013042491104C06C61DC699
:103000009746002083D646949745002083C5E593D4
:10301000B385D5023A8589818297084C9720002094
:10302000E780E0859747002023AC078EB24022441A
:10303000410182808280974700209387E78C984FD8
:10304000011122CC26CA4AC852C406CE4EC62A89CD
:10305000AE8432843E8A35E7974900209389098EF1
:1030600083D7C900174500200345258E9305E0044A
:103070003305F5024205418197100020E780407238
:103080009747002023AEA7882A8611E92945F240F8
:103090006244D2444249B249224A0561828003A572
:1030A000890005C183A7490389CF9745002083C5BF
:1030B000C5891747002003572789B385E502898111
:1030C000829703258A0191461308A005FD5593D7E1
:1030D0002600C207C183139727002A9703460700DB
:1030E000631B0603834817000356270063932803D6
:1030F000B306D64063CD960085078A073E9526869F
:10310000A28597100020E78080CD014549B7A30034
:10311000B700B2866DBF174600200356E68297457A
:10312000002083C58582B385C502338696001106CB
:10313000E3EEC5F413863400719A1106B2962300AB
:103140000701A30027012311D7007DB70145828025
:10315000011106CE2EC6EF70C02301C9B245F24060
:103160000355250005616FA04066F24049450561A1
:103170008280A380018E2380018E23A4018C23A64C
:10318000018C23A8018C23AA018C23A2018C23A0EB
:10319000018C974700209387A780930600051307AB
:1031A000400B2391E7002397D70011672398D7009E
:1031B0009306007D2392E700239DD7001307000AA2
:1031C000BD462393E7002394E7002391D7024147AC
:1031D000F1762395E7002396E7002399E700239AE9
:1031E000E700239BE700239CE700938606B823941F
:1031F000E70205472392D7022395E7029D4613076E
:1032000010F82396E70223900700239E0700239FD0
:103210000700239007022393D702239707027D57C5
:10322000239807022399E7028280011126CAAA8403
:10323000214522CC06CE2E8432C636C43AC2EFE0F7
:103240003FF31DC9A24612473246930700FD2300F3
:10325000F5009947A30095002301F5002303D5004D
:10326000A303E5002312C500AA8522856244F2402B
:10327000D24405616FE0BFFAF2406244D244056176
:10328000828023A4A18C828023A6A18C828023A883
:10329000A18C828023AAA18C8280011122CC4AC8F1
:1032A00006CE26CA2A890144B30489006368B400A3
:1032B000F2406244D2444249056182802EC6EFF05A
:1032C0008F8693170501C183A183B2452380F40043
:1032D0009307140093F7F70F850463F9B700CA97B3
:1032E00009042380A7001374F40F7DBF3E847DBFC3
:1032F000C1671735002003550569FD176304F50202
:103300004111173600200346A6769385818D06C6A7
:10331000EF60B070B240FD57173700202315F766F5
:1033200041018280828009C925151375F50F133577
:10333000850E13451500828001458280238005009B
:10334000F94763E2C708797122D426D24ECE56CA15
:103350005AC806D64AD052CC5EC63684B289AE8AE6
:103360002A8B814463FF3405B307940003CA070026
:10337000138914001379F90F63050A04B3072A01AE
:1033800063C1F904B307240183CB07005E85613F65
:103390000DC99307FAFF2380FA0063906B031305AE
:1033A00019002295B250225492540259F249624AAD
:1033B000D24A424BB24B45618280D29493F4F40FCF
:1033C00055B70145C5B701458280411126C2AE847B
:1033D00022C49737002023AFC75A9737002023A96C
:1033E000B75A9737002023A3A75A2A84414693054A
:1033F000F00F26854AC006C60549EFF02F82631EEE
:103400002503973700209387A757884BC14571350F
:1034100041469305F00F2285EFF04F8085446316F7
:10342000950222449737002093878755B2409244F3
:103430000249C847C14541018DB5414681452685B0
:10344000EFE0DFFDE31625FD6DBF41468145228596
:10345000EFE0DFFCE30795FCB240224492440249CE
:1034600041018280411122C426C22E84AA841306FF
:1034700000028145173500201305855006C6EFE090
:10348000DFEF97370020A38E974E97370020A38257
:10349000875EEFA00035854719C181474945B24095
:1034A000224417370020230DF74C924441018280BB
:1034B000814781CD19C98547631BF50083C7550036
:1034C00093E707FCA382F50085473E858280894704
:1034D0006317F50083C7550093F7F703E5B70D476A
:1034E0008547E314E5FE03C755001377F703136719
:1034F0000704A382E500D1BF81478DC105C103C781
:1035000055009306000C85471377070C6308D70016
:10351000930600048D476303D70089473E85828068
:10352000411122C4005D06C626C21DC8AA840850E7
:1035300009C597100020E7808034485009C59710CE
:103540000020E780C033085409C597100020E780A9
:103550000033228597100020E780603223AC0402FC
:10356000B240224492444101828009ED9737002005
:1035700083C72741173500201305054281CB1385EA
:10358000818B828017350020130505418280173515
:1035900000200345053F8280973700209387473EF0
:1035A000C8478280973700209387873D884B828069
:1035B000973700209387C73CDC4B8843828097373E
:1035C00000209387E73BD84B1C4385071CC3173566
:1035D00000200345153B9307F00F6305F500916547
:1035E0006FE0BFE58280011122CC06CE2E8432C668
:1035F000EF60B06A9147B245631FF5009387418D34
:103600009C438DC303A30700630E0300228562441D
:10361000F240056102839387C18C9C4381C703A359
:103620004700DDB7F2406244054505618280011123
:1036300022CC2A840355450006CE26CA4AC84EC667
:10364000EF60304C35C52A89834405008349C500A5
:10365000C13D4A85EF70304203554400EF60705F12
:1036600083C7018EB1CB6399970483C5118E2685DC
:10367000EFF01FAE19E12380018E03554400EF6087
:10368000D0619147631FF50003574400973700202E
:1036900083D7672F6317F700FD57173700202314D0
:1036A000F72EF2406244D2444249B2490561828019
:1036B00081499304F00F6DB79307F00FE38FF4FA8D
:1036C0008346640003564400034524004E87A685C4
:1036D000A93E65B779715EC6AA8B2E8552CC56CAB3
:1036E0005AC806D622D426D24AD04ECEAE8A328BC3
:1036F000368AEF6010416DC1045D2A89F1CC9C507F
:10370000614599C3130540039C5481C75105420587
:10371000418163050A00710542054181DC5081C782
:10372000590542054181EFE0BFA42A8455C5614691
:103730008145EFE09FC49739002083C969296394CC
:10374000090083490900930700FD2300F400A947FD
:10375000A30074012301F400230364018C5023129D
:1037600054011305840191C908C47146930A4403A6
:1037700097000020E780A06656858C5491C948C404
:103780005146930A450197000020E7804065568521
:10379000630C0A0008C87146D285930AC5019700D8
:1037A0000020E780C0635685CC5099C548C859466B
:1037B00097000020E780A062A2854E85EFE03FA63B
:1037C0002254B2509254F249624AD24A424BB24B0E
:1037D0004A8502594561A9B3B25022549254025904
:1037E000F249624AD24A424BB24B45618280011192
:1037F0004EC6AA892E854AC806CE22CC26CA2E8954
:10380000EF60303031C59734002083C4641C99E0E8
:10381000834405001945EFE0BF952A8415C9814509
:103820001946EFE09FB5930700FD2300F400B94768
:10383000A30034012301F40023122401A285624471
:10384000F2404249B2492685D24405616FE03F9D6E
:10385000F2406244D2444249B249056182803971E2
:103860005ECEAA8B2E8526DA4ED652D456D25AD0A8
:1038700006DE22DC4AD8AE84328BB68A3A8ABE890A
:1038800042C6EF60102831C92A894145EFE05F8EBA
:103890002A8421C541468145EFE03FAE173500201F
:1038A0000345051319E103450900930700FD2300B3
:1038B000F400BD472301F400B247A30074012312B2
:1038C000940023046401A304540123054401A305C7
:1038D00034015CC4A285EFE09F94F2506254D2544C
:1038E0004259B259225A925A025BF24B21618280AC
:1038F000797126D2AA8439454AD04ECE06D622D432
:103900002EC6B2893689EFE0BF8621C1B245930742
:10391000000D2310F500B1472A842312B5002301BE
:10392000F500CE851905194697000020E780204B49
:1039300023062401A2852254B2500259F24913F5FC
:10394000F40F925445616FE09F8DB250225492540F
:103950000259F249456182801737002003477702F8
:103960009307F00F630DF706411126C2AA8439456B
:1039700022C406C64AC0EFE0AFFF2A8439C99307C4
:1039800000FD2300F500A3009500230105009735F5
:103990000020938565000D05194697000020E780FB
:1039A0000044173900201309A9FD83578900A28517
:1039B000173500200345F5FC2315F4008347190053
:1039C0002306F4002244B2409244024941016FE0D0
:1039D0001F85B24022449244024941018280828084
:1039E000011156C2AA8A314526CA4AC84EC652C4D7
:1039F00006CE22CCAE84328AB6893A89EFE04FF700
:103A000029C92A842685EF60D00F1DCD0345050006
:103A1000930700FD2300F4009D47A30054012301F8
:103A2000F4002312940023134401231434012315BA
:103A30002401A2856244F240D2444249B249224A5A
:103A4000924A05616FE0AFFD17350020034575F31D
:103A5000C1B7F2406244D2444249B249224A924A32
:103A600005618280397162CC2A8C594526DA4AD8A0
:103A70004ED652D456D25AD05ECE06DE22DCAE846A
:103A800032C636C4BA8B3E8BC28A468A8359010439
:103A900003494104EFE0CFED35C53246930700FD01
:103AA000A2462300F5009547A301C500A3008501A8
:103AB0002301F5002A8419461105A9C2B68597008D
:103AC0000020E780C03123066401230A2401231566
:103AD0007401231754012318440123193401A285CA
:103AE0006254F2504259B259225A925A025BF24B36
:103AF000624C2685D25421616FE06FF28145EFE080
:103B0000DF87D1B7F2506254D2544259B259225A87
:103B1000925A025BF24B624C2161828097370020FF
:103B200083C727E68DCB4111AA8519461385818B62
:103B300006C697000020E780802A9385818B173581
:103B40000020034505E4EFF0BF96B2401385818B5A
:103B500041016F90D04901458280411106C622C4BF
:103B600026C2173700200347D7E19307F00F6308F9
:103B7000F704AA842945EFE0AFDF2A8429C193071F
:103B800000FD2300F500A1472301F500A3009500E7
:103B9000973700209387C7DE83C727009385818BE3
:103BA0001105A30FF5FE194697000020E78020239A
:103BB000A285173500200345D5DCEFE04FE6173727
:103BC0000020034727DC85476317F7029387018DA1
:103BD0009C4381C79C4791C382972244B240924440
:103BE0005D66173500200345A5E81306067091456C
:103BF00041016FE03FC3B2402244924441018280C0
:103C0000797122D406D626D24AD04ECE52CC09445F
:103C10005DC92A89035505002E8A5144EF60606E04
:103C2000AA8455C19737002083C7B7E4FD1793F7DF
:103C3000F70F054749446378F7080347C500A147D4
:103C40006314F70063110A089C5C4544ADEF9305CB
:103C500070041305C00297100020E78060B488DC70
:103C6000AA894D442DC11306C0028145EFE0EFF053
:103C7000835709009386490036852391F9007146E0
:103C80009305490036C697000020E7804015894714
:103C90002380F90003C5C400B2460356090061152C
:103CA0009735002083C5C5DC13351500EF803079CA
:103CB0002A8463060A00D2852685EF70300701C486
:103CC0002685EFF0FF852285B25022549254025986
:103CD000F249624A456182809737002083C777D9CD
:103CE000FD1793F7F70F05476378F708894751C623
:103CF000011122CC26CA4AC84EC652C406CEAA8991
:103D0000368AB2842E89EF60C05F2A84D14729C9E0
:103D1000485509C597100020E78060B6F145268513
:103D2000EFE00FE848D4CD4705CD8346C4002147D6
:103D30008147639FE600630D0A000347A501035610
:103D4000050193062501AA854E85EF609074AA8728
:103D500003474400630F0900136767002302E40070
:103D6000F2406244D2444249B249224A3E8505614A
:103D7000828013674700DDB7C9473E858280E147EF
:103D800063EBA70097370020938787C106053E9510
:103D900003550500828041657D158280011122CC8A
:103DA0002A842E8526CA06CEAE84EF6080550DCDBE
:103DB000B7470F009387F723094563E287028145E0
:103DC0000A854146EFE06FDBA685231081000A8556
:103DD000418023018100A3010100EF80F047F24000
:103DE0006244D244056182804945D5BF973700209F
:103DF000A380A7C882806F80105D797152CC2A8A17
:103E0000328522D426D24AD04ECE56CA5AC85EC671
:103E100006D662C4AE8BB28A368BBA843E89C2891A
:103E20004684EF60004E15C92A8C63140A0213778A
:103E30004B008347450015CF93E727012302FC0081
:103E40008DEC631C0902639A090205E8ED9B2302CD
:103E5000FC00832B8C03639F0B06B25022549254B8
:103E60000259F249624AD24A424BB24B224C456156
:103E70008280F59B93E70701D1B793E747002302C0
:103E8000FC0001CC1C484146A2852324FC021305FA
:103E90008C0197000020E78080F463910B02D5D855
:103EA0000325CC0209C597100020E780409DF1450D
:103EB0002685EFE0EFCE2326AC0261BFE30B09F8C5
:103EC0000325CC0209C597100020E780409BF145EF
:103ED0004A85C5B795C483A70B0291EB930570047F
:103EE000714597100020E780A08B23A0AB0203A5AB
:103EF0000B0219C57146A68597000020E78020EEC9
:103F00006387090283A74B0291EB9305700459451F
:103F100097100020E780C08823A2AB0203A54B02C4
:103F200019C55946CE8597000020E78040EB15C49F
:103F300083A78B0291EB93057004514597100020E5
:103F4000E780008623A4AB0203A58B0219C5514666
:103F5000A28597000020E78080E82254B250925456
:103F6000F249B24B224CCA865A860259424BD68538
:103F70005285D24A624A45616FF0CFF5011126CAD7
:103F800052C406CE22CC4AC84EC62A8AAE84EF60FE
:103F9000403725C5AA893945EFE08F9D2A8431CD68
:103FA000173900200349C9A26314090003C9090095
:103FB0009307000D2310F400AD472301F40093850F
:103FC000690013053400194697000020E78020E1BE
:103FD00093F71400858085882306F400A3069400D7
:103FE00023154401A2856244F240D244B249224AD8
:103FF0004A85424905616FE08FA2F2406244D24493
:104000004249B249224A056182809387018C8843E4
:1040100001CD411106C697100020E7804086B240CE
:1040200023A0018C410182808280011106CE22CC26
:1040300026CA4AC82EC6EF60C02C39CDB245173902
:1040400000200349E998AA840CD5631409000349A8
:1040500005004145EFE0CF912A841DCD9307000D67
:104060002310F500A5472301F50083C7540093856D
:1040700064001105A30FF5FE194697000020E780A4
:1040800000D69C54A285F2405CC46244D2444A8566
:10409000424905616FE0AF98F2406244D244424920
:1040A00005618280797122D406D62A842EC6EF60FB
:1040B00040250DCD8346C5001147AA874945639326
:1040C000E6029C5FB24599C383C567010808EF709B
:1040D000E04E978600009386E6D410088945228535
:1040E000EF603040B2502254456182805145DDBFBF
:1040F0009737002083C7F797FD1793F7F70F05470A
:10410000637AF704894721CA411122C426C24AC0F2
:1041100006C6B2842E89EF60C01E2A84D14705C529
:10412000630809008347450093E727002302F50051
:104130004146A6851305840197000020E78020CA28
:104140009C481CD48147B2402244924402493E8597
:1041500041018280C9473E858280797122D406D68A
:104160002A842EC6EF60E01901CDB2452285230EC8
:10417000B1006C08EF700038B25022544561828063
:104180005145DDBF6F606026C1671387E7FF639409
:10419000E5029387C18C9C4391EB49458280494558
:1041A000B2402244924402494101828003A30700A5
:1041B000E30503FE0283411122C426C24AC006C69B
:1041C000FD172A892E84B2846395F5029387C18CEA
:1041D0009C4391CB9C4381CB829711E52380218F17
:1041E000A380918E75BFA6854A85EFE07FF64DF9D5
:1041F000F5B72E85EF60E0105DD1834705000D45D2
:10420000E39027FB22852244B2400249A6859244CE
:1042100041016F90805BE14763E8A70441677D1728
:1042200089476384E504411122C426C206C6C547F6
:10423000AE842A84631AF5001305C0033385A502F2
:1042400042054181EF9020601315140017240020CF
:10425000130404752295B24022442310950081472F
:1042600092443E854101828089473E8582800111CA
:1042700006CE2AC6EFE0FFEFEF108000EF00E073FC
:10428000EF50D15D3245972700209387676F130762
:1042900000F02391E700238207007D579727002035
:1042A0009387077DA380E7002380A700F240954510
:1042B00005616F40701F5D7193970501CAC086C686
:1042C000A2C4A6C24EDE52DC56DA5AD85ED662D4FA
:1042D00066D26AD0C1872E8963D6074C1725002085
:1042E00003450579EFD0BFEC8964416A856A797B23
:1042F0002A84938BD4007D1AA50A691B15E02165D9
:104300003345A900B640264496440649F259625AFC
:10431000D25A425BB25B225C925C025D6161828038
:10432000834704001307200A639DE7000355240018
:10433000172C0020034CFC642286D285EFF0AFAA34
:1043400099A213071009172C0020034C7C72639963
:10435000E7168347140015476390E7022285EFF0C4
:104360000FAD2285EFD01FDE1725002003454570D5
:10437000EFD0FFE32A8459B739476399E71603550D
:104380004400631B55050C4483C90500639D090067
:10439000850591C91946172500201305E55F97008B
:1043A0000020E780C0A3172700200347675D8547EB
:1043B0006318F710638A0900972700202382075C9F
:1043C0004E85EFF06FD971BF894717270020230969
:1043D000F75AEF90804171B793872400631AF5066E
:1043E00083298400638E090C83C709008DE383C78A
:1043F000290003C71900A207D98F1727002023150A
:10440000F75883C7390017270020A30BF756172743
:1044100000200347E75689476314F70A83C709005A
:1044200081CB97270020238D075403C5090051BF76
:104430008D479725002083C5B554172500200355C7
:10444000A55417270020230DF752EF40F008F1BFC5
:10445000938754006318F5001C4403C50700EFF070
:10446000CFEF01B7B3076501C207C1831147636F7F
:10447000F7009387018D9C43E38507EE9C43E3821D
:1044800007EE22858297E31E05EC1DA89387B400F2
:10449000631FF5009387818C9C43E38407EC9C4366
:1044A000E38107ECA2851385B4008297E9BF938767
:1044B000C4006310F5021C4483C70700E38307EAC6
:1044C0009307F00FE30FFCE8A2856285EFD03FD59C
:1044D00061BD9387E400E315F5FE9387C18C9C438F
:1044E000E38107E8DC43A285E9F3A5BD3D47639777
:1044F000E70403554400E30275FF93879401E30E3C
:10450000F5FC93873401E31DF5FA9727002083D744
:104510008747639E47019387C18C9C43E38307E4ED
:10452000DC43E38007E4A28513853401BDBF938794
:10453000418D9C43E38707E29C43E5B71307E00303
:10454000E390E7F88347240005476396E70E834727
:104550006400138D018CF1E383270D00D5CB03CCD0
:104560000700A14903457400930C8400E685EFE041
:10457000BFF883474401A303A400835804010358F0
:10458000E400035744002A86034534003EC28357A3
:104590002401E686E2853EC0CE87EFF0AFCC8347AC
:1045A000340095E7DD47835804010358E40083464F
:1045B0007400835544003EC2835724013EC0668781
:1045C000CE8705466285EF604004A301A4008327DF
:1045D0000D0081C71145EFF05FA303C5018EE30213
:1045E00005D883C5118EEFE0BFB6E30C05D6834630
:1045F000340093071003638AF600035644004E8785
:1046000083C5018E3685EFE05FC22380018E91BBAA
:10461000172C0020034CFC36A9B79387018D9C43CF
:10462000172C0020034CFC3591498DDFDC439DDBCA
:104630000145829705BF2947639DE70883476400CA
:10464000138D018CADEB83270D00ADC303CC0700A8
:10465000A14903457400930C4401E685EFE0DFE9CE
:1046600083470402A303A4008358C4010358A40190
:10467000035744002A86034534003EC28357E401B1
:10468000E686E2853EC0CE87EFF0CFBD834734009B
:104690009DFFDD478358C4010358A401834674007D
:1046A000835544003EC28357E40109BF172C002004
:1046B000034C3C2D71BF9387018D9C43172C002028
:1046C000034C3C2C9149D1D7DC43C1D7014582979B
:1046D00049B70947639DE7009387818C9C43E38238
:1046E00007C8DC43E38F07C6228582979DB92D4713
:1046F0006399E7009387818C9C43E38407C69C47BA
:10470000D5B70D476397E70022868D4503554400D2
:1047100035B119476395E70693056101130510311B
:10472000EF50311C2C0813052031EF50911B03561C
:104730006400835781010355440063E8C700835632
:1047400084000357610163F7E60093050002EF90D0
:10475000800E01B96374E6002313E40063F4D7000C
:104760002314F4000357C4008356A40003568400A6
:104770008355640001488147EF90A00BDDB61D47CB
:10478000E390E7D403574400E3ECE7D297270020F7
:104790009387472606073E9783576400F117231037
:1047A000F70039BB93F7150081CF9387818C9C4329
:1047B00089C7DC4399C3014582971345190099B60F
:1047C00093F7250081CF9387018D9C4389C7DC43F4
:1047D00099C305458297134529002DB693F74500E7
:1047E0000145E38107B29727002083C7B719B5C7F2
:1047F000FD1793F7F70F17270020A305F718B1EF60
:104800009387418C9C4391CF854717270020230B2A
:10481000F7169387018D9C4389C7DC4399C30545EF
:104820008297972700209387A715C8472C08EF8009
:10483000400B2808EFF08FAE97270020938747168C
:1048400083D72702914517250020034565221727A6
:104850000020A309F712EFD0DFFF134549005DB434
:10486000411122C42A84554506C6EFF04FD1B33515
:10487000A00022852244B24041016F809078797176
:1048800022D406D68D472E84631FF50003D7A500DA
:1048900083D6850003D665000345340083D54500E3
:1048A000EFF00F9409A889671387D7006310E50418
:1048B00003C5250019E58547B25022543E85456160
:1048C00082809387018C9443FDD603C6360083C54E
:1048D0000600814802C202C0014881470147910693
:1048E000EFF04F980545EFF04FF2F1B71387E7006F
:1048F000E303E5FC13873701631AE50003C52500D0
:104900005DD9014781460146814559BFE507E3046A
:10491000F5FA41677D178147E310E5FA03C75500B3
:10492000C947E31AF7F883D6E50003D6C500035557
:10493000840083D5A500EF80907121C15D45EFF023
:104940000FC43335A000231EA10083454400035546
:1049500024007008EF50D00D8357C101A9FF035701
:10496000E4008356C4000356A40083558400035515
:1049700024000148EF80F0693DBF8547231EF10008
:10498000E9B7C1671387E7FF639DE5009387018C53
:104990009C4395C383C707000D47639CA7006F80A6
:1049A0009066FD1749476396F5009387018C9C43F9
:1049B000FDF73A8582804947EDBF2381018E23A40C
:1049C000018E23A2018E972700209387A700170747
:1049D00000001307872498C3170700001307A727B1
:1049E000D8C3170700001307E75898C79727002078
:1049F000938707FF170700001307E7F898C3170707
:104A00000000130707E8D8C38280011122CC138469
:104A1000818E1C4006CE26CA4AC84EC652C499CFC3
:104A20002E8AAA840149084063129902630C0A0481
:104A300097000020E780A0E423A4018EF2406244A6
:104A4000D2444249B249224A056182809319490001
:104A5000B3073501884709C997000020E78020E2A5
:104A60001C40CE9723A407001C40CE97C84709C915
:104A700097000020E780A0E01C40BE9923A6090013
:104A8000050955B745DD139644008145EFD0FF8EEB
:104A9000144081477D5613F7F70FE37197FA139788
:104AA000470036972300C7008507F5B7011152C4A8
:104AB000138A418E83270A0006CE22CC26CA4AC812
:104AC0004EC656C25AC0C9CF2A89014419ED9387F0
:104AD000818E944399CA03C6218E2A848147930507
:104AE000F00F13F7F70F6367C7081315340021059C
:104AF000EFD00FE8AA8401E92145EFD06FE7AA843F
:104B000021C501444D49930700FD2380F4008547EA
:104B1000A38024012381F400A38184005DC4138950
:104B2000840023A224018149938A818E130BF00F04
:104B300083C7218E63F3F90031E883270A00A68535
:104B400003C50700EFD0AFED814503C5218E753D4C
:104B500003250A0097000020E78060D223A2018E7F
:104B6000F2406244D2444249B249224A924A024B3C
:104B70000561828013974700369703470700630556
:104B8000B70005041374F40F8507A1BF83A70A00BB
:104B900093954900BE9583C705006384670323008E
:104BA000F90083C71500130529007D14A300F9003F
:104BB000194689051374F40F97F0FF1FE780202230
:104BC0002109850993F9F90FA5B723A20400B5B708
:104BD000411122C406C62A840DE10945EFF02F9A3F
:104BE0002A86854517250020034585E8EFD03FAF8D
:104BF0000545EFF0FFC62A8411C985451725002019
:104C0000034505E7EFD0FFC422854D35B24022446D
:104C100005454101828089671387B700631AE50063
:104C20009387418E9C439DC39C4503C507004DB7A8
:104C30001387C7008147631CE5009C4503C5070037
:104C4000854711C59387418E9C43F5F381473E8587
:104C500082801D7186CEA2CCA6CACAC8CEC6D2C4D6
:104C6000D6C2DAC05EDE62DC66DA6AD86ED663036C
:104C70000526834735002A8A8DCB40411DC45945FE
:104C8000EFF0EF8F93178501E1873EC40149938AC6
:104C9000418E9389818E930C000D354D054B930BFE
:104CA000F00F83473A006361F902F6406644D64448
:104CB0004649B649264A964A064BF25B625CD25C8C
:104CC000425DB25D2561828083078402224763CB07
:104CD000E72883A70A00A5CB83470400638A6707F8
:104CE00003468400930694009305F1010545EFE027
:104CF000EFE4814719C1834705008346040011474B
:104D00006380E60203A70A008D4603471700630984
:104D1000D70099C711C705C9631F67038D8B85C766
:104D200003451400130C2400E285EFE0EFFCA30020
:104D3000A40083A70900AA84814D95E703460400D7
:104D40009147631AF60C83A70900639D072019A4F5
:104D5000814701455DB78946E317D7FE858BC1B70B
:104D6000850D93FDFD0F83C7218E03A50900E3F791
:104D7000FDFC93974D003E9503470500E30277FF46
:104D800003471500E31E97FC1946E28509053EC658
:104D9000EFD0CFE4B24769D583A4090003470400EC
:104DA000BE94C9DC9147631CF708C84405C5834716
:104DB0008400034605006306F60803470400914794
:104DC000631EF708C84419C597000020E78020AB90
:104DD00023A60400034584009145050597000020A3
:104DE000E780009C05C50347040091476311F7085D
:104DF000C8C483478400930594000505A30FF5FEFE
:104E00000346840097F0FF1FE78060FD834784001E
:104E1000639E07120DBF83A7090095D783C5218E16
:104E20000147E302B7F2BE84C10703C507FF630E63
:104E3000750B05071377F70FEDB788C4E5A0884415
:104E4000B5B7930594000505EFD04FD9E31765F783
:104E50005545EFE0DFF2630B050EF5B588443DD90B
:104E600097000020E780A0A123A40400A5B788C470
:104E700049B7231095012301A50183470400194672
:104E800093052400A301F50083078402150523037D
:104E9000F50083471400A30FF5FE97F0FF1FE7808E
:104EA00000F4034684002386C40015C21385440120
:104EB00088C89305940097F0FF1FE78040F283A70E
:104EC0000A00A68503C50700EFD06FB561A823A827
:104ED0000400F5B79387418E9C43E38807DCEFF02D
:104EE000FFBC0145EFF0DF97C9B32380C4008347BF
:104EF0001400E28513852400A380F400194697F07E
:104F0000FF1FE780C0ED034584008D450505970030
:104F10000020E780E08805C5034704009147E31EB1
:104F2000F7F0C8C483478400930594000505A30FD8
:104F3000F5FE0346840097F0FF1FE78040EA8347B1
:104F4000840089E783470400E39F67DF83A70A00A3
:104F5000E38B07DE034584005105EFD06FA1AA84DF
:104F6000E31905F00509130494021379F90F15BB31
:104F7000797106D622D426D24AD04ECE52CC56CA09
:104F80005AC85EC671C183473500AA8985C74441A6
:104F900095C05945EFE0BFDE931A850193DA8A4147
:104FA0000149138A418E130B00FDC14B83C73900A1
:104FB000636DF900B250225492540259F249624A88
:104FC000D24A424BB24B456182808387F40063C86A
:104FD000570783270A00A5C75145EFD06F992A8448
:104FE00039CD23006501A30005002301750183C7A6
:104FF0000400194693852400A301F5008387F4007B
:105000001505A306F50083C71400A30FF5FE97F05E
:10501000FF1FE780C0DC83C78400938594001305DD
:10502000C400A305F400194697F0FF1FE78020DBBA
:1050300083270A00A28503C50700EFD04F9E05090C
:10504000C1041379F90F9DB79387418E9C43BDD35B
:10505000EFF0DFA52254B25092540259F249624A4D
:10506000D24A424BB24B014545616FF06FFF972723
:10507000002083C717A0A18B172500201305459694
:1050800091E301456FE04FA0411122C485452A8478
:1050900003C5218E06C6EFF05F979727002083C7D0
:1050A000579DA98BB5C7172500201305A59223810D
:1050B000818EEFE00F9D1384818E1C4091C74D457A
:1050C000B24022444101828003C5218E19E101458D
:1050D000C5BF9D45120597F0FF1FE780606C23A4B4
:1050E000A18E71DD03C6218E12068145EFD0EFA897
:1050F000104083C6218E8147FD5513F7F70FE378E3
:10510000D7FC1397470032972300B7008507F5B700
:1051100001452381018EEFE0CF9655BF9387418CE7
:10512000884301CD411106C697F0FF1FE780207527
:10513000B24023A2018C410182808280011122CCE5
:1051400006CE8D472E846316F50603C73500E94762
:1051500003D545006318F7009727002083D7A7825F
:105160006385A706EF50E01909C58357640023172C
:10517000F5000357A400835684000356640083554A
:10518000440003453400EFE0BF8503574400971700
:10519000002083D7477F6308F7008547F2406244C9
:1051A0003E8505618280FD5717170020231DF77C7F
:1051B000EDB78967CD07631DF50083C7250031472B
:1051C0006385E7004547E39AE7FCEFE06F92F1B7AC
:1051D00041677D178147E313E5FC83C655004947C6
:1051E000E39EE6FA83C545000355240030002314EE
:1051F0000100EF40D07E55B7797122D41384418CE1
:105200001C4006D626D24AD00545ADC70D45EFE075
:105210001FB7AA841145EFE09FB62A899305F101D3
:105220001305F041EF3071250347F1019717002076
:1052300083C72775B336F00019C70D4789466384C5
:10524000E700B336F0001C4036C603C5370093852F
:105250004700EFE0EFA51040B2462A878348B6002A
:105260000348A6009307460003462600CA85268504
:10527000EF802058B25022549254025945618280E6
:10528000FD572386F1822396018E23AA018E23AC3B
:10529000018E23AE018E9387419C170700001307F0
:1052A000A70798C31707000013076736D8C3170767
:1052B00000001307A7F498C797070000938747E8F3
:1052C00023A8F18E8280411126C29384418C9C4098
:1052D00006C622C49DCB2A840D45EFC07FE9AA856E
:1052E00019CD930700FD2300F5008D47A30085002D
:1052F0002301F5009C4003C50700EFC05FF211C415
:105300002244B2409244410111BDB2402244924431
:1053100041018280797122D403544500896706D601
:1053200026D24AD04ECE52CC13876700631EE402C9
:105330009387418C9C43814489CF184503450700DE
:1053400015E10547A380E7000545EF80404B19E9CB
:105350008544B2502254268502599254F249624A39
:10536000456182808D37EDB71387970063658704A9
:1053700003C7C1829307F00FE30CF7FC1C451145EE
:1053800083C40700EFC0DFDEAA8579D1930700FD53
:105390002300F50089472301F500F977E1173E94D2
:1053A00013341400A3009500A301850003C5C18236
:1053B000EFC0FFE671BFA9078144E31CF4F813892D
:1053C000418C832709004A8AC9D7184583C417002E
:1053D000854783490700638EF4029717002083C72F
:1053E000675ABDF70D45EFC0BFD8AA8505C1930721
:1053F00000FD2300F5009147A30035012301F500CE
:105400008327090003C50700EFC07FE1EFF01FD13C
:1054100081B79387418F9C4385E30145EFE03F9639
:105420002A8601CA89451715002003456564EFD017
:105430000FAB83270A00B9A003C6070093861700A5
:105440009305F1000545EFD07FEF61D98347050053
:10545000858BE1D70545EFE09F929307B0032A843F
:1054600063FFA7025D6613060670894517150020C5
:1054700003450560130444FCEFD0CFBA2396818E18
:10548000832709000947A380E7009717002083C7F7
:10549000674F99CB971700202386074E5DBD1306F3
:1054A00000643306C502B5BF4E85313D5DB59387B7
:1054B000418C9C43011122CC06CE26CA4AC84544E1
:1054C00089EB9717002083C7D75A13F7570009EBCA
:1054D00049442285F2406244D244424905618280B7
:1054E0001387418F184341446DD70347070075D395
:1054F000858BAE842A89C9CB83C704000547F91779
:1055000093F7F70FE366F7FC93057004314597F0C6
:10551000FF1FE780E02823A2A18C4D445DD9230022
:105520002501A30005002946A685090597F0FF1F60
:10553000E780E08A171700200347A7448D47631DC3
:10554000F704EFE06F852C00EF70A0392800EFE042
:10555000EFDC85474545171700202305F742EFE0AC
:105560001F821375F50F97170020A38DA7400144E4
:105570002DD15D6613060670914517150020034571
:10558000254FEFD02FAAB1B7EFE0DFBF2A84EF405D
:105590003069E373A4F68DBFEFF01FC62A8415D9D6
:1055A000EFF0DFB73DB7411126C29384418C9C4098
:1055B00006C622C4A1C783C707000D446391A70490
:1055C0008945171500200345A54AEFD08FA89145BE
:1055D000171500200345C5492396018EEFD06FA70C
:1055E00097170020A380073A9C400145A3808700BD
:1055F0002244B240924441016F8060204944228598
:10560000B2402244924441018280411106C685473E
:105610006315F50683D7C18EA1CB1717002003476A
:10562000673639E31307B003636BF7028945171533
:1056300000200345E543EFD0CFA19307006403D6D4
:10564000C18E3306F60289451715002003454542F1
:10565000EFD0EF882396018EB2404101828093877C
:1056600047FC2396F18ECDBF9387418C9C43EDD7A9
:10567000B24003C5070041013DB79387418C9C436D
:10568000E1DF9717002083C7D73E918BF1D789457B
:10569000171500200345C53DEFD0AF9BB2402396C0
:1056A000018E41016FF09FA79717002083C7773CB9
:1056B000958BCDC79387418F99E19387C18F9C4389
:1056C000D1CFFD4763EEC70811C2D9CA411122C428
:1056D00026C206C64AC02386A182B6843284A1C1EE
:1056E0001389418F032509007D4681450505EFC0DB
:1056F000DFC803250900A6852286050597E0FF1F60
:10570000E780E06D832509002285238085002244FF
:10571000B24092440249850541016F80C00D138952
:10572000C18F032509007D4681450505EFC0FFC4F3
:1057300003250900A6852286050597E0FF1FE7805F
:10574000006A832509002285238085002244B24017
:1057500092440249850541016F80200A49458280B3
:10576000094582809717002083C7B730918B99CF66
:1057700041111385018F06C6EFD0DFB1B240FD574E
:10578000171700202311F7204101828001456FD0B7
:105790007FB09387418F8843411122C406C626C239
:1057A0003E8419C597F0FF1FE780600D23AA018E84
:1057B0009387C18F884319C597F0FF1FE780200C9E
:1057C00023AE018E971400209384842A83C734006B
:1057D000958BADCB1385419CEFD07FAB83C7340055
:1057E000958B99E74D45B240224492444101828015
:1057F000930570041305000297F0FF1FE78040FA3D
:1058000023AAA18E65D1130600028145EFC0FFB621
:10581000930570041305000297F0FF1FE78040F81E
:1058200023AEA18E01C9130600028145EFC0FFB46B
:10583000014555BF084097F0FF1FE780400423AAA9
:10584000018E4DB70145EFD09FA4DDB703C705001A
:10585000937625009377D70F99C293672700131883
:1058600085011358884113F7F7076354080013E7BD
:105870000708937685009377770F99C2936787001F
:105880001377050293F6F70D19C393E607022380F9
:10589000D500634508009377A50281CB83470600B6
:1058A00093E7C7002300F60082807DFD8347060052
:1058B000CD9BCDBF2D456317071403C805000947CD
:1058C000631EE812C841034715000345050022077F
:1058D000498F42070D654187930825A06309170B7F
:1058E000011122CC26CA4AC84EC606CEBE89B6844D
:1058F00032842E8963CEE800930705A0630DF7027A
:10590000130515A0630EA704239004000545A5A068
:10591000930745A06307F7086346F706130565AAD2
:10592000E314A7FE85472390F600DC4583C70700F4
:105930002300F60081A0C845EFC05FA54205418164
:105940004E86637335012A862390C4004206418245
:105950008325C900228597E0FF1FE780404819A8EA
:10596000DC4583D70700239006012300F600A183BE
:10597000A300F6000145F2406244D2444249B249D4
:105980000561828099472390F6001946D1B7854773
:105990002390F600DC45014583C707002300F6008D
:1059A0008280DC45A9CB21472390E60003D707007E
:1059B0002300E60003D707002183A300E60003D7F6
:1059C00027002301E60003D727002183A301E60077
:1059D00003D747002302E60003D747002183A30231
:1059E000E60003D767002303E60083D76700A1839F
:1059F000A303F60041B723900600ADBF2390060035
:105A000005458280828083C8050089476394F81425
:105A1000DC41797122D406D626D24AD04ECE52CC61
:105A200003C8170083C707002E8422083368F800D4
:105A300042088D6713580841138327A0630D680E31
:105A40002A8A3A89B684B285634C0301138707A07A
:105A5000630AE802938717A06304F808854711A832
:105A6000138737A06305E80A138767AA8D47E317F2
:105A7000E8FEB250225492540259F249624A3E85DD
:105A800045618280484432C6EFC05F904205418143
:105A90009D47E36025FFB3099900D547B24563D41C
:105AA0003701B547F9B748442686C2094A9597E0B9
:105AB000FF1FE780C032484493D909015946330695
:105AC000364181454E95EFC05F8B938741909C4353
:105AD00099E3814779BF9C438145E5DF528535A035
